{
  "abi": [
    {
      "constant": true,
      "inputs": [],
      "name": "getData",
      "outputs": [
        {
          "name": "",
          "type": "address"
        },
        {
          "name": "",
          "type": "address"
        },
        {
          "name": "",
          "type": "string"
        },
        {
          "name": "",
          "type": "int256"
        },
        {
          "name": "",
          "type": "string"
        },
        {
          "name": "",
          "type": "string"
        },
        {
          "name": "",
          "type": "int256"
        },
        {
          "components": [
            {
              "name": "ownerAdd",
              "type": "address"
            },
            {
              "name": "selfAdd",
              "type": "address"
            },
            {
              "name": "title",
              "type": "string"
            },
            {
              "name": "details",
              "type": "string"
            },
            {
              "name": "doctor",
              "type": "bool"
            },
            {
              "name": "owner",
              "type": "bool"
            },
            {
              "name": "bills",
              "type": "string"
            },
            {
              "name": "index",
              "type": "uint256"
            },
            {
              "name": "finalize",
              "type": "bool"
            },
            {
              "name": "pendingRequestsIndex",
              "type": "uint256"
            }
          ],
          "name": "",
          "type": "tuple[]"
        }
      ],
      "payable": false,
      "stateMutability": "view",
      "type": "function"
    },
    {
      "constant": false,
      "inputs": [
        {
          "name": "index",
          "type": "uint256"
        },
        {
          "name": "add",
          "type": "address"
        },
        {
          "name": "flag",
          "type": "bool"
        }
      ],
      "name": "finalizeRequest",
      "outputs": [],
      "payable": false,
      "stateMutability": "nonpayable",
      "type": "function"
    },
    {
      "constant": false,
      "inputs": [
        {
          "name": "fileHash",
          "type": "string"
        },
        {
          "name": "titlee",
          "type": "string"
        },
        {
          "name": "detailss",
          "type": "string"
        }
      ],
      "name": "applyClaim",
      "outputs": [],
      "payable": false,
      "stateMutability": "nonpayable",
      "type": "function"
    },
    {
      "inputs": [
        {
          "name": "ownerrr",
          "type": "address"
        },
        {
          "name": "namee",
          "type": "string"
        },
        {
          "name": "aadharr",
          "type": "int256"
        },
        {
          "name": "amountt",
          "type": "int256"
        },
        {
          "name": "insDetailss",
          "type": "string"
        },
        {
          "name": "documentss",
          "type": "string"
        }
      ],
      "payable": false,
      "stateMutability": "nonpayable",
      "type": "constructor"
    }
  ],
  "devdoc": {
    "methods": {}
  },
  "evm": {
    "assembly": "    /* \"background.sol\":16473:18726  contract Insurance {\r... */\n  mstore(0x40, 0x80)\n    /* \"background.sol\":16950:16952  -1 */\n  0xffffffffffffffffffffffffffffffffffffffffffffffffffffffffffffffff\n    /* \"background.sol\":16930:16952  int requestsCount = -1 */\n  0x07\n  sstore\n    /* \"background.sol\":16986:17340  constructor(address ownerrr, string memory namee, int aadharr, int amountt, string memory insDetailss, string memory documentss) public {\r... */\n  callvalue\n    /* \"--CODEGEN--\":8:17   */\n  dup1\n    /* \"--CODEGEN--\":5:7   */\n  iszero\n  tag_1\n  jumpi\n    /* \"--CODEGEN--\":30:31   */\n  0x00\n    /* \"--CODEGEN--\":27:28   */\n  dup1\n    /* \"--CODEGEN--\":20:32   */\n  revert\n    /* \"--CODEGEN--\":5:7   */\ntag_1:\n    /* \"background.sol\":16986:17340  constructor(address ownerrr, string memory namee, int aadharr, int amountt, string memory insDetailss, string memory documentss) public {\r... */\n  pop\n  mload(0x40)\n  sub(codesize, bytecodeSize)\n  dup1\n  bytecodeSize\n  dup4\n  codecopy\n  dup2\n  add\n  dup1\n  0x40\n  mstore\n  tag_2\n  swap2\n  swap1\n  dup2\n  add\n  swap1\n  jump(tag_3)\ntag_2:\n    /* \"background.sol\":17155:17159  this */\n  address\n    /* \"background.sol\":17133:17144  selfAddress */\n  0x00\n  dup1\n    /* \"background.sol\":17133:17160  selfAddress = address(this) */\n  0x0100\n  exp\n  dup2\n  sload\n  dup2\n  0xffffffffffffffffffffffffffffffffffffffff\n  mul\n  not\n  and\n  swap1\n  dup4\n  0xffffffffffffffffffffffffffffffffffffffff\n  and\n  mul\n  or\n  swap1\n  sstore\n  pop\n    /* \"background.sol\":17180:17187  ownerrr */\n  dup6\n    /* \"background.sol\":17171:17177  ownerr */\n  0x01\n  0x00\n    /* \"background.sol\":17171:17187  ownerr = ownerrr */\n  0x0100\n  exp\n  dup2\n  sload\n  dup2\n  0xffffffffffffffffffffffffffffffffffffffff\n  mul\n  not\n  and\n  swap1\n  dup4\n  0xffffffffffffffffffffffffffffffffffffffff\n  and\n  mul\n  or\n  swap1\n  sstore\n  pop\n    /* \"background.sol\":17205:17210  namee */\n  dup5\n    /* \"background.sol\":17198:17202  name */\n  0x02\n    /* \"background.sol\":17198:17210  name = namee */\n  swap1\n  dup1\n  mload\n  swap1\n  0x20\n  add\n  swap1\n  tag_6\n  swap3\n  swap2\n  swap1\n  tag_7\n  jump\t// in\ntag_6:\n  pop\n    /* \"background.sol\":17234:17245  insDetailss */\n  dup2\n    /* \"background.sol\":17221:17231  insDetails */\n  0x04\n    /* \"background.sol\":17221:17245  insDetails = insDetailss */\n  swap1\n  dup1\n  mload\n  swap1\n  0x20\n  add\n  swap1\n  tag_8\n  swap3\n  swap2\n  swap1\n  tag_7\n  jump\t// in\ntag_8:\n  pop\n    /* \"background.sol\":17268:17278  documentss */\n  dup1\n    /* \"background.sol\":17256:17265  documents */\n  0x05\n    /* \"background.sol\":17256:17278  documents = documentss */\n  swap1\n  dup1\n  mload\n  swap1\n  0x20\n  add\n  swap1\n  tag_9\n  swap3\n  swap2\n  swap1\n  tag_7\n  jump\t// in\ntag_9:\n  pop\n    /* \"background.sol\":17298:17305  aadharr */\n  dup4\n    /* \"background.sol\":17289:17295  aadhar */\n  0x03\n    /* \"background.sol\":17289:17305  aadhar = aadharr */\n  dup2\n  swap1\n  sstore\n  pop\n    /* \"background.sol\":17325:17332  amountt */\n  dup3\n    /* \"background.sol\":17316:17322  amount */\n  0x06\n    /* \"background.sol\":17316:17332  amount = amountt */\n  dup2\n  swap1\n  sstore\n  pop\n    /* \"background.sol\":16986:17340  constructor(address ownerrr, string memory namee, int aadharr, int amountt, string memory insDetailss, string memory documentss) public {\r... */\n  pop\n  pop\n  pop\n  pop\n  pop\n  pop\n    /* \"background.sol\":16473:18726  contract Insurance {\r... */\n  jump(tag_10)\ntag_7:\n  dup3\n  dup1\n  sload\n  0x01\n  dup2\n  0x01\n  and\n  iszero\n  0x0100\n  mul\n  sub\n  and\n  0x02\n  swap1\n  div\n  swap1\n  0x00\n  mstore\n  keccak256(0x00, 0x20)\n  swap1\n  0x1f\n  add\n  0x20\n  swap1\n  div\n  dup2\n  add\n  swap3\n  dup3\n  0x1f\n  lt\n  tag_12\n  jumpi\n  dup1\n  mload\n  not(0xff)\n  and\n  dup4\n  dup1\n  add\n  or\n  dup6\n  sstore\n  jump(tag_11)\ntag_12:\n  dup3\n  dup1\n  add\n  0x01\n  add\n  dup6\n  sstore\n  dup3\n  iszero\n  tag_11\n  jumpi\n  swap2\n  dup3\n  add\ntag_13:\n  dup3\n  dup2\n  gt\n  iszero\n  tag_14\n  jumpi\n  dup3\n  mload\n  dup3\n  sstore\n  swap2\n  0x20\n  add\n  swap2\n  swap1\n  0x01\n  add\n  swap1\n  jump(tag_13)\ntag_14:\ntag_11:\n  pop\n  swap1\n  pop\n  tag_15\n  swap2\n  swap1\n  tag_16\n  jump\t// in\ntag_15:\n  pop\n  swap1\n  jump\t// out\ntag_16:\n  tag_17\n  swap2\n  swap1\ntag_18:\n  dup1\n  dup3\n  gt\n  iszero\n  tag_19\n  jumpi\n  0x00\n  dup2\n  0x00\n  swap1\n  sstore\n  pop\n  0x01\n  add\n  jump(tag_18)\ntag_19:\n  pop\n  swap1\n  jump\ntag_17:\n  swap1\n  jump\t// out\n    /* \"--CODEGEN--\":5:127   */\ntag_21:\n  0x00\n    /* \"--CODEGEN--\":83:122   */\n  tag_22\n    /* \"--CODEGEN--\":114:120   */\n  dup3\n    /* \"--CODEGEN--\":108:121   */\n  mload\n    /* \"--CODEGEN--\":83:122   */\n  jump(tag_23)\ntag_22:\n    /* \"--CODEGEN--\":74:122   */\n  swap1\n  pop\n    /* \"--CODEGEN--\":68:127   */\n  swap3\n  swap2\n  pop\n  pop\n  jump\n    /* \"--CODEGEN--\":134:254   */\ntag_25:\n  0x00\n    /* \"--CODEGEN--\":211:249   */\n  tag_26\n    /* \"--CODEGEN--\":241:247   */\n  dup3\n    /* \"--CODEGEN--\":235:248   */\n  mload\n    /* \"--CODEGEN--\":211:249   */\n  jump(tag_27)\ntag_26:\n    /* \"--CODEGEN--\":202:249   */\n  swap1\n  pop\n    /* \"--CODEGEN--\":196:254   */\n  swap3\n  swap2\n  pop\n  pop\n  jump\n    /* \"--CODEGEN--\":262:706   */\ntag_29:\n  0x00\n    /* \"--CODEGEN--\":375:378   */\n  dup3\n    /* \"--CODEGEN--\":368:372   */\n  0x1f\n    /* \"--CODEGEN--\":360:366   */\n  dup4\n    /* \"--CODEGEN--\":356:373   */\n  add\n    /* \"--CODEGEN--\":352:379   */\n  slt\n    /* \"--CODEGEN--\":345:380   */\n  iszero\n    /* \"--CODEGEN--\":342:344   */\n  iszero\n  tag_30\n  jumpi\n    /* \"--CODEGEN--\":393:394   */\n  0x00\n    /* \"--CODEGEN--\":390:391   */\n  dup1\n    /* \"--CODEGEN--\":383:395   */\n  revert\n    /* \"--CODEGEN--\":342:344   */\ntag_30:\n    /* \"--CODEGEN--\":423:429   */\n  dup2\n    /* \"--CODEGEN--\":417:430   */\n  mload\n    /* \"--CODEGEN--\":445:510   */\n  tag_31\n    /* \"--CODEGEN--\":460:509   */\n  tag_32\n    /* \"--CODEGEN--\":502:508   */\n  dup3\n    /* \"--CODEGEN--\":460:509   */\n  jump(tag_33)\ntag_32:\n    /* \"--CODEGEN--\":445:510   */\n  jump(tag_34)\ntag_31:\n    /* \"--CODEGEN--\":436:510   */\n  swap2\n  pop\n    /* \"--CODEGEN--\":530:536   */\n  dup1\n    /* \"--CODEGEN--\":523:528   */\n  dup3\n    /* \"--CODEGEN--\":516:537   */\n  mstore\n    /* \"--CODEGEN--\":566:570   */\n  0x20\n    /* \"--CODEGEN--\":558:564   */\n  dup4\n    /* \"--CODEGEN--\":554:571   */\n  add\n    /* \"--CODEGEN--\":599:603   */\n  0x20\n    /* \"--CODEGEN--\":592:597   */\n  dup4\n    /* \"--CODEGEN--\":588:604   */\n  add\n    /* \"--CODEGEN--\":634:637   */\n  dup6\n    /* \"--CODEGEN--\":625:631   */\n  dup4\n    /* \"--CODEGEN--\":620:623   */\n  dup4\n    /* \"--CODEGEN--\":616:632   */\n  add\n    /* \"--CODEGEN--\":613:638   */\n  gt\n    /* \"--CODEGEN--\":610:612   */\n  iszero\n  tag_35\n  jumpi\n    /* \"--CODEGEN--\":651:652   */\n  0x00\n    /* \"--CODEGEN--\":648:649   */\n  dup1\n    /* \"--CODEGEN--\":641:653   */\n  revert\n    /* \"--CODEGEN--\":610:612   */\ntag_35:\n    /* \"--CODEGEN--\":661:700   */\n  tag_36\n    /* \"--CODEGEN--\":693:699   */\n  dup4\n    /* \"--CODEGEN--\":688:691   */\n  dup3\n    /* \"--CODEGEN--\":683:686   */\n  dup5\n    /* \"--CODEGEN--\":661:700   */\n  jump(tag_37)\ntag_36:\n    /* \"--CODEGEN--\":335:706   */\n  pop\n  pop\n  pop\n  swap3\n  swap2\n  pop\n  pop\n  jump\n    /* \"--CODEGEN--\":714:1953   */\ntag_3:\n  0x00\n  dup1\n  0x00\n  dup1\n  0x00\n  dup1\n    /* \"--CODEGEN--\":942:945   */\n  0xc0\n    /* \"--CODEGEN--\":930:939   */\n  dup8\n    /* \"--CODEGEN--\":921:928   */\n  dup10\n    /* \"--CODEGEN--\":917:940   */\n  sub\n    /* \"--CODEGEN--\":913:946   */\n  slt\n    /* \"--CODEGEN--\":910:912   */\n  iszero\n  tag_39\n  jumpi\n    /* \"--CODEGEN--\":959:960   */\n  0x00\n    /* \"--CODEGEN--\":956:957   */\n  dup1\n    /* \"--CODEGEN--\":949:961   */\n  revert\n    /* \"--CODEGEN--\":910:912   */\ntag_39:\n    /* \"--CODEGEN--\":994:995   */\n  0x00\n    /* \"--CODEGEN--\":1011:1075   */\n  tag_40\n    /* \"--CODEGEN--\":1067:1074   */\n  dup10\n    /* \"--CODEGEN--\":1058:1064   */\n  dup3\n    /* \"--CODEGEN--\":1047:1056   */\n  dup11\n    /* \"--CODEGEN--\":1043:1065   */\n  add\n    /* \"--CODEGEN--\":1011:1075   */\n  jump(tag_21)\ntag_40:\n    /* \"--CODEGEN--\":1001:1075   */\n  swap7\n  pop\n    /* \"--CODEGEN--\":973:1081   */\n  pop\n    /* \"--CODEGEN--\":1133:1135   */\n  0x20\n    /* \"--CODEGEN--\":1122:1131   */\n  dup8\n    /* \"--CODEGEN--\":1118:1136   */\n  add\n    /* \"--CODEGEN--\":1112:1137   */\n  mload\n    /* \"--CODEGEN--\":1157:1175   */\n  0xffffffffffffffff\n    /* \"--CODEGEN--\":1149:1155   */\n  dup2\n    /* \"--CODEGEN--\":1146:1176   */\n  gt\n    /* \"--CODEGEN--\":1143:1145   */\n  iszero\n  tag_41\n  jumpi\n    /* \"--CODEGEN--\":1189:1190   */\n  0x00\n    /* \"--CODEGEN--\":1186:1187   */\n  dup1\n    /* \"--CODEGEN--\":1179:1191   */\n  revert\n    /* \"--CODEGEN--\":1143:1145   */\ntag_41:\n    /* \"--CODEGEN--\":1209:1283   */\n  tag_42\n    /* \"--CODEGEN--\":1275:1282   */\n  dup10\n    /* \"--CODEGEN--\":1266:1272   */\n  dup3\n    /* \"--CODEGEN--\":1255:1264   */\n  dup11\n    /* \"--CODEGEN--\":1251:1273   */\n  add\n    /* \"--CODEGEN--\":1209:1283   */\n  jump(tag_29)\ntag_42:\n    /* \"--CODEGEN--\":1199:1283   */\n  swap6\n  pop\n    /* \"--CODEGEN--\":1091:1289   */\n  pop\n    /* \"--CODEGEN--\":1320:1322   */\n  0x40\n    /* \"--CODEGEN--\":1338:1401   */\n  tag_43\n    /* \"--CODEGEN--\":1393:1400   */\n  dup10\n    /* \"--CODEGEN--\":1384:1390   */\n  dup3\n    /* \"--CODEGEN--\":1373:1382   */\n  dup11\n    /* \"--CODEGEN--\":1369:1391   */\n  add\n    /* \"--CODEGEN--\":1338:1401   */\n  jump(tag_25)\ntag_43:\n    /* \"--CODEGEN--\":1328:1401   */\n  swap5\n  pop\n    /* \"--CODEGEN--\":1299:1407   */\n  pop\n    /* \"--CODEGEN--\":1438:1440   */\n  0x60\n    /* \"--CODEGEN--\":1456:1519   */\n  tag_44\n    /* \"--CODEGEN--\":1511:1518   */\n  dup10\n    /* \"--CODEGEN--\":1502:1508   */\n  dup3\n    /* \"--CODEGEN--\":1491:1500   */\n  dup11\n    /* \"--CODEGEN--\":1487:1509   */\n  add\n    /* \"--CODEGEN--\":1456:1519   */\n  jump(tag_25)\ntag_44:\n    /* \"--CODEGEN--\":1446:1519   */\n  swap4\n  pop\n    /* \"--CODEGEN--\":1417:1525   */\n  pop\n    /* \"--CODEGEN--\":1577:1580   */\n  0x80\n    /* \"--CODEGEN--\":1566:1575   */\n  dup8\n    /* \"--CODEGEN--\":1562:1581   */\n  add\n    /* \"--CODEGEN--\":1556:1582   */\n  mload\n    /* \"--CODEGEN--\":1602:1620   */\n  0xffffffffffffffff\n    /* \"--CODEGEN--\":1594:1600   */\n  dup2\n    /* \"--CODEGEN--\":1591:1621   */\n  gt\n    /* \"--CODEGEN--\":1588:1590   */\n  iszero\n  tag_45\n  jumpi\n    /* \"--CODEGEN--\":1634:1635   */\n  0x00\n    /* \"--CODEGEN--\":1631:1632   */\n  dup1\n    /* \"--CODEGEN--\":1624:1636   */\n  revert\n    /* \"--CODEGEN--\":1588:1590   */\ntag_45:\n    /* \"--CODEGEN--\":1654:1728   */\n  tag_46\n    /* \"--CODEGEN--\":1720:1727   */\n  dup10\n    /* \"--CODEGEN--\":1711:1717   */\n  dup3\n    /* \"--CODEGEN--\":1700:1709   */\n  dup11\n    /* \"--CODEGEN--\":1696:1718   */\n  add\n    /* \"--CODEGEN--\":1654:1728   */\n  jump(tag_29)\ntag_46:\n    /* \"--CODEGEN--\":1644:1728   */\n  swap3\n  pop\n    /* \"--CODEGEN--\":1535:1734   */\n  pop\n    /* \"--CODEGEN--\":1786:1789   */\n  0xa0\n    /* \"--CODEGEN--\":1775:1784   */\n  dup8\n    /* \"--CODEGEN--\":1771:1790   */\n  add\n    /* \"--CODEGEN--\":1765:1791   */\n  mload\n    /* \"--CODEGEN--\":1811:1829   */\n  0xffffffffffffffff\n    /* \"--CODEGEN--\":1803:1809   */\n  dup2\n    /* \"--CODEGEN--\":1800:1830   */\n  gt\n    /* \"--CODEGEN--\":1797:1799   */\n  iszero\n  tag_47\n  jumpi\n    /* \"--CODEGEN--\":1843:1844   */\n  0x00\n    /* \"--CODEGEN--\":1840:1841   */\n  dup1\n    /* \"--CODEGEN--\":1833:1845   */\n  revert\n    /* \"--CODEGEN--\":1797:1799   */\ntag_47:\n    /* \"--CODEGEN--\":1863:1937   */\n  tag_48\n    /* \"--CODEGEN--\":1929:1936   */\n  dup10\n    /* \"--CODEGEN--\":1920:1926   */\n  dup3\n    /* \"--CODEGEN--\":1909:1918   */\n  dup11\n    /* \"--CODEGEN--\":1905:1927   */\n  add\n    /* \"--CODEGEN--\":1863:1937   */\n  jump(tag_29)\ntag_48:\n    /* \"--CODEGEN--\":1853:1937   */\n  swap2\n  pop\n    /* \"--CODEGEN--\":1744:1943   */\n  pop\n    /* \"--CODEGEN--\":904:1953   */\n  swap3\n  swap6\n  pop\n  swap3\n  swap6\n  pop\n  swap3\n  swap6\n  jump\n    /* \"--CODEGEN--\":1960:2216   */\ntag_34:\n  0x00\n    /* \"--CODEGEN--\":2022:2024   */\n  0x40\n    /* \"--CODEGEN--\":2016:2025   */\n  mload\n    /* \"--CODEGEN--\":2006:2025   */\n  swap1\n  pop\n    /* \"--CODEGEN--\":2060:2064   */\n  dup2\n    /* \"--CODEGEN--\":2052:2058   */\n  dup2\n    /* \"--CODEGEN--\":2048:2065   */\n  add\n    /* \"--CODEGEN--\":2159:2165   */\n  dup2\n    /* \"--CODEGEN--\":2147:2157   */\n  dup2\n    /* \"--CODEGEN--\":2144:2166   */\n  lt\n    /* \"--CODEGEN--\":2123:2141   */\n  0xffffffffffffffff\n    /* \"--CODEGEN--\":2111:2121   */\n  dup3\n    /* \"--CODEGEN--\":2108:2142   */\n  gt\n    /* \"--CODEGEN--\":2105:2167   */\n  or\n    /* \"--CODEGEN--\":2102:2104   */\n  iszero\n  tag_50\n  jumpi\n    /* \"--CODEGEN--\":2180:2181   */\n  0x00\n    /* \"--CODEGEN--\":2177:2178   */\n  dup1\n    /* \"--CODEGEN--\":2170:2182   */\n  revert\n    /* \"--CODEGEN--\":2102:2104   */\ntag_50:\n    /* \"--CODEGEN--\":2200:2210   */\n  dup1\n    /* \"--CODEGEN--\":2196:2198   */\n  0x40\n    /* \"--CODEGEN--\":2189:2211   */\n  mstore\n    /* \"--CODEGEN--\":2000:2216   */\n  pop\n  swap2\n  swap1\n  pop\n  jump\n    /* \"--CODEGEN--\":2223:2482   */\ntag_33:\n  0x00\n    /* \"--CODEGEN--\":2367:2385   */\n  0xffffffffffffffff\n    /* \"--CODEGEN--\":2359:2365   */\n  dup3\n    /* \"--CODEGEN--\":2356:2386   */\n  gt\n    /* \"--CODEGEN--\":2353:2355   */\n  iszero\n  tag_52\n  jumpi\n    /* \"--CODEGEN--\":2399:2400   */\n  0x00\n    /* \"--CODEGEN--\":2396:2397   */\n  dup1\n    /* \"--CODEGEN--\":2389:2401   */\n  revert\n    /* \"--CODEGEN--\":2353:2355   */\ntag_52:\n    /* \"--CODEGEN--\":2443:2447   */\n  0x1f\n    /* \"--CODEGEN--\":2439:2448   */\n  not\n    /* \"--CODEGEN--\":2432:2436   */\n  0x1f\n    /* \"--CODEGEN--\":2424:2430   */\n  dup4\n    /* \"--CODEGEN--\":2420:2437   */\n  add\n    /* \"--CODEGEN--\":2416:2449   */\n  and\n    /* \"--CODEGEN--\":2408:2449   */\n  swap1\n  pop\n    /* \"--CODEGEN--\":2472:2476   */\n  0x20\n    /* \"--CODEGEN--\":2466:2470   */\n  dup2\n    /* \"--CODEGEN--\":2462:2477   */\n  add\n    /* \"--CODEGEN--\":2454:2477   */\n  swap1\n  pop\n    /* \"--CODEGEN--\":2290:2482   */\n  swap2\n  swap1\n  pop\n  jump\n    /* \"--CODEGEN--\":2489:2617   */\ntag_54:\n  0x00\n    /* \"--CODEGEN--\":2569:2611   */\n  0xffffffffffffffffffffffffffffffffffffffff\n    /* \"--CODEGEN--\":2562:2567   */\n  dup3\n    /* \"--CODEGEN--\":2558:2612   */\n  and\n    /* \"--CODEGEN--\":2547:2612   */\n  swap1\n  pop\n    /* \"--CODEGEN--\":2541:2617   */\n  swap2\n  swap1\n  pop\n  jump\n    /* \"--CODEGEN--\":2624:2729   */\ntag_23:\n  0x00\n    /* \"--CODEGEN--\":2693:2724   */\n  tag_56\n    /* \"--CODEGEN--\":2718:2723   */\n  dup3\n    /* \"--CODEGEN--\":2693:2724   */\n  jump(tag_54)\ntag_56:\n    /* \"--CODEGEN--\":2682:2724   */\n  swap1\n  pop\n    /* \"--CODEGEN--\":2676:2729   */\n  swap2\n  swap1\n  pop\n  jump\n    /* \"--CODEGEN--\":2736:2814   */\ntag_27:\n  0x00\n    /* \"--CODEGEN--\":2804:2809   */\n  dup2\n    /* \"--CODEGEN--\":2793:2809   */\n  swap1\n  pop\n    /* \"--CODEGEN--\":2787:2814   */\n  swap2\n  swap1\n  pop\n  jump\n    /* \"--CODEGEN--\":2822:3090   */\ntag_37:\n    /* \"--CODEGEN--\":2887:2888   */\n  0x00\n    /* \"--CODEGEN--\":2894:2995   */\ntag_59:\n    /* \"--CODEGEN--\":2908:2914   */\n  dup4\n    /* \"--CODEGEN--\":2905:2906   */\n  dup2\n    /* \"--CODEGEN--\":2902:2915   */\n  lt\n    /* \"--CODEGEN--\":2894:2995   */\n  iszero\n  tag_60\n  jumpi\n    /* \"--CODEGEN--\":2984:2985   */\n  dup1\n    /* \"--CODEGEN--\":2979:2982   */\n  dup3\n    /* \"--CODEGEN--\":2975:2986   */\n  add\n    /* \"--CODEGEN--\":2969:2987   */\n  mload\n    /* \"--CODEGEN--\":2965:2966   */\n  dup2\n    /* \"--CODEGEN--\":2960:2963   */\n  dup5\n    /* \"--CODEGEN--\":2956:2967   */\n  add\n    /* \"--CODEGEN--\":2949:2988   */\n  mstore\n    /* \"--CODEGEN--\":2930:2932   */\n  0x20\n    /* \"--CODEGEN--\":2927:2928   */\n  dup2\n    /* \"--CODEGEN--\":2923:2933   */\n  add\n    /* \"--CODEGEN--\":2918:2933   */\n  swap1\n  pop\n    /* \"--CODEGEN--\":2894:2995   */\n  jump(tag_59)\ntag_60:\n    /* \"--CODEGEN--\":3010:3016   */\n  dup4\n    /* \"--CODEGEN--\":3007:3008   */\n  dup2\n    /* \"--CODEGEN--\":3004:3017   */\n  gt\n    /* \"--CODEGEN--\":3001:3003   */\n  iszero\n  tag_62\n  jumpi\n    /* \"--CODEGEN--\":3075:3076   */\n  0x00\n    /* \"--CODEGEN--\":3066:3072   */\n  dup5\n    /* \"--CODEGEN--\":3061:3064   */\n  dup5\n    /* \"--CODEGEN--\":3057:3073   */\n  add\n    /* \"--CODEGEN--\":3050:3077   */\n  mstore\n    /* \"--CODEGEN--\":3001:3003   */\ntag_62:\n    /* \"--CODEGEN--\":2871:3090   */\n  pop\n  pop\n  pop\n  pop\n  jump\n    /* \"background.sol\":16473:18726  contract Insurance {\r... */\ntag_10:\n  dataSize(sub_0)\n  dup1\n  dataOffset(sub_0)\n  0x00\n  codecopy\n  0x00\n  return\nstop\n\nsub_0: assembly {\n        /* \"background.sol\":16473:18726  contract Insurance {\r... */\n      mstore(0x40, 0x80)\n      callvalue\n        /* \"--CODEGEN--\":8:17   */\n      dup1\n        /* \"--CODEGEN--\":5:7   */\n      iszero\n      tag_1\n      jumpi\n        /* \"--CODEGEN--\":30:31   */\n      0x00\n        /* \"--CODEGEN--\":27:28   */\n      dup1\n        /* \"--CODEGEN--\":20:32   */\n      revert\n        /* \"--CODEGEN--\":5:7   */\n    tag_1:\n        /* \"background.sol\":16473:18726  contract Insurance {\r... */\n      pop\n      jumpi(tag_2, lt(calldatasize, 0x04))\n      calldataload(0x00)\n      0x0100000000000000000000000000000000000000000000000000000000\n      swap1\n      div\n      dup1\n      0x3bc5de30\n      eq\n      tag_3\n      jumpi\n      dup1\n      0x72102d18\n      eq\n      tag_4\n      jumpi\n      dup1\n      0x83bffb88\n      eq\n      tag_5\n      jumpi\n    tag_2:\n      0x00\n      dup1\n      revert\n        /* \"background.sol\":17352:17583  function getData() public view returns(address, address, string memory, int, string memory, string memory, int, Request[] memory) {\r... */\n    tag_3:\n      tag_6\n      tag_7\n      jump\t// in\n    tag_6:\n      mload(0x40)\n      tag_8\n      swap9\n      swap8\n      swap7\n      swap6\n      swap5\n      swap4\n      swap3\n      swap2\n      swap1\n      jump(tag_9)\n    tag_8:\n      mload(0x40)\n      dup1\n      swap2\n      sub\n      swap1\n      return\n        /* \"background.sol\":18327:18723  function finalizeRequest(uint256 index, address add, bool flag) public {\r... */\n    tag_4:\n      tag_10\n      0x04\n      dup1\n      calldatasize\n      sub\n      tag_11\n      swap2\n      swap1\n      dup2\n      add\n      swap1\n      jump(tag_12)\n    tag_11:\n      tag_13\n      jump\t// in\n    tag_10:\n      stop\n        /* \"background.sol\":17591:18319  function applyClaim(string memory fileHash, string memory titlee, string memory detailss) public {\r... */\n    tag_5:\n      tag_14\n      0x04\n      dup1\n      calldatasize\n      sub\n      tag_15\n      swap2\n      swap1\n      dup2\n      add\n      swap1\n      jump(tag_16)\n    tag_15:\n      tag_17\n      jump\t// in\n    tag_14:\n      stop\n        /* \"background.sol\":17352:17583  function getData() public view returns(address, address, string memory, int, string memory, string memory, int, Request[] memory) {\r... */\n    tag_7:\n        /* \"background.sol\":17391:17398  address */\n      0x00\n        /* \"background.sol\":17400:17407  address */\n      dup1\n        /* \"background.sol\":17409:17422  string memory */\n      0x60\n        /* \"background.sol\":17424:17427  int */\n      0x00\n        /* \"background.sol\":17429:17442  string memory */\n      0x60\n        /* \"background.sol\":17444:17457  string memory */\n      dup1\n        /* \"background.sol\":17459:17462  int */\n      0x00\n        /* \"background.sol\":17464:17480  Request[] memory */\n      0x60\n        /* \"background.sol\":17500:17511  selfAddress */\n      0x00\n      dup1\n      swap1\n      sload\n      swap1\n      0x0100\n      exp\n      swap1\n      div\n      0xffffffffffffffffffffffffffffffffffffffff\n      and\n        /* \"background.sol\":17513:17519  ownerr */\n      0x01\n      0x00\n      swap1\n      sload\n      swap1\n      0x0100\n      exp\n      swap1\n      div\n      0xffffffffffffffffffffffffffffffffffffffff\n      and\n        /* \"background.sol\":17521:17525  name */\n      0x02\n        /* \"background.sol\":17527:17533  aadhar */\n      sload(0x03)\n        /* \"background.sol\":17535:17545  insDetails */\n      0x04\n        /* \"background.sol\":17547:17556  documents */\n      0x05\n        /* \"background.sol\":17558:17564  amount */\n      sload(0x06)\n        /* \"background.sol\":17566:17574  requests */\n      0x08\n        /* \"background.sol\":17493:17575  return(selfAddress, ownerr, name, aadhar, insDetails, documents, amount, requests) */\n      dup6\n      dup1\n      sload\n      0x01\n      dup2\n      0x01\n      and\n      iszero\n      0x0100\n      mul\n      sub\n      and\n      0x02\n      swap1\n      div\n      dup1\n      0x1f\n      add\n      0x20\n      dup1\n      swap2\n      div\n      mul\n      0x20\n      add\n      mload(0x40)\n      swap1\n      dup2\n      add\n      0x40\n      mstore\n      dup1\n      swap3\n      swap2\n      swap1\n      dup2\n      dup2\n      mstore\n      0x20\n      add\n      dup3\n      dup1\n      sload\n      0x01\n      dup2\n      0x01\n      and\n      iszero\n      0x0100\n      mul\n      sub\n      and\n      0x02\n      swap1\n      div\n      dup1\n      iszero\n      tag_19\n      jumpi\n      dup1\n      0x1f\n      lt\n      tag_20\n      jumpi\n      0x0100\n      dup1\n      dup4\n      sload\n      div\n      mul\n      dup4\n      mstore\n      swap2\n      0x20\n      add\n      swap2\n      jump(tag_19)\n    tag_20:\n      dup3\n      add\n      swap2\n      swap1\n      0x00\n      mstore\n      keccak256(0x00, 0x20)\n      swap1\n    tag_21:\n      dup2\n      sload\n      dup2\n      mstore\n      swap1\n      0x01\n      add\n      swap1\n      0x20\n      add\n      dup1\n      dup4\n      gt\n      tag_21\n      jumpi\n      dup3\n      swap1\n      sub\n      0x1f\n      and\n      dup3\n      add\n      swap2\n    tag_19:\n      pop\n      pop\n      pop\n      pop\n      pop\n      swap6\n      pop\n      dup4\n      dup1\n      sload\n      0x01\n      dup2\n      0x01\n      and\n      iszero\n      0x0100\n      mul\n      sub\n      and\n      0x02\n      swap1\n      div\n      dup1\n      0x1f\n      add\n      0x20\n      dup1\n      swap2\n      div\n      mul\n      0x20\n      add\n      mload(0x40)\n      swap1\n      dup2\n      add\n      0x40\n      mstore\n      dup1\n      swap3\n      swap2\n      swap1\n      dup2\n      dup2\n      mstore\n      0x20\n      add\n      dup3\n      dup1\n      sload\n      0x01\n      dup2\n      0x01\n      and\n      iszero\n      0x0100\n      mul\n      sub\n      and\n      0x02\n      swap1\n      div\n      dup1\n      iszero\n      tag_22\n      jumpi\n      dup1\n      0x1f\n      lt\n      tag_23\n      jumpi\n      0x0100\n      dup1\n      dup4\n      sload\n      div\n      mul\n      dup4\n      mstore\n      swap2\n      0x20\n      add\n      swap2\n      jump(tag_22)\n    tag_23:\n      dup3\n      add\n      swap2\n      swap1\n      0x00\n      mstore\n      keccak256(0x00, 0x20)\n      swap1\n    tag_24:\n      dup2\n      sload\n      dup2\n      mstore\n      swap1\n      0x01\n      add\n      swap1\n      0x20\n      add\n      dup1\n      dup4\n      gt\n      tag_24\n      jumpi\n      dup3\n      swap1\n      sub\n      0x1f\n      and\n      dup3\n      add\n      swap2\n    tag_22:\n      pop\n      pop\n      pop\n      pop\n      pop\n      swap4\n      pop\n      dup3\n      dup1\n      sload\n      0x01\n      dup2\n      0x01\n      and\n      iszero\n      0x0100\n      mul\n      sub\n      and\n      0x02\n      swap1\n      div\n      dup1\n      0x1f\n      add\n      0x20\n      dup1\n      swap2\n      div\n      mul\n      0x20\n      add\n      mload(0x40)\n      swap1\n      dup2\n      add\n      0x40\n      mstore\n      dup1\n      swap3\n      swap2\n      swap1\n      dup2\n      dup2\n      mstore\n      0x20\n      add\n      dup3\n      dup1\n      sload\n      0x01\n      dup2\n      0x01\n      and\n      iszero\n      0x0100\n      mul\n      sub\n      and\n      0x02\n      swap1\n      div\n      dup1\n      iszero\n      tag_25\n      jumpi\n      dup1\n      0x1f\n      lt\n      tag_26\n      jumpi\n      0x0100\n      dup1\n      dup4\n      sload\n      div\n      mul\n      dup4\n      mstore\n      swap2\n      0x20\n      add\n      swap2\n      jump(tag_25)\n    tag_26:\n      dup3\n      add\n      swap2\n      swap1\n      0x00\n      mstore\n      keccak256(0x00, 0x20)\n      swap1\n    tag_27:\n      dup2\n      sload\n      dup2\n      mstore\n      swap1\n      0x01\n      add\n      swap1\n      0x20\n      add\n      dup1\n      dup4\n      gt\n      tag_27\n      jumpi\n      dup3\n      swap1\n      sub\n      0x1f\n      and\n      dup3\n      add\n      swap2\n    tag_25:\n      pop\n      pop\n      pop\n      pop\n      pop\n      swap3\n      pop\n      dup1\n      dup1\n      sload\n      dup1\n      0x20\n      mul\n      0x20\n      add\n      mload(0x40)\n      swap1\n      dup2\n      add\n      0x40\n      mstore\n      dup1\n      swap3\n      swap2\n      swap1\n      dup2\n      dup2\n      mstore\n      0x20\n      add\n      0x00\n      swap1\n    tag_28:\n      dup3\n      dup3\n      lt\n      iszero\n      tag_29\n      jumpi\n      dup4\n      dup3\n      swap1\n      0x00\n      mstore\n      keccak256(0x00, 0x20)\n      swap1\n      0x09\n      mul\n      add\n      0x0140\n      mload(0x40)\n      swap1\n      dup2\n      add\n      0x40\n      mstore\n      swap1\n      dup2\n      0x00\n      dup3\n      add\n      0x00\n      swap1\n      sload\n      swap1\n      0x0100\n      exp\n      swap1\n      div\n      0xffffffffffffffffffffffffffffffffffffffff\n      and\n      0xffffffffffffffffffffffffffffffffffffffff\n      and\n      0xffffffffffffffffffffffffffffffffffffffff\n      and\n      dup2\n      mstore\n      0x20\n      add\n      0x01\n      dup3\n      add\n      0x00\n      swap1\n      sload\n      swap1\n      0x0100\n      exp\n      swap1\n      div\n      0xffffffffffffffffffffffffffffffffffffffff\n      and\n      0xffffffffffffffffffffffffffffffffffffffff\n      and\n      0xffffffffffffffffffffffffffffffffffffffff\n      and\n      dup2\n      mstore\n      0x20\n      add\n      0x02\n      dup3\n      add\n      dup1\n      sload\n      0x01\n      dup2\n      0x01\n      and\n      iszero\n      0x0100\n      mul\n      sub\n      and\n      0x02\n      swap1\n      div\n      dup1\n      0x1f\n      add\n      0x20\n      dup1\n      swap2\n      div\n      mul\n      0x20\n      add\n      mload(0x40)\n      swap1\n      dup2\n      add\n      0x40\n      mstore\n      dup1\n      swap3\n      swap2\n      swap1\n      dup2\n      dup2\n      mstore\n      0x20\n      add\n      dup3\n      dup1\n      sload\n      0x01\n      dup2\n      0x01\n      and\n      iszero\n      0x0100\n      mul\n      sub\n      and\n      0x02\n      swap1\n      div\n      dup1\n      iszero\n      tag_31\n      jumpi\n      dup1\n      0x1f\n      lt\n      tag_32\n      jumpi\n      0x0100\n      dup1\n      dup4\n      sload\n      div\n      mul\n      dup4\n      mstore\n      swap2\n      0x20\n      add\n      swap2\n      jump(tag_31)\n    tag_32:\n      dup3\n      add\n      swap2\n      swap1\n      0x00\n      mstore\n      keccak256(0x00, 0x20)\n      swap1\n    tag_33:\n      dup2\n      sload\n      dup2\n      mstore\n      swap1\n      0x01\n      add\n      swap1\n      0x20\n      add\n      dup1\n      dup4\n      gt\n      tag_33\n      jumpi\n      dup3\n      swap1\n      sub\n      0x1f\n      and\n      dup3\n      add\n      swap2\n    tag_31:\n      pop\n      pop\n      pop\n      pop\n      pop\n      dup2\n      mstore\n      0x20\n      add\n      0x03\n      dup3\n      add\n      dup1\n      sload\n      0x01\n      dup2\n      0x01\n      and\n      iszero\n      0x0100\n      mul\n      sub\n      and\n      0x02\n      swap1\n      div\n      dup1\n      0x1f\n      add\n      0x20\n      dup1\n      swap2\n      div\n      mul\n      0x20\n      add\n      mload(0x40)\n      swap1\n      dup2\n      add\n      0x40\n      mstore\n      dup1\n      swap3\n      swap2\n      swap1\n      dup2\n      dup2\n      mstore\n      0x20\n      add\n      dup3\n      dup1\n      sload\n      0x01\n      dup2\n      0x01\n      and\n      iszero\n      0x0100\n      mul\n      sub\n      and\n      0x02\n      swap1\n      div\n      dup1\n      iszero\n      tag_34\n      jumpi\n      dup1\n      0x1f\n      lt\n      tag_35\n      jumpi\n      0x0100\n      dup1\n      dup4\n      sload\n      div\n      mul\n      dup4\n      mstore\n      swap2\n      0x20\n      add\n      swap2\n      jump(tag_34)\n    tag_35:\n      dup3\n      add\n      swap2\n      swap1\n      0x00\n      mstore\n      keccak256(0x00, 0x20)\n      swap1\n    tag_36:\n      dup2\n      sload\n      dup2\n      mstore\n      swap1\n      0x01\n      add\n      swap1\n      0x20\n      add\n      dup1\n      dup4\n      gt\n      tag_36\n      jumpi\n      dup3\n      swap1\n      sub\n      0x1f\n      and\n      dup3\n      add\n      swap2\n    tag_34:\n      pop\n      pop\n      pop\n      pop\n      pop\n      dup2\n      mstore\n      0x20\n      add\n      0x04\n      dup3\n      add\n      0x00\n      swap1\n      sload\n      swap1\n      0x0100\n      exp\n      swap1\n      div\n      0xff\n      and\n      iszero\n      iszero\n      iszero\n      iszero\n      dup2\n      mstore\n      0x20\n      add\n      0x04\n      dup3\n      add\n      0x01\n      swap1\n      sload\n      swap1\n      0x0100\n      exp\n      swap1\n      div\n      0xff\n      and\n      iszero\n      iszero\n      iszero\n      iszero\n      dup2\n      mstore\n      0x20\n      add\n      0x05\n      dup3\n      add\n      dup1\n      sload\n      0x01\n      dup2\n      0x01\n      and\n      iszero\n      0x0100\n      mul\n      sub\n      and\n      0x02\n      swap1\n      div\n      dup1\n      0x1f\n      add\n      0x20\n      dup1\n      swap2\n      div\n      mul\n      0x20\n      add\n      mload(0x40)\n      swap1\n      dup2\n      add\n      0x40\n      mstore\n      dup1\n      swap3\n      swap2\n      swap1\n      dup2\n      dup2\n      mstore\n      0x20\n      add\n      dup3\n      dup1\n      sload\n      0x01\n      dup2\n      0x01\n      and\n      iszero\n      0x0100\n      mul\n      sub\n      and\n      0x02\n      swap1\n      div\n      dup1\n      iszero\n      tag_37\n      jumpi\n      dup1\n      0x1f\n      lt\n      tag_38\n      jumpi\n      0x0100\n      dup1\n      dup4\n      sload\n      div\n      mul\n      dup4\n      mstore\n      swap2\n      0x20\n      add\n      swap2\n      jump(tag_37)\n    tag_38:\n      dup3\n      add\n      swap2\n      swap1\n      0x00\n      mstore\n      keccak256(0x00, 0x20)\n      swap1\n    tag_39:\n      dup2\n      sload\n      dup2\n      mstore\n      swap1\n      0x01\n      add\n      swap1\n      0x20\n      add\n      dup1\n      dup4\n      gt\n      tag_39\n      jumpi\n      dup3\n      swap1\n      sub\n      0x1f\n      and\n      dup3\n      add\n      swap2\n    tag_37:\n      pop\n      pop\n      pop\n      pop\n      pop\n      dup2\n      mstore\n      0x20\n      add\n      0x06\n      dup3\n      add\n      sload\n      dup2\n      mstore\n      0x20\n      add\n      0x07\n      dup3\n      add\n      0x00\n      swap1\n      sload\n      swap1\n      0x0100\n      exp\n      swap1\n      div\n      0xff\n      and\n      iszero\n      iszero\n      iszero\n      iszero\n      dup2\n      mstore\n      0x20\n      add\n      0x08\n      dup3\n      add\n      sload\n      dup2\n      mstore\n      pop\n      pop\n      dup2\n      mstore\n      0x20\n      add\n      swap1\n      0x01\n      add\n      swap1\n      jump(tag_28)\n    tag_29:\n      pop\n      pop\n      pop\n      pop\n      swap1\n      pop\n      swap8\n      pop\n      swap8\n      pop\n      swap8\n      pop\n      swap8\n      pop\n      swap8\n      pop\n      swap8\n      pop\n      swap8\n      pop\n      swap8\n      pop\n        /* \"background.sol\":17352:17583  function getData() public view returns(address, address, string memory, int, string memory, string memory, int, Request[] memory) {\r... */\n      swap1\n      swap2\n      swap3\n      swap4\n      swap5\n      swap6\n      swap7\n      swap8\n      jump\t// out\n        /* \"background.sol\":18327:18723  function finalizeRequest(uint256 index, address add, bool flag) public {\r... */\n    tag_13:\n        /* \"background.sol\":18419:18425  ownerr */\n      0x01\n      0x00\n      swap1\n      sload\n      swap1\n      0x0100\n      exp\n      swap1\n      div\n      0xffffffffffffffffffffffffffffffffffffffff\n      and\n        /* \"background.sol\":18412:18425  add == ownerr */\n      0xffffffffffffffffffffffffffffffffffffffff\n      and\n        /* \"background.sol\":18412:18415  add */\n      dup3\n        /* \"background.sol\":18412:18425  add == ownerr */\n      0xffffffffffffffffffffffffffffffffffffffff\n      and\n      eq\n        /* \"background.sol\":18409:18716  if(add == ownerr) {\r... */\n      iszero\n      tag_41\n      jumpi\n        /* \"background.sol\":18453:18457  true */\n      0x01\n        /* \"background.sol\":18445:18457  flag == true */\n      iszero\n      iszero\n        /* \"background.sol\":18445:18449  flag */\n      dup2\n        /* \"background.sol\":18445:18457  flag == true */\n      iszero\n      iszero\n      eq\n        /* \"background.sol\":18442:18705  if(flag == true) {\r... */\n      iszero\n      tag_42\n      jumpi\n        /* \"background.sol\":18505:18509  true */\n      0x01\n        /* \"background.sol\":18478:18486  requests */\n      0x08\n        /* \"background.sol\":18487:18492  index */\n      dup5\n        /* \"background.sol\":18478:18493  requests[index] */\n      dup2\n      sload\n      dup2\n      lt\n      iszero\n      iszero\n      tag_43\n      jumpi\n      invalid\n    tag_43:\n      swap1\n      0x00\n      mstore\n      keccak256(0x00, 0x20)\n      swap1\n      0x09\n      mul\n      add\n        /* \"background.sol\":18478:18502  requests[index].finalize */\n      0x07\n      add\n      0x00\n        /* \"background.sol\":18478:18509  requests[index].finalize = true */\n      0x0100\n      exp\n      dup2\n      sload\n      dup2\n      0xff\n      mul\n      not\n      and\n      swap1\n      dup4\n      iszero\n      iszero\n      mul\n      or\n      swap1\n      sstore\n      pop\n        /* \"background.sol\":18552:18556  true */\n      0x01\n        /* \"background.sol\":18528:18536  requests */\n      0x08\n        /* \"background.sol\":18537:18542  index */\n      dup5\n        /* \"background.sol\":18528:18543  requests[index] */\n      dup2\n      sload\n      dup2\n      lt\n      iszero\n      iszero\n      tag_45\n      jumpi\n      invalid\n    tag_45:\n      swap1\n      0x00\n      mstore\n      keccak256(0x00, 0x20)\n      swap1\n      0x09\n      mul\n      add\n        /* \"background.sol\":18528:18549  requests[index].owner */\n      0x04\n      add\n      0x01\n        /* \"background.sol\":18528:18556  requests[index].owner = true */\n      0x0100\n      exp\n      dup2\n      sload\n      dup2\n      0xff\n      mul\n      not\n      and\n      swap1\n      dup4\n      iszero\n      iszero\n      mul\n      or\n      swap1\n      sstore\n      pop\n        /* \"background.sol\":18442:18705  if(flag == true) {\r... */\n      jump(tag_47)\n    tag_42:\n        /* \"background.sol\":18637:18641  true */\n      0x01\n        /* \"background.sol\":18610:18618  requests */\n      0x08\n        /* \"background.sol\":18619:18624  index */\n      dup5\n        /* \"background.sol\":18610:18625  requests[index] */\n      dup2\n      sload\n      dup2\n      lt\n      iszero\n      iszero\n      tag_48\n      jumpi\n      invalid\n    tag_48:\n      swap1\n      0x00\n      mstore\n      keccak256(0x00, 0x20)\n      swap1\n      0x09\n      mul\n      add\n        /* \"background.sol\":18610:18634  requests[index].finalize */\n      0x07\n      add\n      0x00\n        /* \"background.sol\":18610:18641  requests[index].finalize = true */\n      0x0100\n      exp\n      dup2\n      sload\n      dup2\n      0xff\n      mul\n      not\n      and\n      swap1\n      dup4\n      iszero\n      iszero\n      mul\n      or\n      swap1\n      sstore\n      pop\n        /* \"background.sol\":18684:18689  false */\n      0x00\n        /* \"background.sol\":18660:18668  requests */\n      0x08\n        /* \"background.sol\":18669:18674  index */\n      dup5\n        /* \"background.sol\":18660:18675  requests[index] */\n      dup2\n      sload\n      dup2\n      lt\n      iszero\n      iszero\n      tag_50\n      jumpi\n      invalid\n    tag_50:\n      swap1\n      0x00\n      mstore\n      keccak256(0x00, 0x20)\n      swap1\n      0x09\n      mul\n      add\n        /* \"background.sol\":18660:18681  requests[index].owner */\n      0x04\n      add\n      0x01\n        /* \"background.sol\":18660:18689  requests[index].owner = false */\n      0x0100\n      exp\n      dup2\n      sload\n      dup2\n      0xff\n      mul\n      not\n      and\n      swap1\n      dup4\n      iszero\n      iszero\n      mul\n      or\n      swap1\n      sstore\n      pop\n        /* \"background.sol\":18442:18705  if(flag == true) {\r... */\n    tag_47:\n        /* \"background.sol\":18409:18716  if(add == ownerr) {\r... */\n    tag_41:\n        /* \"background.sol\":18327:18723  function finalizeRequest(uint256 index, address add, bool flag) public {\r... */\n      pop\n      pop\n      pop\n      jump\t// out\n        /* \"background.sol\":17591:18319  function applyClaim(string memory fileHash, string memory titlee, string memory detailss) public {\r... */\n    tag_17:\n        /* \"background.sol\":17699:17724  Request memory newRequest */\n      tag_53\n      tag_54\n      jump\t// in\n    tag_53:\n        /* \"background.sol\":17727:18076  Request( {\r... */\n      0x0140\n      mload(0x40)\n      swap1\n      dup2\n      add\n      0x40\n      mstore\n      dup1\n        /* \"background.sol\":17761:17767  ownerr */\n      0x01\n      0x00\n      swap1\n      sload\n      swap1\n      0x0100\n      exp\n      swap1\n      div\n      0xffffffffffffffffffffffffffffffffffffffff\n      and\n        /* \"background.sol\":17727:18076  Request( {\r... */\n      0xffffffffffffffffffffffffffffffffffffffff\n      and\n      dup2\n      mstore\n      0x20\n      add\n        /* \"background.sol\":17799:17803  this */\n      address\n        /* \"background.sol\":17727:18076  Request( {\r... */\n      0xffffffffffffffffffffffffffffffffffffffff\n      and\n      dup2\n      mstore\n      0x20\n      add\n        /* \"background.sol\":17826:17832  titlee */\n      dup5\n        /* \"background.sol\":17727:18076  Request( {\r... */\n      dup2\n      mstore\n      0x20\n      add\n        /* \"background.sol\":17856:17864  detailss */\n      dup4\n        /* \"background.sol\":17727:18076  Request( {\r... */\n      dup2\n      mstore\n      0x20\n      add\n        /* \"background.sol\":17917:17921  true */\n      0x01\n        /* \"background.sol\":17727:18076  Request( {\r... */\n      iszero\n      iszero\n      dup2\n      mstore\n      0x20\n      add\n        /* \"background.sol\":17943:17948  false */\n      0x00\n        /* \"background.sol\":17727:18076  Request( {\r... */\n      iszero\n      iszero\n      dup2\n      mstore\n      0x20\n      add\n        /* \"background.sol\":17886:17894  fileHash */\n      dup6\n        /* \"background.sol\":17727:18076  Request( {\r... */\n      dup2\n      mstore\n      0x20\n      add\n        /* \"background.sol\":17994:17995  1 */\n      0x01\n        /* \"background.sol\":17978:17991  requestsCount */\n      sload(0x07)\n        /* \"background.sol\":17978:17995  requestsCount + 1 */\n      add\n        /* \"background.sol\":17727:18076  Request( {\r... */\n      dup2\n      mstore\n      0x20\n      add\n        /* \"background.sol\":18021:18026  false */\n      0x00\n        /* \"background.sol\":17727:18076  Request( {\r... */\n      iszero\n      iszero\n      dup2\n      mstore\n      0x20\n      add\n        /* \"background.sol\":18063:18064  0 */\n      0x00\n        /* \"background.sol\":17727:18076  Request( {\r... */\n      dup2\n      mstore\n      pop\n        /* \"background.sol\":17699:18076  Request memory newRequest = Request( {\r... */\n      swap1\n      pop\n        /* \"background.sol\":18087:18095  requests */\n      0x08\n        /* \"background.sol\":18101:18111  newRequest */\n      dup2\n        /* \"background.sol\":18087:18112  requests.push(newRequest) */\n      swap1\n      dup1\n        /* \"--CODEGEN--\":39:40   */\n      0x01\n        /* \"--CODEGEN--\":33:36   */\n      dup2\n        /* \"--CODEGEN--\":27:37   */\n      sload\n        /* \"--CODEGEN--\":23:41   */\n      add\n        /* \"--CODEGEN--\":57:67   */\n      dup1\n        /* \"--CODEGEN--\":52:55   */\n      dup3\n        /* \"--CODEGEN--\":45:68   */\n      sstore\n        /* \"--CODEGEN--\":79:89   */\n      dup1\n        /* \"--CODEGEN--\":72:89   */\n      swap2\n      pop\n        /* \"--CODEGEN--\":0:93   */\n      pop\n        /* \"background.sol\":18087:18112  requests.push(newRequest) */\n      swap1\n      0x01\n      dup3\n      sub\n      swap1\n      0x00\n      mstore\n      keccak256(0x00, 0x20)\n      swap1\n      0x09\n      mul\n      add\n      0x00\n      swap1\n      swap2\n      swap3\n      swap1\n      swap2\n      swap1\n      swap2\n      pop\n      0x00\n      dup3\n      add\n      mload\n      dup2\n      0x00\n      add\n      exp(0x0100, 0x00)\n      dup2\n      sload\n      dup2\n      0xffffffffffffffffffffffffffffffffffffffff\n      mul\n      not\n      and\n      swap1\n      dup4\n      0xffffffffffffffffffffffffffffffffffffffff\n      and\n      mul\n      or\n      swap1\n      sstore\n      pop\n      0x20\n      dup3\n      add\n      mload\n      dup2\n      0x01\n      add\n      exp(0x0100, 0x00)\n      dup2\n      sload\n      dup2\n      0xffffffffffffffffffffffffffffffffffffffff\n      mul\n      not\n      and\n      swap1\n      dup4\n      0xffffffffffffffffffffffffffffffffffffffff\n      and\n      mul\n      or\n      swap1\n      sstore\n      pop\n      0x40\n      dup3\n      add\n      mload\n      dup2\n      0x02\n      add\n      swap1\n      dup1\n      mload\n      swap1\n      0x20\n      add\n      swap1\n      tag_56\n      swap3\n      swap2\n      swap1\n      tag_57\n      jump\t// in\n    tag_56:\n      pop\n      0x60\n      dup3\n      add\n      mload\n      dup2\n      0x03\n      add\n      swap1\n      dup1\n      mload\n      swap1\n      0x20\n      add\n      swap1\n      tag_58\n      swap3\n      swap2\n      swap1\n      tag_57\n      jump\t// in\n    tag_58:\n      pop\n      0x80\n      dup3\n      add\n      mload\n      dup2\n      0x04\n      add\n      exp(0x0100, 0x00)\n      dup2\n      sload\n      dup2\n      0xff\n      mul\n      not\n      and\n      swap1\n      dup4\n      iszero\n      iszero\n      mul\n      or\n      swap1\n      sstore\n      pop\n      0xa0\n      dup3\n      add\n      mload\n      dup2\n      0x04\n      add\n      exp(0x0100, 0x01)\n      dup2\n      sload\n      dup2\n      0xff\n      mul\n      not\n      and\n      swap1\n      dup4\n      iszero\n      iszero\n      mul\n      or\n      swap1\n      sstore\n      pop\n      0xc0\n      dup3\n      add\n      mload\n      dup2\n      0x05\n      add\n      swap1\n      dup1\n      mload\n      swap1\n      0x20\n      add\n      swap1\n      tag_59\n      swap3\n      swap2\n      swap1\n      tag_57\n      jump\t// in\n    tag_59:\n      pop\n      0xe0\n      dup3\n      add\n      mload\n      dup2\n      0x06\n      add\n      sstore\n      0x0100\n      dup3\n      add\n      mload\n      dup2\n      0x07\n      add\n      exp(0x0100, 0x00)\n      dup2\n      sload\n      dup2\n      0xff\n      mul\n      not\n      and\n      swap1\n      dup4\n      iszero\n      iszero\n      mul\n      or\n      swap1\n      sstore\n      pop\n      0x0120\n      dup3\n      add\n      mload\n      dup2\n      0x08\n      add\n      sstore\n      pop\n      pop\n      pop\n        /* \"background.sol\":18123:18131  Owner oo */\n      0x00\n        /* \"background.sol\":18140:18146  ownerr */\n      0x01\n      0x00\n      swap1\n      sload\n      swap1\n      0x0100\n      exp\n      swap1\n      div\n      0xffffffffffffffffffffffffffffffffffffffff\n      and\n        /* \"background.sol\":18123:18147  Owner oo = Owner(ownerr) */\n      swap1\n      pop\n        /* \"background.sol\":18158:18160  oo */\n      dup1\n        /* \"background.sol\":18158:18175  oo.pendingRequest */\n      0xffffffffffffffffffffffffffffffffffffffff\n      and\n      0x9b6b309a\n        /* \"background.sol\":18176:18182  ownerr */\n      0x01\n      0x00\n      swap1\n      sload\n      swap1\n      0x0100\n      exp\n      swap1\n      div\n      0xffffffffffffffffffffffffffffffffffffffff\n      and\n        /* \"background.sol\":18192:18196  this */\n      address\n        /* \"background.sol\":18199:18205  titlee */\n      dup8\n        /* \"background.sol\":18207:18215  detailss */\n      dup8\n        /* \"background.sol\":18217:18225  fileHash */\n      dup11\n        /* \"background.sol\":18227:18231  true */\n      0x01\n        /* \"background.sol\":18233:18238  false */\n      0x00\n        /* \"background.sol\":18264:18265  1 */\n      0x01\n        /* \"background.sol\":18248:18261  requestsCount */\n      sload(0x07)\n        /* \"background.sol\":18248:18265  requestsCount + 1 */\n      add\n        /* \"background.sol\":18158:18267  oo.pendingRequest(ownerr, address(this), titlee, detailss, fileHash, true, false, uint256(requestsCount + 1)) */\n      mload(0x40)\n      dup10\n      0xffffffff\n      and\n      0x0100000000000000000000000000000000000000000000000000000000\n      mul\n      dup2\n      mstore\n      0x04\n      add\n      tag_60\n      swap9\n      swap8\n      swap7\n      swap6\n      swap5\n      swap4\n      swap3\n      swap2\n      swap1\n      jump(tag_61)\n    tag_60:\n      0x00\n      mload(0x40)\n      dup1\n      dup4\n      sub\n      dup2\n      0x00\n      dup8\n      dup1\n      extcodesize\n      iszero\n        /* \"--CODEGEN--\":8:17   */\n      dup1\n        /* \"--CODEGEN--\":5:7   */\n      iszero\n      tag_62\n      jumpi\n        /* \"--CODEGEN--\":30:31   */\n      0x00\n        /* \"--CODEGEN--\":27:28   */\n      dup1\n        /* \"--CODEGEN--\":20:32   */\n      revert\n        /* \"--CODEGEN--\":5:7   */\n    tag_62:\n        /* \"background.sol\":18158:18267  oo.pendingRequest(ownerr, address(this), titlee, detailss, fileHash, true, false, uint256(requestsCount + 1)) */\n      pop\n      gas\n      call\n      iszero\n        /* \"--CODEGEN--\":8:17   */\n      dup1\n        /* \"--CODEGEN--\":5:7   */\n      iszero\n      tag_63\n      jumpi\n        /* \"--CODEGEN--\":45:61   */\n      returndatasize\n        /* \"--CODEGEN--\":42:43   */\n      0x00\n        /* \"--CODEGEN--\":39:40   */\n      dup1\n        /* \"--CODEGEN--\":24:62   */\n      returndatacopy\n        /* \"--CODEGEN--\":77:93   */\n      returndatasize\n        /* \"--CODEGEN--\":74:75   */\n      0x00\n        /* \"--CODEGEN--\":67:94   */\n      revert\n        /* \"--CODEGEN--\":5:7   */\n    tag_63:\n        /* \"background.sol\":18158:18267  oo.pendingRequest(ownerr, address(this), titlee, detailss, fileHash, true, false, uint256(requestsCount + 1)) */\n      pop\n      pop\n      pop\n      pop\n        /* \"background.sol\":18310:18311  1 */\n      0x01\n        /* \"background.sol\":18294:18307  requestsCount */\n      sload(0x07)\n        /* \"background.sol\":18294:18311  requestsCount + 1 */\n      add\n        /* \"background.sol\":18278:18291  requestsCount */\n      0x07\n        /* \"background.sol\":18278:18311  requestsCount = requestsCount + 1 */\n      dup2\n      swap1\n      sstore\n      pop\n        /* \"background.sol\":17591:18319  function applyClaim(string memory fileHash, string memory titlee, string memory detailss) public {\r... */\n      pop\n      pop\n      pop\n      pop\n      pop\n      jump\t// out\n        /* \"background.sol\":16473:18726  contract Insurance {\r... */\n    tag_54:\n      0x0140\n      mload(0x40)\n      swap1\n      dup2\n      add\n      0x40\n      mstore\n      dup1\n      and(0xffffffffffffffffffffffffffffffffffffffff, 0x00)\n      dup2\n      mstore\n      0x20\n      add\n      and(0xffffffffffffffffffffffffffffffffffffffff, 0x00)\n      dup2\n      mstore\n      0x20\n      add\n      0x60\n      dup2\n      mstore\n      0x20\n      add\n      0x60\n      dup2\n      mstore\n      0x20\n      add\n      iszero(iszero(0x00))\n      dup2\n      mstore\n      0x20\n      add\n      iszero(iszero(0x00))\n      dup2\n      mstore\n      0x20\n      add\n      0x60\n      dup2\n      mstore\n      0x20\n      add\n      0x00\n      dup2\n      mstore\n      0x20\n      add\n      iszero(iszero(0x00))\n      dup2\n      mstore\n      0x20\n      add\n      0x00\n      dup2\n      mstore\n      pop\n      swap1\n      jump\t// out\n    tag_57:\n      dup3\n      dup1\n      sload\n      0x01\n      dup2\n      0x01\n      and\n      iszero\n      0x0100\n      mul\n      sub\n      and\n      0x02\n      swap1\n      div\n      swap1\n      0x00\n      mstore\n      keccak256(0x00, 0x20)\n      swap1\n      0x1f\n      add\n      0x20\n      swap1\n      div\n      dup2\n      add\n      swap3\n      dup3\n      0x1f\n      lt\n      tag_65\n      jumpi\n      dup1\n      mload\n      not(0xff)\n      and\n      dup4\n      dup1\n      add\n      or\n      dup6\n      sstore\n      jump(tag_64)\n    tag_65:\n      dup3\n      dup1\n      add\n      0x01\n      add\n      dup6\n      sstore\n      dup3\n      iszero\n      tag_64\n      jumpi\n      swap2\n      dup3\n      add\n    tag_66:\n      dup3\n      dup2\n      gt\n      iszero\n      tag_67\n      jumpi\n      dup3\n      mload\n      dup3\n      sstore\n      swap2\n      0x20\n      add\n      swap2\n      swap1\n      0x01\n      add\n      swap1\n      jump(tag_66)\n    tag_67:\n    tag_64:\n      pop\n      swap1\n      pop\n      tag_68\n      swap2\n      swap1\n      tag_69\n      jump\t// in\n    tag_68:\n      pop\n      swap1\n      jump\t// out\n    tag_69:\n      tag_70\n      swap2\n      swap1\n    tag_71:\n      dup1\n      dup3\n      gt\n      iszero\n      tag_72\n      jumpi\n      0x00\n      dup2\n      0x00\n      swap1\n      sstore\n      pop\n      0x01\n      add\n      jump(tag_71)\n    tag_72:\n      pop\n      swap1\n      jump\n    tag_70:\n      swap1\n      jump\t// out\n        /* \"--CODEGEN--\":5:123   */\n    tag_74:\n      0x00\n        /* \"--CODEGEN--\":72:118   */\n      tag_75\n        /* \"--CODEGEN--\":110:116   */\n      dup3\n        /* \"--CODEGEN--\":97:117   */\n      calldataload\n        /* \"--CODEGEN--\":72:118   */\n      jump(tag_76)\n    tag_75:\n        /* \"--CODEGEN--\":63:118   */\n      swap1\n      pop\n        /* \"--CODEGEN--\":57:123   */\n      swap3\n      swap2\n      pop\n      pop\n      jump\n        /* \"--CODEGEN--\":130:242   */\n    tag_78:\n      0x00\n        /* \"--CODEGEN--\":194:237   */\n      tag_79\n        /* \"--CODEGEN--\":229:235   */\n      dup3\n        /* \"--CODEGEN--\":216:236   */\n      calldataload\n        /* \"--CODEGEN--\":194:237   */\n      jump(tag_80)\n    tag_79:\n        /* \"--CODEGEN--\":185:237   */\n      swap1\n      pop\n        /* \"--CODEGEN--\":179:242   */\n      swap3\n      swap2\n      pop\n      pop\n      jump\n        /* \"--CODEGEN--\":250:692   */\n    tag_82:\n      0x00\n        /* \"--CODEGEN--\":352:355   */\n      dup3\n        /* \"--CODEGEN--\":345:349   */\n      0x1f\n        /* \"--CODEGEN--\":337:343   */\n      dup4\n        /* \"--CODEGEN--\":333:350   */\n      add\n        /* \"--CODEGEN--\":329:356   */\n      slt\n        /* \"--CODEGEN--\":322:357   */\n      iszero\n        /* \"--CODEGEN--\":319:321   */\n      iszero\n      tag_83\n      jumpi\n        /* \"--CODEGEN--\":370:371   */\n      0x00\n        /* \"--CODEGEN--\":367:368   */\n      dup1\n        /* \"--CODEGEN--\":360:372   */\n      revert\n        /* \"--CODEGEN--\":319:321   */\n    tag_83:\n        /* \"--CODEGEN--\":407:413   */\n      dup2\n        /* \"--CODEGEN--\":394:414   */\n      calldataload\n        /* \"--CODEGEN--\":429:494   */\n      tag_84\n        /* \"--CODEGEN--\":444:493   */\n      tag_85\n        /* \"--CODEGEN--\":486:492   */\n      dup3\n        /* \"--CODEGEN--\":444:493   */\n      jump(tag_86)\n    tag_85:\n        /* \"--CODEGEN--\":429:494   */\n      jump(tag_87)\n    tag_84:\n        /* \"--CODEGEN--\":420:494   */\n      swap2\n      pop\n        /* \"--CODEGEN--\":514:520   */\n      dup1\n        /* \"--CODEGEN--\":507:512   */\n      dup3\n        /* \"--CODEGEN--\":500:521   */\n      mstore\n        /* \"--CODEGEN--\":550:554   */\n      0x20\n        /* \"--CODEGEN--\":542:548   */\n      dup4\n        /* \"--CODEGEN--\":538:555   */\n      add\n        /* \"--CODEGEN--\":583:587   */\n      0x20\n        /* \"--CODEGEN--\":576:581   */\n      dup4\n        /* \"--CODEGEN--\":572:588   */\n      add\n        /* \"--CODEGEN--\":618:621   */\n      dup6\n        /* \"--CODEGEN--\":609:615   */\n      dup4\n        /* \"--CODEGEN--\":604:607   */\n      dup4\n        /* \"--CODEGEN--\":600:616   */\n      add\n        /* \"--CODEGEN--\":597:622   */\n      gt\n        /* \"--CODEGEN--\":594:596   */\n      iszero\n      tag_88\n      jumpi\n        /* \"--CODEGEN--\":635:636   */\n      0x00\n        /* \"--CODEGEN--\":632:633   */\n      dup1\n        /* \"--CODEGEN--\":625:637   */\n      revert\n        /* \"--CODEGEN--\":594:596   */\n    tag_88:\n        /* \"--CODEGEN--\":645:686   */\n      tag_89\n        /* \"--CODEGEN--\":679:685   */\n      dup4\n        /* \"--CODEGEN--\":674:677   */\n      dup3\n        /* \"--CODEGEN--\":669:672   */\n      dup5\n        /* \"--CODEGEN--\":645:686   */\n      jump(tag_90)\n    tag_89:\n        /* \"--CODEGEN--\":312:692   */\n      pop\n      pop\n      pop\n      swap3\n      swap2\n      pop\n      pop\n      jump\n        /* \"--CODEGEN--\":700:818   */\n    tag_92:\n      0x00\n        /* \"--CODEGEN--\":767:813   */\n      tag_93\n        /* \"--CODEGEN--\":805:811   */\n      dup3\n        /* \"--CODEGEN--\":792:812   */\n      calldataload\n        /* \"--CODEGEN--\":767:813   */\n      jump(tag_94)\n    tag_93:\n        /* \"--CODEGEN--\":758:813   */\n      swap1\n      pop\n        /* \"--CODEGEN--\":752:818   */\n      swap3\n      swap2\n      pop\n      pop\n      jump\n        /* \"--CODEGEN--\":825:1634   */\n    tag_16:\n      0x00\n      dup1\n      0x00\n        /* \"--CODEGEN--\":993:995   */\n      0x60\n        /* \"--CODEGEN--\":981:990   */\n      dup5\n        /* \"--CODEGEN--\":972:979   */\n      dup7\n        /* \"--CODEGEN--\":968:991   */\n      sub\n        /* \"--CODEGEN--\":964:996   */\n      slt\n        /* \"--CODEGEN--\":961:963   */\n      iszero\n      tag_96\n      jumpi\n        /* \"--CODEGEN--\":1009:1010   */\n      0x00\n        /* \"--CODEGEN--\":1006:1007   */\n      dup1\n        /* \"--CODEGEN--\":999:1011   */\n      revert\n        /* \"--CODEGEN--\":961:963   */\n    tag_96:\n        /* \"--CODEGEN--\":1072:1073   */\n      0x00\n        /* \"--CODEGEN--\":1061:1070   */\n      dup5\n        /* \"--CODEGEN--\":1057:1074   */\n      add\n        /* \"--CODEGEN--\":1044:1075   */\n      calldataload\n        /* \"--CODEGEN--\":1095:1113   */\n      0xffffffffffffffff\n        /* \"--CODEGEN--\":1087:1093   */\n      dup2\n        /* \"--CODEGEN--\":1084:1114   */\n      gt\n        /* \"--CODEGEN--\":1081:1083   */\n      iszero\n      tag_97\n      jumpi\n        /* \"--CODEGEN--\":1127:1128   */\n      0x00\n        /* \"--CODEGEN--\":1124:1125   */\n      dup1\n        /* \"--CODEGEN--\":1117:1129   */\n      revert\n        /* \"--CODEGEN--\":1081:1083   */\n    tag_97:\n        /* \"--CODEGEN--\":1147:1210   */\n      tag_98\n        /* \"--CODEGEN--\":1202:1209   */\n      dup7\n        /* \"--CODEGEN--\":1193:1199   */\n      dup3\n        /* \"--CODEGEN--\":1182:1191   */\n      dup8\n        /* \"--CODEGEN--\":1178:1200   */\n      add\n        /* \"--CODEGEN--\":1147:1210   */\n      jump(tag_82)\n    tag_98:\n        /* \"--CODEGEN--\":1137:1210   */\n      swap4\n      pop\n        /* \"--CODEGEN--\":1023:1216   */\n      pop\n        /* \"--CODEGEN--\":1275:1277   */\n      0x20\n        /* \"--CODEGEN--\":1264:1273   */\n      dup5\n        /* \"--CODEGEN--\":1260:1278   */\n      add\n        /* \"--CODEGEN--\":1247:1279   */\n      calldataload\n        /* \"--CODEGEN--\":1299:1317   */\n      0xffffffffffffffff\n        /* \"--CODEGEN--\":1291:1297   */\n      dup2\n        /* \"--CODEGEN--\":1288:1318   */\n      gt\n        /* \"--CODEGEN--\":1285:1287   */\n      iszero\n      tag_99\n      jumpi\n        /* \"--CODEGEN--\":1331:1332   */\n      0x00\n        /* \"--CODEGEN--\":1328:1329   */\n      dup1\n        /* \"--CODEGEN--\":1321:1333   */\n      revert\n        /* \"--CODEGEN--\":1285:1287   */\n    tag_99:\n        /* \"--CODEGEN--\":1351:1414   */\n      tag_100\n        /* \"--CODEGEN--\":1406:1413   */\n      dup7\n        /* \"--CODEGEN--\":1397:1403   */\n      dup3\n        /* \"--CODEGEN--\":1386:1395   */\n      dup8\n        /* \"--CODEGEN--\":1382:1404   */\n      add\n        /* \"--CODEGEN--\":1351:1414   */\n      jump(tag_82)\n    tag_100:\n        /* \"--CODEGEN--\":1341:1414   */\n      swap3\n      pop\n        /* \"--CODEGEN--\":1226:1420   */\n      pop\n        /* \"--CODEGEN--\":1479:1481   */\n      0x40\n        /* \"--CODEGEN--\":1468:1477   */\n      dup5\n        /* \"--CODEGEN--\":1464:1482   */\n      add\n        /* \"--CODEGEN--\":1451:1483   */\n      calldataload\n        /* \"--CODEGEN--\":1503:1521   */\n      0xffffffffffffffff\n        /* \"--CODEGEN--\":1495:1501   */\n      dup2\n        /* \"--CODEGEN--\":1492:1522   */\n      gt\n        /* \"--CODEGEN--\":1489:1491   */\n      iszero\n      tag_101\n      jumpi\n        /* \"--CODEGEN--\":1535:1536   */\n      0x00\n        /* \"--CODEGEN--\":1532:1533   */\n      dup1\n        /* \"--CODEGEN--\":1525:1537   */\n      revert\n        /* \"--CODEGEN--\":1489:1491   */\n    tag_101:\n        /* \"--CODEGEN--\":1555:1618   */\n      tag_102\n        /* \"--CODEGEN--\":1610:1617   */\n      dup7\n        /* \"--CODEGEN--\":1601:1607   */\n      dup3\n        /* \"--CODEGEN--\":1590:1599   */\n      dup8\n        /* \"--CODEGEN--\":1586:1608   */\n      add\n        /* \"--CODEGEN--\":1555:1618   */\n      jump(tag_82)\n    tag_102:\n        /* \"--CODEGEN--\":1545:1618   */\n      swap2\n      pop\n        /* \"--CODEGEN--\":1430:1624   */\n      pop\n        /* \"--CODEGEN--\":955:1634   */\n      swap3\n      pop\n      swap3\n      pop\n      swap3\n      jump\n        /* \"--CODEGEN--\":1641:2126   */\n    tag_12:\n      0x00\n      dup1\n      0x00\n        /* \"--CODEGEN--\":1776:1778   */\n      0x60\n        /* \"--CODEGEN--\":1764:1773   */\n      dup5\n        /* \"--CODEGEN--\":1755:1762   */\n      dup7\n        /* \"--CODEGEN--\":1751:1774   */\n      sub\n        /* \"--CODEGEN--\":1747:1779   */\n      slt\n        /* \"--CODEGEN--\":1744:1746   */\n      iszero\n      tag_104\n      jumpi\n        /* \"--CODEGEN--\":1792:1793   */\n      0x00\n        /* \"--CODEGEN--\":1789:1790   */\n      dup1\n        /* \"--CODEGEN--\":1782:1794   */\n      revert\n        /* \"--CODEGEN--\":1744:1746   */\n    tag_104:\n        /* \"--CODEGEN--\":1827:1828   */\n      0x00\n        /* \"--CODEGEN--\":1844:1897   */\n      tag_105\n        /* \"--CODEGEN--\":1889:1896   */\n      dup7\n        /* \"--CODEGEN--\":1880:1886   */\n      dup3\n        /* \"--CODEGEN--\":1869:1878   */\n      dup8\n        /* \"--CODEGEN--\":1865:1887   */\n      add\n        /* \"--CODEGEN--\":1844:1897   */\n      jump(tag_92)\n    tag_105:\n        /* \"--CODEGEN--\":1834:1897   */\n      swap4\n      pop\n        /* \"--CODEGEN--\":1806:1903   */\n      pop\n        /* \"--CODEGEN--\":1934:1936   */\n      0x20\n        /* \"--CODEGEN--\":1952:2005   */\n      tag_106\n        /* \"--CODEGEN--\":1997:2004   */\n      dup7\n        /* \"--CODEGEN--\":1988:1994   */\n      dup3\n        /* \"--CODEGEN--\":1977:1986   */\n      dup8\n        /* \"--CODEGEN--\":1973:1995   */\n      add\n        /* \"--CODEGEN--\":1952:2005   */\n      jump(tag_74)\n    tag_106:\n        /* \"--CODEGEN--\":1942:2005   */\n      swap3\n      pop\n        /* \"--CODEGEN--\":1913:2011   */\n      pop\n        /* \"--CODEGEN--\":2042:2044   */\n      0x40\n        /* \"--CODEGEN--\":2060:2110   */\n      tag_107\n        /* \"--CODEGEN--\":2102:2109   */\n      dup7\n        /* \"--CODEGEN--\":2093:2099   */\n      dup3\n        /* \"--CODEGEN--\":2082:2091   */\n      dup8\n        /* \"--CODEGEN--\":2078:2100   */\n      add\n        /* \"--CODEGEN--\":2060:2110   */\n      jump(tag_78)\n    tag_107:\n        /* \"--CODEGEN--\":2050:2110   */\n      swap2\n      pop\n        /* \"--CODEGEN--\":2021:2116   */\n      pop\n        /* \"--CODEGEN--\":1738:2126   */\n      swap3\n      pop\n      swap3\n      pop\n      swap3\n      jump\n        /* \"--CODEGEN--\":2133:2243   */\n    tag_109:\n        /* \"--CODEGEN--\":2206:2237   */\n      tag_110\n        /* \"--CODEGEN--\":2231:2236   */\n      dup2\n        /* \"--CODEGEN--\":2206:2237   */\n      jump(tag_111)\n    tag_110:\n        /* \"--CODEGEN--\":2201:2204   */\n      dup3\n        /* \"--CODEGEN--\":2194:2238   */\n      mstore\n        /* \"--CODEGEN--\":2188:2243   */\n      pop\n      pop\n      jump\n        /* \"--CODEGEN--\":2315:3193   */\n    tag_113:\n      0x00\n        /* \"--CODEGEN--\":2492:2567   */\n      tag_114\n        /* \"--CODEGEN--\":2561:2566   */\n      dup3\n        /* \"--CODEGEN--\":2492:2567   */\n      jump(tag_115)\n    tag_114:\n        /* \"--CODEGEN--\":2585:2591   */\n      dup1\n        /* \"--CODEGEN--\":2580:2583   */\n      dup5\n        /* \"--CODEGEN--\":2573:2592   */\n      mstore\n        /* \"--CODEGEN--\":2609:2613   */\n      0x20\n        /* \"--CODEGEN--\":2604:2607   */\n      dup5\n        /* \"--CODEGEN--\":2600:2614   */\n      add\n        /* \"--CODEGEN--\":2593:2614   */\n      swap4\n      pop\n        /* \"--CODEGEN--\":2657:2660   */\n      dup4\n        /* \"--CODEGEN--\":2699:2703   */\n      0x20\n        /* \"--CODEGEN--\":2691:2697   */\n      dup3\n        /* \"--CODEGEN--\":2687:2704   */\n      mul\n        /* \"--CODEGEN--\":2682:2685   */\n      dup6\n        /* \"--CODEGEN--\":2678:2705   */\n      add\n        /* \"--CODEGEN--\":2725:2802   */\n      tag_116\n        /* \"--CODEGEN--\":2796:2801   */\n      dup6\n        /* \"--CODEGEN--\":2725:2802   */\n      jump(tag_117)\n    tag_116:\n        /* \"--CODEGEN--\":2823:2824   */\n      0x00\n        /* \"--CODEGEN--\":2808:3154   */\n    tag_118:\n        /* \"--CODEGEN--\":2833:2839   */\n      dup5\n        /* \"--CODEGEN--\":2830:2831   */\n      dup2\n        /* \"--CODEGEN--\":2827:2840   */\n      lt\n        /* \"--CODEGEN--\":2808:3154   */\n      iszero\n      tag_119\n      jumpi\n        /* \"--CODEGEN--\":2895:2904   */\n      dup4\n        /* \"--CODEGEN--\":2889:2893   */\n      dup4\n        /* \"--CODEGEN--\":2885:2905   */\n      sub\n        /* \"--CODEGEN--\":2880:2883   */\n      dup9\n        /* \"--CODEGEN--\":2873:2906   */\n      mstore\n        /* \"--CODEGEN--\":2921:3021   */\n      tag_121\n        /* \"--CODEGEN--\":3016:3020   */\n      dup4\n        /* \"--CODEGEN--\":3007:3013   */\n      dup4\n        /* \"--CODEGEN--\":3001:3014   */\n      mload\n        /* \"--CODEGEN--\":2921:3021   */\n      jump(tag_122)\n    tag_121:\n        /* \"--CODEGEN--\":2913:3021   */\n      swap3\n      pop\n        /* \"--CODEGEN--\":3038:3119   */\n      tag_123\n        /* \"--CODEGEN--\":3112:3118   */\n      dup3\n        /* \"--CODEGEN--\":3038:3119   */\n      jump(tag_124)\n    tag_123:\n        /* \"--CODEGEN--\":3028:3119   */\n      swap2\n      pop\n        /* \"--CODEGEN--\":3142:3146   */\n      0x20\n        /* \"--CODEGEN--\":3137:3140   */\n      dup9\n        /* \"--CODEGEN--\":3133:3147   */\n      add\n        /* \"--CODEGEN--\":3126:3147   */\n      swap8\n      pop\n        /* \"--CODEGEN--\":2855:2856   */\n      0x01\n        /* \"--CODEGEN--\":2852:2853   */\n      dup2\n        /* \"--CODEGEN--\":2848:2857   */\n      add\n        /* \"--CODEGEN--\":2843:2857   */\n      swap1\n      pop\n        /* \"--CODEGEN--\":2808:3154   */\n      jump(tag_118)\n    tag_119:\n        /* \"--CODEGEN--\":2812:2826   */\n      pop\n        /* \"--CODEGEN--\":3167:3171   */\n      dup2\n        /* \"--CODEGEN--\":3160:3171   */\n      swap7\n      pop\n        /* \"--CODEGEN--\":3184:3187   */\n      dup7\n        /* \"--CODEGEN--\":3177:3187   */\n      swap5\n      pop\n        /* \"--CODEGEN--\":2471:3193   */\n      pop\n      pop\n      pop\n      pop\n      swap3\n      swap2\n      pop\n      pop\n      jump\n        /* \"--CODEGEN--\":3201:3302   */\n    tag_126:\n        /* \"--CODEGEN--\":3268:3296   */\n      tag_127\n        /* \"--CODEGEN--\":3290:3295   */\n      dup2\n        /* \"--CODEGEN--\":3268:3296   */\n      jump(tag_128)\n    tag_127:\n        /* \"--CODEGEN--\":3263:3266   */\n      dup3\n        /* \"--CODEGEN--\":3256:3297   */\n      mstore\n        /* \"--CODEGEN--\":3250:3302   */\n      pop\n      pop\n      jump\n        /* \"--CODEGEN--\":3309:3416   */\n    tag_130:\n        /* \"--CODEGEN--\":3380:3410   */\n      tag_131\n        /* \"--CODEGEN--\":3404:3409   */\n      dup2\n        /* \"--CODEGEN--\":3380:3410   */\n      jump(tag_132)\n    tag_131:\n        /* \"--CODEGEN--\":3375:3378   */\n      dup3\n        /* \"--CODEGEN--\":3368:3411   */\n      mstore\n        /* \"--CODEGEN--\":3362:3416   */\n      pop\n      pop\n      jump\n        /* \"--CODEGEN--\":3423:3723   */\n    tag_134:\n      0x00\n        /* \"--CODEGEN--\":3525:3564   */\n      tag_135\n        /* \"--CODEGEN--\":3558:3563   */\n      dup3\n        /* \"--CODEGEN--\":3525:3564   */\n      jump(tag_136)\n    tag_135:\n        /* \"--CODEGEN--\":3581:3587   */\n      dup1\n        /* \"--CODEGEN--\":3576:3579   */\n      dup5\n        /* \"--CODEGEN--\":3569:3588   */\n      mstore\n        /* \"--CODEGEN--\":3593:3656   */\n      tag_137\n        /* \"--CODEGEN--\":3649:3655   */\n      dup2\n        /* \"--CODEGEN--\":3642:3646   */\n      0x20\n        /* \"--CODEGEN--\":3637:3640   */\n      dup7\n        /* \"--CODEGEN--\":3633:3647   */\n      add\n        /* \"--CODEGEN--\":3626:3630   */\n      0x20\n        /* \"--CODEGEN--\":3619:3624   */\n      dup7\n        /* \"--CODEGEN--\":3615:3631   */\n      add\n        /* \"--CODEGEN--\":3593:3656   */\n      jump(tag_138)\n    tag_137:\n        /* \"--CODEGEN--\":3688:3717   */\n      tag_139\n        /* \"--CODEGEN--\":3710:3716   */\n      dup2\n        /* \"--CODEGEN--\":3688:3717   */\n      jump(tag_140)\n    tag_139:\n        /* \"--CODEGEN--\":3681:3685   */\n      0x20\n        /* \"--CODEGEN--\":3676:3679   */\n      dup6\n        /* \"--CODEGEN--\":3672:3686   */\n      add\n        /* \"--CODEGEN--\":3668:3718   */\n      add\n        /* \"--CODEGEN--\":3661:3718   */\n      swap2\n      pop\n        /* \"--CODEGEN--\":3505:3723   */\n      pop\n      swap3\n      swap2\n      pop\n      pop\n      jump\n        /* \"--CODEGEN--\":3730:4022   */\n    tag_142:\n      0x00\n        /* \"--CODEGEN--\":3828:3863   */\n      tag_143\n        /* \"--CODEGEN--\":3857:3862   */\n      dup3\n        /* \"--CODEGEN--\":3828:3863   */\n      jump(tag_144)\n    tag_143:\n        /* \"--CODEGEN--\":3880:3886   */\n      dup1\n        /* \"--CODEGEN--\":3875:3878   */\n      dup5\n        /* \"--CODEGEN--\":3868:3887   */\n      mstore\n        /* \"--CODEGEN--\":3892:3955   */\n      tag_145\n        /* \"--CODEGEN--\":3948:3954   */\n      dup2\n        /* \"--CODEGEN--\":3941:3945   */\n      0x20\n        /* \"--CODEGEN--\":3936:3939   */\n      dup7\n        /* \"--CODEGEN--\":3932:3946   */\n      add\n        /* \"--CODEGEN--\":3925:3929   */\n      0x20\n        /* \"--CODEGEN--\":3918:3923   */\n      dup7\n        /* \"--CODEGEN--\":3914:3930   */\n      add\n        /* \"--CODEGEN--\":3892:3955   */\n      jump(tag_138)\n    tag_145:\n        /* \"--CODEGEN--\":3987:4016   */\n      tag_146\n        /* \"--CODEGEN--\":4009:4015   */\n      dup2\n        /* \"--CODEGEN--\":3987:4016   */\n      jump(tag_140)\n    tag_146:\n        /* \"--CODEGEN--\":3980:3984   */\n      0x20\n        /* \"--CODEGEN--\":3975:3978   */\n      dup6\n        /* \"--CODEGEN--\":3971:3985   */\n      add\n        /* \"--CODEGEN--\":3967:4017   */\n      add\n        /* \"--CODEGEN--\":3960:4017   */\n      swap2\n      pop\n        /* \"--CODEGEN--\":3808:4022   */\n      pop\n      swap3\n      swap2\n      pop\n      pop\n      jump\n        /* \"--CODEGEN--\":4088:6139   */\n    tag_122:\n      0x00\n        /* \"--CODEGEN--\":4225:4230   */\n      0x0140\n        /* \"--CODEGEN--\":4220:4223   */\n      dup4\n        /* \"--CODEGEN--\":4216:4231   */\n      add\n        /* \"--CODEGEN--\":4316:4319   */\n      0x00\n        /* \"--CODEGEN--\":4309:4314   */\n      dup4\n        /* \"--CODEGEN--\":4305:4320   */\n      add\n        /* \"--CODEGEN--\":4299:4321   */\n      mload\n        /* \"--CODEGEN--\":4333:4394   */\n      tag_148\n        /* \"--CODEGEN--\":4389:4392   */\n      0x00\n        /* \"--CODEGEN--\":4384:4387   */\n      dup7\n        /* \"--CODEGEN--\":4380:4393   */\n      add\n        /* \"--CODEGEN--\":4367:4378   */\n      dup3\n        /* \"--CODEGEN--\":4333:4394   */\n      jump(tag_109)\n    tag_148:\n        /* \"--CODEGEN--\":4246:4406   */\n      pop\n        /* \"--CODEGEN--\":4485:4489   */\n      0x20\n        /* \"--CODEGEN--\":4478:4483   */\n      dup4\n        /* \"--CODEGEN--\":4474:4490   */\n      add\n        /* \"--CODEGEN--\":4468:4491   */\n      mload\n        /* \"--CODEGEN--\":4503:4565   */\n      tag_149\n        /* \"--CODEGEN--\":4559:4563   */\n      0x20\n        /* \"--CODEGEN--\":4554:4557   */\n      dup7\n        /* \"--CODEGEN--\":4550:4564   */\n      add\n        /* \"--CODEGEN--\":4537:4548   */\n      dup3\n        /* \"--CODEGEN--\":4503:4565   */\n      jump(tag_109)\n    tag_149:\n        /* \"--CODEGEN--\":4416:4577   */\n      pop\n        /* \"--CODEGEN--\":4654:4658   */\n      0x40\n        /* \"--CODEGEN--\":4647:4652   */\n      dup4\n        /* \"--CODEGEN--\":4643:4659   */\n      add\n        /* \"--CODEGEN--\":4637:4660   */\n      mload\n        /* \"--CODEGEN--\":4705:4708   */\n      dup5\n        /* \"--CODEGEN--\":4699:4703   */\n      dup3\n        /* \"--CODEGEN--\":4695:4709   */\n      sub\n        /* \"--CODEGEN--\":4688:4692   */\n      0x40\n        /* \"--CODEGEN--\":4683:4686   */\n      dup7\n        /* \"--CODEGEN--\":4679:4693   */\n      add\n        /* \"--CODEGEN--\":4672:4710   */\n      mstore\n        /* \"--CODEGEN--\":4725:4793   */\n      tag_150\n        /* \"--CODEGEN--\":4788:4792   */\n      dup3\n        /* \"--CODEGEN--\":4775:4786   */\n      dup3\n        /* \"--CODEGEN--\":4725:4793   */\n      jump(tag_142)\n    tag_150:\n        /* \"--CODEGEN--\":4717:4793   */\n      swap2\n      pop\n        /* \"--CODEGEN--\":4587:4805   */\n      pop\n        /* \"--CODEGEN--\":4884:4888   */\n      0x60\n        /* \"--CODEGEN--\":4877:4882   */\n      dup4\n        /* \"--CODEGEN--\":4873:4889   */\n      add\n        /* \"--CODEGEN--\":4867:4890   */\n      mload\n        /* \"--CODEGEN--\":4935:4938   */\n      dup5\n        /* \"--CODEGEN--\":4929:4933   */\n      dup3\n        /* \"--CODEGEN--\":4925:4939   */\n      sub\n        /* \"--CODEGEN--\":4918:4922   */\n      0x60\n        /* \"--CODEGEN--\":4913:4916   */\n      dup7\n        /* \"--CODEGEN--\":4909:4923   */\n      add\n        /* \"--CODEGEN--\":4902:4940   */\n      mstore\n        /* \"--CODEGEN--\":4955:5023   */\n      tag_151\n        /* \"--CODEGEN--\":5018:5022   */\n      dup3\n        /* \"--CODEGEN--\":5005:5016   */\n      dup3\n        /* \"--CODEGEN--\":4955:5023   */\n      jump(tag_142)\n    tag_151:\n        /* \"--CODEGEN--\":4947:5023   */\n      swap2\n      pop\n        /* \"--CODEGEN--\":4815:5035   */\n      pop\n        /* \"--CODEGEN--\":5113:5117   */\n      0x80\n        /* \"--CODEGEN--\":5106:5111   */\n      dup4\n        /* \"--CODEGEN--\":5102:5118   */\n      add\n        /* \"--CODEGEN--\":5096:5119   */\n      mload\n        /* \"--CODEGEN--\":5131:5187   */\n      tag_152\n        /* \"--CODEGEN--\":5181:5185   */\n      0x80\n        /* \"--CODEGEN--\":5176:5179   */\n      dup7\n        /* \"--CODEGEN--\":5172:5186   */\n      add\n        /* \"--CODEGEN--\":5159:5170   */\n      dup3\n        /* \"--CODEGEN--\":5131:5187   */\n      jump(tag_126)\n    tag_152:\n        /* \"--CODEGEN--\":5045:5199   */\n      pop\n        /* \"--CODEGEN--\":5276:5280   */\n      0xa0\n        /* \"--CODEGEN--\":5269:5274   */\n      dup4\n        /* \"--CODEGEN--\":5265:5281   */\n      add\n        /* \"--CODEGEN--\":5259:5282   */\n      mload\n        /* \"--CODEGEN--\":5294:5350   */\n      tag_153\n        /* \"--CODEGEN--\":5344:5348   */\n      0xa0\n        /* \"--CODEGEN--\":5339:5342   */\n      dup7\n        /* \"--CODEGEN--\":5335:5349   */\n      add\n        /* \"--CODEGEN--\":5322:5333   */\n      dup3\n        /* \"--CODEGEN--\":5294:5350   */\n      jump(tag_126)\n    tag_153:\n        /* \"--CODEGEN--\":5209:5362   */\n      pop\n        /* \"--CODEGEN--\":5439:5443   */\n      0xc0\n        /* \"--CODEGEN--\":5432:5437   */\n      dup4\n        /* \"--CODEGEN--\":5428:5444   */\n      add\n        /* \"--CODEGEN--\":5422:5445   */\n      mload\n        /* \"--CODEGEN--\":5490:5493   */\n      dup5\n        /* \"--CODEGEN--\":5484:5488   */\n      dup3\n        /* \"--CODEGEN--\":5480:5494   */\n      sub\n        /* \"--CODEGEN--\":5473:5477   */\n      0xc0\n        /* \"--CODEGEN--\":5468:5471   */\n      dup7\n        /* \"--CODEGEN--\":5464:5478   */\n      add\n        /* \"--CODEGEN--\":5457:5495   */\n      mstore\n        /* \"--CODEGEN--\":5510:5578   */\n      tag_154\n        /* \"--CODEGEN--\":5573:5577   */\n      dup3\n        /* \"--CODEGEN--\":5560:5571   */\n      dup3\n        /* \"--CODEGEN--\":5510:5578   */\n      jump(tag_142)\n    tag_154:\n        /* \"--CODEGEN--\":5502:5578   */\n      swap2\n      pop\n        /* \"--CODEGEN--\":5372:5590   */\n      pop\n        /* \"--CODEGEN--\":5667:5671   */\n      0xe0\n        /* \"--CODEGEN--\":5660:5665   */\n      dup4\n        /* \"--CODEGEN--\":5656:5672   */\n      add\n        /* \"--CODEGEN--\":5650:5673   */\n      mload\n        /* \"--CODEGEN--\":5685:5747   */\n      tag_155\n        /* \"--CODEGEN--\":5741:5745   */\n      0xe0\n        /* \"--CODEGEN--\":5736:5739   */\n      dup7\n        /* \"--CODEGEN--\":5732:5746   */\n      add\n        /* \"--CODEGEN--\":5719:5730   */\n      dup3\n        /* \"--CODEGEN--\":5685:5747   */\n      jump(tag_156)\n    tag_155:\n        /* \"--CODEGEN--\":5600:5759   */\n      pop\n        /* \"--CODEGEN--\":5839:5844   */\n      0x0100\n        /* \"--CODEGEN--\":5832:5837   */\n      dup4\n        /* \"--CODEGEN--\":5828:5845   */\n      add\n        /* \"--CODEGEN--\":5822:5846   */\n      mload\n        /* \"--CODEGEN--\":5858:5915   */\n      tag_157\n        /* \"--CODEGEN--\":5908:5913   */\n      0x0100\n        /* \"--CODEGEN--\":5903:5906   */\n      dup7\n        /* \"--CODEGEN--\":5899:5914   */\n      add\n        /* \"--CODEGEN--\":5886:5897   */\n      dup3\n        /* \"--CODEGEN--\":5858:5915   */\n      jump(tag_126)\n    tag_157:\n        /* \"--CODEGEN--\":5769:5927   */\n      pop\n        /* \"--CODEGEN--\":6019:6024   */\n      0x0120\n        /* \"--CODEGEN--\":6012:6017   */\n      dup4\n        /* \"--CODEGEN--\":6008:6025   */\n      add\n        /* \"--CODEGEN--\":6002:6026   */\n      mload\n        /* \"--CODEGEN--\":6038:6101   */\n      tag_158\n        /* \"--CODEGEN--\":6094:6099   */\n      0x0120\n        /* \"--CODEGEN--\":6089:6092   */\n      dup7\n        /* \"--CODEGEN--\":6085:6100   */\n      add\n        /* \"--CODEGEN--\":6072:6083   */\n      dup3\n        /* \"--CODEGEN--\":6038:6101   */\n      jump(tag_156)\n    tag_158:\n        /* \"--CODEGEN--\":5937:6113   */\n      pop\n        /* \"--CODEGEN--\":6130:6134   */\n      dup1\n        /* \"--CODEGEN--\":6123:6134   */\n      swap2\n      pop\n        /* \"--CODEGEN--\":4198:6139   */\n      pop\n      swap3\n      swap2\n      pop\n      pop\n      jump\n        /* \"--CODEGEN--\":6146:6256   */\n    tag_156:\n        /* \"--CODEGEN--\":6219:6250   */\n      tag_160\n        /* \"--CODEGEN--\":6244:6249   */\n      dup2\n        /* \"--CODEGEN--\":6219:6250   */\n      jump(tag_161)\n    tag_160:\n        /* \"--CODEGEN--\":6214:6217   */\n      dup3\n        /* \"--CODEGEN--\":6207:6251   */\n      mstore\n        /* \"--CODEGEN--\":6201:6256   */\n      pop\n      pop\n      jump\n        /* \"--CODEGEN--\":6263:7656   */\n    tag_9:\n      0x00\n        /* \"--CODEGEN--\":6715:6718   */\n      0x0100\n        /* \"--CODEGEN--\":6704:6713   */\n      dup3\n        /* \"--CODEGEN--\":6700:6719   */\n      add\n        /* \"--CODEGEN--\":6692:6719   */\n      swap1\n      pop\n        /* \"--CODEGEN--\":6730:6791   */\n      tag_163\n        /* \"--CODEGEN--\":6788:6789   */\n      0x00\n        /* \"--CODEGEN--\":6777:6786   */\n      dup4\n        /* \"--CODEGEN--\":6773:6790   */\n      add\n        /* \"--CODEGEN--\":6764:6770   */\n      dup12\n        /* \"--CODEGEN--\":6730:6791   */\n      jump(tag_109)\n    tag_163:\n        /* \"--CODEGEN--\":6802:6864   */\n      tag_164\n        /* \"--CODEGEN--\":6860:6862   */\n      0x20\n        /* \"--CODEGEN--\":6849:6858   */\n      dup4\n        /* \"--CODEGEN--\":6845:6863   */\n      add\n        /* \"--CODEGEN--\":6836:6842   */\n      dup11\n        /* \"--CODEGEN--\":6802:6864   */\n      jump(tag_109)\n    tag_164:\n        /* \"--CODEGEN--\":6912:6921   */\n      dup2\n        /* \"--CODEGEN--\":6906:6910   */\n      dup2\n        /* \"--CODEGEN--\":6902:6922   */\n      sub\n        /* \"--CODEGEN--\":6897:6899   */\n      0x40\n        /* \"--CODEGEN--\":6886:6895   */\n      dup4\n        /* \"--CODEGEN--\":6882:6900   */\n      add\n        /* \"--CODEGEN--\":6875:6923   */\n      mstore\n        /* \"--CODEGEN--\":6937:7005   */\n      tag_165\n        /* \"--CODEGEN--\":7000:7004   */\n      dup2\n        /* \"--CODEGEN--\":6991:6997   */\n      dup10\n        /* \"--CODEGEN--\":6937:7005   */\n      jump(tag_134)\n    tag_165:\n        /* \"--CODEGEN--\":6929:7005   */\n      swap1\n      pop\n        /* \"--CODEGEN--\":7016:7076   */\n      tag_166\n        /* \"--CODEGEN--\":7072:7074   */\n      0x60\n        /* \"--CODEGEN--\":7061:7070   */\n      dup4\n        /* \"--CODEGEN--\":7057:7075   */\n      add\n        /* \"--CODEGEN--\":7048:7054   */\n      dup9\n        /* \"--CODEGEN--\":7016:7076   */\n      jump(tag_130)\n    tag_166:\n        /* \"--CODEGEN--\":7125:7134   */\n      dup2\n        /* \"--CODEGEN--\":7119:7123   */\n      dup2\n        /* \"--CODEGEN--\":7115:7135   */\n      sub\n        /* \"--CODEGEN--\":7109:7112   */\n      0x80\n        /* \"--CODEGEN--\":7098:7107   */\n      dup4\n        /* \"--CODEGEN--\":7094:7113   */\n      add\n        /* \"--CODEGEN--\":7087:7136   */\n      mstore\n        /* \"--CODEGEN--\":7150:7218   */\n      tag_167\n        /* \"--CODEGEN--\":7213:7217   */\n      dup2\n        /* \"--CODEGEN--\":7204:7210   */\n      dup8\n        /* \"--CODEGEN--\":7150:7218   */\n      jump(tag_134)\n    tag_167:\n        /* \"--CODEGEN--\":7142:7218   */\n      swap1\n      pop\n        /* \"--CODEGEN--\":7267:7276   */\n      dup2\n        /* \"--CODEGEN--\":7261:7265   */\n      dup2\n        /* \"--CODEGEN--\":7257:7277   */\n      sub\n        /* \"--CODEGEN--\":7251:7254   */\n      0xa0\n        /* \"--CODEGEN--\":7240:7249   */\n      dup4\n        /* \"--CODEGEN--\":7236:7255   */\n      add\n        /* \"--CODEGEN--\":7229:7278   */\n      mstore\n        /* \"--CODEGEN--\":7292:7360   */\n      tag_168\n        /* \"--CODEGEN--\":7355:7359   */\n      dup2\n        /* \"--CODEGEN--\":7346:7352   */\n      dup7\n        /* \"--CODEGEN--\":7292:7360   */\n      jump(tag_134)\n    tag_168:\n        /* \"--CODEGEN--\":7284:7360   */\n      swap1\n      pop\n        /* \"--CODEGEN--\":7371:7432   */\n      tag_169\n        /* \"--CODEGEN--\":7427:7430   */\n      0xc0\n        /* \"--CODEGEN--\":7416:7425   */\n      dup4\n        /* \"--CODEGEN--\":7412:7431   */\n      add\n        /* \"--CODEGEN--\":7403:7409   */\n      dup6\n        /* \"--CODEGEN--\":7371:7432   */\n      jump(tag_130)\n    tag_169:\n        /* \"--CODEGEN--\":7481:7490   */\n      dup2\n        /* \"--CODEGEN--\":7475:7479   */\n      dup2\n        /* \"--CODEGEN--\":7471:7491   */\n      sub\n        /* \"--CODEGEN--\":7465:7468   */\n      0xe0\n        /* \"--CODEGEN--\":7454:7463   */\n      dup4\n        /* \"--CODEGEN--\":7450:7469   */\n      add\n        /* \"--CODEGEN--\":7443:7492   */\n      mstore\n        /* \"--CODEGEN--\":7506:7646   */\n      tag_170\n        /* \"--CODEGEN--\":7641:7645   */\n      dup2\n        /* \"--CODEGEN--\":7632:7638   */\n      dup5\n        /* \"--CODEGEN--\":7506:7646   */\n      jump(tag_113)\n    tag_170:\n        /* \"--CODEGEN--\":7498:7646   */\n      swap1\n      pop\n        /* \"--CODEGEN--\":6686:7656   */\n      swap10\n      swap9\n      pop\n      pop\n      pop\n      pop\n      pop\n      pop\n      pop\n      pop\n      pop\n      jump\n        /* \"--CODEGEN--\":7663:8808   */\n    tag_61:\n      0x00\n        /* \"--CODEGEN--\":8015:8018   */\n      0x0100\n        /* \"--CODEGEN--\":8004:8013   */\n      dup3\n        /* \"--CODEGEN--\":8000:8019   */\n      add\n        /* \"--CODEGEN--\":7992:8019   */\n      swap1\n      pop\n        /* \"--CODEGEN--\":8030:8091   */\n      tag_172\n        /* \"--CODEGEN--\":8088:8089   */\n      0x00\n        /* \"--CODEGEN--\":8077:8086   */\n      dup4\n        /* \"--CODEGEN--\":8073:8090   */\n      add\n        /* \"--CODEGEN--\":8064:8070   */\n      dup12\n        /* \"--CODEGEN--\":8030:8091   */\n      jump(tag_109)\n    tag_172:\n        /* \"--CODEGEN--\":8102:8164   */\n      tag_173\n        /* \"--CODEGEN--\":8160:8162   */\n      0x20\n        /* \"--CODEGEN--\":8149:8158   */\n      dup4\n        /* \"--CODEGEN--\":8145:8163   */\n      add\n        /* \"--CODEGEN--\":8136:8142   */\n      dup11\n        /* \"--CODEGEN--\":8102:8164   */\n      jump(tag_109)\n    tag_173:\n        /* \"--CODEGEN--\":8212:8221   */\n      dup2\n        /* \"--CODEGEN--\":8206:8210   */\n      dup2\n        /* \"--CODEGEN--\":8202:8222   */\n      sub\n        /* \"--CODEGEN--\":8197:8199   */\n      0x40\n        /* \"--CODEGEN--\":8186:8195   */\n      dup4\n        /* \"--CODEGEN--\":8182:8200   */\n      add\n        /* \"--CODEGEN--\":8175:8223   */\n      mstore\n        /* \"--CODEGEN--\":8237:8305   */\n      tag_174\n        /* \"--CODEGEN--\":8300:8304   */\n      dup2\n        /* \"--CODEGEN--\":8291:8297   */\n      dup10\n        /* \"--CODEGEN--\":8237:8305   */\n      jump(tag_134)\n    tag_174:\n        /* \"--CODEGEN--\":8229:8305   */\n      swap1\n      pop\n        /* \"--CODEGEN--\":8353:8362   */\n      dup2\n        /* \"--CODEGEN--\":8347:8351   */\n      dup2\n        /* \"--CODEGEN--\":8343:8363   */\n      sub\n        /* \"--CODEGEN--\":8338:8340   */\n      0x60\n        /* \"--CODEGEN--\":8327:8336   */\n      dup4\n        /* \"--CODEGEN--\":8323:8341   */\n      add\n        /* \"--CODEGEN--\":8316:8364   */\n      mstore\n        /* \"--CODEGEN--\":8378:8446   */\n      tag_175\n        /* \"--CODEGEN--\":8441:8445   */\n      dup2\n        /* \"--CODEGEN--\":8432:8438   */\n      dup9\n        /* \"--CODEGEN--\":8378:8446   */\n      jump(tag_134)\n    tag_175:\n        /* \"--CODEGEN--\":8370:8446   */\n      swap1\n      pop\n        /* \"--CODEGEN--\":8495:8504   */\n      dup2\n        /* \"--CODEGEN--\":8489:8493   */\n      dup2\n        /* \"--CODEGEN--\":8485:8505   */\n      sub\n        /* \"--CODEGEN--\":8479:8482   */\n      0x80\n        /* \"--CODEGEN--\":8468:8477   */\n      dup4\n        /* \"--CODEGEN--\":8464:8483   */\n      add\n        /* \"--CODEGEN--\":8457:8506   */\n      mstore\n        /* \"--CODEGEN--\":8520:8588   */\n      tag_176\n        /* \"--CODEGEN--\":8583:8587   */\n      dup2\n        /* \"--CODEGEN--\":8574:8580   */\n      dup8\n        /* \"--CODEGEN--\":8520:8588   */\n      jump(tag_134)\n    tag_176:\n        /* \"--CODEGEN--\":8512:8588   */\n      swap1\n      pop\n        /* \"--CODEGEN--\":8599:8656   */\n      tag_177\n        /* \"--CODEGEN--\":8651:8654   */\n      0xa0\n        /* \"--CODEGEN--\":8640:8649   */\n      dup4\n        /* \"--CODEGEN--\":8636:8655   */\n      add\n        /* \"--CODEGEN--\":8627:8633   */\n      dup7\n        /* \"--CODEGEN--\":8599:8656   */\n      jump(tag_126)\n    tag_177:\n        /* \"--CODEGEN--\":8667:8724   */\n      tag_178\n        /* \"--CODEGEN--\":8719:8722   */\n      0xc0\n        /* \"--CODEGEN--\":8708:8717   */\n      dup4\n        /* \"--CODEGEN--\":8704:8723   */\n      add\n        /* \"--CODEGEN--\":8695:8701   */\n      dup6\n        /* \"--CODEGEN--\":8667:8724   */\n      jump(tag_126)\n    tag_178:\n        /* \"--CODEGEN--\":8735:8798   */\n      tag_179\n        /* \"--CODEGEN--\":8793:8796   */\n      0xe0\n        /* \"--CODEGEN--\":8782:8791   */\n      dup4\n        /* \"--CODEGEN--\":8778:8797   */\n      add\n        /* \"--CODEGEN--\":8769:8775   */\n      dup5\n        /* \"--CODEGEN--\":8735:8798   */\n      jump(tag_156)\n    tag_179:\n        /* \"--CODEGEN--\":7986:8808   */\n      swap10\n      swap9\n      pop\n      pop\n      pop\n      pop\n      pop\n      pop\n      pop\n      pop\n      pop\n      jump\n        /* \"--CODEGEN--\":8815:9071   */\n    tag_87:\n      0x00\n        /* \"--CODEGEN--\":8877:8879   */\n      0x40\n        /* \"--CODEGEN--\":8871:8880   */\n      mload\n        /* \"--CODEGEN--\":8861:8880   */\n      swap1\n      pop\n        /* \"--CODEGEN--\":8915:8919   */\n      dup2\n        /* \"--CODEGEN--\":8907:8913   */\n      dup2\n        /* \"--CODEGEN--\":8903:8920   */\n      add\n        /* \"--CODEGEN--\":9014:9020   */\n      dup2\n        /* \"--CODEGEN--\":9002:9012   */\n      dup2\n        /* \"--CODEGEN--\":8999:9021   */\n      lt\n        /* \"--CODEGEN--\":8978:8996   */\n      0xffffffffffffffff\n        /* \"--CODEGEN--\":8966:8976   */\n      dup3\n        /* \"--CODEGEN--\":8963:8997   */\n      gt\n        /* \"--CODEGEN--\":8960:9022   */\n      or\n        /* \"--CODEGEN--\":8957:8959   */\n      iszero\n      tag_181\n      jumpi\n        /* \"--CODEGEN--\":9035:9036   */\n      0x00\n        /* \"--CODEGEN--\":9032:9033   */\n      dup1\n        /* \"--CODEGEN--\":9025:9037   */\n      revert\n        /* \"--CODEGEN--\":8957:8959   */\n    tag_181:\n        /* \"--CODEGEN--\":9055:9065   */\n      dup1\n        /* \"--CODEGEN--\":9051:9053   */\n      0x40\n        /* \"--CODEGEN--\":9044:9066   */\n      mstore\n        /* \"--CODEGEN--\":8855:9071   */\n      pop\n      swap2\n      swap1\n      pop\n      jump\n        /* \"--CODEGEN--\":9078:9337   */\n    tag_86:\n      0x00\n        /* \"--CODEGEN--\":9222:9240   */\n      0xffffffffffffffff\n        /* \"--CODEGEN--\":9214:9220   */\n      dup3\n        /* \"--CODEGEN--\":9211:9241   */\n      gt\n        /* \"--CODEGEN--\":9208:9210   */\n      iszero\n      tag_183\n      jumpi\n        /* \"--CODEGEN--\":9254:9255   */\n      0x00\n        /* \"--CODEGEN--\":9251:9252   */\n      dup1\n        /* \"--CODEGEN--\":9244:9256   */\n      revert\n        /* \"--CODEGEN--\":9208:9210   */\n    tag_183:\n        /* \"--CODEGEN--\":9298:9302   */\n      0x1f\n        /* \"--CODEGEN--\":9294:9303   */\n      not\n        /* \"--CODEGEN--\":9287:9291   */\n      0x1f\n        /* \"--CODEGEN--\":9279:9285   */\n      dup4\n        /* \"--CODEGEN--\":9275:9292   */\n      add\n        /* \"--CODEGEN--\":9271:9304   */\n      and\n        /* \"--CODEGEN--\":9263:9304   */\n      swap1\n      pop\n        /* \"--CODEGEN--\":9327:9331   */\n      0x20\n        /* \"--CODEGEN--\":9321:9325   */\n      dup2\n        /* \"--CODEGEN--\":9317:9332   */\n      add\n        /* \"--CODEGEN--\":9309:9332   */\n      swap1\n      pop\n        /* \"--CODEGEN--\":9145:9337   */\n      swap2\n      swap1\n      pop\n      jump\n        /* \"--CODEGEN--\":9346:9488   */\n    tag_117:\n      0x00\n        /* \"--CODEGEN--\":9476:9480   */\n      0x20\n        /* \"--CODEGEN--\":9468:9474   */\n      dup3\n        /* \"--CODEGEN--\":9464:9481   */\n      add\n        /* \"--CODEGEN--\":9453:9481   */\n      swap1\n      pop\n        /* \"--CODEGEN--\":9445:9488   */\n      swap2\n      swap1\n      pop\n      jump\n        /* \"--CODEGEN--\":9497:9625   */\n    tag_115:\n      0x00\n        /* \"--CODEGEN--\":9614:9619   */\n      dup2\n        /* \"--CODEGEN--\":9608:9620   */\n      mload\n        /* \"--CODEGEN--\":9598:9620   */\n      swap1\n      pop\n        /* \"--CODEGEN--\":9592:9625   */\n      swap2\n      swap1\n      pop\n      jump\n        /* \"--CODEGEN--\":9632:9720   */\n    tag_144:\n      0x00\n        /* \"--CODEGEN--\":9709:9714   */\n      dup2\n        /* \"--CODEGEN--\":9703:9715   */\n      mload\n        /* \"--CODEGEN--\":9693:9715   */\n      swap1\n      pop\n        /* \"--CODEGEN--\":9687:9720   */\n      swap2\n      swap1\n      pop\n      jump\n        /* \"--CODEGEN--\":9727:9819   */\n    tag_136:\n      0x00\n        /* \"--CODEGEN--\":9808:9813   */\n      dup2\n        /* \"--CODEGEN--\":9802:9814   */\n      mload\n        /* \"--CODEGEN--\":9792:9814   */\n      swap1\n      pop\n        /* \"--CODEGEN--\":9786:9819   */\n      swap2\n      swap1\n      pop\n      jump\n        /* \"--CODEGEN--\":9827:9970   */\n    tag_124:\n      0x00\n        /* \"--CODEGEN--\":9959:9963   */\n      0x20\n        /* \"--CODEGEN--\":9951:9957   */\n      dup3\n        /* \"--CODEGEN--\":9947:9964   */\n      add\n        /* \"--CODEGEN--\":9936:9964   */\n      swap1\n      pop\n        /* \"--CODEGEN--\":9929:9970   */\n      swap2\n      swap1\n      pop\n      jump\n        /* \"--CODEGEN--\":9978:10083   */\n    tag_111:\n      0x00\n        /* \"--CODEGEN--\":10047:10078   */\n      tag_190\n        /* \"--CODEGEN--\":10072:10077   */\n      dup3\n        /* \"--CODEGEN--\":10047:10078   */\n      jump(tag_191)\n    tag_190:\n        /* \"--CODEGEN--\":10036:10078   */\n      swap1\n      pop\n        /* \"--CODEGEN--\":10030:10083   */\n      swap2\n      swap1\n      pop\n      jump\n        /* \"--CODEGEN--\":10090:10182   */\n    tag_128:\n      0x00\n        /* \"--CODEGEN--\":10170:10175   */\n      dup2\n        /* \"--CODEGEN--\":10163:10176   */\n      iszero\n        /* \"--CODEGEN--\":10156:10177   */\n      iszero\n        /* \"--CODEGEN--\":10145:10177   */\n      swap1\n      pop\n        /* \"--CODEGEN--\":10139:10182   */\n      swap2\n      swap1\n      pop\n      jump\n        /* \"--CODEGEN--\":10189:10267   */\n    tag_132:\n      0x00\n        /* \"--CODEGEN--\":10257:10262   */\n      dup2\n        /* \"--CODEGEN--\":10246:10262   */\n      swap1\n      pop\n        /* \"--CODEGEN--\":10240:10267   */\n      swap2\n      swap1\n      pop\n      jump\n        /* \"--CODEGEN--\":10274:10402   */\n    tag_191:\n      0x00\n        /* \"--CODEGEN--\":10354:10396   */\n      0xffffffffffffffffffffffffffffffffffffffff\n        /* \"--CODEGEN--\":10347:10352   */\n      dup3\n        /* \"--CODEGEN--\":10343:10397   */\n      and\n        /* \"--CODEGEN--\":10332:10397   */\n      swap1\n      pop\n        /* \"--CODEGEN--\":10326:10402   */\n      swap2\n      swap1\n      pop\n      jump\n        /* \"--CODEGEN--\":10409:10488   */\n    tag_161:\n      0x00\n        /* \"--CODEGEN--\":10478:10483   */\n      dup2\n        /* \"--CODEGEN--\":10467:10483   */\n      swap1\n      pop\n        /* \"--CODEGEN--\":10461:10488   */\n      swap2\n      swap1\n      pop\n      jump\n        /* \"--CODEGEN--\":10495:10600   */\n    tag_76:\n      0x00\n        /* \"--CODEGEN--\":10564:10595   */\n      tag_197\n        /* \"--CODEGEN--\":10589:10594   */\n      dup3\n        /* \"--CODEGEN--\":10564:10595   */\n      jump(tag_191)\n    tag_197:\n        /* \"--CODEGEN--\":10553:10595   */\n      swap1\n      pop\n        /* \"--CODEGEN--\":10547:10600   */\n      swap2\n      swap1\n      pop\n      jump\n        /* \"--CODEGEN--\":10607:10699   */\n    tag_80:\n      0x00\n        /* \"--CODEGEN--\":10687:10692   */\n      dup2\n        /* \"--CODEGEN--\":10680:10693   */\n      iszero\n        /* \"--CODEGEN--\":10673:10694   */\n      iszero\n        /* \"--CODEGEN--\":10662:10694   */\n      swap1\n      pop\n        /* \"--CODEGEN--\":10656:10699   */\n      swap2\n      swap1\n      pop\n      jump\n        /* \"--CODEGEN--\":10706:10785   */\n    tag_94:\n      0x00\n        /* \"--CODEGEN--\":10775:10780   */\n      dup2\n        /* \"--CODEGEN--\":10764:10780   */\n      swap1\n      pop\n        /* \"--CODEGEN--\":10758:10785   */\n      swap2\n      swap1\n      pop\n      jump\n        /* \"--CODEGEN--\":10793:10938   */\n    tag_90:\n        /* \"--CODEGEN--\":10874:10880   */\n      dup3\n        /* \"--CODEGEN--\":10869:10872   */\n      dup2\n        /* \"--CODEGEN--\":10864:10867   */\n      dup4\n        /* \"--CODEGEN--\":10851:10881   */\n      calldatacopy\n        /* \"--CODEGEN--\":10930:10931   */\n      0x00\n        /* \"--CODEGEN--\":10921:10927   */\n      dup4\n        /* \"--CODEGEN--\":10916:10919   */\n      dup4\n        /* \"--CODEGEN--\":10912:10928   */\n      add\n        /* \"--CODEGEN--\":10905:10932   */\n      mstore\n        /* \"--CODEGEN--\":10844:10938   */\n      pop\n      pop\n      pop\n      jump\n        /* \"--CODEGEN--\":10947:11215   */\n    tag_138:\n        /* \"--CODEGEN--\":11012:11013   */\n      0x00\n        /* \"--CODEGEN--\":11019:11120   */\n    tag_202:\n        /* \"--CODEGEN--\":11033:11039   */\n      dup4\n        /* \"--CODEGEN--\":11030:11031   */\n      dup2\n        /* \"--CODEGEN--\":11027:11040   */\n      lt\n        /* \"--CODEGEN--\":11019:11120   */\n      iszero\n      tag_203\n      jumpi\n        /* \"--CODEGEN--\":11109:11110   */\n      dup1\n        /* \"--CODEGEN--\":11104:11107   */\n      dup3\n        /* \"--CODEGEN--\":11100:11111   */\n      add\n        /* \"--CODEGEN--\":11094:11112   */\n      mload\n        /* \"--CODEGEN--\":11090:11091   */\n      dup2\n        /* \"--CODEGEN--\":11085:11088   */\n      dup5\n        /* \"--CODEGEN--\":11081:11092   */\n      add\n        /* \"--CODEGEN--\":11074:11113   */\n      mstore\n        /* \"--CODEGEN--\":11055:11057   */\n      0x20\n        /* \"--CODEGEN--\":11052:11053   */\n      dup2\n        /* \"--CODEGEN--\":11048:11058   */\n      add\n        /* \"--CODEGEN--\":11043:11058   */\n      swap1\n      pop\n        /* \"--CODEGEN--\":11019:11120   */\n      jump(tag_202)\n    tag_203:\n        /* \"--CODEGEN--\":11135:11141   */\n      dup4\n        /* \"--CODEGEN--\":11132:11133   */\n      dup2\n        /* \"--CODEGEN--\":11129:11142   */\n      gt\n        /* \"--CODEGEN--\":11126:11128   */\n      iszero\n      tag_205\n      jumpi\n        /* \"--CODEGEN--\":11200:11201   */\n      0x00\n        /* \"--CODEGEN--\":11191:11197   */\n      dup5\n        /* \"--CODEGEN--\":11186:11189   */\n      dup5\n        /* \"--CODEGEN--\":11182:11198   */\n      add\n        /* \"--CODEGEN--\":11175:11202   */\n      mstore\n        /* \"--CODEGEN--\":11126:11128   */\n    tag_205:\n        /* \"--CODEGEN--\":10996:11215   */\n      pop\n      pop\n      pop\n      pop\n      jump\n        /* \"--CODEGEN--\":11223:11320   */\n    tag_140:\n      0x00\n        /* \"--CODEGEN--\":11311:11313   */\n      0x1f\n        /* \"--CODEGEN--\":11307:11314   */\n      not\n        /* \"--CODEGEN--\":11302:11304   */\n      0x1f\n        /* \"--CODEGEN--\":11295:11300   */\n      dup4\n        /* \"--CODEGEN--\":11291:11305   */\n      add\n        /* \"--CODEGEN--\":11287:11315   */\n      and\n        /* \"--CODEGEN--\":11277:11315   */\n      swap1\n      pop\n        /* \"--CODEGEN--\":11271:11320   */\n      swap2\n      swap1\n      pop\n      jump\n\n    auxdata: 0xa265627a7a72305820b5956848fe2ca68be3218ed4e8be93b5df07f306e7ad3a37d4500d845a4c21716c6578706572696d656e74616cf50037\n}\n",
    "bytecode": {
      "linkReferences": {},
      "object": "60806040527fffffffffffffffffffffffffffffffffffffffffffffffffffffffffffffffff6007553480156200003557600080fd5b50604051620016893803806200168983398101806040526200005b91908101906200027a565b306000806101000a81548173ffffffffffffffffffffffffffffffffffffffff021916908373ffffffffffffffffffffffffffffffffffffffff16021790555085600160006101000a81548173ffffffffffffffffffffffffffffffffffffffff021916908373ffffffffffffffffffffffffffffffffffffffff1602179055508460029080519060200190620000f492919062000141565b5081600490805190602001906200010d92919062000141565b5080600590805190602001906200012692919062000141565b5083600381905550826006819055505050505050506200042a565b828054600181600116156101000203166002900490600052602060002090601f016020900481019282601f106200018457805160ff1916838001178555620001b5565b82800160010185558215620001b5579182015b82811115620001b457825182559160200191906001019062000197565b5b509050620001c49190620001c8565b5090565b620001ed91905b80821115620001e9576000816000905550600101620001cf565b5090565b90565b6000620001fe8251620003d6565b905092915050565b6000620002148251620003ea565b905092915050565b600082601f83011215156200023057600080fd5b815162000247620002418262000389565b6200035b565b915080825260208301602083018583830111156200026457600080fd5b62000271838284620003f4565b50505092915050565b60008060008060008060c087890312156200029457600080fd5b6000620002a489828a01620001f0565b965050602087015167ffffffffffffffff811115620002c257600080fd5b620002d089828a016200021c565b9550506040620002e389828a0162000206565b9450506060620002f689828a0162000206565b935050608087015167ffffffffffffffff8111156200031457600080fd5b6200032289828a016200021c565b92505060a087015167ffffffffffffffff8111156200034057600080fd5b6200034e89828a016200021c565b9150509295509295509295565b6000604051905081810181811067ffffffffffffffff821117156200037f57600080fd5b8060405250919050565b600067ffffffffffffffff821115620003a157600080fd5b601f19601f8301169050602081019050919050565b600073ffffffffffffffffffffffffffffffffffffffff82169050919050565b6000620003e382620003b6565b9050919050565b6000819050919050565b60005b8381101562000414578082015181840152602081019050620003f7565b8381111562000424576000848401525b50505050565b61124f806200043a6000396000f3fe608060405234801561001057600080fd5b506004361061005e576000357c0100000000000000000000000000000000000000000000000000000000900480633bc5de301461006357806372102d181461008857806383bffb88146100a4575b600080fd5b61006b6100c0565b60405161007f989796959493929190610f87565b60405180910390f35b6100a2600480360361009d9190810190610d3a565b610661565b005b6100be60048036036100b99190810190610ca3565b6107b4565b005b60008060606000606080600060606000809054906101000a900473ffffffffffffffffffffffffffffffffffffffff16600160009054906101000a900473ffffffffffffffffffffffffffffffffffffffff166002600354600460056006546008858054600181600116156101000203166002900480601f0160208091040260200160405190810160405280929190818152602001828054600181600116156101000203166002900480156101b65780601f1061018b576101008083540402835291602001916101b6565b820191906000526020600020905b81548152906001019060200180831161019957829003601f168201915b50505050509550838054600181600116156101000203166002900480601f0160208091040260200160405190810160405280929190818152602001828054600181600116156101000203166002900480156102525780601f1061022757610100808354040283529160200191610252565b820191906000526020600020905b81548152906001019060200180831161023557829003601f168201915b50505050509350828054600181600116156101000203166002900480601f0160208091040260200160405190810160405280929190818152602001828054600181600116156101000203166002900480156102ee5780601f106102c3576101008083540402835291602001916102ee565b820191906000526020600020905b8154815290600101906020018083116102d157829003601f168201915b5050505050925080805480602002602001604051908101604052809291908181526020016000905b82821015610641578382906000526020600020906009020161014060405190810160405290816000820160009054906101000a900473ffffffffffffffffffffffffffffffffffffffff1673ffffffffffffffffffffffffffffffffffffffff1673ffffffffffffffffffffffffffffffffffffffff1681526020016001820160009054906101000a900473ffffffffffffffffffffffffffffffffffffffff1673ffffffffffffffffffffffffffffffffffffffff1673ffffffffffffffffffffffffffffffffffffffff168152602001600282018054600181600116156101000203166002900480601f0160208091040260200160405190810160405280929190818152602001828054600181600116156101000203166002900480156104805780601f1061045557610100808354040283529160200191610480565b820191906000526020600020905b81548152906001019060200180831161046357829003601f168201915b50505050508152602001600382018054600181600116156101000203166002900480601f0160208091040260200160405190810160405280929190818152602001828054600181600116156101000203166002900480156105225780601f106104f757610100808354040283529160200191610522565b820191906000526020600020905b81548152906001019060200180831161050557829003601f168201915b505050505081526020016004820160009054906101000a900460ff161515151581526020016004820160019054906101000a900460ff16151515158152602001600582018054600181600116156101000203166002900480601f0160208091040260200160405190810160405280929190818152602001828054600181600116156101000203166002900480156105fa5780601f106105cf576101008083540402835291602001916105fa565b820191906000526020600020905b8154815290600101906020018083116105dd57829003601f168201915b50505050508152602001600682015481526020016007820160009054906101000a900460ff1615151515815260200160088201548152505081526020019060010190610316565b505050509050975097509750975097509750975097509091929394959697565b600160009054906101000a900473ffffffffffffffffffffffffffffffffffffffff1673ffffffffffffffffffffffffffffffffffffffff168273ffffffffffffffffffffffffffffffffffffffff1614156107af5760011515811515141561073b5760016008848154811015156106d557fe5b906000526020600020906009020160070160006101000a81548160ff021916908315150217905550600160088481548110151561070e57fe5b906000526020600020906009020160040160016101000a81548160ff0219169083151502179055506107ae565b600160088481548110151561074c57fe5b906000526020600020906009020160070160006101000a81548160ff021916908315150217905550600060088481548110151561078557fe5b906000526020600020906009020160040160016101000a81548160ff0219169083151502179055505b5b505050565b6107bc610ae6565b61014060405190810160405280600160009054906101000a900473ffffffffffffffffffffffffffffffffffffffff1673ffffffffffffffffffffffffffffffffffffffff1681526020013073ffffffffffffffffffffffffffffffffffffffff1681526020018481526020018381526020016001151581526020016000151581526020018581526020016001600754018152602001600015158152602001600081525090506008819080600181540180825580915050906001820390600052602060002090600902016000909192909190915060008201518160000160006101000a81548173ffffffffffffffffffffffffffffffffffffffff021916908373ffffffffffffffffffffffffffffffffffffffff16021790555060208201518160010160006101000a81548173ffffffffffffffffffffffffffffffffffffffff021916908373ffffffffffffffffffffffffffffffffffffffff160217905550604082015181600201908051906020019061093a929190610b6c565b506060820151816003019080519060200190610957929190610b6c565b5060808201518160040160006101000a81548160ff02191690831515021790555060a08201518160040160016101000a81548160ff02191690831515021790555060c08201518160050190805190602001906109b4929190610b6c565b5060e082015181600601556101008201518160070160006101000a81548160ff02191690831515021790555061012082015181600801555050506000600160009054906101000a900473ffffffffffffffffffffffffffffffffffffffff1690508073ffffffffffffffffffffffffffffffffffffffff16639b6b309a600160009054906101000a900473ffffffffffffffffffffffffffffffffffffffff163087878a600160006001600754016040518963ffffffff167c0100000000000000000000000000000000000000000000000000000000028152600401610aa1989796959493929190611021565b600060405180830381600087803b158015610abb57600080fd5b505af1158015610acf573d6000803e3d6000fd5b505050506001600754016007819055505050505050565b61014060405190810160405280600073ffffffffffffffffffffffffffffffffffffffff168152602001600073ffffffffffffffffffffffffffffffffffffffff16815260200160608152602001606081526020016000151581526020016000151581526020016060815260200160008152602001600015158152602001600081525090565b828054600181600116156101000203166002900490600052602060002090601f016020900481019282601f10610bad57805160ff1916838001178555610bdb565b82800160010185558215610bdb579182015b82811115610bda578251825591602001919060010190610bbf565b5b509050610be89190610bec565b5090565b610c0e91905b80821115610c0a576000816000905550600101610bf2565b5090565b90565b6000610c1d823561119a565b905092915050565b6000610c3182356111ac565b905092915050565b600082601f8301121515610c4c57600080fd5b8135610c5f610c5a826110e1565b6110b4565b91508082526020830160208301858383011115610c7b57600080fd5b610c868382846111c2565b50505092915050565b6000610c9b82356111b8565b905092915050565b600080600060608486031215610cb857600080fd5b600084013567ffffffffffffffff811115610cd257600080fd5b610cde86828701610c39565b935050602084013567ffffffffffffffff811115610cfb57600080fd5b610d0786828701610c39565b925050604084013567ffffffffffffffff811115610d2457600080fd5b610d3086828701610c39565b9150509250925092565b600080600060608486031215610d4f57600080fd5b6000610d5d86828701610c8f565b9350506020610d6e86828701610c11565b9250506040610d7f86828701610c25565b9150509250925092565b610d9281611148565b82525050565b6000610da38261111a565b80845260208401935083602082028501610dbc8561110d565b60005b84811015610df5578383038852610dd7838351610e90565b9250610de28261113b565b9150602088019750600181019050610dbf565b508196508694505050505092915050565b610e0f8161115a565b82525050565b610e1e81611166565b82525050565b6000610e2f82611130565b808452610e438160208601602086016111d1565b610e4c81611204565b602085010191505092915050565b6000610e6582611125565b808452610e798160208601602086016111d1565b610e8281611204565b602085010191505092915050565b600061014083016000830151610ea96000860182610d89565b506020830151610ebc6020860182610d89565b5060408301518482036040860152610ed48282610e5a565b91505060608301518482036060860152610eee8282610e5a565b9150506080830151610f036080860182610e06565b5060a0830151610f1660a0860182610e06565b5060c083015184820360c0860152610f2e8282610e5a565b91505060e0830151610f4360e0860182610f78565b50610100830151610f58610100860182610e06565b50610120830151610f6d610120860182610f78565b508091505092915050565b610f8181611190565b82525050565b600061010082019050610f9d600083018b610d89565b610faa602083018a610d89565b8181036040830152610fbc8189610e24565b9050610fcb6060830188610e15565b8181036080830152610fdd8187610e24565b905081810360a0830152610ff18186610e24565b905061100060c0830185610e15565b81810360e08301526110128184610d98565b90509998505050505050505050565b600061010082019050611037600083018b610d89565b611044602083018a610d89565b81810360408301526110568189610e24565b9050818103606083015261106a8188610e24565b9050818103608083015261107e8187610e24565b905061108d60a0830186610e06565b61109a60c0830185610e06565b6110a760e0830184610f78565b9998505050505050505050565b6000604051905081810181811067ffffffffffffffff821117156110d757600080fd5b8060405250919050565b600067ffffffffffffffff8211156110f857600080fd5b601f19601f8301169050602081019050919050565b6000602082019050919050565b600081519050919050565b600081519050919050565b600081519050919050565b6000602082019050919050565b600061115382611170565b9050919050565b60008115159050919050565b6000819050919050565b600073ffffffffffffffffffffffffffffffffffffffff82169050919050565b6000819050919050565b60006111a582611170565b9050919050565b60008115159050919050565b6000819050919050565b82818337600083830152505050565b60005b838110156111ef5780820151818401526020810190506111d4565b838111156111fe576000848401525b50505050565b6000601f19601f830116905091905056fea265627a7a72305820b5956848fe2ca68be3218ed4e8be93b5df07f306e7ad3a37d4500d845a4c21716c6578706572696d656e74616cf50037",
      "opcodes": "PUSH1 0x80 PUSH1 0x40 MSTORE PUSH32 0xFFFFFFFFFFFFFFFFFFFFFFFFFFFFFFFFFFFFFFFFFFFFFFFFFFFFFFFFFFFFFFFF PUSH1 0x7 SSTORE CALLVALUE DUP1 ISZERO PUSH3 0x35 JUMPI PUSH1 0x0 DUP1 REVERT JUMPDEST POP PUSH1 0x40 MLOAD PUSH3 0x1689 CODESIZE SUB DUP1 PUSH3 0x1689 DUP4 CODECOPY DUP2 ADD DUP1 PUSH1 0x40 MSTORE PUSH3 0x5B SWAP2 SWAP1 DUP2 ADD SWAP1 PUSH3 0x27A JUMP JUMPDEST ADDRESS PUSH1 0x0 DUP1 PUSH2 0x100 EXP DUP2 SLOAD DUP2 PUSH20 0xFFFFFFFFFFFFFFFFFFFFFFFFFFFFFFFFFFFFFFFF MUL NOT AND SWAP1 DUP4 PUSH20 0xFFFFFFFFFFFFFFFFFFFFFFFFFFFFFFFFFFFFFFFF AND MUL OR SWAP1 SSTORE POP DUP6 PUSH1 0x1 PUSH1 0x0 PUSH2 0x100 EXP DUP2 SLOAD DUP2 PUSH20 0xFFFFFFFFFFFFFFFFFFFFFFFFFFFFFFFFFFFFFFFF MUL NOT AND SWAP1 DUP4 PUSH20 0xFFFFFFFFFFFFFFFFFFFFFFFFFFFFFFFFFFFFFFFF AND MUL OR SWAP1 SSTORE POP DUP5 PUSH1 0x2 SWAP1 DUP1 MLOAD SWAP1 PUSH1 0x20 ADD SWAP1 PUSH3 0xF4 SWAP3 SWAP2 SWAP1 PUSH3 0x141 JUMP JUMPDEST POP DUP2 PUSH1 0x4 SWAP1 DUP1 MLOAD SWAP1 PUSH1 0x20 ADD SWAP1 PUSH3 0x10D SWAP3 SWAP2 SWAP1 PUSH3 0x141 JUMP JUMPDEST POP DUP1 PUSH1 0x5 SWAP1 DUP1 MLOAD SWAP1 PUSH1 0x20 ADD SWAP1 PUSH3 0x126 SWAP3 SWAP2 SWAP1 PUSH3 0x141 JUMP JUMPDEST POP DUP4 PUSH1 0x3 DUP2 SWAP1 SSTORE POP DUP3 PUSH1 0x6 DUP2 SWAP1 SSTORE POP POP POP POP POP POP POP PUSH3 0x42A JUMP JUMPDEST DUP3 DUP1 SLOAD PUSH1 0x1 DUP2 PUSH1 0x1 AND ISZERO PUSH2 0x100 MUL SUB AND PUSH1 0x2 SWAP1 DIV SWAP1 PUSH1 0x0 MSTORE PUSH1 0x20 PUSH1 0x0 KECCAK256 SWAP1 PUSH1 0x1F ADD PUSH1 0x20 SWAP1 DIV DUP2 ADD SWAP3 DUP3 PUSH1 0x1F LT PUSH3 0x184 JUMPI DUP1 MLOAD PUSH1 0xFF NOT AND DUP4 DUP1 ADD OR DUP6 SSTORE PUSH3 0x1B5 JUMP JUMPDEST DUP3 DUP1 ADD PUSH1 0x1 ADD DUP6 SSTORE DUP3 ISZERO PUSH3 0x1B5 JUMPI SWAP2 DUP3 ADD JUMPDEST DUP3 DUP2 GT ISZERO PUSH3 0x1B4 JUMPI DUP3 MLOAD DUP3 SSTORE SWAP2 PUSH1 0x20 ADD SWAP2 SWAP1 PUSH1 0x1 ADD SWAP1 PUSH3 0x197 JUMP JUMPDEST JUMPDEST POP SWAP1 POP PUSH3 0x1C4 SWAP2 SWAP1 PUSH3 0x1C8 JUMP JUMPDEST POP SWAP1 JUMP JUMPDEST PUSH3 0x1ED SWAP2 SWAP1 JUMPDEST DUP1 DUP3 GT ISZERO PUSH3 0x1E9 JUMPI PUSH1 0x0 DUP2 PUSH1 0x0 SWAP1 SSTORE POP PUSH1 0x1 ADD PUSH3 0x1CF JUMP JUMPDEST POP SWAP1 JUMP JUMPDEST SWAP1 JUMP JUMPDEST PUSH1 0x0 PUSH3 0x1FE DUP3 MLOAD PUSH3 0x3D6 JUMP JUMPDEST SWAP1 POP SWAP3 SWAP2 POP POP JUMP JUMPDEST PUSH1 0x0 PUSH3 0x214 DUP3 MLOAD PUSH3 0x3EA JUMP JUMPDEST SWAP1 POP SWAP3 SWAP2 POP POP JUMP JUMPDEST PUSH1 0x0 DUP3 PUSH1 0x1F DUP4 ADD SLT ISZERO ISZERO PUSH3 0x230 JUMPI PUSH1 0x0 DUP1 REVERT JUMPDEST DUP2 MLOAD PUSH3 0x247 PUSH3 0x241 DUP3 PUSH3 0x389 JUMP JUMPDEST PUSH3 0x35B JUMP JUMPDEST SWAP2 POP DUP1 DUP3 MSTORE PUSH1 0x20 DUP4 ADD PUSH1 0x20 DUP4 ADD DUP6 DUP4 DUP4 ADD GT ISZERO PUSH3 0x264 JUMPI PUSH1 0x0 DUP1 REVERT JUMPDEST PUSH3 0x271 DUP4 DUP3 DUP5 PUSH3 0x3F4 JUMP JUMPDEST POP POP POP SWAP3 SWAP2 POP POP JUMP JUMPDEST PUSH1 0x0 DUP1 PUSH1 0x0 DUP1 PUSH1 0x0 DUP1 PUSH1 0xC0 DUP8 DUP10 SUB SLT ISZERO PUSH3 0x294 JUMPI PUSH1 0x0 DUP1 REVERT JUMPDEST PUSH1 0x0 PUSH3 0x2A4 DUP10 DUP3 DUP11 ADD PUSH3 0x1F0 JUMP JUMPDEST SWAP7 POP POP PUSH1 0x20 DUP8 ADD MLOAD PUSH8 0xFFFFFFFFFFFFFFFF DUP2 GT ISZERO PUSH3 0x2C2 JUMPI PUSH1 0x0 DUP1 REVERT JUMPDEST PUSH3 0x2D0 DUP10 DUP3 DUP11 ADD PUSH3 0x21C JUMP JUMPDEST SWAP6 POP POP PUSH1 0x40 PUSH3 0x2E3 DUP10 DUP3 DUP11 ADD PUSH3 0x206 JUMP JUMPDEST SWAP5 POP POP PUSH1 0x60 PUSH3 0x2F6 DUP10 DUP3 DUP11 ADD PUSH3 0x206 JUMP JUMPDEST SWAP4 POP POP PUSH1 0x80 DUP8 ADD MLOAD PUSH8 0xFFFFFFFFFFFFFFFF DUP2 GT ISZERO PUSH3 0x314 JUMPI PUSH1 0x0 DUP1 REVERT JUMPDEST PUSH3 0x322 DUP10 DUP3 DUP11 ADD PUSH3 0x21C JUMP JUMPDEST SWAP3 POP POP PUSH1 0xA0 DUP8 ADD MLOAD PUSH8 0xFFFFFFFFFFFFFFFF DUP2 GT ISZERO PUSH3 0x340 JUMPI PUSH1 0x0 DUP1 REVERT JUMPDEST PUSH3 0x34E DUP10 DUP3 DUP11 ADD PUSH3 0x21C JUMP JUMPDEST SWAP2 POP POP SWAP3 SWAP6 POP SWAP3 SWAP6 POP SWAP3 SWAP6 JUMP JUMPDEST PUSH1 0x0 PUSH1 0x40 MLOAD SWAP1 POP DUP2 DUP2 ADD DUP2 DUP2 LT PUSH8 0xFFFFFFFFFFFFFFFF DUP3 GT OR ISZERO PUSH3 0x37F JUMPI PUSH1 0x0 DUP1 REVERT JUMPDEST DUP1 PUSH1 0x40 MSTORE POP SWAP2 SWAP1 POP JUMP JUMPDEST PUSH1 0x0 PUSH8 0xFFFFFFFFFFFFFFFF DUP3 GT ISZERO PUSH3 0x3A1 JUMPI PUSH1 0x0 DUP1 REVERT JUMPDEST PUSH1 0x1F NOT PUSH1 0x1F DUP4 ADD AND SWAP1 POP PUSH1 0x20 DUP2 ADD SWAP1 POP SWAP2 SWAP1 POP JUMP JUMPDEST PUSH1 0x0 PUSH20 0xFFFFFFFFFFFFFFFFFFFFFFFFFFFFFFFFFFFFFFFF DUP3 AND SWAP1 POP SWAP2 SWAP1 POP JUMP JUMPDEST PUSH1 0x0 PUSH3 0x3E3 DUP3 PUSH3 0x3B6 JUMP JUMPDEST SWAP1 POP SWAP2 SWAP1 POP JUMP JUMPDEST PUSH1 0x0 DUP2 SWAP1 POP SWAP2 SWAP1 POP JUMP JUMPDEST PUSH1 0x0 JUMPDEST DUP4 DUP2 LT ISZERO PUSH3 0x414 JUMPI DUP1 DUP3 ADD MLOAD DUP2 DUP5 ADD MSTORE PUSH1 0x20 DUP2 ADD SWAP1 POP PUSH3 0x3F7 JUMP JUMPDEST DUP4 DUP2 GT ISZERO PUSH3 0x424 JUMPI PUSH1 0x0 DUP5 DUP5 ADD MSTORE JUMPDEST POP POP POP POP JUMP JUMPDEST PUSH2 0x124F DUP1 PUSH3 0x43A PUSH1 0x0 CODECOPY PUSH1 0x0 RETURN INVALID PUSH1 0x80 PUSH1 0x40 MSTORE CALLVALUE DUP1 ISZERO PUSH2 0x10 JUMPI PUSH1 0x0 DUP1 REVERT JUMPDEST POP PUSH1 0x4 CALLDATASIZE LT PUSH2 0x5E JUMPI PUSH1 0x0 CALLDATALOAD PUSH29 0x100000000000000000000000000000000000000000000000000000000 SWAP1 DIV DUP1 PUSH4 0x3BC5DE30 EQ PUSH2 0x63 JUMPI DUP1 PUSH4 0x72102D18 EQ PUSH2 0x88 JUMPI DUP1 PUSH4 0x83BFFB88 EQ PUSH2 0xA4 JUMPI JUMPDEST PUSH1 0x0 DUP1 REVERT JUMPDEST PUSH2 0x6B PUSH2 0xC0 JUMP JUMPDEST PUSH1 0x40 MLOAD PUSH2 0x7F SWAP9 SWAP8 SWAP7 SWAP6 SWAP5 SWAP4 SWAP3 SWAP2 SWAP1 PUSH2 0xF87 JUMP JUMPDEST PUSH1 0x40 MLOAD DUP1 SWAP2 SUB SWAP1 RETURN JUMPDEST PUSH2 0xA2 PUSH1 0x4 DUP1 CALLDATASIZE SUB PUSH2 0x9D SWAP2 SWAP1 DUP2 ADD SWAP1 PUSH2 0xD3A JUMP JUMPDEST PUSH2 0x661 JUMP JUMPDEST STOP JUMPDEST PUSH2 0xBE PUSH1 0x4 DUP1 CALLDATASIZE SUB PUSH2 0xB9 SWAP2 SWAP1 DUP2 ADD SWAP1 PUSH2 0xCA3 JUMP JUMPDEST PUSH2 0x7B4 JUMP JUMPDEST STOP JUMPDEST PUSH1 0x0 DUP1 PUSH1 0x60 PUSH1 0x0 PUSH1 0x60 DUP1 PUSH1 0x0 PUSH1 0x60 PUSH1 0x0 DUP1 SWAP1 SLOAD SWAP1 PUSH2 0x100 EXP SWAP1 DIV PUSH20 0xFFFFFFFFFFFFFFFFFFFFFFFFFFFFFFFFFFFFFFFF AND PUSH1 0x1 PUSH1 0x0 SWAP1 SLOAD SWAP1 PUSH2 0x100 EXP SWAP1 DIV PUSH20 0xFFFFFFFFFFFFFFFFFFFFFFFFFFFFFFFFFFFFFFFF AND PUSH1 0x2 PUSH1 0x3 SLOAD PUSH1 0x4 PUSH1 0x5 PUSH1 0x6 SLOAD PUSH1 0x8 DUP6 DUP1 SLOAD PUSH1 0x1 DUP2 PUSH1 0x1 AND ISZERO PUSH2 0x100 MUL SUB AND PUSH1 0x2 SWAP1 DIV DUP1 PUSH1 0x1F ADD PUSH1 0x20 DUP1 SWAP2 DIV MUL PUSH1 0x20 ADD PUSH1 0x40 MLOAD SWAP1 DUP2 ADD PUSH1 0x40 MSTORE DUP1 SWAP3 SWAP2 SWAP1 DUP2 DUP2 MSTORE PUSH1 0x20 ADD DUP3 DUP1 SLOAD PUSH1 0x1 DUP2 PUSH1 0x1 AND ISZERO PUSH2 0x100 MUL SUB AND PUSH1 0x2 SWAP1 DIV DUP1 ISZERO PUSH2 0x1B6 JUMPI DUP1 PUSH1 0x1F LT PUSH2 0x18B JUMPI PUSH2 0x100 DUP1 DUP4 SLOAD DIV MUL DUP4 MSTORE SWAP2 PUSH1 0x20 ADD SWAP2 PUSH2 0x1B6 JUMP JUMPDEST DUP3 ADD SWAP2 SWAP1 PUSH1 0x0 MSTORE PUSH1 0x20 PUSH1 0x0 KECCAK256 SWAP1 JUMPDEST DUP2 SLOAD DUP2 MSTORE SWAP1 PUSH1 0x1 ADD SWAP1 PUSH1 0x20 ADD DUP1 DUP4 GT PUSH2 0x199 JUMPI DUP3 SWAP1 SUB PUSH1 0x1F AND DUP3 ADD SWAP2 JUMPDEST POP POP POP POP POP SWAP6 POP DUP4 DUP1 SLOAD PUSH1 0x1 DUP2 PUSH1 0x1 AND ISZERO PUSH2 0x100 MUL SUB AND PUSH1 0x2 SWAP1 DIV DUP1 PUSH1 0x1F ADD PUSH1 0x20 DUP1 SWAP2 DIV MUL PUSH1 0x20 ADD PUSH1 0x40 MLOAD SWAP1 DUP2 ADD PUSH1 0x40 MSTORE DUP1 SWAP3 SWAP2 SWAP1 DUP2 DUP2 MSTORE PUSH1 0x20 ADD DUP3 DUP1 SLOAD PUSH1 0x1 DUP2 PUSH1 0x1 AND ISZERO PUSH2 0x100 MUL SUB AND PUSH1 0x2 SWAP1 DIV DUP1 ISZERO PUSH2 0x252 JUMPI DUP1 PUSH1 0x1F LT PUSH2 0x227 JUMPI PUSH2 0x100 DUP1 DUP4 SLOAD DIV MUL DUP4 MSTORE SWAP2 PUSH1 0x20 ADD SWAP2 PUSH2 0x252 JUMP JUMPDEST DUP3 ADD SWAP2 SWAP1 PUSH1 0x0 MSTORE PUSH1 0x20 PUSH1 0x0 KECCAK256 SWAP1 JUMPDEST DUP2 SLOAD DUP2 MSTORE SWAP1 PUSH1 0x1 ADD SWAP1 PUSH1 0x20 ADD DUP1 DUP4 GT PUSH2 0x235 JUMPI DUP3 SWAP1 SUB PUSH1 0x1F AND DUP3 ADD SWAP2 JUMPDEST POP POP POP POP POP SWAP4 POP DUP3 DUP1 SLOAD PUSH1 0x1 DUP2 PUSH1 0x1 AND ISZERO PUSH2 0x100 MUL SUB AND PUSH1 0x2 SWAP1 DIV DUP1 PUSH1 0x1F ADD PUSH1 0x20 DUP1 SWAP2 DIV MUL PUSH1 0x20 ADD PUSH1 0x40 MLOAD SWAP1 DUP2 ADD PUSH1 0x40 MSTORE DUP1 SWAP3 SWAP2 SWAP1 DUP2 DUP2 MSTORE PUSH1 0x20 ADD DUP3 DUP1 SLOAD PUSH1 0x1 DUP2 PUSH1 0x1 AND ISZERO PUSH2 0x100 MUL SUB AND PUSH1 0x2 SWAP1 DIV DUP1 ISZERO PUSH2 0x2EE JUMPI DUP1 PUSH1 0x1F LT PUSH2 0x2C3 JUMPI PUSH2 0x100 DUP1 DUP4 SLOAD DIV MUL DUP4 MSTORE SWAP2 PUSH1 0x20 ADD SWAP2 PUSH2 0x2EE JUMP JUMPDEST DUP3 ADD SWAP2 SWAP1 PUSH1 0x0 MSTORE PUSH1 0x20 PUSH1 0x0 KECCAK256 SWAP1 JUMPDEST DUP2 SLOAD DUP2 MSTORE SWAP1 PUSH1 0x1 ADD SWAP1 PUSH1 0x20 ADD DUP1 DUP4 GT PUSH2 0x2D1 JUMPI DUP3 SWAP1 SUB PUSH1 0x1F AND DUP3 ADD SWAP2 JUMPDEST POP POP POP POP POP SWAP3 POP DUP1 DUP1 SLOAD DUP1 PUSH1 0x20 MUL PUSH1 0x20 ADD PUSH1 0x40 MLOAD SWAP1 DUP2 ADD PUSH1 0x40 MSTORE DUP1 SWAP3 SWAP2 SWAP1 DUP2 DUP2 MSTORE PUSH1 0x20 ADD PUSH1 0x0 SWAP1 JUMPDEST DUP3 DUP3 LT ISZERO PUSH2 0x641 JUMPI DUP4 DUP3 SWAP1 PUSH1 0x0 MSTORE PUSH1 0x20 PUSH1 0x0 KECCAK256 SWAP1 PUSH1 0x9 MUL ADD PUSH2 0x140 PUSH1 0x40 MLOAD SWAP1 DUP2 ADD PUSH1 0x40 MSTORE SWAP1 DUP2 PUSH1 0x0 DUP3 ADD PUSH1 0x0 SWAP1 SLOAD SWAP1 PUSH2 0x100 EXP SWAP1 DIV PUSH20 0xFFFFFFFFFFFFFFFFFFFFFFFFFFFFFFFFFFFFFFFF AND PUSH20 0xFFFFFFFFFFFFFFFFFFFFFFFFFFFFFFFFFFFFFFFF AND PUSH20 0xFFFFFFFFFFFFFFFFFFFFFFFFFFFFFFFFFFFFFFFF AND DUP2 MSTORE PUSH1 0x20 ADD PUSH1 0x1 DUP3 ADD PUSH1 0x0 SWAP1 SLOAD SWAP1 PUSH2 0x100 EXP SWAP1 DIV PUSH20 0xFFFFFFFFFFFFFFFFFFFFFFFFFFFFFFFFFFFFFFFF AND PUSH20 0xFFFFFFFFFFFFFFFFFFFFFFFFFFFFFFFFFFFFFFFF AND PUSH20 0xFFFFFFFFFFFFFFFFFFFFFFFFFFFFFFFFFFFFFFFF AND DUP2 MSTORE PUSH1 0x20 ADD PUSH1 0x2 DUP3 ADD DUP1 SLOAD PUSH1 0x1 DUP2 PUSH1 0x1 AND ISZERO PUSH2 0x100 MUL SUB AND PUSH1 0x2 SWAP1 DIV DUP1 PUSH1 0x1F ADD PUSH1 0x20 DUP1 SWAP2 DIV MUL PUSH1 0x20 ADD PUSH1 0x40 MLOAD SWAP1 DUP2 ADD PUSH1 0x40 MSTORE DUP1 SWAP3 SWAP2 SWAP1 DUP2 DUP2 MSTORE PUSH1 0x20 ADD DUP3 DUP1 SLOAD PUSH1 0x1 DUP2 PUSH1 0x1 AND ISZERO PUSH2 0x100 MUL SUB AND PUSH1 0x2 SWAP1 DIV DUP1 ISZERO PUSH2 0x480 JUMPI DUP1 PUSH1 0x1F LT PUSH2 0x455 JUMPI PUSH2 0x100 DUP1 DUP4 SLOAD DIV MUL DUP4 MSTORE SWAP2 PUSH1 0x20 ADD SWAP2 PUSH2 0x480 JUMP JUMPDEST DUP3 ADD SWAP2 SWAP1 PUSH1 0x0 MSTORE PUSH1 0x20 PUSH1 0x0 KECCAK256 SWAP1 JUMPDEST DUP2 SLOAD DUP2 MSTORE SWAP1 PUSH1 0x1 ADD SWAP1 PUSH1 0x20 ADD DUP1 DUP4 GT PUSH2 0x463 JUMPI DUP3 SWAP1 SUB PUSH1 0x1F AND DUP3 ADD SWAP2 JUMPDEST POP POP POP POP POP DUP2 MSTORE PUSH1 0x20 ADD PUSH1 0x3 DUP3 ADD DUP1 SLOAD PUSH1 0x1 DUP2 PUSH1 0x1 AND ISZERO PUSH2 0x100 MUL SUB AND PUSH1 0x2 SWAP1 DIV DUP1 PUSH1 0x1F ADD PUSH1 0x20 DUP1 SWAP2 DIV MUL PUSH1 0x20 ADD PUSH1 0x40 MLOAD SWAP1 DUP2 ADD PUSH1 0x40 MSTORE DUP1 SWAP3 SWAP2 SWAP1 DUP2 DUP2 MSTORE PUSH1 0x20 ADD DUP3 DUP1 SLOAD PUSH1 0x1 DUP2 PUSH1 0x1 AND ISZERO PUSH2 0x100 MUL SUB AND PUSH1 0x2 SWAP1 DIV DUP1 ISZERO PUSH2 0x522 JUMPI DUP1 PUSH1 0x1F LT PUSH2 0x4F7 JUMPI PUSH2 0x100 DUP1 DUP4 SLOAD DIV MUL DUP4 MSTORE SWAP2 PUSH1 0x20 ADD SWAP2 PUSH2 0x522 JUMP JUMPDEST DUP3 ADD SWAP2 SWAP1 PUSH1 0x0 MSTORE PUSH1 0x20 PUSH1 0x0 KECCAK256 SWAP1 JUMPDEST DUP2 SLOAD DUP2 MSTORE SWAP1 PUSH1 0x1 ADD SWAP1 PUSH1 0x20 ADD DUP1 DUP4 GT PUSH2 0x505 JUMPI DUP3 SWAP1 SUB PUSH1 0x1F AND DUP3 ADD SWAP2 JUMPDEST POP POP POP POP POP DUP2 MSTORE PUSH1 0x20 ADD PUSH1 0x4 DUP3 ADD PUSH1 0x0 SWAP1 SLOAD SWAP1 PUSH2 0x100 EXP SWAP1 DIV PUSH1 0xFF AND ISZERO ISZERO ISZERO ISZERO DUP2 MSTORE PUSH1 0x20 ADD PUSH1 0x4 DUP3 ADD PUSH1 0x1 SWAP1 SLOAD SWAP1 PUSH2 0x100 EXP SWAP1 DIV PUSH1 0xFF AND ISZERO ISZERO ISZERO ISZERO DUP2 MSTORE PUSH1 0x20 ADD PUSH1 0x5 DUP3 ADD DUP1 SLOAD PUSH1 0x1 DUP2 PUSH1 0x1 AND ISZERO PUSH2 0x100 MUL SUB AND PUSH1 0x2 SWAP1 DIV DUP1 PUSH1 0x1F ADD PUSH1 0x20 DUP1 SWAP2 DIV MUL PUSH1 0x20 ADD PUSH1 0x40 MLOAD SWAP1 DUP2 ADD PUSH1 0x40 MSTORE DUP1 SWAP3 SWAP2 SWAP1 DUP2 DUP2 MSTORE PUSH1 0x20 ADD DUP3 DUP1 SLOAD PUSH1 0x1 DUP2 PUSH1 0x1 AND ISZERO PUSH2 0x100 MUL SUB AND PUSH1 0x2 SWAP1 DIV DUP1 ISZERO PUSH2 0x5FA JUMPI DUP1 PUSH1 0x1F LT PUSH2 0x5CF JUMPI PUSH2 0x100 DUP1 DUP4 SLOAD DIV MUL DUP4 MSTORE SWAP2 PUSH1 0x20 ADD SWAP2 PUSH2 0x5FA JUMP JUMPDEST DUP3 ADD SWAP2 SWAP1 PUSH1 0x0 MSTORE PUSH1 0x20 PUSH1 0x0 KECCAK256 SWAP1 JUMPDEST DUP2 SLOAD DUP2 MSTORE SWAP1 PUSH1 0x1 ADD SWAP1 PUSH1 0x20 ADD DUP1 DUP4 GT PUSH2 0x5DD JUMPI DUP3 SWAP1 SUB PUSH1 0x1F AND DUP3 ADD SWAP2 JUMPDEST POP POP POP POP POP DUP2 MSTORE PUSH1 0x20 ADD PUSH1 0x6 DUP3 ADD SLOAD DUP2 MSTORE PUSH1 0x20 ADD PUSH1 0x7 DUP3 ADD PUSH1 0x0 SWAP1 SLOAD SWAP1 PUSH2 0x100 EXP SWAP1 DIV PUSH1 0xFF AND ISZERO ISZERO ISZERO ISZERO DUP2 MSTORE PUSH1 0x20 ADD PUSH1 0x8 DUP3 ADD SLOAD DUP2 MSTORE POP POP DUP2 MSTORE PUSH1 0x20 ADD SWAP1 PUSH1 0x1 ADD SWAP1 PUSH2 0x316 JUMP JUMPDEST POP POP POP POP SWAP1 POP SWAP8 POP SWAP8 POP SWAP8 POP SWAP8 POP SWAP8 POP SWAP8 POP SWAP8 POP SWAP8 POP SWAP1 SWAP2 SWAP3 SWAP4 SWAP5 SWAP6 SWAP7 SWAP8 JUMP JUMPDEST PUSH1 0x1 PUSH1 0x0 SWAP1 SLOAD SWAP1 PUSH2 0x100 EXP SWAP1 DIV PUSH20 0xFFFFFFFFFFFFFFFFFFFFFFFFFFFFFFFFFFFFFFFF AND PUSH20 0xFFFFFFFFFFFFFFFFFFFFFFFFFFFFFFFFFFFFFFFF AND DUP3 PUSH20 0xFFFFFFFFFFFFFFFFFFFFFFFFFFFFFFFFFFFFFFFF AND EQ ISZERO PUSH2 0x7AF JUMPI PUSH1 0x1 ISZERO ISZERO DUP2 ISZERO ISZERO EQ ISZERO PUSH2 0x73B JUMPI PUSH1 0x1 PUSH1 0x8 DUP5 DUP2 SLOAD DUP2 LT ISZERO ISZERO PUSH2 0x6D5 JUMPI INVALID JUMPDEST SWAP1 PUSH1 0x0 MSTORE PUSH1 0x20 PUSH1 0x0 KECCAK256 SWAP1 PUSH1 0x9 MUL ADD PUSH1 0x7 ADD PUSH1 0x0 PUSH2 0x100 EXP DUP2 SLOAD DUP2 PUSH1 0xFF MUL NOT AND SWAP1 DUP4 ISZERO ISZERO MUL OR SWAP1 SSTORE POP PUSH1 0x1 PUSH1 0x8 DUP5 DUP2 SLOAD DUP2 LT ISZERO ISZERO PUSH2 0x70E JUMPI INVALID JUMPDEST SWAP1 PUSH1 0x0 MSTORE PUSH1 0x20 PUSH1 0x0 KECCAK256 SWAP1 PUSH1 0x9 MUL ADD PUSH1 0x4 ADD PUSH1 0x1 PUSH2 0x100 EXP DUP2 SLOAD DUP2 PUSH1 0xFF MUL NOT AND SWAP1 DUP4 ISZERO ISZERO MUL OR SWAP1 SSTORE POP PUSH2 0x7AE JUMP JUMPDEST PUSH1 0x1 PUSH1 0x8 DUP5 DUP2 SLOAD DUP2 LT ISZERO ISZERO PUSH2 0x74C JUMPI INVALID JUMPDEST SWAP1 PUSH1 0x0 MSTORE PUSH1 0x20 PUSH1 0x0 KECCAK256 SWAP1 PUSH1 0x9 MUL ADD PUSH1 0x7 ADD PUSH1 0x0 PUSH2 0x100 EXP DUP2 SLOAD DUP2 PUSH1 0xFF MUL NOT AND SWAP1 DUP4 ISZERO ISZERO MUL OR SWAP1 SSTORE POP PUSH1 0x0 PUSH1 0x8 DUP5 DUP2 SLOAD DUP2 LT ISZERO ISZERO PUSH2 0x785 JUMPI INVALID JUMPDEST SWAP1 PUSH1 0x0 MSTORE PUSH1 0x20 PUSH1 0x0 KECCAK256 SWAP1 PUSH1 0x9 MUL ADD PUSH1 0x4 ADD PUSH1 0x1 PUSH2 0x100 EXP DUP2 SLOAD DUP2 PUSH1 0xFF MUL NOT AND SWAP1 DUP4 ISZERO ISZERO MUL OR SWAP1 SSTORE POP JUMPDEST JUMPDEST POP POP POP JUMP JUMPDEST PUSH2 0x7BC PUSH2 0xAE6 JUMP JUMPDEST PUSH2 0x140 PUSH1 0x40 MLOAD SWAP1 DUP2 ADD PUSH1 0x40 MSTORE DUP1 PUSH1 0x1 PUSH1 0x0 SWAP1 SLOAD SWAP1 PUSH2 0x100 EXP SWAP1 DIV PUSH20 0xFFFFFFFFFFFFFFFFFFFFFFFFFFFFFFFFFFFFFFFF AND PUSH20 0xFFFFFFFFFFFFFFFFFFFFFFFFFFFFFFFFFFFFFFFF AND DUP2 MSTORE PUSH1 0x20 ADD ADDRESS PUSH20 0xFFFFFFFFFFFFFFFFFFFFFFFFFFFFFFFFFFFFFFFF AND DUP2 MSTORE PUSH1 0x20 ADD DUP5 DUP2 MSTORE PUSH1 0x20 ADD DUP4 DUP2 MSTORE PUSH1 0x20 ADD PUSH1 0x1 ISZERO ISZERO DUP2 MSTORE PUSH1 0x20 ADD PUSH1 0x0 ISZERO ISZERO DUP2 MSTORE PUSH1 0x20 ADD DUP6 DUP2 MSTORE PUSH1 0x20 ADD PUSH1 0x1 PUSH1 0x7 SLOAD ADD DUP2 MSTORE PUSH1 0x20 ADD PUSH1 0x0 ISZERO ISZERO DUP2 MSTORE PUSH1 0x20 ADD PUSH1 0x0 DUP2 MSTORE POP SWAP1 POP PUSH1 0x8 DUP2 SWAP1 DUP1 PUSH1 0x1 DUP2 SLOAD ADD DUP1 DUP3 SSTORE DUP1 SWAP2 POP POP SWAP1 PUSH1 0x1 DUP3 SUB SWAP1 PUSH1 0x0 MSTORE PUSH1 0x20 PUSH1 0x0 KECCAK256 SWAP1 PUSH1 0x9 MUL ADD PUSH1 0x0 SWAP1 SWAP2 SWAP3 SWAP1 SWAP2 SWAP1 SWAP2 POP PUSH1 0x0 DUP3 ADD MLOAD DUP2 PUSH1 0x0 ADD PUSH1 0x0 PUSH2 0x100 EXP DUP2 SLOAD DUP2 PUSH20 0xFFFFFFFFFFFFFFFFFFFFFFFFFFFFFFFFFFFFFFFF MUL NOT AND SWAP1 DUP4 PUSH20 0xFFFFFFFFFFFFFFFFFFFFFFFFFFFFFFFFFFFFFFFF AND MUL OR SWAP1 SSTORE POP PUSH1 0x20 DUP3 ADD MLOAD DUP2 PUSH1 0x1 ADD PUSH1 0x0 PUSH2 0x100 EXP DUP2 SLOAD DUP2 PUSH20 0xFFFFFFFFFFFFFFFFFFFFFFFFFFFFFFFFFFFFFFFF MUL NOT AND SWAP1 DUP4 PUSH20 0xFFFFFFFFFFFFFFFFFFFFFFFFFFFFFFFFFFFFFFFF AND MUL OR SWAP1 SSTORE POP PUSH1 0x40 DUP3 ADD MLOAD DUP2 PUSH1 0x2 ADD SWAP1 DUP1 MLOAD SWAP1 PUSH1 0x20 ADD SWAP1 PUSH2 0x93A SWAP3 SWAP2 SWAP1 PUSH2 0xB6C JUMP JUMPDEST POP PUSH1 0x60 DUP3 ADD MLOAD DUP2 PUSH1 0x3 ADD SWAP1 DUP1 MLOAD SWAP1 PUSH1 0x20 ADD SWAP1 PUSH2 0x957 SWAP3 SWAP2 SWAP1 PUSH2 0xB6C JUMP JUMPDEST POP PUSH1 0x80 DUP3 ADD MLOAD DUP2 PUSH1 0x4 ADD PUSH1 0x0 PUSH2 0x100 EXP DUP2 SLOAD DUP2 PUSH1 0xFF MUL NOT AND SWAP1 DUP4 ISZERO ISZERO MUL OR SWAP1 SSTORE POP PUSH1 0xA0 DUP3 ADD MLOAD DUP2 PUSH1 0x4 ADD PUSH1 0x1 PUSH2 0x100 EXP DUP2 SLOAD DUP2 PUSH1 0xFF MUL NOT AND SWAP1 DUP4 ISZERO ISZERO MUL OR SWAP1 SSTORE POP PUSH1 0xC0 DUP3 ADD MLOAD DUP2 PUSH1 0x5 ADD SWAP1 DUP1 MLOAD SWAP1 PUSH1 0x20 ADD SWAP1 PUSH2 0x9B4 SWAP3 SWAP2 SWAP1 PUSH2 0xB6C JUMP JUMPDEST POP PUSH1 0xE0 DUP3 ADD MLOAD DUP2 PUSH1 0x6 ADD SSTORE PUSH2 0x100 DUP3 ADD MLOAD DUP2 PUSH1 0x7 ADD PUSH1 0x0 PUSH2 0x100 EXP DUP2 SLOAD DUP2 PUSH1 0xFF MUL NOT AND SWAP1 DUP4 ISZERO ISZERO MUL OR SWAP1 SSTORE POP PUSH2 0x120 DUP3 ADD MLOAD DUP2 PUSH1 0x8 ADD SSTORE POP POP POP PUSH1 0x0 PUSH1 0x1 PUSH1 0x0 SWAP1 SLOAD SWAP1 PUSH2 0x100 EXP SWAP1 DIV PUSH20 0xFFFFFFFFFFFFFFFFFFFFFFFFFFFFFFFFFFFFFFFF AND SWAP1 POP DUP1 PUSH20 0xFFFFFFFFFFFFFFFFFFFFFFFFFFFFFFFFFFFFFFFF AND PUSH4 0x9B6B309A PUSH1 0x1 PUSH1 0x0 SWAP1 SLOAD SWAP1 PUSH2 0x100 EXP SWAP1 DIV PUSH20 0xFFFFFFFFFFFFFFFFFFFFFFFFFFFFFFFFFFFFFFFF AND ADDRESS DUP8 DUP8 DUP11 PUSH1 0x1 PUSH1 0x0 PUSH1 0x1 PUSH1 0x7 SLOAD ADD PUSH1 0x40 MLOAD DUP10 PUSH4 0xFFFFFFFF AND PUSH29 0x100000000000000000000000000000000000000000000000000000000 MUL DUP2 MSTORE PUSH1 0x4 ADD PUSH2 0xAA1 SWAP9 SWAP8 SWAP7 SWAP6 SWAP5 SWAP4 SWAP3 SWAP2 SWAP1 PUSH2 0x1021 JUMP JUMPDEST PUSH1 0x0 PUSH1 0x40 MLOAD DUP1 DUP4 SUB DUP2 PUSH1 0x0 DUP8 DUP1 EXTCODESIZE ISZERO DUP1 ISZERO PUSH2 0xABB JUMPI PUSH1 0x0 DUP1 REVERT JUMPDEST POP GAS CALL ISZERO DUP1 ISZERO PUSH2 0xACF JUMPI RETURNDATASIZE PUSH1 0x0 DUP1 RETURNDATACOPY RETURNDATASIZE PUSH1 0x0 REVERT JUMPDEST POP POP POP POP PUSH1 0x1 PUSH1 0x7 SLOAD ADD PUSH1 0x7 DUP2 SWAP1 SSTORE POP POP POP POP POP POP JUMP JUMPDEST PUSH2 0x140 PUSH1 0x40 MLOAD SWAP1 DUP2 ADD PUSH1 0x40 MSTORE DUP1 PUSH1 0x0 PUSH20 0xFFFFFFFFFFFFFFFFFFFFFFFFFFFFFFFFFFFFFFFF AND DUP2 MSTORE PUSH1 0x20 ADD PUSH1 0x0 PUSH20 0xFFFFFFFFFFFFFFFFFFFFFFFFFFFFFFFFFFFFFFFF AND DUP2 MSTORE PUSH1 0x20 ADD PUSH1 0x60 DUP2 MSTORE PUSH1 0x20 ADD PUSH1 0x60 DUP2 MSTORE PUSH1 0x20 ADD PUSH1 0x0 ISZERO ISZERO DUP2 MSTORE PUSH1 0x20 ADD PUSH1 0x0 ISZERO ISZERO DUP2 MSTORE PUSH1 0x20 ADD PUSH1 0x60 DUP2 MSTORE PUSH1 0x20 ADD PUSH1 0x0 DUP2 MSTORE PUSH1 0x20 ADD PUSH1 0x0 ISZERO ISZERO DUP2 MSTORE PUSH1 0x20 ADD PUSH1 0x0 DUP2 MSTORE POP SWAP1 JUMP JUMPDEST DUP3 DUP1 SLOAD PUSH1 0x1 DUP2 PUSH1 0x1 AND ISZERO PUSH2 0x100 MUL SUB AND PUSH1 0x2 SWAP1 DIV SWAP1 PUSH1 0x0 MSTORE PUSH1 0x20 PUSH1 0x0 KECCAK256 SWAP1 PUSH1 0x1F ADD PUSH1 0x20 SWAP1 DIV DUP2 ADD SWAP3 DUP3 PUSH1 0x1F LT PUSH2 0xBAD JUMPI DUP1 MLOAD PUSH1 0xFF NOT AND DUP4 DUP1 ADD OR DUP6 SSTORE PUSH2 0xBDB JUMP JUMPDEST DUP3 DUP1 ADD PUSH1 0x1 ADD DUP6 SSTORE DUP3 ISZERO PUSH2 0xBDB JUMPI SWAP2 DUP3 ADD JUMPDEST DUP3 DUP2 GT ISZERO PUSH2 0xBDA JUMPI DUP3 MLOAD DUP3 SSTORE SWAP2 PUSH1 0x20 ADD SWAP2 SWAP1 PUSH1 0x1 ADD SWAP1 PUSH2 0xBBF JUMP JUMPDEST JUMPDEST POP SWAP1 POP PUSH2 0xBE8 SWAP2 SWAP1 PUSH2 0xBEC JUMP JUMPDEST POP SWAP1 JUMP JUMPDEST PUSH2 0xC0E SWAP2 SWAP1 JUMPDEST DUP1 DUP3 GT ISZERO PUSH2 0xC0A JUMPI PUSH1 0x0 DUP2 PUSH1 0x0 SWAP1 SSTORE POP PUSH1 0x1 ADD PUSH2 0xBF2 JUMP JUMPDEST POP SWAP1 JUMP JUMPDEST SWAP1 JUMP JUMPDEST PUSH1 0x0 PUSH2 0xC1D DUP3 CALLDATALOAD PUSH2 0x119A JUMP JUMPDEST SWAP1 POP SWAP3 SWAP2 POP POP JUMP JUMPDEST PUSH1 0x0 PUSH2 0xC31 DUP3 CALLDATALOAD PUSH2 0x11AC JUMP JUMPDEST SWAP1 POP SWAP3 SWAP2 POP POP JUMP JUMPDEST PUSH1 0x0 DUP3 PUSH1 0x1F DUP4 ADD SLT ISZERO ISZERO PUSH2 0xC4C JUMPI PUSH1 0x0 DUP1 REVERT JUMPDEST DUP2 CALLDATALOAD PUSH2 0xC5F PUSH2 0xC5A DUP3 PUSH2 0x10E1 JUMP JUMPDEST PUSH2 0x10B4 JUMP JUMPDEST SWAP2 POP DUP1 DUP3 MSTORE PUSH1 0x20 DUP4 ADD PUSH1 0x20 DUP4 ADD DUP6 DUP4 DUP4 ADD GT ISZERO PUSH2 0xC7B JUMPI PUSH1 0x0 DUP1 REVERT JUMPDEST PUSH2 0xC86 DUP4 DUP3 DUP5 PUSH2 0x11C2 JUMP JUMPDEST POP POP POP SWAP3 SWAP2 POP POP JUMP JUMPDEST PUSH1 0x0 PUSH2 0xC9B DUP3 CALLDATALOAD PUSH2 0x11B8 JUMP JUMPDEST SWAP1 POP SWAP3 SWAP2 POP POP JUMP JUMPDEST PUSH1 0x0 DUP1 PUSH1 0x0 PUSH1 0x60 DUP5 DUP7 SUB SLT ISZERO PUSH2 0xCB8 JUMPI PUSH1 0x0 DUP1 REVERT JUMPDEST PUSH1 0x0 DUP5 ADD CALLDATALOAD PUSH8 0xFFFFFFFFFFFFFFFF DUP2 GT ISZERO PUSH2 0xCD2 JUMPI PUSH1 0x0 DUP1 REVERT JUMPDEST PUSH2 0xCDE DUP7 DUP3 DUP8 ADD PUSH2 0xC39 JUMP JUMPDEST SWAP4 POP POP PUSH1 0x20 DUP5 ADD CALLDATALOAD PUSH8 0xFFFFFFFFFFFFFFFF DUP2 GT ISZERO PUSH2 0xCFB JUMPI PUSH1 0x0 DUP1 REVERT JUMPDEST PUSH2 0xD07 DUP7 DUP3 DUP8 ADD PUSH2 0xC39 JUMP JUMPDEST SWAP3 POP POP PUSH1 0x40 DUP5 ADD CALLDATALOAD PUSH8 0xFFFFFFFFFFFFFFFF DUP2 GT ISZERO PUSH2 0xD24 JUMPI PUSH1 0x0 DUP1 REVERT JUMPDEST PUSH2 0xD30 DUP7 DUP3 DUP8 ADD PUSH2 0xC39 JUMP JUMPDEST SWAP2 POP POP SWAP3 POP SWAP3 POP SWAP3 JUMP JUMPDEST PUSH1 0x0 DUP1 PUSH1 0x0 PUSH1 0x60 DUP5 DUP7 SUB SLT ISZERO PUSH2 0xD4F JUMPI PUSH1 0x0 DUP1 REVERT JUMPDEST PUSH1 0x0 PUSH2 0xD5D DUP7 DUP3 DUP8 ADD PUSH2 0xC8F JUMP JUMPDEST SWAP4 POP POP PUSH1 0x20 PUSH2 0xD6E DUP7 DUP3 DUP8 ADD PUSH2 0xC11 JUMP JUMPDEST SWAP3 POP POP PUSH1 0x40 PUSH2 0xD7F DUP7 DUP3 DUP8 ADD PUSH2 0xC25 JUMP JUMPDEST SWAP2 POP POP SWAP3 POP SWAP3 POP SWAP3 JUMP JUMPDEST PUSH2 0xD92 DUP2 PUSH2 0x1148 JUMP JUMPDEST DUP3 MSTORE POP POP JUMP JUMPDEST PUSH1 0x0 PUSH2 0xDA3 DUP3 PUSH2 0x111A JUMP JUMPDEST DUP1 DUP5 MSTORE PUSH1 0x20 DUP5 ADD SWAP4 POP DUP4 PUSH1 0x20 DUP3 MUL DUP6 ADD PUSH2 0xDBC DUP6 PUSH2 0x110D JUMP JUMPDEST PUSH1 0x0 JUMPDEST DUP5 DUP2 LT ISZERO PUSH2 0xDF5 JUMPI DUP4 DUP4 SUB DUP9 MSTORE PUSH2 0xDD7 DUP4 DUP4 MLOAD PUSH2 0xE90 JUMP JUMPDEST SWAP3 POP PUSH2 0xDE2 DUP3 PUSH2 0x113B JUMP JUMPDEST SWAP2 POP PUSH1 0x20 DUP9 ADD SWAP8 POP PUSH1 0x1 DUP2 ADD SWAP1 POP PUSH2 0xDBF JUMP JUMPDEST POP DUP2 SWAP7 POP DUP7 SWAP5 POP POP POP POP POP SWAP3 SWAP2 POP POP JUMP JUMPDEST PUSH2 0xE0F DUP2 PUSH2 0x115A JUMP JUMPDEST DUP3 MSTORE POP POP JUMP JUMPDEST PUSH2 0xE1E DUP2 PUSH2 0x1166 JUMP JUMPDEST DUP3 MSTORE POP POP JUMP JUMPDEST PUSH1 0x0 PUSH2 0xE2F DUP3 PUSH2 0x1130 JUMP JUMPDEST DUP1 DUP5 MSTORE PUSH2 0xE43 DUP2 PUSH1 0x20 DUP7 ADD PUSH1 0x20 DUP7 ADD PUSH2 0x11D1 JUMP JUMPDEST PUSH2 0xE4C DUP2 PUSH2 0x1204 JUMP JUMPDEST PUSH1 0x20 DUP6 ADD ADD SWAP2 POP POP SWAP3 SWAP2 POP POP JUMP JUMPDEST PUSH1 0x0 PUSH2 0xE65 DUP3 PUSH2 0x1125 JUMP JUMPDEST DUP1 DUP5 MSTORE PUSH2 0xE79 DUP2 PUSH1 0x20 DUP7 ADD PUSH1 0x20 DUP7 ADD PUSH2 0x11D1 JUMP JUMPDEST PUSH2 0xE82 DUP2 PUSH2 0x1204 JUMP JUMPDEST PUSH1 0x20 DUP6 ADD ADD SWAP2 POP POP SWAP3 SWAP2 POP POP JUMP JUMPDEST PUSH1 0x0 PUSH2 0x140 DUP4 ADD PUSH1 0x0 DUP4 ADD MLOAD PUSH2 0xEA9 PUSH1 0x0 DUP7 ADD DUP3 PUSH2 0xD89 JUMP JUMPDEST POP PUSH1 0x20 DUP4 ADD MLOAD PUSH2 0xEBC PUSH1 0x20 DUP7 ADD DUP3 PUSH2 0xD89 JUMP JUMPDEST POP PUSH1 0x40 DUP4 ADD MLOAD DUP5 DUP3 SUB PUSH1 0x40 DUP7 ADD MSTORE PUSH2 0xED4 DUP3 DUP3 PUSH2 0xE5A JUMP JUMPDEST SWAP2 POP POP PUSH1 0x60 DUP4 ADD MLOAD DUP5 DUP3 SUB PUSH1 0x60 DUP7 ADD MSTORE PUSH2 0xEEE DUP3 DUP3 PUSH2 0xE5A JUMP JUMPDEST SWAP2 POP POP PUSH1 0x80 DUP4 ADD MLOAD PUSH2 0xF03 PUSH1 0x80 DUP7 ADD DUP3 PUSH2 0xE06 JUMP JUMPDEST POP PUSH1 0xA0 DUP4 ADD MLOAD PUSH2 0xF16 PUSH1 0xA0 DUP7 ADD DUP3 PUSH2 0xE06 JUMP JUMPDEST POP PUSH1 0xC0 DUP4 ADD MLOAD DUP5 DUP3 SUB PUSH1 0xC0 DUP7 ADD MSTORE PUSH2 0xF2E DUP3 DUP3 PUSH2 0xE5A JUMP JUMPDEST SWAP2 POP POP PUSH1 0xE0 DUP4 ADD MLOAD PUSH2 0xF43 PUSH1 0xE0 DUP7 ADD DUP3 PUSH2 0xF78 JUMP JUMPDEST POP PUSH2 0x100 DUP4 ADD MLOAD PUSH2 0xF58 PUSH2 0x100 DUP7 ADD DUP3 PUSH2 0xE06 JUMP JUMPDEST POP PUSH2 0x120 DUP4 ADD MLOAD PUSH2 0xF6D PUSH2 0x120 DUP7 ADD DUP3 PUSH2 0xF78 JUMP JUMPDEST POP DUP1 SWAP2 POP POP SWAP3 SWAP2 POP POP JUMP JUMPDEST PUSH2 0xF81 DUP2 PUSH2 0x1190 JUMP JUMPDEST DUP3 MSTORE POP POP JUMP JUMPDEST PUSH1 0x0 PUSH2 0x100 DUP3 ADD SWAP1 POP PUSH2 0xF9D PUSH1 0x0 DUP4 ADD DUP12 PUSH2 0xD89 JUMP JUMPDEST PUSH2 0xFAA PUSH1 0x20 DUP4 ADD DUP11 PUSH2 0xD89 JUMP JUMPDEST DUP2 DUP2 SUB PUSH1 0x40 DUP4 ADD MSTORE PUSH2 0xFBC DUP2 DUP10 PUSH2 0xE24 JUMP JUMPDEST SWAP1 POP PUSH2 0xFCB PUSH1 0x60 DUP4 ADD DUP9 PUSH2 0xE15 JUMP JUMPDEST DUP2 DUP2 SUB PUSH1 0x80 DUP4 ADD MSTORE PUSH2 0xFDD DUP2 DUP8 PUSH2 0xE24 JUMP JUMPDEST SWAP1 POP DUP2 DUP2 SUB PUSH1 0xA0 DUP4 ADD MSTORE PUSH2 0xFF1 DUP2 DUP7 PUSH2 0xE24 JUMP JUMPDEST SWAP1 POP PUSH2 0x1000 PUSH1 0xC0 DUP4 ADD DUP6 PUSH2 0xE15 JUMP JUMPDEST DUP2 DUP2 SUB PUSH1 0xE0 DUP4 ADD MSTORE PUSH2 0x1012 DUP2 DUP5 PUSH2 0xD98 JUMP JUMPDEST SWAP1 POP SWAP10 SWAP9 POP POP POP POP POP POP POP POP POP JUMP JUMPDEST PUSH1 0x0 PUSH2 0x100 DUP3 ADD SWAP1 POP PUSH2 0x1037 PUSH1 0x0 DUP4 ADD DUP12 PUSH2 0xD89 JUMP JUMPDEST PUSH2 0x1044 PUSH1 0x20 DUP4 ADD DUP11 PUSH2 0xD89 JUMP JUMPDEST DUP2 DUP2 SUB PUSH1 0x40 DUP4 ADD MSTORE PUSH2 0x1056 DUP2 DUP10 PUSH2 0xE24 JUMP JUMPDEST SWAP1 POP DUP2 DUP2 SUB PUSH1 0x60 DUP4 ADD MSTORE PUSH2 0x106A DUP2 DUP9 PUSH2 0xE24 JUMP JUMPDEST SWAP1 POP DUP2 DUP2 SUB PUSH1 0x80 DUP4 ADD MSTORE PUSH2 0x107E DUP2 DUP8 PUSH2 0xE24 JUMP JUMPDEST SWAP1 POP PUSH2 0x108D PUSH1 0xA0 DUP4 ADD DUP7 PUSH2 0xE06 JUMP JUMPDEST PUSH2 0x109A PUSH1 0xC0 DUP4 ADD DUP6 PUSH2 0xE06 JUMP JUMPDEST PUSH2 0x10A7 PUSH1 0xE0 DUP4 ADD DUP5 PUSH2 0xF78 JUMP JUMPDEST SWAP10 SWAP9 POP POP POP POP POP POP POP POP POP JUMP JUMPDEST PUSH1 0x0 PUSH1 0x40 MLOAD SWAP1 POP DUP2 DUP2 ADD DUP2 DUP2 LT PUSH8 0xFFFFFFFFFFFFFFFF DUP3 GT OR ISZERO PUSH2 0x10D7 JUMPI PUSH1 0x0 DUP1 REVERT JUMPDEST DUP1 PUSH1 0x40 MSTORE POP SWAP2 SWAP1 POP JUMP JUMPDEST PUSH1 0x0 PUSH8 0xFFFFFFFFFFFFFFFF DUP3 GT ISZERO PUSH2 0x10F8 JUMPI PUSH1 0x0 DUP1 REVERT JUMPDEST PUSH1 0x1F NOT PUSH1 0x1F DUP4 ADD AND SWAP1 POP PUSH1 0x20 DUP2 ADD SWAP1 POP SWAP2 SWAP1 POP JUMP JUMPDEST PUSH1 0x0 PUSH1 0x20 DUP3 ADD SWAP1 POP SWAP2 SWAP1 POP JUMP JUMPDEST PUSH1 0x0 DUP2 MLOAD SWAP1 POP SWAP2 SWAP1 POP JUMP JUMPDEST PUSH1 0x0 DUP2 MLOAD SWAP1 POP SWAP2 SWAP1 POP JUMP JUMPDEST PUSH1 0x0 DUP2 MLOAD SWAP1 POP SWAP2 SWAP1 POP JUMP JUMPDEST PUSH1 0x0 PUSH1 0x20 DUP3 ADD SWAP1 POP SWAP2 SWAP1 POP JUMP JUMPDEST PUSH1 0x0 PUSH2 0x1153 DUP3 PUSH2 0x1170 JUMP JUMPDEST SWAP1 POP SWAP2 SWAP1 POP JUMP JUMPDEST PUSH1 0x0 DUP2 ISZERO ISZERO SWAP1 POP SWAP2 SWAP1 POP JUMP JUMPDEST PUSH1 0x0 DUP2 SWAP1 POP SWAP2 SWAP1 POP JUMP JUMPDEST PUSH1 0x0 PUSH20 0xFFFFFFFFFFFFFFFFFFFFFFFFFFFFFFFFFFFFFFFF DUP3 AND SWAP1 POP SWAP2 SWAP1 POP JUMP JUMPDEST PUSH1 0x0 DUP2 SWAP1 POP SWAP2 SWAP1 POP JUMP JUMPDEST PUSH1 0x0 PUSH2 0x11A5 DUP3 PUSH2 0x1170 JUMP JUMPDEST SWAP1 POP SWAP2 SWAP1 POP JUMP JUMPDEST PUSH1 0x0 DUP2 ISZERO ISZERO SWAP1 POP SWAP2 SWAP1 POP JUMP JUMPDEST PUSH1 0x0 DUP2 SWAP1 POP SWAP2 SWAP1 POP JUMP JUMPDEST DUP3 DUP2 DUP4 CALLDATACOPY PUSH1 0x0 DUP4 DUP4 ADD MSTORE POP POP POP JUMP JUMPDEST PUSH1 0x0 JUMPDEST DUP4 DUP2 LT ISZERO PUSH2 0x11EF JUMPI DUP1 DUP3 ADD MLOAD DUP2 DUP5 ADD MSTORE PUSH1 0x20 DUP2 ADD SWAP1 POP PUSH2 0x11D4 JUMP JUMPDEST DUP4 DUP2 GT ISZERO PUSH2 0x11FE JUMPI PUSH1 0x0 DUP5 DUP5 ADD MSTORE JUMPDEST POP POP POP POP JUMP JUMPDEST PUSH1 0x0 PUSH1 0x1F NOT PUSH1 0x1F DUP4 ADD AND SWAP1 POP SWAP2 SWAP1 POP JUMP INVALID LOG2 PUSH6 0x627A7A723058 KECCAK256 0xb5 SWAP6 PUSH9 0x48FE2CA68BE3218ED4 0xe8 0xbe SWAP4 0xb5 0xdf SMOD RETURN MOD 0xe7 0xad GASPRICE CALLDATACOPY 0xd4 POP 0xd DUP5 GAS 0x4c 0x21 PUSH18 0x6C6578706572696D656E74616CF500370000 "
    },
    "gasEstimates": {
      "creation": {
        "codeDepositCost": "937400",
        "executionCost": "infinite",
        "totalCost": "infinite"
      },
      "external": {
        "applyClaim(string,string,string)": "infinite",
        "finalizeRequest(uint256,address,bool)": "42166",
        "getData()": "infinite"
      }
    },
    "methodIdentifiers": {
      "applyClaim(string,string,string)": "83bffb88",
      "finalizeRequest(uint256,address,bool)": "72102d18",
      "getData()": "3bc5de30"
    }
  },
  "userdoc": {
    "methods": {}
  }
}