{
  "abi": [
    {
      "constant": false,
      "inputs": [
        {
          "name": "insurancee",
          "type": "string"
        },
        {
          "name": "pass",
          "type": "string"
        }
      ],
      "name": "addInsurance",
      "outputs": [],
      "payable": false,
      "stateMutability": "nonpayable",
      "type": "function"
    },
    {
      "constant": false,
      "inputs": [
        {
          "name": "billingDataa",
          "type": "string"
        },
        {
          "name": "radiologyImagess",
          "type": "string"
        },
        {
          "name": "labResultss",
          "type": "string"
        },
        {
          "name": "insurancee",
          "type": "string"
        }
      ],
      "name": "addFiles",
      "outputs": [],
      "payable": false,
      "stateMutability": "nonpayable",
      "type": "function"
    },
    {
      "constant": true,
      "inputs": [],
      "name": "password",
      "outputs": [
        {
          "name": "",
          "type": "string"
        }
      ],
      "payable": false,
      "stateMutability": "view",
      "type": "function"
    },
    {
      "constant": false,
      "inputs": [
        {
          "name": "medicalHistoryy",
          "type": "string"
        },
        {
          "name": "diagnosiss",
          "type": "string"
        },
        {
          "name": "medicationss",
          "type": "string"
        },
        {
          "name": "allergiess",
          "type": "string"
        },
        {
          "name": "progressNotess",
          "type": "string"
        },
        {
          "name": "vitalSignss",
          "type": "string"
        },
        {
          "name": "immunizationDatess",
          "type": "string"
        },
        {
          "name": "emergencyy",
          "type": "string"
        }
      ],
      "name": "updateNondemographics",
      "outputs": [],
      "payable": false,
      "stateMutability": "nonpayable",
      "type": "function"
    },
    {
      "constant": true,
      "inputs": [],
      "name": "getPatientData",
      "outputs": [
        {
          "name": "",
          "type": "bool"
        },
        {
          "components": [
            {
              "name": "name",
              "type": "string"
            },
            {
              "name": "gender",
              "type": "string"
            },
            {
              "name": "dob",
              "type": "string"
            },
            {
              "name": "mobile",
              "type": "string"
            },
            {
              "name": "aadhar",
              "type": "int256"
            },
            {
              "name": "paddress",
              "type": "string"
            },
            {
              "name": "postalcode",
              "type": "string"
            },
            {
              "name": "country",
              "type": "string"
            }
          ],
          "name": "",
          "type": "tuple"
        },
        {
          "components": [
            {
              "name": "medicalHistory",
              "type": "string"
            },
            {
              "name": "diagnosis",
              "type": "string"
            },
            {
              "name": "medications",
              "type": "string"
            },
            {
              "name": "allergies",
              "type": "string"
            },
            {
              "name": "progressNotes",
              "type": "string"
            },
            {
              "name": "vitalSigns",
              "type": "string"
            },
            {
              "name": "immunizationDates",
              "type": "string"
            },
            {
              "name": "emergency",
              "type": "string"
            }
          ],
          "name": "",
          "type": "tuple"
        },
        {
          "components": [
            {
              "name": "billingData",
              "type": "string[]"
            },
            {
              "name": "radiologyImages",
              "type": "string[]"
            },
            {
              "name": "labResults",
              "type": "string[]"
            },
            {
              "name": "insurance",
              "type": "string[]"
            }
          ],
          "name": "",
          "type": "tuple"
        }
      ],
      "payable": false,
      "stateMutability": "view",
      "type": "function"
    },
    {
      "constant": false,
      "inputs": [
        {
          "name": "doc",
          "type": "address"
        },
        {
          "name": "pass",
          "type": "string"
        }
      ],
      "name": "addDoctor",
      "outputs": [],
      "payable": false,
      "stateMutability": "nonpayable",
      "type": "function"
    },
    {
      "constant": true,
      "inputs": [
        {
          "name": "pass",
          "type": "string"
        }
      ],
      "name": "isCorrectPassword",
      "outputs": [
        {
          "name": "",
          "type": "bool"
        }
      ],
      "payable": false,
      "stateMutability": "view",
      "type": "function"
    },
    {
      "constant": true,
      "inputs": [
        {
          "name": "",
          "type": "address"
        }
      ],
      "name": "doctorsAllowed",
      "outputs": [
        {
          "name": "",
          "type": "bool"
        }
      ],
      "payable": false,
      "stateMutability": "view",
      "type": "function"
    },
    {
      "constant": true,
      "inputs": [
        {
          "name": "add",
          "type": "address"
        }
      ],
      "name": "isDoctorAllowed",
      "outputs": [
        {
          "name": "",
          "type": "bool"
        }
      ],
      "payable": false,
      "stateMutability": "view",
      "type": "function"
    },
    {
      "inputs": [
        {
          "name": "namee",
          "type": "string"
        },
        {
          "name": "genderr",
          "type": "string"
        },
        {
          "name": "dobb",
          "type": "string"
        },
        {
          "name": "mobilee",
          "type": "string"
        },
        {
          "name": "aadharr",
          "type": "int256"
        },
        {
          "name": "paddresss",
          "type": "string"
        },
        {
          "name": "postalcodee",
          "type": "string"
        },
        {
          "name": "countryy",
          "type": "string"
        },
        {
          "name": "passwordd",
          "type": "string"
        },
        {
          "name": "doctorsAddress",
          "type": "address"
        }
      ],
      "payable": false,
      "stateMutability": "nonpayable",
      "type": "constructor"
    }
  ],
  "devdoc": {
    "methods": {}
  },
  "evm": {
    "assembly": "    /* \"background.sol\":3420:10435  contract MedicalRecord {\r... */\n  mstore(0x40, 0x80)\n    /* \"background.sol\":4343:5058  constructor(string memory namee, string memory genderr, string memory dobb, string memory mobilee, int aadharr, string memory paddresss, \r... */\n  callvalue\n    /* \"--CODEGEN--\":8:17   */\n  dup1\n    /* \"--CODEGEN--\":5:7   */\n  iszero\n  tag_1\n  jumpi\n    /* \"--CODEGEN--\":30:31   */\n  0x00\n    /* \"--CODEGEN--\":27:28   */\n  dup1\n    /* \"--CODEGEN--\":20:32   */\n  revert\n    /* \"--CODEGEN--\":5:7   */\ntag_1:\n    /* \"background.sol\":4343:5058  constructor(string memory namee, string memory genderr, string memory dobb, string memory mobilee, int aadharr, string memory paddresss, \r... */\n  pop\n  mload(0x40)\n  sub(codesize, bytecodeSize)\n  dup1\n  bytecodeSize\n  dup4\n  codecopy\n  dup2\n  add\n  dup1\n  0x40\n  mstore\n  tag_2\n  swap2\n  swap1\n  dup2\n  add\n  swap1\n  jump(tag_3)\ntag_2:\n    /* \"background.sol\":4614:4644  PatientDemographics memory pat */\n  tag_6\n  tag_7\n  jump\t// in\ntag_6:\n    /* \"background.sol\":4647:4925  PatientDemographics( { \r... */\n  0x0100\n  mload(0x40)\n  swap1\n  dup2\n  add\n  0x40\n  mstore\n  dup1\n    /* \"background.sol\":4690:4695  namee */\n  dup13\n    /* \"background.sol\":4647:4925  PatientDemographics( { \r... */\n  dup2\n  mstore\n  0x20\n  add\n    /* \"background.sol\":4718:4725  genderr */\n  dup12\n    /* \"background.sol\":4647:4925  PatientDemographics( { \r... */\n  dup2\n  mstore\n  0x20\n  add\n    /* \"background.sol\":4745:4749  dobb */\n  dup11\n    /* \"background.sol\":4647:4925  PatientDemographics( { \r... */\n  dup2\n  mstore\n  0x20\n  add\n    /* \"background.sol\":4772:4779  mobilee */\n  dup10\n    /* \"background.sol\":4647:4925  PatientDemographics( { \r... */\n  dup2\n  mstore\n  0x20\n  add\n    /* \"background.sol\":4802:4809  aadharr */\n  dup9\n    /* \"background.sol\":4647:4925  PatientDemographics( { \r... */\n  dup2\n  mstore\n  0x20\n  add\n    /* \"background.sol\":4834:4843  paddresss */\n  dup8\n    /* \"background.sol\":4647:4925  PatientDemographics( { \r... */\n  dup2\n  mstore\n  0x20\n  add\n    /* \"background.sol\":4870:4881  postalcodee */\n  dup7\n    /* \"background.sol\":4647:4925  PatientDemographics( { \r... */\n  dup2\n  mstore\n  0x20\n  add\n    /* \"background.sol\":4905:4913  countryy */\n  dup6\n    /* \"background.sol\":4647:4925  PatientDemographics( { \r... */\n  dup2\n  mstore\n  pop\n    /* \"background.sol\":4614:4925  PatientDemographics memory pat = PatientDemographics( { \r... */\n  swap1\n  pop\n    /* \"background.sol\":4968:4971  pat */\n  dup1\n    /* \"background.sol\":4946:4965  patientDemographics */\n  0x00\n    /* \"background.sol\":4946:4971  patientDemographics = pat */\n  dup1\n  dup3\n  add\n  mload\n  dup2\n  0x00\n  add\n  swap1\n  dup1\n  mload\n  swap1\n  0x20\n  add\n  swap1\n  tag_8\n  swap3\n  swap2\n  swap1\n  tag_9\n  jump\t// in\ntag_8:\n  pop\n  0x20\n  dup3\n  add\n  mload\n  dup2\n  0x01\n  add\n  swap1\n  dup1\n  mload\n  swap1\n  0x20\n  add\n  swap1\n  tag_10\n  swap3\n  swap2\n  swap1\n  tag_9\n  jump\t// in\ntag_10:\n  pop\n  0x40\n  dup3\n  add\n  mload\n  dup2\n  0x02\n  add\n  swap1\n  dup1\n  mload\n  swap1\n  0x20\n  add\n  swap1\n  tag_11\n  swap3\n  swap2\n  swap1\n  tag_9\n  jump\t// in\ntag_11:\n  pop\n  0x60\n  dup3\n  add\n  mload\n  dup2\n  0x03\n  add\n  swap1\n  dup1\n  mload\n  swap1\n  0x20\n  add\n  swap1\n  tag_12\n  swap3\n  swap2\n  swap1\n  tag_9\n  jump\t// in\ntag_12:\n  pop\n  0x80\n  dup3\n  add\n  mload\n  dup2\n  0x04\n  add\n  sstore\n  0xa0\n  dup3\n  add\n  mload\n  dup2\n  0x05\n  add\n  swap1\n  dup1\n  mload\n  swap1\n  0x20\n  add\n  swap1\n  tag_13\n  swap3\n  swap2\n  swap1\n  tag_9\n  jump\t// in\ntag_13:\n  pop\n  0xc0\n  dup3\n  add\n  mload\n  dup2\n  0x06\n  add\n  swap1\n  dup1\n  mload\n  swap1\n  0x20\n  add\n  swap1\n  tag_14\n  swap3\n  swap2\n  swap1\n  tag_9\n  jump\t// in\ntag_14:\n  pop\n  0xe0\n  dup3\n  add\n  mload\n  dup2\n  0x07\n  add\n  swap1\n  dup1\n  mload\n  swap1\n  0x20\n  add\n  swap1\n  tag_15\n  swap3\n  swap2\n  swap1\n  tag_9\n  jump\t// in\ntag_15:\n  pop\n  swap1\n  pop\n  pop\n    /* \"background.sol\":4993:5002  passwordd */\n  dup3\n    /* \"background.sol\":4982:4990  password */\n  0x15\n    /* \"background.sol\":4982:5002  password = passwordd */\n  swap1\n  dup1\n  mload\n  swap1\n  0x20\n  add\n  swap1\n  tag_16\n  swap3\n  swap2\n  swap1\n  tag_17\n  jump\t// in\ntag_16:\n  pop\n    /* \"background.sol\":5046:5050  true */\n  0x01\n    /* \"background.sol\":5013:5027  doctorsAllowed */\n  0x14\n    /* \"background.sol\":5013:5043  doctorsAllowed[doctorsAddress] */\n  0x00\n    /* \"background.sol\":5028:5042  doctorsAddress */\n  dup5\n    /* \"background.sol\":5013:5043  doctorsAllowed[doctorsAddress] */\n  0xffffffffffffffffffffffffffffffffffffffff\n  and\n  0xffffffffffffffffffffffffffffffffffffffff\n  and\n  dup2\n  mstore\n  0x20\n  add\n  swap1\n  dup2\n  mstore\n  0x20\n  add\n  0x00\n  keccak256\n  0x00\n    /* \"background.sol\":5013:5050  doctorsAllowed[doctorsAddress] = true */\n  0x0100\n  exp\n  dup2\n  sload\n  dup2\n  0xff\n  mul\n  not\n  and\n  swap1\n  dup4\n  iszero\n  iszero\n  mul\n  or\n  swap1\n  sstore\n  pop\n    /* \"background.sol\":4343:5058  constructor(string memory namee, string memory genderr, string memory dobb, string memory mobilee, int aadharr, string memory paddresss, \r... */\n  pop\n  pop\n  pop\n  pop\n  pop\n  pop\n  pop\n  pop\n  pop\n  pop\n  pop\n    /* \"background.sol\":3420:10435  contract MedicalRecord {\r... */\n  jump(tag_18)\ntag_7:\n  0x0100\n  mload(0x40)\n  swap1\n  dup2\n  add\n  0x40\n  mstore\n  dup1\n  0x60\n  dup2\n  mstore\n  0x20\n  add\n  0x60\n  dup2\n  mstore\n  0x20\n  add\n  0x60\n  dup2\n  mstore\n  0x20\n  add\n  0x60\n  dup2\n  mstore\n  0x20\n  add\n  0x00\n  dup2\n  mstore\n  0x20\n  add\n  0x60\n  dup2\n  mstore\n  0x20\n  add\n  0x60\n  dup2\n  mstore\n  0x20\n  add\n  0x60\n  dup2\n  mstore\n  pop\n  swap1\n  jump\t// out\ntag_9:\n  dup3\n  dup1\n  sload\n  0x01\n  dup2\n  0x01\n  and\n  iszero\n  0x0100\n  mul\n  sub\n  and\n  0x02\n  swap1\n  div\n  swap1\n  0x00\n  mstore\n  keccak256(0x00, 0x20)\n  swap1\n  0x1f\n  add\n  0x20\n  swap1\n  div\n  dup2\n  add\n  swap3\n  dup3\n  0x1f\n  lt\n  tag_20\n  jumpi\n  dup1\n  mload\n  not(0xff)\n  and\n  dup4\n  dup1\n  add\n  or\n  dup6\n  sstore\n  jump(tag_19)\ntag_20:\n  dup3\n  dup1\n  add\n  0x01\n  add\n  dup6\n  sstore\n  dup3\n  iszero\n  tag_19\n  jumpi\n  swap2\n  dup3\n  add\ntag_21:\n  dup3\n  dup2\n  gt\n  iszero\n  tag_22\n  jumpi\n  dup3\n  mload\n  dup3\n  sstore\n  swap2\n  0x20\n  add\n  swap2\n  swap1\n  0x01\n  add\n  swap1\n  jump(tag_21)\ntag_22:\ntag_19:\n  pop\n  swap1\n  pop\n  tag_23\n  swap2\n  swap1\n  tag_24\n  jump\t// in\ntag_23:\n  pop\n  swap1\n  jump\t// out\ntag_17:\n  dup3\n  dup1\n  sload\n  0x01\n  dup2\n  0x01\n  and\n  iszero\n  0x0100\n  mul\n  sub\n  and\n  0x02\n  swap1\n  div\n  swap1\n  0x00\n  mstore\n  keccak256(0x00, 0x20)\n  swap1\n  0x1f\n  add\n  0x20\n  swap1\n  div\n  dup2\n  add\n  swap3\n  dup3\n  0x1f\n  lt\n  tag_26\n  jumpi\n  dup1\n  mload\n  not(0xff)\n  and\n  dup4\n  dup1\n  add\n  or\n  dup6\n  sstore\n  jump(tag_25)\ntag_26:\n  dup3\n  dup1\n  add\n  0x01\n  add\n  dup6\n  sstore\n  dup3\n  iszero\n  tag_25\n  jumpi\n  swap2\n  dup3\n  add\ntag_27:\n  dup3\n  dup2\n  gt\n  iszero\n  tag_28\n  jumpi\n  dup3\n  mload\n  dup3\n  sstore\n  swap2\n  0x20\n  add\n  swap2\n  swap1\n  0x01\n  add\n  swap1\n  jump(tag_27)\ntag_28:\ntag_25:\n  pop\n  swap1\n  pop\n  tag_29\n  swap2\n  swap1\n  tag_24\n  jump\t// in\ntag_29:\n  pop\n  swap1\n  jump\t// out\ntag_24:\n  tag_30\n  swap2\n  swap1\ntag_31:\n  dup1\n  dup3\n  gt\n  iszero\n  tag_32\n  jumpi\n  0x00\n  dup2\n  0x00\n  swap1\n  sstore\n  pop\n  0x01\n  add\n  jump(tag_31)\ntag_32:\n  pop\n  swap1\n  jump\ntag_30:\n  swap1\n  jump\t// out\n    /* \"--CODEGEN--\":5:127   */\ntag_34:\n  0x00\n    /* \"--CODEGEN--\":83:122   */\n  tag_35\n    /* \"--CODEGEN--\":114:120   */\n  dup3\n    /* \"--CODEGEN--\":108:121   */\n  mload\n    /* \"--CODEGEN--\":83:122   */\n  jump(tag_36)\ntag_35:\n    /* \"--CODEGEN--\":74:122   */\n  swap1\n  pop\n    /* \"--CODEGEN--\":68:127   */\n  swap3\n  swap2\n  pop\n  pop\n  jump\n    /* \"--CODEGEN--\":134:254   */\ntag_38:\n  0x00\n    /* \"--CODEGEN--\":211:249   */\n  tag_39\n    /* \"--CODEGEN--\":241:247   */\n  dup3\n    /* \"--CODEGEN--\":235:248   */\n  mload\n    /* \"--CODEGEN--\":211:249   */\n  jump(tag_40)\ntag_39:\n    /* \"--CODEGEN--\":202:249   */\n  swap1\n  pop\n    /* \"--CODEGEN--\":196:254   */\n  swap3\n  swap2\n  pop\n  pop\n  jump\n    /* \"--CODEGEN--\":262:706   */\ntag_42:\n  0x00\n    /* \"--CODEGEN--\":375:378   */\n  dup3\n    /* \"--CODEGEN--\":368:372   */\n  0x1f\n    /* \"--CODEGEN--\":360:366   */\n  dup4\n    /* \"--CODEGEN--\":356:373   */\n  add\n    /* \"--CODEGEN--\":352:379   */\n  slt\n    /* \"--CODEGEN--\":345:380   */\n  iszero\n    /* \"--CODEGEN--\":342:344   */\n  iszero\n  tag_43\n  jumpi\n    /* \"--CODEGEN--\":393:394   */\n  0x00\n    /* \"--CODEGEN--\":390:391   */\n  dup1\n    /* \"--CODEGEN--\":383:395   */\n  revert\n    /* \"--CODEGEN--\":342:344   */\ntag_43:\n    /* \"--CODEGEN--\":423:429   */\n  dup2\n    /* \"--CODEGEN--\":417:430   */\n  mload\n    /* \"--CODEGEN--\":445:510   */\n  tag_44\n    /* \"--CODEGEN--\":460:509   */\n  tag_45\n    /* \"--CODEGEN--\":502:508   */\n  dup3\n    /* \"--CODEGEN--\":460:509   */\n  jump(tag_46)\ntag_45:\n    /* \"--CODEGEN--\":445:510   */\n  jump(tag_47)\ntag_44:\n    /* \"--CODEGEN--\":436:510   */\n  swap2\n  pop\n    /* \"--CODEGEN--\":530:536   */\n  dup1\n    /* \"--CODEGEN--\":523:528   */\n  dup3\n    /* \"--CODEGEN--\":516:537   */\n  mstore\n    /* \"--CODEGEN--\":566:570   */\n  0x20\n    /* \"--CODEGEN--\":558:564   */\n  dup4\n    /* \"--CODEGEN--\":554:571   */\n  add\n    /* \"--CODEGEN--\":599:603   */\n  0x20\n    /* \"--CODEGEN--\":592:597   */\n  dup4\n    /* \"--CODEGEN--\":588:604   */\n  add\n    /* \"--CODEGEN--\":634:637   */\n  dup6\n    /* \"--CODEGEN--\":625:631   */\n  dup4\n    /* \"--CODEGEN--\":620:623   */\n  dup4\n    /* \"--CODEGEN--\":616:632   */\n  add\n    /* \"--CODEGEN--\":613:638   */\n  gt\n    /* \"--CODEGEN--\":610:612   */\n  iszero\n  tag_48\n  jumpi\n    /* \"--CODEGEN--\":651:652   */\n  0x00\n    /* \"--CODEGEN--\":648:649   */\n  dup1\n    /* \"--CODEGEN--\":641:653   */\n  revert\n    /* \"--CODEGEN--\":610:612   */\ntag_48:\n    /* \"--CODEGEN--\":661:700   */\n  tag_49\n    /* \"--CODEGEN--\":693:699   */\n  dup4\n    /* \"--CODEGEN--\":688:691   */\n  dup3\n    /* \"--CODEGEN--\":683:686   */\n  dup5\n    /* \"--CODEGEN--\":661:700   */\n  jump(tag_50)\ntag_49:\n    /* \"--CODEGEN--\":335:706   */\n  pop\n  pop\n  pop\n  swap3\n  swap2\n  pop\n  pop\n  jump\n    /* \"--CODEGEN--\":714:2998   */\ntag_3:\n  0x00\n  dup1\n  0x00\n  dup1\n  0x00\n  dup1\n  0x00\n  dup1\n  0x00\n  dup1\n    /* \"--CODEGEN--\":1061:1064   */\n  0x0140\n    /* \"--CODEGEN--\":1049:1058   */\n  dup12\n    /* \"--CODEGEN--\":1040:1047   */\n  dup14\n    /* \"--CODEGEN--\":1036:1059   */\n  sub\n    /* \"--CODEGEN--\":1032:1065   */\n  slt\n    /* \"--CODEGEN--\":1029:1031   */\n  iszero\n  tag_52\n  jumpi\n    /* \"--CODEGEN--\":1078:1079   */\n  0x00\n    /* \"--CODEGEN--\":1075:1076   */\n  dup1\n    /* \"--CODEGEN--\":1068:1080   */\n  revert\n    /* \"--CODEGEN--\":1029:1031   */\ntag_52:\n    /* \"--CODEGEN--\":1134:1135   */\n  0x00\n    /* \"--CODEGEN--\":1123:1132   */\n  dup12\n    /* \"--CODEGEN--\":1119:1136   */\n  add\n    /* \"--CODEGEN--\":1113:1137   */\n  mload\n    /* \"--CODEGEN--\":1157:1175   */\n  0xffffffffffffffff\n    /* \"--CODEGEN--\":1149:1155   */\n  dup2\n    /* \"--CODEGEN--\":1146:1176   */\n  gt\n    /* \"--CODEGEN--\":1143:1145   */\n  iszero\n  tag_53\n  jumpi\n    /* \"--CODEGEN--\":1189:1190   */\n  0x00\n    /* \"--CODEGEN--\":1186:1187   */\n  dup1\n    /* \"--CODEGEN--\":1179:1191   */\n  revert\n    /* \"--CODEGEN--\":1143:1145   */\ntag_53:\n    /* \"--CODEGEN--\":1209:1283   */\n  tag_54\n    /* \"--CODEGEN--\":1275:1282   */\n  dup14\n    /* \"--CODEGEN--\":1266:1272   */\n  dup3\n    /* \"--CODEGEN--\":1255:1264   */\n  dup15\n    /* \"--CODEGEN--\":1251:1273   */\n  add\n    /* \"--CODEGEN--\":1209:1283   */\n  jump(tag_42)\ntag_54:\n    /* \"--CODEGEN--\":1199:1283   */\n  swap11\n  pop\n    /* \"--CODEGEN--\":1092:1289   */\n  pop\n    /* \"--CODEGEN--\":1341:1343   */\n  0x20\n    /* \"--CODEGEN--\":1330:1339   */\n  dup12\n    /* \"--CODEGEN--\":1326:1344   */\n  add\n    /* \"--CODEGEN--\":1320:1345   */\n  mload\n    /* \"--CODEGEN--\":1365:1383   */\n  0xffffffffffffffff\n    /* \"--CODEGEN--\":1357:1363   */\n  dup2\n    /* \"--CODEGEN--\":1354:1384   */\n  gt\n    /* \"--CODEGEN--\":1351:1353   */\n  iszero\n  tag_55\n  jumpi\n    /* \"--CODEGEN--\":1397:1398   */\n  0x00\n    /* \"--CODEGEN--\":1394:1395   */\n  dup1\n    /* \"--CODEGEN--\":1387:1399   */\n  revert\n    /* \"--CODEGEN--\":1351:1353   */\ntag_55:\n    /* \"--CODEGEN--\":1417:1491   */\n  tag_56\n    /* \"--CODEGEN--\":1483:1490   */\n  dup14\n    /* \"--CODEGEN--\":1474:1480   */\n  dup3\n    /* \"--CODEGEN--\":1463:1472   */\n  dup15\n    /* \"--CODEGEN--\":1459:1481   */\n  add\n    /* \"--CODEGEN--\":1417:1491   */\n  jump(tag_42)\ntag_56:\n    /* \"--CODEGEN--\":1407:1491   */\n  swap10\n  pop\n    /* \"--CODEGEN--\":1299:1497   */\n  pop\n    /* \"--CODEGEN--\":1549:1551   */\n  0x40\n    /* \"--CODEGEN--\":1538:1547   */\n  dup12\n    /* \"--CODEGEN--\":1534:1552   */\n  add\n    /* \"--CODEGEN--\":1528:1553   */\n  mload\n    /* \"--CODEGEN--\":1573:1591   */\n  0xffffffffffffffff\n    /* \"--CODEGEN--\":1565:1571   */\n  dup2\n    /* \"--CODEGEN--\":1562:1592   */\n  gt\n    /* \"--CODEGEN--\":1559:1561   */\n  iszero\n  tag_57\n  jumpi\n    /* \"--CODEGEN--\":1605:1606   */\n  0x00\n    /* \"--CODEGEN--\":1602:1603   */\n  dup1\n    /* \"--CODEGEN--\":1595:1607   */\n  revert\n    /* \"--CODEGEN--\":1559:1561   */\ntag_57:\n    /* \"--CODEGEN--\":1625:1699   */\n  tag_58\n    /* \"--CODEGEN--\":1691:1698   */\n  dup14\n    /* \"--CODEGEN--\":1682:1688   */\n  dup3\n    /* \"--CODEGEN--\":1671:1680   */\n  dup15\n    /* \"--CODEGEN--\":1667:1689   */\n  add\n    /* \"--CODEGEN--\":1625:1699   */\n  jump(tag_42)\ntag_58:\n    /* \"--CODEGEN--\":1615:1699   */\n  swap9\n  pop\n    /* \"--CODEGEN--\":1507:1705   */\n  pop\n    /* \"--CODEGEN--\":1757:1759   */\n  0x60\n    /* \"--CODEGEN--\":1746:1755   */\n  dup12\n    /* \"--CODEGEN--\":1742:1760   */\n  add\n    /* \"--CODEGEN--\":1736:1761   */\n  mload\n    /* \"--CODEGEN--\":1781:1799   */\n  0xffffffffffffffff\n    /* \"--CODEGEN--\":1773:1779   */\n  dup2\n    /* \"--CODEGEN--\":1770:1800   */\n  gt\n    /* \"--CODEGEN--\":1767:1769   */\n  iszero\n  tag_59\n  jumpi\n    /* \"--CODEGEN--\":1813:1814   */\n  0x00\n    /* \"--CODEGEN--\":1810:1811   */\n  dup1\n    /* \"--CODEGEN--\":1803:1815   */\n  revert\n    /* \"--CODEGEN--\":1767:1769   */\ntag_59:\n    /* \"--CODEGEN--\":1833:1907   */\n  tag_60\n    /* \"--CODEGEN--\":1899:1906   */\n  dup14\n    /* \"--CODEGEN--\":1890:1896   */\n  dup3\n    /* \"--CODEGEN--\":1879:1888   */\n  dup15\n    /* \"--CODEGEN--\":1875:1897   */\n  add\n    /* \"--CODEGEN--\":1833:1907   */\n  jump(tag_42)\ntag_60:\n    /* \"--CODEGEN--\":1823:1907   */\n  swap8\n  pop\n    /* \"--CODEGEN--\":1715:1913   */\n  pop\n    /* \"--CODEGEN--\":1944:1947   */\n  0x80\n    /* \"--CODEGEN--\":1963:2026   */\n  tag_61\n    /* \"--CODEGEN--\":2018:2025   */\n  dup14\n    /* \"--CODEGEN--\":2009:2015   */\n  dup3\n    /* \"--CODEGEN--\":1998:2007   */\n  dup15\n    /* \"--CODEGEN--\":1994:2016   */\n  add\n    /* \"--CODEGEN--\":1963:2026   */\n  jump(tag_38)\ntag_61:\n    /* \"--CODEGEN--\":1953:2026   */\n  swap7\n  pop\n    /* \"--CODEGEN--\":1923:2032   */\n  pop\n    /* \"--CODEGEN--\":2084:2087   */\n  0xa0\n    /* \"--CODEGEN--\":2073:2082   */\n  dup12\n    /* \"--CODEGEN--\":2069:2088   */\n  add\n    /* \"--CODEGEN--\":2063:2089   */\n  mload\n    /* \"--CODEGEN--\":2109:2127   */\n  0xffffffffffffffff\n    /* \"--CODEGEN--\":2101:2107   */\n  dup2\n    /* \"--CODEGEN--\":2098:2128   */\n  gt\n    /* \"--CODEGEN--\":2095:2097   */\n  iszero\n  tag_62\n  jumpi\n    /* \"--CODEGEN--\":2141:2142   */\n  0x00\n    /* \"--CODEGEN--\":2138:2139   */\n  dup1\n    /* \"--CODEGEN--\":2131:2143   */\n  revert\n    /* \"--CODEGEN--\":2095:2097   */\ntag_62:\n    /* \"--CODEGEN--\":2161:2235   */\n  tag_63\n    /* \"--CODEGEN--\":2227:2234   */\n  dup14\n    /* \"--CODEGEN--\":2218:2224   */\n  dup3\n    /* \"--CODEGEN--\":2207:2216   */\n  dup15\n    /* \"--CODEGEN--\":2203:2225   */\n  add\n    /* \"--CODEGEN--\":2161:2235   */\n  jump(tag_42)\ntag_63:\n    /* \"--CODEGEN--\":2151:2235   */\n  swap6\n  pop\n    /* \"--CODEGEN--\":2042:2241   */\n  pop\n    /* \"--CODEGEN--\":2293:2296   */\n  0xc0\n    /* \"--CODEGEN--\":2282:2291   */\n  dup12\n    /* \"--CODEGEN--\":2278:2297   */\n  add\n    /* \"--CODEGEN--\":2272:2298   */\n  mload\n    /* \"--CODEGEN--\":2318:2336   */\n  0xffffffffffffffff\n    /* \"--CODEGEN--\":2310:2316   */\n  dup2\n    /* \"--CODEGEN--\":2307:2337   */\n  gt\n    /* \"--CODEGEN--\":2304:2306   */\n  iszero\n  tag_64\n  jumpi\n    /* \"--CODEGEN--\":2350:2351   */\n  0x00\n    /* \"--CODEGEN--\":2347:2348   */\n  dup1\n    /* \"--CODEGEN--\":2340:2352   */\n  revert\n    /* \"--CODEGEN--\":2304:2306   */\ntag_64:\n    /* \"--CODEGEN--\":2370:2444   */\n  tag_65\n    /* \"--CODEGEN--\":2436:2443   */\n  dup14\n    /* \"--CODEGEN--\":2427:2433   */\n  dup3\n    /* \"--CODEGEN--\":2416:2425   */\n  dup15\n    /* \"--CODEGEN--\":2412:2434   */\n  add\n    /* \"--CODEGEN--\":2370:2444   */\n  jump(tag_42)\ntag_65:\n    /* \"--CODEGEN--\":2360:2444   */\n  swap5\n  pop\n    /* \"--CODEGEN--\":2251:2450   */\n  pop\n    /* \"--CODEGEN--\":2502:2505   */\n  0xe0\n    /* \"--CODEGEN--\":2491:2500   */\n  dup12\n    /* \"--CODEGEN--\":2487:2506   */\n  add\n    /* \"--CODEGEN--\":2481:2507   */\n  mload\n    /* \"--CODEGEN--\":2527:2545   */\n  0xffffffffffffffff\n    /* \"--CODEGEN--\":2519:2525   */\n  dup2\n    /* \"--CODEGEN--\":2516:2546   */\n  gt\n    /* \"--CODEGEN--\":2513:2515   */\n  iszero\n  tag_66\n  jumpi\n    /* \"--CODEGEN--\":2559:2560   */\n  0x00\n    /* \"--CODEGEN--\":2556:2557   */\n  dup1\n    /* \"--CODEGEN--\":2549:2561   */\n  revert\n    /* \"--CODEGEN--\":2513:2515   */\ntag_66:\n    /* \"--CODEGEN--\":2579:2653   */\n  tag_67\n    /* \"--CODEGEN--\":2645:2652   */\n  dup14\n    /* \"--CODEGEN--\":2636:2642   */\n  dup3\n    /* \"--CODEGEN--\":2625:2634   */\n  dup15\n    /* \"--CODEGEN--\":2621:2643   */\n  add\n    /* \"--CODEGEN--\":2579:2653   */\n  jump(tag_42)\ntag_67:\n    /* \"--CODEGEN--\":2569:2653   */\n  swap4\n  pop\n    /* \"--CODEGEN--\":2460:2659   */\n  pop\n    /* \"--CODEGEN--\":2711:2714   */\n  0x0100\n    /* \"--CODEGEN--\":2700:2709   */\n  dup12\n    /* \"--CODEGEN--\":2696:2715   */\n  add\n    /* \"--CODEGEN--\":2690:2716   */\n  mload\n    /* \"--CODEGEN--\":2736:2754   */\n  0xffffffffffffffff\n    /* \"--CODEGEN--\":2728:2734   */\n  dup2\n    /* \"--CODEGEN--\":2725:2755   */\n  gt\n    /* \"--CODEGEN--\":2722:2724   */\n  iszero\n  tag_68\n  jumpi\n    /* \"--CODEGEN--\":2768:2769   */\n  0x00\n    /* \"--CODEGEN--\":2765:2766   */\n  dup1\n    /* \"--CODEGEN--\":2758:2770   */\n  revert\n    /* \"--CODEGEN--\":2722:2724   */\ntag_68:\n    /* \"--CODEGEN--\":2788:2862   */\n  tag_69\n    /* \"--CODEGEN--\":2854:2861   */\n  dup14\n    /* \"--CODEGEN--\":2845:2851   */\n  dup3\n    /* \"--CODEGEN--\":2834:2843   */\n  dup15\n    /* \"--CODEGEN--\":2830:2852   */\n  add\n    /* \"--CODEGEN--\":2788:2862   */\n  jump(tag_42)\ntag_69:\n    /* \"--CODEGEN--\":2778:2862   */\n  swap3\n  pop\n    /* \"--CODEGEN--\":2669:2868   */\n  pop\n    /* \"--CODEGEN--\":2899:2902   */\n  0x0120\n    /* \"--CODEGEN--\":2918:2982   */\n  tag_70\n    /* \"--CODEGEN--\":2974:2981   */\n  dup14\n    /* \"--CODEGEN--\":2965:2971   */\n  dup3\n    /* \"--CODEGEN--\":2954:2963   */\n  dup15\n    /* \"--CODEGEN--\":2950:2972   */\n  add\n    /* \"--CODEGEN--\":2918:2982   */\n  jump(tag_34)\ntag_70:\n    /* \"--CODEGEN--\":2908:2982   */\n  swap2\n  pop\n    /* \"--CODEGEN--\":2878:2988   */\n  pop\n    /* \"--CODEGEN--\":1023:2998   */\n  swap3\n  swap6\n  swap9\n  swap12\n  swap2\n  swap5\n  swap8\n  swap11\n  pop\n  swap3\n  swap6\n  swap9\n  pop\n  jump\n    /* \"--CODEGEN--\":3005:3261   */\ntag_47:\n  0x00\n    /* \"--CODEGEN--\":3067:3069   */\n  0x40\n    /* \"--CODEGEN--\":3061:3070   */\n  mload\n    /* \"--CODEGEN--\":3051:3070   */\n  swap1\n  pop\n    /* \"--CODEGEN--\":3105:3109   */\n  dup2\n    /* \"--CODEGEN--\":3097:3103   */\n  dup2\n    /* \"--CODEGEN--\":3093:3110   */\n  add\n    /* \"--CODEGEN--\":3204:3210   */\n  dup2\n    /* \"--CODEGEN--\":3192:3202   */\n  dup2\n    /* \"--CODEGEN--\":3189:3211   */\n  lt\n    /* \"--CODEGEN--\":3168:3186   */\n  0xffffffffffffffff\n    /* \"--CODEGEN--\":3156:3166   */\n  dup3\n    /* \"--CODEGEN--\":3153:3187   */\n  gt\n    /* \"--CODEGEN--\":3150:3212   */\n  or\n    /* \"--CODEGEN--\":3147:3149   */\n  iszero\n  tag_72\n  jumpi\n    /* \"--CODEGEN--\":3225:3226   */\n  0x00\n    /* \"--CODEGEN--\":3222:3223   */\n  dup1\n    /* \"--CODEGEN--\":3215:3227   */\n  revert\n    /* \"--CODEGEN--\":3147:3149   */\ntag_72:\n    /* \"--CODEGEN--\":3245:3255   */\n  dup1\n    /* \"--CODEGEN--\":3241:3243   */\n  0x40\n    /* \"--CODEGEN--\":3234:3256   */\n  mstore\n    /* \"--CODEGEN--\":3045:3261   */\n  pop\n  swap2\n  swap1\n  pop\n  jump\n    /* \"--CODEGEN--\":3268:3527   */\ntag_46:\n  0x00\n    /* \"--CODEGEN--\":3412:3430   */\n  0xffffffffffffffff\n    /* \"--CODEGEN--\":3404:3410   */\n  dup3\n    /* \"--CODEGEN--\":3401:3431   */\n  gt\n    /* \"--CODEGEN--\":3398:3400   */\n  iszero\n  tag_74\n  jumpi\n    /* \"--CODEGEN--\":3444:3445   */\n  0x00\n    /* \"--CODEGEN--\":3441:3442   */\n  dup1\n    /* \"--CODEGEN--\":3434:3446   */\n  revert\n    /* \"--CODEGEN--\":3398:3400   */\ntag_74:\n    /* \"--CODEGEN--\":3488:3492   */\n  0x1f\n    /* \"--CODEGEN--\":3484:3493   */\n  not\n    /* \"--CODEGEN--\":3477:3481   */\n  0x1f\n    /* \"--CODEGEN--\":3469:3475   */\n  dup4\n    /* \"--CODEGEN--\":3465:3482   */\n  add\n    /* \"--CODEGEN--\":3461:3494   */\n  and\n    /* \"--CODEGEN--\":3453:3494   */\n  swap1\n  pop\n    /* \"--CODEGEN--\":3517:3521   */\n  0x20\n    /* \"--CODEGEN--\":3511:3515   */\n  dup2\n    /* \"--CODEGEN--\":3507:3522   */\n  add\n    /* \"--CODEGEN--\":3499:3522   */\n  swap1\n  pop\n    /* \"--CODEGEN--\":3335:3527   */\n  swap2\n  swap1\n  pop\n  jump\n    /* \"--CODEGEN--\":3534:3662   */\ntag_76:\n  0x00\n    /* \"--CODEGEN--\":3614:3656   */\n  0xffffffffffffffffffffffffffffffffffffffff\n    /* \"--CODEGEN--\":3607:3612   */\n  dup3\n    /* \"--CODEGEN--\":3603:3657   */\n  and\n    /* \"--CODEGEN--\":3592:3657   */\n  swap1\n  pop\n    /* \"--CODEGEN--\":3586:3662   */\n  swap2\n  swap1\n  pop\n  jump\n    /* \"--CODEGEN--\":3669:3774   */\ntag_36:\n  0x00\n    /* \"--CODEGEN--\":3738:3769   */\n  tag_78\n    /* \"--CODEGEN--\":3763:3768   */\n  dup3\n    /* \"--CODEGEN--\":3738:3769   */\n  jump(tag_76)\ntag_78:\n    /* \"--CODEGEN--\":3727:3769   */\n  swap1\n  pop\n    /* \"--CODEGEN--\":3721:3774   */\n  swap2\n  swap1\n  pop\n  jump\n    /* \"--CODEGEN--\":3781:3859   */\ntag_40:\n  0x00\n    /* \"--CODEGEN--\":3849:3854   */\n  dup2\n    /* \"--CODEGEN--\":3838:3854   */\n  swap1\n  pop\n    /* \"--CODEGEN--\":3832:3859   */\n  swap2\n  swap1\n  pop\n  jump\n    /* \"--CODEGEN--\":3867:4135   */\ntag_50:\n    /* \"--CODEGEN--\":3932:3933   */\n  0x00\n    /* \"--CODEGEN--\":3939:4040   */\ntag_81:\n    /* \"--CODEGEN--\":3953:3959   */\n  dup4\n    /* \"--CODEGEN--\":3950:3951   */\n  dup2\n    /* \"--CODEGEN--\":3947:3960   */\n  lt\n    /* \"--CODEGEN--\":3939:4040   */\n  iszero\n  tag_82\n  jumpi\n    /* \"--CODEGEN--\":4029:4030   */\n  dup1\n    /* \"--CODEGEN--\":4024:4027   */\n  dup3\n    /* \"--CODEGEN--\":4020:4031   */\n  add\n    /* \"--CODEGEN--\":4014:4032   */\n  mload\n    /* \"--CODEGEN--\":4010:4011   */\n  dup2\n    /* \"--CODEGEN--\":4005:4008   */\n  dup5\n    /* \"--CODEGEN--\":4001:4012   */\n  add\n    /* \"--CODEGEN--\":3994:4033   */\n  mstore\n    /* \"--CODEGEN--\":3975:3977   */\n  0x20\n    /* \"--CODEGEN--\":3972:3973   */\n  dup2\n    /* \"--CODEGEN--\":3968:3978   */\n  add\n    /* \"--CODEGEN--\":3963:3978   */\n  swap1\n  pop\n    /* \"--CODEGEN--\":3939:4040   */\n  jump(tag_81)\ntag_82:\n    /* \"--CODEGEN--\":4055:4061   */\n  dup4\n    /* \"--CODEGEN--\":4052:4053   */\n  dup2\n    /* \"--CODEGEN--\":4049:4062   */\n  gt\n    /* \"--CODEGEN--\":4046:4048   */\n  iszero\n  tag_84\n  jumpi\n    /* \"--CODEGEN--\":4120:4121   */\n  0x00\n    /* \"--CODEGEN--\":4111:4117   */\n  dup5\n    /* \"--CODEGEN--\":4106:4109   */\n  dup5\n    /* \"--CODEGEN--\":4102:4118   */\n  add\n    /* \"--CODEGEN--\":4095:4122   */\n  mstore\n    /* \"--CODEGEN--\":4046:4048   */\ntag_84:\n    /* \"--CODEGEN--\":3916:4135   */\n  pop\n  pop\n  pop\n  pop\n  jump\n    /* \"background.sol\":3420:10435  contract MedicalRecord {\r... */\ntag_18:\n  dataSize(sub_0)\n  dup1\n  dataOffset(sub_0)\n  0x00\n  codecopy\n  0x00\n  return\nstop\n\nsub_0: assembly {\n        /* \"background.sol\":3420:10435  contract MedicalRecord {\r... */\n      mstore(0x40, 0x80)\n      callvalue\n        /* \"--CODEGEN--\":8:17   */\n      dup1\n        /* \"--CODEGEN--\":5:7   */\n      iszero\n      tag_1\n      jumpi\n        /* \"--CODEGEN--\":30:31   */\n      0x00\n        /* \"--CODEGEN--\":27:28   */\n      dup1\n        /* \"--CODEGEN--\":20:32   */\n      revert\n        /* \"--CODEGEN--\":5:7   */\n    tag_1:\n        /* \"background.sol\":3420:10435  contract MedicalRecord {\r... */\n      pop\n      jumpi(tag_2, lt(calldatasize, 0x04))\n      calldataload(0x00)\n      0x0100000000000000000000000000000000000000000000000000000000\n      swap1\n      div\n      dup1\n      0x4344b743\n      gt\n      tag_12\n      jumpi\n      dup1\n      0x4344b743\n      eq\n      tag_7\n      jumpi\n      dup1\n      0x7cf1e445\n      eq\n      tag_8\n      jumpi\n      dup1\n      0x7ec35b0a\n      eq\n      tag_9\n      jumpi\n      dup1\n      0xc42b4654\n      eq\n      tag_10\n      jumpi\n      dup1\n      0xd7065558\n      eq\n      tag_11\n      jumpi\n      jump(tag_2)\n    tag_12:\n      dup1\n      0x05087bf0\n      eq\n      tag_3\n      jumpi\n      dup1\n      0x13454beb\n      eq\n      tag_4\n      jumpi\n      dup1\n      0x224b610b\n      eq\n      tag_5\n      jumpi\n      dup1\n      0x316b4619\n      eq\n      tag_6\n      jumpi\n    tag_2:\n      0x00\n      dup1\n      revert\n        /* \"background.sol\":8287:8518  function addInsurance(string memory insurancee, string memory pass) public {\r... */\n    tag_3:\n      tag_13\n      0x04\n      dup1\n      calldatasize\n      sub\n      tag_14\n      swap2\n      swap1\n      dup2\n      add\n      swap1\n      jump(tag_15)\n    tag_14:\n      tag_16\n      jump\t// in\n    tag_13:\n      stop\n        /* \"background.sol\":5070:5949  function addFiles(string memory billingDataa, string memory radiologyImagess, string memory labResultss, string memory insurancee) public {\r... */\n    tag_4:\n      tag_17\n      0x04\n      dup1\n      calldatasize\n      sub\n      tag_18\n      swap2\n      swap1\n      dup2\n      add\n      swap1\n      jump(tag_19)\n    tag_18:\n      tag_20\n      jump\t// in\n    tag_17:\n      stop\n        /* \"background.sol\":4312:4334  string public password */\n    tag_5:\n      tag_21\n      tag_22\n      jump\t// in\n    tag_21:\n      mload(0x40)\n      tag_23\n      swap2\n      swap1\n      jump(tag_24)\n    tag_23:\n      mload(0x40)\n      dup1\n      swap2\n      sub\n      swap1\n      return\n        /* \"background.sol\":5961:6795  function updateNondemographics(string memory medicalHistoryy, string memory diagnosiss, string memory medicationss,\r... */\n    tag_6:\n      tag_25\n      0x04\n      dup1\n      calldatasize\n      sub\n      tag_26\n      swap2\n      swap1\n      dup2\n      add\n      swap1\n      jump(tag_27)\n    tag_26:\n      tag_28\n      jump\t// in\n    tag_25:\n      stop\n        /* \"background.sol\":8530:9858  function getPatientData() public view returns(bool, PatientDemographics memory, PatientNonDemographics memory, Files memory) {\r... */\n    tag_7:\n      tag_29\n      tag_30\n      jump\t// in\n    tag_29:\n      mload(0x40)\n      tag_31\n      swap5\n      swap4\n      swap3\n      swap2\n      swap1\n      jump(tag_32)\n    tag_31:\n      mload(0x40)\n      dup1\n      swap2\n      sub\n      swap1\n      return\n        /* \"background.sol\":7513:7722  function addDoctor(address doc, string memory pass) public {\r... */\n    tag_8:\n      tag_33\n      0x04\n      dup1\n      calldatasize\n      sub\n      tag_34\n      swap2\n      swap1\n      dup2\n      add\n      swap1\n      jump(tag_35)\n    tag_34:\n      tag_36\n      jump\t// in\n    tag_33:\n      stop\n        /* \"background.sol\":7249:7501  function isCorrectPassword(string memory pass) public view returns(bool) {\r... */\n    tag_9:\n      tag_37\n      0x04\n      dup1\n      calldatasize\n      sub\n      tag_38\n      swap2\n      swap1\n      dup2\n      add\n      swap1\n      jump(tag_39)\n    tag_38:\n      tag_40\n      jump\t// in\n    tag_37:\n      mload(0x40)\n      tag_41\n      swap2\n      swap1\n      jump(tag_42)\n    tag_41:\n      mload(0x40)\n      dup1\n      swap2\n      sub\n      swap1\n      return\n        /* \"background.sol\":4253:4299  mapping(address => bool) public doctorsAllowed */\n    tag_10:\n      tag_43\n      0x04\n      dup1\n      calldatasize\n      sub\n      tag_44\n      swap2\n      swap1\n      dup2\n      add\n      swap1\n      jump(tag_45)\n    tag_44:\n      tag_46\n      jump\t// in\n    tag_43:\n      mload(0x40)\n      tag_47\n      swap2\n      swap1\n      jump(tag_42)\n    tag_47:\n      mload(0x40)\n      dup1\n      swap2\n      sub\n      swap1\n      return\n        /* \"background.sol\":6807:7237  function isDoctorAllowed(address add) public view returns(bool) {\r... */\n    tag_11:\n      tag_48\n      0x04\n      dup1\n      calldatasize\n      sub\n      tag_49\n      swap2\n      swap1\n      dup2\n      add\n      swap1\n      jump(tag_45)\n    tag_49:\n      tag_50\n      jump\t// in\n    tag_48:\n      mload(0x40)\n      tag_51\n      swap2\n      swap1\n      jump(tag_42)\n    tag_51:\n      mload(0x40)\n      dup1\n      swap2\n      sub\n      swap1\n      return\n        /* \"background.sol\":8287:8518  function addInsurance(string memory insurancee, string memory pass) public {\r... */\n    tag_16:\n        /* \"background.sol\":8440:8448  password */\n      0x15\n        /* \"background.sol\":8423:8449  abi.encodePacked(password) */\n      add(0x20, mload(0x40))\n      dup1\n      dup3\n      dup1\n      sload\n      0x01\n      dup2\n      0x01\n      and\n      iszero\n      0x0100\n      mul\n      sub\n      and\n      0x02\n      swap1\n      div\n      dup1\n      iszero\n      tag_53\n      jumpi\n      dup1\n      0x1f\n      lt\n      tag_54\n      jumpi\n      0x0100\n      dup1\n      dup4\n      sload\n      div\n      mul\n      dup4\n      mstore\n      swap2\n      dup3\n      add\n      swap2\n      jump(tag_53)\n    tag_54:\n      dup3\n      add\n      swap2\n      swap1\n      0x00\n      mstore\n      keccak256(0x00, 0x20)\n      swap1\n    tag_55:\n      dup2\n      sload\n      dup2\n      mstore\n      swap1\n      0x01\n      add\n      swap1\n      0x20\n      add\n      dup1\n      dup4\n      gt\n      tag_55\n      jumpi\n    tag_53:\n      pop\n      pop\n      swap2\n      pop\n      pop\n      mload(0x40)\n        /* \"--CODEGEN--\":49:53   */\n      0x20\n        /* \"--CODEGEN--\":39:46   */\n      dup2\n        /* \"--CODEGEN--\":30:37   */\n      dup4\n        /* \"--CODEGEN--\":26:47   */\n      sub\n        /* \"--CODEGEN--\":22:54   */\n      sub\n        /* \"--CODEGEN--\":13:20   */\n      dup2\n        /* \"--CODEGEN--\":6:55   */\n      mstore\n        /* \"background.sol\":8423:8449  abi.encodePacked(password) */\n      swap1\n      0x40\n      mstore\n        /* \"background.sol\":8413:8450  keccak256(abi.encodePacked(password)) */\n      dup1\n      mload\n      swap1\n      0x20\n      add\n      keccak256\n        /* \"background.sol\":8403:8407  pass */\n      dup2\n        /* \"background.sol\":8386:8408  abi.encodePacked(pass) */\n      add(0x20, mload(0x40))\n      dup1\n      dup3\n      dup1\n      mload\n      swap1\n      0x20\n      add\n      swap1\n      dup1\n      dup4\n      dup4\n        /* \"--CODEGEN--\":36:189   */\n    tag_56:\n        /* \"--CODEGEN--\":66:68   */\n      0x20\n        /* \"--CODEGEN--\":61:64   */\n      dup4\n        /* \"--CODEGEN--\":58:69   */\n      lt\n        /* \"--CODEGEN--\":51:70   */\n      iszero\n        /* \"--CODEGEN--\":36:189   */\n      iszero\n      tag_57\n      jumpi\n        /* \"--CODEGEN--\":182:185   */\n      dup1\n        /* \"--CODEGEN--\":176:186   */\n      mload\n        /* \"--CODEGEN--\":171:174   */\n      dup3\n        /* \"--CODEGEN--\":164:187   */\n      mstore\n        /* \"--CODEGEN--\":98:100   */\n      0x20\n        /* \"--CODEGEN--\":93:96   */\n      dup3\n        /* \"--CODEGEN--\":89:101   */\n      add\n        /* \"--CODEGEN--\":82:101   */\n      swap2\n      pop\n        /* \"--CODEGEN--\":123:125   */\n      0x20\n        /* \"--CODEGEN--\":118:121   */\n      dup2\n        /* \"--CODEGEN--\":114:126   */\n      add\n        /* \"--CODEGEN--\":107:126   */\n      swap1\n      pop\n        /* \"--CODEGEN--\":148:150   */\n      0x20\n        /* \"--CODEGEN--\":143:146   */\n      dup4\n        /* \"--CODEGEN--\":139:151   */\n      sub\n        /* \"--CODEGEN--\":132:151   */\n      swap3\n      pop\n        /* \"--CODEGEN--\":36:189   */\n      jump(tag_56)\n    tag_57:\n        /* \"--CODEGEN--\":274:275   */\n      0x01\n        /* \"--CODEGEN--\":267:270   */\n      dup4\n        /* \"--CODEGEN--\":263:265   */\n      0x20\n        /* \"--CODEGEN--\":259:271   */\n      sub\n        /* \"--CODEGEN--\":254:257   */\n      0x0100\n        /* \"--CODEGEN--\":250:272   */\n      exp\n        /* \"--CODEGEN--\":246:276   */\n      sub\n        /* \"--CODEGEN--\":315:319   */\n      dup1\n        /* \"--CODEGEN--\":311:320   */\n      not\n        /* \"--CODEGEN--\":305:308   */\n      dup3\n        /* \"--CODEGEN--\":299:309   */\n      mload\n        /* \"--CODEGEN--\":295:321   */\n      and\n        /* \"--CODEGEN--\":356:360   */\n      dup2\n        /* \"--CODEGEN--\":350:353   */\n      dup5\n        /* \"--CODEGEN--\":344:354   */\n      mload\n        /* \"--CODEGEN--\":340:361   */\n      and\n        /* \"--CODEGEN--\":389:396   */\n      dup1\n        /* \"--CODEGEN--\":380:387   */\n      dup3\n        /* \"--CODEGEN--\":377:397   */\n      or\n        /* \"--CODEGEN--\":372:375   */\n      dup6\n        /* \"--CODEGEN--\":365:398   */\n      mstore\n        /* \"--CODEGEN--\":3:402   */\n      pop\n      pop\n      pop\n        /* \"background.sol\":8386:8408  abi.encodePacked(pass) */\n      pop\n      pop\n      pop\n      swap1\n      pop\n      add\n      swap2\n      pop\n      pop\n      mload(0x40)\n        /* \"--CODEGEN--\":49:53   */\n      0x20\n        /* \"--CODEGEN--\":39:46   */\n      dup2\n        /* \"--CODEGEN--\":30:37   */\n      dup4\n        /* \"--CODEGEN--\":26:47   */\n      sub\n        /* \"--CODEGEN--\":22:54   */\n      sub\n        /* \"--CODEGEN--\":13:20   */\n      dup2\n        /* \"--CODEGEN--\":6:55   */\n      mstore\n        /* \"background.sol\":8386:8408  abi.encodePacked(pass) */\n      swap1\n      0x40\n      mstore\n        /* \"background.sol\":8376:8409  keccak256(abi.encodePacked(pass)) */\n      dup1\n      mload\n      swap1\n      0x20\n      add\n      keccak256\n        /* \"background.sol\":8376:8450  keccak256(abi.encodePacked(pass)) == keccak256(abi.encodePacked(password)) */\n      eq\n        /* \"background.sol\":8373:8511  if(keccak256(abi.encodePacked(pass)) == keccak256(abi.encodePacked(password))) {\r... */\n      iszero\n      tag_59\n      jumpi\n        /* \"background.sol\":8467:8472  files */\n      0x10\n        /* \"background.sol\":8467:8482  files.insurance */\n      0x03\n      add\n        /* \"background.sol\":8488:8498  insurancee */\n      dup3\n        /* \"background.sol\":8467:8499  files.insurance.push(insurancee) */\n      swap1\n      dup1\n        /* \"--CODEGEN--\":39:40   */\n      0x01\n        /* \"--CODEGEN--\":33:36   */\n      dup2\n        /* \"--CODEGEN--\":27:37   */\n      sload\n        /* \"--CODEGEN--\":23:41   */\n      add\n        /* \"--CODEGEN--\":57:67   */\n      dup1\n        /* \"--CODEGEN--\":52:55   */\n      dup3\n        /* \"--CODEGEN--\":45:68   */\n      sstore\n        /* \"--CODEGEN--\":79:89   */\n      dup1\n        /* \"--CODEGEN--\":72:89   */\n      swap2\n      pop\n        /* \"--CODEGEN--\":0:93   */\n      pop\n        /* \"background.sol\":8467:8499  files.insurance.push(insurancee) */\n      swap1\n      0x01\n      dup3\n      sub\n      swap1\n      0x00\n      mstore\n      keccak256(0x00, 0x20)\n      add\n      0x00\n      swap1\n      swap2\n      swap3\n      swap1\n      swap2\n      swap1\n      swap2\n      pop\n      swap1\n      dup1\n      mload\n      swap1\n      0x20\n      add\n      swap1\n      tag_61\n      swap3\n      swap2\n      swap1\n      tag_62\n      jump\t// in\n    tag_61:\n      pop\n      pop\n        /* \"background.sol\":8373:8511  if(keccak256(abi.encodePacked(pass)) == keccak256(abi.encodePacked(password))) {\r... */\n    tag_59:\n        /* \"background.sol\":8287:8518  function addInsurance(string memory insurancee, string memory pass) public {\r... */\n      pop\n      pop\n      jump\t// out\n        /* \"background.sol\":5070:5949  function addFiles(string memory billingDataa, string memory radiologyImagess, string memory labResultss, string memory insurancee) public {\r... */\n    tag_20:\n        /* \"background.sol\":5222:5249  isDoctorAllowed(msg.sender) */\n      tag_64\n        /* \"background.sol\":5238:5248  msg.sender */\n      caller\n        /* \"background.sol\":5222:5237  isDoctorAllowed */\n      tag_50\n        /* \"background.sol\":5222:5249  isDoctorAllowed(msg.sender) */\n      jump\t// in\n    tag_64:\n        /* \"background.sol\":5219:5942  if(isDoctorAllowed(msg.sender)) {\r... */\n      iszero\n      tag_65\n      jumpi\n        /* \"background.sol\":5326:5346  abi.encodePacked(\"\") */\n      add(0x20, mload(0x40))\n      dup1\n      0x00\n      add\n      swap1\n      pop\n      mload(0x40)\n        /* \"--CODEGEN--\":49:53   */\n      0x20\n        /* \"--CODEGEN--\":39:46   */\n      dup2\n        /* \"--CODEGEN--\":30:37   */\n      dup4\n        /* \"--CODEGEN--\":26:47   */\n      sub\n        /* \"--CODEGEN--\":22:54   */\n      sub\n        /* \"--CODEGEN--\":13:20   */\n      dup2\n        /* \"--CODEGEN--\":6:55   */\n      mstore\n        /* \"background.sol\":5326:5346  abi.encodePacked(\"\") */\n      swap1\n      0x40\n      mstore\n        /* \"background.sol\":5316:5347  keccak256(abi.encodePacked(\"\")) */\n      dup1\n      mload\n      swap1\n      0x20\n      add\n      keccak256\n        /* \"background.sol\":5298:5310  billingDataa */\n      dup5\n        /* \"background.sol\":5281:5311  abi.encodePacked(billingDataa) */\n      add(0x20, mload(0x40))\n      dup1\n      dup3\n      dup1\n      mload\n      swap1\n      0x20\n      add\n      swap1\n      dup1\n      dup4\n      dup4\n        /* \"--CODEGEN--\":36:189   */\n    tag_66:\n        /* \"--CODEGEN--\":66:68   */\n      0x20\n        /* \"--CODEGEN--\":61:64   */\n      dup4\n        /* \"--CODEGEN--\":58:69   */\n      lt\n        /* \"--CODEGEN--\":51:70   */\n      iszero\n        /* \"--CODEGEN--\":36:189   */\n      iszero\n      tag_67\n      jumpi\n        /* \"--CODEGEN--\":182:185   */\n      dup1\n        /* \"--CODEGEN--\":176:186   */\n      mload\n        /* \"--CODEGEN--\":171:174   */\n      dup3\n        /* \"--CODEGEN--\":164:187   */\n      mstore\n        /* \"--CODEGEN--\":98:100   */\n      0x20\n        /* \"--CODEGEN--\":93:96   */\n      dup3\n        /* \"--CODEGEN--\":89:101   */\n      add\n        /* \"--CODEGEN--\":82:101   */\n      swap2\n      pop\n        /* \"--CODEGEN--\":123:125   */\n      0x20\n        /* \"--CODEGEN--\":118:121   */\n      dup2\n        /* \"--CODEGEN--\":114:126   */\n      add\n        /* \"--CODEGEN--\":107:126   */\n      swap1\n      pop\n        /* \"--CODEGEN--\":148:150   */\n      0x20\n        /* \"--CODEGEN--\":143:146   */\n      dup4\n        /* \"--CODEGEN--\":139:151   */\n      sub\n        /* \"--CODEGEN--\":132:151   */\n      swap3\n      pop\n        /* \"--CODEGEN--\":36:189   */\n      jump(tag_66)\n    tag_67:\n        /* \"--CODEGEN--\":274:275   */\n      0x01\n        /* \"--CODEGEN--\":267:270   */\n      dup4\n        /* \"--CODEGEN--\":263:265   */\n      0x20\n        /* \"--CODEGEN--\":259:271   */\n      sub\n        /* \"--CODEGEN--\":254:257   */\n      0x0100\n        /* \"--CODEGEN--\":250:272   */\n      exp\n        /* \"--CODEGEN--\":246:276   */\n      sub\n        /* \"--CODEGEN--\":315:319   */\n      dup1\n        /* \"--CODEGEN--\":311:320   */\n      not\n        /* \"--CODEGEN--\":305:308   */\n      dup3\n        /* \"--CODEGEN--\":299:309   */\n      mload\n        /* \"--CODEGEN--\":295:321   */\n      and\n        /* \"--CODEGEN--\":356:360   */\n      dup2\n        /* \"--CODEGEN--\":350:353   */\n      dup5\n        /* \"--CODEGEN--\":344:354   */\n      mload\n        /* \"--CODEGEN--\":340:361   */\n      and\n        /* \"--CODEGEN--\":389:396   */\n      dup1\n        /* \"--CODEGEN--\":380:387   */\n      dup3\n        /* \"--CODEGEN--\":377:397   */\n      or\n        /* \"--CODEGEN--\":372:375   */\n      dup6\n        /* \"--CODEGEN--\":365:398   */\n      mstore\n        /* \"--CODEGEN--\":3:402   */\n      pop\n      pop\n      pop\n        /* \"background.sol\":5281:5311  abi.encodePacked(billingDataa) */\n      pop\n      pop\n      pop\n      swap1\n      pop\n      add\n      swap2\n      pop\n      pop\n      mload(0x40)\n        /* \"--CODEGEN--\":49:53   */\n      0x20\n        /* \"--CODEGEN--\":39:46   */\n      dup2\n        /* \"--CODEGEN--\":30:37   */\n      dup4\n        /* \"--CODEGEN--\":26:47   */\n      sub\n        /* \"--CODEGEN--\":22:54   */\n      sub\n        /* \"--CODEGEN--\":13:20   */\n      dup2\n        /* \"--CODEGEN--\":6:55   */\n      mstore\n        /* \"background.sol\":5281:5311  abi.encodePacked(billingDataa) */\n      swap1\n      0x40\n      mstore\n        /* \"background.sol\":5271:5312  keccak256(abi.encodePacked(billingDataa)) */\n      dup1\n      mload\n      swap1\n      0x20\n      add\n      keccak256\n        /* \"background.sol\":5271:5347  keccak256(abi.encodePacked(billingDataa)) == keccak256(abi.encodePacked(\"\")) */\n      eq\n        /* \"background.sol\":5269:5348  !(keccak256(abi.encodePacked(billingDataa)) == keccak256(abi.encodePacked(\"\"))) */\n      iszero\n        /* \"background.sol\":5266:5421  if(!(keccak256(abi.encodePacked(billingDataa)) == keccak256(abi.encodePacked(\"\")))) {\r... */\n      iszero\n      tag_69\n      jumpi\n        /* \"background.sol\":5369:5374  files */\n      0x10\n        /* \"background.sol\":5369:5386  files.billingData */\n      0x00\n      add\n        /* \"background.sol\":5392:5404  billingDataa */\n      dup5\n        /* \"background.sol\":5369:5405  files.billingData.push(billingDataa) */\n      swap1\n      dup1\n        /* \"--CODEGEN--\":39:40   */\n      0x01\n        /* \"--CODEGEN--\":33:36   */\n      dup2\n        /* \"--CODEGEN--\":27:37   */\n      sload\n        /* \"--CODEGEN--\":23:41   */\n      add\n        /* \"--CODEGEN--\":57:67   */\n      dup1\n        /* \"--CODEGEN--\":52:55   */\n      dup3\n        /* \"--CODEGEN--\":45:68   */\n      sstore\n        /* \"--CODEGEN--\":79:89   */\n      dup1\n        /* \"--CODEGEN--\":72:89   */\n      swap2\n      pop\n        /* \"--CODEGEN--\":0:93   */\n      pop\n        /* \"background.sol\":5369:5405  files.billingData.push(billingDataa) */\n      swap1\n      0x01\n      dup3\n      sub\n      swap1\n      0x00\n      mstore\n      keccak256(0x00, 0x20)\n      add\n      0x00\n      swap1\n      swap2\n      swap3\n      swap1\n      swap2\n      swap1\n      swap2\n      pop\n      swap1\n      dup1\n      mload\n      swap1\n      0x20\n      add\n      swap1\n      tag_71\n      swap3\n      swap2\n      swap1\n      tag_62\n      jump\t// in\n    tag_71:\n      pop\n      pop\n        /* \"background.sol\":5266:5421  if(!(keccak256(abi.encodePacked(billingDataa)) == keccak256(abi.encodePacked(\"\")))) {\r... */\n    tag_69:\n        /* \"background.sol\":5499:5519  abi.encodePacked(\"\") */\n      add(0x20, mload(0x40))\n      dup1\n      0x00\n      add\n      swap1\n      pop\n      mload(0x40)\n        /* \"--CODEGEN--\":49:53   */\n      0x20\n        /* \"--CODEGEN--\":39:46   */\n      dup2\n        /* \"--CODEGEN--\":30:37   */\n      dup4\n        /* \"--CODEGEN--\":26:47   */\n      sub\n        /* \"--CODEGEN--\":22:54   */\n      sub\n        /* \"--CODEGEN--\":13:20   */\n      dup2\n        /* \"--CODEGEN--\":6:55   */\n      mstore\n        /* \"background.sol\":5499:5519  abi.encodePacked(\"\") */\n      swap1\n      0x40\n      mstore\n        /* \"background.sol\":5489:5520  keccak256(abi.encodePacked(\"\")) */\n      dup1\n      mload\n      swap1\n      0x20\n      add\n      keccak256\n        /* \"background.sol\":5467:5483  radiologyImagess */\n      dup4\n        /* \"background.sol\":5450:5484  abi.encodePacked(radiologyImagess) */\n      add(0x20, mload(0x40))\n      dup1\n      dup3\n      dup1\n      mload\n      swap1\n      0x20\n      add\n      swap1\n      dup1\n      dup4\n      dup4\n        /* \"--CODEGEN--\":36:189   */\n    tag_72:\n        /* \"--CODEGEN--\":66:68   */\n      0x20\n        /* \"--CODEGEN--\":61:64   */\n      dup4\n        /* \"--CODEGEN--\":58:69   */\n      lt\n        /* \"--CODEGEN--\":51:70   */\n      iszero\n        /* \"--CODEGEN--\":36:189   */\n      iszero\n      tag_73\n      jumpi\n        /* \"--CODEGEN--\":182:185   */\n      dup1\n        /* \"--CODEGEN--\":176:186   */\n      mload\n        /* \"--CODEGEN--\":171:174   */\n      dup3\n        /* \"--CODEGEN--\":164:187   */\n      mstore\n        /* \"--CODEGEN--\":98:100   */\n      0x20\n        /* \"--CODEGEN--\":93:96   */\n      dup3\n        /* \"--CODEGEN--\":89:101   */\n      add\n        /* \"--CODEGEN--\":82:101   */\n      swap2\n      pop\n        /* \"--CODEGEN--\":123:125   */\n      0x20\n        /* \"--CODEGEN--\":118:121   */\n      dup2\n        /* \"--CODEGEN--\":114:126   */\n      add\n        /* \"--CODEGEN--\":107:126   */\n      swap1\n      pop\n        /* \"--CODEGEN--\":148:150   */\n      0x20\n        /* \"--CODEGEN--\":143:146   */\n      dup4\n        /* \"--CODEGEN--\":139:151   */\n      sub\n        /* \"--CODEGEN--\":132:151   */\n      swap3\n      pop\n        /* \"--CODEGEN--\":36:189   */\n      jump(tag_72)\n    tag_73:\n        /* \"--CODEGEN--\":274:275   */\n      0x01\n        /* \"--CODEGEN--\":267:270   */\n      dup4\n        /* \"--CODEGEN--\":263:265   */\n      0x20\n        /* \"--CODEGEN--\":259:271   */\n      sub\n        /* \"--CODEGEN--\":254:257   */\n      0x0100\n        /* \"--CODEGEN--\":250:272   */\n      exp\n        /* \"--CODEGEN--\":246:276   */\n      sub\n        /* \"--CODEGEN--\":315:319   */\n      dup1\n        /* \"--CODEGEN--\":311:320   */\n      not\n        /* \"--CODEGEN--\":305:308   */\n      dup3\n        /* \"--CODEGEN--\":299:309   */\n      mload\n        /* \"--CODEGEN--\":295:321   */\n      and\n        /* \"--CODEGEN--\":356:360   */\n      dup2\n        /* \"--CODEGEN--\":350:353   */\n      dup5\n        /* \"--CODEGEN--\":344:354   */\n      mload\n        /* \"--CODEGEN--\":340:361   */\n      and\n        /* \"--CODEGEN--\":389:396   */\n      dup1\n        /* \"--CODEGEN--\":380:387   */\n      dup3\n        /* \"--CODEGEN--\":377:397   */\n      or\n        /* \"--CODEGEN--\":372:375   */\n      dup6\n        /* \"--CODEGEN--\":365:398   */\n      mstore\n        /* \"--CODEGEN--\":3:402   */\n      pop\n      pop\n      pop\n        /* \"background.sol\":5450:5484  abi.encodePacked(radiologyImagess) */\n      pop\n      pop\n      pop\n      swap1\n      pop\n      add\n      swap2\n      pop\n      pop\n      mload(0x40)\n        /* \"--CODEGEN--\":49:53   */\n      0x20\n        /* \"--CODEGEN--\":39:46   */\n      dup2\n        /* \"--CODEGEN--\":30:37   */\n      dup4\n        /* \"--CODEGEN--\":26:47   */\n      sub\n        /* \"--CODEGEN--\":22:54   */\n      sub\n        /* \"--CODEGEN--\":13:20   */\n      dup2\n        /* \"--CODEGEN--\":6:55   */\n      mstore\n        /* \"background.sol\":5450:5484  abi.encodePacked(radiologyImagess) */\n      swap1\n      0x40\n      mstore\n        /* \"background.sol\":5440:5485  keccak256(abi.encodePacked(radiologyImagess)) */\n      dup1\n      mload\n      swap1\n      0x20\n      add\n      keccak256\n        /* \"background.sol\":5440:5520  keccak256(abi.encodePacked(radiologyImagess)) == keccak256(abi.encodePacked(\"\")) */\n      eq\n        /* \"background.sol\":5438:5521  !(keccak256(abi.encodePacked(radiologyImagess)) == keccak256(abi.encodePacked(\"\"))) */\n      iszero\n        /* \"background.sol\":5435:5602  if(!(keccak256(abi.encodePacked(radiologyImagess)) == keccak256(abi.encodePacked(\"\")))) {\r... */\n      iszero\n      tag_75\n      jumpi\n        /* \"background.sol\":5542:5547  files */\n      0x10\n        /* \"background.sol\":5542:5563  files.radiologyImages */\n      0x01\n      add\n        /* \"background.sol\":5569:5585  radiologyImagess */\n      dup4\n        /* \"background.sol\":5542:5586  files.radiologyImages.push(radiologyImagess) */\n      swap1\n      dup1\n        /* \"--CODEGEN--\":39:40   */\n      0x01\n        /* \"--CODEGEN--\":33:36   */\n      dup2\n        /* \"--CODEGEN--\":27:37   */\n      sload\n        /* \"--CODEGEN--\":23:41   */\n      add\n        /* \"--CODEGEN--\":57:67   */\n      dup1\n        /* \"--CODEGEN--\":52:55   */\n      dup3\n        /* \"--CODEGEN--\":45:68   */\n      sstore\n        /* \"--CODEGEN--\":79:89   */\n      dup1\n        /* \"--CODEGEN--\":72:89   */\n      swap2\n      pop\n        /* \"--CODEGEN--\":0:93   */\n      pop\n        /* \"background.sol\":5542:5586  files.radiologyImages.push(radiologyImagess) */\n      swap1\n      0x01\n      dup3\n      sub\n      swap1\n      0x00\n      mstore\n      keccak256(0x00, 0x20)\n      add\n      0x00\n      swap1\n      swap2\n      swap3\n      swap1\n      swap2\n      swap1\n      swap2\n      pop\n      swap1\n      dup1\n      mload\n      swap1\n      0x20\n      add\n      swap1\n      tag_77\n      swap3\n      swap2\n      swap1\n      tag_62\n      jump\t// in\n    tag_77:\n      pop\n      pop\n        /* \"background.sol\":5435:5602  if(!(keccak256(abi.encodePacked(radiologyImagess)) == keccak256(abi.encodePacked(\"\")))) {\r... */\n    tag_75:\n        /* \"background.sol\":5675:5695  abi.encodePacked(\"\") */\n      add(0x20, mload(0x40))\n      dup1\n      0x00\n      add\n      swap1\n      pop\n      mload(0x40)\n        /* \"--CODEGEN--\":49:53   */\n      0x20\n        /* \"--CODEGEN--\":39:46   */\n      dup2\n        /* \"--CODEGEN--\":30:37   */\n      dup4\n        /* \"--CODEGEN--\":26:47   */\n      sub\n        /* \"--CODEGEN--\":22:54   */\n      sub\n        /* \"--CODEGEN--\":13:20   */\n      dup2\n        /* \"--CODEGEN--\":6:55   */\n      mstore\n        /* \"background.sol\":5675:5695  abi.encodePacked(\"\") */\n      swap1\n      0x40\n      mstore\n        /* \"background.sol\":5665:5696  keccak256(abi.encodePacked(\"\")) */\n      dup1\n      mload\n      swap1\n      0x20\n      add\n      keccak256\n        /* \"background.sol\":5648:5659  labResultss */\n      dup3\n        /* \"background.sol\":5631:5660  abi.encodePacked(labResultss) */\n      add(0x20, mload(0x40))\n      dup1\n      dup3\n      dup1\n      mload\n      swap1\n      0x20\n      add\n      swap1\n      dup1\n      dup4\n      dup4\n        /* \"--CODEGEN--\":36:189   */\n    tag_78:\n        /* \"--CODEGEN--\":66:68   */\n      0x20\n        /* \"--CODEGEN--\":61:64   */\n      dup4\n        /* \"--CODEGEN--\":58:69   */\n      lt\n        /* \"--CODEGEN--\":51:70   */\n      iszero\n        /* \"--CODEGEN--\":36:189   */\n      iszero\n      tag_79\n      jumpi\n        /* \"--CODEGEN--\":182:185   */\n      dup1\n        /* \"--CODEGEN--\":176:186   */\n      mload\n        /* \"--CODEGEN--\":171:174   */\n      dup3\n        /* \"--CODEGEN--\":164:187   */\n      mstore\n        /* \"--CODEGEN--\":98:100   */\n      0x20\n        /* \"--CODEGEN--\":93:96   */\n      dup3\n        /* \"--CODEGEN--\":89:101   */\n      add\n        /* \"--CODEGEN--\":82:101   */\n      swap2\n      pop\n        /* \"--CODEGEN--\":123:125   */\n      0x20\n        /* \"--CODEGEN--\":118:121   */\n      dup2\n        /* \"--CODEGEN--\":114:126   */\n      add\n        /* \"--CODEGEN--\":107:126   */\n      swap1\n      pop\n        /* \"--CODEGEN--\":148:150   */\n      0x20\n        /* \"--CODEGEN--\":143:146   */\n      dup4\n        /* \"--CODEGEN--\":139:151   */\n      sub\n        /* \"--CODEGEN--\":132:151   */\n      swap3\n      pop\n        /* \"--CODEGEN--\":36:189   */\n      jump(tag_78)\n    tag_79:\n        /* \"--CODEGEN--\":274:275   */\n      0x01\n        /* \"--CODEGEN--\":267:270   */\n      dup4\n        /* \"--CODEGEN--\":263:265   */\n      0x20\n        /* \"--CODEGEN--\":259:271   */\n      sub\n        /* \"--CODEGEN--\":254:257   */\n      0x0100\n        /* \"--CODEGEN--\":250:272   */\n      exp\n        /* \"--CODEGEN--\":246:276   */\n      sub\n        /* \"--CODEGEN--\":315:319   */\n      dup1\n        /* \"--CODEGEN--\":311:320   */\n      not\n        /* \"--CODEGEN--\":305:308   */\n      dup3\n        /* \"--CODEGEN--\":299:309   */\n      mload\n        /* \"--CODEGEN--\":295:321   */\n      and\n        /* \"--CODEGEN--\":356:360   */\n      dup2\n        /* \"--CODEGEN--\":350:353   */\n      dup5\n        /* \"--CODEGEN--\":344:354   */\n      mload\n        /* \"--CODEGEN--\":340:361   */\n      and\n        /* \"--CODEGEN--\":389:396   */\n      dup1\n        /* \"--CODEGEN--\":380:387   */\n      dup3\n        /* \"--CODEGEN--\":377:397   */\n      or\n        /* \"--CODEGEN--\":372:375   */\n      dup6\n        /* \"--CODEGEN--\":365:398   */\n      mstore\n        /* \"--CODEGEN--\":3:402   */\n      pop\n      pop\n      pop\n        /* \"background.sol\":5631:5660  abi.encodePacked(labResultss) */\n      pop\n      pop\n      pop\n      swap1\n      pop\n      add\n      swap2\n      pop\n      pop\n      mload(0x40)\n        /* \"--CODEGEN--\":49:53   */\n      0x20\n        /* \"--CODEGEN--\":39:46   */\n      dup2\n        /* \"--CODEGEN--\":30:37   */\n      dup4\n        /* \"--CODEGEN--\":26:47   */\n      sub\n        /* \"--CODEGEN--\":22:54   */\n      sub\n        /* \"--CODEGEN--\":13:20   */\n      dup2\n        /* \"--CODEGEN--\":6:55   */\n      mstore\n        /* \"background.sol\":5631:5660  abi.encodePacked(labResultss) */\n      swap1\n      0x40\n      mstore\n        /* \"background.sol\":5621:5661  keccak256(abi.encodePacked(labResultss)) */\n      dup1\n      mload\n      swap1\n      0x20\n      add\n      keccak256\n        /* \"background.sol\":5621:5696  keccak256(abi.encodePacked(labResultss)) == keccak256(abi.encodePacked(\"\")) */\n      eq\n        /* \"background.sol\":5619:5697  !(keccak256(abi.encodePacked(labResultss)) == keccak256(abi.encodePacked(\"\"))) */\n      iszero\n        /* \"background.sol\":5616:5768  if(!(keccak256(abi.encodePacked(labResultss)) == keccak256(abi.encodePacked(\"\")))) {\r... */\n      iszero\n      tag_81\n      jumpi\n        /* \"background.sol\":5718:5723  files */\n      0x10\n        /* \"background.sol\":5718:5734  files.labResults */\n      0x02\n      add\n        /* \"background.sol\":5740:5751  labResultss */\n      dup3\n        /* \"background.sol\":5718:5752  files.labResults.push(labResultss) */\n      swap1\n      dup1\n        /* \"--CODEGEN--\":39:40   */\n      0x01\n        /* \"--CODEGEN--\":33:36   */\n      dup2\n        /* \"--CODEGEN--\":27:37   */\n      sload\n        /* \"--CODEGEN--\":23:41   */\n      add\n        /* \"--CODEGEN--\":57:67   */\n      dup1\n        /* \"--CODEGEN--\":52:55   */\n      dup3\n        /* \"--CODEGEN--\":45:68   */\n      sstore\n        /* \"--CODEGEN--\":79:89   */\n      dup1\n        /* \"--CODEGEN--\":72:89   */\n      swap2\n      pop\n        /* \"--CODEGEN--\":0:93   */\n      pop\n        /* \"background.sol\":5718:5752  files.labResults.push(labResultss) */\n      swap1\n      0x01\n      dup3\n      sub\n      swap1\n      0x00\n      mstore\n      keccak256(0x00, 0x20)\n      add\n      0x00\n      swap1\n      swap2\n      swap3\n      swap1\n      swap2\n      swap1\n      swap2\n      pop\n      swap1\n      dup1\n      mload\n      swap1\n      0x20\n      add\n      swap1\n      tag_83\n      swap3\n      swap2\n      swap1\n      tag_62\n      jump\t// in\n    tag_83:\n      pop\n      pop\n        /* \"background.sol\":5616:5768  if(!(keccak256(abi.encodePacked(labResultss)) == keccak256(abi.encodePacked(\"\")))) {\r... */\n    tag_81:\n        /* \"background.sol\":5840:5860  abi.encodePacked(\"\") */\n      add(0x20, mload(0x40))\n      dup1\n      0x00\n      add\n      swap1\n      pop\n      mload(0x40)\n        /* \"--CODEGEN--\":49:53   */\n      0x20\n        /* \"--CODEGEN--\":39:46   */\n      dup2\n        /* \"--CODEGEN--\":30:37   */\n      dup4\n        /* \"--CODEGEN--\":26:47   */\n      sub\n        /* \"--CODEGEN--\":22:54   */\n      sub\n        /* \"--CODEGEN--\":13:20   */\n      dup2\n        /* \"--CODEGEN--\":6:55   */\n      mstore\n        /* \"background.sol\":5840:5860  abi.encodePacked(\"\") */\n      swap1\n      0x40\n      mstore\n        /* \"background.sol\":5830:5861  keccak256(abi.encodePacked(\"\")) */\n      dup1\n      mload\n      swap1\n      0x20\n      add\n      keccak256\n        /* \"background.sol\":5814:5824  insurancee */\n      dup2\n        /* \"background.sol\":5797:5825  abi.encodePacked(insurancee) */\n      add(0x20, mload(0x40))\n      dup1\n      dup3\n      dup1\n      mload\n      swap1\n      0x20\n      add\n      swap1\n      dup1\n      dup4\n      dup4\n        /* \"--CODEGEN--\":36:189   */\n    tag_84:\n        /* \"--CODEGEN--\":66:68   */\n      0x20\n        /* \"--CODEGEN--\":61:64   */\n      dup4\n        /* \"--CODEGEN--\":58:69   */\n      lt\n        /* \"--CODEGEN--\":51:70   */\n      iszero\n        /* \"--CODEGEN--\":36:189   */\n      iszero\n      tag_85\n      jumpi\n        /* \"--CODEGEN--\":182:185   */\n      dup1\n        /* \"--CODEGEN--\":176:186   */\n      mload\n        /* \"--CODEGEN--\":171:174   */\n      dup3\n        /* \"--CODEGEN--\":164:187   */\n      mstore\n        /* \"--CODEGEN--\":98:100   */\n      0x20\n        /* \"--CODEGEN--\":93:96   */\n      dup3\n        /* \"--CODEGEN--\":89:101   */\n      add\n        /* \"--CODEGEN--\":82:101   */\n      swap2\n      pop\n        /* \"--CODEGEN--\":123:125   */\n      0x20\n        /* \"--CODEGEN--\":118:121   */\n      dup2\n        /* \"--CODEGEN--\":114:126   */\n      add\n        /* \"--CODEGEN--\":107:126   */\n      swap1\n      pop\n        /* \"--CODEGEN--\":148:150   */\n      0x20\n        /* \"--CODEGEN--\":143:146   */\n      dup4\n        /* \"--CODEGEN--\":139:151   */\n      sub\n        /* \"--CODEGEN--\":132:151   */\n      swap3\n      pop\n        /* \"--CODEGEN--\":36:189   */\n      jump(tag_84)\n    tag_85:\n        /* \"--CODEGEN--\":274:275   */\n      0x01\n        /* \"--CODEGEN--\":267:270   */\n      dup4\n        /* \"--CODEGEN--\":263:265   */\n      0x20\n        /* \"--CODEGEN--\":259:271   */\n      sub\n        /* \"--CODEGEN--\":254:257   */\n      0x0100\n        /* \"--CODEGEN--\":250:272   */\n      exp\n        /* \"--CODEGEN--\":246:276   */\n      sub\n        /* \"--CODEGEN--\":315:319   */\n      dup1\n        /* \"--CODEGEN--\":311:320   */\n      not\n        /* \"--CODEGEN--\":305:308   */\n      dup3\n        /* \"--CODEGEN--\":299:309   */\n      mload\n        /* \"--CODEGEN--\":295:321   */\n      and\n        /* \"--CODEGEN--\":356:360   */\n      dup2\n        /* \"--CODEGEN--\":350:353   */\n      dup5\n        /* \"--CODEGEN--\":344:354   */\n      mload\n        /* \"--CODEGEN--\":340:361   */\n      and\n        /* \"--CODEGEN--\":389:396   */\n      dup1\n        /* \"--CODEGEN--\":380:387   */\n      dup3\n        /* \"--CODEGEN--\":377:397   */\n      or\n        /* \"--CODEGEN--\":372:375   */\n      dup6\n        /* \"--CODEGEN--\":365:398   */\n      mstore\n        /* \"--CODEGEN--\":3:402   */\n      pop\n      pop\n      pop\n        /* \"background.sol\":5797:5825  abi.encodePacked(insurancee) */\n      pop\n      pop\n      pop\n      swap1\n      pop\n      add\n      swap2\n      pop\n      pop\n      mload(0x40)\n        /* \"--CODEGEN--\":49:53   */\n      0x20\n        /* \"--CODEGEN--\":39:46   */\n      dup2\n        /* \"--CODEGEN--\":30:37   */\n      dup4\n        /* \"--CODEGEN--\":26:47   */\n      sub\n        /* \"--CODEGEN--\":22:54   */\n      sub\n        /* \"--CODEGEN--\":13:20   */\n      dup2\n        /* \"--CODEGEN--\":6:55   */\n      mstore\n        /* \"background.sol\":5797:5825  abi.encodePacked(insurancee) */\n      swap1\n      0x40\n      mstore\n        /* \"background.sol\":5787:5826  keccak256(abi.encodePacked(insurancee)) */\n      dup1\n      mload\n      swap1\n      0x20\n      add\n      keccak256\n        /* \"background.sol\":5787:5861  keccak256(abi.encodePacked(insurancee)) == keccak256(abi.encodePacked(\"\")) */\n      eq\n        /* \"background.sol\":5785:5862  !(keccak256(abi.encodePacked(insurancee)) == keccak256(abi.encodePacked(\"\"))) */\n      iszero\n        /* \"background.sol\":5782:5931  if(!(keccak256(abi.encodePacked(insurancee)) == keccak256(abi.encodePacked(\"\")))) {\r... */\n      iszero\n      tag_87\n      jumpi\n        /* \"background.sol\":5883:5888  files */\n      0x10\n        /* \"background.sol\":5883:5898  files.insurance */\n      0x03\n      add\n        /* \"background.sol\":5904:5914  insurancee */\n      dup2\n        /* \"background.sol\":5883:5915  files.insurance.push(insurancee) */\n      swap1\n      dup1\n        /* \"--CODEGEN--\":39:40   */\n      0x01\n        /* \"--CODEGEN--\":33:36   */\n      dup2\n        /* \"--CODEGEN--\":27:37   */\n      sload\n        /* \"--CODEGEN--\":23:41   */\n      add\n        /* \"--CODEGEN--\":57:67   */\n      dup1\n        /* \"--CODEGEN--\":52:55   */\n      dup3\n        /* \"--CODEGEN--\":45:68   */\n      sstore\n        /* \"--CODEGEN--\":79:89   */\n      dup1\n        /* \"--CODEGEN--\":72:89   */\n      swap2\n      pop\n        /* \"--CODEGEN--\":0:93   */\n      pop\n        /* \"background.sol\":5883:5915  files.insurance.push(insurancee) */\n      swap1\n      0x01\n      dup3\n      sub\n      swap1\n      0x00\n      mstore\n      keccak256(0x00, 0x20)\n      add\n      0x00\n      swap1\n      swap2\n      swap3\n      swap1\n      swap2\n      swap1\n      swap2\n      pop\n      swap1\n      dup1\n      mload\n      swap1\n      0x20\n      add\n      swap1\n      tag_89\n      swap3\n      swap2\n      swap1\n      tag_62\n      jump\t// in\n    tag_89:\n      pop\n      pop\n        /* \"background.sol\":5782:5931  if(!(keccak256(abi.encodePacked(insurancee)) == keccak256(abi.encodePacked(\"\")))) {\r... */\n    tag_87:\n        /* \"background.sol\":5219:5942  if(isDoctorAllowed(msg.sender)) {\r... */\n    tag_65:\n        /* \"background.sol\":5070:5949  function addFiles(string memory billingDataa, string memory radiologyImagess, string memory labResultss, string memory insurancee) public {\r... */\n      pop\n      pop\n      pop\n      pop\n      jump\t// out\n        /* \"background.sol\":4312:4334  string public password */\n    tag_22:\n      0x15\n      dup1\n      sload\n      0x01\n      dup2\n      0x01\n      and\n      iszero\n      0x0100\n      mul\n      sub\n      and\n      0x02\n      swap1\n      div\n      dup1\n      0x1f\n      add\n      0x20\n      dup1\n      swap2\n      div\n      mul\n      0x20\n      add\n      mload(0x40)\n      swap1\n      dup2\n      add\n      0x40\n      mstore\n      dup1\n      swap3\n      swap2\n      swap1\n      dup2\n      dup2\n      mstore\n      0x20\n      add\n      dup3\n      dup1\n      sload\n      0x01\n      dup2\n      0x01\n      and\n      iszero\n      0x0100\n      mul\n      sub\n      and\n      0x02\n      swap1\n      div\n      dup1\n      iszero\n      tag_90\n      jumpi\n      dup1\n      0x1f\n      lt\n      tag_91\n      jumpi\n      0x0100\n      dup1\n      dup4\n      sload\n      div\n      mul\n      dup4\n      mstore\n      swap2\n      0x20\n      add\n      swap2\n      jump(tag_90)\n    tag_91:\n      dup3\n      add\n      swap2\n      swap1\n      0x00\n      mstore\n      keccak256(0x00, 0x20)\n      swap1\n    tag_92:\n      dup2\n      sload\n      dup2\n      mstore\n      swap1\n      0x01\n      add\n      swap1\n      0x20\n      add\n      dup1\n      dup4\n      gt\n      tag_92\n      jumpi\n      dup3\n      swap1\n      sub\n      0x1f\n      and\n      dup3\n      add\n      swap2\n    tag_90:\n      pop\n      pop\n      pop\n      pop\n      pop\n      dup2\n      jump\t// out\n        /* \"background.sol\":5961:6795  function updateNondemographics(string memory medicalHistoryy, string memory diagnosiss, string memory medicationss,\r... */\n    tag_28:\n        /* \"background.sol\":6252:6279  isDoctorAllowed(msg.sender) */\n      tag_94\n        /* \"background.sol\":6268:6278  msg.sender */\n      caller\n        /* \"background.sol\":6252:6267  isDoctorAllowed */\n      tag_50\n        /* \"background.sol\":6252:6279  isDoctorAllowed(msg.sender) */\n      jump\t// in\n    tag_94:\n        /* \"background.sol\":6249:6788  if(isDoctorAllowed(msg.sender)) {\r... */\n      iszero\n      tag_95\n      jumpi\n        /* \"background.sol\":6296:6329  PatientNonDemographics memory pat */\n      tag_96\n      tag_97\n      jump\t// in\n    tag_96:\n        /* \"background.sol\":6332:6733  PatientNonDemographics( { \r... */\n      0x0100\n      mload(0x40)\n      swap1\n      dup2\n      add\n      0x40\n      mstore\n      dup1\n        /* \"background.sol\":6392:6407  medicalHistoryy */\n      dup11\n        /* \"background.sol\":6332:6733  PatientNonDemographics( { \r... */\n      dup2\n      mstore\n      0x20\n      add\n        /* \"background.sol\":6437:6447  diagnosiss */\n      dup10\n        /* \"background.sol\":6332:6733  PatientNonDemographics( { \r... */\n      dup2\n      mstore\n      0x20\n      add\n        /* \"background.sol\":6479:6491  medicationss */\n      dup9\n        /* \"background.sol\":6332:6733  PatientNonDemographics( { \r... */\n      dup2\n      mstore\n      0x20\n      add\n        /* \"background.sol\":6521:6531  allergiess */\n      dup8\n        /* \"background.sol\":6332:6733  PatientNonDemographics( { \r... */\n      dup2\n      mstore\n      0x20\n      add\n        /* \"background.sol\":6565:6579  progressNotess */\n      dup7\n        /* \"background.sol\":6332:6733  PatientNonDemographics( { \r... */\n      dup2\n      mstore\n      0x20\n      add\n        /* \"background.sol\":6610:6621  vitalSignss */\n      dup6\n        /* \"background.sol\":6332:6733  PatientNonDemographics( { \r... */\n      dup2\n      mstore\n      0x20\n      add\n        /* \"background.sol\":6659:6677  immunizationDatess */\n      dup5\n        /* \"background.sol\":6332:6733  PatientNonDemographics( { \r... */\n      dup2\n      mstore\n      0x20\n      add\n        /* \"background.sol\":6707:6717  emergencyy */\n      dup4\n        /* \"background.sol\":6332:6733  PatientNonDemographics( { \r... */\n      dup2\n      mstore\n      pop\n        /* \"background.sol\":6296:6733  PatientNonDemographics memory pat = PatientNonDemographics( { \r... */\n      swap1\n      pop\n        /* \"background.sol\":6773:6776  pat */\n      dup1\n        /* \"background.sol\":6748:6770  patientNonDemographics */\n      0x08\n        /* \"background.sol\":6748:6776  patientNonDemographics = pat */\n      0x00\n      dup3\n      add\n      mload\n      dup2\n      0x00\n      add\n      swap1\n      dup1\n      mload\n      swap1\n      0x20\n      add\n      swap1\n      tag_98\n      swap3\n      swap2\n      swap1\n      tag_99\n      jump\t// in\n    tag_98:\n      pop\n      0x20\n      dup3\n      add\n      mload\n      dup2\n      0x01\n      add\n      swap1\n      dup1\n      mload\n      swap1\n      0x20\n      add\n      swap1\n      tag_100\n      swap3\n      swap2\n      swap1\n      tag_99\n      jump\t// in\n    tag_100:\n      pop\n      0x40\n      dup3\n      add\n      mload\n      dup2\n      0x02\n      add\n      swap1\n      dup1\n      mload\n      swap1\n      0x20\n      add\n      swap1\n      tag_101\n      swap3\n      swap2\n      swap1\n      tag_99\n      jump\t// in\n    tag_101:\n      pop\n      0x60\n      dup3\n      add\n      mload\n      dup2\n      0x03\n      add\n      swap1\n      dup1\n      mload\n      swap1\n      0x20\n      add\n      swap1\n      tag_102\n      swap3\n      swap2\n      swap1\n      tag_99\n      jump\t// in\n    tag_102:\n      pop\n      0x80\n      dup3\n      add\n      mload\n      dup2\n      0x04\n      add\n      swap1\n      dup1\n      mload\n      swap1\n      0x20\n      add\n      swap1\n      tag_103\n      swap3\n      swap2\n      swap1\n      tag_99\n      jump\t// in\n    tag_103:\n      pop\n      0xa0\n      dup3\n      add\n      mload\n      dup2\n      0x05\n      add\n      swap1\n      dup1\n      mload\n      swap1\n      0x20\n      add\n      swap1\n      tag_104\n      swap3\n      swap2\n      swap1\n      tag_99\n      jump\t// in\n    tag_104:\n      pop\n      0xc0\n      dup3\n      add\n      mload\n      dup2\n      0x06\n      add\n      swap1\n      dup1\n      mload\n      swap1\n      0x20\n      add\n      swap1\n      tag_105\n      swap3\n      swap2\n      swap1\n      tag_99\n      jump\t// in\n    tag_105:\n      pop\n      0xe0\n      dup3\n      add\n      mload\n      dup2\n      0x07\n      add\n      swap1\n      dup1\n      mload\n      swap1\n      0x20\n      add\n      swap1\n      tag_106\n      swap3\n      swap2\n      swap1\n      tag_99\n      jump\t// in\n    tag_106:\n      pop\n      swap1\n      pop\n      pop\n        /* \"background.sol\":6249:6788  if(isDoctorAllowed(msg.sender)) {\r... */\n      pop\n    tag_95:\n        /* \"background.sol\":5961:6795  function updateNondemographics(string memory medicalHistoryy, string memory diagnosiss, string memory medicationss,\r... */\n      pop\n      pop\n      pop\n      pop\n      pop\n      pop\n      pop\n      pop\n      jump\t// out\n        /* \"background.sol\":8530:9858  function getPatientData() public view returns(bool, PatientDemographics memory, PatientNonDemographics memory, Files memory) {\r... */\n    tag_30:\n        /* \"background.sol\":8576:8580  bool */\n      0x00\n        /* \"background.sol\":8582:8608  PatientDemographics memory */\n      tag_107\n      tag_108\n      jump\t// in\n    tag_107:\n        /* \"background.sol\":8610:8639  PatientNonDemographics memory */\n      tag_109\n      tag_97\n      jump\t// in\n    tag_109:\n        /* \"background.sol\":8641:8653  Files memory */\n      tag_110\n      tag_111\n      jump\t// in\n    tag_110:\n        /* \"background.sol\":8669:8696  isDoctorAllowed(msg.sender) */\n      tag_113\n        /* \"background.sol\":8685:8695  msg.sender */\n      caller\n        /* \"background.sol\":8669:8684  isDoctorAllowed */\n      tag_50\n        /* \"background.sol\":8669:8696  isDoctorAllowed(msg.sender) */\n      jump\t// in\n    tag_113:\n        /* \"background.sol\":8666:9851  if(isDoctorAllowed(msg.sender)) {\r... */\n      iszero\n      tag_114\n      jumpi\n        /* \"background.sol\":8721:8725  true */\n      0x01\n        /* \"background.sol\":8727:8746  patientDemographics */\n      0x00\n        /* \"background.sol\":8748:8770  patientNonDemographics */\n      0x08\n        /* \"background.sol\":8772:8777  files */\n      0x10\n        /* \"background.sol\":8713:8779  return( true, patientDemographics, patientNonDemographics, files ) */\n      dup3\n      0x0100\n      mload(0x40)\n      swap1\n      dup2\n      add\n      0x40\n      mstore\n      swap1\n      dup2\n      0x00\n      dup3\n      add\n      dup1\n      sload\n      0x01\n      dup2\n      0x01\n      and\n      iszero\n      0x0100\n      mul\n      sub\n      and\n      0x02\n      swap1\n      div\n      dup1\n      0x1f\n      add\n      0x20\n      dup1\n      swap2\n      div\n      mul\n      0x20\n      add\n      mload(0x40)\n      swap1\n      dup2\n      add\n      0x40\n      mstore\n      dup1\n      swap3\n      swap2\n      swap1\n      dup2\n      dup2\n      mstore\n      0x20\n      add\n      dup3\n      dup1\n      sload\n      0x01\n      dup2\n      0x01\n      and\n      iszero\n      0x0100\n      mul\n      sub\n      and\n      0x02\n      swap1\n      div\n      dup1\n      iszero\n      tag_115\n      jumpi\n      dup1\n      0x1f\n      lt\n      tag_116\n      jumpi\n      0x0100\n      dup1\n      dup4\n      sload\n      div\n      mul\n      dup4\n      mstore\n      swap2\n      0x20\n      add\n      swap2\n      jump(tag_115)\n    tag_116:\n      dup3\n      add\n      swap2\n      swap1\n      0x00\n      mstore\n      keccak256(0x00, 0x20)\n      swap1\n    tag_117:\n      dup2\n      sload\n      dup2\n      mstore\n      swap1\n      0x01\n      add\n      swap1\n      0x20\n      add\n      dup1\n      dup4\n      gt\n      tag_117\n      jumpi\n      dup3\n      swap1\n      sub\n      0x1f\n      and\n      dup3\n      add\n      swap2\n    tag_115:\n      pop\n      pop\n      pop\n      pop\n      pop\n      dup2\n      mstore\n      0x20\n      add\n      0x01\n      dup3\n      add\n      dup1\n      sload\n      0x01\n      dup2\n      0x01\n      and\n      iszero\n      0x0100\n      mul\n      sub\n      and\n      0x02\n      swap1\n      div\n      dup1\n      0x1f\n      add\n      0x20\n      dup1\n      swap2\n      div\n      mul\n      0x20\n      add\n      mload(0x40)\n      swap1\n      dup2\n      add\n      0x40\n      mstore\n      dup1\n      swap3\n      swap2\n      swap1\n      dup2\n      dup2\n      mstore\n      0x20\n      add\n      dup3\n      dup1\n      sload\n      0x01\n      dup2\n      0x01\n      and\n      iszero\n      0x0100\n      mul\n      sub\n      and\n      0x02\n      swap1\n      div\n      dup1\n      iszero\n      tag_118\n      jumpi\n      dup1\n      0x1f\n      lt\n      tag_119\n      jumpi\n      0x0100\n      dup1\n      dup4\n      sload\n      div\n      mul\n      dup4\n      mstore\n      swap2\n      0x20\n      add\n      swap2\n      jump(tag_118)\n    tag_119:\n      dup3\n      add\n      swap2\n      swap1\n      0x00\n      mstore\n      keccak256(0x00, 0x20)\n      swap1\n    tag_120:\n      dup2\n      sload\n      dup2\n      mstore\n      swap1\n      0x01\n      add\n      swap1\n      0x20\n      add\n      dup1\n      dup4\n      gt\n      tag_120\n      jumpi\n      dup3\n      swap1\n      sub\n      0x1f\n      and\n      dup3\n      add\n      swap2\n    tag_118:\n      pop\n      pop\n      pop\n      pop\n      pop\n      dup2\n      mstore\n      0x20\n      add\n      0x02\n      dup3\n      add\n      dup1\n      sload\n      0x01\n      dup2\n      0x01\n      and\n      iszero\n      0x0100\n      mul\n      sub\n      and\n      0x02\n      swap1\n      div\n      dup1\n      0x1f\n      add\n      0x20\n      dup1\n      swap2\n      div\n      mul\n      0x20\n      add\n      mload(0x40)\n      swap1\n      dup2\n      add\n      0x40\n      mstore\n      dup1\n      swap3\n      swap2\n      swap1\n      dup2\n      dup2\n      mstore\n      0x20\n      add\n      dup3\n      dup1\n      sload\n      0x01\n      dup2\n      0x01\n      and\n      iszero\n      0x0100\n      mul\n      sub\n      and\n      0x02\n      swap1\n      div\n      dup1\n      iszero\n      tag_121\n      jumpi\n      dup1\n      0x1f\n      lt\n      tag_122\n      jumpi\n      0x0100\n      dup1\n      dup4\n      sload\n      div\n      mul\n      dup4\n      mstore\n      swap2\n      0x20\n      add\n      swap2\n      jump(tag_121)\n    tag_122:\n      dup3\n      add\n      swap2\n      swap1\n      0x00\n      mstore\n      keccak256(0x00, 0x20)\n      swap1\n    tag_123:\n      dup2\n      sload\n      dup2\n      mstore\n      swap1\n      0x01\n      add\n      swap1\n      0x20\n      add\n      dup1\n      dup4\n      gt\n      tag_123\n      jumpi\n      dup3\n      swap1\n      sub\n      0x1f\n      and\n      dup3\n      add\n      swap2\n    tag_121:\n      pop\n      pop\n      pop\n      pop\n      pop\n      dup2\n      mstore\n      0x20\n      add\n      0x03\n      dup3\n      add\n      dup1\n      sload\n      0x01\n      dup2\n      0x01\n      and\n      iszero\n      0x0100\n      mul\n      sub\n      and\n      0x02\n      swap1\n      div\n      dup1\n      0x1f\n      add\n      0x20\n      dup1\n      swap2\n      div\n      mul\n      0x20\n      add\n      mload(0x40)\n      swap1\n      dup2\n      add\n      0x40\n      mstore\n      dup1\n      swap3\n      swap2\n      swap1\n      dup2\n      dup2\n      mstore\n      0x20\n      add\n      dup3\n      dup1\n      sload\n      0x01\n      dup2\n      0x01\n      and\n      iszero\n      0x0100\n      mul\n      sub\n      and\n      0x02\n      swap1\n      div\n      dup1\n      iszero\n      tag_124\n      jumpi\n      dup1\n      0x1f\n      lt\n      tag_125\n      jumpi\n      0x0100\n      dup1\n      dup4\n      sload\n      div\n      mul\n      dup4\n      mstore\n      swap2\n      0x20\n      add\n      swap2\n      jump(tag_124)\n    tag_125:\n      dup3\n      add\n      swap2\n      swap1\n      0x00\n      mstore\n      keccak256(0x00, 0x20)\n      swap1\n    tag_126:\n      dup2\n      sload\n      dup2\n      mstore\n      swap1\n      0x01\n      add\n      swap1\n      0x20\n      add\n      dup1\n      dup4\n      gt\n      tag_126\n      jumpi\n      dup3\n      swap1\n      sub\n      0x1f\n      and\n      dup3\n      add\n      swap2\n    tag_124:\n      pop\n      pop\n      pop\n      pop\n      pop\n      dup2\n      mstore\n      0x20\n      add\n      0x04\n      dup3\n      add\n      sload\n      dup2\n      mstore\n      0x20\n      add\n      0x05\n      dup3\n      add\n      dup1\n      sload\n      0x01\n      dup2\n      0x01\n      and\n      iszero\n      0x0100\n      mul\n      sub\n      and\n      0x02\n      swap1\n      div\n      dup1\n      0x1f\n      add\n      0x20\n      dup1\n      swap2\n      div\n      mul\n      0x20\n      add\n      mload(0x40)\n      swap1\n      dup2\n      add\n      0x40\n      mstore\n      dup1\n      swap3\n      swap2\n      swap1\n      dup2\n      dup2\n      mstore\n      0x20\n      add\n      dup3\n      dup1\n      sload\n      0x01\n      dup2\n      0x01\n      and\n      iszero\n      0x0100\n      mul\n      sub\n      and\n      0x02\n      swap1\n      div\n      dup1\n      iszero\n      tag_127\n      jumpi\n      dup1\n      0x1f\n      lt\n      tag_128\n      jumpi\n      0x0100\n      dup1\n      dup4\n      sload\n      div\n      mul\n      dup4\n      mstore\n      swap2\n      0x20\n      add\n      swap2\n      jump(tag_127)\n    tag_128:\n      dup3\n      add\n      swap2\n      swap1\n      0x00\n      mstore\n      keccak256(0x00, 0x20)\n      swap1\n    tag_129:\n      dup2\n      sload\n      dup2\n      mstore\n      swap1\n      0x01\n      add\n      swap1\n      0x20\n      add\n      dup1\n      dup4\n      gt\n      tag_129\n      jumpi\n      dup3\n      swap1\n      sub\n      0x1f\n      and\n      dup3\n      add\n      swap2\n    tag_127:\n      pop\n      pop\n      pop\n      pop\n      pop\n      dup2\n      mstore\n      0x20\n      add\n      0x06\n      dup3\n      add\n      dup1\n      sload\n      0x01\n      dup2\n      0x01\n      and\n      iszero\n      0x0100\n      mul\n      sub\n      and\n      0x02\n      swap1\n      div\n      dup1\n      0x1f\n      add\n      0x20\n      dup1\n      swap2\n      div\n      mul\n      0x20\n      add\n      mload(0x40)\n      swap1\n      dup2\n      add\n      0x40\n      mstore\n      dup1\n      swap3\n      swap2\n      swap1\n      dup2\n      dup2\n      mstore\n      0x20\n      add\n      dup3\n      dup1\n      sload\n      0x01\n      dup2\n      0x01\n      and\n      iszero\n      0x0100\n      mul\n      sub\n      and\n      0x02\n      swap1\n      div\n      dup1\n      iszero\n      tag_130\n      jumpi\n      dup1\n      0x1f\n      lt\n      tag_131\n      jumpi\n      0x0100\n      dup1\n      dup4\n      sload\n      div\n      mul\n      dup4\n      mstore\n      swap2\n      0x20\n      add\n      swap2\n      jump(tag_130)\n    tag_131:\n      dup3\n      add\n      swap2\n      swap1\n      0x00\n      mstore\n      keccak256(0x00, 0x20)\n      swap1\n    tag_132:\n      dup2\n      sload\n      dup2\n      mstore\n      swap1\n      0x01\n      add\n      swap1\n      0x20\n      add\n      dup1\n      dup4\n      gt\n      tag_132\n      jumpi\n      dup3\n      swap1\n      sub\n      0x1f\n      and\n      dup3\n      add\n      swap2\n    tag_130:\n      pop\n      pop\n      pop\n      pop\n      pop\n      dup2\n      mstore\n      0x20\n      add\n      0x07\n      dup3\n      add\n      dup1\n      sload\n      0x01\n      dup2\n      0x01\n      and\n      iszero\n      0x0100\n      mul\n      sub\n      and\n      0x02\n      swap1\n      div\n      dup1\n      0x1f\n      add\n      0x20\n      dup1\n      swap2\n      div\n      mul\n      0x20\n      add\n      mload(0x40)\n      swap1\n      dup2\n      add\n      0x40\n      mstore\n      dup1\n      swap3\n      swap2\n      swap1\n      dup2\n      dup2\n      mstore\n      0x20\n      add\n      dup3\n      dup1\n      sload\n      0x01\n      dup2\n      0x01\n      and\n      iszero\n      0x0100\n      mul\n      sub\n      and\n      0x02\n      swap1\n      div\n      dup1\n      iszero\n      tag_133\n      jumpi\n      dup1\n      0x1f\n      lt\n      tag_134\n      jumpi\n      0x0100\n      dup1\n      dup4\n      sload\n      div\n      mul\n      dup4\n      mstore\n      swap2\n      0x20\n      add\n      swap2\n      jump(tag_133)\n    tag_134:\n      dup3\n      add\n      swap2\n      swap1\n      0x00\n      mstore\n      keccak256(0x00, 0x20)\n      swap1\n    tag_135:\n      dup2\n      sload\n      dup2\n      mstore\n      swap1\n      0x01\n      add\n      swap1\n      0x20\n      add\n      dup1\n      dup4\n      gt\n      tag_135\n      jumpi\n      dup3\n      swap1\n      sub\n      0x1f\n      and\n      dup3\n      add\n      swap2\n    tag_133:\n      pop\n      pop\n      pop\n      pop\n      pop\n      dup2\n      mstore\n      pop\n      pop\n      swap3\n      pop\n      dup2\n      0x0100\n      mload(0x40)\n      swap1\n      dup2\n      add\n      0x40\n      mstore\n      swap1\n      dup2\n      0x00\n      dup3\n      add\n      dup1\n      sload\n      0x01\n      dup2\n      0x01\n      and\n      iszero\n      0x0100\n      mul\n      sub\n      and\n      0x02\n      swap1\n      div\n      dup1\n      0x1f\n      add\n      0x20\n      dup1\n      swap2\n      div\n      mul\n      0x20\n      add\n      mload(0x40)\n      swap1\n      dup2\n      add\n      0x40\n      mstore\n      dup1\n      swap3\n      swap2\n      swap1\n      dup2\n      dup2\n      mstore\n      0x20\n      add\n      dup3\n      dup1\n      sload\n      0x01\n      dup2\n      0x01\n      and\n      iszero\n      0x0100\n      mul\n      sub\n      and\n      0x02\n      swap1\n      div\n      dup1\n      iszero\n      tag_136\n      jumpi\n      dup1\n      0x1f\n      lt\n      tag_137\n      jumpi\n      0x0100\n      dup1\n      dup4\n      sload\n      div\n      mul\n      dup4\n      mstore\n      swap2\n      0x20\n      add\n      swap2\n      jump(tag_136)\n    tag_137:\n      dup3\n      add\n      swap2\n      swap1\n      0x00\n      mstore\n      keccak256(0x00, 0x20)\n      swap1\n    tag_138:\n      dup2\n      sload\n      dup2\n      mstore\n      swap1\n      0x01\n      add\n      swap1\n      0x20\n      add\n      dup1\n      dup4\n      gt\n      tag_138\n      jumpi\n      dup3\n      swap1\n      sub\n      0x1f\n      and\n      dup3\n      add\n      swap2\n    tag_136:\n      pop\n      pop\n      pop\n      pop\n      pop\n      dup2\n      mstore\n      0x20\n      add\n      0x01\n      dup3\n      add\n      dup1\n      sload\n      0x01\n      dup2\n      0x01\n      and\n      iszero\n      0x0100\n      mul\n      sub\n      and\n      0x02\n      swap1\n      div\n      dup1\n      0x1f\n      add\n      0x20\n      dup1\n      swap2\n      div\n      mul\n      0x20\n      add\n      mload(0x40)\n      swap1\n      dup2\n      add\n      0x40\n      mstore\n      dup1\n      swap3\n      swap2\n      swap1\n      dup2\n      dup2\n      mstore\n      0x20\n      add\n      dup3\n      dup1\n      sload\n      0x01\n      dup2\n      0x01\n      and\n      iszero\n      0x0100\n      mul\n      sub\n      and\n      0x02\n      swap1\n      div\n      dup1\n      iszero\n      tag_139\n      jumpi\n      dup1\n      0x1f\n      lt\n      tag_140\n      jumpi\n      0x0100\n      dup1\n      dup4\n      sload\n      div\n      mul\n      dup4\n      mstore\n      swap2\n      0x20\n      add\n      swap2\n      jump(tag_139)\n    tag_140:\n      dup3\n      add\n      swap2\n      swap1\n      0x00\n      mstore\n      keccak256(0x00, 0x20)\n      swap1\n    tag_141:\n      dup2\n      sload\n      dup2\n      mstore\n      swap1\n      0x01\n      add\n      swap1\n      0x20\n      add\n      dup1\n      dup4\n      gt\n      tag_141\n      jumpi\n      dup3\n      swap1\n      sub\n      0x1f\n      and\n      dup3\n      add\n      swap2\n    tag_139:\n      pop\n      pop\n      pop\n      pop\n      pop\n      dup2\n      mstore\n      0x20\n      add\n      0x02\n      dup3\n      add\n      dup1\n      sload\n      0x01\n      dup2\n      0x01\n      and\n      iszero\n      0x0100\n      mul\n      sub\n      and\n      0x02\n      swap1\n      div\n      dup1\n      0x1f\n      add\n      0x20\n      dup1\n      swap2\n      div\n      mul\n      0x20\n      add\n      mload(0x40)\n      swap1\n      dup2\n      add\n      0x40\n      mstore\n      dup1\n      swap3\n      swap2\n      swap1\n      dup2\n      dup2\n      mstore\n      0x20\n      add\n      dup3\n      dup1\n      sload\n      0x01\n      dup2\n      0x01\n      and\n      iszero\n      0x0100\n      mul\n      sub\n      and\n      0x02\n      swap1\n      div\n      dup1\n      iszero\n      tag_142\n      jumpi\n      dup1\n      0x1f\n      lt\n      tag_143\n      jumpi\n      0x0100\n      dup1\n      dup4\n      sload\n      div\n      mul\n      dup4\n      mstore\n      swap2\n      0x20\n      add\n      swap2\n      jump(tag_142)\n    tag_143:\n      dup3\n      add\n      swap2\n      swap1\n      0x00\n      mstore\n      keccak256(0x00, 0x20)\n      swap1\n    tag_144:\n      dup2\n      sload\n      dup2\n      mstore\n      swap1\n      0x01\n      add\n      swap1\n      0x20\n      add\n      dup1\n      dup4\n      gt\n      tag_144\n      jumpi\n      dup3\n      swap1\n      sub\n      0x1f\n      and\n      dup3\n      add\n      swap2\n    tag_142:\n      pop\n      pop\n      pop\n      pop\n      pop\n      dup2\n      mstore\n      0x20\n      add\n      0x03\n      dup3\n      add\n      dup1\n      sload\n      0x01\n      dup2\n      0x01\n      and\n      iszero\n      0x0100\n      mul\n      sub\n      and\n      0x02\n      swap1\n      div\n      dup1\n      0x1f\n      add\n      0x20\n      dup1\n      swap2\n      div\n      mul\n      0x20\n      add\n      mload(0x40)\n      swap1\n      dup2\n      add\n      0x40\n      mstore\n      dup1\n      swap3\n      swap2\n      swap1\n      dup2\n      dup2\n      mstore\n      0x20\n      add\n      dup3\n      dup1\n      sload\n      0x01\n      dup2\n      0x01\n      and\n      iszero\n      0x0100\n      mul\n      sub\n      and\n      0x02\n      swap1\n      div\n      dup1\n      iszero\n      tag_145\n      jumpi\n      dup1\n      0x1f\n      lt\n      tag_146\n      jumpi\n      0x0100\n      dup1\n      dup4\n      sload\n      div\n      mul\n      dup4\n      mstore\n      swap2\n      0x20\n      add\n      swap2\n      jump(tag_145)\n    tag_146:\n      dup3\n      add\n      swap2\n      swap1\n      0x00\n      mstore\n      keccak256(0x00, 0x20)\n      swap1\n    tag_147:\n      dup2\n      sload\n      dup2\n      mstore\n      swap1\n      0x01\n      add\n      swap1\n      0x20\n      add\n      dup1\n      dup4\n      gt\n      tag_147\n      jumpi\n      dup3\n      swap1\n      sub\n      0x1f\n      and\n      dup3\n      add\n      swap2\n    tag_145:\n      pop\n      pop\n      pop\n      pop\n      pop\n      dup2\n      mstore\n      0x20\n      add\n      0x04\n      dup3\n      add\n      dup1\n      sload\n      0x01\n      dup2\n      0x01\n      and\n      iszero\n      0x0100\n      mul\n      sub\n      and\n      0x02\n      swap1\n      div\n      dup1\n      0x1f\n      add\n      0x20\n      dup1\n      swap2\n      div\n      mul\n      0x20\n      add\n      mload(0x40)\n      swap1\n      dup2\n      add\n      0x40\n      mstore\n      dup1\n      swap3\n      swap2\n      swap1\n      dup2\n      dup2\n      mstore\n      0x20\n      add\n      dup3\n      dup1\n      sload\n      0x01\n      dup2\n      0x01\n      and\n      iszero\n      0x0100\n      mul\n      sub\n      and\n      0x02\n      swap1\n      div\n      dup1\n      iszero\n      tag_148\n      jumpi\n      dup1\n      0x1f\n      lt\n      tag_149\n      jumpi\n      0x0100\n      dup1\n      dup4\n      sload\n      div\n      mul\n      dup4\n      mstore\n      swap2\n      0x20\n      add\n      swap2\n      jump(tag_148)\n    tag_149:\n      dup3\n      add\n      swap2\n      swap1\n      0x00\n      mstore\n      keccak256(0x00, 0x20)\n      swap1\n    tag_150:\n      dup2\n      sload\n      dup2\n      mstore\n      swap1\n      0x01\n      add\n      swap1\n      0x20\n      add\n      dup1\n      dup4\n      gt\n      tag_150\n      jumpi\n      dup3\n      swap1\n      sub\n      0x1f\n      and\n      dup3\n      add\n      swap2\n    tag_148:\n      pop\n      pop\n      pop\n      pop\n      pop\n      dup2\n      mstore\n      0x20\n      add\n      0x05\n      dup3\n      add\n      dup1\n      sload\n      0x01\n      dup2\n      0x01\n      and\n      iszero\n      0x0100\n      mul\n      sub\n      and\n      0x02\n      swap1\n      div\n      dup1\n      0x1f\n      add\n      0x20\n      dup1\n      swap2\n      div\n      mul\n      0x20\n      add\n      mload(0x40)\n      swap1\n      dup2\n      add\n      0x40\n      mstore\n      dup1\n      swap3\n      swap2\n      swap1\n      dup2\n      dup2\n      mstore\n      0x20\n      add\n      dup3\n      dup1\n      sload\n      0x01\n      dup2\n      0x01\n      and\n      iszero\n      0x0100\n      mul\n      sub\n      and\n      0x02\n      swap1\n      div\n      dup1\n      iszero\n      tag_151\n      jumpi\n      dup1\n      0x1f\n      lt\n      tag_152\n      jumpi\n      0x0100\n      dup1\n      dup4\n      sload\n      div\n      mul\n      dup4\n      mstore\n      swap2\n      0x20\n      add\n      swap2\n      jump(tag_151)\n    tag_152:\n      dup3\n      add\n      swap2\n      swap1\n      0x00\n      mstore\n      keccak256(0x00, 0x20)\n      swap1\n    tag_153:\n      dup2\n      sload\n      dup2\n      mstore\n      swap1\n      0x01\n      add\n      swap1\n      0x20\n      add\n      dup1\n      dup4\n      gt\n      tag_153\n      jumpi\n      dup3\n      swap1\n      sub\n      0x1f\n      and\n      dup3\n      add\n      swap2\n    tag_151:\n      pop\n      pop\n      pop\n      pop\n      pop\n      dup2\n      mstore\n      0x20\n      add\n      0x06\n      dup3\n      add\n      dup1\n      sload\n      0x01\n      dup2\n      0x01\n      and\n      iszero\n      0x0100\n      mul\n      sub\n      and\n      0x02\n      swap1\n      div\n      dup1\n      0x1f\n      add\n      0x20\n      dup1\n      swap2\n      div\n      mul\n      0x20\n      add\n      mload(0x40)\n      swap1\n      dup2\n      add\n      0x40\n      mstore\n      dup1\n      swap3\n      swap2\n      swap1\n      dup2\n      dup2\n      mstore\n      0x20\n      add\n      dup3\n      dup1\n      sload\n      0x01\n      dup2\n      0x01\n      and\n      iszero\n      0x0100\n      mul\n      sub\n      and\n      0x02\n      swap1\n      div\n      dup1\n      iszero\n      tag_154\n      jumpi\n      dup1\n      0x1f\n      lt\n      tag_155\n      jumpi\n      0x0100\n      dup1\n      dup4\n      sload\n      div\n      mul\n      dup4\n      mstore\n      swap2\n      0x20\n      add\n      swap2\n      jump(tag_154)\n    tag_155:\n      dup3\n      add\n      swap2\n      swap1\n      0x00\n      mstore\n      keccak256(0x00, 0x20)\n      swap1\n    tag_156:\n      dup2\n      sload\n      dup2\n      mstore\n      swap1\n      0x01\n      add\n      swap1\n      0x20\n      add\n      dup1\n      dup4\n      gt\n      tag_156\n      jumpi\n      dup3\n      swap1\n      sub\n      0x1f\n      and\n      dup3\n      add\n      swap2\n    tag_154:\n      pop\n      pop\n      pop\n      pop\n      pop\n      dup2\n      mstore\n      0x20\n      add\n      0x07\n      dup3\n      add\n      dup1\n      sload\n      0x01\n      dup2\n      0x01\n      and\n      iszero\n      0x0100\n      mul\n      sub\n      and\n      0x02\n      swap1\n      div\n      dup1\n      0x1f\n      add\n      0x20\n      dup1\n      swap2\n      div\n      mul\n      0x20\n      add\n      mload(0x40)\n      swap1\n      dup2\n      add\n      0x40\n      mstore\n      dup1\n      swap3\n      swap2\n      swap1\n      dup2\n      dup2\n      mstore\n      0x20\n      add\n      dup3\n      dup1\n      sload\n      0x01\n      dup2\n      0x01\n      and\n      iszero\n      0x0100\n      mul\n      sub\n      and\n      0x02\n      swap1\n      div\n      dup1\n      iszero\n      tag_157\n      jumpi\n      dup1\n      0x1f\n      lt\n      tag_158\n      jumpi\n      0x0100\n      dup1\n      dup4\n      sload\n      div\n      mul\n      dup4\n      mstore\n      swap2\n      0x20\n      add\n      swap2\n      jump(tag_157)\n    tag_158:\n      dup3\n      add\n      swap2\n      swap1\n      0x00\n      mstore\n      keccak256(0x00, 0x20)\n      swap1\n    tag_159:\n      dup2\n      sload\n      dup2\n      mstore\n      swap1\n      0x01\n      add\n      swap1\n      0x20\n      add\n      dup1\n      dup4\n      gt\n      tag_159\n      jumpi\n      dup3\n      swap1\n      sub\n      0x1f\n      and\n      dup3\n      add\n      swap2\n    tag_157:\n      pop\n      pop\n      pop\n      pop\n      pop\n      dup2\n      mstore\n      pop\n      pop\n      swap2\n      pop\n      dup1\n      0x80\n      mload(0x40)\n      swap1\n      dup2\n      add\n      0x40\n      mstore\n      swap1\n      dup2\n      0x00\n      dup3\n      add\n      dup1\n      sload\n      dup1\n      0x20\n      mul\n      0x20\n      add\n      mload(0x40)\n      swap1\n      dup2\n      add\n      0x40\n      mstore\n      dup1\n      swap3\n      swap2\n      swap1\n      dup2\n      dup2\n      mstore\n      0x20\n      add\n      0x00\n      swap1\n    tag_160:\n      dup3\n      dup3\n      lt\n      iszero\n      tag_161\n      jumpi\n      dup4\n      dup3\n      swap1\n      0x00\n      mstore\n      keccak256(0x00, 0x20)\n      add\n      dup1\n      sload\n      0x01\n      dup2\n      0x01\n      and\n      iszero\n      0x0100\n      mul\n      sub\n      and\n      0x02\n      swap1\n      div\n      dup1\n      0x1f\n      add\n      0x20\n      dup1\n      swap2\n      div\n      mul\n      0x20\n      add\n      mload(0x40)\n      swap1\n      dup2\n      add\n      0x40\n      mstore\n      dup1\n      swap3\n      swap2\n      swap1\n      dup2\n      dup2\n      mstore\n      0x20\n      add\n      dup3\n      dup1\n      sload\n      0x01\n      dup2\n      0x01\n      and\n      iszero\n      0x0100\n      mul\n      sub\n      and\n      0x02\n      swap1\n      div\n      dup1\n      iszero\n      tag_163\n      jumpi\n      dup1\n      0x1f\n      lt\n      tag_164\n      jumpi\n      0x0100\n      dup1\n      dup4\n      sload\n      div\n      mul\n      dup4\n      mstore\n      swap2\n      0x20\n      add\n      swap2\n      jump(tag_163)\n    tag_164:\n      dup3\n      add\n      swap2\n      swap1\n      0x00\n      mstore\n      keccak256(0x00, 0x20)\n      swap1\n    tag_165:\n      dup2\n      sload\n      dup2\n      mstore\n      swap1\n      0x01\n      add\n      swap1\n      0x20\n      add\n      dup1\n      dup4\n      gt\n      tag_165\n      jumpi\n      dup3\n      swap1\n      sub\n      0x1f\n      and\n      dup3\n      add\n      swap2\n    tag_163:\n      pop\n      pop\n      pop\n      pop\n      pop\n      dup2\n      mstore\n      0x20\n      add\n      swap1\n      0x01\n      add\n      swap1\n      jump(tag_160)\n    tag_161:\n      pop\n      pop\n      pop\n      pop\n      dup2\n      mstore\n      0x20\n      add\n      0x01\n      dup3\n      add\n      dup1\n      sload\n      dup1\n      0x20\n      mul\n      0x20\n      add\n      mload(0x40)\n      swap1\n      dup2\n      add\n      0x40\n      mstore\n      dup1\n      swap3\n      swap2\n      swap1\n      dup2\n      dup2\n      mstore\n      0x20\n      add\n      0x00\n      swap1\n    tag_166:\n      dup3\n      dup3\n      lt\n      iszero\n      tag_167\n      jumpi\n      dup4\n      dup3\n      swap1\n      0x00\n      mstore\n      keccak256(0x00, 0x20)\n      add\n      dup1\n      sload\n      0x01\n      dup2\n      0x01\n      and\n      iszero\n      0x0100\n      mul\n      sub\n      and\n      0x02\n      swap1\n      div\n      dup1\n      0x1f\n      add\n      0x20\n      dup1\n      swap2\n      div\n      mul\n      0x20\n      add\n      mload(0x40)\n      swap1\n      dup2\n      add\n      0x40\n      mstore\n      dup1\n      swap3\n      swap2\n      swap1\n      dup2\n      dup2\n      mstore\n      0x20\n      add\n      dup3\n      dup1\n      sload\n      0x01\n      dup2\n      0x01\n      and\n      iszero\n      0x0100\n      mul\n      sub\n      and\n      0x02\n      swap1\n      div\n      dup1\n      iszero\n      tag_169\n      jumpi\n      dup1\n      0x1f\n      lt\n      tag_170\n      jumpi\n      0x0100\n      dup1\n      dup4\n      sload\n      div\n      mul\n      dup4\n      mstore\n      swap2\n      0x20\n      add\n      swap2\n      jump(tag_169)\n    tag_170:\n      dup3\n      add\n      swap2\n      swap1\n      0x00\n      mstore\n      keccak256(0x00, 0x20)\n      swap1\n    tag_171:\n      dup2\n      sload\n      dup2\n      mstore\n      swap1\n      0x01\n      add\n      swap1\n      0x20\n      add\n      dup1\n      dup4\n      gt\n      tag_171\n      jumpi\n      dup3\n      swap1\n      sub\n      0x1f\n      and\n      dup3\n      add\n      swap2\n    tag_169:\n      pop\n      pop\n      pop\n      pop\n      pop\n      dup2\n      mstore\n      0x20\n      add\n      swap1\n      0x01\n      add\n      swap1\n      jump(tag_166)\n    tag_167:\n      pop\n      pop\n      pop\n      pop\n      dup2\n      mstore\n      0x20\n      add\n      0x02\n      dup3\n      add\n      dup1\n      sload\n      dup1\n      0x20\n      mul\n      0x20\n      add\n      mload(0x40)\n      swap1\n      dup2\n      add\n      0x40\n      mstore\n      dup1\n      swap3\n      swap2\n      swap1\n      dup2\n      dup2\n      mstore\n      0x20\n      add\n      0x00\n      swap1\n    tag_172:\n      dup3\n      dup3\n      lt\n      iszero\n      tag_173\n      jumpi\n      dup4\n      dup3\n      swap1\n      0x00\n      mstore\n      keccak256(0x00, 0x20)\n      add\n      dup1\n      sload\n      0x01\n      dup2\n      0x01\n      and\n      iszero\n      0x0100\n      mul\n      sub\n      and\n      0x02\n      swap1\n      div\n      dup1\n      0x1f\n      add\n      0x20\n      dup1\n      swap2\n      div\n      mul\n      0x20\n      add\n      mload(0x40)\n      swap1\n      dup2\n      add\n      0x40\n      mstore\n      dup1\n      swap3\n      swap2\n      swap1\n      dup2\n      dup2\n      mstore\n      0x20\n      add\n      dup3\n      dup1\n      sload\n      0x01\n      dup2\n      0x01\n      and\n      iszero\n      0x0100\n      mul\n      sub\n      and\n      0x02\n      swap1\n      div\n      dup1\n      iszero\n      tag_175\n      jumpi\n      dup1\n      0x1f\n      lt\n      tag_176\n      jumpi\n      0x0100\n      dup1\n      dup4\n      sload\n      div\n      mul\n      dup4\n      mstore\n      swap2\n      0x20\n      add\n      swap2\n      jump(tag_175)\n    tag_176:\n      dup3\n      add\n      swap2\n      swap1\n      0x00\n      mstore\n      keccak256(0x00, 0x20)\n      swap1\n    tag_177:\n      dup2\n      sload\n      dup2\n      mstore\n      swap1\n      0x01\n      add\n      swap1\n      0x20\n      add\n      dup1\n      dup4\n      gt\n      tag_177\n      jumpi\n      dup3\n      swap1\n      sub\n      0x1f\n      and\n      dup3\n      add\n      swap2\n    tag_175:\n      pop\n      pop\n      pop\n      pop\n      pop\n      dup2\n      mstore\n      0x20\n      add\n      swap1\n      0x01\n      add\n      swap1\n      jump(tag_172)\n    tag_173:\n      pop\n      pop\n      pop\n      pop\n      dup2\n      mstore\n      0x20\n      add\n      0x03\n      dup3\n      add\n      dup1\n      sload\n      dup1\n      0x20\n      mul\n      0x20\n      add\n      mload(0x40)\n      swap1\n      dup2\n      add\n      0x40\n      mstore\n      dup1\n      swap3\n      swap2\n      swap1\n      dup2\n      dup2\n      mstore\n      0x20\n      add\n      0x00\n      swap1\n    tag_178:\n      dup3\n      dup3\n      lt\n      iszero\n      tag_179\n      jumpi\n      dup4\n      dup3\n      swap1\n      0x00\n      mstore\n      keccak256(0x00, 0x20)\n      add\n      dup1\n      sload\n      0x01\n      dup2\n      0x01\n      and\n      iszero\n      0x0100\n      mul\n      sub\n      and\n      0x02\n      swap1\n      div\n      dup1\n      0x1f\n      add\n      0x20\n      dup1\n      swap2\n      div\n      mul\n      0x20\n      add\n      mload(0x40)\n      swap1\n      dup2\n      add\n      0x40\n      mstore\n      dup1\n      swap3\n      swap2\n      swap1\n      dup2\n      dup2\n      mstore\n      0x20\n      add\n      dup3\n      dup1\n      sload\n      0x01\n      dup2\n      0x01\n      and\n      iszero\n      0x0100\n      mul\n      sub\n      and\n      0x02\n      swap1\n      div\n      dup1\n      iszero\n      tag_181\n      jumpi\n      dup1\n      0x1f\n      lt\n      tag_182\n      jumpi\n      0x0100\n      dup1\n      dup4\n      sload\n      div\n      mul\n      dup4\n      mstore\n      swap2\n      0x20\n      add\n      swap2\n      jump(tag_181)\n    tag_182:\n      dup3\n      add\n      swap2\n      swap1\n      0x00\n      mstore\n      keccak256(0x00, 0x20)\n      swap1\n    tag_183:\n      dup2\n      sload\n      dup2\n      mstore\n      swap1\n      0x01\n      add\n      swap1\n      0x20\n      add\n      dup1\n      dup4\n      gt\n      tag_183\n      jumpi\n      dup3\n      swap1\n      sub\n      0x1f\n      and\n      dup3\n      add\n      swap2\n    tag_181:\n      pop\n      pop\n      pop\n      pop\n      pop\n      dup2\n      mstore\n      0x20\n      add\n      swap1\n      0x01\n      add\n      swap1\n      jump(tag_178)\n    tag_179:\n      pop\n      pop\n      pop\n      pop\n      dup2\n      mstore\n      pop\n      pop\n      swap1\n      pop\n      swap4\n      pop\n      swap4\n      pop\n      swap4\n      pop\n      swap4\n      pop\n      jump(tag_112)\n        /* \"background.sol\":8666:9851  if(isDoctorAllowed(msg.sender)) {\r... */\n    tag_114:\n        /* \"background.sol\":8821:8853  PatientDemographics memory dummy */\n      tag_185\n      tag_108\n      jump\t// in\n    tag_185:\n        /* \"background.sol\":8856:9149  PatientDemographics({\r... */\n      0x0100\n      mload(0x40)\n      swap1\n      dup2\n      add\n      0x40\n      mstore\n      dup1\n      0x40\n      dup1\n      mload\n      swap1\n      dup2\n      add\n      0x40\n      mstore\n      dup1\n      0x03\n      dup2\n      mstore\n      0x20\n      add\n      0x7878780000000000000000000000000000000000000000000000000000000000\n      dup2\n      mstore\n      pop\n      dup2\n      mstore\n      0x20\n      add\n      0x40\n      dup1\n      mload\n      swap1\n      dup2\n      add\n      0x40\n      mstore\n      dup1\n      0x03\n      dup2\n      mstore\n      0x20\n      add\n      0x7878780000000000000000000000000000000000000000000000000000000000\n      dup2\n      mstore\n      pop\n      dup2\n      mstore\n      0x20\n      add\n      0x40\n      dup1\n      mload\n      swap1\n      dup2\n      add\n      0x40\n      mstore\n      dup1\n      0x03\n      dup2\n      mstore\n      0x20\n      add\n      0x7878780000000000000000000000000000000000000000000000000000000000\n      dup2\n      mstore\n      pop\n      dup2\n      mstore\n      0x20\n      add\n      0x40\n      dup1\n      mload\n      swap1\n      dup2\n      add\n      0x40\n      mstore\n      dup1\n      0x03\n      dup2\n      mstore\n      0x20\n      add\n      0x7878780000000000000000000000000000000000000000000000000000000000\n      dup2\n      mstore\n      pop\n      dup2\n      mstore\n      0x20\n      add\n        /* \"background.sol\":9027:9030  999 */\n      0x03e7\n        /* \"background.sol\":8856:9149  PatientDemographics({\r... */\n      dup2\n      mstore\n      0x20\n      add\n      0x40\n      dup1\n      mload\n      swap1\n      dup2\n      add\n      0x40\n      mstore\n      dup1\n      0x03\n      dup2\n      mstore\n      0x20\n      add\n      0x7878780000000000000000000000000000000000000000000000000000000000\n      dup2\n      mstore\n      pop\n      dup2\n      mstore\n      0x20\n      add\n      0x40\n      dup1\n      mload\n      swap1\n      dup2\n      add\n      0x40\n      mstore\n      dup1\n      0x03\n      dup2\n      mstore\n      0x20\n      add\n      0x7878780000000000000000000000000000000000000000000000000000000000\n      dup2\n      mstore\n      pop\n      dup2\n      mstore\n      0x20\n      add\n      0x40\n      dup1\n      mload\n      swap1\n      dup2\n      add\n      0x40\n      mstore\n      dup1\n      0x03\n      dup2\n      mstore\n      0x20\n      add\n      0x7878780000000000000000000000000000000000000000000000000000000000\n      dup2\n      mstore\n      pop\n      dup2\n      mstore\n      pop\n        /* \"background.sol\":8821:9149  PatientDemographics memory dummy = PatientDemographics({\r... */\n      swap1\n      pop\n        /* \"background.sol\":9164:9197  PatientNonDemographics memory dum */\n      tag_186\n      tag_97\n      jump\t// in\n    tag_186:\n        /* \"background.sol\":9200:9539  PatientNonDemographics({\r... */\n      0x0100\n      mload(0x40)\n      swap1\n      dup2\n      add\n      0x40\n      mstore\n      dup1\n      0x40\n      dup1\n      mload\n      swap1\n      dup2\n      add\n      0x40\n      mstore\n      dup1\n      0x03\n      dup2\n      mstore\n      0x20\n      add\n      0x7878780000000000000000000000000000000000000000000000000000000000\n      dup2\n      mstore\n      pop\n      dup2\n      mstore\n      0x20\n      add\n      0x40\n      dup1\n      mload\n      swap1\n      dup2\n      add\n      0x40\n      mstore\n      dup1\n      0x03\n      dup2\n      mstore\n      0x20\n      add\n      0x7878780000000000000000000000000000000000000000000000000000000000\n      dup2\n      mstore\n      pop\n      dup2\n      mstore\n      0x20\n      add\n      0x40\n      dup1\n      mload\n      swap1\n      dup2\n      add\n      0x40\n      mstore\n      dup1\n      0x03\n      dup2\n      mstore\n      0x20\n      add\n      0x7878780000000000000000000000000000000000000000000000000000000000\n      dup2\n      mstore\n      pop\n      dup2\n      mstore\n      0x20\n      add\n      0x40\n      dup1\n      mload\n      swap1\n      dup2\n      add\n      0x40\n      mstore\n      dup1\n      0x03\n      dup2\n      mstore\n      0x20\n      add\n      0x7878780000000000000000000000000000000000000000000000000000000000\n      dup2\n      mstore\n      pop\n      dup2\n      mstore\n      0x20\n      add\n      0x40\n      dup1\n      mload\n      swap1\n      dup2\n      add\n      0x40\n      mstore\n      dup1\n      0x03\n      dup2\n      mstore\n      0x20\n      add\n      0x7878780000000000000000000000000000000000000000000000000000000000\n      dup2\n      mstore\n      pop\n      dup2\n      mstore\n      0x20\n      add\n      0x40\n      dup1\n      mload\n      swap1\n      dup2\n      add\n      0x40\n      mstore\n      dup1\n      0x03\n      dup2\n      mstore\n      0x20\n      add\n      0x7878780000000000000000000000000000000000000000000000000000000000\n      dup2\n      mstore\n      pop\n      dup2\n      mstore\n      0x20\n      add\n      0x40\n      dup1\n      mload\n      swap1\n      dup2\n      add\n      0x40\n      mstore\n      dup1\n      0x03\n      dup2\n      mstore\n      0x20\n      add\n      0x7878780000000000000000000000000000000000000000000000000000000000\n      dup2\n      mstore\n      pop\n      dup2\n      mstore\n      0x20\n      add\n      0x40\n      dup1\n      mload\n      swap1\n      dup2\n      add\n      0x40\n      mstore\n      dup1\n      0x03\n      dup2\n      mstore\n      0x20\n      add\n      0x7878780000000000000000000000000000000000000000000000000000000000\n      dup2\n      mstore\n      pop\n      dup2\n      mstore\n      pop\n        /* \"background.sol\":9164:9539  PatientNonDemographics memory dum = PatientNonDemographics({\r... */\n      swap1\n      pop\n        /* \"background.sol\":9554:9575  Files memory dumFiles */\n      tag_187\n      tag_111\n      jump\t// in\n    tag_187:\n        /* \"background.sol\":9578:9789  Files({\r... */\n      0x80\n      mload(0x40)\n      swap1\n      dup2\n      add\n      0x40\n      mstore\n      dup1\n        /* \"background.sol\":9629:9630  1 */\n      0x01\n        /* \"background.sol\":9616:9631  new string[](1) */\n      mload(0x40)\n      swap1\n      dup1\n      dup3\n      mstore\n      dup1\n      0x20\n      mul\n      0x20\n      add\n      dup3\n      add\n      0x40\n      mstore\n      dup1\n      iszero\n      tag_188\n      jumpi\n      dup2\n      0x20\n      add\n    tag_189:\n      0x60\n      dup2\n      mstore\n      0x20\n      add\n      swap1\n      0x01\n      swap1\n      sub\n      swap1\n      dup2\n      tag_189\n      jumpi\n      swap1\n      pop\n    tag_188:\n      pop\n        /* \"background.sol\":9578:9789  Files({\r... */\n      dup2\n      mstore\n      0x20\n      add\n        /* \"background.sol\":9680:9681  1 */\n      0x01\n        /* \"background.sol\":9667:9682  new string[](1) */\n      mload(0x40)\n      swap1\n      dup1\n      dup3\n      mstore\n      dup1\n      0x20\n      mul\n      0x20\n      add\n      dup3\n      add\n      0x40\n      mstore\n      dup1\n      iszero\n      tag_190\n      jumpi\n      dup2\n      0x20\n      add\n    tag_191:\n      0x60\n      dup2\n      mstore\n      0x20\n      add\n      swap1\n      0x01\n      swap1\n      sub\n      swap1\n      dup2\n      tag_191\n      jumpi\n      swap1\n      pop\n    tag_190:\n      pop\n        /* \"background.sol\":9578:9789  Files({\r... */\n      dup2\n      mstore\n      0x20\n      add\n        /* \"background.sol\":9726:9727  1 */\n      0x01\n        /* \"background.sol\":9713:9728  new string[](1) */\n      mload(0x40)\n      swap1\n      dup1\n      dup3\n      mstore\n      dup1\n      0x20\n      mul\n      0x20\n      add\n      dup3\n      add\n      0x40\n      mstore\n      dup1\n      iszero\n      tag_192\n      jumpi\n      dup2\n      0x20\n      add\n    tag_193:\n      0x60\n      dup2\n      mstore\n      0x20\n      add\n      swap1\n      0x01\n      swap1\n      sub\n      swap1\n      dup2\n      tag_193\n      jumpi\n      swap1\n      pop\n    tag_192:\n      pop\n        /* \"background.sol\":9578:9789  Files({\r... */\n      dup2\n      mstore\n      0x20\n      add\n        /* \"background.sol\":9771:9772  1 */\n      0x01\n        /* \"background.sol\":9758:9773  new string[](1) */\n      mload(0x40)\n      swap1\n      dup1\n      dup3\n      mstore\n      dup1\n      0x20\n      mul\n      0x20\n      add\n      dup3\n      add\n      0x40\n      mstore\n      dup1\n      iszero\n      tag_194\n      jumpi\n      dup2\n      0x20\n      add\n    tag_195:\n      0x60\n      dup2\n      mstore\n      0x20\n      add\n      swap1\n      0x01\n      swap1\n      sub\n      swap1\n      dup2\n      tag_195\n      jumpi\n      swap1\n      pop\n    tag_194:\n      pop\n        /* \"background.sol\":9578:9789  Files({\r... */\n      dup2\n      mstore\n      pop\n        /* \"background.sol\":9554:9789  Files memory dumFiles = Files({\r... */\n      swap1\n      pop\n        /* \"background.sol\":9811:9816  false */\n      0x00\n        /* \"background.sol\":9818:9823  dummy */\n      dup4\n        /* \"background.sol\":9825:9828  dum */\n      dup4\n        /* \"background.sol\":9830:9838  dumFiles */\n      dup4\n        /* \"background.sol\":9804:9839  return(false, dummy, dum, dumFiles) */\n      swap7\n      pop\n      swap7\n      pop\n      swap7\n      pop\n      swap7\n      pop\n      pop\n      pop\n      pop\n        /* \"background.sol\":8530:9858  function getPatientData() public view returns(bool, PatientDemographics memory, PatientNonDemographics memory, Files memory) {\r... */\n    tag_112:\n      swap1\n      swap2\n      swap3\n      swap4\n      jump\t// out\n        /* \"background.sol\":7513:7722  function addDoctor(address doc, string memory pass) public {\r... */\n    tag_36:\n        /* \"background.sol\":7650:7658  password */\n      0x15\n        /* \"background.sol\":7633:7659  abi.encodePacked(password) */\n      add(0x20, mload(0x40))\n      dup1\n      dup3\n      dup1\n      sload\n      0x01\n      dup2\n      0x01\n      and\n      iszero\n      0x0100\n      mul\n      sub\n      and\n      0x02\n      swap1\n      div\n      dup1\n      iszero\n      tag_197\n      jumpi\n      dup1\n      0x1f\n      lt\n      tag_198\n      jumpi\n      0x0100\n      dup1\n      dup4\n      sload\n      div\n      mul\n      dup4\n      mstore\n      swap2\n      dup3\n      add\n      swap2\n      jump(tag_197)\n    tag_198:\n      dup3\n      add\n      swap2\n      swap1\n      0x00\n      mstore\n      keccak256(0x00, 0x20)\n      swap1\n    tag_199:\n      dup2\n      sload\n      dup2\n      mstore\n      swap1\n      0x01\n      add\n      swap1\n      0x20\n      add\n      dup1\n      dup4\n      gt\n      tag_199\n      jumpi\n    tag_197:\n      pop\n      pop\n      swap2\n      pop\n      pop\n      mload(0x40)\n        /* \"--CODEGEN--\":49:53   */\n      0x20\n        /* \"--CODEGEN--\":39:46   */\n      dup2\n        /* \"--CODEGEN--\":30:37   */\n      dup4\n        /* \"--CODEGEN--\":26:47   */\n      sub\n        /* \"--CODEGEN--\":22:54   */\n      sub\n        /* \"--CODEGEN--\":13:20   */\n      dup2\n        /* \"--CODEGEN--\":6:55   */\n      mstore\n        /* \"background.sol\":7633:7659  abi.encodePacked(password) */\n      swap1\n      0x40\n      mstore\n        /* \"background.sol\":7623:7660  keccak256(abi.encodePacked(password)) */\n      dup1\n      mload\n      swap1\n      0x20\n      add\n      keccak256\n        /* \"background.sol\":7613:7617  pass */\n      dup2\n        /* \"background.sol\":7596:7618  abi.encodePacked(pass) */\n      add(0x20, mload(0x40))\n      dup1\n      dup3\n      dup1\n      mload\n      swap1\n      0x20\n      add\n      swap1\n      dup1\n      dup4\n      dup4\n        /* \"--CODEGEN--\":36:189   */\n    tag_200:\n        /* \"--CODEGEN--\":66:68   */\n      0x20\n        /* \"--CODEGEN--\":61:64   */\n      dup4\n        /* \"--CODEGEN--\":58:69   */\n      lt\n        /* \"--CODEGEN--\":51:70   */\n      iszero\n        /* \"--CODEGEN--\":36:189   */\n      iszero\n      tag_201\n      jumpi\n        /* \"--CODEGEN--\":182:185   */\n      dup1\n        /* \"--CODEGEN--\":176:186   */\n      mload\n        /* \"--CODEGEN--\":171:174   */\n      dup3\n        /* \"--CODEGEN--\":164:187   */\n      mstore\n        /* \"--CODEGEN--\":98:100   */\n      0x20\n        /* \"--CODEGEN--\":93:96   */\n      dup3\n        /* \"--CODEGEN--\":89:101   */\n      add\n        /* \"--CODEGEN--\":82:101   */\n      swap2\n      pop\n        /* \"--CODEGEN--\":123:125   */\n      0x20\n        /* \"--CODEGEN--\":118:121   */\n      dup2\n        /* \"--CODEGEN--\":114:126   */\n      add\n        /* \"--CODEGEN--\":107:126   */\n      swap1\n      pop\n        /* \"--CODEGEN--\":148:150   */\n      0x20\n        /* \"--CODEGEN--\":143:146   */\n      dup4\n        /* \"--CODEGEN--\":139:151   */\n      sub\n        /* \"--CODEGEN--\":132:151   */\n      swap3\n      pop\n        /* \"--CODEGEN--\":36:189   */\n      jump(tag_200)\n    tag_201:\n        /* \"--CODEGEN--\":274:275   */\n      0x01\n        /* \"--CODEGEN--\":267:270   */\n      dup4\n        /* \"--CODEGEN--\":263:265   */\n      0x20\n        /* \"--CODEGEN--\":259:271   */\n      sub\n        /* \"--CODEGEN--\":254:257   */\n      0x0100\n        /* \"--CODEGEN--\":250:272   */\n      exp\n        /* \"--CODEGEN--\":246:276   */\n      sub\n        /* \"--CODEGEN--\":315:319   */\n      dup1\n        /* \"--CODEGEN--\":311:320   */\n      not\n        /* \"--CODEGEN--\":305:308   */\n      dup3\n        /* \"--CODEGEN--\":299:309   */\n      mload\n        /* \"--CODEGEN--\":295:321   */\n      and\n        /* \"--CODEGEN--\":356:360   */\n      dup2\n        /* \"--CODEGEN--\":350:353   */\n      dup5\n        /* \"--CODEGEN--\":344:354   */\n      mload\n        /* \"--CODEGEN--\":340:361   */\n      and\n        /* \"--CODEGEN--\":389:396   */\n      dup1\n        /* \"--CODEGEN--\":380:387   */\n      dup3\n        /* \"--CODEGEN--\":377:397   */\n      or\n        /* \"--CODEGEN--\":372:375   */\n      dup6\n        /* \"--CODEGEN--\":365:398   */\n      mstore\n        /* \"--CODEGEN--\":3:402   */\n      pop\n      pop\n      pop\n        /* \"background.sol\":7596:7618  abi.encodePacked(pass) */\n      pop\n      pop\n      pop\n      swap1\n      pop\n      add\n      swap2\n      pop\n      pop\n      mload(0x40)\n        /* \"--CODEGEN--\":49:53   */\n      0x20\n        /* \"--CODEGEN--\":39:46   */\n      dup2\n        /* \"--CODEGEN--\":30:37   */\n      dup4\n        /* \"--CODEGEN--\":26:47   */\n      sub\n        /* \"--CODEGEN--\":22:54   */\n      sub\n        /* \"--CODEGEN--\":13:20   */\n      dup2\n        /* \"--CODEGEN--\":6:55   */\n      mstore\n        /* \"background.sol\":7596:7618  abi.encodePacked(pass) */\n      swap1\n      0x40\n      mstore\n        /* \"background.sol\":7586:7619  keccak256(abi.encodePacked(pass)) */\n      dup1\n      mload\n      swap1\n      0x20\n      add\n      keccak256\n        /* \"background.sol\":7586:7660  keccak256(abi.encodePacked(pass)) == keccak256(abi.encodePacked(password)) */\n      eq\n        /* \"background.sol\":7583:7715  if(keccak256(abi.encodePacked(pass)) == keccak256(abi.encodePacked(password))) {\r... */\n      iszero\n      tag_203\n      jumpi\n        /* \"background.sol\":7699:7703  true */\n      0x01\n        /* \"background.sol\":7677:7691  doctorsAllowed */\n      0x14\n        /* \"background.sol\":7677:7696  doctorsAllowed[doc] */\n      0x00\n        /* \"background.sol\":7692:7695  doc */\n      dup5\n        /* \"background.sol\":7677:7696  doctorsAllowed[doc] */\n      0xffffffffffffffffffffffffffffffffffffffff\n      and\n      0xffffffffffffffffffffffffffffffffffffffff\n      and\n      dup2\n      mstore\n      0x20\n      add\n      swap1\n      dup2\n      mstore\n      0x20\n      add\n      0x00\n      keccak256\n      0x00\n        /* \"background.sol\":7677:7703  doctorsAllowed[doc] = true */\n      0x0100\n      exp\n      dup2\n      sload\n      dup2\n      0xff\n      mul\n      not\n      and\n      swap1\n      dup4\n      iszero\n      iszero\n      mul\n      or\n      swap1\n      sstore\n      pop\n        /* \"background.sol\":7583:7715  if(keccak256(abi.encodePacked(pass)) == keccak256(abi.encodePacked(password))) {\r... */\n    tag_203:\n        /* \"background.sol\":7513:7722  function addDoctor(address doc, string memory pass) public {\r... */\n      pop\n      pop\n      jump\t// out\n        /* \"background.sol\":7249:7501  function isCorrectPassword(string memory pass) public view returns(bool) {\r... */\n    tag_40:\n        /* \"background.sol\":7316:7320  bool */\n      0x00\n        /* \"background.sol\":7400:7408  password */\n      0x15\n        /* \"background.sol\":7383:7409  abi.encodePacked(password) */\n      add(0x20, mload(0x40))\n      dup1\n      dup3\n      dup1\n      sload\n      0x01\n      dup2\n      0x01\n      and\n      iszero\n      0x0100\n      mul\n      sub\n      and\n      0x02\n      swap1\n      div\n      dup1\n      iszero\n      tag_205\n      jumpi\n      dup1\n      0x1f\n      lt\n      tag_206\n      jumpi\n      0x0100\n      dup1\n      dup4\n      sload\n      div\n      mul\n      dup4\n      mstore\n      swap2\n      dup3\n      add\n      swap2\n      jump(tag_205)\n    tag_206:\n      dup3\n      add\n      swap2\n      swap1\n      0x00\n      mstore\n      keccak256(0x00, 0x20)\n      swap1\n    tag_207:\n      dup2\n      sload\n      dup2\n      mstore\n      swap1\n      0x01\n      add\n      swap1\n      0x20\n      add\n      dup1\n      dup4\n      gt\n      tag_207\n      jumpi\n    tag_205:\n      pop\n      pop\n      swap2\n      pop\n      pop\n      mload(0x40)\n        /* \"--CODEGEN--\":49:53   */\n      0x20\n        /* \"--CODEGEN--\":39:46   */\n      dup2\n        /* \"--CODEGEN--\":30:37   */\n      dup4\n        /* \"--CODEGEN--\":26:47   */\n      sub\n        /* \"--CODEGEN--\":22:54   */\n      sub\n        /* \"--CODEGEN--\":13:20   */\n      dup2\n        /* \"--CODEGEN--\":6:55   */\n      mstore\n        /* \"background.sol\":7383:7409  abi.encodePacked(password) */\n      swap1\n      0x40\n      mstore\n        /* \"background.sol\":7373:7410  keccak256(abi.encodePacked(password)) */\n      dup1\n      mload\n      swap1\n      0x20\n      add\n      keccak256\n        /* \"background.sol\":7363:7367  pass */\n      dup3\n        /* \"background.sol\":7346:7368  abi.encodePacked(pass) */\n      add(0x20, mload(0x40))\n      dup1\n      dup3\n      dup1\n      mload\n      swap1\n      0x20\n      add\n      swap1\n      dup1\n      dup4\n      dup4\n        /* \"--CODEGEN--\":36:189   */\n    tag_208:\n        /* \"--CODEGEN--\":66:68   */\n      0x20\n        /* \"--CODEGEN--\":61:64   */\n      dup4\n        /* \"--CODEGEN--\":58:69   */\n      lt\n        /* \"--CODEGEN--\":51:70   */\n      iszero\n        /* \"--CODEGEN--\":36:189   */\n      iszero\n      tag_209\n      jumpi\n        /* \"--CODEGEN--\":182:185   */\n      dup1\n        /* \"--CODEGEN--\":176:186   */\n      mload\n        /* \"--CODEGEN--\":171:174   */\n      dup3\n        /* \"--CODEGEN--\":164:187   */\n      mstore\n        /* \"--CODEGEN--\":98:100   */\n      0x20\n        /* \"--CODEGEN--\":93:96   */\n      dup3\n        /* \"--CODEGEN--\":89:101   */\n      add\n        /* \"--CODEGEN--\":82:101   */\n      swap2\n      pop\n        /* \"--CODEGEN--\":123:125   */\n      0x20\n        /* \"--CODEGEN--\":118:121   */\n      dup2\n        /* \"--CODEGEN--\":114:126   */\n      add\n        /* \"--CODEGEN--\":107:126   */\n      swap1\n      pop\n        /* \"--CODEGEN--\":148:150   */\n      0x20\n        /* \"--CODEGEN--\":143:146   */\n      dup4\n        /* \"--CODEGEN--\":139:151   */\n      sub\n        /* \"--CODEGEN--\":132:151   */\n      swap3\n      pop\n        /* \"--CODEGEN--\":36:189   */\n      jump(tag_208)\n    tag_209:\n        /* \"--CODEGEN--\":274:275   */\n      0x01\n        /* \"--CODEGEN--\":267:270   */\n      dup4\n        /* \"--CODEGEN--\":263:265   */\n      0x20\n        /* \"--CODEGEN--\":259:271   */\n      sub\n        /* \"--CODEGEN--\":254:257   */\n      0x0100\n        /* \"--CODEGEN--\":250:272   */\n      exp\n        /* \"--CODEGEN--\":246:276   */\n      sub\n        /* \"--CODEGEN--\":315:319   */\n      dup1\n        /* \"--CODEGEN--\":311:320   */\n      not\n        /* \"--CODEGEN--\":305:308   */\n      dup3\n        /* \"--CODEGEN--\":299:309   */\n      mload\n        /* \"--CODEGEN--\":295:321   */\n      and\n        /* \"--CODEGEN--\":356:360   */\n      dup2\n        /* \"--CODEGEN--\":350:353   */\n      dup5\n        /* \"--CODEGEN--\":344:354   */\n      mload\n        /* \"--CODEGEN--\":340:361   */\n      and\n        /* \"--CODEGEN--\":389:396   */\n      dup1\n        /* \"--CODEGEN--\":380:387   */\n      dup3\n        /* \"--CODEGEN--\":377:397   */\n      or\n        /* \"--CODEGEN--\":372:375   */\n      dup6\n        /* \"--CODEGEN--\":365:398   */\n      mstore\n        /* \"--CODEGEN--\":3:402   */\n      pop\n      pop\n      pop\n        /* \"background.sol\":7346:7368  abi.encodePacked(pass) */\n      pop\n      pop\n      pop\n      swap1\n      pop\n      add\n      swap2\n      pop\n      pop\n      mload(0x40)\n        /* \"--CODEGEN--\":49:53   */\n      0x20\n        /* \"--CODEGEN--\":39:46   */\n      dup2\n        /* \"--CODEGEN--\":30:37   */\n      dup4\n        /* \"--CODEGEN--\":26:47   */\n      sub\n        /* \"--CODEGEN--\":22:54   */\n      sub\n        /* \"--CODEGEN--\":13:20   */\n      dup2\n        /* \"--CODEGEN--\":6:55   */\n      mstore\n        /* \"background.sol\":7346:7368  abi.encodePacked(pass) */\n      swap1\n      0x40\n      mstore\n        /* \"background.sol\":7336:7369  keccak256(abi.encodePacked(pass)) */\n      dup1\n      mload\n      swap1\n      0x20\n      add\n      keccak256\n        /* \"background.sol\":7336:7410  keccak256(abi.encodePacked(pass)) == keccak256(abi.encodePacked(password)) */\n      eq\n        /* \"background.sol\":7333:7494  if(keccak256(abi.encodePacked(pass)) == keccak256(abi.encodePacked(password))) {\r... */\n      iszero\n      tag_211\n      jumpi\n        /* \"background.sol\":7434:7438  true */\n      0x01\n        /* \"background.sol\":7427:7438  return true */\n      swap1\n      pop\n      jump(tag_204)\n        /* \"background.sol\":7333:7494  if(keccak256(abi.encodePacked(pass)) == keccak256(abi.encodePacked(password))) {\r... */\n    tag_211:\n        /* \"background.sol\":7477:7482  false */\n      0x00\n        /* \"background.sol\":7470:7482  return false */\n      swap1\n      pop\n        /* \"background.sol\":7249:7501  function isCorrectPassword(string memory pass) public view returns(bool) {\r... */\n    tag_204:\n      swap2\n      swap1\n      pop\n      jump\t// out\n        /* \"background.sol\":4253:4299  mapping(address => bool) public doctorsAllowed */\n    tag_46:\n      mstore(0x20, 0x14)\n      dup1\n      0x00\n      mstore\n      keccak256(0x00, 0x40)\n      0x00\n      swap2\n      pop\n      sload\n      swap1\n      0x0100\n      exp\n      swap1\n      div\n      0xff\n      and\n      dup2\n      jump\t// out\n        /* \"background.sol\":6807:7237  function isDoctorAllowed(address add) public view returns(bool) {\r... */\n    tag_50:\n        /* \"background.sol\":6865:6869  bool */\n      0x00\n        /* \"background.sol\":6882:6892  Mapping mp */\n      dup1\n        /* \"background.sol\":6903:6945  0xD8693BAfBA8a45bE8DFD090Fa032AB4e5E8a504c */\n      0xd8693bafba8a45be8dfd090fa032ab4e5e8a504c\n        /* \"background.sol\":6882:6946  Mapping mp = Mapping(0xD8693BAfBA8a45bE8DFD090Fa032AB4e5E8a504c) */\n      swap1\n      pop\n        /* \"background.sol\":6957:6966  Doctor dc */\n      0x00\n        /* \"background.sol\":6976:6978  mp */\n      dup2\n        /* \"background.sol\":6976:6995  mp.getDoctorAddress */\n      0xffffffffffffffffffffffffffffffffffffffff\n      and\n      0xff76a739\n        /* \"background.sol\":6976:6997  mp.getDoctorAddress() */\n      mload(0x40)\n      dup2\n      0xffffffff\n      and\n      0x0100000000000000000000000000000000000000000000000000000000\n      mul\n      dup2\n      mstore\n      0x04\n      add\n      0x20\n      mload(0x40)\n      dup1\n      dup4\n      sub\n      dup2\n      dup7\n      dup1\n      extcodesize\n      iszero\n        /* \"--CODEGEN--\":8:17   */\n      dup1\n        /* \"--CODEGEN--\":5:7   */\n      iszero\n      tag_214\n      jumpi\n        /* \"--CODEGEN--\":30:31   */\n      0x00\n        /* \"--CODEGEN--\":27:28   */\n      dup1\n        /* \"--CODEGEN--\":20:32   */\n      revert\n        /* \"--CODEGEN--\":5:7   */\n    tag_214:\n        /* \"background.sol\":6976:6997  mp.getDoctorAddress() */\n      pop\n      gas\n      staticcall\n      iszero\n        /* \"--CODEGEN--\":8:17   */\n      dup1\n        /* \"--CODEGEN--\":5:7   */\n      iszero\n      tag_215\n      jumpi\n        /* \"--CODEGEN--\":45:61   */\n      returndatasize\n        /* \"--CODEGEN--\":42:43   */\n      0x00\n        /* \"--CODEGEN--\":39:40   */\n      dup1\n        /* \"--CODEGEN--\":24:62   */\n      returndatacopy\n        /* \"--CODEGEN--\":77:93   */\n      returndatasize\n        /* \"--CODEGEN--\":74:75   */\n      0x00\n        /* \"--CODEGEN--\":67:94   */\n      revert\n        /* \"--CODEGEN--\":5:7   */\n    tag_215:\n        /* \"background.sol\":6976:6997  mp.getDoctorAddress() */\n      pop\n      pop\n      pop\n      pop\n      mload(0x40)\n      returndatasize\n        /* \"--CODEGEN--\":101:105   */\n      0x1f\n        /* \"--CODEGEN--\":97:106   */\n      not\n        /* \"--CODEGEN--\":90:94   */\n      0x1f\n        /* \"--CODEGEN--\":84:88   */\n      dup3\n        /* \"--CODEGEN--\":80:95   */\n      add\n        /* \"--CODEGEN--\":76:107   */\n      and\n        /* \"--CODEGEN--\":69:74   */\n      dup3\n        /* \"--CODEGEN--\":65:108   */\n      add\n        /* \"--CODEGEN--\":126:132   */\n      dup1\n        /* \"--CODEGEN--\":120:124   */\n      0x40\n        /* \"--CODEGEN--\":113:133   */\n      mstore\n        /* \"--CODEGEN--\":0:138   */\n      pop\n        /* \"background.sol\":6976:6997  mp.getDoctorAddress() */\n      tag_216\n      swap2\n      swap1\n      dup2\n      add\n      swap1\n      jump(tag_217)\n    tag_216:\n        /* \"background.sol\":6957:6998  Doctor dc = Doctor(mp.getDoctorAddress()) */\n      swap1\n      pop\n        /* \"background.sol\":7012:7014  dc */\n      dup1\n        /* \"background.sol\":7012:7023  dc.isDoctor */\n      0xffffffffffffffffffffffffffffffffffffffff\n      and\n      0x996440c6\n        /* \"background.sol\":7024:7027  add */\n      dup6\n        /* \"background.sol\":7012:7028  dc.isDoctor(add) */\n      mload(0x40)\n      dup3\n      0xffffffff\n      and\n      0x0100000000000000000000000000000000000000000000000000000000\n      mul\n      dup2\n      mstore\n      0x04\n      add\n      tag_218\n      swap2\n      swap1\n      jump(tag_219)\n    tag_218:\n      0x20\n      mload(0x40)\n      dup1\n      dup4\n      sub\n      dup2\n      dup7\n      dup1\n      extcodesize\n      iszero\n        /* \"--CODEGEN--\":8:17   */\n      dup1\n        /* \"--CODEGEN--\":5:7   */\n      iszero\n      tag_220\n      jumpi\n        /* \"--CODEGEN--\":30:31   */\n      0x00\n        /* \"--CODEGEN--\":27:28   */\n      dup1\n        /* \"--CODEGEN--\":20:32   */\n      revert\n        /* \"--CODEGEN--\":5:7   */\n    tag_220:\n        /* \"background.sol\":7012:7028  dc.isDoctor(add) */\n      pop\n      gas\n      staticcall\n      iszero\n        /* \"--CODEGEN--\":8:17   */\n      dup1\n        /* \"--CODEGEN--\":5:7   */\n      iszero\n      tag_221\n      jumpi\n        /* \"--CODEGEN--\":45:61   */\n      returndatasize\n        /* \"--CODEGEN--\":42:43   */\n      0x00\n        /* \"--CODEGEN--\":39:40   */\n      dup1\n        /* \"--CODEGEN--\":24:62   */\n      returndatacopy\n        /* \"--CODEGEN--\":77:93   */\n      returndatasize\n        /* \"--CODEGEN--\":74:75   */\n      0x00\n        /* \"--CODEGEN--\":67:94   */\n      revert\n        /* \"--CODEGEN--\":5:7   */\n    tag_221:\n        /* \"background.sol\":7012:7028  dc.isDoctor(add) */\n      pop\n      pop\n      pop\n      pop\n      mload(0x40)\n      returndatasize\n        /* \"--CODEGEN--\":101:105   */\n      0x1f\n        /* \"--CODEGEN--\":97:106   */\n      not\n        /* \"--CODEGEN--\":90:94   */\n      0x1f\n        /* \"--CODEGEN--\":84:88   */\n      dup3\n        /* \"--CODEGEN--\":80:95   */\n      add\n        /* \"--CODEGEN--\":76:107   */\n      and\n        /* \"--CODEGEN--\":69:74   */\n      dup3\n        /* \"--CODEGEN--\":65:108   */\n      add\n        /* \"--CODEGEN--\":126:132   */\n      dup1\n        /* \"--CODEGEN--\":120:124   */\n      0x40\n        /* \"--CODEGEN--\":113:133   */\n      mstore\n        /* \"--CODEGEN--\":0:138   */\n      pop\n        /* \"background.sol\":7012:7028  dc.isDoctor(add) */\n      tag_222\n      swap2\n      swap1\n      dup2\n      add\n      swap1\n      jump(tag_223)\n    tag_222:\n        /* \"background.sol\":7009:7230  if(dc.isDoctor(add)) {\r... */\n      iszero\n      tag_224\n      jumpi\n        /* \"background.sol\":7071:7075  true */\n      0x01\n        /* \"background.sol\":7048:7075  doctorsAllowed[add] == true */\n      iszero\n      iszero\n        /* \"background.sol\":7048:7062  doctorsAllowed */\n      0x14\n        /* \"background.sol\":7048:7067  doctorsAllowed[add] */\n      0x00\n        /* \"background.sol\":7063:7066  add */\n      dup7\n        /* \"background.sol\":7048:7067  doctorsAllowed[add] */\n      0xffffffffffffffffffffffffffffffffffffffff\n      and\n      0xffffffffffffffffffffffffffffffffffffffff\n      and\n      dup2\n      mstore\n      0x20\n      add\n      swap1\n      dup2\n      mstore\n      0x20\n      add\n      0x00\n      keccak256\n      0x00\n      swap1\n      sload\n      swap1\n      0x0100\n      exp\n      swap1\n      div\n      0xff\n      and\n        /* \"background.sol\":7048:7075  doctorsAllowed[add] == true */\n      iszero\n      iszero\n      eq\n        /* \"background.sol\":7045:7175  if(doctorsAllowed[add] == true) {\r... */\n      iszero\n      tag_225\n      jumpi\n        /* \"background.sol\":7103:7107  true */\n      0x01\n        /* \"background.sol\":7096:7107  return true */\n      swap3\n      pop\n      pop\n      pop\n      jump(tag_213)\n        /* \"background.sol\":7045:7175  if(doctorsAllowed[add] == true) {\r... */\n    tag_225:\n        /* \"background.sol\":7154:7159  false */\n      0x00\n        /* \"background.sol\":7147:7159  return false */\n      swap3\n      pop\n      pop\n      pop\n      jump(tag_213)\n        /* \"background.sol\":7009:7230  if(dc.isDoctor(add)) {\r... */\n    tag_224:\n        /* \"background.sol\":7213:7218  false */\n      0x00\n        /* \"background.sol\":7206:7218  return false */\n      swap3\n      pop\n      pop\n      pop\n        /* \"background.sol\":6807:7237  function isDoctorAllowed(address add) public view returns(bool) {\r... */\n    tag_213:\n      swap2\n      swap1\n      pop\n      jump\t// out\n        /* \"background.sol\":3420:10435  contract MedicalRecord {\r... */\n    tag_62:\n      dup3\n      dup1\n      sload\n      0x01\n      dup2\n      0x01\n      and\n      iszero\n      0x0100\n      mul\n      sub\n      and\n      0x02\n      swap1\n      div\n      swap1\n      0x00\n      mstore\n      keccak256(0x00, 0x20)\n      swap1\n      0x1f\n      add\n      0x20\n      swap1\n      div\n      dup2\n      add\n      swap3\n      dup3\n      0x1f\n      lt\n      tag_229\n      jumpi\n      dup1\n      mload\n      not(0xff)\n      and\n      dup4\n      dup1\n      add\n      or\n      dup6\n      sstore\n      jump(tag_228)\n    tag_229:\n      dup3\n      dup1\n      add\n      0x01\n      add\n      dup6\n      sstore\n      dup3\n      iszero\n      tag_228\n      jumpi\n      swap2\n      dup3\n      add\n    tag_230:\n      dup3\n      dup2\n      gt\n      iszero\n      tag_231\n      jumpi\n      dup3\n      mload\n      dup3\n      sstore\n      swap2\n      0x20\n      add\n      swap2\n      swap1\n      0x01\n      add\n      swap1\n      jump(tag_230)\n    tag_231:\n    tag_228:\n      pop\n      swap1\n      pop\n      tag_232\n      swap2\n      swap1\n      tag_233\n      jump\t// in\n    tag_232:\n      pop\n      swap1\n      jump\t// out\n    tag_97:\n      0x0100\n      mload(0x40)\n      swap1\n      dup2\n      add\n      0x40\n      mstore\n      dup1\n      0x60\n      dup2\n      mstore\n      0x20\n      add\n      0x60\n      dup2\n      mstore\n      0x20\n      add\n      0x60\n      dup2\n      mstore\n      0x20\n      add\n      0x60\n      dup2\n      mstore\n      0x20\n      add\n      0x60\n      dup2\n      mstore\n      0x20\n      add\n      0x60\n      dup2\n      mstore\n      0x20\n      add\n      0x60\n      dup2\n      mstore\n      0x20\n      add\n      0x60\n      dup2\n      mstore\n      pop\n      swap1\n      jump\t// out\n    tag_99:\n      dup3\n      dup1\n      sload\n      0x01\n      dup2\n      0x01\n      and\n      iszero\n      0x0100\n      mul\n      sub\n      and\n      0x02\n      swap1\n      div\n      swap1\n      0x00\n      mstore\n      keccak256(0x00, 0x20)\n      swap1\n      0x1f\n      add\n      0x20\n      swap1\n      div\n      dup2\n      add\n      swap3\n      dup3\n      0x1f\n      lt\n      tag_235\n      jumpi\n      dup1\n      mload\n      not(0xff)\n      and\n      dup4\n      dup1\n      add\n      or\n      dup6\n      sstore\n      jump(tag_234)\n    tag_235:\n      dup3\n      dup1\n      add\n      0x01\n      add\n      dup6\n      sstore\n      dup3\n      iszero\n      tag_234\n      jumpi\n      swap2\n      dup3\n      add\n    tag_236:\n      dup3\n      dup2\n      gt\n      iszero\n      tag_237\n      jumpi\n      dup3\n      mload\n      dup3\n      sstore\n      swap2\n      0x20\n      add\n      swap2\n      swap1\n      0x01\n      add\n      swap1\n      jump(tag_236)\n    tag_237:\n    tag_234:\n      pop\n      swap1\n      pop\n      tag_238\n      swap2\n      swap1\n      tag_233\n      jump\t// in\n    tag_238:\n      pop\n      swap1\n      jump\t// out\n    tag_108:\n      0x0100\n      mload(0x40)\n      swap1\n      dup2\n      add\n      0x40\n      mstore\n      dup1\n      0x60\n      dup2\n      mstore\n      0x20\n      add\n      0x60\n      dup2\n      mstore\n      0x20\n      add\n      0x60\n      dup2\n      mstore\n      0x20\n      add\n      0x60\n      dup2\n      mstore\n      0x20\n      add\n      0x00\n      dup2\n      mstore\n      0x20\n      add\n      0x60\n      dup2\n      mstore\n      0x20\n      add\n      0x60\n      dup2\n      mstore\n      0x20\n      add\n      0x60\n      dup2\n      mstore\n      pop\n      swap1\n      jump\t// out\n    tag_111:\n      0x80\n      mload(0x40)\n      swap1\n      dup2\n      add\n      0x40\n      mstore\n      dup1\n      0x60\n      dup2\n      mstore\n      0x20\n      add\n      0x60\n      dup2\n      mstore\n      0x20\n      add\n      0x60\n      dup2\n      mstore\n      0x20\n      add\n      0x60\n      dup2\n      mstore\n      pop\n      swap1\n      jump\t// out\n    tag_233:\n      tag_239\n      swap2\n      swap1\n    tag_240:\n      dup1\n      dup3\n      gt\n      iszero\n      tag_241\n      jumpi\n      0x00\n      dup2\n      0x00\n      swap1\n      sstore\n      pop\n      0x01\n      add\n      jump(tag_240)\n    tag_241:\n      pop\n      swap1\n      jump\n    tag_239:\n      swap1\n      jump\t// out\n        /* \"--CODEGEN--\":5:123   */\n    tag_243:\n      0x00\n        /* \"--CODEGEN--\":72:118   */\n      tag_244\n        /* \"--CODEGEN--\":110:116   */\n      dup3\n        /* \"--CODEGEN--\":97:117   */\n      calldataload\n        /* \"--CODEGEN--\":72:118   */\n      jump(tag_245)\n    tag_244:\n        /* \"--CODEGEN--\":63:118   */\n      swap1\n      pop\n        /* \"--CODEGEN--\":57:123   */\n      swap3\n      swap2\n      pop\n      pop\n      jump\n        /* \"--CODEGEN--\":130:252   */\n    tag_247:\n      0x00\n        /* \"--CODEGEN--\":208:247   */\n      tag_248\n        /* \"--CODEGEN--\":239:245   */\n      dup3\n        /* \"--CODEGEN--\":233:246   */\n      mload\n        /* \"--CODEGEN--\":208:247   */\n      jump(tag_245)\n    tag_248:\n        /* \"--CODEGEN--\":199:247   */\n      swap1\n      pop\n        /* \"--CODEGEN--\":193:252   */\n      swap3\n      swap2\n      pop\n      pop\n      jump\n        /* \"--CODEGEN--\":259:375   */\n    tag_250:\n      0x00\n        /* \"--CODEGEN--\":334:370   */\n      tag_251\n        /* \"--CODEGEN--\":362:368   */\n      dup3\n        /* \"--CODEGEN--\":356:369   */\n      mload\n        /* \"--CODEGEN--\":334:370   */\n      jump(tag_252)\n    tag_251:\n        /* \"--CODEGEN--\":325:370   */\n      swap1\n      pop\n        /* \"--CODEGEN--\":319:375   */\n      swap3\n      swap2\n      pop\n      pop\n      jump\n        /* \"--CODEGEN--\":383:825   */\n    tag_254:\n      0x00\n        /* \"--CODEGEN--\":485:488   */\n      dup3\n        /* \"--CODEGEN--\":478:482   */\n      0x1f\n        /* \"--CODEGEN--\":470:476   */\n      dup4\n        /* \"--CODEGEN--\":466:483   */\n      add\n        /* \"--CODEGEN--\":462:489   */\n      slt\n        /* \"--CODEGEN--\":455:490   */\n      iszero\n        /* \"--CODEGEN--\":452:454   */\n      iszero\n      tag_255\n      jumpi\n        /* \"--CODEGEN--\":503:504   */\n      0x00\n        /* \"--CODEGEN--\":500:501   */\n      dup1\n        /* \"--CODEGEN--\":493:505   */\n      revert\n        /* \"--CODEGEN--\":452:454   */\n    tag_255:\n        /* \"--CODEGEN--\":540:546   */\n      dup2\n        /* \"--CODEGEN--\":527:547   */\n      calldataload\n        /* \"--CODEGEN--\":562:627   */\n      tag_256\n        /* \"--CODEGEN--\":577:626   */\n      tag_257\n        /* \"--CODEGEN--\":619:625   */\n      dup3\n        /* \"--CODEGEN--\":577:626   */\n      jump(tag_258)\n    tag_257:\n        /* \"--CODEGEN--\":562:627   */\n      jump(tag_259)\n    tag_256:\n        /* \"--CODEGEN--\":553:627   */\n      swap2\n      pop\n        /* \"--CODEGEN--\":647:653   */\n      dup1\n        /* \"--CODEGEN--\":640:645   */\n      dup3\n        /* \"--CODEGEN--\":633:654   */\n      mstore\n        /* \"--CODEGEN--\":683:687   */\n      0x20\n        /* \"--CODEGEN--\":675:681   */\n      dup4\n        /* \"--CODEGEN--\":671:688   */\n      add\n        /* \"--CODEGEN--\":716:720   */\n      0x20\n        /* \"--CODEGEN--\":709:714   */\n      dup4\n        /* \"--CODEGEN--\":705:721   */\n      add\n        /* \"--CODEGEN--\":751:754   */\n      dup6\n        /* \"--CODEGEN--\":742:748   */\n      dup4\n        /* \"--CODEGEN--\":737:740   */\n      dup4\n        /* \"--CODEGEN--\":733:749   */\n      add\n        /* \"--CODEGEN--\":730:755   */\n      gt\n        /* \"--CODEGEN--\":727:729   */\n      iszero\n      tag_260\n      jumpi\n        /* \"--CODEGEN--\":768:769   */\n      0x00\n        /* \"--CODEGEN--\":765:766   */\n      dup1\n        /* \"--CODEGEN--\":758:770   */\n      revert\n        /* \"--CODEGEN--\":727:729   */\n    tag_260:\n        /* \"--CODEGEN--\":778:819   */\n      tag_261\n        /* \"--CODEGEN--\":812:818   */\n      dup4\n        /* \"--CODEGEN--\":807:810   */\n      dup3\n        /* \"--CODEGEN--\":802:805   */\n      dup5\n        /* \"--CODEGEN--\":778:819   */\n      jump(tag_262)\n    tag_261:\n        /* \"--CODEGEN--\":445:825   */\n      pop\n      pop\n      pop\n      swap3\n      swap2\n      pop\n      pop\n      jump\n        /* \"--CODEGEN--\":833:1074   */\n    tag_45:\n      0x00\n        /* \"--CODEGEN--\":937:939   */\n      0x20\n        /* \"--CODEGEN--\":925:934   */\n      dup3\n        /* \"--CODEGEN--\":916:923   */\n      dup5\n        /* \"--CODEGEN--\":912:935   */\n      sub\n        /* \"--CODEGEN--\":908:940   */\n      slt\n        /* \"--CODEGEN--\":905:907   */\n      iszero\n      tag_264\n      jumpi\n        /* \"--CODEGEN--\":953:954   */\n      0x00\n        /* \"--CODEGEN--\":950:951   */\n      dup1\n        /* \"--CODEGEN--\":943:955   */\n      revert\n        /* \"--CODEGEN--\":905:907   */\n    tag_264:\n        /* \"--CODEGEN--\":988:989   */\n      0x00\n        /* \"--CODEGEN--\":1005:1058   */\n      tag_265\n        /* \"--CODEGEN--\":1050:1057   */\n      dup5\n        /* \"--CODEGEN--\":1041:1047   */\n      dup3\n        /* \"--CODEGEN--\":1030:1039   */\n      dup6\n        /* \"--CODEGEN--\":1026:1048   */\n      add\n        /* \"--CODEGEN--\":1005:1058   */\n      jump(tag_243)\n    tag_265:\n        /* \"--CODEGEN--\":995:1058   */\n      swap2\n      pop\n        /* \"--CODEGEN--\":967:1064   */\n      pop\n        /* \"--CODEGEN--\":899:1074   */\n      swap3\n      swap2\n      pop\n      pop\n      jump\n        /* \"--CODEGEN--\":1081:1344   */\n    tag_217:\n      0x00\n        /* \"--CODEGEN--\":1196:1198   */\n      0x20\n        /* \"--CODEGEN--\":1184:1193   */\n      dup3\n        /* \"--CODEGEN--\":1175:1182   */\n      dup5\n        /* \"--CODEGEN--\":1171:1194   */\n      sub\n        /* \"--CODEGEN--\":1167:1199   */\n      slt\n        /* \"--CODEGEN--\":1164:1166   */\n      iszero\n      tag_267\n      jumpi\n        /* \"--CODEGEN--\":1212:1213   */\n      0x00\n        /* \"--CODEGEN--\":1209:1210   */\n      dup1\n        /* \"--CODEGEN--\":1202:1214   */\n      revert\n        /* \"--CODEGEN--\":1164:1166   */\n    tag_267:\n        /* \"--CODEGEN--\":1247:1248   */\n      0x00\n        /* \"--CODEGEN--\":1264:1328   */\n      tag_268\n        /* \"--CODEGEN--\":1320:1327   */\n      dup5\n        /* \"--CODEGEN--\":1311:1317   */\n      dup3\n        /* \"--CODEGEN--\":1300:1309   */\n      dup6\n        /* \"--CODEGEN--\":1296:1318   */\n      add\n        /* \"--CODEGEN--\":1264:1328   */\n      jump(tag_247)\n    tag_268:\n        /* \"--CODEGEN--\":1254:1328   */\n      swap2\n      pop\n        /* \"--CODEGEN--\":1226:1334   */\n      pop\n        /* \"--CODEGEN--\":1158:1344   */\n      swap3\n      swap2\n      pop\n      pop\n      jump\n        /* \"--CODEGEN--\":1351:1823   */\n    tag_35:\n      0x00\n      dup1\n        /* \"--CODEGEN--\":1482:1484   */\n      0x40\n        /* \"--CODEGEN--\":1470:1479   */\n      dup4\n        /* \"--CODEGEN--\":1461:1468   */\n      dup6\n        /* \"--CODEGEN--\":1457:1480   */\n      sub\n        /* \"--CODEGEN--\":1453:1485   */\n      slt\n        /* \"--CODEGEN--\":1450:1452   */\n      iszero\n      tag_270\n      jumpi\n        /* \"--CODEGEN--\":1498:1499   */\n      0x00\n        /* \"--CODEGEN--\":1495:1496   */\n      dup1\n        /* \"--CODEGEN--\":1488:1500   */\n      revert\n        /* \"--CODEGEN--\":1450:1452   */\n    tag_270:\n        /* \"--CODEGEN--\":1533:1534   */\n      0x00\n        /* \"--CODEGEN--\":1550:1603   */\n      tag_271\n        /* \"--CODEGEN--\":1595:1602   */\n      dup6\n        /* \"--CODEGEN--\":1586:1592   */\n      dup3\n        /* \"--CODEGEN--\":1575:1584   */\n      dup7\n        /* \"--CODEGEN--\":1571:1593   */\n      add\n        /* \"--CODEGEN--\":1550:1603   */\n      jump(tag_243)\n    tag_271:\n        /* \"--CODEGEN--\":1540:1603   */\n      swap3\n      pop\n        /* \"--CODEGEN--\":1512:1609   */\n      pop\n        /* \"--CODEGEN--\":1668:1670   */\n      0x20\n        /* \"--CODEGEN--\":1657:1666   */\n      dup4\n        /* \"--CODEGEN--\":1653:1671   */\n      add\n        /* \"--CODEGEN--\":1640:1672   */\n      calldataload\n        /* \"--CODEGEN--\":1692:1710   */\n      0xffffffffffffffff\n        /* \"--CODEGEN--\":1684:1690   */\n      dup2\n        /* \"--CODEGEN--\":1681:1711   */\n      gt\n        /* \"--CODEGEN--\":1678:1680   */\n      iszero\n      tag_272\n      jumpi\n        /* \"--CODEGEN--\":1724:1725   */\n      0x00\n        /* \"--CODEGEN--\":1721:1722   */\n      dup1\n        /* \"--CODEGEN--\":1714:1726   */\n      revert\n        /* \"--CODEGEN--\":1678:1680   */\n    tag_272:\n        /* \"--CODEGEN--\":1744:1807   */\n      tag_273\n        /* \"--CODEGEN--\":1799:1806   */\n      dup6\n        /* \"--CODEGEN--\":1790:1796   */\n      dup3\n        /* \"--CODEGEN--\":1779:1788   */\n      dup7\n        /* \"--CODEGEN--\":1775:1797   */\n      add\n        /* \"--CODEGEN--\":1744:1807   */\n      jump(tag_254)\n    tag_273:\n        /* \"--CODEGEN--\":1734:1807   */\n      swap2\n      pop\n        /* \"--CODEGEN--\":1619:1813   */\n      pop\n        /* \"--CODEGEN--\":1444:1823   */\n      swap3\n      pop\n      swap3\n      swap1\n      pop\n      jump\n        /* \"--CODEGEN--\":1830:2087   */\n    tag_223:\n      0x00\n        /* \"--CODEGEN--\":1942:1944   */\n      0x20\n        /* \"--CODEGEN--\":1930:1939   */\n      dup3\n        /* \"--CODEGEN--\":1921:1928   */\n      dup5\n        /* \"--CODEGEN--\":1917:1940   */\n      sub\n        /* \"--CODEGEN--\":1913:1945   */\n      slt\n        /* \"--CODEGEN--\":1910:1912   */\n      iszero\n      tag_275\n      jumpi\n        /* \"--CODEGEN--\":1958:1959   */\n      0x00\n        /* \"--CODEGEN--\":1955:1956   */\n      dup1\n        /* \"--CODEGEN--\":1948:1960   */\n      revert\n        /* \"--CODEGEN--\":1910:1912   */\n    tag_275:\n        /* \"--CODEGEN--\":1993:1994   */\n      0x00\n        /* \"--CODEGEN--\":2010:2071   */\n      tag_276\n        /* \"--CODEGEN--\":2063:2070   */\n      dup5\n        /* \"--CODEGEN--\":2054:2060   */\n      dup3\n        /* \"--CODEGEN--\":2043:2052   */\n      dup6\n        /* \"--CODEGEN--\":2039:2061   */\n      add\n        /* \"--CODEGEN--\":2010:2071   */\n      jump(tag_250)\n    tag_276:\n        /* \"--CODEGEN--\":2000:2071   */\n      swap2\n      pop\n        /* \"--CODEGEN--\":1972:2077   */\n      pop\n        /* \"--CODEGEN--\":1904:2087   */\n      swap3\n      swap2\n      pop\n      pop\n      jump\n        /* \"--CODEGEN--\":2094:2441   */\n    tag_39:\n      0x00\n        /* \"--CODEGEN--\":2208:2210   */\n      0x20\n        /* \"--CODEGEN--\":2196:2205   */\n      dup3\n        /* \"--CODEGEN--\":2187:2194   */\n      dup5\n        /* \"--CODEGEN--\":2183:2206   */\n      sub\n        /* \"--CODEGEN--\":2179:2211   */\n      slt\n        /* \"--CODEGEN--\":2176:2178   */\n      iszero\n      tag_278\n      jumpi\n        /* \"--CODEGEN--\":2224:2225   */\n      0x00\n        /* \"--CODEGEN--\":2221:2222   */\n      dup1\n        /* \"--CODEGEN--\":2214:2226   */\n      revert\n        /* \"--CODEGEN--\":2176:2178   */\n    tag_278:\n        /* \"--CODEGEN--\":2287:2288   */\n      0x00\n        /* \"--CODEGEN--\":2276:2285   */\n      dup3\n        /* \"--CODEGEN--\":2272:2289   */\n      add\n        /* \"--CODEGEN--\":2259:2290   */\n      calldataload\n        /* \"--CODEGEN--\":2310:2328   */\n      0xffffffffffffffff\n        /* \"--CODEGEN--\":2302:2308   */\n      dup2\n        /* \"--CODEGEN--\":2299:2329   */\n      gt\n        /* \"--CODEGEN--\":2296:2298   */\n      iszero\n      tag_279\n      jumpi\n        /* \"--CODEGEN--\":2342:2343   */\n      0x00\n        /* \"--CODEGEN--\":2339:2340   */\n      dup1\n        /* \"--CODEGEN--\":2332:2344   */\n      revert\n        /* \"--CODEGEN--\":2296:2298   */\n    tag_279:\n        /* \"--CODEGEN--\":2362:2425   */\n      tag_280\n        /* \"--CODEGEN--\":2417:2424   */\n      dup5\n        /* \"--CODEGEN--\":2408:2414   */\n      dup3\n        /* \"--CODEGEN--\":2397:2406   */\n      dup6\n        /* \"--CODEGEN--\":2393:2415   */\n      add\n        /* \"--CODEGEN--\":2362:2425   */\n      jump(tag_254)\n    tag_280:\n        /* \"--CODEGEN--\":2352:2425   */\n      swap2\n      pop\n        /* \"--CODEGEN--\":2238:2431   */\n      pop\n        /* \"--CODEGEN--\":2170:2441   */\n      swap3\n      swap2\n      pop\n      pop\n      jump\n        /* \"--CODEGEN--\":2448:3026   */\n    tag_15:\n      0x00\n      dup1\n        /* \"--CODEGEN--\":2589:2591   */\n      0x40\n        /* \"--CODEGEN--\":2577:2586   */\n      dup4\n        /* \"--CODEGEN--\":2568:2575   */\n      dup6\n        /* \"--CODEGEN--\":2564:2587   */\n      sub\n        /* \"--CODEGEN--\":2560:2592   */\n      slt\n        /* \"--CODEGEN--\":2557:2559   */\n      iszero\n      tag_282\n      jumpi\n        /* \"--CODEGEN--\":2605:2606   */\n      0x00\n        /* \"--CODEGEN--\":2602:2603   */\n      dup1\n        /* \"--CODEGEN--\":2595:2607   */\n      revert\n        /* \"--CODEGEN--\":2557:2559   */\n    tag_282:\n        /* \"--CODEGEN--\":2668:2669   */\n      0x00\n        /* \"--CODEGEN--\":2657:2666   */\n      dup4\n        /* \"--CODEGEN--\":2653:2670   */\n      add\n        /* \"--CODEGEN--\":2640:2671   */\n      calldataload\n        /* \"--CODEGEN--\":2691:2709   */\n      0xffffffffffffffff\n        /* \"--CODEGEN--\":2683:2689   */\n      dup2\n        /* \"--CODEGEN--\":2680:2710   */\n      gt\n        /* \"--CODEGEN--\":2677:2679   */\n      iszero\n      tag_283\n      jumpi\n        /* \"--CODEGEN--\":2723:2724   */\n      0x00\n        /* \"--CODEGEN--\":2720:2721   */\n      dup1\n        /* \"--CODEGEN--\":2713:2725   */\n      revert\n        /* \"--CODEGEN--\":2677:2679   */\n    tag_283:\n        /* \"--CODEGEN--\":2743:2806   */\n      tag_284\n        /* \"--CODEGEN--\":2798:2805   */\n      dup6\n        /* \"--CODEGEN--\":2789:2795   */\n      dup3\n        /* \"--CODEGEN--\":2778:2787   */\n      dup7\n        /* \"--CODEGEN--\":2774:2796   */\n      add\n        /* \"--CODEGEN--\":2743:2806   */\n      jump(tag_254)\n    tag_284:\n        /* \"--CODEGEN--\":2733:2806   */\n      swap3\n      pop\n        /* \"--CODEGEN--\":2619:2812   */\n      pop\n        /* \"--CODEGEN--\":2871:2873   */\n      0x20\n        /* \"--CODEGEN--\":2860:2869   */\n      dup4\n        /* \"--CODEGEN--\":2856:2874   */\n      add\n        /* \"--CODEGEN--\":2843:2875   */\n      calldataload\n        /* \"--CODEGEN--\":2895:2913   */\n      0xffffffffffffffff\n        /* \"--CODEGEN--\":2887:2893   */\n      dup2\n        /* \"--CODEGEN--\":2884:2914   */\n      gt\n        /* \"--CODEGEN--\":2881:2883   */\n      iszero\n      tag_285\n      jumpi\n        /* \"--CODEGEN--\":2927:2928   */\n      0x00\n        /* \"--CODEGEN--\":2924:2925   */\n      dup1\n        /* \"--CODEGEN--\":2917:2929   */\n      revert\n        /* \"--CODEGEN--\":2881:2883   */\n    tag_285:\n        /* \"--CODEGEN--\":2947:3010   */\n      tag_286\n        /* \"--CODEGEN--\":3002:3009   */\n      dup6\n        /* \"--CODEGEN--\":2993:2999   */\n      dup3\n        /* \"--CODEGEN--\":2982:2991   */\n      dup7\n        /* \"--CODEGEN--\":2978:3000   */\n      add\n        /* \"--CODEGEN--\":2947:3010   */\n      jump(tag_254)\n    tag_286:\n        /* \"--CODEGEN--\":2937:3010   */\n      swap2\n      pop\n        /* \"--CODEGEN--\":2822:3016   */\n      pop\n        /* \"--CODEGEN--\":2551:3026   */\n      swap3\n      pop\n      swap3\n      swap1\n      pop\n      jump\n        /* \"--CODEGEN--\":3033:4074   */\n    tag_19:\n      0x00\n      dup1\n      0x00\n      dup1\n        /* \"--CODEGEN--\":3228:3231   */\n      0x80\n        /* \"--CODEGEN--\":3216:3225   */\n      dup6\n        /* \"--CODEGEN--\":3207:3214   */\n      dup8\n        /* \"--CODEGEN--\":3203:3226   */\n      sub\n        /* \"--CODEGEN--\":3199:3232   */\n      slt\n        /* \"--CODEGEN--\":3196:3198   */\n      iszero\n      tag_288\n      jumpi\n        /* \"--CODEGEN--\":3245:3246   */\n      0x00\n        /* \"--CODEGEN--\":3242:3243   */\n      dup1\n        /* \"--CODEGEN--\":3235:3247   */\n      revert\n        /* \"--CODEGEN--\":3196:3198   */\n    tag_288:\n        /* \"--CODEGEN--\":3308:3309   */\n      0x00\n        /* \"--CODEGEN--\":3297:3306   */\n      dup6\n        /* \"--CODEGEN--\":3293:3310   */\n      add\n        /* \"--CODEGEN--\":3280:3311   */\n      calldataload\n        /* \"--CODEGEN--\":3331:3349   */\n      0xffffffffffffffff\n        /* \"--CODEGEN--\":3323:3329   */\n      dup2\n        /* \"--CODEGEN--\":3320:3350   */\n      gt\n        /* \"--CODEGEN--\":3317:3319   */\n      iszero\n      tag_289\n      jumpi\n        /* \"--CODEGEN--\":3363:3364   */\n      0x00\n        /* \"--CODEGEN--\":3360:3361   */\n      dup1\n        /* \"--CODEGEN--\":3353:3365   */\n      revert\n        /* \"--CODEGEN--\":3317:3319   */\n    tag_289:\n        /* \"--CODEGEN--\":3383:3446   */\n      tag_290\n        /* \"--CODEGEN--\":3438:3445   */\n      dup8\n        /* \"--CODEGEN--\":3429:3435   */\n      dup3\n        /* \"--CODEGEN--\":3418:3427   */\n      dup9\n        /* \"--CODEGEN--\":3414:3436   */\n      add\n        /* \"--CODEGEN--\":3383:3446   */\n      jump(tag_254)\n    tag_290:\n        /* \"--CODEGEN--\":3373:3446   */\n      swap5\n      pop\n        /* \"--CODEGEN--\":3259:3452   */\n      pop\n        /* \"--CODEGEN--\":3511:3513   */\n      0x20\n        /* \"--CODEGEN--\":3500:3509   */\n      dup6\n        /* \"--CODEGEN--\":3496:3514   */\n      add\n        /* \"--CODEGEN--\":3483:3515   */\n      calldataload\n        /* \"--CODEGEN--\":3535:3553   */\n      0xffffffffffffffff\n        /* \"--CODEGEN--\":3527:3533   */\n      dup2\n        /* \"--CODEGEN--\":3524:3554   */\n      gt\n        /* \"--CODEGEN--\":3521:3523   */\n      iszero\n      tag_291\n      jumpi\n        /* \"--CODEGEN--\":3567:3568   */\n      0x00\n        /* \"--CODEGEN--\":3564:3565   */\n      dup1\n        /* \"--CODEGEN--\":3557:3569   */\n      revert\n        /* \"--CODEGEN--\":3521:3523   */\n    tag_291:\n        /* \"--CODEGEN--\":3587:3650   */\n      tag_292\n        /* \"--CODEGEN--\":3642:3649   */\n      dup8\n        /* \"--CODEGEN--\":3633:3639   */\n      dup3\n        /* \"--CODEGEN--\":3622:3631   */\n      dup9\n        /* \"--CODEGEN--\":3618:3640   */\n      add\n        /* \"--CODEGEN--\":3587:3650   */\n      jump(tag_254)\n    tag_292:\n        /* \"--CODEGEN--\":3577:3650   */\n      swap4\n      pop\n        /* \"--CODEGEN--\":3462:3656   */\n      pop\n        /* \"--CODEGEN--\":3715:3717   */\n      0x40\n        /* \"--CODEGEN--\":3704:3713   */\n      dup6\n        /* \"--CODEGEN--\":3700:3718   */\n      add\n        /* \"--CODEGEN--\":3687:3719   */\n      calldataload\n        /* \"--CODEGEN--\":3739:3757   */\n      0xffffffffffffffff\n        /* \"--CODEGEN--\":3731:3737   */\n      dup2\n        /* \"--CODEGEN--\":3728:3758   */\n      gt\n        /* \"--CODEGEN--\":3725:3727   */\n      iszero\n      tag_293\n      jumpi\n        /* \"--CODEGEN--\":3771:3772   */\n      0x00\n        /* \"--CODEGEN--\":3768:3769   */\n      dup1\n        /* \"--CODEGEN--\":3761:3773   */\n      revert\n        /* \"--CODEGEN--\":3725:3727   */\n    tag_293:\n        /* \"--CODEGEN--\":3791:3854   */\n      tag_294\n        /* \"--CODEGEN--\":3846:3853   */\n      dup8\n        /* \"--CODEGEN--\":3837:3843   */\n      dup3\n        /* \"--CODEGEN--\":3826:3835   */\n      dup9\n        /* \"--CODEGEN--\":3822:3844   */\n      add\n        /* \"--CODEGEN--\":3791:3854   */\n      jump(tag_254)\n    tag_294:\n        /* \"--CODEGEN--\":3781:3854   */\n      swap3\n      pop\n        /* \"--CODEGEN--\":3666:3860   */\n      pop\n        /* \"--CODEGEN--\":3919:3921   */\n      0x60\n        /* \"--CODEGEN--\":3908:3917   */\n      dup6\n        /* \"--CODEGEN--\":3904:3922   */\n      add\n        /* \"--CODEGEN--\":3891:3923   */\n      calldataload\n        /* \"--CODEGEN--\":3943:3961   */\n      0xffffffffffffffff\n        /* \"--CODEGEN--\":3935:3941   */\n      dup2\n        /* \"--CODEGEN--\":3932:3962   */\n      gt\n        /* \"--CODEGEN--\":3929:3931   */\n      iszero\n      tag_295\n      jumpi\n        /* \"--CODEGEN--\":3975:3976   */\n      0x00\n        /* \"--CODEGEN--\":3972:3973   */\n      dup1\n        /* \"--CODEGEN--\":3965:3977   */\n      revert\n        /* \"--CODEGEN--\":3929:3931   */\n    tag_295:\n        /* \"--CODEGEN--\":3995:4058   */\n      tag_296\n        /* \"--CODEGEN--\":4050:4057   */\n      dup8\n        /* \"--CODEGEN--\":4041:4047   */\n      dup3\n        /* \"--CODEGEN--\":4030:4039   */\n      dup9\n        /* \"--CODEGEN--\":4026:4048   */\n      add\n        /* \"--CODEGEN--\":3995:4058   */\n      jump(tag_254)\n    tag_296:\n        /* \"--CODEGEN--\":3985:4058   */\n      swap2\n      pop\n        /* \"--CODEGEN--\":3870:4064   */\n      pop\n        /* \"--CODEGEN--\":3190:4074   */\n      swap3\n      swap6\n      swap2\n      swap5\n      pop\n      swap3\n      pop\n      jump\n        /* \"--CODEGEN--\":4081:6050   */\n    tag_27:\n      0x00\n      dup1\n      0x00\n      dup1\n      0x00\n      dup1\n      0x00\n      dup1\n        /* \"--CODEGEN--\":4384:4387   */\n      0x0100\n        /* \"--CODEGEN--\":4372:4381   */\n      dup10\n        /* \"--CODEGEN--\":4363:4370   */\n      dup12\n        /* \"--CODEGEN--\":4359:4382   */\n      sub\n        /* \"--CODEGEN--\":4355:4388   */\n      slt\n        /* \"--CODEGEN--\":4352:4354   */\n      iszero\n      tag_298\n      jumpi\n        /* \"--CODEGEN--\":4401:4402   */\n      0x00\n        /* \"--CODEGEN--\":4398:4399   */\n      dup1\n        /* \"--CODEGEN--\":4391:4403   */\n      revert\n        /* \"--CODEGEN--\":4352:4354   */\n    tag_298:\n        /* \"--CODEGEN--\":4464:4465   */\n      0x00\n        /* \"--CODEGEN--\":4453:4462   */\n      dup10\n        /* \"--CODEGEN--\":4449:4466   */\n      add\n        /* \"--CODEGEN--\":4436:4467   */\n      calldataload\n        /* \"--CODEGEN--\":4487:4505   */\n      0xffffffffffffffff\n        /* \"--CODEGEN--\":4479:4485   */\n      dup2\n        /* \"--CODEGEN--\":4476:4506   */\n      gt\n        /* \"--CODEGEN--\":4473:4475   */\n      iszero\n      tag_299\n      jumpi\n        /* \"--CODEGEN--\":4519:4520   */\n      0x00\n        /* \"--CODEGEN--\":4516:4517   */\n      dup1\n        /* \"--CODEGEN--\":4509:4521   */\n      revert\n        /* \"--CODEGEN--\":4473:4475   */\n    tag_299:\n        /* \"--CODEGEN--\":4539:4602   */\n      tag_300\n        /* \"--CODEGEN--\":4594:4601   */\n      dup12\n        /* \"--CODEGEN--\":4585:4591   */\n      dup3\n        /* \"--CODEGEN--\":4574:4583   */\n      dup13\n        /* \"--CODEGEN--\":4570:4592   */\n      add\n        /* \"--CODEGEN--\":4539:4602   */\n      jump(tag_254)\n    tag_300:\n        /* \"--CODEGEN--\":4529:4602   */\n      swap9\n      pop\n        /* \"--CODEGEN--\":4415:4608   */\n      pop\n        /* \"--CODEGEN--\":4667:4669   */\n      0x20\n        /* \"--CODEGEN--\":4656:4665   */\n      dup10\n        /* \"--CODEGEN--\":4652:4670   */\n      add\n        /* \"--CODEGEN--\":4639:4671   */\n      calldataload\n        /* \"--CODEGEN--\":4691:4709   */\n      0xffffffffffffffff\n        /* \"--CODEGEN--\":4683:4689   */\n      dup2\n        /* \"--CODEGEN--\":4680:4710   */\n      gt\n        /* \"--CODEGEN--\":4677:4679   */\n      iszero\n      tag_301\n      jumpi\n        /* \"--CODEGEN--\":4723:4724   */\n      0x00\n        /* \"--CODEGEN--\":4720:4721   */\n      dup1\n        /* \"--CODEGEN--\":4713:4725   */\n      revert\n        /* \"--CODEGEN--\":4677:4679   */\n    tag_301:\n        /* \"--CODEGEN--\":4743:4806   */\n      tag_302\n        /* \"--CODEGEN--\":4798:4805   */\n      dup12\n        /* \"--CODEGEN--\":4789:4795   */\n      dup3\n        /* \"--CODEGEN--\":4778:4787   */\n      dup13\n        /* \"--CODEGEN--\":4774:4796   */\n      add\n        /* \"--CODEGEN--\":4743:4806   */\n      jump(tag_254)\n    tag_302:\n        /* \"--CODEGEN--\":4733:4806   */\n      swap8\n      pop\n        /* \"--CODEGEN--\":4618:4812   */\n      pop\n        /* \"--CODEGEN--\":4871:4873   */\n      0x40\n        /* \"--CODEGEN--\":4860:4869   */\n      dup10\n        /* \"--CODEGEN--\":4856:4874   */\n      add\n        /* \"--CODEGEN--\":4843:4875   */\n      calldataload\n        /* \"--CODEGEN--\":4895:4913   */\n      0xffffffffffffffff\n        /* \"--CODEGEN--\":4887:4893   */\n      dup2\n        /* \"--CODEGEN--\":4884:4914   */\n      gt\n        /* \"--CODEGEN--\":4881:4883   */\n      iszero\n      tag_303\n      jumpi\n        /* \"--CODEGEN--\":4927:4928   */\n      0x00\n        /* \"--CODEGEN--\":4924:4925   */\n      dup1\n        /* \"--CODEGEN--\":4917:4929   */\n      revert\n        /* \"--CODEGEN--\":4881:4883   */\n    tag_303:\n        /* \"--CODEGEN--\":4947:5010   */\n      tag_304\n        /* \"--CODEGEN--\":5002:5009   */\n      dup12\n        /* \"--CODEGEN--\":4993:4999   */\n      dup3\n        /* \"--CODEGEN--\":4982:4991   */\n      dup13\n        /* \"--CODEGEN--\":4978:5000   */\n      add\n        /* \"--CODEGEN--\":4947:5010   */\n      jump(tag_254)\n    tag_304:\n        /* \"--CODEGEN--\":4937:5010   */\n      swap7\n      pop\n        /* \"--CODEGEN--\":4822:5016   */\n      pop\n        /* \"--CODEGEN--\":5075:5077   */\n      0x60\n        /* \"--CODEGEN--\":5064:5073   */\n      dup10\n        /* \"--CODEGEN--\":5060:5078   */\n      add\n        /* \"--CODEGEN--\":5047:5079   */\n      calldataload\n        /* \"--CODEGEN--\":5099:5117   */\n      0xffffffffffffffff\n        /* \"--CODEGEN--\":5091:5097   */\n      dup2\n        /* \"--CODEGEN--\":5088:5118   */\n      gt\n        /* \"--CODEGEN--\":5085:5087   */\n      iszero\n      tag_305\n      jumpi\n        /* \"--CODEGEN--\":5131:5132   */\n      0x00\n        /* \"--CODEGEN--\":5128:5129   */\n      dup1\n        /* \"--CODEGEN--\":5121:5133   */\n      revert\n        /* \"--CODEGEN--\":5085:5087   */\n    tag_305:\n        /* \"--CODEGEN--\":5151:5214   */\n      tag_306\n        /* \"--CODEGEN--\":5206:5213   */\n      dup12\n        /* \"--CODEGEN--\":5197:5203   */\n      dup3\n        /* \"--CODEGEN--\":5186:5195   */\n      dup13\n        /* \"--CODEGEN--\":5182:5204   */\n      add\n        /* \"--CODEGEN--\":5151:5214   */\n      jump(tag_254)\n    tag_306:\n        /* \"--CODEGEN--\":5141:5214   */\n      swap6\n      pop\n        /* \"--CODEGEN--\":5026:5220   */\n      pop\n        /* \"--CODEGEN--\":5279:5282   */\n      0x80\n        /* \"--CODEGEN--\":5268:5277   */\n      dup10\n        /* \"--CODEGEN--\":5264:5283   */\n      add\n        /* \"--CODEGEN--\":5251:5284   */\n      calldataload\n        /* \"--CODEGEN--\":5304:5322   */\n      0xffffffffffffffff\n        /* \"--CODEGEN--\":5296:5302   */\n      dup2\n        /* \"--CODEGEN--\":5293:5323   */\n      gt\n        /* \"--CODEGEN--\":5290:5292   */\n      iszero\n      tag_307\n      jumpi\n        /* \"--CODEGEN--\":5336:5337   */\n      0x00\n        /* \"--CODEGEN--\":5333:5334   */\n      dup1\n        /* \"--CODEGEN--\":5326:5338   */\n      revert\n        /* \"--CODEGEN--\":5290:5292   */\n    tag_307:\n        /* \"--CODEGEN--\":5356:5419   */\n      tag_308\n        /* \"--CODEGEN--\":5411:5418   */\n      dup12\n        /* \"--CODEGEN--\":5402:5408   */\n      dup3\n        /* \"--CODEGEN--\":5391:5400   */\n      dup13\n        /* \"--CODEGEN--\":5387:5409   */\n      add\n        /* \"--CODEGEN--\":5356:5419   */\n      jump(tag_254)\n    tag_308:\n        /* \"--CODEGEN--\":5346:5419   */\n      swap5\n      pop\n        /* \"--CODEGEN--\":5230:5425   */\n      pop\n        /* \"--CODEGEN--\":5484:5487   */\n      0xa0\n        /* \"--CODEGEN--\":5473:5482   */\n      dup10\n        /* \"--CODEGEN--\":5469:5488   */\n      add\n        /* \"--CODEGEN--\":5456:5489   */\n      calldataload\n        /* \"--CODEGEN--\":5509:5527   */\n      0xffffffffffffffff\n        /* \"--CODEGEN--\":5501:5507   */\n      dup2\n        /* \"--CODEGEN--\":5498:5528   */\n      gt\n        /* \"--CODEGEN--\":5495:5497   */\n      iszero\n      tag_309\n      jumpi\n        /* \"--CODEGEN--\":5541:5542   */\n      0x00\n        /* \"--CODEGEN--\":5538:5539   */\n      dup1\n        /* \"--CODEGEN--\":5531:5543   */\n      revert\n        /* \"--CODEGEN--\":5495:5497   */\n    tag_309:\n        /* \"--CODEGEN--\":5561:5624   */\n      tag_310\n        /* \"--CODEGEN--\":5616:5623   */\n      dup12\n        /* \"--CODEGEN--\":5607:5613   */\n      dup3\n        /* \"--CODEGEN--\":5596:5605   */\n      dup13\n        /* \"--CODEGEN--\":5592:5614   */\n      add\n        /* \"--CODEGEN--\":5561:5624   */\n      jump(tag_254)\n    tag_310:\n        /* \"--CODEGEN--\":5551:5624   */\n      swap4\n      pop\n        /* \"--CODEGEN--\":5435:5630   */\n      pop\n        /* \"--CODEGEN--\":5689:5692   */\n      0xc0\n        /* \"--CODEGEN--\":5678:5687   */\n      dup10\n        /* \"--CODEGEN--\":5674:5693   */\n      add\n        /* \"--CODEGEN--\":5661:5694   */\n      calldataload\n        /* \"--CODEGEN--\":5714:5732   */\n      0xffffffffffffffff\n        /* \"--CODEGEN--\":5706:5712   */\n      dup2\n        /* \"--CODEGEN--\":5703:5733   */\n      gt\n        /* \"--CODEGEN--\":5700:5702   */\n      iszero\n      tag_311\n      jumpi\n        /* \"--CODEGEN--\":5746:5747   */\n      0x00\n        /* \"--CODEGEN--\":5743:5744   */\n      dup1\n        /* \"--CODEGEN--\":5736:5748   */\n      revert\n        /* \"--CODEGEN--\":5700:5702   */\n    tag_311:\n        /* \"--CODEGEN--\":5766:5829   */\n      tag_312\n        /* \"--CODEGEN--\":5821:5828   */\n      dup12\n        /* \"--CODEGEN--\":5812:5818   */\n      dup3\n        /* \"--CODEGEN--\":5801:5810   */\n      dup13\n        /* \"--CODEGEN--\":5797:5819   */\n      add\n        /* \"--CODEGEN--\":5766:5829   */\n      jump(tag_254)\n    tag_312:\n        /* \"--CODEGEN--\":5756:5829   */\n      swap3\n      pop\n        /* \"--CODEGEN--\":5640:5835   */\n      pop\n        /* \"--CODEGEN--\":5894:5897   */\n      0xe0\n        /* \"--CODEGEN--\":5883:5892   */\n      dup10\n        /* \"--CODEGEN--\":5879:5898   */\n      add\n        /* \"--CODEGEN--\":5866:5899   */\n      calldataload\n        /* \"--CODEGEN--\":5919:5937   */\n      0xffffffffffffffff\n        /* \"--CODEGEN--\":5911:5917   */\n      dup2\n        /* \"--CODEGEN--\":5908:5938   */\n      gt\n        /* \"--CODEGEN--\":5905:5907   */\n      iszero\n      tag_313\n      jumpi\n        /* \"--CODEGEN--\":5951:5952   */\n      0x00\n        /* \"--CODEGEN--\":5948:5949   */\n      dup1\n        /* \"--CODEGEN--\":5941:5953   */\n      revert\n        /* \"--CODEGEN--\":5905:5907   */\n    tag_313:\n        /* \"--CODEGEN--\":5971:6034   */\n      tag_314\n        /* \"--CODEGEN--\":6026:6033   */\n      dup12\n        /* \"--CODEGEN--\":6017:6023   */\n      dup3\n        /* \"--CODEGEN--\":6006:6015   */\n      dup13\n        /* \"--CODEGEN--\":6002:6024   */\n      add\n        /* \"--CODEGEN--\":5971:6034   */\n      jump(tag_254)\n    tag_314:\n        /* \"--CODEGEN--\":5961:6034   */\n      swap2\n      pop\n        /* \"--CODEGEN--\":5845:6040   */\n      pop\n        /* \"--CODEGEN--\":4346:6050   */\n      swap3\n      swap6\n      swap9\n      pop\n      swap3\n      swap6\n      swap9\n      swap1\n      swap4\n      swap7\n      pop\n      jump\n        /* \"--CODEGEN--\":6057:6167   */\n    tag_316:\n        /* \"--CODEGEN--\":6130:6161   */\n      tag_317\n        /* \"--CODEGEN--\":6155:6160   */\n      dup2\n        /* \"--CODEGEN--\":6130:6161   */\n      jump(tag_318)\n    tag_317:\n        /* \"--CODEGEN--\":6125:6128   */\n      dup3\n        /* \"--CODEGEN--\":6118:6162   */\n      mstore\n        /* \"--CODEGEN--\":6112:6167   */\n      pop\n      pop\n      jump\n        /* \"--CODEGEN--\":6203:6960   */\n    tag_320:\n      0x00\n        /* \"--CODEGEN--\":6346:6402   */\n      tag_321\n        /* \"--CODEGEN--\":6396:6401   */\n      dup3\n        /* \"--CODEGEN--\":6346:6402   */\n      jump(tag_322)\n    tag_321:\n        /* \"--CODEGEN--\":6420:6426   */\n      dup1\n        /* \"--CODEGEN--\":6415:6418   */\n      dup5\n        /* \"--CODEGEN--\":6408:6427   */\n      mstore\n        /* \"--CODEGEN--\":6444:6448   */\n      0x20\n        /* \"--CODEGEN--\":6439:6442   */\n      dup5\n        /* \"--CODEGEN--\":6435:6449   */\n      add\n        /* \"--CODEGEN--\":6428:6449   */\n      swap4\n      pop\n        /* \"--CODEGEN--\":6492:6495   */\n      dup4\n        /* \"--CODEGEN--\":6534:6538   */\n      0x20\n        /* \"--CODEGEN--\":6526:6532   */\n      dup3\n        /* \"--CODEGEN--\":6522:6539   */\n      mul\n        /* \"--CODEGEN--\":6517:6520   */\n      dup6\n        /* \"--CODEGEN--\":6513:6540   */\n      add\n        /* \"--CODEGEN--\":6560:6618   */\n      tag_323\n        /* \"--CODEGEN--\":6612:6617   */\n      dup6\n        /* \"--CODEGEN--\":6560:6618   */\n      jump(tag_324)\n    tag_323:\n        /* \"--CODEGEN--\":6639:6640   */\n      0x00\n        /* \"--CODEGEN--\":6624:6921   */\n    tag_325:\n        /* \"--CODEGEN--\":6649:6655   */\n      dup5\n        /* \"--CODEGEN--\":6646:6647   */\n      dup2\n        /* \"--CODEGEN--\":6643:6656   */\n      lt\n        /* \"--CODEGEN--\":6624:6921   */\n      iszero\n      tag_326\n      jumpi\n        /* \"--CODEGEN--\":6711:6720   */\n      dup4\n        /* \"--CODEGEN--\":6705:6709   */\n      dup4\n        /* \"--CODEGEN--\":6701:6721   */\n      sub\n        /* \"--CODEGEN--\":6696:6699   */\n      dup9\n        /* \"--CODEGEN--\":6689:6722   */\n      mstore\n        /* \"--CODEGEN--\":6737:6807   */\n      tag_328\n        /* \"--CODEGEN--\":6802:6806   */\n      dup4\n        /* \"--CODEGEN--\":6793:6799   */\n      dup4\n        /* \"--CODEGEN--\":6787:6800   */\n      mload\n        /* \"--CODEGEN--\":6737:6807   */\n      jump(tag_329)\n    tag_328:\n        /* \"--CODEGEN--\":6729:6807   */\n      swap3\n      pop\n        /* \"--CODEGEN--\":6824:6886   */\n      tag_330\n        /* \"--CODEGEN--\":6879:6885   */\n      dup3\n        /* \"--CODEGEN--\":6824:6886   */\n      jump(tag_331)\n    tag_330:\n        /* \"--CODEGEN--\":6814:6886   */\n      swap2\n      pop\n        /* \"--CODEGEN--\":6909:6913   */\n      0x20\n        /* \"--CODEGEN--\":6904:6907   */\n      dup9\n        /* \"--CODEGEN--\":6900:6914   */\n      add\n        /* \"--CODEGEN--\":6893:6914   */\n      swap8\n      pop\n        /* \"--CODEGEN--\":6671:6672   */\n      0x01\n        /* \"--CODEGEN--\":6668:6669   */\n      dup2\n        /* \"--CODEGEN--\":6664:6673   */\n      add\n        /* \"--CODEGEN--\":6659:6673   */\n      swap1\n      pop\n        /* \"--CODEGEN--\":6624:6921   */\n      jump(tag_325)\n    tag_326:\n        /* \"--CODEGEN--\":6628:6642   */\n      pop\n        /* \"--CODEGEN--\":6934:6938   */\n      dup2\n        /* \"--CODEGEN--\":6927:6938   */\n      swap7\n      pop\n        /* \"--CODEGEN--\":6951:6954   */\n      dup7\n        /* \"--CODEGEN--\":6944:6954   */\n      swap5\n      pop\n        /* \"--CODEGEN--\":6325:6960   */\n      pop\n      pop\n      pop\n      pop\n      swap3\n      swap2\n      pop\n      pop\n      jump\n        /* \"--CODEGEN--\":6968:7069   */\n    tag_333:\n        /* \"--CODEGEN--\":7035:7063   */\n      tag_334\n        /* \"--CODEGEN--\":7057:7062   */\n      dup2\n        /* \"--CODEGEN--\":7035:7063   */\n      jump(tag_335)\n    tag_334:\n        /* \"--CODEGEN--\":7030:7033   */\n      dup3\n        /* \"--CODEGEN--\":7023:7064   */\n      mstore\n        /* \"--CODEGEN--\":7017:7069   */\n      pop\n      pop\n      jump\n        /* \"--CODEGEN--\":7076:7183   */\n    tag_337:\n        /* \"--CODEGEN--\":7147:7177   */\n      tag_338\n        /* \"--CODEGEN--\":7171:7176   */\n      dup2\n        /* \"--CODEGEN--\":7147:7177   */\n      jump(tag_339)\n    tag_338:\n        /* \"--CODEGEN--\":7142:7145   */\n      dup3\n        /* \"--CODEGEN--\":7135:7178   */\n      mstore\n        /* \"--CODEGEN--\":7129:7183   */\n      pop\n      pop\n      jump\n        /* \"--CODEGEN--\":7190:7482   */\n    tag_329:\n      0x00\n        /* \"--CODEGEN--\":7288:7323   */\n      tag_341\n        /* \"--CODEGEN--\":7317:7322   */\n      dup3\n        /* \"--CODEGEN--\":7288:7323   */\n      jump(tag_342)\n    tag_341:\n        /* \"--CODEGEN--\":7340:7346   */\n      dup1\n        /* \"--CODEGEN--\":7335:7338   */\n      dup5\n        /* \"--CODEGEN--\":7328:7347   */\n      mstore\n        /* \"--CODEGEN--\":7352:7415   */\n      tag_343\n        /* \"--CODEGEN--\":7408:7414   */\n      dup2\n        /* \"--CODEGEN--\":7401:7405   */\n      0x20\n        /* \"--CODEGEN--\":7396:7399   */\n      dup7\n        /* \"--CODEGEN--\":7392:7406   */\n      add\n        /* \"--CODEGEN--\":7385:7389   */\n      0x20\n        /* \"--CODEGEN--\":7378:7383   */\n      dup7\n        /* \"--CODEGEN--\":7374:7390   */\n      add\n        /* \"--CODEGEN--\":7352:7415   */\n      jump(tag_344)\n    tag_343:\n        /* \"--CODEGEN--\":7447:7476   */\n      tag_345\n        /* \"--CODEGEN--\":7469:7475   */\n      dup2\n        /* \"--CODEGEN--\":7447:7476   */\n      jump(tag_346)\n    tag_345:\n        /* \"--CODEGEN--\":7440:7444   */\n      0x20\n        /* \"--CODEGEN--\":7435:7438   */\n      dup6\n        /* \"--CODEGEN--\":7431:7445   */\n      add\n        /* \"--CODEGEN--\":7427:7477   */\n      add\n        /* \"--CODEGEN--\":7420:7477   */\n      swap2\n      pop\n        /* \"--CODEGEN--\":7268:7482   */\n      pop\n      swap3\n      swap2\n      pop\n      pop\n      jump\n        /* \"--CODEGEN--\":7552:8826   */\n    tag_348:\n      0x00\n        /* \"--CODEGEN--\":7687:7691   */\n      0x80\n        /* \"--CODEGEN--\":7682:7685   */\n      dup4\n        /* \"--CODEGEN--\":7678:7692   */\n      add\n        /* \"--CODEGEN--\":7780:7783   */\n      0x00\n        /* \"--CODEGEN--\":7773:7778   */\n      dup4\n        /* \"--CODEGEN--\":7769:7784   */\n      add\n        /* \"--CODEGEN--\":7763:7785   */\n      mload\n        /* \"--CODEGEN--\":7829:7832   */\n      dup5\n        /* \"--CODEGEN--\":7823:7827   */\n      dup3\n        /* \"--CODEGEN--\":7819:7833   */\n      sub\n        /* \"--CODEGEN--\":7813:7816   */\n      0x00\n        /* \"--CODEGEN--\":7808:7811   */\n      dup7\n        /* \"--CODEGEN--\":7804:7817   */\n      add\n        /* \"--CODEGEN--\":7797:7834   */\n      mstore\n        /* \"--CODEGEN--\":7849:7959   */\n      tag_349\n        /* \"--CODEGEN--\":7954:7958   */\n      dup3\n        /* \"--CODEGEN--\":7941:7952   */\n      dup3\n        /* \"--CODEGEN--\":7849:7959   */\n      jump(tag_320)\n    tag_349:\n        /* \"--CODEGEN--\":7841:7959   */\n      swap2\n      pop\n        /* \"--CODEGEN--\":7707:7971   */\n      pop\n        /* \"--CODEGEN--\":8058:8062   */\n      0x20\n        /* \"--CODEGEN--\":8051:8056   */\n      dup4\n        /* \"--CODEGEN--\":8047:8063   */\n      add\n        /* \"--CODEGEN--\":8041:8064   */\n      mload\n        /* \"--CODEGEN--\":8109:8112   */\n      dup5\n        /* \"--CODEGEN--\":8103:8107   */\n      dup3\n        /* \"--CODEGEN--\":8099:8113   */\n      sub\n        /* \"--CODEGEN--\":8092:8096   */\n      0x20\n        /* \"--CODEGEN--\":8087:8090   */\n      dup7\n        /* \"--CODEGEN--\":8083:8097   */\n      add\n        /* \"--CODEGEN--\":8076:8114   */\n      mstore\n        /* \"--CODEGEN--\":8129:8239   */\n      tag_350\n        /* \"--CODEGEN--\":8234:8238   */\n      dup3\n        /* \"--CODEGEN--\":8221:8232   */\n      dup3\n        /* \"--CODEGEN--\":8129:8239   */\n      jump(tag_320)\n    tag_350:\n        /* \"--CODEGEN--\":8121:8239   */\n      swap2\n      pop\n        /* \"--CODEGEN--\":7981:8251   */\n      pop\n        /* \"--CODEGEN--\":8333:8337   */\n      0x40\n        /* \"--CODEGEN--\":8326:8331   */\n      dup4\n        /* \"--CODEGEN--\":8322:8338   */\n      add\n        /* \"--CODEGEN--\":8316:8339   */\n      mload\n        /* \"--CODEGEN--\":8384:8387   */\n      dup5\n        /* \"--CODEGEN--\":8378:8382   */\n      dup3\n        /* \"--CODEGEN--\":8374:8388   */\n      sub\n        /* \"--CODEGEN--\":8367:8371   */\n      0x40\n        /* \"--CODEGEN--\":8362:8365   */\n      dup7\n        /* \"--CODEGEN--\":8358:8372   */\n      add\n        /* \"--CODEGEN--\":8351:8389   */\n      mstore\n        /* \"--CODEGEN--\":8404:8514   */\n      tag_351\n        /* \"--CODEGEN--\":8509:8513   */\n      dup3\n        /* \"--CODEGEN--\":8496:8507   */\n      dup3\n        /* \"--CODEGEN--\":8404:8514   */\n      jump(tag_320)\n    tag_351:\n        /* \"--CODEGEN--\":8396:8514   */\n      swap2\n      pop\n        /* \"--CODEGEN--\":8261:8526   */\n      pop\n        /* \"--CODEGEN--\":8607:8611   */\n      0x60\n        /* \"--CODEGEN--\":8600:8605   */\n      dup4\n        /* \"--CODEGEN--\":8596:8612   */\n      add\n        /* \"--CODEGEN--\":8590:8613   */\n      mload\n        /* \"--CODEGEN--\":8658:8661   */\n      dup5\n        /* \"--CODEGEN--\":8652:8656   */\n      dup3\n        /* \"--CODEGEN--\":8648:8662   */\n      sub\n        /* \"--CODEGEN--\":8641:8645   */\n      0x60\n        /* \"--CODEGEN--\":8636:8639   */\n      dup7\n        /* \"--CODEGEN--\":8632:8646   */\n      add\n        /* \"--CODEGEN--\":8625:8663   */\n      mstore\n        /* \"--CODEGEN--\":8678:8788   */\n      tag_352\n        /* \"--CODEGEN--\":8783:8787   */\n      dup3\n        /* \"--CODEGEN--\":8770:8781   */\n      dup3\n        /* \"--CODEGEN--\":8678:8788   */\n      jump(tag_320)\n    tag_352:\n        /* \"--CODEGEN--\":8670:8788   */\n      swap2\n      pop\n        /* \"--CODEGEN--\":8536:8800   */\n      pop\n        /* \"--CODEGEN--\":8817:8821   */\n      dup1\n        /* \"--CODEGEN--\":8810:8821   */\n      swap2\n      pop\n        /* \"--CODEGEN--\":7660:8826   */\n      pop\n      swap3\n      swap2\n      pop\n      pop\n      jump\n        /* \"--CODEGEN--\":8924:10895   */\n    tag_354:\n      0x00\n        /* \"--CODEGEN--\":9087:9092   */\n      0x0100\n        /* \"--CODEGEN--\":9082:9085   */\n      dup4\n        /* \"--CODEGEN--\":9078:9093   */\n      add\n        /* \"--CODEGEN--\":9174:9177   */\n      0x00\n        /* \"--CODEGEN--\":9167:9172   */\n      dup4\n        /* \"--CODEGEN--\":9163:9178   */\n      add\n        /* \"--CODEGEN--\":9157:9179   */\n      mload\n        /* \"--CODEGEN--\":9223:9226   */\n      dup5\n        /* \"--CODEGEN--\":9217:9221   */\n      dup3\n        /* \"--CODEGEN--\":9213:9227   */\n      sub\n        /* \"--CODEGEN--\":9207:9210   */\n      0x00\n        /* \"--CODEGEN--\":9202:9205   */\n      dup7\n        /* \"--CODEGEN--\":9198:9211   */\n      add\n        /* \"--CODEGEN--\":9191:9228   */\n      mstore\n        /* \"--CODEGEN--\":9243:9311   */\n      tag_355\n        /* \"--CODEGEN--\":9306:9310   */\n      dup3\n        /* \"--CODEGEN--\":9293:9304   */\n      dup3\n        /* \"--CODEGEN--\":9243:9311   */\n      jump(tag_329)\n    tag_355:\n        /* \"--CODEGEN--\":9235:9311   */\n      swap2\n      pop\n        /* \"--CODEGEN--\":9108:9323   */\n      pop\n        /* \"--CODEGEN--\":9401:9405   */\n      0x20\n        /* \"--CODEGEN--\":9394:9399   */\n      dup4\n        /* \"--CODEGEN--\":9390:9406   */\n      add\n        /* \"--CODEGEN--\":9384:9407   */\n      mload\n        /* \"--CODEGEN--\":9452:9455   */\n      dup5\n        /* \"--CODEGEN--\":9446:9450   */\n      dup3\n        /* \"--CODEGEN--\":9442:9456   */\n      sub\n        /* \"--CODEGEN--\":9435:9439   */\n      0x20\n        /* \"--CODEGEN--\":9430:9433   */\n      dup7\n        /* \"--CODEGEN--\":9426:9440   */\n      add\n        /* \"--CODEGEN--\":9419:9457   */\n      mstore\n        /* \"--CODEGEN--\":9472:9540   */\n      tag_356\n        /* \"--CODEGEN--\":9535:9539   */\n      dup3\n        /* \"--CODEGEN--\":9522:9533   */\n      dup3\n        /* \"--CODEGEN--\":9472:9540   */\n      jump(tag_329)\n    tag_356:\n        /* \"--CODEGEN--\":9464:9540   */\n      swap2\n      pop\n        /* \"--CODEGEN--\":9333:9552   */\n      pop\n        /* \"--CODEGEN--\":9627:9631   */\n      0x40\n        /* \"--CODEGEN--\":9620:9625   */\n      dup4\n        /* \"--CODEGEN--\":9616:9632   */\n      add\n        /* \"--CODEGEN--\":9610:9633   */\n      mload\n        /* \"--CODEGEN--\":9678:9681   */\n      dup5\n        /* \"--CODEGEN--\":9672:9676   */\n      dup3\n        /* \"--CODEGEN--\":9668:9682   */\n      sub\n        /* \"--CODEGEN--\":9661:9665   */\n      0x40\n        /* \"--CODEGEN--\":9656:9659   */\n      dup7\n        /* \"--CODEGEN--\":9652:9666   */\n      add\n        /* \"--CODEGEN--\":9645:9683   */\n      mstore\n        /* \"--CODEGEN--\":9698:9766   */\n      tag_357\n        /* \"--CODEGEN--\":9761:9765   */\n      dup3\n        /* \"--CODEGEN--\":9748:9759   */\n      dup3\n        /* \"--CODEGEN--\":9698:9766   */\n      jump(tag_329)\n    tag_357:\n        /* \"--CODEGEN--\":9690:9766   */\n      swap2\n      pop\n        /* \"--CODEGEN--\":9562:9778   */\n      pop\n        /* \"--CODEGEN--\":9856:9860   */\n      0x60\n        /* \"--CODEGEN--\":9849:9854   */\n      dup4\n        /* \"--CODEGEN--\":9845:9861   */\n      add\n        /* \"--CODEGEN--\":9839:9862   */\n      mload\n        /* \"--CODEGEN--\":9907:9910   */\n      dup5\n        /* \"--CODEGEN--\":9901:9905   */\n      dup3\n        /* \"--CODEGEN--\":9897:9911   */\n      sub\n        /* \"--CODEGEN--\":9890:9894   */\n      0x60\n        /* \"--CODEGEN--\":9885:9888   */\n      dup7\n        /* \"--CODEGEN--\":9881:9895   */\n      add\n        /* \"--CODEGEN--\":9874:9912   */\n      mstore\n        /* \"--CODEGEN--\":9927:9995   */\n      tag_358\n        /* \"--CODEGEN--\":9990:9994   */\n      dup3\n        /* \"--CODEGEN--\":9977:9988   */\n      dup3\n        /* \"--CODEGEN--\":9927:9995   */\n      jump(tag_329)\n    tag_358:\n        /* \"--CODEGEN--\":9919:9995   */\n      swap2\n      pop\n        /* \"--CODEGEN--\":9788:10007   */\n      pop\n        /* \"--CODEGEN--\":10085:10089   */\n      0x80\n        /* \"--CODEGEN--\":10078:10083   */\n      dup4\n        /* \"--CODEGEN--\":10074:10090   */\n      add\n        /* \"--CODEGEN--\":10068:10091   */\n      mload\n        /* \"--CODEGEN--\":10103:10163   */\n      tag_359\n        /* \"--CODEGEN--\":10157:10161   */\n      0x80\n        /* \"--CODEGEN--\":10152:10155   */\n      dup7\n        /* \"--CODEGEN--\":10148:10162   */\n      add\n        /* \"--CODEGEN--\":10135:10146   */\n      dup3\n        /* \"--CODEGEN--\":10103:10163   */\n      jump(tag_337)\n    tag_359:\n        /* \"--CODEGEN--\":10017:10175   */\n      pop\n        /* \"--CODEGEN--\":10255:10259   */\n      0xa0\n        /* \"--CODEGEN--\":10248:10253   */\n      dup4\n        /* \"--CODEGEN--\":10244:10260   */\n      add\n        /* \"--CODEGEN--\":10238:10261   */\n      mload\n        /* \"--CODEGEN--\":10306:10309   */\n      dup5\n        /* \"--CODEGEN--\":10300:10304   */\n      dup3\n        /* \"--CODEGEN--\":10296:10310   */\n      sub\n        /* \"--CODEGEN--\":10289:10293   */\n      0xa0\n        /* \"--CODEGEN--\":10284:10287   */\n      dup7\n        /* \"--CODEGEN--\":10280:10294   */\n      add\n        /* \"--CODEGEN--\":10273:10311   */\n      mstore\n        /* \"--CODEGEN--\":10326:10394   */\n      tag_360\n        /* \"--CODEGEN--\":10389:10393   */\n      dup3\n        /* \"--CODEGEN--\":10376:10387   */\n      dup3\n        /* \"--CODEGEN--\":10326:10394   */\n      jump(tag_329)\n    tag_360:\n        /* \"--CODEGEN--\":10318:10394   */\n      swap2\n      pop\n        /* \"--CODEGEN--\":10185:10406   */\n      pop\n        /* \"--CODEGEN--\":10488:10492   */\n      0xc0\n        /* \"--CODEGEN--\":10481:10486   */\n      dup4\n        /* \"--CODEGEN--\":10477:10493   */\n      add\n        /* \"--CODEGEN--\":10471:10494   */\n      mload\n        /* \"--CODEGEN--\":10539:10542   */\n      dup5\n        /* \"--CODEGEN--\":10533:10537   */\n      dup3\n        /* \"--CODEGEN--\":10529:10543   */\n      sub\n        /* \"--CODEGEN--\":10522:10526   */\n      0xc0\n        /* \"--CODEGEN--\":10517:10520   */\n      dup7\n        /* \"--CODEGEN--\":10513:10527   */\n      add\n        /* \"--CODEGEN--\":10506:10544   */\n      mstore\n        /* \"--CODEGEN--\":10559:10627   */\n      tag_361\n        /* \"--CODEGEN--\":10622:10626   */\n      dup3\n        /* \"--CODEGEN--\":10609:10620   */\n      dup3\n        /* \"--CODEGEN--\":10559:10627   */\n      jump(tag_329)\n    tag_361:\n        /* \"--CODEGEN--\":10551:10627   */\n      swap2\n      pop\n        /* \"--CODEGEN--\":10416:10639   */\n      pop\n        /* \"--CODEGEN--\":10718:10722   */\n      0xe0\n        /* \"--CODEGEN--\":10711:10716   */\n      dup4\n        /* \"--CODEGEN--\":10707:10723   */\n      add\n        /* \"--CODEGEN--\":10701:10724   */\n      mload\n        /* \"--CODEGEN--\":10769:10772   */\n      dup5\n        /* \"--CODEGEN--\":10763:10767   */\n      dup3\n        /* \"--CODEGEN--\":10759:10773   */\n      sub\n        /* \"--CODEGEN--\":10752:10756   */\n      0xe0\n        /* \"--CODEGEN--\":10747:10750   */\n      dup7\n        /* \"--CODEGEN--\":10743:10757   */\n      add\n        /* \"--CODEGEN--\":10736:10774   */\n      mstore\n        /* \"--CODEGEN--\":10789:10857   */\n      tag_362\n        /* \"--CODEGEN--\":10852:10856   */\n      dup3\n        /* \"--CODEGEN--\":10839:10850   */\n      dup3\n        /* \"--CODEGEN--\":10789:10857   */\n      jump(tag_329)\n    tag_362:\n        /* \"--CODEGEN--\":10781:10857   */\n      swap2\n      pop\n        /* \"--CODEGEN--\":10649:10869   */\n      pop\n        /* \"--CODEGEN--\":10886:10890   */\n      dup1\n        /* \"--CODEGEN--\":10879:10890   */\n      swap2\n      pop\n        /* \"--CODEGEN--\":9060:10895   */\n      pop\n      swap3\n      swap2\n      pop\n      pop\n      jump\n        /* \"--CODEGEN--\":10999:13079   */\n    tag_364:\n      0x00\n        /* \"--CODEGEN--\":11168:11173   */\n      0x0100\n        /* \"--CODEGEN--\":11163:11166   */\n      dup4\n        /* \"--CODEGEN--\":11159:11174   */\n      add\n        /* \"--CODEGEN--\":11265:11268   */\n      0x00\n        /* \"--CODEGEN--\":11258:11263   */\n      dup4\n        /* \"--CODEGEN--\":11254:11269   */\n      add\n        /* \"--CODEGEN--\":11248:11270   */\n      mload\n        /* \"--CODEGEN--\":11314:11317   */\n      dup5\n        /* \"--CODEGEN--\":11308:11312   */\n      dup3\n        /* \"--CODEGEN--\":11304:11318   */\n      sub\n        /* \"--CODEGEN--\":11298:11301   */\n      0x00\n        /* \"--CODEGEN--\":11293:11296   */\n      dup7\n        /* \"--CODEGEN--\":11289:11302   */\n      add\n        /* \"--CODEGEN--\":11282:11319   */\n      mstore\n        /* \"--CODEGEN--\":11334:11402   */\n      tag_365\n        /* \"--CODEGEN--\":11397:11401   */\n      dup3\n        /* \"--CODEGEN--\":11384:11395   */\n      dup3\n        /* \"--CODEGEN--\":11334:11402   */\n      jump(tag_329)\n    tag_365:\n        /* \"--CODEGEN--\":11326:11402   */\n      swap2\n      pop\n        /* \"--CODEGEN--\":11189:11414   */\n      pop\n        /* \"--CODEGEN--\":11495:11499   */\n      0x20\n        /* \"--CODEGEN--\":11488:11493   */\n      dup4\n        /* \"--CODEGEN--\":11484:11500   */\n      add\n        /* \"--CODEGEN--\":11478:11501   */\n      mload\n        /* \"--CODEGEN--\":11546:11549   */\n      dup5\n        /* \"--CODEGEN--\":11540:11544   */\n      dup3\n        /* \"--CODEGEN--\":11536:11550   */\n      sub\n        /* \"--CODEGEN--\":11529:11533   */\n      0x20\n        /* \"--CODEGEN--\":11524:11527   */\n      dup7\n        /* \"--CODEGEN--\":11520:11534   */\n      add\n        /* \"--CODEGEN--\":11513:11551   */\n      mstore\n        /* \"--CODEGEN--\":11566:11634   */\n      tag_366\n        /* \"--CODEGEN--\":11629:11633   */\n      dup3\n        /* \"--CODEGEN--\":11616:11627   */\n      dup3\n        /* \"--CODEGEN--\":11566:11634   */\n      jump(tag_329)\n    tag_366:\n        /* \"--CODEGEN--\":11558:11634   */\n      swap2\n      pop\n        /* \"--CODEGEN--\":11424:11646   */\n      pop\n        /* \"--CODEGEN--\":11729:11733   */\n      0x40\n        /* \"--CODEGEN--\":11722:11727   */\n      dup4\n        /* \"--CODEGEN--\":11718:11734   */\n      add\n        /* \"--CODEGEN--\":11712:11735   */\n      mload\n        /* \"--CODEGEN--\":11780:11783   */\n      dup5\n        /* \"--CODEGEN--\":11774:11778   */\n      dup3\n        /* \"--CODEGEN--\":11770:11784   */\n      sub\n        /* \"--CODEGEN--\":11763:11767   */\n      0x40\n        /* \"--CODEGEN--\":11758:11761   */\n      dup7\n        /* \"--CODEGEN--\":11754:11768   */\n      add\n        /* \"--CODEGEN--\":11747:11785   */\n      mstore\n        /* \"--CODEGEN--\":11800:11868   */\n      tag_367\n        /* \"--CODEGEN--\":11863:11867   */\n      dup3\n        /* \"--CODEGEN--\":11850:11861   */\n      dup3\n        /* \"--CODEGEN--\":11800:11868   */\n      jump(tag_329)\n    tag_367:\n        /* \"--CODEGEN--\":11792:11868   */\n      swap2\n      pop\n        /* \"--CODEGEN--\":11656:11880   */\n      pop\n        /* \"--CODEGEN--\":11961:11965   */\n      0x60\n        /* \"--CODEGEN--\":11954:11959   */\n      dup4\n        /* \"--CODEGEN--\":11950:11966   */\n      add\n        /* \"--CODEGEN--\":11944:11967   */\n      mload\n        /* \"--CODEGEN--\":12012:12015   */\n      dup5\n        /* \"--CODEGEN--\":12006:12010   */\n      dup3\n        /* \"--CODEGEN--\":12002:12016   */\n      sub\n        /* \"--CODEGEN--\":11995:11999   */\n      0x60\n        /* \"--CODEGEN--\":11990:11993   */\n      dup7\n        /* \"--CODEGEN--\":11986:12000   */\n      add\n        /* \"--CODEGEN--\":11979:12017   */\n      mstore\n        /* \"--CODEGEN--\":12032:12100   */\n      tag_368\n        /* \"--CODEGEN--\":12095:12099   */\n      dup3\n        /* \"--CODEGEN--\":12082:12093   */\n      dup3\n        /* \"--CODEGEN--\":12032:12100   */\n      jump(tag_329)\n    tag_368:\n        /* \"--CODEGEN--\":12024:12100   */\n      swap2\n      pop\n        /* \"--CODEGEN--\":11890:12112   */\n      pop\n        /* \"--CODEGEN--\":12197:12201   */\n      0x80\n        /* \"--CODEGEN--\":12190:12195   */\n      dup4\n        /* \"--CODEGEN--\":12186:12202   */\n      add\n        /* \"--CODEGEN--\":12180:12203   */\n      mload\n        /* \"--CODEGEN--\":12248:12251   */\n      dup5\n        /* \"--CODEGEN--\":12242:12246   */\n      dup3\n        /* \"--CODEGEN--\":12238:12252   */\n      sub\n        /* \"--CODEGEN--\":12231:12235   */\n      0x80\n        /* \"--CODEGEN--\":12226:12229   */\n      dup7\n        /* \"--CODEGEN--\":12222:12236   */\n      add\n        /* \"--CODEGEN--\":12215:12253   */\n      mstore\n        /* \"--CODEGEN--\":12268:12336   */\n      tag_369\n        /* \"--CODEGEN--\":12331:12335   */\n      dup3\n        /* \"--CODEGEN--\":12318:12329   */\n      dup3\n        /* \"--CODEGEN--\":12268:12336   */\n      jump(tag_329)\n    tag_369:\n        /* \"--CODEGEN--\":12260:12336   */\n      swap2\n      pop\n        /* \"--CODEGEN--\":12122:12348   */\n      pop\n        /* \"--CODEGEN--\":12430:12434   */\n      0xa0\n        /* \"--CODEGEN--\":12423:12428   */\n      dup4\n        /* \"--CODEGEN--\":12419:12435   */\n      add\n        /* \"--CODEGEN--\":12413:12436   */\n      mload\n        /* \"--CODEGEN--\":12481:12484   */\n      dup5\n        /* \"--CODEGEN--\":12475:12479   */\n      dup3\n        /* \"--CODEGEN--\":12471:12485   */\n      sub\n        /* \"--CODEGEN--\":12464:12468   */\n      0xa0\n        /* \"--CODEGEN--\":12459:12462   */\n      dup7\n        /* \"--CODEGEN--\":12455:12469   */\n      add\n        /* \"--CODEGEN--\":12448:12486   */\n      mstore\n        /* \"--CODEGEN--\":12501:12569   */\n      tag_370\n        /* \"--CODEGEN--\":12564:12568   */\n      dup3\n        /* \"--CODEGEN--\":12551:12562   */\n      dup3\n        /* \"--CODEGEN--\":12501:12569   */\n      jump(tag_329)\n    tag_370:\n        /* \"--CODEGEN--\":12493:12569   */\n      swap2\n      pop\n        /* \"--CODEGEN--\":12358:12581   */\n      pop\n        /* \"--CODEGEN--\":12670:12674   */\n      0xc0\n        /* \"--CODEGEN--\":12663:12668   */\n      dup4\n        /* \"--CODEGEN--\":12659:12675   */\n      add\n        /* \"--CODEGEN--\":12653:12676   */\n      mload\n        /* \"--CODEGEN--\":12721:12724   */\n      dup5\n        /* \"--CODEGEN--\":12715:12719   */\n      dup3\n        /* \"--CODEGEN--\":12711:12725   */\n      sub\n        /* \"--CODEGEN--\":12704:12708   */\n      0xc0\n        /* \"--CODEGEN--\":12699:12702   */\n      dup7\n        /* \"--CODEGEN--\":12695:12709   */\n      add\n        /* \"--CODEGEN--\":12688:12726   */\n      mstore\n        /* \"--CODEGEN--\":12741:12809   */\n      tag_371\n        /* \"--CODEGEN--\":12804:12808   */\n      dup3\n        /* \"--CODEGEN--\":12791:12802   */\n      dup3\n        /* \"--CODEGEN--\":12741:12809   */\n      jump(tag_329)\n    tag_371:\n        /* \"--CODEGEN--\":12733:12809   */\n      swap2\n      pop\n        /* \"--CODEGEN--\":12591:12821   */\n      pop\n        /* \"--CODEGEN--\":12902:12906   */\n      0xe0\n        /* \"--CODEGEN--\":12895:12900   */\n      dup4\n        /* \"--CODEGEN--\":12891:12907   */\n      add\n        /* \"--CODEGEN--\":12885:12908   */\n      mload\n        /* \"--CODEGEN--\":12953:12956   */\n      dup5\n        /* \"--CODEGEN--\":12947:12951   */\n      dup3\n        /* \"--CODEGEN--\":12943:12957   */\n      sub\n        /* \"--CODEGEN--\":12936:12940   */\n      0xe0\n        /* \"--CODEGEN--\":12931:12934   */\n      dup7\n        /* \"--CODEGEN--\":12927:12941   */\n      add\n        /* \"--CODEGEN--\":12920:12958   */\n      mstore\n        /* \"--CODEGEN--\":12973:13041   */\n      tag_372\n        /* \"--CODEGEN--\":13036:13040   */\n      dup3\n        /* \"--CODEGEN--\":13023:13034   */\n      dup3\n        /* \"--CODEGEN--\":12973:13041   */\n      jump(tag_329)\n    tag_372:\n        /* \"--CODEGEN--\":12965:13041   */\n      swap2\n      pop\n        /* \"--CODEGEN--\":12831:13053   */\n      pop\n        /* \"--CODEGEN--\":13070:13074   */\n      dup1\n        /* \"--CODEGEN--\":13063:13074   */\n      swap2\n      pop\n        /* \"--CODEGEN--\":11141:13079   */\n      pop\n      swap3\n      swap2\n      pop\n      pop\n      jump\n        /* \"--CODEGEN--\":13086:13279   */\n    tag_219:\n      0x00\n        /* \"--CODEGEN--\":13194:13196   */\n      0x20\n        /* \"--CODEGEN--\":13183:13192   */\n      dup3\n        /* \"--CODEGEN--\":13179:13197   */\n      add\n        /* \"--CODEGEN--\":13171:13197   */\n      swap1\n      pop\n        /* \"--CODEGEN--\":13208:13269   */\n      tag_374\n        /* \"--CODEGEN--\":13266:13267   */\n      0x00\n        /* \"--CODEGEN--\":13255:13264   */\n      dup4\n        /* \"--CODEGEN--\":13251:13268   */\n      add\n        /* \"--CODEGEN--\":13242:13248   */\n      dup5\n        /* \"--CODEGEN--\":13208:13269   */\n      jump(tag_316)\n    tag_374:\n        /* \"--CODEGEN--\":13165:13279   */\n      swap3\n      swap2\n      pop\n      pop\n      jump\n        /* \"--CODEGEN--\":13286:13467   */\n    tag_42:\n      0x00\n        /* \"--CODEGEN--\":13388:13390   */\n      0x20\n        /* \"--CODEGEN--\":13377:13386   */\n      dup3\n        /* \"--CODEGEN--\":13373:13391   */\n      add\n        /* \"--CODEGEN--\":13365:13391   */\n      swap1\n      pop\n        /* \"--CODEGEN--\":13402:13457   */\n      tag_376\n        /* \"--CODEGEN--\":13454:13455   */\n      0x00\n        /* \"--CODEGEN--\":13443:13452   */\n      dup4\n        /* \"--CODEGEN--\":13439:13456   */\n      add\n        /* \"--CODEGEN--\":13430:13436   */\n      dup5\n        /* \"--CODEGEN--\":13402:13457   */\n      jump(tag_333)\n    tag_376:\n        /* \"--CODEGEN--\":13359:13467   */\n      swap3\n      swap2\n      pop\n      pop\n      jump\n        /* \"--CODEGEN--\":13474:14491   */\n    tag_32:\n      0x00\n        /* \"--CODEGEN--\":13854:13857   */\n      0x80\n        /* \"--CODEGEN--\":13843:13852   */\n      dup3\n        /* \"--CODEGEN--\":13839:13858   */\n      add\n        /* \"--CODEGEN--\":13831:13858   */\n      swap1\n      pop\n        /* \"--CODEGEN--\":13869:13924   */\n      tag_378\n        /* \"--CODEGEN--\":13921:13922   */\n      0x00\n        /* \"--CODEGEN--\":13910:13919   */\n      dup4\n        /* \"--CODEGEN--\":13906:13923   */\n      add\n        /* \"--CODEGEN--\":13897:13903   */\n      dup8\n        /* \"--CODEGEN--\":13869:13924   */\n      jump(tag_333)\n    tag_378:\n        /* \"--CODEGEN--\":13972:13981   */\n      dup2\n        /* \"--CODEGEN--\":13966:13970   */\n      dup2\n        /* \"--CODEGEN--\":13962:13982   */\n      sub\n        /* \"--CODEGEN--\":13957:13959   */\n      0x20\n        /* \"--CODEGEN--\":13946:13955   */\n      dup4\n        /* \"--CODEGEN--\":13942:13960   */\n      add\n        /* \"--CODEGEN--\":13935:13983   */\n      mstore\n        /* \"--CODEGEN--\":13997:14117   */\n      tag_379\n        /* \"--CODEGEN--\":14112:14116   */\n      dup2\n        /* \"--CODEGEN--\":14103:14109   */\n      dup7\n        /* \"--CODEGEN--\":13997:14117   */\n      jump(tag_354)\n    tag_379:\n        /* \"--CODEGEN--\":13989:14117   */\n      swap1\n      pop\n        /* \"--CODEGEN--\":14165:14174   */\n      dup2\n        /* \"--CODEGEN--\":14159:14163   */\n      dup2\n        /* \"--CODEGEN--\":14155:14175   */\n      sub\n        /* \"--CODEGEN--\":14150:14152   */\n      0x40\n        /* \"--CODEGEN--\":14139:14148   */\n      dup4\n        /* \"--CODEGEN--\":14135:14153   */\n      add\n        /* \"--CODEGEN--\":14128:14176   */\n      mstore\n        /* \"--CODEGEN--\":14190:14316   */\n      tag_380\n        /* \"--CODEGEN--\":14311:14315   */\n      dup2\n        /* \"--CODEGEN--\":14302:14308   */\n      dup6\n        /* \"--CODEGEN--\":14190:14316   */\n      jump(tag_364)\n    tag_380:\n        /* \"--CODEGEN--\":14182:14316   */\n      swap1\n      pop\n        /* \"--CODEGEN--\":14364:14373   */\n      dup2\n        /* \"--CODEGEN--\":14358:14362   */\n      dup2\n        /* \"--CODEGEN--\":14354:14374   */\n      sub\n        /* \"--CODEGEN--\":14349:14351   */\n      0x60\n        /* \"--CODEGEN--\":14338:14347   */\n      dup4\n        /* \"--CODEGEN--\":14334:14352   */\n      add\n        /* \"--CODEGEN--\":14327:14375   */\n      mstore\n        /* \"--CODEGEN--\":14389:14481   */\n      tag_381\n        /* \"--CODEGEN--\":14476:14480   */\n      dup2\n        /* \"--CODEGEN--\":14467:14473   */\n      dup5\n        /* \"--CODEGEN--\":14389:14481   */\n      jump(tag_348)\n    tag_381:\n        /* \"--CODEGEN--\":14381:14481   */\n      swap1\n      pop\n        /* \"--CODEGEN--\":13825:14491   */\n      swap6\n      swap5\n      pop\n      pop\n      pop\n      pop\n      pop\n      jump\n        /* \"--CODEGEN--\":14498:14771   */\n    tag_24:\n      0x00\n        /* \"--CODEGEN--\":14622:14624   */\n      0x20\n        /* \"--CODEGEN--\":14611:14620   */\n      dup3\n        /* \"--CODEGEN--\":14607:14625   */\n      add\n        /* \"--CODEGEN--\":14599:14625   */\n      swap1\n      pop\n        /* \"--CODEGEN--\":14672:14681   */\n      dup2\n        /* \"--CODEGEN--\":14666:14670   */\n      dup2\n        /* \"--CODEGEN--\":14662:14682   */\n      sub\n        /* \"--CODEGEN--\":14658:14659   */\n      0x00\n        /* \"--CODEGEN--\":14647:14656   */\n      dup4\n        /* \"--CODEGEN--\":14643:14660   */\n      add\n        /* \"--CODEGEN--\":14636:14683   */\n      mstore\n        /* \"--CODEGEN--\":14697:14761   */\n      tag_383\n        /* \"--CODEGEN--\":14756:14760   */\n      dup2\n        /* \"--CODEGEN--\":14747:14753   */\n      dup5\n        /* \"--CODEGEN--\":14697:14761   */\n      jump(tag_329)\n    tag_383:\n        /* \"--CODEGEN--\":14689:14761   */\n      swap1\n      pop\n        /* \"--CODEGEN--\":14593:14771   */\n      swap3\n      swap2\n      pop\n      pop\n      jump\n        /* \"--CODEGEN--\":14778:15034   */\n    tag_259:\n      0x00\n        /* \"--CODEGEN--\":14840:14842   */\n      0x40\n        /* \"--CODEGEN--\":14834:14843   */\n      mload\n        /* \"--CODEGEN--\":14824:14843   */\n      swap1\n      pop\n        /* \"--CODEGEN--\":14878:14882   */\n      dup2\n        /* \"--CODEGEN--\":14870:14876   */\n      dup2\n        /* \"--CODEGEN--\":14866:14883   */\n      add\n        /* \"--CODEGEN--\":14977:14983   */\n      dup2\n        /* \"--CODEGEN--\":14965:14975   */\n      dup2\n        /* \"--CODEGEN--\":14962:14984   */\n      lt\n        /* \"--CODEGEN--\":14941:14959   */\n      0xffffffffffffffff\n        /* \"--CODEGEN--\":14929:14939   */\n      dup3\n        /* \"--CODEGEN--\":14926:14960   */\n      gt\n        /* \"--CODEGEN--\":14923:14985   */\n      or\n        /* \"--CODEGEN--\":14920:14922   */\n      iszero\n      tag_385\n      jumpi\n        /* \"--CODEGEN--\":14998:14999   */\n      0x00\n        /* \"--CODEGEN--\":14995:14996   */\n      dup1\n        /* \"--CODEGEN--\":14988:15000   */\n      revert\n        /* \"--CODEGEN--\":14920:14922   */\n    tag_385:\n        /* \"--CODEGEN--\":15018:15028   */\n      dup1\n        /* \"--CODEGEN--\":15014:15016   */\n      0x40\n        /* \"--CODEGEN--\":15007:15029   */\n      mstore\n        /* \"--CODEGEN--\":14818:15034   */\n      pop\n      swap2\n      swap1\n      pop\n      jump\n        /* \"--CODEGEN--\":15041:15300   */\n    tag_258:\n      0x00\n        /* \"--CODEGEN--\":15185:15203   */\n      0xffffffffffffffff\n        /* \"--CODEGEN--\":15177:15183   */\n      dup3\n        /* \"--CODEGEN--\":15174:15204   */\n      gt\n        /* \"--CODEGEN--\":15171:15173   */\n      iszero\n      tag_387\n      jumpi\n        /* \"--CODEGEN--\":15217:15218   */\n      0x00\n        /* \"--CODEGEN--\":15214:15215   */\n      dup1\n        /* \"--CODEGEN--\":15207:15219   */\n      revert\n        /* \"--CODEGEN--\":15171:15173   */\n    tag_387:\n        /* \"--CODEGEN--\":15261:15265   */\n      0x1f\n        /* \"--CODEGEN--\":15257:15266   */\n      not\n        /* \"--CODEGEN--\":15250:15254   */\n      0x1f\n        /* \"--CODEGEN--\":15242:15248   */\n      dup4\n        /* \"--CODEGEN--\":15238:15255   */\n      add\n        /* \"--CODEGEN--\":15234:15267   */\n      and\n        /* \"--CODEGEN--\":15226:15267   */\n      swap1\n      pop\n        /* \"--CODEGEN--\":15290:15294   */\n      0x20\n        /* \"--CODEGEN--\":15284:15288   */\n      dup2\n        /* \"--CODEGEN--\":15280:15295   */\n      add\n        /* \"--CODEGEN--\":15272:15295   */\n      swap1\n      pop\n        /* \"--CODEGEN--\":15108:15300   */\n      swap2\n      swap1\n      pop\n      jump\n        /* \"--CODEGEN--\":15309:15432   */\n    tag_324:\n      0x00\n        /* \"--CODEGEN--\":15420:15424   */\n      0x20\n        /* \"--CODEGEN--\":15412:15418   */\n      dup3\n        /* \"--CODEGEN--\":15408:15425   */\n      add\n        /* \"--CODEGEN--\":15397:15425   */\n      swap1\n      pop\n        /* \"--CODEGEN--\":15389:15432   */\n      swap2\n      swap1\n      pop\n      jump\n        /* \"--CODEGEN--\":15441:15550   */\n    tag_322:\n      0x00\n        /* \"--CODEGEN--\":15539:15544   */\n      dup2\n        /* \"--CODEGEN--\":15533:15545   */\n      mload\n        /* \"--CODEGEN--\":15523:15545   */\n      swap1\n      pop\n        /* \"--CODEGEN--\":15517:15550   */\n      swap2\n      swap1\n      pop\n      jump\n        /* \"--CODEGEN--\":15557:15645   */\n    tag_342:\n      0x00\n        /* \"--CODEGEN--\":15634:15639   */\n      dup2\n        /* \"--CODEGEN--\":15628:15640   */\n      mload\n        /* \"--CODEGEN--\":15618:15640   */\n      swap1\n      pop\n        /* \"--CODEGEN--\":15612:15645   */\n      swap2\n      swap1\n      pop\n      jump\n        /* \"--CODEGEN--\":15653:15777   */\n    tag_331:\n      0x00\n        /* \"--CODEGEN--\":15766:15770   */\n      0x20\n        /* \"--CODEGEN--\":15758:15764   */\n      dup3\n        /* \"--CODEGEN--\":15754:15771   */\n      add\n        /* \"--CODEGEN--\":15743:15771   */\n      swap1\n      pop\n        /* \"--CODEGEN--\":15736:15777   */\n      swap2\n      swap1\n      pop\n      jump\n        /* \"--CODEGEN--\":15785:15890   */\n    tag_318:\n      0x00\n        /* \"--CODEGEN--\":15854:15885   */\n      tag_393\n        /* \"--CODEGEN--\":15879:15884   */\n      dup3\n        /* \"--CODEGEN--\":15854:15885   */\n      jump(tag_394)\n    tag_393:\n        /* \"--CODEGEN--\":15843:15885   */\n      swap1\n      pop\n        /* \"--CODEGEN--\":15837:15890   */\n      swap2\n      swap1\n      pop\n      jump\n        /* \"--CODEGEN--\":15897:15989   */\n    tag_335:\n      0x00\n        /* \"--CODEGEN--\":15977:15982   */\n      dup2\n        /* \"--CODEGEN--\":15970:15983   */\n      iszero\n        /* \"--CODEGEN--\":15963:15984   */\n      iszero\n        /* \"--CODEGEN--\":15952:15984   */\n      swap1\n      pop\n        /* \"--CODEGEN--\":15946:15989   */\n      swap2\n      swap1\n      pop\n      jump\n        /* \"--CODEGEN--\":15996:16074   */\n    tag_339:\n      0x00\n        /* \"--CODEGEN--\":16064:16069   */\n      dup2\n        /* \"--CODEGEN--\":16053:16069   */\n      swap1\n      pop\n        /* \"--CODEGEN--\":16047:16074   */\n      swap2\n      swap1\n      pop\n      jump\n        /* \"--CODEGEN--\":16081:16209   */\n    tag_394:\n      0x00\n        /* \"--CODEGEN--\":16161:16203   */\n      0xffffffffffffffffffffffffffffffffffffffff\n        /* \"--CODEGEN--\":16154:16159   */\n      dup3\n        /* \"--CODEGEN--\":16150:16204   */\n      and\n        /* \"--CODEGEN--\":16139:16204   */\n      swap1\n      pop\n        /* \"--CODEGEN--\":16133:16209   */\n      swap2\n      swap1\n      pop\n      jump\n        /* \"--CODEGEN--\":16216:16321   */\n    tag_245:\n      0x00\n        /* \"--CODEGEN--\":16285:16316   */\n      tag_399\n        /* \"--CODEGEN--\":16310:16315   */\n      dup3\n        /* \"--CODEGEN--\":16285:16316   */\n      jump(tag_394)\n    tag_399:\n        /* \"--CODEGEN--\":16274:16316   */\n      swap1\n      pop\n        /* \"--CODEGEN--\":16268:16321   */\n      swap2\n      swap1\n      pop\n      jump\n        /* \"--CODEGEN--\":16328:16420   */\n    tag_252:\n      0x00\n        /* \"--CODEGEN--\":16408:16413   */\n      dup2\n        /* \"--CODEGEN--\":16401:16414   */\n      iszero\n        /* \"--CODEGEN--\":16394:16415   */\n      iszero\n        /* \"--CODEGEN--\":16383:16415   */\n      swap1\n      pop\n        /* \"--CODEGEN--\":16377:16420   */\n      swap2\n      swap1\n      pop\n      jump\n        /* \"--CODEGEN--\":16428:16573   */\n    tag_262:\n        /* \"--CODEGEN--\":16509:16515   */\n      dup3\n        /* \"--CODEGEN--\":16504:16507   */\n      dup2\n        /* \"--CODEGEN--\":16499:16502   */\n      dup4\n        /* \"--CODEGEN--\":16486:16516   */\n      calldatacopy\n        /* \"--CODEGEN--\":16565:16566   */\n      0x00\n        /* \"--CODEGEN--\":16556:16562   */\n      dup4\n        /* \"--CODEGEN--\":16551:16554   */\n      dup4\n        /* \"--CODEGEN--\":16547:16563   */\n      add\n        /* \"--CODEGEN--\":16540:16567   */\n      mstore\n        /* \"--CODEGEN--\":16479:16573   */\n      pop\n      pop\n      pop\n      jump\n        /* \"--CODEGEN--\":16582:16850   */\n    tag_344:\n        /* \"--CODEGEN--\":16647:16648   */\n      0x00\n        /* \"--CODEGEN--\":16654:16755   */\n    tag_403:\n        /* \"--CODEGEN--\":16668:16674   */\n      dup4\n        /* \"--CODEGEN--\":16665:16666   */\n      dup2\n        /* \"--CODEGEN--\":16662:16675   */\n      lt\n        /* \"--CODEGEN--\":16654:16755   */\n      iszero\n      tag_404\n      jumpi\n        /* \"--CODEGEN--\":16744:16745   */\n      dup1\n        /* \"--CODEGEN--\":16739:16742   */\n      dup3\n        /* \"--CODEGEN--\":16735:16746   */\n      add\n        /* \"--CODEGEN--\":16729:16747   */\n      mload\n        /* \"--CODEGEN--\":16725:16726   */\n      dup2\n        /* \"--CODEGEN--\":16720:16723   */\n      dup5\n        /* \"--CODEGEN--\":16716:16727   */\n      add\n        /* \"--CODEGEN--\":16709:16748   */\n      mstore\n        /* \"--CODEGEN--\":16690:16692   */\n      0x20\n        /* \"--CODEGEN--\":16687:16688   */\n      dup2\n        /* \"--CODEGEN--\":16683:16693   */\n      add\n        /* \"--CODEGEN--\":16678:16693   */\n      swap1\n      pop\n        /* \"--CODEGEN--\":16654:16755   */\n      jump(tag_403)\n    tag_404:\n        /* \"--CODEGEN--\":16770:16776   */\n      dup4\n        /* \"--CODEGEN--\":16767:16768   */\n      dup2\n        /* \"--CODEGEN--\":16764:16777   */\n      gt\n        /* \"--CODEGEN--\":16761:16763   */\n      iszero\n      tag_406\n      jumpi\n        /* \"--CODEGEN--\":16835:16836   */\n      0x00\n        /* \"--CODEGEN--\":16826:16832   */\n      dup5\n        /* \"--CODEGEN--\":16821:16824   */\n      dup5\n        /* \"--CODEGEN--\":16817:16833   */\n      add\n        /* \"--CODEGEN--\":16810:16837   */\n      mstore\n        /* \"--CODEGEN--\":16761:16763   */\n    tag_406:\n        /* \"--CODEGEN--\":16631:16850   */\n      pop\n      pop\n      pop\n      pop\n      jump\n        /* \"--CODEGEN--\":16858:16955   */\n    tag_346:\n      0x00\n        /* \"--CODEGEN--\":16946:16948   */\n      0x1f\n        /* \"--CODEGEN--\":16942:16949   */\n      not\n        /* \"--CODEGEN--\":16937:16939   */\n      0x1f\n        /* \"--CODEGEN--\":16930:16935   */\n      dup4\n        /* \"--CODEGEN--\":16926:16940   */\n      add\n        /* \"--CODEGEN--\":16922:16950   */\n      and\n        /* \"--CODEGEN--\":16912:16950   */\n      swap1\n      pop\n        /* \"--CODEGEN--\":16906:16955   */\n      swap2\n      swap1\n      pop\n      jump\n\n    auxdata: 0xa265627a7a72305820c6da462fb8f96f727940f4dc269ba1d4e88b3774ff518b3f6ce4b6e7f19d6e376c6578706572696d656e74616cf50037\n}\n",
    "bytecode": {
      "linkReferences": {},
      "object": "60806040523480156200001157600080fd5b5060405162003133380380620031338339810180604052620000379190810190620003ee565b62000041620001e8565b610100604051908101604052808c81526020018b81526020018a8152602001898152602001888152602001878152602001868152602001858152509050806000808201518160000190805190602001906200009e9291906200022e565b506020820151816001019080519060200190620000bd9291906200022e565b506040820151816002019080519060200190620000dc9291906200022e565b506060820151816003019080519060200190620000fb9291906200022e565b506080820151816004015560a0820151816005019080519060200190620001249291906200022e565b5060c0820151816006019080519060200190620001439291906200022e565b5060e0820151816007019080519060200190620001629291906200022e565b5090505082601590805190602001906200017e929190620002b5565b506001601460008473ffffffffffffffffffffffffffffffffffffffff1673ffffffffffffffffffffffffffffffffffffffff16815260200190815260200160002060006101000a81548160ff021916908315150217905550505050505050505050505062000675565b6101006040519081016040528060608152602001606081526020016060815260200160608152602001600081526020016060815260200160608152602001606081525090565b828054600181600116156101000203166002900490600052602060002090601f016020900481019282601f106200027157805160ff1916838001178555620002a2565b82800160010185558215620002a2579182015b82811115620002a157825182559160200191906001019062000284565b5b509050620002b191906200033c565b5090565b828054600181600116156101000203166002900490600052602060002090601f016020900481019282601f10620002f857805160ff191683800117855562000329565b8280016001018555821562000329579182015b82811115620003285782518255916020019190600101906200030b565b5b5090506200033891906200033c565b5090565b6200036191905b808211156200035d57600081600090555060010162000343565b5090565b90565b600062000372825162000621565b905092915050565b600062000388825162000635565b905092915050565b600082601f8301121515620003a457600080fd5b8151620003bb620003b582620005d4565b620005a6565b91508082526020830160208301858383011115620003d857600080fd5b620003e58382846200063f565b50505092915050565b6000806000806000806000806000806101408b8d0312156200040f57600080fd5b60008b015167ffffffffffffffff8111156200042a57600080fd5b620004388d828e0162000390565b9a505060208b015167ffffffffffffffff8111156200045657600080fd5b620004648d828e0162000390565b99505060408b015167ffffffffffffffff8111156200048257600080fd5b620004908d828e0162000390565b98505060608b015167ffffffffffffffff811115620004ae57600080fd5b620004bc8d828e0162000390565b9750506080620004cf8d828e016200037a565b96505060a08b015167ffffffffffffffff811115620004ed57600080fd5b620004fb8d828e0162000390565b95505060c08b015167ffffffffffffffff8111156200051957600080fd5b620005278d828e0162000390565b94505060e08b015167ffffffffffffffff8111156200054557600080fd5b620005538d828e0162000390565b9350506101008b015167ffffffffffffffff8111156200057257600080fd5b620005808d828e0162000390565b925050610120620005948d828e0162000364565b9150509295989b9194979a5092959850565b6000604051905081810181811067ffffffffffffffff82111715620005ca57600080fd5b8060405250919050565b600067ffffffffffffffff821115620005ec57600080fd5b601f19601f8301169050602081019050919050565b600073ffffffffffffffffffffffffffffffffffffffff82169050919050565b60006200062e8262000601565b9050919050565b6000819050919050565b60005b838110156200065f57808201518184015260208101905062000642565b838111156200066f576000848401525b50505050565b612aae80620006856000396000f3fe608060405234801561001057600080fd5b50600436106100b0576000357c0100000000000000000000000000000000000000000000000000000000900480634344b743116100835780634344b743146101275780637cf1e445146101485780637ec35b0a14610164578063c42b465414610194578063d7065558146101c4576100b0565b806305087bf0146100b557806313454beb146100d1578063224b610b146100ed578063316b46191461010b575b600080fd5b6100cf60048036036100ca91908101906122db565b6101f4565b005b6100eb60048036036100e69190810190612347565b610330565b005b6100f56106c5565b6040516101029190612910565b60405180910390f35b6101256004803603610120919081019061240a565b610763565b005b61012f6108b0565b60405161013f94939291906128b6565b60405180910390f35b610162600480360361015d919081019061221d565b611b06565b005b61017e6004803603610179919081019061229a565b611c58565b60405161018b919061289b565b60405180910390f35b6101ae60048036036101a991908101906121cb565b611d62565b6040516101bb919061289b565b60405180910390f35b6101de60048036036101d991908101906121cb565b611d82565b6040516101eb919061289b565b60405180910390f35b601560405160200180828054600181600116156101000203166002900480156102545780601f10610232576101008083540402835291820191610254565b820191906000526020600020905b815481529060010190602001808311610240575b505091505060405160208183030381529060405280519060200120816040516020018082805190602001908083835b6020831015156102a85780518252602082019150602081019050602083039250610283565b6001836020036101000a03801982511681845116808217855250505050505090500191505060405160208183030381529060405280519060200120141561032c576010600301829080600181540180825580915050906001820390600052602060002001600090919290919091509080519060200190610329929190611f5f565b50505b5050565b61033933611d82565b156106bf5760405160200180600001905060405160208183030381529060405280519060200120846040516020018082805190602001908083835b6020831015156103995780518252602082019150602081019050602083039250610374565b6001836020036101000a0380198251168184511680821785525050505050509050019150506040516020818303038152906040528051906020012014151561041e57601060000184908060018154018082558091505090600182039060005260206000200160009091929091909150908051906020019061041b929190611f5f565b50505b60405160200180600001905060405160208183030381529060405280519060200120836040516020018082805190602001908083835b6020831015156104795780518252602082019150602081019050602083039250610454565b6001836020036101000a038019825116818451168082178552505050505050905001915050604051602081830303815290604052805190602001201415156104fe5760106001018390806001815401808255809150509060018203906000526020600020016000909192909190915090805190602001906104fb929190611f5f565b50505b60405160200180600001905060405160208183030381529060405280519060200120826040516020018082805190602001908083835b6020831015156105595780518252602082019150602081019050602083039250610534565b6001836020036101000a038019825116818451168082178552505050505050905001915050604051602081830303815290604052805190602001201415156105de5760106002018290806001815401808255809150509060018203906000526020600020016000909192909190915090805190602001906105db929190611f5f565b50505b60405160200180600001905060405160208183030381529060405280519060200120816040516020018082805190602001908083835b6020831015156106395780518252602082019150602081019050602083039250610614565b6001836020036101000a038019825116818451168082178552505050505050905001915050604051602081830303815290604052805190602001201415156106be5760106003018190806001815401808255809150509060018203906000526020600020016000909192909190915090805190602001906106bb929190611f5f565b50505b5b50505050565b60158054600181600116156101000203166002900480601f01602080910402602001604051908101604052809291908181526020018280546001816001161561010002031660029004801561075b5780601f106107305761010080835404028352916020019161075b565b820191906000526020600020905b81548152906001019060200180831161073e57829003601f168201915b505050505081565b61076c33611d82565b156108a657610779611fdf565b610100604051908101604052808a815260200189815260200188815260200187815260200186815260200185815260200184815260200183815250905080600860008201518160000190805190602001906107d5929190612025565b5060208201518160010190805190602001906107f2929190612025565b50604082015181600201908051906020019061080f929190612025565b50606082015181600301908051906020019061082c929190612025565b506080820151816004019080519060200190610849929190612025565b5060a0820151816005019080519060200190610866929190612025565b5060c0820151816006019080519060200190610883929190612025565b5060e08201518160070190805190602001906108a0929190612025565b50905050505b5050505050505050565b60006108ba6120a5565b6108c2611fdf565b6108ca6120eb565b6108d333611d82565b15611648576001600060086010826101006040519081016040529081600082018054600181600116156101000203166002900480601f0160208091040260200160405190810160405280929190818152602001828054600181600116156101000203166002900480156109875780601f1061095c57610100808354040283529160200191610987565b820191906000526020600020905b81548152906001019060200180831161096a57829003601f168201915b50505050508152602001600182018054600181600116156101000203166002900480601f016020809104026020016040519081016040528092919081815260200182805460018160011615610100020316600290048015610a295780601f106109fe57610100808354040283529160200191610a29565b820191906000526020600020905b815481529060010190602001808311610a0c57829003601f168201915b50505050508152602001600282018054600181600116156101000203166002900480601f016020809104026020016040519081016040528092919081815260200182805460018160011615610100020316600290048015610acb5780601f10610aa057610100808354040283529160200191610acb565b820191906000526020600020905b815481529060010190602001808311610aae57829003601f168201915b50505050508152602001600382018054600181600116156101000203166002900480601f016020809104026020016040519081016040528092919081815260200182805460018160011615610100020316600290048015610b6d5780601f10610b4257610100808354040283529160200191610b6d565b820191906000526020600020905b815481529060010190602001808311610b5057829003601f168201915b5050505050815260200160048201548152602001600582018054600181600116156101000203166002900480601f016020809104026020016040519081016040528092919081815260200182805460018160011615610100020316600290048015610c195780601f10610bee57610100808354040283529160200191610c19565b820191906000526020600020905b815481529060010190602001808311610bfc57829003601f168201915b50505050508152602001600682018054600181600116156101000203166002900480601f016020809104026020016040519081016040528092919081815260200182805460018160011615610100020316600290048015610cbb5780601f10610c9057610100808354040283529160200191610cbb565b820191906000526020600020905b815481529060010190602001808311610c9e57829003601f168201915b50505050508152602001600782018054600181600116156101000203166002900480601f016020809104026020016040519081016040528092919081815260200182805460018160011615610100020316600290048015610d5d5780601f10610d3257610100808354040283529160200191610d5d565b820191906000526020600020905b815481529060010190602001808311610d4057829003601f168201915b5050505050815250509250816101006040519081016040529081600082018054600181600116156101000203166002900480601f016020809104026020016040519081016040528092919081815260200182805460018160011615610100020316600290048015610e0f5780601f10610de457610100808354040283529160200191610e0f565b820191906000526020600020905b815481529060010190602001808311610df257829003601f168201915b50505050508152602001600182018054600181600116156101000203166002900480601f016020809104026020016040519081016040528092919081815260200182805460018160011615610100020316600290048015610eb15780601f10610e8657610100808354040283529160200191610eb1565b820191906000526020600020905b815481529060010190602001808311610e9457829003601f168201915b50505050508152602001600282018054600181600116156101000203166002900480601f016020809104026020016040519081016040528092919081815260200182805460018160011615610100020316600290048015610f535780601f10610f2857610100808354040283529160200191610f53565b820191906000526020600020905b815481529060010190602001808311610f3657829003601f168201915b50505050508152602001600382018054600181600116156101000203166002900480601f016020809104026020016040519081016040528092919081815260200182805460018160011615610100020316600290048015610ff55780601f10610fca57610100808354040283529160200191610ff5565b820191906000526020600020905b815481529060010190602001808311610fd857829003601f168201915b50505050508152602001600482018054600181600116156101000203166002900480601f0160208091040260200160405190810160405280929190818152602001828054600181600116156101000203166002900480156110975780601f1061106c57610100808354040283529160200191611097565b820191906000526020600020905b81548152906001019060200180831161107a57829003601f168201915b50505050508152602001600582018054600181600116156101000203166002900480601f0160208091040260200160405190810160405280929190818152602001828054600181600116156101000203166002900480156111395780601f1061110e57610100808354040283529160200191611139565b820191906000526020600020905b81548152906001019060200180831161111c57829003601f168201915b50505050508152602001600682018054600181600116156101000203166002900480601f0160208091040260200160405190810160405280929190818152602001828054600181600116156101000203166002900480156111db5780601f106111b0576101008083540402835291602001916111db565b820191906000526020600020905b8154815290600101906020018083116111be57829003601f168201915b50505050508152602001600782018054600181600116156101000203166002900480601f01602080910402602001604051908101604052809291908181526020018280546001816001161561010002031660029004801561127d5780601f106112525761010080835404028352916020019161127d565b820191906000526020600020905b81548152906001019060200180831161126057829003601f168201915b5050505050815250509150806080604051908101604052908160008201805480602002602001604051908101604052809291908181526020016000905b82821015611376578382906000526020600020018054600181600116156101000203166002900480601f0160208091040260200160405190810160405280929190818152602001828054600181600116156101000203166002900480156113625780601f1061133757610100808354040283529160200191611362565b820191906000526020600020905b81548152906001019060200180831161134557829003601f168201915b5050505050815260200190600101906112ba565b50505050815260200160018201805480602002602001604051908101604052809291908181526020016000905b8282101561145f578382906000526020600020018054600181600116156101000203166002900480601f01602080910402602001604051908101604052809291908181526020018280546001816001161561010002031660029004801561144b5780601f106114205761010080835404028352916020019161144b565b820191906000526020600020905b81548152906001019060200180831161142e57829003601f168201915b5050505050815260200190600101906113a3565b50505050815260200160028201805480602002602001604051908101604052809291908181526020016000905b82821015611548578382906000526020600020018054600181600116156101000203166002900480601f0160208091040260200160405190810160405280929190818152602001828054600181600116156101000203166002900480156115345780601f1061150957610100808354040283529160200191611534565b820191906000526020600020905b81548152906001019060200180831161151757829003601f168201915b50505050508152602001906001019061148c565b50505050815260200160038201805480602002602001604051908101604052809291908181526020016000905b82821015611631578382906000526020600020018054600181600116156101000203166002900480601f01602080910402602001604051908101604052809291908181526020018280546001816001161561010002031660029004801561161d5780601f106115f25761010080835404028352916020019161161d565b820191906000526020600020905b81548152906001019060200180831161160057829003601f168201915b505050505081526020019060010190611575565b505050508152505090509350935093509350611b00565b6116506120a5565b610100604051908101604052806040805190810160405280600381526020017f787878000000000000000000000000000000000000000000000000000000000081525081526020016040805190810160405280600381526020017f787878000000000000000000000000000000000000000000000000000000000081525081526020016040805190810160405280600381526020017f787878000000000000000000000000000000000000000000000000000000000081525081526020016040805190810160405280600381526020017f787878000000000000000000000000000000000000000000000000000000000081525081526020016103e781526020016040805190810160405280600381526020017f787878000000000000000000000000000000000000000000000000000000000081525081526020016040805190810160405280600381526020017f787878000000000000000000000000000000000000000000000000000000000081525081526020016040805190810160405280600381526020017f7878780000000000000000000000000000000000000000000000000000000000815250815250905061180a611fdf565b610100604051908101604052806040805190810160405280600381526020017f787878000000000000000000000000000000000000000000000000000000000081525081526020016040805190810160405280600381526020017f787878000000000000000000000000000000000000000000000000000000000081525081526020016040805190810160405280600381526020017f787878000000000000000000000000000000000000000000000000000000000081525081526020016040805190810160405280600381526020017f787878000000000000000000000000000000000000000000000000000000000081525081526020016040805190810160405280600381526020017f787878000000000000000000000000000000000000000000000000000000000081525081526020016040805190810160405280600381526020017f787878000000000000000000000000000000000000000000000000000000000081525081526020016040805190810160405280600381526020017f787878000000000000000000000000000000000000000000000000000000000081525081526020016040805190810160405280600381526020017f787878000000000000000000000000000000000000000000000000000000000081525081525090506119f76120eb565b6080604051908101604052806001604051908082528060200260200182016040528015611a3857816020015b6060815260200190600190039081611a235790505b5081526020016001604051908082528060200260200182016040528015611a7357816020015b6060815260200190600190039081611a5e5790505b5081526020016001604051908082528060200260200182016040528015611aae57816020015b6060815260200190600190039081611a995790505b5081526020016001604051908082528060200260200182016040528015611ae957816020015b6060815260200190600190039081611ad45790505b508152509050600083838396509650965096505050505b90919293565b60156040516020018082805460018160011615610100020316600290048015611b665780601f10611b44576101008083540402835291820191611b66565b820191906000526020600020905b815481529060010190602001808311611b52575b505091505060405160208183030381529060405280519060200120816040516020018082805190602001908083835b602083101515611bba5780518252602082019150602081019050602083039250611b95565b6001836020036101000a038019825116818451168082178552505050505050905001915050604051602081830303815290604052805190602001201415611c54576001601460008473ffffffffffffffffffffffffffffffffffffffff1673ffffffffffffffffffffffffffffffffffffffff16815260200190815260200160002060006101000a81548160ff0219169083151502179055505b5050565b600060156040516020018082805460018160011615610100020316600290048015611cba5780601f10611c98576101008083540402835291820191611cba565b820191906000526020600020905b815481529060010190602001808311611ca6575b505091505060405160208183030381529060405280519060200120826040516020018082805190602001908083835b602083101515611d0e5780518252602082019150602081019050602083039250611ce9565b6001836020036101000a038019825116818451168082178552505050505050905001915050604051602081830303815290604052805190602001201415611d585760019050611d5d565b600090505b919050565b60146020528060005260406000206000915054906101000a900460ff1681565b60008073d8693bafba8a45be8dfd090fa032ab4e5e8a504c905060008173ffffffffffffffffffffffffffffffffffffffff1663ff76a7396040518163ffffffff167c010000000000000000000000000000000000000000000000000000000002815260040160206040518083038186803b158015611e0057600080fd5b505afa158015611e14573d6000803e3d6000fd5b505050506040513d601f19601f82011682018060405250611e3891908101906121f4565b90508073ffffffffffffffffffffffffffffffffffffffff1663996440c6856040518263ffffffff167c0100000000000000000000000000000000000000000000000000000000028152600401611e8f9190612880565b60206040518083038186803b158015611ea757600080fd5b505afa158015611ebb573d6000803e3d6000fd5b505050506040513d601f19601f82011682018060405250611edf9190810190612271565b15611f535760011515601460008673ffffffffffffffffffffffffffffffffffffffff1673ffffffffffffffffffffffffffffffffffffffff16815260200190815260200160002060009054906101000a900460ff1615151415611f4857600192505050611f5a565b600092505050611f5a565b6000925050505b919050565b828054600181600116156101000203166002900490600052602060002090601f016020900481019282601f10611fa057805160ff1916838001178555611fce565b82800160010185558215611fce579182015b82811115611fcd578251825591602001919060010190611fb2565b5b509050611fdb9190612114565b5090565b6101006040519081016040528060608152602001606081526020016060815260200160608152602001606081526020016060815260200160608152602001606081525090565b828054600181600116156101000203166002900490600052602060002090601f016020900481019282601f1061206657805160ff1916838001178555612094565b82800160010185558215612094579182015b82811115612093578251825591602001919060010190612078565b5b5090506120a19190612114565b5090565b6101006040519081016040528060608152602001606081526020016060815260200160608152602001600081526020016060815260200160608152602001606081525090565b608060405190810160405280606081526020016060815260200160608152602001606081525090565b61213691905b8082111561213257600081600090555060010161211a565b5090565b90565b60006121458235612a03565b905092915050565b60006121598251612a03565b905092915050565b600061216d8251612a15565b905092915050565b600082601f830112151561218857600080fd5b813561219b6121968261295f565b612932565b915080825260208301602083018583830111156121b757600080fd5b6121c2838284612a21565b50505092915050565b6000602082840312156121dd57600080fd5b60006121eb84828501612139565b91505092915050565b60006020828403121561220657600080fd5b60006122148482850161214d565b91505092915050565b6000806040838503121561223057600080fd5b600061223e85828601612139565b925050602083013567ffffffffffffffff81111561225b57600080fd5b61226785828601612175565b9150509250929050565b60006020828403121561228357600080fd5b600061229184828501612161565b91505092915050565b6000602082840312156122ac57600080fd5b600082013567ffffffffffffffff8111156122c657600080fd5b6122d284828501612175565b91505092915050565b600080604083850312156122ee57600080fd5b600083013567ffffffffffffffff81111561230857600080fd5b61231485828601612175565b925050602083013567ffffffffffffffff81111561233157600080fd5b61233d85828601612175565b9150509250929050565b6000806000806080858703121561235d57600080fd5b600085013567ffffffffffffffff81111561237757600080fd5b61238387828801612175565b945050602085013567ffffffffffffffff8111156123a057600080fd5b6123ac87828801612175565b935050604085013567ffffffffffffffff8111156123c957600080fd5b6123d587828801612175565b925050606085013567ffffffffffffffff8111156123f257600080fd5b6123fe87828801612175565b91505092959194509250565b600080600080600080600080610100898b03121561242757600080fd5b600089013567ffffffffffffffff81111561244157600080fd5b61244d8b828c01612175565b985050602089013567ffffffffffffffff81111561246a57600080fd5b6124768b828c01612175565b975050604089013567ffffffffffffffff81111561249357600080fd5b61249f8b828c01612175565b965050606089013567ffffffffffffffff8111156124bc57600080fd5b6124c88b828c01612175565b955050608089013567ffffffffffffffff8111156124e557600080fd5b6124f18b828c01612175565b94505060a089013567ffffffffffffffff81111561250e57600080fd5b61251a8b828c01612175565b93505060c089013567ffffffffffffffff81111561253757600080fd5b6125438b828c01612175565b92505060e089013567ffffffffffffffff81111561256057600080fd5b61256c8b828c01612175565b9150509295985092959890939650565b612585816129bb565b82525050565b600061259682612998565b808452602084019350836020820285016125af8561298b565b60005b848110156125e85783830388526125ca838351612617565b92506125d5826129ae565b91506020880197506001810190506125b2565b508196508694505050505092915050565b612602816129cd565b82525050565b612611816129d9565b82525050565b6000612622826129a3565b808452612636816020860160208601612a30565b61263f81612a63565b602085010191505092915050565b6000608083016000830151848203600086015261266a828261258b565b91505060208301518482036020860152612684828261258b565b9150506040830151848203604086015261269e828261258b565b915050606083015184820360608601526126b8828261258b565b9150508091505092915050565b60006101008301600083015184820360008601526126e38282612617565b915050602083015184820360208601526126fd8282612617565b915050604083015184820360408601526127178282612617565b915050606083015184820360608601526127318282612617565b91505060808301516127466080860182612608565b5060a083015184820360a086015261275e8282612617565b91505060c083015184820360c08601526127788282612617565b91505060e083015184820360e08601526127928282612617565b9150508091505092915050565b60006101008301600083015184820360008601526127bd8282612617565b915050602083015184820360208601526127d78282612617565b915050604083015184820360408601526127f18282612617565b9150506060830151848203606086015261280b8282612617565b915050608083015184820360808601526128258282612617565b91505060a083015184820360a086015261283f8282612617565b91505060c083015184820360c08601526128598282612617565b91505060e083015184820360e08601526128738282612617565b9150508091505092915050565b6000602082019050612895600083018461257c565b92915050565b60006020820190506128b060008301846125f9565b92915050565b60006080820190506128cb60008301876125f9565b81810360208301526128dd81866126c5565b905081810360408301526128f1818561279f565b90508181036060830152612905818461264d565b905095945050505050565b6000602082019050818103600083015261292a8184612617565b905092915050565b6000604051905081810181811067ffffffffffffffff8211171561295557600080fd5b8060405250919050565b600067ffffffffffffffff82111561297657600080fd5b601f19601f8301169050602081019050919050565b6000602082019050919050565b600081519050919050565b600081519050919050565b6000602082019050919050565b60006129c6826129e3565b9050919050565b60008115159050919050565b6000819050919050565b600073ffffffffffffffffffffffffffffffffffffffff82169050919050565b6000612a0e826129e3565b9050919050565b60008115159050919050565b82818337600083830152505050565b60005b83811015612a4e578082015181840152602081019050612a33565b83811115612a5d576000848401525b50505050565b6000601f19601f830116905091905056fea265627a7a72305820c6da462fb8f96f727940f4dc269ba1d4e88b3774ff518b3f6ce4b6e7f19d6e376c6578706572696d656e74616cf50037",
      "opcodes": "PUSH1 0x80 PUSH1 0x40 MSTORE CALLVALUE DUP1 ISZERO PUSH3 0x11 JUMPI PUSH1 0x0 DUP1 REVERT JUMPDEST POP PUSH1 0x40 MLOAD PUSH3 0x3133 CODESIZE SUB DUP1 PUSH3 0x3133 DUP4 CODECOPY DUP2 ADD DUP1 PUSH1 0x40 MSTORE PUSH3 0x37 SWAP2 SWAP1 DUP2 ADD SWAP1 PUSH3 0x3EE JUMP JUMPDEST PUSH3 0x41 PUSH3 0x1E8 JUMP JUMPDEST PUSH2 0x100 PUSH1 0x40 MLOAD SWAP1 DUP2 ADD PUSH1 0x40 MSTORE DUP1 DUP13 DUP2 MSTORE PUSH1 0x20 ADD DUP12 DUP2 MSTORE PUSH1 0x20 ADD DUP11 DUP2 MSTORE PUSH1 0x20 ADD DUP10 DUP2 MSTORE PUSH1 0x20 ADD DUP9 DUP2 MSTORE PUSH1 0x20 ADD DUP8 DUP2 MSTORE PUSH1 0x20 ADD DUP7 DUP2 MSTORE PUSH1 0x20 ADD DUP6 DUP2 MSTORE POP SWAP1 POP DUP1 PUSH1 0x0 DUP1 DUP3 ADD MLOAD DUP2 PUSH1 0x0 ADD SWAP1 DUP1 MLOAD SWAP1 PUSH1 0x20 ADD SWAP1 PUSH3 0x9E SWAP3 SWAP2 SWAP1 PUSH3 0x22E JUMP JUMPDEST POP PUSH1 0x20 DUP3 ADD MLOAD DUP2 PUSH1 0x1 ADD SWAP1 DUP1 MLOAD SWAP1 PUSH1 0x20 ADD SWAP1 PUSH3 0xBD SWAP3 SWAP2 SWAP1 PUSH3 0x22E JUMP JUMPDEST POP PUSH1 0x40 DUP3 ADD MLOAD DUP2 PUSH1 0x2 ADD SWAP1 DUP1 MLOAD SWAP1 PUSH1 0x20 ADD SWAP1 PUSH3 0xDC SWAP3 SWAP2 SWAP1 PUSH3 0x22E JUMP JUMPDEST POP PUSH1 0x60 DUP3 ADD MLOAD DUP2 PUSH1 0x3 ADD SWAP1 DUP1 MLOAD SWAP1 PUSH1 0x20 ADD SWAP1 PUSH3 0xFB SWAP3 SWAP2 SWAP1 PUSH3 0x22E JUMP JUMPDEST POP PUSH1 0x80 DUP3 ADD MLOAD DUP2 PUSH1 0x4 ADD SSTORE PUSH1 0xA0 DUP3 ADD MLOAD DUP2 PUSH1 0x5 ADD SWAP1 DUP1 MLOAD SWAP1 PUSH1 0x20 ADD SWAP1 PUSH3 0x124 SWAP3 SWAP2 SWAP1 PUSH3 0x22E JUMP JUMPDEST POP PUSH1 0xC0 DUP3 ADD MLOAD DUP2 PUSH1 0x6 ADD SWAP1 DUP1 MLOAD SWAP1 PUSH1 0x20 ADD SWAP1 PUSH3 0x143 SWAP3 SWAP2 SWAP1 PUSH3 0x22E JUMP JUMPDEST POP PUSH1 0xE0 DUP3 ADD MLOAD DUP2 PUSH1 0x7 ADD SWAP1 DUP1 MLOAD SWAP1 PUSH1 0x20 ADD SWAP1 PUSH3 0x162 SWAP3 SWAP2 SWAP1 PUSH3 0x22E JUMP JUMPDEST POP SWAP1 POP POP DUP3 PUSH1 0x15 SWAP1 DUP1 MLOAD SWAP1 PUSH1 0x20 ADD SWAP1 PUSH3 0x17E SWAP3 SWAP2 SWAP1 PUSH3 0x2B5 JUMP JUMPDEST POP PUSH1 0x1 PUSH1 0x14 PUSH1 0x0 DUP5 PUSH20 0xFFFFFFFFFFFFFFFFFFFFFFFFFFFFFFFFFFFFFFFF AND PUSH20 0xFFFFFFFFFFFFFFFFFFFFFFFFFFFFFFFFFFFFFFFF AND DUP2 MSTORE PUSH1 0x20 ADD SWAP1 DUP2 MSTORE PUSH1 0x20 ADD PUSH1 0x0 KECCAK256 PUSH1 0x0 PUSH2 0x100 EXP DUP2 SLOAD DUP2 PUSH1 0xFF MUL NOT AND SWAP1 DUP4 ISZERO ISZERO MUL OR SWAP1 SSTORE POP POP POP POP POP POP POP POP POP POP POP POP PUSH3 0x675 JUMP JUMPDEST PUSH2 0x100 PUSH1 0x40 MLOAD SWAP1 DUP2 ADD PUSH1 0x40 MSTORE DUP1 PUSH1 0x60 DUP2 MSTORE PUSH1 0x20 ADD PUSH1 0x60 DUP2 MSTORE PUSH1 0x20 ADD PUSH1 0x60 DUP2 MSTORE PUSH1 0x20 ADD PUSH1 0x60 DUP2 MSTORE PUSH1 0x20 ADD PUSH1 0x0 DUP2 MSTORE PUSH1 0x20 ADD PUSH1 0x60 DUP2 MSTORE PUSH1 0x20 ADD PUSH1 0x60 DUP2 MSTORE PUSH1 0x20 ADD PUSH1 0x60 DUP2 MSTORE POP SWAP1 JUMP JUMPDEST DUP3 DUP1 SLOAD PUSH1 0x1 DUP2 PUSH1 0x1 AND ISZERO PUSH2 0x100 MUL SUB AND PUSH1 0x2 SWAP1 DIV SWAP1 PUSH1 0x0 MSTORE PUSH1 0x20 PUSH1 0x0 KECCAK256 SWAP1 PUSH1 0x1F ADD PUSH1 0x20 SWAP1 DIV DUP2 ADD SWAP3 DUP3 PUSH1 0x1F LT PUSH3 0x271 JUMPI DUP1 MLOAD PUSH1 0xFF NOT AND DUP4 DUP1 ADD OR DUP6 SSTORE PUSH3 0x2A2 JUMP JUMPDEST DUP3 DUP1 ADD PUSH1 0x1 ADD DUP6 SSTORE DUP3 ISZERO PUSH3 0x2A2 JUMPI SWAP2 DUP3 ADD JUMPDEST DUP3 DUP2 GT ISZERO PUSH3 0x2A1 JUMPI DUP3 MLOAD DUP3 SSTORE SWAP2 PUSH1 0x20 ADD SWAP2 SWAP1 PUSH1 0x1 ADD SWAP1 PUSH3 0x284 JUMP JUMPDEST JUMPDEST POP SWAP1 POP PUSH3 0x2B1 SWAP2 SWAP1 PUSH3 0x33C JUMP JUMPDEST POP SWAP1 JUMP JUMPDEST DUP3 DUP1 SLOAD PUSH1 0x1 DUP2 PUSH1 0x1 AND ISZERO PUSH2 0x100 MUL SUB AND PUSH1 0x2 SWAP1 DIV SWAP1 PUSH1 0x0 MSTORE PUSH1 0x20 PUSH1 0x0 KECCAK256 SWAP1 PUSH1 0x1F ADD PUSH1 0x20 SWAP1 DIV DUP2 ADD SWAP3 DUP3 PUSH1 0x1F LT PUSH3 0x2F8 JUMPI DUP1 MLOAD PUSH1 0xFF NOT AND DUP4 DUP1 ADD OR DUP6 SSTORE PUSH3 0x329 JUMP JUMPDEST DUP3 DUP1 ADD PUSH1 0x1 ADD DUP6 SSTORE DUP3 ISZERO PUSH3 0x329 JUMPI SWAP2 DUP3 ADD JUMPDEST DUP3 DUP2 GT ISZERO PUSH3 0x328 JUMPI DUP3 MLOAD DUP3 SSTORE SWAP2 PUSH1 0x20 ADD SWAP2 SWAP1 PUSH1 0x1 ADD SWAP1 PUSH3 0x30B JUMP JUMPDEST JUMPDEST POP SWAP1 POP PUSH3 0x338 SWAP2 SWAP1 PUSH3 0x33C JUMP JUMPDEST POP SWAP1 JUMP JUMPDEST PUSH3 0x361 SWAP2 SWAP1 JUMPDEST DUP1 DUP3 GT ISZERO PUSH3 0x35D JUMPI PUSH1 0x0 DUP2 PUSH1 0x0 SWAP1 SSTORE POP PUSH1 0x1 ADD PUSH3 0x343 JUMP JUMPDEST POP SWAP1 JUMP JUMPDEST SWAP1 JUMP JUMPDEST PUSH1 0x0 PUSH3 0x372 DUP3 MLOAD PUSH3 0x621 JUMP JUMPDEST SWAP1 POP SWAP3 SWAP2 POP POP JUMP JUMPDEST PUSH1 0x0 PUSH3 0x388 DUP3 MLOAD PUSH3 0x635 JUMP JUMPDEST SWAP1 POP SWAP3 SWAP2 POP POP JUMP JUMPDEST PUSH1 0x0 DUP3 PUSH1 0x1F DUP4 ADD SLT ISZERO ISZERO PUSH3 0x3A4 JUMPI PUSH1 0x0 DUP1 REVERT JUMPDEST DUP2 MLOAD PUSH3 0x3BB PUSH3 0x3B5 DUP3 PUSH3 0x5D4 JUMP JUMPDEST PUSH3 0x5A6 JUMP JUMPDEST SWAP2 POP DUP1 DUP3 MSTORE PUSH1 0x20 DUP4 ADD PUSH1 0x20 DUP4 ADD DUP6 DUP4 DUP4 ADD GT ISZERO PUSH3 0x3D8 JUMPI PUSH1 0x0 DUP1 REVERT JUMPDEST PUSH3 0x3E5 DUP4 DUP3 DUP5 PUSH3 0x63F JUMP JUMPDEST POP POP POP SWAP3 SWAP2 POP POP JUMP JUMPDEST PUSH1 0x0 DUP1 PUSH1 0x0 DUP1 PUSH1 0x0 DUP1 PUSH1 0x0 DUP1 PUSH1 0x0 DUP1 PUSH2 0x140 DUP12 DUP14 SUB SLT ISZERO PUSH3 0x40F JUMPI PUSH1 0x0 DUP1 REVERT JUMPDEST PUSH1 0x0 DUP12 ADD MLOAD PUSH8 0xFFFFFFFFFFFFFFFF DUP2 GT ISZERO PUSH3 0x42A JUMPI PUSH1 0x0 DUP1 REVERT JUMPDEST PUSH3 0x438 DUP14 DUP3 DUP15 ADD PUSH3 0x390 JUMP JUMPDEST SWAP11 POP POP PUSH1 0x20 DUP12 ADD MLOAD PUSH8 0xFFFFFFFFFFFFFFFF DUP2 GT ISZERO PUSH3 0x456 JUMPI PUSH1 0x0 DUP1 REVERT JUMPDEST PUSH3 0x464 DUP14 DUP3 DUP15 ADD PUSH3 0x390 JUMP JUMPDEST SWAP10 POP POP PUSH1 0x40 DUP12 ADD MLOAD PUSH8 0xFFFFFFFFFFFFFFFF DUP2 GT ISZERO PUSH3 0x482 JUMPI PUSH1 0x0 DUP1 REVERT JUMPDEST PUSH3 0x490 DUP14 DUP3 DUP15 ADD PUSH3 0x390 JUMP JUMPDEST SWAP9 POP POP PUSH1 0x60 DUP12 ADD MLOAD PUSH8 0xFFFFFFFFFFFFFFFF DUP2 GT ISZERO PUSH3 0x4AE JUMPI PUSH1 0x0 DUP1 REVERT JUMPDEST PUSH3 0x4BC DUP14 DUP3 DUP15 ADD PUSH3 0x390 JUMP JUMPDEST SWAP8 POP POP PUSH1 0x80 PUSH3 0x4CF DUP14 DUP3 DUP15 ADD PUSH3 0x37A JUMP JUMPDEST SWAP7 POP POP PUSH1 0xA0 DUP12 ADD MLOAD PUSH8 0xFFFFFFFFFFFFFFFF DUP2 GT ISZERO PUSH3 0x4ED JUMPI PUSH1 0x0 DUP1 REVERT JUMPDEST PUSH3 0x4FB DUP14 DUP3 DUP15 ADD PUSH3 0x390 JUMP JUMPDEST SWAP6 POP POP PUSH1 0xC0 DUP12 ADD MLOAD PUSH8 0xFFFFFFFFFFFFFFFF DUP2 GT ISZERO PUSH3 0x519 JUMPI PUSH1 0x0 DUP1 REVERT JUMPDEST PUSH3 0x527 DUP14 DUP3 DUP15 ADD PUSH3 0x390 JUMP JUMPDEST SWAP5 POP POP PUSH1 0xE0 DUP12 ADD MLOAD PUSH8 0xFFFFFFFFFFFFFFFF DUP2 GT ISZERO PUSH3 0x545 JUMPI PUSH1 0x0 DUP1 REVERT JUMPDEST PUSH3 0x553 DUP14 DUP3 DUP15 ADD PUSH3 0x390 JUMP JUMPDEST SWAP4 POP POP PUSH2 0x100 DUP12 ADD MLOAD PUSH8 0xFFFFFFFFFFFFFFFF DUP2 GT ISZERO PUSH3 0x572 JUMPI PUSH1 0x0 DUP1 REVERT JUMPDEST PUSH3 0x580 DUP14 DUP3 DUP15 ADD PUSH3 0x390 JUMP JUMPDEST SWAP3 POP POP PUSH2 0x120 PUSH3 0x594 DUP14 DUP3 DUP15 ADD PUSH3 0x364 JUMP JUMPDEST SWAP2 POP POP SWAP3 SWAP6 SWAP9 SWAP12 SWAP2 SWAP5 SWAP8 SWAP11 POP SWAP3 SWAP6 SWAP9 POP JUMP JUMPDEST PUSH1 0x0 PUSH1 0x40 MLOAD SWAP1 POP DUP2 DUP2 ADD DUP2 DUP2 LT PUSH8 0xFFFFFFFFFFFFFFFF DUP3 GT OR ISZERO PUSH3 0x5CA JUMPI PUSH1 0x0 DUP1 REVERT JUMPDEST DUP1 PUSH1 0x40 MSTORE POP SWAP2 SWAP1 POP JUMP JUMPDEST PUSH1 0x0 PUSH8 0xFFFFFFFFFFFFFFFF DUP3 GT ISZERO PUSH3 0x5EC JUMPI PUSH1 0x0 DUP1 REVERT JUMPDEST PUSH1 0x1F NOT PUSH1 0x1F DUP4 ADD AND SWAP1 POP PUSH1 0x20 DUP2 ADD SWAP1 POP SWAP2 SWAP1 POP JUMP JUMPDEST PUSH1 0x0 PUSH20 0xFFFFFFFFFFFFFFFFFFFFFFFFFFFFFFFFFFFFFFFF DUP3 AND SWAP1 POP SWAP2 SWAP1 POP JUMP JUMPDEST PUSH1 0x0 PUSH3 0x62E DUP3 PUSH3 0x601 JUMP JUMPDEST SWAP1 POP SWAP2 SWAP1 POP JUMP JUMPDEST PUSH1 0x0 DUP2 SWAP1 POP SWAP2 SWAP1 POP JUMP JUMPDEST PUSH1 0x0 JUMPDEST DUP4 DUP2 LT ISZERO PUSH3 0x65F JUMPI DUP1 DUP3 ADD MLOAD DUP2 DUP5 ADD MSTORE PUSH1 0x20 DUP2 ADD SWAP1 POP PUSH3 0x642 JUMP JUMPDEST DUP4 DUP2 GT ISZERO PUSH3 0x66F JUMPI PUSH1 0x0 DUP5 DUP5 ADD MSTORE JUMPDEST POP POP POP POP JUMP JUMPDEST PUSH2 0x2AAE DUP1 PUSH3 0x685 PUSH1 0x0 CODECOPY PUSH1 0x0 RETURN INVALID PUSH1 0x80 PUSH1 0x40 MSTORE CALLVALUE DUP1 ISZERO PUSH2 0x10 JUMPI PUSH1 0x0 DUP1 REVERT JUMPDEST POP PUSH1 0x4 CALLDATASIZE LT PUSH2 0xB0 JUMPI PUSH1 0x0 CALLDATALOAD PUSH29 0x100000000000000000000000000000000000000000000000000000000 SWAP1 DIV DUP1 PUSH4 0x4344B743 GT PUSH2 0x83 JUMPI DUP1 PUSH4 0x4344B743 EQ PUSH2 0x127 JUMPI DUP1 PUSH4 0x7CF1E445 EQ PUSH2 0x148 JUMPI DUP1 PUSH4 0x7EC35B0A EQ PUSH2 0x164 JUMPI DUP1 PUSH4 0xC42B4654 EQ PUSH2 0x194 JUMPI DUP1 PUSH4 0xD7065558 EQ PUSH2 0x1C4 JUMPI PUSH2 0xB0 JUMP JUMPDEST DUP1 PUSH4 0x5087BF0 EQ PUSH2 0xB5 JUMPI DUP1 PUSH4 0x13454BEB EQ PUSH2 0xD1 JUMPI DUP1 PUSH4 0x224B610B EQ PUSH2 0xED JUMPI DUP1 PUSH4 0x316B4619 EQ PUSH2 0x10B JUMPI JUMPDEST PUSH1 0x0 DUP1 REVERT JUMPDEST PUSH2 0xCF PUSH1 0x4 DUP1 CALLDATASIZE SUB PUSH2 0xCA SWAP2 SWAP1 DUP2 ADD SWAP1 PUSH2 0x22DB JUMP JUMPDEST PUSH2 0x1F4 JUMP JUMPDEST STOP JUMPDEST PUSH2 0xEB PUSH1 0x4 DUP1 CALLDATASIZE SUB PUSH2 0xE6 SWAP2 SWAP1 DUP2 ADD SWAP1 PUSH2 0x2347 JUMP JUMPDEST PUSH2 0x330 JUMP JUMPDEST STOP JUMPDEST PUSH2 0xF5 PUSH2 0x6C5 JUMP JUMPDEST PUSH1 0x40 MLOAD PUSH2 0x102 SWAP2 SWAP1 PUSH2 0x2910 JUMP JUMPDEST PUSH1 0x40 MLOAD DUP1 SWAP2 SUB SWAP1 RETURN JUMPDEST PUSH2 0x125 PUSH1 0x4 DUP1 CALLDATASIZE SUB PUSH2 0x120 SWAP2 SWAP1 DUP2 ADD SWAP1 PUSH2 0x240A JUMP JUMPDEST PUSH2 0x763 JUMP JUMPDEST STOP JUMPDEST PUSH2 0x12F PUSH2 0x8B0 JUMP JUMPDEST PUSH1 0x40 MLOAD PUSH2 0x13F SWAP5 SWAP4 SWAP3 SWAP2 SWAP1 PUSH2 0x28B6 JUMP JUMPDEST PUSH1 0x40 MLOAD DUP1 SWAP2 SUB SWAP1 RETURN JUMPDEST PUSH2 0x162 PUSH1 0x4 DUP1 CALLDATASIZE SUB PUSH2 0x15D SWAP2 SWAP1 DUP2 ADD SWAP1 PUSH2 0x221D JUMP JUMPDEST PUSH2 0x1B06 JUMP JUMPDEST STOP JUMPDEST PUSH2 0x17E PUSH1 0x4 DUP1 CALLDATASIZE SUB PUSH2 0x179 SWAP2 SWAP1 DUP2 ADD SWAP1 PUSH2 0x229A JUMP JUMPDEST PUSH2 0x1C58 JUMP JUMPDEST PUSH1 0x40 MLOAD PUSH2 0x18B SWAP2 SWAP1 PUSH2 0x289B JUMP JUMPDEST PUSH1 0x40 MLOAD DUP1 SWAP2 SUB SWAP1 RETURN JUMPDEST PUSH2 0x1AE PUSH1 0x4 DUP1 CALLDATASIZE SUB PUSH2 0x1A9 SWAP2 SWAP1 DUP2 ADD SWAP1 PUSH2 0x21CB JUMP JUMPDEST PUSH2 0x1D62 JUMP JUMPDEST PUSH1 0x40 MLOAD PUSH2 0x1BB SWAP2 SWAP1 PUSH2 0x289B JUMP JUMPDEST PUSH1 0x40 MLOAD DUP1 SWAP2 SUB SWAP1 RETURN JUMPDEST PUSH2 0x1DE PUSH1 0x4 DUP1 CALLDATASIZE SUB PUSH2 0x1D9 SWAP2 SWAP1 DUP2 ADD SWAP1 PUSH2 0x21CB JUMP JUMPDEST PUSH2 0x1D82 JUMP JUMPDEST PUSH1 0x40 MLOAD PUSH2 0x1EB SWAP2 SWAP1 PUSH2 0x289B JUMP JUMPDEST PUSH1 0x40 MLOAD DUP1 SWAP2 SUB SWAP1 RETURN JUMPDEST PUSH1 0x15 PUSH1 0x40 MLOAD PUSH1 0x20 ADD DUP1 DUP3 DUP1 SLOAD PUSH1 0x1 DUP2 PUSH1 0x1 AND ISZERO PUSH2 0x100 MUL SUB AND PUSH1 0x2 SWAP1 DIV DUP1 ISZERO PUSH2 0x254 JUMPI DUP1 PUSH1 0x1F LT PUSH2 0x232 JUMPI PUSH2 0x100 DUP1 DUP4 SLOAD DIV MUL DUP4 MSTORE SWAP2 DUP3 ADD SWAP2 PUSH2 0x254 JUMP JUMPDEST DUP3 ADD SWAP2 SWAP1 PUSH1 0x0 MSTORE PUSH1 0x20 PUSH1 0x0 KECCAK256 SWAP1 JUMPDEST DUP2 SLOAD DUP2 MSTORE SWAP1 PUSH1 0x1 ADD SWAP1 PUSH1 0x20 ADD DUP1 DUP4 GT PUSH2 0x240 JUMPI JUMPDEST POP POP SWAP2 POP POP PUSH1 0x40 MLOAD PUSH1 0x20 DUP2 DUP4 SUB SUB DUP2 MSTORE SWAP1 PUSH1 0x40 MSTORE DUP1 MLOAD SWAP1 PUSH1 0x20 ADD KECCAK256 DUP2 PUSH1 0x40 MLOAD PUSH1 0x20 ADD DUP1 DUP3 DUP1 MLOAD SWAP1 PUSH1 0x20 ADD SWAP1 DUP1 DUP4 DUP4 JUMPDEST PUSH1 0x20 DUP4 LT ISZERO ISZERO PUSH2 0x2A8 JUMPI DUP1 MLOAD DUP3 MSTORE PUSH1 0x20 DUP3 ADD SWAP2 POP PUSH1 0x20 DUP2 ADD SWAP1 POP PUSH1 0x20 DUP4 SUB SWAP3 POP PUSH2 0x283 JUMP JUMPDEST PUSH1 0x1 DUP4 PUSH1 0x20 SUB PUSH2 0x100 EXP SUB DUP1 NOT DUP3 MLOAD AND DUP2 DUP5 MLOAD AND DUP1 DUP3 OR DUP6 MSTORE POP POP POP POP POP POP SWAP1 POP ADD SWAP2 POP POP PUSH1 0x40 MLOAD PUSH1 0x20 DUP2 DUP4 SUB SUB DUP2 MSTORE SWAP1 PUSH1 0x40 MSTORE DUP1 MLOAD SWAP1 PUSH1 0x20 ADD KECCAK256 EQ ISZERO PUSH2 0x32C JUMPI PUSH1 0x10 PUSH1 0x3 ADD DUP3 SWAP1 DUP1 PUSH1 0x1 DUP2 SLOAD ADD DUP1 DUP3 SSTORE DUP1 SWAP2 POP POP SWAP1 PUSH1 0x1 DUP3 SUB SWAP1 PUSH1 0x0 MSTORE PUSH1 0x20 PUSH1 0x0 KECCAK256 ADD PUSH1 0x0 SWAP1 SWAP2 SWAP3 SWAP1 SWAP2 SWAP1 SWAP2 POP SWAP1 DUP1 MLOAD SWAP1 PUSH1 0x20 ADD SWAP1 PUSH2 0x329 SWAP3 SWAP2 SWAP1 PUSH2 0x1F5F JUMP JUMPDEST POP POP JUMPDEST POP POP JUMP JUMPDEST PUSH2 0x339 CALLER PUSH2 0x1D82 JUMP JUMPDEST ISZERO PUSH2 0x6BF JUMPI PUSH1 0x40 MLOAD PUSH1 0x20 ADD DUP1 PUSH1 0x0 ADD SWAP1 POP PUSH1 0x40 MLOAD PUSH1 0x20 DUP2 DUP4 SUB SUB DUP2 MSTORE SWAP1 PUSH1 0x40 MSTORE DUP1 MLOAD SWAP1 PUSH1 0x20 ADD KECCAK256 DUP5 PUSH1 0x40 MLOAD PUSH1 0x20 ADD DUP1 DUP3 DUP1 MLOAD SWAP1 PUSH1 0x20 ADD SWAP1 DUP1 DUP4 DUP4 JUMPDEST PUSH1 0x20 DUP4 LT ISZERO ISZERO PUSH2 0x399 JUMPI DUP1 MLOAD DUP3 MSTORE PUSH1 0x20 DUP3 ADD SWAP2 POP PUSH1 0x20 DUP2 ADD SWAP1 POP PUSH1 0x20 DUP4 SUB SWAP3 POP PUSH2 0x374 JUMP JUMPDEST PUSH1 0x1 DUP4 PUSH1 0x20 SUB PUSH2 0x100 EXP SUB DUP1 NOT DUP3 MLOAD AND DUP2 DUP5 MLOAD AND DUP1 DUP3 OR DUP6 MSTORE POP POP POP POP POP POP SWAP1 POP ADD SWAP2 POP POP PUSH1 0x40 MLOAD PUSH1 0x20 DUP2 DUP4 SUB SUB DUP2 MSTORE SWAP1 PUSH1 0x40 MSTORE DUP1 MLOAD SWAP1 PUSH1 0x20 ADD KECCAK256 EQ ISZERO ISZERO PUSH2 0x41E JUMPI PUSH1 0x10 PUSH1 0x0 ADD DUP5 SWAP1 DUP1 PUSH1 0x1 DUP2 SLOAD ADD DUP1 DUP3 SSTORE DUP1 SWAP2 POP POP SWAP1 PUSH1 0x1 DUP3 SUB SWAP1 PUSH1 0x0 MSTORE PUSH1 0x20 PUSH1 0x0 KECCAK256 ADD PUSH1 0x0 SWAP1 SWAP2 SWAP3 SWAP1 SWAP2 SWAP1 SWAP2 POP SWAP1 DUP1 MLOAD SWAP1 PUSH1 0x20 ADD SWAP1 PUSH2 0x41B SWAP3 SWAP2 SWAP1 PUSH2 0x1F5F JUMP JUMPDEST POP POP JUMPDEST PUSH1 0x40 MLOAD PUSH1 0x20 ADD DUP1 PUSH1 0x0 ADD SWAP1 POP PUSH1 0x40 MLOAD PUSH1 0x20 DUP2 DUP4 SUB SUB DUP2 MSTORE SWAP1 PUSH1 0x40 MSTORE DUP1 MLOAD SWAP1 PUSH1 0x20 ADD KECCAK256 DUP4 PUSH1 0x40 MLOAD PUSH1 0x20 ADD DUP1 DUP3 DUP1 MLOAD SWAP1 PUSH1 0x20 ADD SWAP1 DUP1 DUP4 DUP4 JUMPDEST PUSH1 0x20 DUP4 LT ISZERO ISZERO PUSH2 0x479 JUMPI DUP1 MLOAD DUP3 MSTORE PUSH1 0x20 DUP3 ADD SWAP2 POP PUSH1 0x20 DUP2 ADD SWAP1 POP PUSH1 0x20 DUP4 SUB SWAP3 POP PUSH2 0x454 JUMP JUMPDEST PUSH1 0x1 DUP4 PUSH1 0x20 SUB PUSH2 0x100 EXP SUB DUP1 NOT DUP3 MLOAD AND DUP2 DUP5 MLOAD AND DUP1 DUP3 OR DUP6 MSTORE POP POP POP POP POP POP SWAP1 POP ADD SWAP2 POP POP PUSH1 0x40 MLOAD PUSH1 0x20 DUP2 DUP4 SUB SUB DUP2 MSTORE SWAP1 PUSH1 0x40 MSTORE DUP1 MLOAD SWAP1 PUSH1 0x20 ADD KECCAK256 EQ ISZERO ISZERO PUSH2 0x4FE JUMPI PUSH1 0x10 PUSH1 0x1 ADD DUP4 SWAP1 DUP1 PUSH1 0x1 DUP2 SLOAD ADD DUP1 DUP3 SSTORE DUP1 SWAP2 POP POP SWAP1 PUSH1 0x1 DUP3 SUB SWAP1 PUSH1 0x0 MSTORE PUSH1 0x20 PUSH1 0x0 KECCAK256 ADD PUSH1 0x0 SWAP1 SWAP2 SWAP3 SWAP1 SWAP2 SWAP1 SWAP2 POP SWAP1 DUP1 MLOAD SWAP1 PUSH1 0x20 ADD SWAP1 PUSH2 0x4FB SWAP3 SWAP2 SWAP1 PUSH2 0x1F5F JUMP JUMPDEST POP POP JUMPDEST PUSH1 0x40 MLOAD PUSH1 0x20 ADD DUP1 PUSH1 0x0 ADD SWAP1 POP PUSH1 0x40 MLOAD PUSH1 0x20 DUP2 DUP4 SUB SUB DUP2 MSTORE SWAP1 PUSH1 0x40 MSTORE DUP1 MLOAD SWAP1 PUSH1 0x20 ADD KECCAK256 DUP3 PUSH1 0x40 MLOAD PUSH1 0x20 ADD DUP1 DUP3 DUP1 MLOAD SWAP1 PUSH1 0x20 ADD SWAP1 DUP1 DUP4 DUP4 JUMPDEST PUSH1 0x20 DUP4 LT ISZERO ISZERO PUSH2 0x559 JUMPI DUP1 MLOAD DUP3 MSTORE PUSH1 0x20 DUP3 ADD SWAP2 POP PUSH1 0x20 DUP2 ADD SWAP1 POP PUSH1 0x20 DUP4 SUB SWAP3 POP PUSH2 0x534 JUMP JUMPDEST PUSH1 0x1 DUP4 PUSH1 0x20 SUB PUSH2 0x100 EXP SUB DUP1 NOT DUP3 MLOAD AND DUP2 DUP5 MLOAD AND DUP1 DUP3 OR DUP6 MSTORE POP POP POP POP POP POP SWAP1 POP ADD SWAP2 POP POP PUSH1 0x40 MLOAD PUSH1 0x20 DUP2 DUP4 SUB SUB DUP2 MSTORE SWAP1 PUSH1 0x40 MSTORE DUP1 MLOAD SWAP1 PUSH1 0x20 ADD KECCAK256 EQ ISZERO ISZERO PUSH2 0x5DE JUMPI PUSH1 0x10 PUSH1 0x2 ADD DUP3 SWAP1 DUP1 PUSH1 0x1 DUP2 SLOAD ADD DUP1 DUP3 SSTORE DUP1 SWAP2 POP POP SWAP1 PUSH1 0x1 DUP3 SUB SWAP1 PUSH1 0x0 MSTORE PUSH1 0x20 PUSH1 0x0 KECCAK256 ADD PUSH1 0x0 SWAP1 SWAP2 SWAP3 SWAP1 SWAP2 SWAP1 SWAP2 POP SWAP1 DUP1 MLOAD SWAP1 PUSH1 0x20 ADD SWAP1 PUSH2 0x5DB SWAP3 SWAP2 SWAP1 PUSH2 0x1F5F JUMP JUMPDEST POP POP JUMPDEST PUSH1 0x40 MLOAD PUSH1 0x20 ADD DUP1 PUSH1 0x0 ADD SWAP1 POP PUSH1 0x40 MLOAD PUSH1 0x20 DUP2 DUP4 SUB SUB DUP2 MSTORE SWAP1 PUSH1 0x40 MSTORE DUP1 MLOAD SWAP1 PUSH1 0x20 ADD KECCAK256 DUP2 PUSH1 0x40 MLOAD PUSH1 0x20 ADD DUP1 DUP3 DUP1 MLOAD SWAP1 PUSH1 0x20 ADD SWAP1 DUP1 DUP4 DUP4 JUMPDEST PUSH1 0x20 DUP4 LT ISZERO ISZERO PUSH2 0x639 JUMPI DUP1 MLOAD DUP3 MSTORE PUSH1 0x20 DUP3 ADD SWAP2 POP PUSH1 0x20 DUP2 ADD SWAP1 POP PUSH1 0x20 DUP4 SUB SWAP3 POP PUSH2 0x614 JUMP JUMPDEST PUSH1 0x1 DUP4 PUSH1 0x20 SUB PUSH2 0x100 EXP SUB DUP1 NOT DUP3 MLOAD AND DUP2 DUP5 MLOAD AND DUP1 DUP3 OR DUP6 MSTORE POP POP POP POP POP POP SWAP1 POP ADD SWAP2 POP POP PUSH1 0x40 MLOAD PUSH1 0x20 DUP2 DUP4 SUB SUB DUP2 MSTORE SWAP1 PUSH1 0x40 MSTORE DUP1 MLOAD SWAP1 PUSH1 0x20 ADD KECCAK256 EQ ISZERO ISZERO PUSH2 0x6BE JUMPI PUSH1 0x10 PUSH1 0x3 ADD DUP2 SWAP1 DUP1 PUSH1 0x1 DUP2 SLOAD ADD DUP1 DUP3 SSTORE DUP1 SWAP2 POP POP SWAP1 PUSH1 0x1 DUP3 SUB SWAP1 PUSH1 0x0 MSTORE PUSH1 0x20 PUSH1 0x0 KECCAK256 ADD PUSH1 0x0 SWAP1 SWAP2 SWAP3 SWAP1 SWAP2 SWAP1 SWAP2 POP SWAP1 DUP1 MLOAD SWAP1 PUSH1 0x20 ADD SWAP1 PUSH2 0x6BB SWAP3 SWAP2 SWAP1 PUSH2 0x1F5F JUMP JUMPDEST POP POP JUMPDEST JUMPDEST POP POP POP POP JUMP JUMPDEST PUSH1 0x15 DUP1 SLOAD PUSH1 0x1 DUP2 PUSH1 0x1 AND ISZERO PUSH2 0x100 MUL SUB AND PUSH1 0x2 SWAP1 DIV DUP1 PUSH1 0x1F ADD PUSH1 0x20 DUP1 SWAP2 DIV MUL PUSH1 0x20 ADD PUSH1 0x40 MLOAD SWAP1 DUP2 ADD PUSH1 0x40 MSTORE DUP1 SWAP3 SWAP2 SWAP1 DUP2 DUP2 MSTORE PUSH1 0x20 ADD DUP3 DUP1 SLOAD PUSH1 0x1 DUP2 PUSH1 0x1 AND ISZERO PUSH2 0x100 MUL SUB AND PUSH1 0x2 SWAP1 DIV DUP1 ISZERO PUSH2 0x75B JUMPI DUP1 PUSH1 0x1F LT PUSH2 0x730 JUMPI PUSH2 0x100 DUP1 DUP4 SLOAD DIV MUL DUP4 MSTORE SWAP2 PUSH1 0x20 ADD SWAP2 PUSH2 0x75B JUMP JUMPDEST DUP3 ADD SWAP2 SWAP1 PUSH1 0x0 MSTORE PUSH1 0x20 PUSH1 0x0 KECCAK256 SWAP1 JUMPDEST DUP2 SLOAD DUP2 MSTORE SWAP1 PUSH1 0x1 ADD SWAP1 PUSH1 0x20 ADD DUP1 DUP4 GT PUSH2 0x73E JUMPI DUP3 SWAP1 SUB PUSH1 0x1F AND DUP3 ADD SWAP2 JUMPDEST POP POP POP POP POP DUP2 JUMP JUMPDEST PUSH2 0x76C CALLER PUSH2 0x1D82 JUMP JUMPDEST ISZERO PUSH2 0x8A6 JUMPI PUSH2 0x779 PUSH2 0x1FDF JUMP JUMPDEST PUSH2 0x100 PUSH1 0x40 MLOAD SWAP1 DUP2 ADD PUSH1 0x40 MSTORE DUP1 DUP11 DUP2 MSTORE PUSH1 0x20 ADD DUP10 DUP2 MSTORE PUSH1 0x20 ADD DUP9 DUP2 MSTORE PUSH1 0x20 ADD DUP8 DUP2 MSTORE PUSH1 0x20 ADD DUP7 DUP2 MSTORE PUSH1 0x20 ADD DUP6 DUP2 MSTORE PUSH1 0x20 ADD DUP5 DUP2 MSTORE PUSH1 0x20 ADD DUP4 DUP2 MSTORE POP SWAP1 POP DUP1 PUSH1 0x8 PUSH1 0x0 DUP3 ADD MLOAD DUP2 PUSH1 0x0 ADD SWAP1 DUP1 MLOAD SWAP1 PUSH1 0x20 ADD SWAP1 PUSH2 0x7D5 SWAP3 SWAP2 SWAP1 PUSH2 0x2025 JUMP JUMPDEST POP PUSH1 0x20 DUP3 ADD MLOAD DUP2 PUSH1 0x1 ADD SWAP1 DUP1 MLOAD SWAP1 PUSH1 0x20 ADD SWAP1 PUSH2 0x7F2 SWAP3 SWAP2 SWAP1 PUSH2 0x2025 JUMP JUMPDEST POP PUSH1 0x40 DUP3 ADD MLOAD DUP2 PUSH1 0x2 ADD SWAP1 DUP1 MLOAD SWAP1 PUSH1 0x20 ADD SWAP1 PUSH2 0x80F SWAP3 SWAP2 SWAP1 PUSH2 0x2025 JUMP JUMPDEST POP PUSH1 0x60 DUP3 ADD MLOAD DUP2 PUSH1 0x3 ADD SWAP1 DUP1 MLOAD SWAP1 PUSH1 0x20 ADD SWAP1 PUSH2 0x82C SWAP3 SWAP2 SWAP1 PUSH2 0x2025 JUMP JUMPDEST POP PUSH1 0x80 DUP3 ADD MLOAD DUP2 PUSH1 0x4 ADD SWAP1 DUP1 MLOAD SWAP1 PUSH1 0x20 ADD SWAP1 PUSH2 0x849 SWAP3 SWAP2 SWAP1 PUSH2 0x2025 JUMP JUMPDEST POP PUSH1 0xA0 DUP3 ADD MLOAD DUP2 PUSH1 0x5 ADD SWAP1 DUP1 MLOAD SWAP1 PUSH1 0x20 ADD SWAP1 PUSH2 0x866 SWAP3 SWAP2 SWAP1 PUSH2 0x2025 JUMP JUMPDEST POP PUSH1 0xC0 DUP3 ADD MLOAD DUP2 PUSH1 0x6 ADD SWAP1 DUP1 MLOAD SWAP1 PUSH1 0x20 ADD SWAP1 PUSH2 0x883 SWAP3 SWAP2 SWAP1 PUSH2 0x2025 JUMP JUMPDEST POP PUSH1 0xE0 DUP3 ADD MLOAD DUP2 PUSH1 0x7 ADD SWAP1 DUP1 MLOAD SWAP1 PUSH1 0x20 ADD SWAP1 PUSH2 0x8A0 SWAP3 SWAP2 SWAP1 PUSH2 0x2025 JUMP JUMPDEST POP SWAP1 POP POP POP JUMPDEST POP POP POP POP POP POP POP POP JUMP JUMPDEST PUSH1 0x0 PUSH2 0x8BA PUSH2 0x20A5 JUMP JUMPDEST PUSH2 0x8C2 PUSH2 0x1FDF JUMP JUMPDEST PUSH2 0x8CA PUSH2 0x20EB JUMP JUMPDEST PUSH2 0x8D3 CALLER PUSH2 0x1D82 JUMP JUMPDEST ISZERO PUSH2 0x1648 JUMPI PUSH1 0x1 PUSH1 0x0 PUSH1 0x8 PUSH1 0x10 DUP3 PUSH2 0x100 PUSH1 0x40 MLOAD SWAP1 DUP2 ADD PUSH1 0x40 MSTORE SWAP1 DUP2 PUSH1 0x0 DUP3 ADD DUP1 SLOAD PUSH1 0x1 DUP2 PUSH1 0x1 AND ISZERO PUSH2 0x100 MUL SUB AND PUSH1 0x2 SWAP1 DIV DUP1 PUSH1 0x1F ADD PUSH1 0x20 DUP1 SWAP2 DIV MUL PUSH1 0x20 ADD PUSH1 0x40 MLOAD SWAP1 DUP2 ADD PUSH1 0x40 MSTORE DUP1 SWAP3 SWAP2 SWAP1 DUP2 DUP2 MSTORE PUSH1 0x20 ADD DUP3 DUP1 SLOAD PUSH1 0x1 DUP2 PUSH1 0x1 AND ISZERO PUSH2 0x100 MUL SUB AND PUSH1 0x2 SWAP1 DIV DUP1 ISZERO PUSH2 0x987 JUMPI DUP1 PUSH1 0x1F LT PUSH2 0x95C JUMPI PUSH2 0x100 DUP1 DUP4 SLOAD DIV MUL DUP4 MSTORE SWAP2 PUSH1 0x20 ADD SWAP2 PUSH2 0x987 JUMP JUMPDEST DUP3 ADD SWAP2 SWAP1 PUSH1 0x0 MSTORE PUSH1 0x20 PUSH1 0x0 KECCAK256 SWAP1 JUMPDEST DUP2 SLOAD DUP2 MSTORE SWAP1 PUSH1 0x1 ADD SWAP1 PUSH1 0x20 ADD DUP1 DUP4 GT PUSH2 0x96A JUMPI DUP3 SWAP1 SUB PUSH1 0x1F AND DUP3 ADD SWAP2 JUMPDEST POP POP POP POP POP DUP2 MSTORE PUSH1 0x20 ADD PUSH1 0x1 DUP3 ADD DUP1 SLOAD PUSH1 0x1 DUP2 PUSH1 0x1 AND ISZERO PUSH2 0x100 MUL SUB AND PUSH1 0x2 SWAP1 DIV DUP1 PUSH1 0x1F ADD PUSH1 0x20 DUP1 SWAP2 DIV MUL PUSH1 0x20 ADD PUSH1 0x40 MLOAD SWAP1 DUP2 ADD PUSH1 0x40 MSTORE DUP1 SWAP3 SWAP2 SWAP1 DUP2 DUP2 MSTORE PUSH1 0x20 ADD DUP3 DUP1 SLOAD PUSH1 0x1 DUP2 PUSH1 0x1 AND ISZERO PUSH2 0x100 MUL SUB AND PUSH1 0x2 SWAP1 DIV DUP1 ISZERO PUSH2 0xA29 JUMPI DUP1 PUSH1 0x1F LT PUSH2 0x9FE JUMPI PUSH2 0x100 DUP1 DUP4 SLOAD DIV MUL DUP4 MSTORE SWAP2 PUSH1 0x20 ADD SWAP2 PUSH2 0xA29 JUMP JUMPDEST DUP3 ADD SWAP2 SWAP1 PUSH1 0x0 MSTORE PUSH1 0x20 PUSH1 0x0 KECCAK256 SWAP1 JUMPDEST DUP2 SLOAD DUP2 MSTORE SWAP1 PUSH1 0x1 ADD SWAP1 PUSH1 0x20 ADD DUP1 DUP4 GT PUSH2 0xA0C JUMPI DUP3 SWAP1 SUB PUSH1 0x1F AND DUP3 ADD SWAP2 JUMPDEST POP POP POP POP POP DUP2 MSTORE PUSH1 0x20 ADD PUSH1 0x2 DUP3 ADD DUP1 SLOAD PUSH1 0x1 DUP2 PUSH1 0x1 AND ISZERO PUSH2 0x100 MUL SUB AND PUSH1 0x2 SWAP1 DIV DUP1 PUSH1 0x1F ADD PUSH1 0x20 DUP1 SWAP2 DIV MUL PUSH1 0x20 ADD PUSH1 0x40 MLOAD SWAP1 DUP2 ADD PUSH1 0x40 MSTORE DUP1 SWAP3 SWAP2 SWAP1 DUP2 DUP2 MSTORE PUSH1 0x20 ADD DUP3 DUP1 SLOAD PUSH1 0x1 DUP2 PUSH1 0x1 AND ISZERO PUSH2 0x100 MUL SUB AND PUSH1 0x2 SWAP1 DIV DUP1 ISZERO PUSH2 0xACB JUMPI DUP1 PUSH1 0x1F LT PUSH2 0xAA0 JUMPI PUSH2 0x100 DUP1 DUP4 SLOAD DIV MUL DUP4 MSTORE SWAP2 PUSH1 0x20 ADD SWAP2 PUSH2 0xACB JUMP JUMPDEST DUP3 ADD SWAP2 SWAP1 PUSH1 0x0 MSTORE PUSH1 0x20 PUSH1 0x0 KECCAK256 SWAP1 JUMPDEST DUP2 SLOAD DUP2 MSTORE SWAP1 PUSH1 0x1 ADD SWAP1 PUSH1 0x20 ADD DUP1 DUP4 GT PUSH2 0xAAE JUMPI DUP3 SWAP1 SUB PUSH1 0x1F AND DUP3 ADD SWAP2 JUMPDEST POP POP POP POP POP DUP2 MSTORE PUSH1 0x20 ADD PUSH1 0x3 DUP3 ADD DUP1 SLOAD PUSH1 0x1 DUP2 PUSH1 0x1 AND ISZERO PUSH2 0x100 MUL SUB AND PUSH1 0x2 SWAP1 DIV DUP1 PUSH1 0x1F ADD PUSH1 0x20 DUP1 SWAP2 DIV MUL PUSH1 0x20 ADD PUSH1 0x40 MLOAD SWAP1 DUP2 ADD PUSH1 0x40 MSTORE DUP1 SWAP3 SWAP2 SWAP1 DUP2 DUP2 MSTORE PUSH1 0x20 ADD DUP3 DUP1 SLOAD PUSH1 0x1 DUP2 PUSH1 0x1 AND ISZERO PUSH2 0x100 MUL SUB AND PUSH1 0x2 SWAP1 DIV DUP1 ISZERO PUSH2 0xB6D JUMPI DUP1 PUSH1 0x1F LT PUSH2 0xB42 JUMPI PUSH2 0x100 DUP1 DUP4 SLOAD DIV MUL DUP4 MSTORE SWAP2 PUSH1 0x20 ADD SWAP2 PUSH2 0xB6D JUMP JUMPDEST DUP3 ADD SWAP2 SWAP1 PUSH1 0x0 MSTORE PUSH1 0x20 PUSH1 0x0 KECCAK256 SWAP1 JUMPDEST DUP2 SLOAD DUP2 MSTORE SWAP1 PUSH1 0x1 ADD SWAP1 PUSH1 0x20 ADD DUP1 DUP4 GT PUSH2 0xB50 JUMPI DUP3 SWAP1 SUB PUSH1 0x1F AND DUP3 ADD SWAP2 JUMPDEST POP POP POP POP POP DUP2 MSTORE PUSH1 0x20 ADD PUSH1 0x4 DUP3 ADD SLOAD DUP2 MSTORE PUSH1 0x20 ADD PUSH1 0x5 DUP3 ADD DUP1 SLOAD PUSH1 0x1 DUP2 PUSH1 0x1 AND ISZERO PUSH2 0x100 MUL SUB AND PUSH1 0x2 SWAP1 DIV DUP1 PUSH1 0x1F ADD PUSH1 0x20 DUP1 SWAP2 DIV MUL PUSH1 0x20 ADD PUSH1 0x40 MLOAD SWAP1 DUP2 ADD PUSH1 0x40 MSTORE DUP1 SWAP3 SWAP2 SWAP1 DUP2 DUP2 MSTORE PUSH1 0x20 ADD DUP3 DUP1 SLOAD PUSH1 0x1 DUP2 PUSH1 0x1 AND ISZERO PUSH2 0x100 MUL SUB AND PUSH1 0x2 SWAP1 DIV DUP1 ISZERO PUSH2 0xC19 JUMPI DUP1 PUSH1 0x1F LT PUSH2 0xBEE JUMPI PUSH2 0x100 DUP1 DUP4 SLOAD DIV MUL DUP4 MSTORE SWAP2 PUSH1 0x20 ADD SWAP2 PUSH2 0xC19 JUMP JUMPDEST DUP3 ADD SWAP2 SWAP1 PUSH1 0x0 MSTORE PUSH1 0x20 PUSH1 0x0 KECCAK256 SWAP1 JUMPDEST DUP2 SLOAD DUP2 MSTORE SWAP1 PUSH1 0x1 ADD SWAP1 PUSH1 0x20 ADD DUP1 DUP4 GT PUSH2 0xBFC JUMPI DUP3 SWAP1 SUB PUSH1 0x1F AND DUP3 ADD SWAP2 JUMPDEST POP POP POP POP POP DUP2 MSTORE PUSH1 0x20 ADD PUSH1 0x6 DUP3 ADD DUP1 SLOAD PUSH1 0x1 DUP2 PUSH1 0x1 AND ISZERO PUSH2 0x100 MUL SUB AND PUSH1 0x2 SWAP1 DIV DUP1 PUSH1 0x1F ADD PUSH1 0x20 DUP1 SWAP2 DIV MUL PUSH1 0x20 ADD PUSH1 0x40 MLOAD SWAP1 DUP2 ADD PUSH1 0x40 MSTORE DUP1 SWAP3 SWAP2 SWAP1 DUP2 DUP2 MSTORE PUSH1 0x20 ADD DUP3 DUP1 SLOAD PUSH1 0x1 DUP2 PUSH1 0x1 AND ISZERO PUSH2 0x100 MUL SUB AND PUSH1 0x2 SWAP1 DIV DUP1 ISZERO PUSH2 0xCBB JUMPI DUP1 PUSH1 0x1F LT PUSH2 0xC90 JUMPI PUSH2 0x100 DUP1 DUP4 SLOAD DIV MUL DUP4 MSTORE SWAP2 PUSH1 0x20 ADD SWAP2 PUSH2 0xCBB JUMP JUMPDEST DUP3 ADD SWAP2 SWAP1 PUSH1 0x0 MSTORE PUSH1 0x20 PUSH1 0x0 KECCAK256 SWAP1 JUMPDEST DUP2 SLOAD DUP2 MSTORE SWAP1 PUSH1 0x1 ADD SWAP1 PUSH1 0x20 ADD DUP1 DUP4 GT PUSH2 0xC9E JUMPI DUP3 SWAP1 SUB PUSH1 0x1F AND DUP3 ADD SWAP2 JUMPDEST POP POP POP POP POP DUP2 MSTORE PUSH1 0x20 ADD PUSH1 0x7 DUP3 ADD DUP1 SLOAD PUSH1 0x1 DUP2 PUSH1 0x1 AND ISZERO PUSH2 0x100 MUL SUB AND PUSH1 0x2 SWAP1 DIV DUP1 PUSH1 0x1F ADD PUSH1 0x20 DUP1 SWAP2 DIV MUL PUSH1 0x20 ADD PUSH1 0x40 MLOAD SWAP1 DUP2 ADD PUSH1 0x40 MSTORE DUP1 SWAP3 SWAP2 SWAP1 DUP2 DUP2 MSTORE PUSH1 0x20 ADD DUP3 DUP1 SLOAD PUSH1 0x1 DUP2 PUSH1 0x1 AND ISZERO PUSH2 0x100 MUL SUB AND PUSH1 0x2 SWAP1 DIV DUP1 ISZERO PUSH2 0xD5D JUMPI DUP1 PUSH1 0x1F LT PUSH2 0xD32 JUMPI PUSH2 0x100 DUP1 DUP4 SLOAD DIV MUL DUP4 MSTORE SWAP2 PUSH1 0x20 ADD SWAP2 PUSH2 0xD5D JUMP JUMPDEST DUP3 ADD SWAP2 SWAP1 PUSH1 0x0 MSTORE PUSH1 0x20 PUSH1 0x0 KECCAK256 SWAP1 JUMPDEST DUP2 SLOAD DUP2 MSTORE SWAP1 PUSH1 0x1 ADD SWAP1 PUSH1 0x20 ADD DUP1 DUP4 GT PUSH2 0xD40 JUMPI DUP3 SWAP1 SUB PUSH1 0x1F AND DUP3 ADD SWAP2 JUMPDEST POP POP POP POP POP DUP2 MSTORE POP POP SWAP3 POP DUP2 PUSH2 0x100 PUSH1 0x40 MLOAD SWAP1 DUP2 ADD PUSH1 0x40 MSTORE SWAP1 DUP2 PUSH1 0x0 DUP3 ADD DUP1 SLOAD PUSH1 0x1 DUP2 PUSH1 0x1 AND ISZERO PUSH2 0x100 MUL SUB AND PUSH1 0x2 SWAP1 DIV DUP1 PUSH1 0x1F ADD PUSH1 0x20 DUP1 SWAP2 DIV MUL PUSH1 0x20 ADD PUSH1 0x40 MLOAD SWAP1 DUP2 ADD PUSH1 0x40 MSTORE DUP1 SWAP3 SWAP2 SWAP1 DUP2 DUP2 MSTORE PUSH1 0x20 ADD DUP3 DUP1 SLOAD PUSH1 0x1 DUP2 PUSH1 0x1 AND ISZERO PUSH2 0x100 MUL SUB AND PUSH1 0x2 SWAP1 DIV DUP1 ISZERO PUSH2 0xE0F JUMPI DUP1 PUSH1 0x1F LT PUSH2 0xDE4 JUMPI PUSH2 0x100 DUP1 DUP4 SLOAD DIV MUL DUP4 MSTORE SWAP2 PUSH1 0x20 ADD SWAP2 PUSH2 0xE0F JUMP JUMPDEST DUP3 ADD SWAP2 SWAP1 PUSH1 0x0 MSTORE PUSH1 0x20 PUSH1 0x0 KECCAK256 SWAP1 JUMPDEST DUP2 SLOAD DUP2 MSTORE SWAP1 PUSH1 0x1 ADD SWAP1 PUSH1 0x20 ADD DUP1 DUP4 GT PUSH2 0xDF2 JUMPI DUP3 SWAP1 SUB PUSH1 0x1F AND DUP3 ADD SWAP2 JUMPDEST POP POP POP POP POP DUP2 MSTORE PUSH1 0x20 ADD PUSH1 0x1 DUP3 ADD DUP1 SLOAD PUSH1 0x1 DUP2 PUSH1 0x1 AND ISZERO PUSH2 0x100 MUL SUB AND PUSH1 0x2 SWAP1 DIV DUP1 PUSH1 0x1F ADD PUSH1 0x20 DUP1 SWAP2 DIV MUL PUSH1 0x20 ADD PUSH1 0x40 MLOAD SWAP1 DUP2 ADD PUSH1 0x40 MSTORE DUP1 SWAP3 SWAP2 SWAP1 DUP2 DUP2 MSTORE PUSH1 0x20 ADD DUP3 DUP1 SLOAD PUSH1 0x1 DUP2 PUSH1 0x1 AND ISZERO PUSH2 0x100 MUL SUB AND PUSH1 0x2 SWAP1 DIV DUP1 ISZERO PUSH2 0xEB1 JUMPI DUP1 PUSH1 0x1F LT PUSH2 0xE86 JUMPI PUSH2 0x100 DUP1 DUP4 SLOAD DIV MUL DUP4 MSTORE SWAP2 PUSH1 0x20 ADD SWAP2 PUSH2 0xEB1 JUMP JUMPDEST DUP3 ADD SWAP2 SWAP1 PUSH1 0x0 MSTORE PUSH1 0x20 PUSH1 0x0 KECCAK256 SWAP1 JUMPDEST DUP2 SLOAD DUP2 MSTORE SWAP1 PUSH1 0x1 ADD SWAP1 PUSH1 0x20 ADD DUP1 DUP4 GT PUSH2 0xE94 JUMPI DUP3 SWAP1 SUB PUSH1 0x1F AND DUP3 ADD SWAP2 JUMPDEST POP POP POP POP POP DUP2 MSTORE PUSH1 0x20 ADD PUSH1 0x2 DUP3 ADD DUP1 SLOAD PUSH1 0x1 DUP2 PUSH1 0x1 AND ISZERO PUSH2 0x100 MUL SUB AND PUSH1 0x2 SWAP1 DIV DUP1 PUSH1 0x1F ADD PUSH1 0x20 DUP1 SWAP2 DIV MUL PUSH1 0x20 ADD PUSH1 0x40 MLOAD SWAP1 DUP2 ADD PUSH1 0x40 MSTORE DUP1 SWAP3 SWAP2 SWAP1 DUP2 DUP2 MSTORE PUSH1 0x20 ADD DUP3 DUP1 SLOAD PUSH1 0x1 DUP2 PUSH1 0x1 AND ISZERO PUSH2 0x100 MUL SUB AND PUSH1 0x2 SWAP1 DIV DUP1 ISZERO PUSH2 0xF53 JUMPI DUP1 PUSH1 0x1F LT PUSH2 0xF28 JUMPI PUSH2 0x100 DUP1 DUP4 SLOAD DIV MUL DUP4 MSTORE SWAP2 PUSH1 0x20 ADD SWAP2 PUSH2 0xF53 JUMP JUMPDEST DUP3 ADD SWAP2 SWAP1 PUSH1 0x0 MSTORE PUSH1 0x20 PUSH1 0x0 KECCAK256 SWAP1 JUMPDEST DUP2 SLOAD DUP2 MSTORE SWAP1 PUSH1 0x1 ADD SWAP1 PUSH1 0x20 ADD DUP1 DUP4 GT PUSH2 0xF36 JUMPI DUP3 SWAP1 SUB PUSH1 0x1F AND DUP3 ADD SWAP2 JUMPDEST POP POP POP POP POP DUP2 MSTORE PUSH1 0x20 ADD PUSH1 0x3 DUP3 ADD DUP1 SLOAD PUSH1 0x1 DUP2 PUSH1 0x1 AND ISZERO PUSH2 0x100 MUL SUB AND PUSH1 0x2 SWAP1 DIV DUP1 PUSH1 0x1F ADD PUSH1 0x20 DUP1 SWAP2 DIV MUL PUSH1 0x20 ADD PUSH1 0x40 MLOAD SWAP1 DUP2 ADD PUSH1 0x40 MSTORE DUP1 SWAP3 SWAP2 SWAP1 DUP2 DUP2 MSTORE PUSH1 0x20 ADD DUP3 DUP1 SLOAD PUSH1 0x1 DUP2 PUSH1 0x1 AND ISZERO PUSH2 0x100 MUL SUB AND PUSH1 0x2 SWAP1 DIV DUP1 ISZERO PUSH2 0xFF5 JUMPI DUP1 PUSH1 0x1F LT PUSH2 0xFCA JUMPI PUSH2 0x100 DUP1 DUP4 SLOAD DIV MUL DUP4 MSTORE SWAP2 PUSH1 0x20 ADD SWAP2 PUSH2 0xFF5 JUMP JUMPDEST DUP3 ADD SWAP2 SWAP1 PUSH1 0x0 MSTORE PUSH1 0x20 PUSH1 0x0 KECCAK256 SWAP1 JUMPDEST DUP2 SLOAD DUP2 MSTORE SWAP1 PUSH1 0x1 ADD SWAP1 PUSH1 0x20 ADD DUP1 DUP4 GT PUSH2 0xFD8 JUMPI DUP3 SWAP1 SUB PUSH1 0x1F AND DUP3 ADD SWAP2 JUMPDEST POP POP POP POP POP DUP2 MSTORE PUSH1 0x20 ADD PUSH1 0x4 DUP3 ADD DUP1 SLOAD PUSH1 0x1 DUP2 PUSH1 0x1 AND ISZERO PUSH2 0x100 MUL SUB AND PUSH1 0x2 SWAP1 DIV DUP1 PUSH1 0x1F ADD PUSH1 0x20 DUP1 SWAP2 DIV MUL PUSH1 0x20 ADD PUSH1 0x40 MLOAD SWAP1 DUP2 ADD PUSH1 0x40 MSTORE DUP1 SWAP3 SWAP2 SWAP1 DUP2 DUP2 MSTORE PUSH1 0x20 ADD DUP3 DUP1 SLOAD PUSH1 0x1 DUP2 PUSH1 0x1 AND ISZERO PUSH2 0x100 MUL SUB AND PUSH1 0x2 SWAP1 DIV DUP1 ISZERO PUSH2 0x1097 JUMPI DUP1 PUSH1 0x1F LT PUSH2 0x106C JUMPI PUSH2 0x100 DUP1 DUP4 SLOAD DIV MUL DUP4 MSTORE SWAP2 PUSH1 0x20 ADD SWAP2 PUSH2 0x1097 JUMP JUMPDEST DUP3 ADD SWAP2 SWAP1 PUSH1 0x0 MSTORE PUSH1 0x20 PUSH1 0x0 KECCAK256 SWAP1 JUMPDEST DUP2 SLOAD DUP2 MSTORE SWAP1 PUSH1 0x1 ADD SWAP1 PUSH1 0x20 ADD DUP1 DUP4 GT PUSH2 0x107A JUMPI DUP3 SWAP1 SUB PUSH1 0x1F AND DUP3 ADD SWAP2 JUMPDEST POP POP POP POP POP DUP2 MSTORE PUSH1 0x20 ADD PUSH1 0x5 DUP3 ADD DUP1 SLOAD PUSH1 0x1 DUP2 PUSH1 0x1 AND ISZERO PUSH2 0x100 MUL SUB AND PUSH1 0x2 SWAP1 DIV DUP1 PUSH1 0x1F ADD PUSH1 0x20 DUP1 SWAP2 DIV MUL PUSH1 0x20 ADD PUSH1 0x40 MLOAD SWAP1 DUP2 ADD PUSH1 0x40 MSTORE DUP1 SWAP3 SWAP2 SWAP1 DUP2 DUP2 MSTORE PUSH1 0x20 ADD DUP3 DUP1 SLOAD PUSH1 0x1 DUP2 PUSH1 0x1 AND ISZERO PUSH2 0x100 MUL SUB AND PUSH1 0x2 SWAP1 DIV DUP1 ISZERO PUSH2 0x1139 JUMPI DUP1 PUSH1 0x1F LT PUSH2 0x110E JUMPI PUSH2 0x100 DUP1 DUP4 SLOAD DIV MUL DUP4 MSTORE SWAP2 PUSH1 0x20 ADD SWAP2 PUSH2 0x1139 JUMP JUMPDEST DUP3 ADD SWAP2 SWAP1 PUSH1 0x0 MSTORE PUSH1 0x20 PUSH1 0x0 KECCAK256 SWAP1 JUMPDEST DUP2 SLOAD DUP2 MSTORE SWAP1 PUSH1 0x1 ADD SWAP1 PUSH1 0x20 ADD DUP1 DUP4 GT PUSH2 0x111C JUMPI DUP3 SWAP1 SUB PUSH1 0x1F AND DUP3 ADD SWAP2 JUMPDEST POP POP POP POP POP DUP2 MSTORE PUSH1 0x20 ADD PUSH1 0x6 DUP3 ADD DUP1 SLOAD PUSH1 0x1 DUP2 PUSH1 0x1 AND ISZERO PUSH2 0x100 MUL SUB AND PUSH1 0x2 SWAP1 DIV DUP1 PUSH1 0x1F ADD PUSH1 0x20 DUP1 SWAP2 DIV MUL PUSH1 0x20 ADD PUSH1 0x40 MLOAD SWAP1 DUP2 ADD PUSH1 0x40 MSTORE DUP1 SWAP3 SWAP2 SWAP1 DUP2 DUP2 MSTORE PUSH1 0x20 ADD DUP3 DUP1 SLOAD PUSH1 0x1 DUP2 PUSH1 0x1 AND ISZERO PUSH2 0x100 MUL SUB AND PUSH1 0x2 SWAP1 DIV DUP1 ISZERO PUSH2 0x11DB JUMPI DUP1 PUSH1 0x1F LT PUSH2 0x11B0 JUMPI PUSH2 0x100 DUP1 DUP4 SLOAD DIV MUL DUP4 MSTORE SWAP2 PUSH1 0x20 ADD SWAP2 PUSH2 0x11DB JUMP JUMPDEST DUP3 ADD SWAP2 SWAP1 PUSH1 0x0 MSTORE PUSH1 0x20 PUSH1 0x0 KECCAK256 SWAP1 JUMPDEST DUP2 SLOAD DUP2 MSTORE SWAP1 PUSH1 0x1 ADD SWAP1 PUSH1 0x20 ADD DUP1 DUP4 GT PUSH2 0x11BE JUMPI DUP3 SWAP1 SUB PUSH1 0x1F AND DUP3 ADD SWAP2 JUMPDEST POP POP POP POP POP DUP2 MSTORE PUSH1 0x20 ADD PUSH1 0x7 DUP3 ADD DUP1 SLOAD PUSH1 0x1 DUP2 PUSH1 0x1 AND ISZERO PUSH2 0x100 MUL SUB AND PUSH1 0x2 SWAP1 DIV DUP1 PUSH1 0x1F ADD PUSH1 0x20 DUP1 SWAP2 DIV MUL PUSH1 0x20 ADD PUSH1 0x40 MLOAD SWAP1 DUP2 ADD PUSH1 0x40 MSTORE DUP1 SWAP3 SWAP2 SWAP1 DUP2 DUP2 MSTORE PUSH1 0x20 ADD DUP3 DUP1 SLOAD PUSH1 0x1 DUP2 PUSH1 0x1 AND ISZERO PUSH2 0x100 MUL SUB AND PUSH1 0x2 SWAP1 DIV DUP1 ISZERO PUSH2 0x127D JUMPI DUP1 PUSH1 0x1F LT PUSH2 0x1252 JUMPI PUSH2 0x100 DUP1 DUP4 SLOAD DIV MUL DUP4 MSTORE SWAP2 PUSH1 0x20 ADD SWAP2 PUSH2 0x127D JUMP JUMPDEST DUP3 ADD SWAP2 SWAP1 PUSH1 0x0 MSTORE PUSH1 0x20 PUSH1 0x0 KECCAK256 SWAP1 JUMPDEST DUP2 SLOAD DUP2 MSTORE SWAP1 PUSH1 0x1 ADD SWAP1 PUSH1 0x20 ADD DUP1 DUP4 GT PUSH2 0x1260 JUMPI DUP3 SWAP1 SUB PUSH1 0x1F AND DUP3 ADD SWAP2 JUMPDEST POP POP POP POP POP DUP2 MSTORE POP POP SWAP2 POP DUP1 PUSH1 0x80 PUSH1 0x40 MLOAD SWAP1 DUP2 ADD PUSH1 0x40 MSTORE SWAP1 DUP2 PUSH1 0x0 DUP3 ADD DUP1 SLOAD DUP1 PUSH1 0x20 MUL PUSH1 0x20 ADD PUSH1 0x40 MLOAD SWAP1 DUP2 ADD PUSH1 0x40 MSTORE DUP1 SWAP3 SWAP2 SWAP1 DUP2 DUP2 MSTORE PUSH1 0x20 ADD PUSH1 0x0 SWAP1 JUMPDEST DUP3 DUP3 LT ISZERO PUSH2 0x1376 JUMPI DUP4 DUP3 SWAP1 PUSH1 0x0 MSTORE PUSH1 0x20 PUSH1 0x0 KECCAK256 ADD DUP1 SLOAD PUSH1 0x1 DUP2 PUSH1 0x1 AND ISZERO PUSH2 0x100 MUL SUB AND PUSH1 0x2 SWAP1 DIV DUP1 PUSH1 0x1F ADD PUSH1 0x20 DUP1 SWAP2 DIV MUL PUSH1 0x20 ADD PUSH1 0x40 MLOAD SWAP1 DUP2 ADD PUSH1 0x40 MSTORE DUP1 SWAP3 SWAP2 SWAP1 DUP2 DUP2 MSTORE PUSH1 0x20 ADD DUP3 DUP1 SLOAD PUSH1 0x1 DUP2 PUSH1 0x1 AND ISZERO PUSH2 0x100 MUL SUB AND PUSH1 0x2 SWAP1 DIV DUP1 ISZERO PUSH2 0x1362 JUMPI DUP1 PUSH1 0x1F LT PUSH2 0x1337 JUMPI PUSH2 0x100 DUP1 DUP4 SLOAD DIV MUL DUP4 MSTORE SWAP2 PUSH1 0x20 ADD SWAP2 PUSH2 0x1362 JUMP JUMPDEST DUP3 ADD SWAP2 SWAP1 PUSH1 0x0 MSTORE PUSH1 0x20 PUSH1 0x0 KECCAK256 SWAP1 JUMPDEST DUP2 SLOAD DUP2 MSTORE SWAP1 PUSH1 0x1 ADD SWAP1 PUSH1 0x20 ADD DUP1 DUP4 GT PUSH2 0x1345 JUMPI DUP3 SWAP1 SUB PUSH1 0x1F AND DUP3 ADD SWAP2 JUMPDEST POP POP POP POP POP DUP2 MSTORE PUSH1 0x20 ADD SWAP1 PUSH1 0x1 ADD SWAP1 PUSH2 0x12BA JUMP JUMPDEST POP POP POP POP DUP2 MSTORE PUSH1 0x20 ADD PUSH1 0x1 DUP3 ADD DUP1 SLOAD DUP1 PUSH1 0x20 MUL PUSH1 0x20 ADD PUSH1 0x40 MLOAD SWAP1 DUP2 ADD PUSH1 0x40 MSTORE DUP1 SWAP3 SWAP2 SWAP1 DUP2 DUP2 MSTORE PUSH1 0x20 ADD PUSH1 0x0 SWAP1 JUMPDEST DUP3 DUP3 LT ISZERO PUSH2 0x145F JUMPI DUP4 DUP3 SWAP1 PUSH1 0x0 MSTORE PUSH1 0x20 PUSH1 0x0 KECCAK256 ADD DUP1 SLOAD PUSH1 0x1 DUP2 PUSH1 0x1 AND ISZERO PUSH2 0x100 MUL SUB AND PUSH1 0x2 SWAP1 DIV DUP1 PUSH1 0x1F ADD PUSH1 0x20 DUP1 SWAP2 DIV MUL PUSH1 0x20 ADD PUSH1 0x40 MLOAD SWAP1 DUP2 ADD PUSH1 0x40 MSTORE DUP1 SWAP3 SWAP2 SWAP1 DUP2 DUP2 MSTORE PUSH1 0x20 ADD DUP3 DUP1 SLOAD PUSH1 0x1 DUP2 PUSH1 0x1 AND ISZERO PUSH2 0x100 MUL SUB AND PUSH1 0x2 SWAP1 DIV DUP1 ISZERO PUSH2 0x144B JUMPI DUP1 PUSH1 0x1F LT PUSH2 0x1420 JUMPI PUSH2 0x100 DUP1 DUP4 SLOAD DIV MUL DUP4 MSTORE SWAP2 PUSH1 0x20 ADD SWAP2 PUSH2 0x144B JUMP JUMPDEST DUP3 ADD SWAP2 SWAP1 PUSH1 0x0 MSTORE PUSH1 0x20 PUSH1 0x0 KECCAK256 SWAP1 JUMPDEST DUP2 SLOAD DUP2 MSTORE SWAP1 PUSH1 0x1 ADD SWAP1 PUSH1 0x20 ADD DUP1 DUP4 GT PUSH2 0x142E JUMPI DUP3 SWAP1 SUB PUSH1 0x1F AND DUP3 ADD SWAP2 JUMPDEST POP POP POP POP POP DUP2 MSTORE PUSH1 0x20 ADD SWAP1 PUSH1 0x1 ADD SWAP1 PUSH2 0x13A3 JUMP JUMPDEST POP POP POP POP DUP2 MSTORE PUSH1 0x20 ADD PUSH1 0x2 DUP3 ADD DUP1 SLOAD DUP1 PUSH1 0x20 MUL PUSH1 0x20 ADD PUSH1 0x40 MLOAD SWAP1 DUP2 ADD PUSH1 0x40 MSTORE DUP1 SWAP3 SWAP2 SWAP1 DUP2 DUP2 MSTORE PUSH1 0x20 ADD PUSH1 0x0 SWAP1 JUMPDEST DUP3 DUP3 LT ISZERO PUSH2 0x1548 JUMPI DUP4 DUP3 SWAP1 PUSH1 0x0 MSTORE PUSH1 0x20 PUSH1 0x0 KECCAK256 ADD DUP1 SLOAD PUSH1 0x1 DUP2 PUSH1 0x1 AND ISZERO PUSH2 0x100 MUL SUB AND PUSH1 0x2 SWAP1 DIV DUP1 PUSH1 0x1F ADD PUSH1 0x20 DUP1 SWAP2 DIV MUL PUSH1 0x20 ADD PUSH1 0x40 MLOAD SWAP1 DUP2 ADD PUSH1 0x40 MSTORE DUP1 SWAP3 SWAP2 SWAP1 DUP2 DUP2 MSTORE PUSH1 0x20 ADD DUP3 DUP1 SLOAD PUSH1 0x1 DUP2 PUSH1 0x1 AND ISZERO PUSH2 0x100 MUL SUB AND PUSH1 0x2 SWAP1 DIV DUP1 ISZERO PUSH2 0x1534 JUMPI DUP1 PUSH1 0x1F LT PUSH2 0x1509 JUMPI PUSH2 0x100 DUP1 DUP4 SLOAD DIV MUL DUP4 MSTORE SWAP2 PUSH1 0x20 ADD SWAP2 PUSH2 0x1534 JUMP JUMPDEST DUP3 ADD SWAP2 SWAP1 PUSH1 0x0 MSTORE PUSH1 0x20 PUSH1 0x0 KECCAK256 SWAP1 JUMPDEST DUP2 SLOAD DUP2 MSTORE SWAP1 PUSH1 0x1 ADD SWAP1 PUSH1 0x20 ADD DUP1 DUP4 GT PUSH2 0x1517 JUMPI DUP3 SWAP1 SUB PUSH1 0x1F AND DUP3 ADD SWAP2 JUMPDEST POP POP POP POP POP DUP2 MSTORE PUSH1 0x20 ADD SWAP1 PUSH1 0x1 ADD SWAP1 PUSH2 0x148C JUMP JUMPDEST POP POP POP POP DUP2 MSTORE PUSH1 0x20 ADD PUSH1 0x3 DUP3 ADD DUP1 SLOAD DUP1 PUSH1 0x20 MUL PUSH1 0x20 ADD PUSH1 0x40 MLOAD SWAP1 DUP2 ADD PUSH1 0x40 MSTORE DUP1 SWAP3 SWAP2 SWAP1 DUP2 DUP2 MSTORE PUSH1 0x20 ADD PUSH1 0x0 SWAP1 JUMPDEST DUP3 DUP3 LT ISZERO PUSH2 0x1631 JUMPI DUP4 DUP3 SWAP1 PUSH1 0x0 MSTORE PUSH1 0x20 PUSH1 0x0 KECCAK256 ADD DUP1 SLOAD PUSH1 0x1 DUP2 PUSH1 0x1 AND ISZERO PUSH2 0x100 MUL SUB AND PUSH1 0x2 SWAP1 DIV DUP1 PUSH1 0x1F ADD PUSH1 0x20 DUP1 SWAP2 DIV MUL PUSH1 0x20 ADD PUSH1 0x40 MLOAD SWAP1 DUP2 ADD PUSH1 0x40 MSTORE DUP1 SWAP3 SWAP2 SWAP1 DUP2 DUP2 MSTORE PUSH1 0x20 ADD DUP3 DUP1 SLOAD PUSH1 0x1 DUP2 PUSH1 0x1 AND ISZERO PUSH2 0x100 MUL SUB AND PUSH1 0x2 SWAP1 DIV DUP1 ISZERO PUSH2 0x161D JUMPI DUP1 PUSH1 0x1F LT PUSH2 0x15F2 JUMPI PUSH2 0x100 DUP1 DUP4 SLOAD DIV MUL DUP4 MSTORE SWAP2 PUSH1 0x20 ADD SWAP2 PUSH2 0x161D JUMP JUMPDEST DUP3 ADD SWAP2 SWAP1 PUSH1 0x0 MSTORE PUSH1 0x20 PUSH1 0x0 KECCAK256 SWAP1 JUMPDEST DUP2 SLOAD DUP2 MSTORE SWAP1 PUSH1 0x1 ADD SWAP1 PUSH1 0x20 ADD DUP1 DUP4 GT PUSH2 0x1600 JUMPI DUP3 SWAP1 SUB PUSH1 0x1F AND DUP3 ADD SWAP2 JUMPDEST POP POP POP POP POP DUP2 MSTORE PUSH1 0x20 ADD SWAP1 PUSH1 0x1 ADD SWAP1 PUSH2 0x1575 JUMP JUMPDEST POP POP POP POP DUP2 MSTORE POP POP SWAP1 POP SWAP4 POP SWAP4 POP SWAP4 POP SWAP4 POP PUSH2 0x1B00 JUMP JUMPDEST PUSH2 0x1650 PUSH2 0x20A5 JUMP JUMPDEST PUSH2 0x100 PUSH1 0x40 MLOAD SWAP1 DUP2 ADD PUSH1 0x40 MSTORE DUP1 PUSH1 0x40 DUP1 MLOAD SWAP1 DUP2 ADD PUSH1 0x40 MSTORE DUP1 PUSH1 0x3 DUP2 MSTORE PUSH1 0x20 ADD PUSH32 0x7878780000000000000000000000000000000000000000000000000000000000 DUP2 MSTORE POP DUP2 MSTORE PUSH1 0x20 ADD PUSH1 0x40 DUP1 MLOAD SWAP1 DUP2 ADD PUSH1 0x40 MSTORE DUP1 PUSH1 0x3 DUP2 MSTORE PUSH1 0x20 ADD PUSH32 0x7878780000000000000000000000000000000000000000000000000000000000 DUP2 MSTORE POP DUP2 MSTORE PUSH1 0x20 ADD PUSH1 0x40 DUP1 MLOAD SWAP1 DUP2 ADD PUSH1 0x40 MSTORE DUP1 PUSH1 0x3 DUP2 MSTORE PUSH1 0x20 ADD PUSH32 0x7878780000000000000000000000000000000000000000000000000000000000 DUP2 MSTORE POP DUP2 MSTORE PUSH1 0x20 ADD PUSH1 0x40 DUP1 MLOAD SWAP1 DUP2 ADD PUSH1 0x40 MSTORE DUP1 PUSH1 0x3 DUP2 MSTORE PUSH1 0x20 ADD PUSH32 0x7878780000000000000000000000000000000000000000000000000000000000 DUP2 MSTORE POP DUP2 MSTORE PUSH1 0x20 ADD PUSH2 0x3E7 DUP2 MSTORE PUSH1 0x20 ADD PUSH1 0x40 DUP1 MLOAD SWAP1 DUP2 ADD PUSH1 0x40 MSTORE DUP1 PUSH1 0x3 DUP2 MSTORE PUSH1 0x20 ADD PUSH32 0x7878780000000000000000000000000000000000000000000000000000000000 DUP2 MSTORE POP DUP2 MSTORE PUSH1 0x20 ADD PUSH1 0x40 DUP1 MLOAD SWAP1 DUP2 ADD PUSH1 0x40 MSTORE DUP1 PUSH1 0x3 DUP2 MSTORE PUSH1 0x20 ADD PUSH32 0x7878780000000000000000000000000000000000000000000000000000000000 DUP2 MSTORE POP DUP2 MSTORE PUSH1 0x20 ADD PUSH1 0x40 DUP1 MLOAD SWAP1 DUP2 ADD PUSH1 0x40 MSTORE DUP1 PUSH1 0x3 DUP2 MSTORE PUSH1 0x20 ADD PUSH32 0x7878780000000000000000000000000000000000000000000000000000000000 DUP2 MSTORE POP DUP2 MSTORE POP SWAP1 POP PUSH2 0x180A PUSH2 0x1FDF JUMP JUMPDEST PUSH2 0x100 PUSH1 0x40 MLOAD SWAP1 DUP2 ADD PUSH1 0x40 MSTORE DUP1 PUSH1 0x40 DUP1 MLOAD SWAP1 DUP2 ADD PUSH1 0x40 MSTORE DUP1 PUSH1 0x3 DUP2 MSTORE PUSH1 0x20 ADD PUSH32 0x7878780000000000000000000000000000000000000000000000000000000000 DUP2 MSTORE POP DUP2 MSTORE PUSH1 0x20 ADD PUSH1 0x40 DUP1 MLOAD SWAP1 DUP2 ADD PUSH1 0x40 MSTORE DUP1 PUSH1 0x3 DUP2 MSTORE PUSH1 0x20 ADD PUSH32 0x7878780000000000000000000000000000000000000000000000000000000000 DUP2 MSTORE POP DUP2 MSTORE PUSH1 0x20 ADD PUSH1 0x40 DUP1 MLOAD SWAP1 DUP2 ADD PUSH1 0x40 MSTORE DUP1 PUSH1 0x3 DUP2 MSTORE PUSH1 0x20 ADD PUSH32 0x7878780000000000000000000000000000000000000000000000000000000000 DUP2 MSTORE POP DUP2 MSTORE PUSH1 0x20 ADD PUSH1 0x40 DUP1 MLOAD SWAP1 DUP2 ADD PUSH1 0x40 MSTORE DUP1 PUSH1 0x3 DUP2 MSTORE PUSH1 0x20 ADD PUSH32 0x7878780000000000000000000000000000000000000000000000000000000000 DUP2 MSTORE POP DUP2 MSTORE PUSH1 0x20 ADD PUSH1 0x40 DUP1 MLOAD SWAP1 DUP2 ADD PUSH1 0x40 MSTORE DUP1 PUSH1 0x3 DUP2 MSTORE PUSH1 0x20 ADD PUSH32 0x7878780000000000000000000000000000000000000000000000000000000000 DUP2 MSTORE POP DUP2 MSTORE PUSH1 0x20 ADD PUSH1 0x40 DUP1 MLOAD SWAP1 DUP2 ADD PUSH1 0x40 MSTORE DUP1 PUSH1 0x3 DUP2 MSTORE PUSH1 0x20 ADD PUSH32 0x7878780000000000000000000000000000000000000000000000000000000000 DUP2 MSTORE POP DUP2 MSTORE PUSH1 0x20 ADD PUSH1 0x40 DUP1 MLOAD SWAP1 DUP2 ADD PUSH1 0x40 MSTORE DUP1 PUSH1 0x3 DUP2 MSTORE PUSH1 0x20 ADD PUSH32 0x7878780000000000000000000000000000000000000000000000000000000000 DUP2 MSTORE POP DUP2 MSTORE PUSH1 0x20 ADD PUSH1 0x40 DUP1 MLOAD SWAP1 DUP2 ADD PUSH1 0x40 MSTORE DUP1 PUSH1 0x3 DUP2 MSTORE PUSH1 0x20 ADD PUSH32 0x7878780000000000000000000000000000000000000000000000000000000000 DUP2 MSTORE POP DUP2 MSTORE POP SWAP1 POP PUSH2 0x19F7 PUSH2 0x20EB JUMP JUMPDEST PUSH1 0x80 PUSH1 0x40 MLOAD SWAP1 DUP2 ADD PUSH1 0x40 MSTORE DUP1 PUSH1 0x1 PUSH1 0x40 MLOAD SWAP1 DUP1 DUP3 MSTORE DUP1 PUSH1 0x20 MUL PUSH1 0x20 ADD DUP3 ADD PUSH1 0x40 MSTORE DUP1 ISZERO PUSH2 0x1A38 JUMPI DUP2 PUSH1 0x20 ADD JUMPDEST PUSH1 0x60 DUP2 MSTORE PUSH1 0x20 ADD SWAP1 PUSH1 0x1 SWAP1 SUB SWAP1 DUP2 PUSH2 0x1A23 JUMPI SWAP1 POP JUMPDEST POP DUP2 MSTORE PUSH1 0x20 ADD PUSH1 0x1 PUSH1 0x40 MLOAD SWAP1 DUP1 DUP3 MSTORE DUP1 PUSH1 0x20 MUL PUSH1 0x20 ADD DUP3 ADD PUSH1 0x40 MSTORE DUP1 ISZERO PUSH2 0x1A73 JUMPI DUP2 PUSH1 0x20 ADD JUMPDEST PUSH1 0x60 DUP2 MSTORE PUSH1 0x20 ADD SWAP1 PUSH1 0x1 SWAP1 SUB SWAP1 DUP2 PUSH2 0x1A5E JUMPI SWAP1 POP JUMPDEST POP DUP2 MSTORE PUSH1 0x20 ADD PUSH1 0x1 PUSH1 0x40 MLOAD SWAP1 DUP1 DUP3 MSTORE DUP1 PUSH1 0x20 MUL PUSH1 0x20 ADD DUP3 ADD PUSH1 0x40 MSTORE DUP1 ISZERO PUSH2 0x1AAE JUMPI DUP2 PUSH1 0x20 ADD JUMPDEST PUSH1 0x60 DUP2 MSTORE PUSH1 0x20 ADD SWAP1 PUSH1 0x1 SWAP1 SUB SWAP1 DUP2 PUSH2 0x1A99 JUMPI SWAP1 POP JUMPDEST POP DUP2 MSTORE PUSH1 0x20 ADD PUSH1 0x1 PUSH1 0x40 MLOAD SWAP1 DUP1 DUP3 MSTORE DUP1 PUSH1 0x20 MUL PUSH1 0x20 ADD DUP3 ADD PUSH1 0x40 MSTORE DUP1 ISZERO PUSH2 0x1AE9 JUMPI DUP2 PUSH1 0x20 ADD JUMPDEST PUSH1 0x60 DUP2 MSTORE PUSH1 0x20 ADD SWAP1 PUSH1 0x1 SWAP1 SUB SWAP1 DUP2 PUSH2 0x1AD4 JUMPI SWAP1 POP JUMPDEST POP DUP2 MSTORE POP SWAP1 POP PUSH1 0x0 DUP4 DUP4 DUP4 SWAP7 POP SWAP7 POP SWAP7 POP SWAP7 POP POP POP POP JUMPDEST SWAP1 SWAP2 SWAP3 SWAP4 JUMP JUMPDEST PUSH1 0x15 PUSH1 0x40 MLOAD PUSH1 0x20 ADD DUP1 DUP3 DUP1 SLOAD PUSH1 0x1 DUP2 PUSH1 0x1 AND ISZERO PUSH2 0x100 MUL SUB AND PUSH1 0x2 SWAP1 DIV DUP1 ISZERO PUSH2 0x1B66 JUMPI DUP1 PUSH1 0x1F LT PUSH2 0x1B44 JUMPI PUSH2 0x100 DUP1 DUP4 SLOAD DIV MUL DUP4 MSTORE SWAP2 DUP3 ADD SWAP2 PUSH2 0x1B66 JUMP JUMPDEST DUP3 ADD SWAP2 SWAP1 PUSH1 0x0 MSTORE PUSH1 0x20 PUSH1 0x0 KECCAK256 SWAP1 JUMPDEST DUP2 SLOAD DUP2 MSTORE SWAP1 PUSH1 0x1 ADD SWAP1 PUSH1 0x20 ADD DUP1 DUP4 GT PUSH2 0x1B52 JUMPI JUMPDEST POP POP SWAP2 POP POP PUSH1 0x40 MLOAD PUSH1 0x20 DUP2 DUP4 SUB SUB DUP2 MSTORE SWAP1 PUSH1 0x40 MSTORE DUP1 MLOAD SWAP1 PUSH1 0x20 ADD KECCAK256 DUP2 PUSH1 0x40 MLOAD PUSH1 0x20 ADD DUP1 DUP3 DUP1 MLOAD SWAP1 PUSH1 0x20 ADD SWAP1 DUP1 DUP4 DUP4 JUMPDEST PUSH1 0x20 DUP4 LT ISZERO ISZERO PUSH2 0x1BBA JUMPI DUP1 MLOAD DUP3 MSTORE PUSH1 0x20 DUP3 ADD SWAP2 POP PUSH1 0x20 DUP2 ADD SWAP1 POP PUSH1 0x20 DUP4 SUB SWAP3 POP PUSH2 0x1B95 JUMP JUMPDEST PUSH1 0x1 DUP4 PUSH1 0x20 SUB PUSH2 0x100 EXP SUB DUP1 NOT DUP3 MLOAD AND DUP2 DUP5 MLOAD AND DUP1 DUP3 OR DUP6 MSTORE POP POP POP POP POP POP SWAP1 POP ADD SWAP2 POP POP PUSH1 0x40 MLOAD PUSH1 0x20 DUP2 DUP4 SUB SUB DUP2 MSTORE SWAP1 PUSH1 0x40 MSTORE DUP1 MLOAD SWAP1 PUSH1 0x20 ADD KECCAK256 EQ ISZERO PUSH2 0x1C54 JUMPI PUSH1 0x1 PUSH1 0x14 PUSH1 0x0 DUP5 PUSH20 0xFFFFFFFFFFFFFFFFFFFFFFFFFFFFFFFFFFFFFFFF AND PUSH20 0xFFFFFFFFFFFFFFFFFFFFFFFFFFFFFFFFFFFFFFFF AND DUP2 MSTORE PUSH1 0x20 ADD SWAP1 DUP2 MSTORE PUSH1 0x20 ADD PUSH1 0x0 KECCAK256 PUSH1 0x0 PUSH2 0x100 EXP DUP2 SLOAD DUP2 PUSH1 0xFF MUL NOT AND SWAP1 DUP4 ISZERO ISZERO MUL OR SWAP1 SSTORE POP JUMPDEST POP POP JUMP JUMPDEST PUSH1 0x0 PUSH1 0x15 PUSH1 0x40 MLOAD PUSH1 0x20 ADD DUP1 DUP3 DUP1 SLOAD PUSH1 0x1 DUP2 PUSH1 0x1 AND ISZERO PUSH2 0x100 MUL SUB AND PUSH1 0x2 SWAP1 DIV DUP1 ISZERO PUSH2 0x1CBA JUMPI DUP1 PUSH1 0x1F LT PUSH2 0x1C98 JUMPI PUSH2 0x100 DUP1 DUP4 SLOAD DIV MUL DUP4 MSTORE SWAP2 DUP3 ADD SWAP2 PUSH2 0x1CBA JUMP JUMPDEST DUP3 ADD SWAP2 SWAP1 PUSH1 0x0 MSTORE PUSH1 0x20 PUSH1 0x0 KECCAK256 SWAP1 JUMPDEST DUP2 SLOAD DUP2 MSTORE SWAP1 PUSH1 0x1 ADD SWAP1 PUSH1 0x20 ADD DUP1 DUP4 GT PUSH2 0x1CA6 JUMPI JUMPDEST POP POP SWAP2 POP POP PUSH1 0x40 MLOAD PUSH1 0x20 DUP2 DUP4 SUB SUB DUP2 MSTORE SWAP1 PUSH1 0x40 MSTORE DUP1 MLOAD SWAP1 PUSH1 0x20 ADD KECCAK256 DUP3 PUSH1 0x40 MLOAD PUSH1 0x20 ADD DUP1 DUP3 DUP1 MLOAD SWAP1 PUSH1 0x20 ADD SWAP1 DUP1 DUP4 DUP4 JUMPDEST PUSH1 0x20 DUP4 LT ISZERO ISZERO PUSH2 0x1D0E JUMPI DUP1 MLOAD DUP3 MSTORE PUSH1 0x20 DUP3 ADD SWAP2 POP PUSH1 0x20 DUP2 ADD SWAP1 POP PUSH1 0x20 DUP4 SUB SWAP3 POP PUSH2 0x1CE9 JUMP JUMPDEST PUSH1 0x1 DUP4 PUSH1 0x20 SUB PUSH2 0x100 EXP SUB DUP1 NOT DUP3 MLOAD AND DUP2 DUP5 MLOAD AND DUP1 DUP3 OR DUP6 MSTORE POP POP POP POP POP POP SWAP1 POP ADD SWAP2 POP POP PUSH1 0x40 MLOAD PUSH1 0x20 DUP2 DUP4 SUB SUB DUP2 MSTORE SWAP1 PUSH1 0x40 MSTORE DUP1 MLOAD SWAP1 PUSH1 0x20 ADD KECCAK256 EQ ISZERO PUSH2 0x1D58 JUMPI PUSH1 0x1 SWAP1 POP PUSH2 0x1D5D JUMP JUMPDEST PUSH1 0x0 SWAP1 POP JUMPDEST SWAP2 SWAP1 POP JUMP JUMPDEST PUSH1 0x14 PUSH1 0x20 MSTORE DUP1 PUSH1 0x0 MSTORE PUSH1 0x40 PUSH1 0x0 KECCAK256 PUSH1 0x0 SWAP2 POP SLOAD SWAP1 PUSH2 0x100 EXP SWAP1 DIV PUSH1 0xFF AND DUP2 JUMP JUMPDEST PUSH1 0x0 DUP1 PUSH20 0xD8693BAFBA8A45BE8DFD090FA032AB4E5E8A504C SWAP1 POP PUSH1 0x0 DUP2 PUSH20 0xFFFFFFFFFFFFFFFFFFFFFFFFFFFFFFFFFFFFFFFF AND PUSH4 0xFF76A739 PUSH1 0x40 MLOAD DUP2 PUSH4 0xFFFFFFFF AND PUSH29 0x100000000000000000000000000000000000000000000000000000000 MUL DUP2 MSTORE PUSH1 0x4 ADD PUSH1 0x20 PUSH1 0x40 MLOAD DUP1 DUP4 SUB DUP2 DUP7 DUP1 EXTCODESIZE ISZERO DUP1 ISZERO PUSH2 0x1E00 JUMPI PUSH1 0x0 DUP1 REVERT JUMPDEST POP GAS STATICCALL ISZERO DUP1 ISZERO PUSH2 0x1E14 JUMPI RETURNDATASIZE PUSH1 0x0 DUP1 RETURNDATACOPY RETURNDATASIZE PUSH1 0x0 REVERT JUMPDEST POP POP POP POP PUSH1 0x40 MLOAD RETURNDATASIZE PUSH1 0x1F NOT PUSH1 0x1F DUP3 ADD AND DUP3 ADD DUP1 PUSH1 0x40 MSTORE POP PUSH2 0x1E38 SWAP2 SWAP1 DUP2 ADD SWAP1 PUSH2 0x21F4 JUMP JUMPDEST SWAP1 POP DUP1 PUSH20 0xFFFFFFFFFFFFFFFFFFFFFFFFFFFFFFFFFFFFFFFF AND PUSH4 0x996440C6 DUP6 PUSH1 0x40 MLOAD DUP3 PUSH4 0xFFFFFFFF AND PUSH29 0x100000000000000000000000000000000000000000000000000000000 MUL DUP2 MSTORE PUSH1 0x4 ADD PUSH2 0x1E8F SWAP2 SWAP1 PUSH2 0x2880 JUMP JUMPDEST PUSH1 0x20 PUSH1 0x40 MLOAD DUP1 DUP4 SUB DUP2 DUP7 DUP1 EXTCODESIZE ISZERO DUP1 ISZERO PUSH2 0x1EA7 JUMPI PUSH1 0x0 DUP1 REVERT JUMPDEST POP GAS STATICCALL ISZERO DUP1 ISZERO PUSH2 0x1EBB JUMPI RETURNDATASIZE PUSH1 0x0 DUP1 RETURNDATACOPY RETURNDATASIZE PUSH1 0x0 REVERT JUMPDEST POP POP POP POP PUSH1 0x40 MLOAD RETURNDATASIZE PUSH1 0x1F NOT PUSH1 0x1F DUP3 ADD AND DUP3 ADD DUP1 PUSH1 0x40 MSTORE POP PUSH2 0x1EDF SWAP2 SWAP1 DUP2 ADD SWAP1 PUSH2 0x2271 JUMP JUMPDEST ISZERO PUSH2 0x1F53 JUMPI PUSH1 0x1 ISZERO ISZERO PUSH1 0x14 PUSH1 0x0 DUP7 PUSH20 0xFFFFFFFFFFFFFFFFFFFFFFFFFFFFFFFFFFFFFFFF AND PUSH20 0xFFFFFFFFFFFFFFFFFFFFFFFFFFFFFFFFFFFFFFFF AND DUP2 MSTORE PUSH1 0x20 ADD SWAP1 DUP2 MSTORE PUSH1 0x20 ADD PUSH1 0x0 KECCAK256 PUSH1 0x0 SWAP1 SLOAD SWAP1 PUSH2 0x100 EXP SWAP1 DIV PUSH1 0xFF AND ISZERO ISZERO EQ ISZERO PUSH2 0x1F48 JUMPI PUSH1 0x1 SWAP3 POP POP POP PUSH2 0x1F5A JUMP JUMPDEST PUSH1 0x0 SWAP3 POP POP POP PUSH2 0x1F5A JUMP JUMPDEST PUSH1 0x0 SWAP3 POP POP POP JUMPDEST SWAP2 SWAP1 POP JUMP JUMPDEST DUP3 DUP1 SLOAD PUSH1 0x1 DUP2 PUSH1 0x1 AND ISZERO PUSH2 0x100 MUL SUB AND PUSH1 0x2 SWAP1 DIV SWAP1 PUSH1 0x0 MSTORE PUSH1 0x20 PUSH1 0x0 KECCAK256 SWAP1 PUSH1 0x1F ADD PUSH1 0x20 SWAP1 DIV DUP2 ADD SWAP3 DUP3 PUSH1 0x1F LT PUSH2 0x1FA0 JUMPI DUP1 MLOAD PUSH1 0xFF NOT AND DUP4 DUP1 ADD OR DUP6 SSTORE PUSH2 0x1FCE JUMP JUMPDEST DUP3 DUP1 ADD PUSH1 0x1 ADD DUP6 SSTORE DUP3 ISZERO PUSH2 0x1FCE JUMPI SWAP2 DUP3 ADD JUMPDEST DUP3 DUP2 GT ISZERO PUSH2 0x1FCD JUMPI DUP3 MLOAD DUP3 SSTORE SWAP2 PUSH1 0x20 ADD SWAP2 SWAP1 PUSH1 0x1 ADD SWAP1 PUSH2 0x1FB2 JUMP JUMPDEST JUMPDEST POP SWAP1 POP PUSH2 0x1FDB SWAP2 SWAP1 PUSH2 0x2114 JUMP JUMPDEST POP SWAP1 JUMP JUMPDEST PUSH2 0x100 PUSH1 0x40 MLOAD SWAP1 DUP2 ADD PUSH1 0x40 MSTORE DUP1 PUSH1 0x60 DUP2 MSTORE PUSH1 0x20 ADD PUSH1 0x60 DUP2 MSTORE PUSH1 0x20 ADD PUSH1 0x60 DUP2 MSTORE PUSH1 0x20 ADD PUSH1 0x60 DUP2 MSTORE PUSH1 0x20 ADD PUSH1 0x60 DUP2 MSTORE PUSH1 0x20 ADD PUSH1 0x60 DUP2 MSTORE PUSH1 0x20 ADD PUSH1 0x60 DUP2 MSTORE PUSH1 0x20 ADD PUSH1 0x60 DUP2 MSTORE POP SWAP1 JUMP JUMPDEST DUP3 DUP1 SLOAD PUSH1 0x1 DUP2 PUSH1 0x1 AND ISZERO PUSH2 0x100 MUL SUB AND PUSH1 0x2 SWAP1 DIV SWAP1 PUSH1 0x0 MSTORE PUSH1 0x20 PUSH1 0x0 KECCAK256 SWAP1 PUSH1 0x1F ADD PUSH1 0x20 SWAP1 DIV DUP2 ADD SWAP3 DUP3 PUSH1 0x1F LT PUSH2 0x2066 JUMPI DUP1 MLOAD PUSH1 0xFF NOT AND DUP4 DUP1 ADD OR DUP6 SSTORE PUSH2 0x2094 JUMP JUMPDEST DUP3 DUP1 ADD PUSH1 0x1 ADD DUP6 SSTORE DUP3 ISZERO PUSH2 0x2094 JUMPI SWAP2 DUP3 ADD JUMPDEST DUP3 DUP2 GT ISZERO PUSH2 0x2093 JUMPI DUP3 MLOAD DUP3 SSTORE SWAP2 PUSH1 0x20 ADD SWAP2 SWAP1 PUSH1 0x1 ADD SWAP1 PUSH2 0x2078 JUMP JUMPDEST JUMPDEST POP SWAP1 POP PUSH2 0x20A1 SWAP2 SWAP1 PUSH2 0x2114 JUMP JUMPDEST POP SWAP1 JUMP JUMPDEST PUSH2 0x100 PUSH1 0x40 MLOAD SWAP1 DUP2 ADD PUSH1 0x40 MSTORE DUP1 PUSH1 0x60 DUP2 MSTORE PUSH1 0x20 ADD PUSH1 0x60 DUP2 MSTORE PUSH1 0x20 ADD PUSH1 0x60 DUP2 MSTORE PUSH1 0x20 ADD PUSH1 0x60 DUP2 MSTORE PUSH1 0x20 ADD PUSH1 0x0 DUP2 MSTORE PUSH1 0x20 ADD PUSH1 0x60 DUP2 MSTORE PUSH1 0x20 ADD PUSH1 0x60 DUP2 MSTORE PUSH1 0x20 ADD PUSH1 0x60 DUP2 MSTORE POP SWAP1 JUMP JUMPDEST PUSH1 0x80 PUSH1 0x40 MLOAD SWAP1 DUP2 ADD PUSH1 0x40 MSTORE DUP1 PUSH1 0x60 DUP2 MSTORE PUSH1 0x20 ADD PUSH1 0x60 DUP2 MSTORE PUSH1 0x20 ADD PUSH1 0x60 DUP2 MSTORE PUSH1 0x20 ADD PUSH1 0x60 DUP2 MSTORE POP SWAP1 JUMP JUMPDEST PUSH2 0x2136 SWAP2 SWAP1 JUMPDEST DUP1 DUP3 GT ISZERO PUSH2 0x2132 JUMPI PUSH1 0x0 DUP2 PUSH1 0x0 SWAP1 SSTORE POP PUSH1 0x1 ADD PUSH2 0x211A JUMP JUMPDEST POP SWAP1 JUMP JUMPDEST SWAP1 JUMP JUMPDEST PUSH1 0x0 PUSH2 0x2145 DUP3 CALLDATALOAD PUSH2 0x2A03 JUMP JUMPDEST SWAP1 POP SWAP3 SWAP2 POP POP JUMP JUMPDEST PUSH1 0x0 PUSH2 0x2159 DUP3 MLOAD PUSH2 0x2A03 JUMP JUMPDEST SWAP1 POP SWAP3 SWAP2 POP POP JUMP JUMPDEST PUSH1 0x0 PUSH2 0x216D DUP3 MLOAD PUSH2 0x2A15 JUMP JUMPDEST SWAP1 POP SWAP3 SWAP2 POP POP JUMP JUMPDEST PUSH1 0x0 DUP3 PUSH1 0x1F DUP4 ADD SLT ISZERO ISZERO PUSH2 0x2188 JUMPI PUSH1 0x0 DUP1 REVERT JUMPDEST DUP2 CALLDATALOAD PUSH2 0x219B PUSH2 0x2196 DUP3 PUSH2 0x295F JUMP JUMPDEST PUSH2 0x2932 JUMP JUMPDEST SWAP2 POP DUP1 DUP3 MSTORE PUSH1 0x20 DUP4 ADD PUSH1 0x20 DUP4 ADD DUP6 DUP4 DUP4 ADD GT ISZERO PUSH2 0x21B7 JUMPI PUSH1 0x0 DUP1 REVERT JUMPDEST PUSH2 0x21C2 DUP4 DUP3 DUP5 PUSH2 0x2A21 JUMP JUMPDEST POP POP POP SWAP3 SWAP2 POP POP JUMP JUMPDEST PUSH1 0x0 PUSH1 0x20 DUP3 DUP5 SUB SLT ISZERO PUSH2 0x21DD JUMPI PUSH1 0x0 DUP1 REVERT JUMPDEST PUSH1 0x0 PUSH2 0x21EB DUP5 DUP3 DUP6 ADD PUSH2 0x2139 JUMP JUMPDEST SWAP2 POP POP SWAP3 SWAP2 POP POP JUMP JUMPDEST PUSH1 0x0 PUSH1 0x20 DUP3 DUP5 SUB SLT ISZERO PUSH2 0x2206 JUMPI PUSH1 0x0 DUP1 REVERT JUMPDEST PUSH1 0x0 PUSH2 0x2214 DUP5 DUP3 DUP6 ADD PUSH2 0x214D JUMP JUMPDEST SWAP2 POP POP SWAP3 SWAP2 POP POP JUMP JUMPDEST PUSH1 0x0 DUP1 PUSH1 0x40 DUP4 DUP6 SUB SLT ISZERO PUSH2 0x2230 JUMPI PUSH1 0x0 DUP1 REVERT JUMPDEST PUSH1 0x0 PUSH2 0x223E DUP6 DUP3 DUP7 ADD PUSH2 0x2139 JUMP JUMPDEST SWAP3 POP POP PUSH1 0x20 DUP4 ADD CALLDATALOAD PUSH8 0xFFFFFFFFFFFFFFFF DUP2 GT ISZERO PUSH2 0x225B JUMPI PUSH1 0x0 DUP1 REVERT JUMPDEST PUSH2 0x2267 DUP6 DUP3 DUP7 ADD PUSH2 0x2175 JUMP JUMPDEST SWAP2 POP POP SWAP3 POP SWAP3 SWAP1 POP JUMP JUMPDEST PUSH1 0x0 PUSH1 0x20 DUP3 DUP5 SUB SLT ISZERO PUSH2 0x2283 JUMPI PUSH1 0x0 DUP1 REVERT JUMPDEST PUSH1 0x0 PUSH2 0x2291 DUP5 DUP3 DUP6 ADD PUSH2 0x2161 JUMP JUMPDEST SWAP2 POP POP SWAP3 SWAP2 POP POP JUMP JUMPDEST PUSH1 0x0 PUSH1 0x20 DUP3 DUP5 SUB SLT ISZERO PUSH2 0x22AC JUMPI PUSH1 0x0 DUP1 REVERT JUMPDEST PUSH1 0x0 DUP3 ADD CALLDATALOAD PUSH8 0xFFFFFFFFFFFFFFFF DUP2 GT ISZERO PUSH2 0x22C6 JUMPI PUSH1 0x0 DUP1 REVERT JUMPDEST PUSH2 0x22D2 DUP5 DUP3 DUP6 ADD PUSH2 0x2175 JUMP JUMPDEST SWAP2 POP POP SWAP3 SWAP2 POP POP JUMP JUMPDEST PUSH1 0x0 DUP1 PUSH1 0x40 DUP4 DUP6 SUB SLT ISZERO PUSH2 0x22EE JUMPI PUSH1 0x0 DUP1 REVERT JUMPDEST PUSH1 0x0 DUP4 ADD CALLDATALOAD PUSH8 0xFFFFFFFFFFFFFFFF DUP2 GT ISZERO PUSH2 0x2308 JUMPI PUSH1 0x0 DUP1 REVERT JUMPDEST PUSH2 0x2314 DUP6 DUP3 DUP7 ADD PUSH2 0x2175 JUMP JUMPDEST SWAP3 POP POP PUSH1 0x20 DUP4 ADD CALLDATALOAD PUSH8 0xFFFFFFFFFFFFFFFF DUP2 GT ISZERO PUSH2 0x2331 JUMPI PUSH1 0x0 DUP1 REVERT JUMPDEST PUSH2 0x233D DUP6 DUP3 DUP7 ADD PUSH2 0x2175 JUMP JUMPDEST SWAP2 POP POP SWAP3 POP SWAP3 SWAP1 POP JUMP JUMPDEST PUSH1 0x0 DUP1 PUSH1 0x0 DUP1 PUSH1 0x80 DUP6 DUP8 SUB SLT ISZERO PUSH2 0x235D JUMPI PUSH1 0x0 DUP1 REVERT JUMPDEST PUSH1 0x0 DUP6 ADD CALLDATALOAD PUSH8 0xFFFFFFFFFFFFFFFF DUP2 GT ISZERO PUSH2 0x2377 JUMPI PUSH1 0x0 DUP1 REVERT JUMPDEST PUSH2 0x2383 DUP8 DUP3 DUP9 ADD PUSH2 0x2175 JUMP JUMPDEST SWAP5 POP POP PUSH1 0x20 DUP6 ADD CALLDATALOAD PUSH8 0xFFFFFFFFFFFFFFFF DUP2 GT ISZERO PUSH2 0x23A0 JUMPI PUSH1 0x0 DUP1 REVERT JUMPDEST PUSH2 0x23AC DUP8 DUP3 DUP9 ADD PUSH2 0x2175 JUMP JUMPDEST SWAP4 POP POP PUSH1 0x40 DUP6 ADD CALLDATALOAD PUSH8 0xFFFFFFFFFFFFFFFF DUP2 GT ISZERO PUSH2 0x23C9 JUMPI PUSH1 0x0 DUP1 REVERT JUMPDEST PUSH2 0x23D5 DUP8 DUP3 DUP9 ADD PUSH2 0x2175 JUMP JUMPDEST SWAP3 POP POP PUSH1 0x60 DUP6 ADD CALLDATALOAD PUSH8 0xFFFFFFFFFFFFFFFF DUP2 GT ISZERO PUSH2 0x23F2 JUMPI PUSH1 0x0 DUP1 REVERT JUMPDEST PUSH2 0x23FE DUP8 DUP3 DUP9 ADD PUSH2 0x2175 JUMP JUMPDEST SWAP2 POP POP SWAP3 SWAP6 SWAP2 SWAP5 POP SWAP3 POP JUMP JUMPDEST PUSH1 0x0 DUP1 PUSH1 0x0 DUP1 PUSH1 0x0 DUP1 PUSH1 0x0 DUP1 PUSH2 0x100 DUP10 DUP12 SUB SLT ISZERO PUSH2 0x2427 JUMPI PUSH1 0x0 DUP1 REVERT JUMPDEST PUSH1 0x0 DUP10 ADD CALLDATALOAD PUSH8 0xFFFFFFFFFFFFFFFF DUP2 GT ISZERO PUSH2 0x2441 JUMPI PUSH1 0x0 DUP1 REVERT JUMPDEST PUSH2 0x244D DUP12 DUP3 DUP13 ADD PUSH2 0x2175 JUMP JUMPDEST SWAP9 POP POP PUSH1 0x20 DUP10 ADD CALLDATALOAD PUSH8 0xFFFFFFFFFFFFFFFF DUP2 GT ISZERO PUSH2 0x246A JUMPI PUSH1 0x0 DUP1 REVERT JUMPDEST PUSH2 0x2476 DUP12 DUP3 DUP13 ADD PUSH2 0x2175 JUMP JUMPDEST SWAP8 POP POP PUSH1 0x40 DUP10 ADD CALLDATALOAD PUSH8 0xFFFFFFFFFFFFFFFF DUP2 GT ISZERO PUSH2 0x2493 JUMPI PUSH1 0x0 DUP1 REVERT JUMPDEST PUSH2 0x249F DUP12 DUP3 DUP13 ADD PUSH2 0x2175 JUMP JUMPDEST SWAP7 POP POP PUSH1 0x60 DUP10 ADD CALLDATALOAD PUSH8 0xFFFFFFFFFFFFFFFF DUP2 GT ISZERO PUSH2 0x24BC JUMPI PUSH1 0x0 DUP1 REVERT JUMPDEST PUSH2 0x24C8 DUP12 DUP3 DUP13 ADD PUSH2 0x2175 JUMP JUMPDEST SWAP6 POP POP PUSH1 0x80 DUP10 ADD CALLDATALOAD PUSH8 0xFFFFFFFFFFFFFFFF DUP2 GT ISZERO PUSH2 0x24E5 JUMPI PUSH1 0x0 DUP1 REVERT JUMPDEST PUSH2 0x24F1 DUP12 DUP3 DUP13 ADD PUSH2 0x2175 JUMP JUMPDEST SWAP5 POP POP PUSH1 0xA0 DUP10 ADD CALLDATALOAD PUSH8 0xFFFFFFFFFFFFFFFF DUP2 GT ISZERO PUSH2 0x250E JUMPI PUSH1 0x0 DUP1 REVERT JUMPDEST PUSH2 0x251A DUP12 DUP3 DUP13 ADD PUSH2 0x2175 JUMP JUMPDEST SWAP4 POP POP PUSH1 0xC0 DUP10 ADD CALLDATALOAD PUSH8 0xFFFFFFFFFFFFFFFF DUP2 GT ISZERO PUSH2 0x2537 JUMPI PUSH1 0x0 DUP1 REVERT JUMPDEST PUSH2 0x2543 DUP12 DUP3 DUP13 ADD PUSH2 0x2175 JUMP JUMPDEST SWAP3 POP POP PUSH1 0xE0 DUP10 ADD CALLDATALOAD PUSH8 0xFFFFFFFFFFFFFFFF DUP2 GT ISZERO PUSH2 0x2560 JUMPI PUSH1 0x0 DUP1 REVERT JUMPDEST PUSH2 0x256C DUP12 DUP3 DUP13 ADD PUSH2 0x2175 JUMP JUMPDEST SWAP2 POP POP SWAP3 SWAP6 SWAP9 POP SWAP3 SWAP6 SWAP9 SWAP1 SWAP4 SWAP7 POP JUMP JUMPDEST PUSH2 0x2585 DUP2 PUSH2 0x29BB JUMP JUMPDEST DUP3 MSTORE POP POP JUMP JUMPDEST PUSH1 0x0 PUSH2 0x2596 DUP3 PUSH2 0x2998 JUMP JUMPDEST DUP1 DUP5 MSTORE PUSH1 0x20 DUP5 ADD SWAP4 POP DUP4 PUSH1 0x20 DUP3 MUL DUP6 ADD PUSH2 0x25AF DUP6 PUSH2 0x298B JUMP JUMPDEST PUSH1 0x0 JUMPDEST DUP5 DUP2 LT ISZERO PUSH2 0x25E8 JUMPI DUP4 DUP4 SUB DUP9 MSTORE PUSH2 0x25CA DUP4 DUP4 MLOAD PUSH2 0x2617 JUMP JUMPDEST SWAP3 POP PUSH2 0x25D5 DUP3 PUSH2 0x29AE JUMP JUMPDEST SWAP2 POP PUSH1 0x20 DUP9 ADD SWAP8 POP PUSH1 0x1 DUP2 ADD SWAP1 POP PUSH2 0x25B2 JUMP JUMPDEST POP DUP2 SWAP7 POP DUP7 SWAP5 POP POP POP POP POP SWAP3 SWAP2 POP POP JUMP JUMPDEST PUSH2 0x2602 DUP2 PUSH2 0x29CD JUMP JUMPDEST DUP3 MSTORE POP POP JUMP JUMPDEST PUSH2 0x2611 DUP2 PUSH2 0x29D9 JUMP JUMPDEST DUP3 MSTORE POP POP JUMP JUMPDEST PUSH1 0x0 PUSH2 0x2622 DUP3 PUSH2 0x29A3 JUMP JUMPDEST DUP1 DUP5 MSTORE PUSH2 0x2636 DUP2 PUSH1 0x20 DUP7 ADD PUSH1 0x20 DUP7 ADD PUSH2 0x2A30 JUMP JUMPDEST PUSH2 0x263F DUP2 PUSH2 0x2A63 JUMP JUMPDEST PUSH1 0x20 DUP6 ADD ADD SWAP2 POP POP SWAP3 SWAP2 POP POP JUMP JUMPDEST PUSH1 0x0 PUSH1 0x80 DUP4 ADD PUSH1 0x0 DUP4 ADD MLOAD DUP5 DUP3 SUB PUSH1 0x0 DUP7 ADD MSTORE PUSH2 0x266A DUP3 DUP3 PUSH2 0x258B JUMP JUMPDEST SWAP2 POP POP PUSH1 0x20 DUP4 ADD MLOAD DUP5 DUP3 SUB PUSH1 0x20 DUP7 ADD MSTORE PUSH2 0x2684 DUP3 DUP3 PUSH2 0x258B JUMP JUMPDEST SWAP2 POP POP PUSH1 0x40 DUP4 ADD MLOAD DUP5 DUP3 SUB PUSH1 0x40 DUP7 ADD MSTORE PUSH2 0x269E DUP3 DUP3 PUSH2 0x258B JUMP JUMPDEST SWAP2 POP POP PUSH1 0x60 DUP4 ADD MLOAD DUP5 DUP3 SUB PUSH1 0x60 DUP7 ADD MSTORE PUSH2 0x26B8 DUP3 DUP3 PUSH2 0x258B JUMP JUMPDEST SWAP2 POP POP DUP1 SWAP2 POP POP SWAP3 SWAP2 POP POP JUMP JUMPDEST PUSH1 0x0 PUSH2 0x100 DUP4 ADD PUSH1 0x0 DUP4 ADD MLOAD DUP5 DUP3 SUB PUSH1 0x0 DUP7 ADD MSTORE PUSH2 0x26E3 DUP3 DUP3 PUSH2 0x2617 JUMP JUMPDEST SWAP2 POP POP PUSH1 0x20 DUP4 ADD MLOAD DUP5 DUP3 SUB PUSH1 0x20 DUP7 ADD MSTORE PUSH2 0x26FD DUP3 DUP3 PUSH2 0x2617 JUMP JUMPDEST SWAP2 POP POP PUSH1 0x40 DUP4 ADD MLOAD DUP5 DUP3 SUB PUSH1 0x40 DUP7 ADD MSTORE PUSH2 0x2717 DUP3 DUP3 PUSH2 0x2617 JUMP JUMPDEST SWAP2 POP POP PUSH1 0x60 DUP4 ADD MLOAD DUP5 DUP3 SUB PUSH1 0x60 DUP7 ADD MSTORE PUSH2 0x2731 DUP3 DUP3 PUSH2 0x2617 JUMP JUMPDEST SWAP2 POP POP PUSH1 0x80 DUP4 ADD MLOAD PUSH2 0x2746 PUSH1 0x80 DUP7 ADD DUP3 PUSH2 0x2608 JUMP JUMPDEST POP PUSH1 0xA0 DUP4 ADD MLOAD DUP5 DUP3 SUB PUSH1 0xA0 DUP7 ADD MSTORE PUSH2 0x275E DUP3 DUP3 PUSH2 0x2617 JUMP JUMPDEST SWAP2 POP POP PUSH1 0xC0 DUP4 ADD MLOAD DUP5 DUP3 SUB PUSH1 0xC0 DUP7 ADD MSTORE PUSH2 0x2778 DUP3 DUP3 PUSH2 0x2617 JUMP JUMPDEST SWAP2 POP POP PUSH1 0xE0 DUP4 ADD MLOAD DUP5 DUP3 SUB PUSH1 0xE0 DUP7 ADD MSTORE PUSH2 0x2792 DUP3 DUP3 PUSH2 0x2617 JUMP JUMPDEST SWAP2 POP POP DUP1 SWAP2 POP POP SWAP3 SWAP2 POP POP JUMP JUMPDEST PUSH1 0x0 PUSH2 0x100 DUP4 ADD PUSH1 0x0 DUP4 ADD MLOAD DUP5 DUP3 SUB PUSH1 0x0 DUP7 ADD MSTORE PUSH2 0x27BD DUP3 DUP3 PUSH2 0x2617 JUMP JUMPDEST SWAP2 POP POP PUSH1 0x20 DUP4 ADD MLOAD DUP5 DUP3 SUB PUSH1 0x20 DUP7 ADD MSTORE PUSH2 0x27D7 DUP3 DUP3 PUSH2 0x2617 JUMP JUMPDEST SWAP2 POP POP PUSH1 0x40 DUP4 ADD MLOAD DUP5 DUP3 SUB PUSH1 0x40 DUP7 ADD MSTORE PUSH2 0x27F1 DUP3 DUP3 PUSH2 0x2617 JUMP JUMPDEST SWAP2 POP POP PUSH1 0x60 DUP4 ADD MLOAD DUP5 DUP3 SUB PUSH1 0x60 DUP7 ADD MSTORE PUSH2 0x280B DUP3 DUP3 PUSH2 0x2617 JUMP JUMPDEST SWAP2 POP POP PUSH1 0x80 DUP4 ADD MLOAD DUP5 DUP3 SUB PUSH1 0x80 DUP7 ADD MSTORE PUSH2 0x2825 DUP3 DUP3 PUSH2 0x2617 JUMP JUMPDEST SWAP2 POP POP PUSH1 0xA0 DUP4 ADD MLOAD DUP5 DUP3 SUB PUSH1 0xA0 DUP7 ADD MSTORE PUSH2 0x283F DUP3 DUP3 PUSH2 0x2617 JUMP JUMPDEST SWAP2 POP POP PUSH1 0xC0 DUP4 ADD MLOAD DUP5 DUP3 SUB PUSH1 0xC0 DUP7 ADD MSTORE PUSH2 0x2859 DUP3 DUP3 PUSH2 0x2617 JUMP JUMPDEST SWAP2 POP POP PUSH1 0xE0 DUP4 ADD MLOAD DUP5 DUP3 SUB PUSH1 0xE0 DUP7 ADD MSTORE PUSH2 0x2873 DUP3 DUP3 PUSH2 0x2617 JUMP JUMPDEST SWAP2 POP POP DUP1 SWAP2 POP POP SWAP3 SWAP2 POP POP JUMP JUMPDEST PUSH1 0x0 PUSH1 0x20 DUP3 ADD SWAP1 POP PUSH2 0x2895 PUSH1 0x0 DUP4 ADD DUP5 PUSH2 0x257C JUMP JUMPDEST SWAP3 SWAP2 POP POP JUMP JUMPDEST PUSH1 0x0 PUSH1 0x20 DUP3 ADD SWAP1 POP PUSH2 0x28B0 PUSH1 0x0 DUP4 ADD DUP5 PUSH2 0x25F9 JUMP JUMPDEST SWAP3 SWAP2 POP POP JUMP JUMPDEST PUSH1 0x0 PUSH1 0x80 DUP3 ADD SWAP1 POP PUSH2 0x28CB PUSH1 0x0 DUP4 ADD DUP8 PUSH2 0x25F9 JUMP JUMPDEST DUP2 DUP2 SUB PUSH1 0x20 DUP4 ADD MSTORE PUSH2 0x28DD DUP2 DUP7 PUSH2 0x26C5 JUMP JUMPDEST SWAP1 POP DUP2 DUP2 SUB PUSH1 0x40 DUP4 ADD MSTORE PUSH2 0x28F1 DUP2 DUP6 PUSH2 0x279F JUMP JUMPDEST SWAP1 POP DUP2 DUP2 SUB PUSH1 0x60 DUP4 ADD MSTORE PUSH2 0x2905 DUP2 DUP5 PUSH2 0x264D JUMP JUMPDEST SWAP1 POP SWAP6 SWAP5 POP POP POP POP POP JUMP JUMPDEST PUSH1 0x0 PUSH1 0x20 DUP3 ADD SWAP1 POP DUP2 DUP2 SUB PUSH1 0x0 DUP4 ADD MSTORE PUSH2 0x292A DUP2 DUP5 PUSH2 0x2617 JUMP JUMPDEST SWAP1 POP SWAP3 SWAP2 POP POP JUMP JUMPDEST PUSH1 0x0 PUSH1 0x40 MLOAD SWAP1 POP DUP2 DUP2 ADD DUP2 DUP2 LT PUSH8 0xFFFFFFFFFFFFFFFF DUP3 GT OR ISZERO PUSH2 0x2955 JUMPI PUSH1 0x0 DUP1 REVERT JUMPDEST DUP1 PUSH1 0x40 MSTORE POP SWAP2 SWAP1 POP JUMP JUMPDEST PUSH1 0x0 PUSH8 0xFFFFFFFFFFFFFFFF DUP3 GT ISZERO PUSH2 0x2976 JUMPI PUSH1 0x0 DUP1 REVERT JUMPDEST PUSH1 0x1F NOT PUSH1 0x1F DUP4 ADD AND SWAP1 POP PUSH1 0x20 DUP2 ADD SWAP1 POP SWAP2 SWAP1 POP JUMP JUMPDEST PUSH1 0x0 PUSH1 0x20 DUP3 ADD SWAP1 POP SWAP2 SWAP1 POP JUMP JUMPDEST PUSH1 0x0 DUP2 MLOAD SWAP1 POP SWAP2 SWAP1 POP JUMP JUMPDEST PUSH1 0x0 DUP2 MLOAD SWAP1 POP SWAP2 SWAP1 POP JUMP JUMPDEST PUSH1 0x0 PUSH1 0x20 DUP3 ADD SWAP1 POP SWAP2 SWAP1 POP JUMP JUMPDEST PUSH1 0x0 PUSH2 0x29C6 DUP3 PUSH2 0x29E3 JUMP JUMPDEST SWAP1 POP SWAP2 SWAP1 POP JUMP JUMPDEST PUSH1 0x0 DUP2 ISZERO ISZERO SWAP1 POP SWAP2 SWAP1 POP JUMP JUMPDEST PUSH1 0x0 DUP2 SWAP1 POP SWAP2 SWAP1 POP JUMP JUMPDEST PUSH1 0x0 PUSH20 0xFFFFFFFFFFFFFFFFFFFFFFFFFFFFFFFFFFFFFFFF DUP3 AND SWAP1 POP SWAP2 SWAP1 POP JUMP JUMPDEST PUSH1 0x0 PUSH2 0x2A0E DUP3 PUSH2 0x29E3 JUMP JUMPDEST SWAP1 POP SWAP2 SWAP1 POP JUMP JUMPDEST PUSH1 0x0 DUP2 ISZERO ISZERO SWAP1 POP SWAP2 SWAP1 POP JUMP JUMPDEST DUP3 DUP2 DUP4 CALLDATACOPY PUSH1 0x0 DUP4 DUP4 ADD MSTORE POP POP POP JUMP JUMPDEST PUSH1 0x0 JUMPDEST DUP4 DUP2 LT ISZERO PUSH2 0x2A4E JUMPI DUP1 DUP3 ADD MLOAD DUP2 DUP5 ADD MSTORE PUSH1 0x20 DUP2 ADD SWAP1 POP PUSH2 0x2A33 JUMP JUMPDEST DUP4 DUP2 GT ISZERO PUSH2 0x2A5D JUMPI PUSH1 0x0 DUP5 DUP5 ADD MSTORE JUMPDEST POP POP POP POP JUMP JUMPDEST PUSH1 0x0 PUSH1 0x1F NOT PUSH1 0x1F DUP4 ADD AND SWAP1 POP SWAP2 SWAP1 POP JUMP INVALID LOG2 PUSH6 0x627A7A723058 KECCAK256 0xc6 0xda 0x46 0x2f 0xb8 0xf9 PUSH16 0x727940F4DC269BA1D4E88B3774FF518B EXTCODEHASH PUSH13 0xE4B6E7F19D6E376C6578706572 PUSH10 0x6D656E74616CF5003700 "
    },
    "gasEstimates": {
      "creation": {
        "codeDepositCost": "2185200",
        "executionCost": "infinite",
        "totalCost": "infinite"
      },
      "external": {
        "addDoctor(address,string)": "infinite",
        "addFiles(string,string,string,string)": "infinite",
        "addInsurance(string,string)": "infinite",
        "doctorsAllowed(address)": "964",
        "getPatientData()": "infinite",
        "isCorrectPassword(string)": "infinite",
        "isDoctorAllowed(address)": "infinite",
        "password()": "infinite",
        "updateNondemographics(string,string,string,string,string,string,string,string)": "infinite"
      }
    },
    "methodIdentifiers": {
      "addDoctor(address,string)": "7cf1e445",
      "addFiles(string,string,string,string)": "13454beb",
      "addInsurance(string,string)": "05087bf0",
      "doctorsAllowed(address)": "c42b4654",
      "getPatientData()": "4344b743",
      "isCorrectPassword(string)": "7ec35b0a",
      "isDoctorAllowed(address)": "d7065558",
      "password()": "224b610b",
      "updateNondemographics(string,string,string,string,string,string,string,string)": "316b4619"
    }
  },
  "userdoc": {
    "methods": {}
  }
}