{
  "abi": [
    {
      "constant": false,
      "inputs": [
        {
          "name": "add",
          "type": "address"
        }
      ],
      "name": "addNewInsurance",
      "outputs": [],
      "payable": false,
      "stateMutability": "nonpayable",
      "type": "function"
    },
    {
      "constant": true,
      "inputs": [
        {
          "name": "pass",
          "type": "string"
        }
      ],
      "name": "isCorrectPassword",
      "outputs": [
        {
          "name": "",
          "type": "bool"
        }
      ],
      "payable": false,
      "stateMutability": "view",
      "type": "function"
    },
    {
      "constant": false,
      "inputs": [
        {
          "name": "ownerAddd",
          "type": "address"
        },
        {
          "name": "selfAddd",
          "type": "address"
        },
        {
          "name": "titlee",
          "type": "string"
        },
        {
          "name": "detailss",
          "type": "string"
        },
        {
          "name": "fileHash",
          "type": "string"
        },
        {
          "name": "doctorr",
          "type": "bool"
        },
        {
          "name": "ownerrrr",
          "type": "bool"
        },
        {
          "name": "index",
          "type": "uint256"
        }
      ],
      "name": "pendingRequest",
      "outputs": [],
      "payable": false,
      "stateMutability": "nonpayable",
      "type": "function"
    },
    {
      "constant": false,
      "inputs": [
        {
          "name": "index",
          "type": "uint256"
        },
        {
          "name": "flag",
          "type": "bool"
        }
      ],
      "name": "approveCancelRequest",
      "outputs": [],
      "payable": false,
      "stateMutability": "nonpayable",
      "type": "function"
    },
    {
      "constant": true,
      "inputs": [
        {
          "name": "pass",
          "type": "string"
        }
      ],
      "name": "getData",
      "outputs": [
        {
          "name": "",
          "type": "bool"
        },
        {
          "name": "",
          "type": "uint256"
        },
        {
          "name": "",
          "type": "uint256"
        },
        {
          "name": "",
          "type": "uint256"
        },
        {
          "name": "",
          "type": "uint256"
        },
        {
          "name": "",
          "type": "address[]"
        },
        {
          "components": [
            {
              "name": "ownerAdd",
              "type": "address"
            },
            {
              "name": "selfAdd",
              "type": "address"
            },
            {
              "name": "title",
              "type": "string"
            },
            {
              "name": "details",
              "type": "string"
            },
            {
              "name": "doctor",
              "type": "bool"
            },
            {
              "name": "owner",
              "type": "bool"
            },
            {
              "name": "bills",
              "type": "string"
            },
            {
              "name": "index",
              "type": "uint256"
            },
            {
              "name": "pendingRequestsIndex",
              "type": "uint256"
            }
          ],
          "name": "",
          "type": "tuple[]"
        },
        {
          "components": [
            {
              "name": "ownerAdd",
              "type": "address"
            },
            {
              "name": "selfAdd",
              "type": "address"
            },
            {
              "name": "title",
              "type": "string"
            },
            {
              "name": "details",
              "type": "string"
            },
            {
              "name": "doctor",
              "type": "bool"
            },
            {
              "name": "owner",
              "type": "bool"
            },
            {
              "name": "bills",
              "type": "string"
            },
            {
              "name": "index",
              "type": "uint256"
            },
            {
              "name": "pendingRequestsIndex",
              "type": "uint256"
            }
          ],
          "name": "",
          "type": "tuple[]"
        },
        {
          "components": [
            {
              "name": "ownerAdd",
              "type": "address"
            },
            {
              "name": "selfAdd",
              "type": "address"
            },
            {
              "name": "title",
              "type": "string"
            },
            {
              "name": "details",
              "type": "string"
            },
            {
              "name": "doctor",
              "type": "bool"
            },
            {
              "name": "owner",
              "type": "bool"
            },
            {
              "name": "bills",
              "type": "string"
            },
            {
              "name": "index",
              "type": "uint256"
            },
            {
              "name": "pendingRequestsIndex",
              "type": "uint256"
            }
          ],
          "name": "",
          "type": "tuple[]"
        }
      ],
      "payable": false,
      "stateMutability": "view",
      "type": "function"
    },
    {
      "constant": false,
      "inputs": [
        {
          "name": "name",
          "type": "string"
        },
        {
          "name": "aadhar",
          "type": "int256"
        },
        {
          "name": "amount",
          "type": "int256"
        },
        {
          "name": "insDetailss",
          "type": "string"
        },
        {
          "name": "documentss",
          "type": "string"
        },
        {
          "name": "setInsuranceAddresss",
          "type": "int256"
        }
      ],
      "name": "createInsurance",
      "outputs": [],
      "payable": false,
      "stateMutability": "nonpayable",
      "type": "function"
    },
    {
      "inputs": [
        {
          "name": "pass",
          "type": "string"
        },
        {
          "name": "add",
          "type": "address"
        }
      ],
      "payable": false,
      "stateMutability": "nonpayable",
      "type": "constructor"
    }
  ],
  "devdoc": {
    "methods": {}
  },
  "evm": {
    "assembly": "    /* \"background.sol\":11552:16469  contract Owner {\r... */\n  mstore(0x40, 0x80)\n    /* \"background.sol\":12082:12084  -1 */\n  0xffffffffffffffffffffffffffffffffffffffffffffffffffffffffffffffff\n    /* \"background.sol\":12062:12084  int requestsCount = -1 */\n  0x07\n  sstore\n    /* \"background.sol\":12097:12207  constructor(string memory pass, address add) public {\r... */\n  callvalue\n    /* \"--CODEGEN--\":8:17   */\n  dup1\n    /* \"--CODEGEN--\":5:7   */\n  iszero\n  tag_1\n  jumpi\n    /* \"--CODEGEN--\":30:31   */\n  0x00\n    /* \"--CODEGEN--\":27:28   */\n  dup1\n    /* \"--CODEGEN--\":20:32   */\n  revert\n    /* \"--CODEGEN--\":5:7   */\ntag_1:\n    /* \"background.sol\":12097:12207  constructor(string memory pass, address add) public {\r... */\n  pop\n  mload(0x40)\n  sub(codesize, bytecodeSize)\n  dup1\n  bytecodeSize\n  dup4\n  codecopy\n  dup2\n  add\n  dup1\n  0x40\n  mstore\n  tag_2\n  swap2\n  swap1\n  dup2\n  add\n  swap1\n  jump(tag_3)\ntag_2:\n    /* \"background.sol\":12170:12173  add */\n  dup1\n    /* \"background.sol\":12160:12167  manager */\n  0x01\n  0x00\n    /* \"background.sol\":12160:12173  manager = add */\n  0x0100\n  exp\n  dup2\n  sload\n  dup2\n  0xffffffffffffffffffffffffffffffffffffffff\n  mul\n  not\n  and\n  swap1\n  dup4\n  0xffffffffffffffffffffffffffffffffffffffff\n  and\n  mul\n  or\n  swap1\n  sstore\n  pop\n    /* \"background.sol\":12195:12199  pass */\n  dup2\n    /* \"background.sol\":12184:12192  password */\n  0x00\n    /* \"background.sol\":12184:12199  password = pass */\n  swap1\n  dup1\n  mload\n  swap1\n  0x20\n  add\n  swap1\n  tag_6\n  swap3\n  swap2\n  swap1\n  tag_7\n  jump\t// in\ntag_6:\n  pop\n    /* \"background.sol\":12097:12207  constructor(string memory pass, address add) public {\r... */\n  pop\n  pop\n    /* \"background.sol\":11552:16469  contract Owner {\r... */\n  jump(tag_8)\ntag_7:\n  dup3\n  dup1\n  sload\n  0x01\n  dup2\n  0x01\n  and\n  iszero\n  0x0100\n  mul\n  sub\n  and\n  0x02\n  swap1\n  div\n  swap1\n  0x00\n  mstore\n  keccak256(0x00, 0x20)\n  swap1\n  0x1f\n  add\n  0x20\n  swap1\n  div\n  dup2\n  add\n  swap3\n  dup3\n  0x1f\n  lt\n  tag_10\n  jumpi\n  dup1\n  mload\n  not(0xff)\n  and\n  dup4\n  dup1\n  add\n  or\n  dup6\n  sstore\n  jump(tag_9)\ntag_10:\n  dup3\n  dup1\n  add\n  0x01\n  add\n  dup6\n  sstore\n  dup3\n  iszero\n  tag_9\n  jumpi\n  swap2\n  dup3\n  add\ntag_11:\n  dup3\n  dup2\n  gt\n  iszero\n  tag_12\n  jumpi\n  dup3\n  mload\n  dup3\n  sstore\n  swap2\n  0x20\n  add\n  swap2\n  swap1\n  0x01\n  add\n  swap1\n  jump(tag_11)\ntag_12:\ntag_9:\n  pop\n  swap1\n  pop\n  tag_13\n  swap2\n  swap1\n  tag_14\n  jump\t// in\ntag_13:\n  pop\n  swap1\n  jump\t// out\ntag_14:\n  tag_15\n  swap2\n  swap1\ntag_16:\n  dup1\n  dup3\n  gt\n  iszero\n  tag_17\n  jumpi\n  0x00\n  dup2\n  0x00\n  swap1\n  sstore\n  pop\n  0x01\n  add\n  jump(tag_16)\ntag_17:\n  pop\n  swap1\n  jump\ntag_15:\n  swap1\n  jump\t// out\n    /* \"--CODEGEN--\":5:127   */\ntag_19:\n  0x00\n    /* \"--CODEGEN--\":83:122   */\n  tag_20\n    /* \"--CODEGEN--\":114:120   */\n  dup3\n    /* \"--CODEGEN--\":108:121   */\n  mload\n    /* \"--CODEGEN--\":83:122   */\n  jump(tag_21)\ntag_20:\n    /* \"--CODEGEN--\":74:122   */\n  swap1\n  pop\n    /* \"--CODEGEN--\":68:127   */\n  swap3\n  swap2\n  pop\n  pop\n  jump\n    /* \"--CODEGEN--\":135:579   */\ntag_23:\n  0x00\n    /* \"--CODEGEN--\":248:251   */\n  dup3\n    /* \"--CODEGEN--\":241:245   */\n  0x1f\n    /* \"--CODEGEN--\":233:239   */\n  dup4\n    /* \"--CODEGEN--\":229:246   */\n  add\n    /* \"--CODEGEN--\":225:252   */\n  slt\n    /* \"--CODEGEN--\":218:253   */\n  iszero\n    /* \"--CODEGEN--\":215:217   */\n  iszero\n  tag_24\n  jumpi\n    /* \"--CODEGEN--\":266:267   */\n  0x00\n    /* \"--CODEGEN--\":263:264   */\n  dup1\n    /* \"--CODEGEN--\":256:268   */\n  revert\n    /* \"--CODEGEN--\":215:217   */\ntag_24:\n    /* \"--CODEGEN--\":296:302   */\n  dup2\n    /* \"--CODEGEN--\":290:303   */\n  mload\n    /* \"--CODEGEN--\":318:383   */\n  tag_25\n    /* \"--CODEGEN--\":333:382   */\n  tag_26\n    /* \"--CODEGEN--\":375:381   */\n  dup3\n    /* \"--CODEGEN--\":333:382   */\n  jump(tag_27)\ntag_26:\n    /* \"--CODEGEN--\":318:383   */\n  jump(tag_28)\ntag_25:\n    /* \"--CODEGEN--\":309:383   */\n  swap2\n  pop\n    /* \"--CODEGEN--\":403:409   */\n  dup1\n    /* \"--CODEGEN--\":396:401   */\n  dup3\n    /* \"--CODEGEN--\":389:410   */\n  mstore\n    /* \"--CODEGEN--\":439:443   */\n  0x20\n    /* \"--CODEGEN--\":431:437   */\n  dup4\n    /* \"--CODEGEN--\":427:444   */\n  add\n    /* \"--CODEGEN--\":472:476   */\n  0x20\n    /* \"--CODEGEN--\":465:470   */\n  dup4\n    /* \"--CODEGEN--\":461:477   */\n  add\n    /* \"--CODEGEN--\":507:510   */\n  dup6\n    /* \"--CODEGEN--\":498:504   */\n  dup4\n    /* \"--CODEGEN--\":493:496   */\n  dup4\n    /* \"--CODEGEN--\":489:505   */\n  add\n    /* \"--CODEGEN--\":486:511   */\n  gt\n    /* \"--CODEGEN--\":483:485   */\n  iszero\n  tag_29\n  jumpi\n    /* \"--CODEGEN--\":524:525   */\n  0x00\n    /* \"--CODEGEN--\":521:522   */\n  dup1\n    /* \"--CODEGEN--\":514:526   */\n  revert\n    /* \"--CODEGEN--\":483:485   */\ntag_29:\n    /* \"--CODEGEN--\":534:573   */\n  tag_30\n    /* \"--CODEGEN--\":566:572   */\n  dup4\n    /* \"--CODEGEN--\":561:564   */\n  dup3\n    /* \"--CODEGEN--\":556:559   */\n  dup5\n    /* \"--CODEGEN--\":534:573   */\n  jump(tag_31)\ntag_30:\n    /* \"--CODEGEN--\":208:579   */\n  pop\n  pop\n  pop\n  swap3\n  swap2\n  pop\n  pop\n  jump\n    /* \"--CODEGEN--\":587:1085   */\ntag_3:\n  0x00\n  dup1\n    /* \"--CODEGEN--\":729:731   */\n  0x40\n    /* \"--CODEGEN--\":717:726   */\n  dup4\n    /* \"--CODEGEN--\":708:715   */\n  dup6\n    /* \"--CODEGEN--\":704:727   */\n  sub\n    /* \"--CODEGEN--\":700:732   */\n  slt\n    /* \"--CODEGEN--\":697:699   */\n  iszero\n  tag_33\n  jumpi\n    /* \"--CODEGEN--\":745:746   */\n  0x00\n    /* \"--CODEGEN--\":742:743   */\n  dup1\n    /* \"--CODEGEN--\":735:747   */\n  revert\n    /* \"--CODEGEN--\":697:699   */\ntag_33:\n    /* \"--CODEGEN--\":801:802   */\n  0x00\n    /* \"--CODEGEN--\":790:799   */\n  dup4\n    /* \"--CODEGEN--\":786:803   */\n  add\n    /* \"--CODEGEN--\":780:804   */\n  mload\n    /* \"--CODEGEN--\":824:842   */\n  0xffffffffffffffff\n    /* \"--CODEGEN--\":816:822   */\n  dup2\n    /* \"--CODEGEN--\":813:843   */\n  gt\n    /* \"--CODEGEN--\":810:812   */\n  iszero\n  tag_34\n  jumpi\n    /* \"--CODEGEN--\":856:857   */\n  0x00\n    /* \"--CODEGEN--\":853:854   */\n  dup1\n    /* \"--CODEGEN--\":846:858   */\n  revert\n    /* \"--CODEGEN--\":810:812   */\ntag_34:\n    /* \"--CODEGEN--\":876:950   */\n  tag_35\n    /* \"--CODEGEN--\":942:949   */\n  dup6\n    /* \"--CODEGEN--\":933:939   */\n  dup3\n    /* \"--CODEGEN--\":922:931   */\n  dup7\n    /* \"--CODEGEN--\":918:940   */\n  add\n    /* \"--CODEGEN--\":876:950   */\n  jump(tag_23)\ntag_35:\n    /* \"--CODEGEN--\":866:950   */\n  swap3\n  pop\n    /* \"--CODEGEN--\":759:956   */\n  pop\n    /* \"--CODEGEN--\":987:989   */\n  0x20\n    /* \"--CODEGEN--\":1005:1069   */\n  tag_36\n    /* \"--CODEGEN--\":1061:1068   */\n  dup6\n    /* \"--CODEGEN--\":1052:1058   */\n  dup3\n    /* \"--CODEGEN--\":1041:1050   */\n  dup7\n    /* \"--CODEGEN--\":1037:1059   */\n  add\n    /* \"--CODEGEN--\":1005:1069   */\n  jump(tag_19)\ntag_36:\n    /* \"--CODEGEN--\":995:1069   */\n  swap2\n  pop\n    /* \"--CODEGEN--\":966:1075   */\n  pop\n    /* \"--CODEGEN--\":691:1085   */\n  swap3\n  pop\n  swap3\n  swap1\n  pop\n  jump\n    /* \"--CODEGEN--\":1092:1348   */\ntag_28:\n  0x00\n    /* \"--CODEGEN--\":1154:1156   */\n  0x40\n    /* \"--CODEGEN--\":1148:1157   */\n  mload\n    /* \"--CODEGEN--\":1138:1157   */\n  swap1\n  pop\n    /* \"--CODEGEN--\":1192:1196   */\n  dup2\n    /* \"--CODEGEN--\":1184:1190   */\n  dup2\n    /* \"--CODEGEN--\":1180:1197   */\n  add\n    /* \"--CODEGEN--\":1291:1297   */\n  dup2\n    /* \"--CODEGEN--\":1279:1289   */\n  dup2\n    /* \"--CODEGEN--\":1276:1298   */\n  lt\n    /* \"--CODEGEN--\":1255:1273   */\n  0xffffffffffffffff\n    /* \"--CODEGEN--\":1243:1253   */\n  dup3\n    /* \"--CODEGEN--\":1240:1274   */\n  gt\n    /* \"--CODEGEN--\":1237:1299   */\n  or\n    /* \"--CODEGEN--\":1234:1236   */\n  iszero\n  tag_38\n  jumpi\n    /* \"--CODEGEN--\":1312:1313   */\n  0x00\n    /* \"--CODEGEN--\":1309:1310   */\n  dup1\n    /* \"--CODEGEN--\":1302:1314   */\n  revert\n    /* \"--CODEGEN--\":1234:1236   */\ntag_38:\n    /* \"--CODEGEN--\":1332:1342   */\n  dup1\n    /* \"--CODEGEN--\":1328:1330   */\n  0x40\n    /* \"--CODEGEN--\":1321:1343   */\n  mstore\n    /* \"--CODEGEN--\":1132:1348   */\n  pop\n  swap2\n  swap1\n  pop\n  jump\n    /* \"--CODEGEN--\":1355:1614   */\ntag_27:\n  0x00\n    /* \"--CODEGEN--\":1499:1517   */\n  0xffffffffffffffff\n    /* \"--CODEGEN--\":1491:1497   */\n  dup3\n    /* \"--CODEGEN--\":1488:1518   */\n  gt\n    /* \"--CODEGEN--\":1485:1487   */\n  iszero\n  tag_40\n  jumpi\n    /* \"--CODEGEN--\":1531:1532   */\n  0x00\n    /* \"--CODEGEN--\":1528:1529   */\n  dup1\n    /* \"--CODEGEN--\":1521:1533   */\n  revert\n    /* \"--CODEGEN--\":1485:1487   */\ntag_40:\n    /* \"--CODEGEN--\":1575:1579   */\n  0x1f\n    /* \"--CODEGEN--\":1571:1580   */\n  not\n    /* \"--CODEGEN--\":1564:1568   */\n  0x1f\n    /* \"--CODEGEN--\":1556:1562   */\n  dup4\n    /* \"--CODEGEN--\":1552:1569   */\n  add\n    /* \"--CODEGEN--\":1548:1581   */\n  and\n    /* \"--CODEGEN--\":1540:1581   */\n  swap1\n  pop\n    /* \"--CODEGEN--\":1604:1608   */\n  0x20\n    /* \"--CODEGEN--\":1598:1602   */\n  dup2\n    /* \"--CODEGEN--\":1594:1609   */\n  add\n    /* \"--CODEGEN--\":1586:1609   */\n  swap1\n  pop\n    /* \"--CODEGEN--\":1422:1614   */\n  swap2\n  swap1\n  pop\n  jump\n    /* \"--CODEGEN--\":1621:1749   */\ntag_42:\n  0x00\n    /* \"--CODEGEN--\":1701:1743   */\n  0xffffffffffffffffffffffffffffffffffffffff\n    /* \"--CODEGEN--\":1694:1699   */\n  dup3\n    /* \"--CODEGEN--\":1690:1744   */\n  and\n    /* \"--CODEGEN--\":1679:1744   */\n  swap1\n  pop\n    /* \"--CODEGEN--\":1673:1749   */\n  swap2\n  swap1\n  pop\n  jump\n    /* \"--CODEGEN--\":1756:1861   */\ntag_21:\n  0x00\n    /* \"--CODEGEN--\":1825:1856   */\n  tag_44\n    /* \"--CODEGEN--\":1850:1855   */\n  dup3\n    /* \"--CODEGEN--\":1825:1856   */\n  jump(tag_42)\ntag_44:\n    /* \"--CODEGEN--\":1814:1856   */\n  swap1\n  pop\n    /* \"--CODEGEN--\":1808:1861   */\n  swap2\n  swap1\n  pop\n  jump\n    /* \"--CODEGEN--\":1869:2137   */\ntag_31:\n    /* \"--CODEGEN--\":1934:1935   */\n  0x00\n    /* \"--CODEGEN--\":1941:2042   */\ntag_46:\n    /* \"--CODEGEN--\":1955:1961   */\n  dup4\n    /* \"--CODEGEN--\":1952:1953   */\n  dup2\n    /* \"--CODEGEN--\":1949:1962   */\n  lt\n    /* \"--CODEGEN--\":1941:2042   */\n  iszero\n  tag_47\n  jumpi\n    /* \"--CODEGEN--\":2031:2032   */\n  dup1\n    /* \"--CODEGEN--\":2026:2029   */\n  dup3\n    /* \"--CODEGEN--\":2022:2033   */\n  add\n    /* \"--CODEGEN--\":2016:2034   */\n  mload\n    /* \"--CODEGEN--\":2012:2013   */\n  dup2\n    /* \"--CODEGEN--\":2007:2010   */\n  dup5\n    /* \"--CODEGEN--\":2003:2014   */\n  add\n    /* \"--CODEGEN--\":1996:2035   */\n  mstore\n    /* \"--CODEGEN--\":1977:1979   */\n  0x20\n    /* \"--CODEGEN--\":1974:1975   */\n  dup2\n    /* \"--CODEGEN--\":1970:1980   */\n  add\n    /* \"--CODEGEN--\":1965:1980   */\n  swap1\n  pop\n    /* \"--CODEGEN--\":1941:2042   */\n  jump(tag_46)\ntag_47:\n    /* \"--CODEGEN--\":2057:2063   */\n  dup4\n    /* \"--CODEGEN--\":2054:2055   */\n  dup2\n    /* \"--CODEGEN--\":2051:2064   */\n  gt\n    /* \"--CODEGEN--\":2048:2050   */\n  iszero\n  tag_49\n  jumpi\n    /* \"--CODEGEN--\":2122:2123   */\n  0x00\n    /* \"--CODEGEN--\":2113:2119   */\n  dup5\n    /* \"--CODEGEN--\":2108:2111   */\n  dup5\n    /* \"--CODEGEN--\":2104:2120   */\n  add\n    /* \"--CODEGEN--\":2097:2124   */\n  mstore\n    /* \"--CODEGEN--\":2048:2050   */\ntag_49:\n    /* \"--CODEGEN--\":1918:2137   */\n  pop\n  pop\n  pop\n  pop\n  jump\n    /* \"background.sol\":11552:16469  contract Owner {\r... */\ntag_8:\n  dataSize(sub_0)\n  dup1\n  dataOffset(sub_0)\n  0x00\n  codecopy\n  0x00\n  return\nstop\n\nsub_0: assembly {\n        /* \"background.sol\":11552:16469  contract Owner {\r... */\n      mstore(0x40, 0x80)\n      callvalue\n        /* \"--CODEGEN--\":8:17   */\n      dup1\n        /* \"--CODEGEN--\":5:7   */\n      iszero\n      tag_1\n      jumpi\n        /* \"--CODEGEN--\":30:31   */\n      0x00\n        /* \"--CODEGEN--\":27:28   */\n      dup1\n        /* \"--CODEGEN--\":20:32   */\n      revert\n        /* \"--CODEGEN--\":5:7   */\n    tag_1:\n        /* \"background.sol\":11552:16469  contract Owner {\r... */\n      pop\n      jumpi(tag_2, lt(calldatasize, 0x04))\n      calldataload(0x00)\n      0x0100000000000000000000000000000000000000000000000000000000\n      swap1\n      div\n      dup1\n      0x271eec7a\n      eq\n      tag_3\n      jumpi\n      dup1\n      0x7ec35b0a\n      eq\n      tag_4\n      jumpi\n      dup1\n      0x9b6b309a\n      eq\n      tag_5\n      jumpi\n      dup1\n      0x9d55295c\n      eq\n      tag_6\n      jumpi\n      dup1\n      0xae55c888\n      eq\n      tag_7\n      jumpi\n      dup1\n      0xd15540d8\n      eq\n      tag_8\n      jumpi\n    tag_2:\n      0x00\n      dup1\n      revert\n        /* \"background.sol\":12590:12775  function addNewInsurance(address add) public {\r... */\n    tag_3:\n      tag_9\n      0x04\n      dup1\n      calldatasize\n      sub\n      tag_10\n      swap2\n      swap1\n      dup2\n      add\n      swap1\n      jump(tag_11)\n    tag_10:\n      tag_12\n      jump\t// in\n    tag_9:\n      stop\n        /* \"background.sol\":12326:12578  function isCorrectPassword(string memory pass) public view returns(bool) {\r... */\n    tag_4:\n      tag_13\n      0x04\n      dup1\n      calldatasize\n      sub\n      tag_14\n      swap2\n      swap1\n      dup2\n      add\n      swap1\n      jump(tag_15)\n    tag_14:\n      tag_16\n      jump\t// in\n    tag_13:\n      mload(0x40)\n      tag_17\n      swap2\n      swap1\n      jump(tag_18)\n    tag_17:\n      mload(0x40)\n      dup1\n      swap2\n      sub\n      swap1\n      return\n        /* \"background.sol\":14936:15686  function pendingRequest(address ownerAddd, address selfAddd, string memory titlee, string memory detailss, string memory fileHash, bool doctorr, bool ownerrrr, uint256 index) public {\r... */\n    tag_5:\n      tag_19\n      0x04\n      dup1\n      calldatasize\n      sub\n      tag_20\n      swap2\n      swap1\n      dup2\n      add\n      swap1\n      jump(tag_21)\n    tag_20:\n      tag_22\n      jump\t// in\n    tag_19:\n      stop\n        /* \"background.sol\":15694:16462  function approveCancelRequest(uint256 index, bool flag) public {\r... */\n    tag_6:\n      tag_23\n      0x04\n      dup1\n      calldatasize\n      sub\n      tag_24\n      swap2\n      swap1\n      dup2\n      add\n      swap1\n      jump(tag_25)\n    tag_24:\n      tag_26\n      jump\t// in\n    tag_23:\n      stop\n        /* \"background.sol\":13512:14250  function getData(string memory pass) public view returns(bool, uint, uint, uint, uint, address[] memory, Request[] memory, Request[] memory, Request[] memory) {\r... */\n    tag_7:\n      tag_27\n      0x04\n      dup1\n      calldatasize\n      sub\n      tag_28\n      swap2\n      swap1\n      dup2\n      add\n      swap1\n      jump(tag_15)\n    tag_28:\n      tag_29\n      jump\t// in\n    tag_27:\n      mload(0x40)\n      tag_30\n      swap10\n      swap9\n      swap8\n      swap7\n      swap6\n      swap5\n      swap4\n      swap3\n      swap2\n      swap1\n      jump(tag_31)\n    tag_30:\n      mload(0x40)\n      dup1\n      swap2\n      sub\n      swap1\n      return\n        /* \"background.sol\":14258:14928  function createInsurance(string memory name, int aadhar, int amount, string memory insDetailss, string memory documentss, int setInsuranceAddresss) public  {\r... */\n    tag_8:\n      tag_32\n      0x04\n      dup1\n      calldatasize\n      sub\n      tag_33\n      swap2\n      swap1\n      dup2\n      add\n      swap1\n      jump(tag_34)\n    tag_33:\n      tag_35\n      jump\t// in\n    tag_32:\n      stop\n        /* \"background.sol\":12590:12775  function addNewInsurance(address add) public {\r... */\n    tag_12:\n        /* \"background.sol\":12663:12670  manager */\n      0x01\n      0x00\n      swap1\n      sload\n      swap1\n      0x0100\n      exp\n      swap1\n      div\n      0xffffffffffffffffffffffffffffffffffffffff\n      and\n        /* \"background.sol\":12649:12670  msg.sender == manager */\n      0xffffffffffffffffffffffffffffffffffffffff\n      and\n        /* \"background.sol\":12649:12659  msg.sender */\n      caller\n        /* \"background.sol\":12649:12670  msg.sender == manager */\n      0xffffffffffffffffffffffffffffffffffffffff\n      and\n      eq\n        /* \"background.sol\":12646:12768  if(msg.sender == manager) {\r... */\n      iszero\n      tag_37\n      jumpi\n        /* \"background.sol\":12687:12702  insuranceIssued */\n      0x05\n        /* \"background.sol\":12708:12711  add */\n      dup2\n        /* \"background.sol\":12687:12712  insuranceIssued.push(add) */\n      swap1\n      dup1\n        /* \"--CODEGEN--\":39:40   */\n      0x01\n        /* \"--CODEGEN--\":33:36   */\n      dup2\n        /* \"--CODEGEN--\":27:37   */\n      sload\n        /* \"--CODEGEN--\":23:41   */\n      add\n        /* \"--CODEGEN--\":57:67   */\n      dup1\n        /* \"--CODEGEN--\":52:55   */\n      dup3\n        /* \"--CODEGEN--\":45:68   */\n      sstore\n        /* \"--CODEGEN--\":79:89   */\n      dup1\n        /* \"--CODEGEN--\":72:89   */\n      swap2\n      pop\n        /* \"--CODEGEN--\":0:93   */\n      pop\n        /* \"background.sol\":12687:12712  insuranceIssued.push(add) */\n      swap1\n      0x01\n      dup3\n      sub\n      swap1\n      0x00\n      mstore\n      keccak256(0x00, 0x20)\n      add\n      0x00\n      swap1\n      swap2\n      swap3\n      swap1\n      swap2\n      swap1\n      swap2\n      0x0100\n      exp\n      dup2\n      sload\n      dup2\n      0xffffffffffffffffffffffffffffffffffffffff\n      mul\n      not\n      and\n      swap1\n      dup4\n      0xffffffffffffffffffffffffffffffffffffffff\n      and\n      mul\n      or\n      swap1\n      sstore\n      pop\n      pop\n        /* \"background.sol\":12752:12756  true */\n      0x01\n        /* \"background.sol\":12727:12744  isIssuedInsurance */\n      0x06\n        /* \"background.sol\":12727:12749  isIssuedInsurance[add] */\n      0x00\n        /* \"background.sol\":12745:12748  add */\n      dup4\n        /* \"background.sol\":12727:12749  isIssuedInsurance[add] */\n      0xffffffffffffffffffffffffffffffffffffffff\n      and\n      0xffffffffffffffffffffffffffffffffffffffff\n      and\n      dup2\n      mstore\n      0x20\n      add\n      swap1\n      dup2\n      mstore\n      0x20\n      add\n      0x00\n      keccak256\n      0x00\n        /* \"background.sol\":12727:12756  isIssuedInsurance[add] = true */\n      0x0100\n      exp\n      dup2\n      sload\n      dup2\n      0xff\n      mul\n      not\n      and\n      swap1\n      dup4\n      iszero\n      iszero\n      mul\n      or\n      swap1\n      sstore\n      pop\n        /* \"background.sol\":12646:12768  if(msg.sender == manager) {\r... */\n    tag_37:\n        /* \"background.sol\":12590:12775  function addNewInsurance(address add) public {\r... */\n      pop\n      jump\t// out\n        /* \"background.sol\":12326:12578  function isCorrectPassword(string memory pass) public view returns(bool) {\r... */\n    tag_16:\n        /* \"background.sol\":12393:12397  bool */\n      0x00\n        /* \"background.sol\":12477:12485  password */\n      dup1\n        /* \"background.sol\":12460:12486  abi.encodePacked(password) */\n      add(0x20, mload(0x40))\n      dup1\n      dup3\n      dup1\n      sload\n      0x01\n      dup2\n      0x01\n      and\n      iszero\n      0x0100\n      mul\n      sub\n      and\n      0x02\n      swap1\n      div\n      dup1\n      iszero\n      tag_40\n      jumpi\n      dup1\n      0x1f\n      lt\n      tag_41\n      jumpi\n      0x0100\n      dup1\n      dup4\n      sload\n      div\n      mul\n      dup4\n      mstore\n      swap2\n      dup3\n      add\n      swap2\n      jump(tag_40)\n    tag_41:\n      dup3\n      add\n      swap2\n      swap1\n      0x00\n      mstore\n      keccak256(0x00, 0x20)\n      swap1\n    tag_42:\n      dup2\n      sload\n      dup2\n      mstore\n      swap1\n      0x01\n      add\n      swap1\n      0x20\n      add\n      dup1\n      dup4\n      gt\n      tag_42\n      jumpi\n    tag_40:\n      pop\n      pop\n      swap2\n      pop\n      pop\n      mload(0x40)\n        /* \"--CODEGEN--\":49:53   */\n      0x20\n        /* \"--CODEGEN--\":39:46   */\n      dup2\n        /* \"--CODEGEN--\":30:37   */\n      dup4\n        /* \"--CODEGEN--\":26:47   */\n      sub\n        /* \"--CODEGEN--\":22:54   */\n      sub\n        /* \"--CODEGEN--\":13:20   */\n      dup2\n        /* \"--CODEGEN--\":6:55   */\n      mstore\n        /* \"background.sol\":12460:12486  abi.encodePacked(password) */\n      swap1\n      0x40\n      mstore\n        /* \"background.sol\":12450:12487  keccak256(abi.encodePacked(password)) */\n      dup1\n      mload\n      swap1\n      0x20\n      add\n      keccak256\n        /* \"background.sol\":12440:12444  pass */\n      dup3\n        /* \"background.sol\":12423:12445  abi.encodePacked(pass) */\n      add(0x20, mload(0x40))\n      dup1\n      dup3\n      dup1\n      mload\n      swap1\n      0x20\n      add\n      swap1\n      dup1\n      dup4\n      dup4\n        /* \"--CODEGEN--\":36:189   */\n    tag_43:\n        /* \"--CODEGEN--\":66:68   */\n      0x20\n        /* \"--CODEGEN--\":61:64   */\n      dup4\n        /* \"--CODEGEN--\":58:69   */\n      lt\n        /* \"--CODEGEN--\":51:70   */\n      iszero\n        /* \"--CODEGEN--\":36:189   */\n      iszero\n      tag_44\n      jumpi\n        /* \"--CODEGEN--\":182:185   */\n      dup1\n        /* \"--CODEGEN--\":176:186   */\n      mload\n        /* \"--CODEGEN--\":171:174   */\n      dup3\n        /* \"--CODEGEN--\":164:187   */\n      mstore\n        /* \"--CODEGEN--\":98:100   */\n      0x20\n        /* \"--CODEGEN--\":93:96   */\n      dup3\n        /* \"--CODEGEN--\":89:101   */\n      add\n        /* \"--CODEGEN--\":82:101   */\n      swap2\n      pop\n        /* \"--CODEGEN--\":123:125   */\n      0x20\n        /* \"--CODEGEN--\":118:121   */\n      dup2\n        /* \"--CODEGEN--\":114:126   */\n      add\n        /* \"--CODEGEN--\":107:126   */\n      swap1\n      pop\n        /* \"--CODEGEN--\":148:150   */\n      0x20\n        /* \"--CODEGEN--\":143:146   */\n      dup4\n        /* \"--CODEGEN--\":139:151   */\n      sub\n        /* \"--CODEGEN--\":132:151   */\n      swap3\n      pop\n        /* \"--CODEGEN--\":36:189   */\n      jump(tag_43)\n    tag_44:\n        /* \"--CODEGEN--\":274:275   */\n      0x01\n        /* \"--CODEGEN--\":267:270   */\n      dup4\n        /* \"--CODEGEN--\":263:265   */\n      0x20\n        /* \"--CODEGEN--\":259:271   */\n      sub\n        /* \"--CODEGEN--\":254:257   */\n      0x0100\n        /* \"--CODEGEN--\":250:272   */\n      exp\n        /* \"--CODEGEN--\":246:276   */\n      sub\n        /* \"--CODEGEN--\":315:319   */\n      dup1\n        /* \"--CODEGEN--\":311:320   */\n      not\n        /* \"--CODEGEN--\":305:308   */\n      dup3\n        /* \"--CODEGEN--\":299:309   */\n      mload\n        /* \"--CODEGEN--\":295:321   */\n      and\n        /* \"--CODEGEN--\":356:360   */\n      dup2\n        /* \"--CODEGEN--\":350:353   */\n      dup5\n        /* \"--CODEGEN--\":344:354   */\n      mload\n        /* \"--CODEGEN--\":340:361   */\n      and\n        /* \"--CODEGEN--\":389:396   */\n      dup1\n        /* \"--CODEGEN--\":380:387   */\n      dup3\n        /* \"--CODEGEN--\":377:397   */\n      or\n        /* \"--CODEGEN--\":372:375   */\n      dup6\n        /* \"--CODEGEN--\":365:398   */\n      mstore\n        /* \"--CODEGEN--\":3:402   */\n      pop\n      pop\n      pop\n        /* \"background.sol\":12423:12445  abi.encodePacked(pass) */\n      pop\n      pop\n      pop\n      swap1\n      pop\n      add\n      swap2\n      pop\n      pop\n      mload(0x40)\n        /* \"--CODEGEN--\":49:53   */\n      0x20\n        /* \"--CODEGEN--\":39:46   */\n      dup2\n        /* \"--CODEGEN--\":30:37   */\n      dup4\n        /* \"--CODEGEN--\":26:47   */\n      sub\n        /* \"--CODEGEN--\":22:54   */\n      sub\n        /* \"--CODEGEN--\":13:20   */\n      dup2\n        /* \"--CODEGEN--\":6:55   */\n      mstore\n        /* \"background.sol\":12423:12445  abi.encodePacked(pass) */\n      swap1\n      0x40\n      mstore\n        /* \"background.sol\":12413:12446  keccak256(abi.encodePacked(pass)) */\n      dup1\n      mload\n      swap1\n      0x20\n      add\n      keccak256\n        /* \"background.sol\":12413:12487  keccak256(abi.encodePacked(pass)) == keccak256(abi.encodePacked(password)) */\n      eq\n        /* \"background.sol\":12410:12571  if(keccak256(abi.encodePacked(pass)) == keccak256(abi.encodePacked(password))) {\r... */\n      iszero\n      tag_46\n      jumpi\n        /* \"background.sol\":12511:12515  true */\n      0x01\n        /* \"background.sol\":12504:12515  return true */\n      swap1\n      pop\n      jump(tag_39)\n        /* \"background.sol\":12410:12571  if(keccak256(abi.encodePacked(pass)) == keccak256(abi.encodePacked(password))) {\r... */\n    tag_46:\n        /* \"background.sol\":12554:12559  false */\n      0x00\n        /* \"background.sol\":12547:12559  return false */\n      swap1\n      pop\n        /* \"background.sol\":12326:12578  function isCorrectPassword(string memory pass) public view returns(bool) {\r... */\n    tag_39:\n      swap2\n      swap1\n      pop\n      jump\t// out\n        /* \"background.sol\":14936:15686  function pendingRequest(address ownerAddd, address selfAddd, string memory titlee, string memory detailss, string memory fileHash, bool doctorr, bool ownerrrr, uint256 index) public {\r... */\n    tag_22:\n        /* \"background.sol\":15132:15149  isIssuedInsurance */\n      0x06\n        /* \"background.sol\":15132:15159  isIssuedInsurance[selfAddd] */\n      0x00\n        /* \"background.sol\":15150:15158  selfAddd */\n      dup9\n        /* \"background.sol\":15132:15159  isIssuedInsurance[selfAddd] */\n      0xffffffffffffffffffffffffffffffffffffffff\n      and\n      0xffffffffffffffffffffffffffffffffffffffff\n      and\n      dup2\n      mstore\n      0x20\n      add\n      swap1\n      dup2\n      mstore\n      0x20\n      add\n      0x00\n      keccak256\n      0x00\n      swap1\n      sload\n      swap1\n      0x0100\n      exp\n      swap1\n      div\n      0xff\n      and\n        /* \"background.sol\":15129:15679  if(isIssuedInsurance[selfAddd]) {\r... */\n      iszero\n      tag_49\n      jumpi\n        /* \"background.sol\":15176:15201  Request memory newRequest */\n      tag_50\n      tag_51\n      jump\t// in\n    tag_50:\n        /* \"background.sol\":15204:15572  Request ( {\r... */\n      0x0120\n      mload(0x40)\n      swap1\n      dup2\n      add\n      0x40\n      mstore\n      dup1\n        /* \"background.sol\":15243:15252  ownerAddd */\n      dup11\n        /* \"background.sol\":15204:15572  Request ( {\r... */\n      0xffffffffffffffffffffffffffffffffffffffff\n      and\n      dup2\n      mstore\n      0x20\n      add\n        /* \"background.sol\":15280:15288  selfAddd */\n      dup10\n        /* \"background.sol\":15204:15572  Request ( {\r... */\n      0xffffffffffffffffffffffffffffffffffffffff\n      and\n      dup2\n      mstore\n      0x20\n      add\n        /* \"background.sol\":15314:15320  titlee */\n      dup9\n        /* \"background.sol\":15204:15572  Request ( {\r... */\n      dup2\n      mstore\n      0x20\n      add\n        /* \"background.sol\":15348:15356  detailss */\n      dup8\n        /* \"background.sol\":15204:15572  Request ( {\r... */\n      dup2\n      mstore\n      0x20\n      add\n        /* \"background.sol\":15417:15424  doctorr */\n      dup6\n        /* \"background.sol\":15204:15572  Request ( {\r... */\n      iszero\n      iszero\n      dup2\n      mstore\n      0x20\n      add\n        /* \"background.sol\":15450:15458  ownerrrr */\n      dup5\n        /* \"background.sol\":15204:15572  Request ( {\r... */\n      iszero\n      iszero\n      dup2\n      mstore\n      0x20\n      add\n        /* \"background.sol\":15382:15390  fileHash */\n      dup7\n        /* \"background.sol\":15204:15572  Request ( {\r... */\n      dup2\n      mstore\n      0x20\n      add\n        /* \"background.sol\":15484:15489  index */\n      dup4\n        /* \"background.sol\":15204:15572  Request ( {\r... */\n      dup2\n      mstore\n      0x20\n      add\n        /* \"background.sol\":15554:15555  1 */\n      0x01\n        /* \"background.sol\":15538:15551  requestsCount */\n      sload(0x07)\n        /* \"background.sol\":15538:15555  requestsCount + 1 */\n      add\n        /* \"background.sol\":15204:15572  Request ( {\r... */\n      dup2\n      mstore\n      pop\n        /* \"background.sol\":15176:15572  Request memory newRequest = Request ( {\r... */\n      swap1\n      pop\n        /* \"background.sol\":15587:15602  pendingRequests */\n      0x02\n        /* \"background.sol\":15608:15618  newRequest */\n      dup2\n        /* \"background.sol\":15587:15619  pendingRequests.push(newRequest) */\n      swap1\n      dup1\n        /* \"--CODEGEN--\":39:40   */\n      0x01\n        /* \"--CODEGEN--\":33:36   */\n      dup2\n        /* \"--CODEGEN--\":27:37   */\n      sload\n        /* \"--CODEGEN--\":23:41   */\n      add\n        /* \"--CODEGEN--\":57:67   */\n      dup1\n        /* \"--CODEGEN--\":52:55   */\n      dup3\n        /* \"--CODEGEN--\":45:68   */\n      sstore\n        /* \"--CODEGEN--\":79:89   */\n      dup1\n        /* \"--CODEGEN--\":72:89   */\n      swap2\n      pop\n        /* \"--CODEGEN--\":0:93   */\n      pop\n        /* \"background.sol\":15587:15619  pendingRequests.push(newRequest) */\n      swap1\n      0x01\n      dup3\n      sub\n      swap1\n      0x00\n      mstore\n      keccak256(0x00, 0x20)\n      swap1\n      0x08\n      mul\n      add\n      0x00\n      swap1\n      swap2\n      swap3\n      swap1\n      swap2\n      swap1\n      swap2\n      pop\n      0x00\n      dup3\n      add\n      mload\n      dup2\n      0x00\n      add\n      exp(0x0100, 0x00)\n      dup2\n      sload\n      dup2\n      0xffffffffffffffffffffffffffffffffffffffff\n      mul\n      not\n      and\n      swap1\n      dup4\n      0xffffffffffffffffffffffffffffffffffffffff\n      and\n      mul\n      or\n      swap1\n      sstore\n      pop\n      0x20\n      dup3\n      add\n      mload\n      dup2\n      0x01\n      add\n      exp(0x0100, 0x00)\n      dup2\n      sload\n      dup2\n      0xffffffffffffffffffffffffffffffffffffffff\n      mul\n      not\n      and\n      swap1\n      dup4\n      0xffffffffffffffffffffffffffffffffffffffff\n      and\n      mul\n      or\n      swap1\n      sstore\n      pop\n      0x40\n      dup3\n      add\n      mload\n      dup2\n      0x02\n      add\n      swap1\n      dup1\n      mload\n      swap1\n      0x20\n      add\n      swap1\n      tag_53\n      swap3\n      swap2\n      swap1\n      tag_54\n      jump\t// in\n    tag_53:\n      pop\n      0x60\n      dup3\n      add\n      mload\n      dup2\n      0x03\n      add\n      swap1\n      dup1\n      mload\n      swap1\n      0x20\n      add\n      swap1\n      tag_55\n      swap3\n      swap2\n      swap1\n      tag_54\n      jump\t// in\n    tag_55:\n      pop\n      0x80\n      dup3\n      add\n      mload\n      dup2\n      0x04\n      add\n      exp(0x0100, 0x00)\n      dup2\n      sload\n      dup2\n      0xff\n      mul\n      not\n      and\n      swap1\n      dup4\n      iszero\n      iszero\n      mul\n      or\n      swap1\n      sstore\n      pop\n      0xa0\n      dup3\n      add\n      mload\n      dup2\n      0x04\n      add\n      exp(0x0100, 0x01)\n      dup2\n      sload\n      dup2\n      0xff\n      mul\n      not\n      and\n      swap1\n      dup4\n      iszero\n      iszero\n      mul\n      or\n      swap1\n      sstore\n      pop\n      0xc0\n      dup3\n      add\n      mload\n      dup2\n      0x05\n      add\n      swap1\n      dup1\n      mload\n      swap1\n      0x20\n      add\n      swap1\n      tag_56\n      swap3\n      swap2\n      swap1\n      tag_54\n      jump\t// in\n    tag_56:\n      pop\n      0xe0\n      dup3\n      add\n      mload\n      dup2\n      0x06\n      add\n      sstore\n      0x0100\n      dup3\n      add\n      mload\n      dup2\n      0x07\n      add\n      sstore\n      pop\n      pop\n      pop\n        /* \"background.sol\":15666:15667  1 */\n      0x01\n        /* \"background.sol\":15650:15663  requestsCount */\n      sload(0x07)\n        /* \"background.sol\":15650:15667  requestsCount + 1 */\n      add\n        /* \"background.sol\":15634:15647  requestsCount */\n      0x07\n        /* \"background.sol\":15634:15667  requestsCount = requestsCount + 1 */\n      dup2\n      swap1\n      sstore\n      pop\n        /* \"background.sol\":15129:15679  if(isIssuedInsurance[selfAddd]) {\r... */\n      pop\n    tag_49:\n        /* \"background.sol\":14936:15686  function pendingRequest(address ownerAddd, address selfAddd, string memory titlee, string memory detailss, string memory fileHash, bool doctorr, bool ownerrrr, uint256 index) public {\r... */\n      pop\n      pop\n      pop\n      pop\n      pop\n      pop\n      pop\n      pop\n      jump\t// out\n        /* \"background.sol\":15694:16462  function approveCancelRequest(uint256 index, bool flag) public {\r... */\n    tag_26:\n        /* \"background.sol\":15785:15792  manager */\n      0x01\n      0x00\n      swap1\n      sload\n      swap1\n      0x0100\n      exp\n      swap1\n      div\n      0xffffffffffffffffffffffffffffffffffffffff\n      and\n        /* \"background.sol\":15771:15792  msg.sender == manager */\n      0xffffffffffffffffffffffffffffffffffffffff\n      and\n        /* \"background.sol\":15771:15781  msg.sender */\n      caller\n        /* \"background.sol\":15771:15792  msg.sender == manager */\n      0xffffffffffffffffffffffffffffffffffffffff\n      and\n      eq\n        /* \"background.sol\":15768:16455  if(msg.sender == manager) {\r... */\n      iszero\n      tag_58\n      jumpi\n        /* \"background.sol\":15820:15824  true */\n      0x01\n        /* \"background.sol\":15812:15824  flag == true */\n      iszero\n      iszero\n        /* \"background.sol\":15812:15816  flag */\n      dup2\n        /* \"background.sol\":15812:15824  flag == true */\n      iszero\n      iszero\n      eq\n        /* \"background.sol\":15809:16444  if(flag == true) {\r... */\n      iszero\n      tag_59\n      jumpi\n        /* \"background.sol\":15845:15858  Insurance inu */\n      0x00\n        /* \"background.sol\":15879:15894  pendingRequests */\n      0x02\n        /* \"background.sol\":15895:15900  index */\n      dup4\n        /* \"background.sol\":15879:15901  pendingRequests[index] */\n      dup2\n      sload\n      dup2\n      lt\n      iszero\n      iszero\n      tag_60\n      jumpi\n      invalid\n    tag_60:\n      swap1\n      0x00\n      mstore\n      keccak256(0x00, 0x20)\n      swap1\n      0x08\n      mul\n      add\n        /* \"background.sol\":15879:15909  pendingRequests[index].selfAdd */\n      0x01\n      add\n      0x00\n      swap1\n      sload\n      swap1\n      0x0100\n      exp\n      swap1\n      div\n      0xffffffffffffffffffffffffffffffffffffffff\n      and\n        /* \"background.sol\":15845:15911  Insurance inu = Insurance(address(pendingRequests[index].selfAdd)) */\n      swap1\n      pop\n        /* \"background.sol\":15930:15933  inu */\n      dup1\n        /* \"background.sol\":15930:15949  inu.finalizeRequest */\n      0xffffffffffffffffffffffffffffffffffffffff\n      and\n      0x72102d18\n        /* \"background.sol\":15950:15965  pendingRequests */\n      0x02\n        /* \"background.sol\":15966:15971  index */\n      dup6\n        /* \"background.sol\":15950:15972  pendingRequests[index] */\n      dup2\n      sload\n      dup2\n      lt\n      iszero\n      iszero\n      tag_62\n      jumpi\n      invalid\n    tag_62:\n      swap1\n      0x00\n      mstore\n      keccak256(0x00, 0x20)\n      swap1\n      0x08\n      mul\n      add\n        /* \"background.sol\":15950:15978  pendingRequests[index].index */\n      0x06\n      add\n      sload\n        /* \"background.sol\":15980:15990  msg.sender */\n      caller\n        /* \"background.sol\":15992:15996  true */\n      0x01\n        /* \"background.sol\":15930:15997  inu.finalizeRequest(pendingRequests[index].index, msg.sender, true) */\n      mload(0x40)\n      dup5\n      0xffffffff\n      and\n      0x0100000000000000000000000000000000000000000000000000000000\n      mul\n      dup2\n      mstore\n      0x04\n      add\n      tag_64\n      swap4\n      swap3\n      swap2\n      swap1\n      jump(tag_65)\n    tag_64:\n      0x00\n      mload(0x40)\n      dup1\n      dup4\n      sub\n      dup2\n      0x00\n      dup8\n      dup1\n      extcodesize\n      iszero\n        /* \"--CODEGEN--\":8:17   */\n      dup1\n        /* \"--CODEGEN--\":5:7   */\n      iszero\n      tag_66\n      jumpi\n        /* \"--CODEGEN--\":30:31   */\n      0x00\n        /* \"--CODEGEN--\":27:28   */\n      dup1\n        /* \"--CODEGEN--\":20:32   */\n      revert\n        /* \"--CODEGEN--\":5:7   */\n    tag_66:\n        /* \"background.sol\":15930:15997  inu.finalizeRequest(pendingRequests[index].index, msg.sender, true) */\n      pop\n      gas\n      call\n      iszero\n        /* \"--CODEGEN--\":8:17   */\n      dup1\n        /* \"--CODEGEN--\":5:7   */\n      iszero\n      tag_67\n      jumpi\n        /* \"--CODEGEN--\":45:61   */\n      returndatasize\n        /* \"--CODEGEN--\":42:43   */\n      0x00\n        /* \"--CODEGEN--\":39:40   */\n      dup1\n        /* \"--CODEGEN--\":24:62   */\n      returndatacopy\n        /* \"--CODEGEN--\":77:93   */\n      returndatasize\n        /* \"--CODEGEN--\":74:75   */\n      0x00\n        /* \"--CODEGEN--\":67:94   */\n      revert\n        /* \"--CODEGEN--\":5:7   */\n    tag_67:\n        /* \"background.sol\":15930:15997  inu.finalizeRequest(pendingRequests[index].index, msg.sender, true) */\n      pop\n      pop\n      pop\n      pop\n        /* \"background.sol\":16016:16032  approvedRequests */\n      0x03\n        /* \"background.sol\":16038:16053  pendingRequests */\n      0x02\n        /* \"background.sol\":16054:16059  index */\n      dup5\n        /* \"background.sol\":16038:16060  pendingRequests[index] */\n      dup2\n      sload\n      dup2\n      lt\n      iszero\n      iszero\n      tag_68\n      jumpi\n      invalid\n    tag_68:\n      swap1\n      0x00\n      mstore\n      keccak256(0x00, 0x20)\n      swap1\n      0x08\n      mul\n      add\n        /* \"background.sol\":16016:16061  approvedRequests.push(pendingRequests[index]) */\n      swap1\n      dup1\n        /* \"--CODEGEN--\":39:40   */\n      0x01\n        /* \"--CODEGEN--\":33:36   */\n      dup2\n        /* \"--CODEGEN--\":27:37   */\n      sload\n        /* \"--CODEGEN--\":23:41   */\n      add\n        /* \"--CODEGEN--\":57:67   */\n      dup1\n        /* \"--CODEGEN--\":52:55   */\n      dup3\n        /* \"--CODEGEN--\":45:68   */\n      sstore\n        /* \"--CODEGEN--\":79:89   */\n      dup1\n        /* \"--CODEGEN--\":72:89   */\n      swap2\n      pop\n        /* \"--CODEGEN--\":0:93   */\n      pop\n        /* \"background.sol\":16016:16061  approvedRequests.push(pendingRequests[index]) */\n      swap1\n      0x01\n      dup3\n      sub\n      swap1\n      0x00\n      mstore\n      keccak256(0x00, 0x20)\n      swap1\n      0x08\n      mul\n      add\n      0x00\n      swap1\n      swap2\n      swap3\n      swap1\n      swap2\n      swap1\n      swap2\n      pop\n      0x00\n      dup3\n      add\n      0x00\n      swap1\n      sload\n      swap1\n      0x0100\n      exp\n      swap1\n      div\n      0xffffffffffffffffffffffffffffffffffffffff\n      and\n      dup2\n      0x00\n      add\n      exp(0x0100, 0x00)\n      dup2\n      sload\n      dup2\n      0xffffffffffffffffffffffffffffffffffffffff\n      mul\n      not\n      and\n      swap1\n      dup4\n      0xffffffffffffffffffffffffffffffffffffffff\n      and\n      mul\n      or\n      swap1\n      sstore\n      pop\n      0x01\n      dup3\n      add\n      0x00\n      swap1\n      sload\n      swap1\n      0x0100\n      exp\n      swap1\n      div\n      0xffffffffffffffffffffffffffffffffffffffff\n      and\n      dup2\n      0x01\n      add\n      exp(0x0100, 0x00)\n      dup2\n      sload\n      dup2\n      0xffffffffffffffffffffffffffffffffffffffff\n      mul\n      not\n      and\n      swap1\n      dup4\n      0xffffffffffffffffffffffffffffffffffffffff\n      and\n      mul\n      or\n      swap1\n      sstore\n      pop\n      0x02\n      dup3\n      add\n      dup2\n      0x02\n      add\n      swap1\n      dup1\n      sload\n      0x01\n      dup2\n      0x01\n      and\n      iszero\n      0x0100\n      mul\n      sub\n      and\n      0x02\n      swap1\n      div\n      tag_71\n      swap3\n      swap2\n      swap1\n      tag_72\n      jump\t// in\n    tag_71:\n      pop\n      0x03\n      dup3\n      add\n      dup2\n      0x03\n      add\n      swap1\n      dup1\n      sload\n      0x01\n      dup2\n      0x01\n      and\n      iszero\n      0x0100\n      mul\n      sub\n      and\n      0x02\n      swap1\n      div\n      tag_73\n      swap3\n      swap2\n      swap1\n      tag_72\n      jump\t// in\n    tag_73:\n      pop\n      0x04\n      dup3\n      add\n      0x00\n      swap1\n      sload\n      swap1\n      0x0100\n      exp\n      swap1\n      div\n      0xff\n      and\n      dup2\n      0x04\n      add\n      exp(0x0100, 0x00)\n      dup2\n      sload\n      dup2\n      0xff\n      mul\n      not\n      and\n      swap1\n      dup4\n      iszero\n      iszero\n      mul\n      or\n      swap1\n      sstore\n      pop\n      0x04\n      dup3\n      add\n      0x01\n      swap1\n      sload\n      swap1\n      0x0100\n      exp\n      swap1\n      div\n      0xff\n      and\n      dup2\n      0x04\n      add\n      exp(0x0100, 0x01)\n      dup2\n      sload\n      dup2\n      0xff\n      mul\n      not\n      and\n      swap1\n      dup4\n      iszero\n      iszero\n      mul\n      or\n      swap1\n      sstore\n      pop\n      0x05\n      dup3\n      add\n      dup2\n      0x05\n      add\n      swap1\n      dup1\n      sload\n      0x01\n      dup2\n      0x01\n      and\n      iszero\n      0x0100\n      mul\n      sub\n      and\n      0x02\n      swap1\n      div\n      tag_74\n      swap3\n      swap2\n      swap1\n      tag_72\n      jump\t// in\n    tag_74:\n      pop\n      0x06\n      dup3\n      add\n      sload\n      dup2\n      0x06\n      add\n      sstore\n      0x07\n      dup3\n      add\n      sload\n      dup2\n      0x07\n      add\n      sstore\n      pop\n      pop\n      pop\n        /* \"background.sol\":16087:16102  pendingRequests */\n      0x02\n        /* \"background.sol\":16103:16108  index */\n      dup4\n        /* \"background.sol\":16087:16109  pendingRequests[index] */\n      dup2\n      sload\n      dup2\n      lt\n      iszero\n      iszero\n      tag_75\n      jumpi\n      invalid\n    tag_75:\n      swap1\n      0x00\n      mstore\n      keccak256(0x00, 0x20)\n      swap1\n      0x08\n      mul\n      add\n      0x00\n        /* \"background.sol\":16080:16109  delete pendingRequests[index] */\n      dup1\n      dup3\n      add\n      exp(0x0100, 0x00)\n      dup2\n      sload\n      swap1\n      0xffffffffffffffffffffffffffffffffffffffff\n      mul\n      not\n      and\n      swap1\n      sstore\n      0x01\n      dup3\n      add\n      exp(0x0100, 0x00)\n      dup2\n      sload\n      swap1\n      0xffffffffffffffffffffffffffffffffffffffff\n      mul\n      not\n      and\n      swap1\n      sstore\n      0x02\n      dup3\n      add\n      0x00\n      tag_77\n      swap2\n      swap1\n      tag_78\n      jump\t// in\n    tag_77:\n      0x03\n      dup3\n      add\n      0x00\n      tag_79\n      swap2\n      swap1\n      tag_78\n      jump\t// in\n    tag_79:\n      0x04\n      dup3\n      add\n      exp(0x0100, 0x00)\n      dup2\n      sload\n      swap1\n      0xff\n      mul\n      not\n      and\n      swap1\n      sstore\n      0x04\n      dup3\n      add\n      exp(0x0100, 0x01)\n      dup2\n      sload\n      swap1\n      0xff\n      mul\n      not\n      and\n      swap1\n      sstore\n      0x05\n      dup3\n      add\n      0x00\n      tag_80\n      swap2\n      swap1\n      tag_78\n      jump\t// in\n    tag_80:\n      0x06\n      dup3\n      add\n      0x00\n      swap1\n      sstore\n      0x07\n      dup3\n      add\n      0x00\n      swap1\n      sstore\n      pop\n      pop\n        /* \"background.sol\":15809:16444  if(flag == true) {\r... */\n      pop\n      jump(tag_81)\n    tag_59:\n        /* \"background.sol\":16163:16176  Insurance inu */\n      0x00\n        /* \"background.sol\":16197:16212  pendingRequests */\n      0x02\n        /* \"background.sol\":16213:16218  index */\n      dup4\n        /* \"background.sol\":16197:16219  pendingRequests[index] */\n      dup2\n      sload\n      dup2\n      lt\n      iszero\n      iszero\n      tag_82\n      jumpi\n      invalid\n    tag_82:\n      swap1\n      0x00\n      mstore\n      keccak256(0x00, 0x20)\n      swap1\n      0x08\n      mul\n      add\n        /* \"background.sol\":16197:16227  pendingRequests[index].selfAdd */\n      0x01\n      add\n      0x00\n      swap1\n      sload\n      swap1\n      0x0100\n      exp\n      swap1\n      div\n      0xffffffffffffffffffffffffffffffffffffffff\n      and\n        /* \"background.sol\":16163:16229  Insurance inu = Insurance(address(pendingRequests[index].selfAdd)) */\n      swap1\n      pop\n        /* \"background.sol\":16248:16251  inu */\n      dup1\n        /* \"background.sol\":16248:16267  inu.finalizeRequest */\n      0xffffffffffffffffffffffffffffffffffffffff\n      and\n      0x72102d18\n        /* \"background.sol\":16268:16283  pendingRequests */\n      0x02\n        /* \"background.sol\":16284:16289  index */\n      dup6\n        /* \"background.sol\":16268:16290  pendingRequests[index] */\n      dup2\n      sload\n      dup2\n      lt\n      iszero\n      iszero\n      tag_84\n      jumpi\n      invalid\n    tag_84:\n      swap1\n      0x00\n      mstore\n      keccak256(0x00, 0x20)\n      swap1\n      0x08\n      mul\n      add\n        /* \"background.sol\":16268:16296  pendingRequests[index].index */\n      0x06\n      add\n      sload\n        /* \"background.sol\":16298:16308  msg.sender */\n      caller\n        /* \"background.sol\":16310:16315  false */\n      0x00\n        /* \"background.sol\":16248:16316  inu.finalizeRequest(pendingRequests[index].index, msg.sender, false) */\n      mload(0x40)\n      dup5\n      0xffffffff\n      and\n      0x0100000000000000000000000000000000000000000000000000000000\n      mul\n      dup2\n      mstore\n      0x04\n      add\n      tag_86\n      swap4\n      swap3\n      swap2\n      swap1\n      jump(tag_65)\n    tag_86:\n      0x00\n      mload(0x40)\n      dup1\n      dup4\n      sub\n      dup2\n      0x00\n      dup8\n      dup1\n      extcodesize\n      iszero\n        /* \"--CODEGEN--\":8:17   */\n      dup1\n        /* \"--CODEGEN--\":5:7   */\n      iszero\n      tag_87\n      jumpi\n        /* \"--CODEGEN--\":30:31   */\n      0x00\n        /* \"--CODEGEN--\":27:28   */\n      dup1\n        /* \"--CODEGEN--\":20:32   */\n      revert\n        /* \"--CODEGEN--\":5:7   */\n    tag_87:\n        /* \"background.sol\":16248:16316  inu.finalizeRequest(pendingRequests[index].index, msg.sender, false) */\n      pop\n      gas\n      call\n      iszero\n        /* \"--CODEGEN--\":8:17   */\n      dup1\n        /* \"--CODEGEN--\":5:7   */\n      iszero\n      tag_88\n      jumpi\n        /* \"--CODEGEN--\":45:61   */\n      returndatasize\n        /* \"--CODEGEN--\":42:43   */\n      0x00\n        /* \"--CODEGEN--\":39:40   */\n      dup1\n        /* \"--CODEGEN--\":24:62   */\n      returndatacopy\n        /* \"--CODEGEN--\":77:93   */\n      returndatasize\n        /* \"--CODEGEN--\":74:75   */\n      0x00\n        /* \"--CODEGEN--\":67:94   */\n      revert\n        /* \"--CODEGEN--\":5:7   */\n    tag_88:\n        /* \"background.sol\":16248:16316  inu.finalizeRequest(pendingRequests[index].index, msg.sender, false) */\n      pop\n      pop\n      pop\n      pop\n        /* \"background.sol\":16335:16351  rejectedRequests */\n      0x04\n        /* \"background.sol\":16357:16372  pendingRequests */\n      0x02\n        /* \"background.sol\":16373:16378  index */\n      dup5\n        /* \"background.sol\":16357:16379  pendingRequests[index] */\n      dup2\n      sload\n      dup2\n      lt\n      iszero\n      iszero\n      tag_89\n      jumpi\n      invalid\n    tag_89:\n      swap1\n      0x00\n      mstore\n      keccak256(0x00, 0x20)\n      swap1\n      0x08\n      mul\n      add\n        /* \"background.sol\":16335:16380  rejectedRequests.push(pendingRequests[index]) */\n      swap1\n      dup1\n        /* \"--CODEGEN--\":39:40   */\n      0x01\n        /* \"--CODEGEN--\":33:36   */\n      dup2\n        /* \"--CODEGEN--\":27:37   */\n      sload\n        /* \"--CODEGEN--\":23:41   */\n      add\n        /* \"--CODEGEN--\":57:67   */\n      dup1\n        /* \"--CODEGEN--\":52:55   */\n      dup3\n        /* \"--CODEGEN--\":45:68   */\n      sstore\n        /* \"--CODEGEN--\":79:89   */\n      dup1\n        /* \"--CODEGEN--\":72:89   */\n      swap2\n      pop\n        /* \"--CODEGEN--\":0:93   */\n      pop\n        /* \"background.sol\":16335:16380  rejectedRequests.push(pendingRequests[index]) */\n      swap1\n      0x01\n      dup3\n      sub\n      swap1\n      0x00\n      mstore\n      keccak256(0x00, 0x20)\n      swap1\n      0x08\n      mul\n      add\n      0x00\n      swap1\n      swap2\n      swap3\n      swap1\n      swap2\n      swap1\n      swap2\n      pop\n      0x00\n      dup3\n      add\n      0x00\n      swap1\n      sload\n      swap1\n      0x0100\n      exp\n      swap1\n      div\n      0xffffffffffffffffffffffffffffffffffffffff\n      and\n      dup2\n      0x00\n      add\n      exp(0x0100, 0x00)\n      dup2\n      sload\n      dup2\n      0xffffffffffffffffffffffffffffffffffffffff\n      mul\n      not\n      and\n      swap1\n      dup4\n      0xffffffffffffffffffffffffffffffffffffffff\n      and\n      mul\n      or\n      swap1\n      sstore\n      pop\n      0x01\n      dup3\n      add\n      0x00\n      swap1\n      sload\n      swap1\n      0x0100\n      exp\n      swap1\n      div\n      0xffffffffffffffffffffffffffffffffffffffff\n      and\n      dup2\n      0x01\n      add\n      exp(0x0100, 0x00)\n      dup2\n      sload\n      dup2\n      0xffffffffffffffffffffffffffffffffffffffff\n      mul\n      not\n      and\n      swap1\n      dup4\n      0xffffffffffffffffffffffffffffffffffffffff\n      and\n      mul\n      or\n      swap1\n      sstore\n      pop\n      0x02\n      dup3\n      add\n      dup2\n      0x02\n      add\n      swap1\n      dup1\n      sload\n      0x01\n      dup2\n      0x01\n      and\n      iszero\n      0x0100\n      mul\n      sub\n      and\n      0x02\n      swap1\n      div\n      tag_92\n      swap3\n      swap2\n      swap1\n      tag_72\n      jump\t// in\n    tag_92:\n      pop\n      0x03\n      dup3\n      add\n      dup2\n      0x03\n      add\n      swap1\n      dup1\n      sload\n      0x01\n      dup2\n      0x01\n      and\n      iszero\n      0x0100\n      mul\n      sub\n      and\n      0x02\n      swap1\n      div\n      tag_93\n      swap3\n      swap2\n      swap1\n      tag_72\n      jump\t// in\n    tag_93:\n      pop\n      0x04\n      dup3\n      add\n      0x00\n      swap1\n      sload\n      swap1\n      0x0100\n      exp\n      swap1\n      div\n      0xff\n      and\n      dup2\n      0x04\n      add\n      exp(0x0100, 0x00)\n      dup2\n      sload\n      dup2\n      0xff\n      mul\n      not\n      and\n      swap1\n      dup4\n      iszero\n      iszero\n      mul\n      or\n      swap1\n      sstore\n      pop\n      0x04\n      dup3\n      add\n      0x01\n      swap1\n      sload\n      swap1\n      0x0100\n      exp\n      swap1\n      div\n      0xff\n      and\n      dup2\n      0x04\n      add\n      exp(0x0100, 0x01)\n      dup2\n      sload\n      dup2\n      0xff\n      mul\n      not\n      and\n      swap1\n      dup4\n      iszero\n      iszero\n      mul\n      or\n      swap1\n      sstore\n      pop\n      0x05\n      dup3\n      add\n      dup2\n      0x05\n      add\n      swap1\n      dup1\n      sload\n      0x01\n      dup2\n      0x01\n      and\n      iszero\n      0x0100\n      mul\n      sub\n      and\n      0x02\n      swap1\n      div\n      tag_94\n      swap3\n      swap2\n      swap1\n      tag_72\n      jump\t// in\n    tag_94:\n      pop\n      0x06\n      dup3\n      add\n      sload\n      dup2\n      0x06\n      add\n      sstore\n      0x07\n      dup3\n      add\n      sload\n      dup2\n      0x07\n      add\n      sstore\n      pop\n      pop\n      pop\n        /* \"background.sol\":16406:16421  pendingRequests */\n      0x02\n        /* \"background.sol\":16422:16427  index */\n      dup4\n        /* \"background.sol\":16406:16428  pendingRequests[index] */\n      dup2\n      sload\n      dup2\n      lt\n      iszero\n      iszero\n      tag_95\n      jumpi\n      invalid\n    tag_95:\n      swap1\n      0x00\n      mstore\n      keccak256(0x00, 0x20)\n      swap1\n      0x08\n      mul\n      add\n      0x00\n        /* \"background.sol\":16399:16428  delete pendingRequests[index] */\n      dup1\n      dup3\n      add\n      exp(0x0100, 0x00)\n      dup2\n      sload\n      swap1\n      0xffffffffffffffffffffffffffffffffffffffff\n      mul\n      not\n      and\n      swap1\n      sstore\n      0x01\n      dup3\n      add\n      exp(0x0100, 0x00)\n      dup2\n      sload\n      swap1\n      0xffffffffffffffffffffffffffffffffffffffff\n      mul\n      not\n      and\n      swap1\n      sstore\n      0x02\n      dup3\n      add\n      0x00\n      tag_97\n      swap2\n      swap1\n      tag_78\n      jump\t// in\n    tag_97:\n      0x03\n      dup3\n      add\n      0x00\n      tag_98\n      swap2\n      swap1\n      tag_78\n      jump\t// in\n    tag_98:\n      0x04\n      dup3\n      add\n      exp(0x0100, 0x00)\n      dup2\n      sload\n      swap1\n      0xff\n      mul\n      not\n      and\n      swap1\n      sstore\n      0x04\n      dup3\n      add\n      exp(0x0100, 0x01)\n      dup2\n      sload\n      swap1\n      0xff\n      mul\n      not\n      and\n      swap1\n      sstore\n      0x05\n      dup3\n      add\n      0x00\n      tag_99\n      swap2\n      swap1\n      tag_78\n      jump\t// in\n    tag_99:\n      0x06\n      dup3\n      add\n      0x00\n      swap1\n      sstore\n      0x07\n      dup3\n      add\n      0x00\n      swap1\n      sstore\n      pop\n      pop\n        /* \"background.sol\":15809:16444  if(flag == true) {\r... */\n      pop\n    tag_81:\n        /* \"background.sol\":15768:16455  if(msg.sender == manager) {\r... */\n    tag_58:\n        /* \"background.sol\":15694:16462  function approveCancelRequest(uint256 index, bool flag) public {\r... */\n      pop\n      pop\n      jump\t// out\n        /* \"background.sol\":13512:14250  function getData(string memory pass) public view returns(bool, uint, uint, uint, uint, address[] memory, Request[] memory, Request[] memory, Request[] memory) {\r... */\n    tag_29:\n        /* \"background.sol\":13569:13573  bool */\n      0x00\n        /* \"background.sol\":13575:13579  uint */\n      dup1\n        /* \"background.sol\":13581:13585  uint */\n      0x00\n        /* \"background.sol\":13587:13591  uint */\n      dup1\n        /* \"background.sol\":13593:13597  uint */\n      0x00\n        /* \"background.sol\":13599:13615  address[] memory */\n      0x60\n        /* \"background.sol\":13617:13633  Request[] memory */\n      dup1\n        /* \"background.sol\":13635:13651  Request[] memory */\n      0x60\n        /* \"background.sol\":13653:13669  Request[] memory */\n      dup1\n        /* \"background.sol\":13700:13707  manager */\n      0x01\n      0x00\n      swap1\n      sload\n      swap1\n      0x0100\n      exp\n      swap1\n      div\n      0xffffffffffffffffffffffffffffffffffffffff\n      and\n        /* \"background.sol\":13686:13707  msg.sender == manager */\n      0xffffffffffffffffffffffffffffffffffffffff\n      and\n        /* \"background.sol\":13686:13696  msg.sender */\n      caller\n        /* \"background.sol\":13686:13707  msg.sender == manager */\n      0xffffffffffffffffffffffffffffffffffffffff\n      and\n      eq\n        /* \"background.sol\":13685:13737  (msg.sender == manager) && (isCorrectPassword(pass)) */\n      dup1\n      iszero\n      tag_101\n      jumpi\n      pop\n        /* \"background.sol\":13713:13736  isCorrectPassword(pass) */\n      tag_102\n        /* \"background.sol\":13731:13735  pass */\n      dup11\n        /* \"background.sol\":13713:13730  isCorrectPassword */\n      tag_16\n        /* \"background.sol\":13713:13736  isCorrectPassword(pass) */\n      jump\t// in\n    tag_102:\n        /* \"background.sol\":13685:13737  (msg.sender == manager) && (isCorrectPassword(pass)) */\n    tag_101:\n        /* \"background.sol\":13682:14243  if((msg.sender == manager) && (isCorrectPassword(pass))) {\r... */\n      iszero\n      tag_103\n      jumpi\n        /* \"background.sol\":13762:13766  true */\n      0x01\n        /* \"background.sol\":13768:13783  insuranceIssued */\n      0x05\n        /* \"background.sol\":13768:13790  insuranceIssued.length */\n      dup1\n      sload\n      swap1\n      pop\n        /* \"background.sol\":13843:13859  rejectedRequests */\n      0x04\n        /* \"background.sol\":13843:13866  rejectedRequests.length */\n      dup1\n      sload\n      swap1\n      pop\n        /* \"background.sol\":13817:13833  approvedRequests */\n      0x03\n        /* \"background.sol\":13817:13840  approvedRequests.length */\n      dup1\n      sload\n      swap1\n      pop\n        /* \"background.sol\":13792:13807  pendingRequests */\n      0x02\n        /* \"background.sol\":13792:13814  pendingRequests.length */\n      dup1\n      sload\n      swap1\n      pop\n        /* \"background.sol\":13792:13840  pendingRequests.length - approvedRequests.length */\n      sub\n        /* \"background.sol\":13792:13866  pendingRequests.length - approvedRequests.length - rejectedRequests.length */\n      sub\n        /* \"background.sol\":13868:13884  approvedRequests */\n      0x03\n        /* \"background.sol\":13868:13891  approvedRequests.length */\n      dup1\n      sload\n      swap1\n      pop\n        /* \"background.sol\":13893:13909  rejectedRequests */\n      0x04\n        /* \"background.sol\":13893:13916  rejectedRequests.length */\n      dup1\n      sload\n      swap1\n      pop\n        /* \"background.sol\":13918:13933  insuranceIssued */\n      0x05\n        /* \"background.sol\":13935:13950  pendingRequests */\n      0x02\n        /* \"background.sol\":13952:13968  approvedRequests */\n      0x03\n        /* \"background.sol\":13970:13986  rejectedRequests */\n      0x04\n        /* \"background.sol\":13754:13988  return( true, insuranceIssued.length, pendingRequests.length - approvedRequests.length - rejectedRequests.length, approvedRequests.length, rejectedRequests.length, insuranceIssued, pendingRequests, approvedRequests, rejectedRequests ) */\n      dup4\n      dup1\n      sload\n      dup1\n      0x20\n      mul\n      0x20\n      add\n      mload(0x40)\n      swap1\n      dup2\n      add\n      0x40\n      mstore\n      dup1\n      swap3\n      swap2\n      swap1\n      dup2\n      dup2\n      mstore\n      0x20\n      add\n      dup3\n      dup1\n      sload\n      dup1\n      iszero\n      tag_104\n      jumpi\n      0x20\n      mul\n      dup3\n      add\n      swap2\n      swap1\n      0x00\n      mstore\n      keccak256(0x00, 0x20)\n      swap1\n    tag_105:\n      dup2\n      0x00\n      swap1\n      sload\n      swap1\n      0x0100\n      exp\n      swap1\n      div\n      0xffffffffffffffffffffffffffffffffffffffff\n      and\n      0xffffffffffffffffffffffffffffffffffffffff\n      and\n      dup2\n      mstore\n      0x20\n      add\n      swap1\n      0x01\n      add\n      swap1\n      dup1\n      dup4\n      gt\n      tag_105\n      jumpi\n    tag_104:\n      pop\n      pop\n      pop\n      pop\n      pop\n      swap4\n      pop\n      dup3\n      dup1\n      sload\n      dup1\n      0x20\n      mul\n      0x20\n      add\n      mload(0x40)\n      swap1\n      dup2\n      add\n      0x40\n      mstore\n      dup1\n      swap3\n      swap2\n      swap1\n      dup2\n      dup2\n      mstore\n      0x20\n      add\n      0x00\n      swap1\n    tag_106:\n      dup3\n      dup3\n      lt\n      iszero\n      tag_107\n      jumpi\n      dup4\n      dup3\n      swap1\n      0x00\n      mstore\n      keccak256(0x00, 0x20)\n      swap1\n      0x08\n      mul\n      add\n      0x0120\n      mload(0x40)\n      swap1\n      dup2\n      add\n      0x40\n      mstore\n      swap1\n      dup2\n      0x00\n      dup3\n      add\n      0x00\n      swap1\n      sload\n      swap1\n      0x0100\n      exp\n      swap1\n      div\n      0xffffffffffffffffffffffffffffffffffffffff\n      and\n      0xffffffffffffffffffffffffffffffffffffffff\n      and\n      0xffffffffffffffffffffffffffffffffffffffff\n      and\n      dup2\n      mstore\n      0x20\n      add\n      0x01\n      dup3\n      add\n      0x00\n      swap1\n      sload\n      swap1\n      0x0100\n      exp\n      swap1\n      div\n      0xffffffffffffffffffffffffffffffffffffffff\n      and\n      0xffffffffffffffffffffffffffffffffffffffff\n      and\n      0xffffffffffffffffffffffffffffffffffffffff\n      and\n      dup2\n      mstore\n      0x20\n      add\n      0x02\n      dup3\n      add\n      dup1\n      sload\n      0x01\n      dup2\n      0x01\n      and\n      iszero\n      0x0100\n      mul\n      sub\n      and\n      0x02\n      swap1\n      div\n      dup1\n      0x1f\n      add\n      0x20\n      dup1\n      swap2\n      div\n      mul\n      0x20\n      add\n      mload(0x40)\n      swap1\n      dup2\n      add\n      0x40\n      mstore\n      dup1\n      swap3\n      swap2\n      swap1\n      dup2\n      dup2\n      mstore\n      0x20\n      add\n      dup3\n      dup1\n      sload\n      0x01\n      dup2\n      0x01\n      and\n      iszero\n      0x0100\n      mul\n      sub\n      and\n      0x02\n      swap1\n      div\n      dup1\n      iszero\n      tag_109\n      jumpi\n      dup1\n      0x1f\n      lt\n      tag_110\n      jumpi\n      0x0100\n      dup1\n      dup4\n      sload\n      div\n      mul\n      dup4\n      mstore\n      swap2\n      0x20\n      add\n      swap2\n      jump(tag_109)\n    tag_110:\n      dup3\n      add\n      swap2\n      swap1\n      0x00\n      mstore\n      keccak256(0x00, 0x20)\n      swap1\n    tag_111:\n      dup2\n      sload\n      dup2\n      mstore\n      swap1\n      0x01\n      add\n      swap1\n      0x20\n      add\n      dup1\n      dup4\n      gt\n      tag_111\n      jumpi\n      dup3\n      swap1\n      sub\n      0x1f\n      and\n      dup3\n      add\n      swap2\n    tag_109:\n      pop\n      pop\n      pop\n      pop\n      pop\n      dup2\n      mstore\n      0x20\n      add\n      0x03\n      dup3\n      add\n      dup1\n      sload\n      0x01\n      dup2\n      0x01\n      and\n      iszero\n      0x0100\n      mul\n      sub\n      and\n      0x02\n      swap1\n      div\n      dup1\n      0x1f\n      add\n      0x20\n      dup1\n      swap2\n      div\n      mul\n      0x20\n      add\n      mload(0x40)\n      swap1\n      dup2\n      add\n      0x40\n      mstore\n      dup1\n      swap3\n      swap2\n      swap1\n      dup2\n      dup2\n      mstore\n      0x20\n      add\n      dup3\n      dup1\n      sload\n      0x01\n      dup2\n      0x01\n      and\n      iszero\n      0x0100\n      mul\n      sub\n      and\n      0x02\n      swap1\n      div\n      dup1\n      iszero\n      tag_112\n      jumpi\n      dup1\n      0x1f\n      lt\n      tag_113\n      jumpi\n      0x0100\n      dup1\n      dup4\n      sload\n      div\n      mul\n      dup4\n      mstore\n      swap2\n      0x20\n      add\n      swap2\n      jump(tag_112)\n    tag_113:\n      dup3\n      add\n      swap2\n      swap1\n      0x00\n      mstore\n      keccak256(0x00, 0x20)\n      swap1\n    tag_114:\n      dup2\n      sload\n      dup2\n      mstore\n      swap1\n      0x01\n      add\n      swap1\n      0x20\n      add\n      dup1\n      dup4\n      gt\n      tag_114\n      jumpi\n      dup3\n      swap1\n      sub\n      0x1f\n      and\n      dup3\n      add\n      swap2\n    tag_112:\n      pop\n      pop\n      pop\n      pop\n      pop\n      dup2\n      mstore\n      0x20\n      add\n      0x04\n      dup3\n      add\n      0x00\n      swap1\n      sload\n      swap1\n      0x0100\n      exp\n      swap1\n      div\n      0xff\n      and\n      iszero\n      iszero\n      iszero\n      iszero\n      dup2\n      mstore\n      0x20\n      add\n      0x04\n      dup3\n      add\n      0x01\n      swap1\n      sload\n      swap1\n      0x0100\n      exp\n      swap1\n      div\n      0xff\n      and\n      iszero\n      iszero\n      iszero\n      iszero\n      dup2\n      mstore\n      0x20\n      add\n      0x05\n      dup3\n      add\n      dup1\n      sload\n      0x01\n      dup2\n      0x01\n      and\n      iszero\n      0x0100\n      mul\n      sub\n      and\n      0x02\n      swap1\n      div\n      dup1\n      0x1f\n      add\n      0x20\n      dup1\n      swap2\n      div\n      mul\n      0x20\n      add\n      mload(0x40)\n      swap1\n      dup2\n      add\n      0x40\n      mstore\n      dup1\n      swap3\n      swap2\n      swap1\n      dup2\n      dup2\n      mstore\n      0x20\n      add\n      dup3\n      dup1\n      sload\n      0x01\n      dup2\n      0x01\n      and\n      iszero\n      0x0100\n      mul\n      sub\n      and\n      0x02\n      swap1\n      div\n      dup1\n      iszero\n      tag_115\n      jumpi\n      dup1\n      0x1f\n      lt\n      tag_116\n      jumpi\n      0x0100\n      dup1\n      dup4\n      sload\n      div\n      mul\n      dup4\n      mstore\n      swap2\n      0x20\n      add\n      swap2\n      jump(tag_115)\n    tag_116:\n      dup3\n      add\n      swap2\n      swap1\n      0x00\n      mstore\n      keccak256(0x00, 0x20)\n      swap1\n    tag_117:\n      dup2\n      sload\n      dup2\n      mstore\n      swap1\n      0x01\n      add\n      swap1\n      0x20\n      add\n      dup1\n      dup4\n      gt\n      tag_117\n      jumpi\n      dup3\n      swap1\n      sub\n      0x1f\n      and\n      dup3\n      add\n      swap2\n    tag_115:\n      pop\n      pop\n      pop\n      pop\n      pop\n      dup2\n      mstore\n      0x20\n      add\n      0x06\n      dup3\n      add\n      sload\n      dup2\n      mstore\n      0x20\n      add\n      0x07\n      dup3\n      add\n      sload\n      dup2\n      mstore\n      pop\n      pop\n      dup2\n      mstore\n      0x20\n      add\n      swap1\n      0x01\n      add\n      swap1\n      jump(tag_106)\n    tag_107:\n      pop\n      pop\n      pop\n      pop\n      swap3\n      pop\n      dup2\n      dup1\n      sload\n      dup1\n      0x20\n      mul\n      0x20\n      add\n      mload(0x40)\n      swap1\n      dup2\n      add\n      0x40\n      mstore\n      dup1\n      swap3\n      swap2\n      swap1\n      dup2\n      dup2\n      mstore\n      0x20\n      add\n      0x00\n      swap1\n    tag_118:\n      dup3\n      dup3\n      lt\n      iszero\n      tag_119\n      jumpi\n      dup4\n      dup3\n      swap1\n      0x00\n      mstore\n      keccak256(0x00, 0x20)\n      swap1\n      0x08\n      mul\n      add\n      0x0120\n      mload(0x40)\n      swap1\n      dup2\n      add\n      0x40\n      mstore\n      swap1\n      dup2\n      0x00\n      dup3\n      add\n      0x00\n      swap1\n      sload\n      swap1\n      0x0100\n      exp\n      swap1\n      div\n      0xffffffffffffffffffffffffffffffffffffffff\n      and\n      0xffffffffffffffffffffffffffffffffffffffff\n      and\n      0xffffffffffffffffffffffffffffffffffffffff\n      and\n      dup2\n      mstore\n      0x20\n      add\n      0x01\n      dup3\n      add\n      0x00\n      swap1\n      sload\n      swap1\n      0x0100\n      exp\n      swap1\n      div\n      0xffffffffffffffffffffffffffffffffffffffff\n      and\n      0xffffffffffffffffffffffffffffffffffffffff\n      and\n      0xffffffffffffffffffffffffffffffffffffffff\n      and\n      dup2\n      mstore\n      0x20\n      add\n      0x02\n      dup3\n      add\n      dup1\n      sload\n      0x01\n      dup2\n      0x01\n      and\n      iszero\n      0x0100\n      mul\n      sub\n      and\n      0x02\n      swap1\n      div\n      dup1\n      0x1f\n      add\n      0x20\n      dup1\n      swap2\n      div\n      mul\n      0x20\n      add\n      mload(0x40)\n      swap1\n      dup2\n      add\n      0x40\n      mstore\n      dup1\n      swap3\n      swap2\n      swap1\n      dup2\n      dup2\n      mstore\n      0x20\n      add\n      dup3\n      dup1\n      sload\n      0x01\n      dup2\n      0x01\n      and\n      iszero\n      0x0100\n      mul\n      sub\n      and\n      0x02\n      swap1\n      div\n      dup1\n      iszero\n      tag_121\n      jumpi\n      dup1\n      0x1f\n      lt\n      tag_122\n      jumpi\n      0x0100\n      dup1\n      dup4\n      sload\n      div\n      mul\n      dup4\n      mstore\n      swap2\n      0x20\n      add\n      swap2\n      jump(tag_121)\n    tag_122:\n      dup3\n      add\n      swap2\n      swap1\n      0x00\n      mstore\n      keccak256(0x00, 0x20)\n      swap1\n    tag_123:\n      dup2\n      sload\n      dup2\n      mstore\n      swap1\n      0x01\n      add\n      swap1\n      0x20\n      add\n      dup1\n      dup4\n      gt\n      tag_123\n      jumpi\n      dup3\n      swap1\n      sub\n      0x1f\n      and\n      dup3\n      add\n      swap2\n    tag_121:\n      pop\n      pop\n      pop\n      pop\n      pop\n      dup2\n      mstore\n      0x20\n      add\n      0x03\n      dup3\n      add\n      dup1\n      sload\n      0x01\n      dup2\n      0x01\n      and\n      iszero\n      0x0100\n      mul\n      sub\n      and\n      0x02\n      swap1\n      div\n      dup1\n      0x1f\n      add\n      0x20\n      dup1\n      swap2\n      div\n      mul\n      0x20\n      add\n      mload(0x40)\n      swap1\n      dup2\n      add\n      0x40\n      mstore\n      dup1\n      swap3\n      swap2\n      swap1\n      dup2\n      dup2\n      mstore\n      0x20\n      add\n      dup3\n      dup1\n      sload\n      0x01\n      dup2\n      0x01\n      and\n      iszero\n      0x0100\n      mul\n      sub\n      and\n      0x02\n      swap1\n      div\n      dup1\n      iszero\n      tag_124\n      jumpi\n      dup1\n      0x1f\n      lt\n      tag_125\n      jumpi\n      0x0100\n      dup1\n      dup4\n      sload\n      div\n      mul\n      dup4\n      mstore\n      swap2\n      0x20\n      add\n      swap2\n      jump(tag_124)\n    tag_125:\n      dup3\n      add\n      swap2\n      swap1\n      0x00\n      mstore\n      keccak256(0x00, 0x20)\n      swap1\n    tag_126:\n      dup2\n      sload\n      dup2\n      mstore\n      swap1\n      0x01\n      add\n      swap1\n      0x20\n      add\n      dup1\n      dup4\n      gt\n      tag_126\n      jumpi\n      dup3\n      swap1\n      sub\n      0x1f\n      and\n      dup3\n      add\n      swap2\n    tag_124:\n      pop\n      pop\n      pop\n      pop\n      pop\n      dup2\n      mstore\n      0x20\n      add\n      0x04\n      dup3\n      add\n      0x00\n      swap1\n      sload\n      swap1\n      0x0100\n      exp\n      swap1\n      div\n      0xff\n      and\n      iszero\n      iszero\n      iszero\n      iszero\n      dup2\n      mstore\n      0x20\n      add\n      0x04\n      dup3\n      add\n      0x01\n      swap1\n      sload\n      swap1\n      0x0100\n      exp\n      swap1\n      div\n      0xff\n      and\n      iszero\n      iszero\n      iszero\n      iszero\n      dup2\n      mstore\n      0x20\n      add\n      0x05\n      dup3\n      add\n      dup1\n      sload\n      0x01\n      dup2\n      0x01\n      and\n      iszero\n      0x0100\n      mul\n      sub\n      and\n      0x02\n      swap1\n      div\n      dup1\n      0x1f\n      add\n      0x20\n      dup1\n      swap2\n      div\n      mul\n      0x20\n      add\n      mload(0x40)\n      swap1\n      dup2\n      add\n      0x40\n      mstore\n      dup1\n      swap3\n      swap2\n      swap1\n      dup2\n      dup2\n      mstore\n      0x20\n      add\n      dup3\n      dup1\n      sload\n      0x01\n      dup2\n      0x01\n      and\n      iszero\n      0x0100\n      mul\n      sub\n      and\n      0x02\n      swap1\n      div\n      dup1\n      iszero\n      tag_127\n      jumpi\n      dup1\n      0x1f\n      lt\n      tag_128\n      jumpi\n      0x0100\n      dup1\n      dup4\n      sload\n      div\n      mul\n      dup4\n      mstore\n      swap2\n      0x20\n      add\n      swap2\n      jump(tag_127)\n    tag_128:\n      dup3\n      add\n      swap2\n      swap1\n      0x00\n      mstore\n      keccak256(0x00, 0x20)\n      swap1\n    tag_129:\n      dup2\n      sload\n      dup2\n      mstore\n      swap1\n      0x01\n      add\n      swap1\n      0x20\n      add\n      dup1\n      dup4\n      gt\n      tag_129\n      jumpi\n      dup3\n      swap1\n      sub\n      0x1f\n      and\n      dup3\n      add\n      swap2\n    tag_127:\n      pop\n      pop\n      pop\n      pop\n      pop\n      dup2\n      mstore\n      0x20\n      add\n      0x06\n      dup3\n      add\n      sload\n      dup2\n      mstore\n      0x20\n      add\n      0x07\n      dup3\n      add\n      sload\n      dup2\n      mstore\n      pop\n      pop\n      dup2\n      mstore\n      0x20\n      add\n      swap1\n      0x01\n      add\n      swap1\n      jump(tag_118)\n    tag_119:\n      pop\n      pop\n      pop\n      pop\n      swap2\n      pop\n      dup1\n      dup1\n      sload\n      dup1\n      0x20\n      mul\n      0x20\n      add\n      mload(0x40)\n      swap1\n      dup2\n      add\n      0x40\n      mstore\n      dup1\n      swap3\n      swap2\n      swap1\n      dup2\n      dup2\n      mstore\n      0x20\n      add\n      0x00\n      swap1\n    tag_130:\n      dup3\n      dup3\n      lt\n      iszero\n      tag_131\n      jumpi\n      dup4\n      dup3\n      swap1\n      0x00\n      mstore\n      keccak256(0x00, 0x20)\n      swap1\n      0x08\n      mul\n      add\n      0x0120\n      mload(0x40)\n      swap1\n      dup2\n      add\n      0x40\n      mstore\n      swap1\n      dup2\n      0x00\n      dup3\n      add\n      0x00\n      swap1\n      sload\n      swap1\n      0x0100\n      exp\n      swap1\n      div\n      0xffffffffffffffffffffffffffffffffffffffff\n      and\n      0xffffffffffffffffffffffffffffffffffffffff\n      and\n      0xffffffffffffffffffffffffffffffffffffffff\n      and\n      dup2\n      mstore\n      0x20\n      add\n      0x01\n      dup3\n      add\n      0x00\n      swap1\n      sload\n      swap1\n      0x0100\n      exp\n      swap1\n      div\n      0xffffffffffffffffffffffffffffffffffffffff\n      and\n      0xffffffffffffffffffffffffffffffffffffffff\n      and\n      0xffffffffffffffffffffffffffffffffffffffff\n      and\n      dup2\n      mstore\n      0x20\n      add\n      0x02\n      dup3\n      add\n      dup1\n      sload\n      0x01\n      dup2\n      0x01\n      and\n      iszero\n      0x0100\n      mul\n      sub\n      and\n      0x02\n      swap1\n      div\n      dup1\n      0x1f\n      add\n      0x20\n      dup1\n      swap2\n      div\n      mul\n      0x20\n      add\n      mload(0x40)\n      swap1\n      dup2\n      add\n      0x40\n      mstore\n      dup1\n      swap3\n      swap2\n      swap1\n      dup2\n      dup2\n      mstore\n      0x20\n      add\n      dup3\n      dup1\n      sload\n      0x01\n      dup2\n      0x01\n      and\n      iszero\n      0x0100\n      mul\n      sub\n      and\n      0x02\n      swap1\n      div\n      dup1\n      iszero\n      tag_133\n      jumpi\n      dup1\n      0x1f\n      lt\n      tag_134\n      jumpi\n      0x0100\n      dup1\n      dup4\n      sload\n      div\n      mul\n      dup4\n      mstore\n      swap2\n      0x20\n      add\n      swap2\n      jump(tag_133)\n    tag_134:\n      dup3\n      add\n      swap2\n      swap1\n      0x00\n      mstore\n      keccak256(0x00, 0x20)\n      swap1\n    tag_135:\n      dup2\n      sload\n      dup2\n      mstore\n      swap1\n      0x01\n      add\n      swap1\n      0x20\n      add\n      dup1\n      dup4\n      gt\n      tag_135\n      jumpi\n      dup3\n      swap1\n      sub\n      0x1f\n      and\n      dup3\n      add\n      swap2\n    tag_133:\n      pop\n      pop\n      pop\n      pop\n      pop\n      dup2\n      mstore\n      0x20\n      add\n      0x03\n      dup3\n      add\n      dup1\n      sload\n      0x01\n      dup2\n      0x01\n      and\n      iszero\n      0x0100\n      mul\n      sub\n      and\n      0x02\n      swap1\n      div\n      dup1\n      0x1f\n      add\n      0x20\n      dup1\n      swap2\n      div\n      mul\n      0x20\n      add\n      mload(0x40)\n      swap1\n      dup2\n      add\n      0x40\n      mstore\n      dup1\n      swap3\n      swap2\n      swap1\n      dup2\n      dup2\n      mstore\n      0x20\n      add\n      dup3\n      dup1\n      sload\n      0x01\n      dup2\n      0x01\n      and\n      iszero\n      0x0100\n      mul\n      sub\n      and\n      0x02\n      swap1\n      div\n      dup1\n      iszero\n      tag_136\n      jumpi\n      dup1\n      0x1f\n      lt\n      tag_137\n      jumpi\n      0x0100\n      dup1\n      dup4\n      sload\n      div\n      mul\n      dup4\n      mstore\n      swap2\n      0x20\n      add\n      swap2\n      jump(tag_136)\n    tag_137:\n      dup3\n      add\n      swap2\n      swap1\n      0x00\n      mstore\n      keccak256(0x00, 0x20)\n      swap1\n    tag_138:\n      dup2\n      sload\n      dup2\n      mstore\n      swap1\n      0x01\n      add\n      swap1\n      0x20\n      add\n      dup1\n      dup4\n      gt\n      tag_138\n      jumpi\n      dup3\n      swap1\n      sub\n      0x1f\n      and\n      dup3\n      add\n      swap2\n    tag_136:\n      pop\n      pop\n      pop\n      pop\n      pop\n      dup2\n      mstore\n      0x20\n      add\n      0x04\n      dup3\n      add\n      0x00\n      swap1\n      sload\n      swap1\n      0x0100\n      exp\n      swap1\n      div\n      0xff\n      and\n      iszero\n      iszero\n      iszero\n      iszero\n      dup2\n      mstore\n      0x20\n      add\n      0x04\n      dup3\n      add\n      0x01\n      swap1\n      sload\n      swap1\n      0x0100\n      exp\n      swap1\n      div\n      0xff\n      and\n      iszero\n      iszero\n      iszero\n      iszero\n      dup2\n      mstore\n      0x20\n      add\n      0x05\n      dup3\n      add\n      dup1\n      sload\n      0x01\n      dup2\n      0x01\n      and\n      iszero\n      0x0100\n      mul\n      sub\n      and\n      0x02\n      swap1\n      div\n      dup1\n      0x1f\n      add\n      0x20\n      dup1\n      swap2\n      div\n      mul\n      0x20\n      add\n      mload(0x40)\n      swap1\n      dup2\n      add\n      0x40\n      mstore\n      dup1\n      swap3\n      swap2\n      swap1\n      dup2\n      dup2\n      mstore\n      0x20\n      add\n      dup3\n      dup1\n      sload\n      0x01\n      dup2\n      0x01\n      and\n      iszero\n      0x0100\n      mul\n      sub\n      and\n      0x02\n      swap1\n      div\n      dup1\n      iszero\n      tag_139\n      jumpi\n      dup1\n      0x1f\n      lt\n      tag_140\n      jumpi\n      0x0100\n      dup1\n      dup4\n      sload\n      div\n      mul\n      dup4\n      mstore\n      swap2\n      0x20\n      add\n      swap2\n      jump(tag_139)\n    tag_140:\n      dup3\n      add\n      swap2\n      swap1\n      0x00\n      mstore\n      keccak256(0x00, 0x20)\n      swap1\n    tag_141:\n      dup2\n      sload\n      dup2\n      mstore\n      swap1\n      0x01\n      add\n      swap1\n      0x20\n      add\n      dup1\n      dup4\n      gt\n      tag_141\n      jumpi\n      dup3\n      swap1\n      sub\n      0x1f\n      and\n      dup3\n      add\n      swap2\n    tag_139:\n      pop\n      pop\n      pop\n      pop\n      pop\n      dup2\n      mstore\n      0x20\n      add\n      0x06\n      dup3\n      add\n      sload\n      dup2\n      mstore\n      0x20\n      add\n      0x07\n      dup3\n      add\n      sload\n      dup2\n      mstore\n      pop\n      pop\n      dup2\n      mstore\n      0x20\n      add\n      swap1\n      0x01\n      add\n      swap1\n      jump(tag_130)\n    tag_131:\n      pop\n      pop\n      pop\n      pop\n      swap1\n      pop\n      swap9\n      pop\n      swap9\n      pop\n      swap9\n      pop\n      swap9\n      pop\n      swap9\n      pop\n      swap9\n      pop\n      swap9\n      pop\n      swap9\n      pop\n      swap9\n      pop\n      jump(tag_100)\n        /* \"background.sol\":13682:14243  if((msg.sender == manager) && (isCorrectPassword(pass))) {\r... */\n    tag_103:\n        /* \"background.sol\":14030:14052  address[] memory dummy */\n      0x60\n        /* \"background.sol\":14069:14070  1 */\n      0x01\n        /* \"background.sol\":14055:14071  new address[](1) */\n      mload(0x40)\n      swap1\n      dup1\n      dup3\n      mstore\n      dup1\n      0x20\n      mul\n      0x20\n      add\n      dup3\n      add\n      0x40\n      mstore\n      dup1\n      iszero\n      tag_143\n      jumpi\n      dup2\n      0x20\n      add\n        /* \"--CODEGEN--\":29:31   */\n      0x20\n        /* \"--CODEGEN--\":21:27   */\n      dup3\n        /* \"--CODEGEN--\":17:32   */\n      mul\n        /* \"--CODEGEN--\":117:121   */\n      dup1\n        /* \"--CODEGEN--\":105:115   */\n      codesize\n        /* \"--CODEGEN--\":97:103   */\n      dup4\n        /* \"--CODEGEN--\":88:122   */\n      codecopy\n        /* \"--CODEGEN--\":148:152   */\n      dup1\n        /* \"--CODEGEN--\":140:146   */\n      dup3\n        /* \"--CODEGEN--\":136:153   */\n      add\n        /* \"--CODEGEN--\":126:153   */\n      swap2\n      pop\n        /* \"--CODEGEN--\":0:157   */\n      pop\n        /* \"background.sol\":14055:14071  new address[](1) */\n      swap1\n      pop\n    tag_143:\n      pop\n        /* \"background.sol\":14030:14071  address[] memory dummy = new address[](1) */\n      swap1\n      pop\n        /* \"background.sol\":14086:14116  Request[] memory dummyRequests */\n      0x60\n        /* \"background.sol\":14133:14134  1 */\n      0x01\n        /* \"background.sol\":14119:14135  new Request[](1) */\n      mload(0x40)\n      swap1\n      dup1\n      dup3\n      mstore\n      dup1\n      0x20\n      mul\n      0x20\n      add\n      dup3\n      add\n      0x40\n      mstore\n      dup1\n      iszero\n      tag_144\n      jumpi\n      dup2\n      0x20\n      add\n    tag_145:\n      tag_146\n      tag_147\n      jump\t// in\n    tag_146:\n      dup2\n      mstore\n      0x20\n      add\n      swap1\n      0x01\n      swap1\n      sub\n      swap1\n      dup2\n      tag_145\n      jumpi\n      swap1\n      pop\n    tag_144:\n      pop\n        /* \"background.sol\":14086:14135  Request[] memory dummyRequests = new Request[](1) */\n      swap1\n      pop\n        /* \"background.sol\":14161:14166  false */\n      0x00\n        /* \"background.sol\":14168:14169  0 */\n      dup1\n        /* \"background.sol\":14171:14172  0 */\n      0x00\n        /* \"background.sol\":14174:14175  0 */\n      dup1\n        /* \"background.sol\":14177:14178  0 */\n      0x00\n        /* \"background.sol\":14180:14185  dummy */\n      dup7\n        /* \"background.sol\":14187:14200  dummyRequests */\n      dup7\n        /* \"background.sol\":14202:14215  dummyRequests */\n      dup8\n        /* \"background.sol\":14217:14230  dummyRequests */\n      dup9\n        /* \"background.sol\":14152:14231  return ( false, 0, 0, 0, 0, dummy, dummyRequests, dummyRequests, dummyRequests) */\n      dup8\n      swap8\n      pop\n      dup7\n      swap7\n      pop\n      dup6\n      swap6\n      pop\n      dup5\n      swap5\n      pop\n      swap11\n      pop\n      swap11\n      pop\n      swap11\n      pop\n      swap11\n      pop\n      swap11\n      pop\n      swap11\n      pop\n      swap11\n      pop\n      swap11\n      pop\n      swap11\n      pop\n      pop\n      pop\n        /* \"background.sol\":13512:14250  function getData(string memory pass) public view returns(bool, uint, uint, uint, uint, address[] memory, Request[] memory, Request[] memory, Request[] memory) {\r... */\n    tag_100:\n      swap2\n      swap4\n      swap6\n      swap8\n      swap10\n      swap1\n      swap3\n      swap5\n      swap7\n      swap9\n      pop\n      jump\t// out\n        /* \"background.sol\":14258:14928  function createInsurance(string memory name, int aadhar, int amount, string memory insDetailss, string memory documentss, int setInsuranceAddresss) public  {\r... */\n    tag_35:\n        /* \"background.sol\":14443:14450  manager */\n      0x01\n      0x00\n      swap1\n      sload\n      swap1\n      0x0100\n      exp\n      swap1\n      div\n      0xffffffffffffffffffffffffffffffffffffffff\n      and\n        /* \"background.sol\":14429:14450  msg.sender == manager */\n      0xffffffffffffffffffffffffffffffffffffffff\n      and\n        /* \"background.sol\":14429:14439  msg.sender */\n      caller\n        /* \"background.sol\":14429:14450  msg.sender == manager */\n      0xffffffffffffffffffffffffffffffffffffffff\n      and\n      eq\n        /* \"background.sol\":14425:14921  if( msg.sender == manager ) {\r... */\n      iszero\n      tag_149\n      jumpi\n        /* \"background.sol\":14468:14488  address newInsurance */\n      0x00\n        /* \"background.sol\":14521:14525  this */\n      address\n        /* \"background.sol\":14528:14532  name */\n      dup8\n        /* \"background.sol\":14534:14540  aadhar */\n      dup8\n        /* \"background.sol\":14542:14548  amount */\n      dup8\n        /* \"background.sol\":14550:14561  insDetailss */\n      dup8\n        /* \"background.sol\":14563:14573  documentss */\n      dup8\n        /* \"background.sol\":14499:14574  new Insurance(address(this), name, aadhar, amount, insDetailss, documentss) */\n      tag_150\n      tag_151\n      jump\t// in\n    tag_150:\n      tag_152\n      swap7\n      swap6\n      swap5\n      swap4\n      swap3\n      swap2\n      swap1\n      jump(tag_153)\n    tag_152:\n      mload(0x40)\n      dup1\n      swap2\n      sub\n      swap1\n      0x00\n      create\n      dup1\n      iszero\n        /* \"--CODEGEN--\":8:17   */\n      dup1\n        /* \"--CODEGEN--\":5:7   */\n      iszero\n      tag_154\n      jumpi\n        /* \"--CODEGEN--\":45:61   */\n      returndatasize\n        /* \"--CODEGEN--\":42:43   */\n      0x00\n        /* \"--CODEGEN--\":39:40   */\n      dup1\n        /* \"--CODEGEN--\":24:62   */\n      returndatacopy\n        /* \"--CODEGEN--\":77:93   */\n      returndatasize\n        /* \"--CODEGEN--\":74:75   */\n      0x00\n        /* \"--CODEGEN--\":67:94   */\n      revert\n        /* \"--CODEGEN--\":5:7   */\n    tag_154:\n        /* \"background.sol\":14499:14574  new Insurance(address(this), name, aadhar, amount, insDetailss, documentss) */\n      pop\n        /* \"background.sol\":14468:14575  address newInsurance = address(new Insurance(address(this), name, aadhar, amount, insDetailss, documentss)) */\n      swap1\n      pop\n        /* \"background.sol\":14590:14605  insuranceIssued */\n      0x05\n        /* \"background.sol\":14611:14623  newInsurance */\n      dup2\n        /* \"background.sol\":14590:14624  insuranceIssued.push(newInsurance) */\n      swap1\n      dup1\n        /* \"--CODEGEN--\":39:40   */\n      0x01\n        /* \"--CODEGEN--\":33:36   */\n      dup2\n        /* \"--CODEGEN--\":27:37   */\n      sload\n        /* \"--CODEGEN--\":23:41   */\n      add\n        /* \"--CODEGEN--\":57:67   */\n      dup1\n        /* \"--CODEGEN--\":52:55   */\n      dup3\n        /* \"--CODEGEN--\":45:68   */\n      sstore\n        /* \"--CODEGEN--\":79:89   */\n      dup1\n        /* \"--CODEGEN--\":72:89   */\n      swap2\n      pop\n        /* \"--CODEGEN--\":0:93   */\n      pop\n        /* \"background.sol\":14590:14624  insuranceIssued.push(newInsurance) */\n      swap1\n      0x01\n      dup3\n      sub\n      swap1\n      0x00\n      mstore\n      keccak256(0x00, 0x20)\n      add\n      0x00\n      swap1\n      swap2\n      swap3\n      swap1\n      swap2\n      swap1\n      swap2\n      0x0100\n      exp\n      dup2\n      sload\n      dup2\n      0xffffffffffffffffffffffffffffffffffffffff\n      mul\n      not\n      and\n      swap1\n      dup4\n      0xffffffffffffffffffffffffffffffffffffffff\n      and\n      mul\n      or\n      swap1\n      sstore\n      pop\n      pop\n        /* \"background.sol\":14673:14677  true */\n      0x01\n        /* \"background.sol\":14639:14656  isIssuedInsurance */\n      0x06\n        /* \"background.sol\":14639:14670  isIssuedInsurance[newInsurance] */\n      0x00\n        /* \"background.sol\":14657:14669  newInsurance */\n      dup4\n        /* \"background.sol\":14639:14670  isIssuedInsurance[newInsurance] */\n      0xffffffffffffffffffffffffffffffffffffffff\n      and\n      0xffffffffffffffffffffffffffffffffffffffff\n      and\n      dup2\n      mstore\n      0x20\n      add\n      swap1\n      dup2\n      mstore\n      0x20\n      add\n      0x00\n      keccak256\n      0x00\n        /* \"background.sol\":14639:14677  isIssuedInsurance[newInsurance] = true */\n      0x0100\n      exp\n      dup2\n      sload\n      dup2\n      0xff\n      mul\n      not\n      and\n      swap1\n      dup4\n      iszero\n      iszero\n      mul\n      or\n      swap1\n      sstore\n      pop\n        /* \"background.sol\":14692:14702  Mapping mp */\n      0x00\n        /* \"background.sol\":14713:14755  0xD8693BAfBA8a45bE8DFD090Fa032AB4e5E8a504c */\n      0xd8693bafba8a45be8dfd090fa032ab4e5e8a504c\n        /* \"background.sol\":14692:14756  Mapping mp = Mapping(0xD8693BAfBA8a45bE8DFD090Fa032AB4e5E8a504c) */\n      swap1\n      pop\n        /* \"background.sol\":14771:14788  AddressMapping hh */\n      0x00\n        /* \"background.sol\":14806:14808  mp */\n      dup2\n        /* \"background.sol\":14806:14833  mp.getAddressMappingAddress */\n      0xffffffffffffffffffffffffffffffffffffffff\n      and\n      0xde96b851\n        /* \"background.sol\":14806:14835  mp.getAddressMappingAddress() */\n      mload(0x40)\n      dup2\n      0xffffffff\n      and\n      0x0100000000000000000000000000000000000000000000000000000000\n      mul\n      dup2\n      mstore\n      0x04\n      add\n      0x20\n      mload(0x40)\n      dup1\n      dup4\n      sub\n      dup2\n      dup7\n      dup1\n      extcodesize\n      iszero\n        /* \"--CODEGEN--\":8:17   */\n      dup1\n        /* \"--CODEGEN--\":5:7   */\n      iszero\n      tag_156\n      jumpi\n        /* \"--CODEGEN--\":30:31   */\n      0x00\n        /* \"--CODEGEN--\":27:28   */\n      dup1\n        /* \"--CODEGEN--\":20:32   */\n      revert\n        /* \"--CODEGEN--\":5:7   */\n    tag_156:\n        /* \"background.sol\":14806:14835  mp.getAddressMappingAddress() */\n      pop\n      gas\n      staticcall\n      iszero\n        /* \"--CODEGEN--\":8:17   */\n      dup1\n        /* \"--CODEGEN--\":5:7   */\n      iszero\n      tag_157\n      jumpi\n        /* \"--CODEGEN--\":45:61   */\n      returndatasize\n        /* \"--CODEGEN--\":42:43   */\n      0x00\n        /* \"--CODEGEN--\":39:40   */\n      dup1\n        /* \"--CODEGEN--\":24:62   */\n      returndatacopy\n        /* \"--CODEGEN--\":77:93   */\n      returndatasize\n        /* \"--CODEGEN--\":74:75   */\n      0x00\n        /* \"--CODEGEN--\":67:94   */\n      revert\n        /* \"--CODEGEN--\":5:7   */\n    tag_157:\n        /* \"background.sol\":14806:14835  mp.getAddressMappingAddress() */\n      pop\n      pop\n      pop\n      pop\n      mload(0x40)\n      returndatasize\n        /* \"--CODEGEN--\":101:105   */\n      0x1f\n        /* \"--CODEGEN--\":97:106   */\n      not\n        /* \"--CODEGEN--\":90:94   */\n      0x1f\n        /* \"--CODEGEN--\":84:88   */\n      dup3\n        /* \"--CODEGEN--\":80:95   */\n      add\n        /* \"--CODEGEN--\":76:107   */\n      and\n        /* \"--CODEGEN--\":69:74   */\n      dup3\n        /* \"--CODEGEN--\":65:108   */\n      add\n        /* \"--CODEGEN--\":126:132   */\n      dup1\n        /* \"--CODEGEN--\":120:124   */\n      0x40\n        /* \"--CODEGEN--\":113:133   */\n      mstore\n        /* \"--CODEGEN--\":0:138   */\n      pop\n        /* \"background.sol\":14806:14835  mp.getAddressMappingAddress() */\n      tag_158\n      swap2\n      swap1\n      dup2\n      add\n      swap1\n      jump(tag_159)\n    tag_158:\n        /* \"background.sol\":14771:14836  AddressMapping hh = AddressMapping(mp.getAddressMappingAddress()) */\n      swap1\n      pop\n        /* \"background.sol\":14851:14853  hh */\n      dup1\n        /* \"background.sol\":14851:14873  hh.setInsuranceAddress */\n      0xffffffffffffffffffffffffffffffffffffffff\n      and\n      0x186dd4f1\n        /* \"background.sol\":14874:14894  setInsuranceAddresss */\n      dup6\n        /* \"background.sol\":14896:14908  newInsurance */\n      dup6\n        /* \"background.sol\":14851:14909  hh.setInsuranceAddress(setInsuranceAddresss, newInsurance) */\n      mload(0x40)\n      dup4\n      0xffffffff\n      and\n      0x0100000000000000000000000000000000000000000000000000000000\n      mul\n      dup2\n      mstore\n      0x04\n      add\n      tag_160\n      swap3\n      swap2\n      swap1\n      jump(tag_161)\n    tag_160:\n      0x00\n      mload(0x40)\n      dup1\n      dup4\n      sub\n      dup2\n      0x00\n      dup8\n      dup1\n      extcodesize\n      iszero\n        /* \"--CODEGEN--\":8:17   */\n      dup1\n        /* \"--CODEGEN--\":5:7   */\n      iszero\n      tag_162\n      jumpi\n        /* \"--CODEGEN--\":30:31   */\n      0x00\n        /* \"--CODEGEN--\":27:28   */\n      dup1\n        /* \"--CODEGEN--\":20:32   */\n      revert\n        /* \"--CODEGEN--\":5:7   */\n    tag_162:\n        /* \"background.sol\":14851:14909  hh.setInsuranceAddress(setInsuranceAddresss, newInsurance) */\n      pop\n      gas\n      call\n      iszero\n        /* \"--CODEGEN--\":8:17   */\n      dup1\n        /* \"--CODEGEN--\":5:7   */\n      iszero\n      tag_163\n      jumpi\n        /* \"--CODEGEN--\":45:61   */\n      returndatasize\n        /* \"--CODEGEN--\":42:43   */\n      0x00\n        /* \"--CODEGEN--\":39:40   */\n      dup1\n        /* \"--CODEGEN--\":24:62   */\n      returndatacopy\n        /* \"--CODEGEN--\":77:93   */\n      returndatasize\n        /* \"--CODEGEN--\":74:75   */\n      0x00\n        /* \"--CODEGEN--\":67:94   */\n      revert\n        /* \"--CODEGEN--\":5:7   */\n    tag_163:\n        /* \"background.sol\":14851:14909  hh.setInsuranceAddress(setInsuranceAddresss, newInsurance) */\n      pop\n      pop\n      pop\n      pop\n        /* \"background.sol\":14425:14921  if( msg.sender == manager ) {\r... */\n      pop\n      pop\n      pop\n    tag_149:\n        /* \"background.sol\":14258:14928  function createInsurance(string memory name, int aadhar, int amount, string memory insDetailss, string memory documentss, int setInsuranceAddresss) public  {\r... */\n      pop\n      pop\n      pop\n      pop\n      pop\n      pop\n      jump\t// out\n        /* \"background.sol\":11552:16469  contract Owner {\r... */\n    tag_51:\n      0x0120\n      mload(0x40)\n      swap1\n      dup2\n      add\n      0x40\n      mstore\n      dup1\n      and(0xffffffffffffffffffffffffffffffffffffffff, 0x00)\n      dup2\n      mstore\n      0x20\n      add\n      and(0xffffffffffffffffffffffffffffffffffffffff, 0x00)\n      dup2\n      mstore\n      0x20\n      add\n      0x60\n      dup2\n      mstore\n      0x20\n      add\n      0x60\n      dup2\n      mstore\n      0x20\n      add\n      iszero(iszero(0x00))\n      dup2\n      mstore\n      0x20\n      add\n      iszero(iszero(0x00))\n      dup2\n      mstore\n      0x20\n      add\n      0x60\n      dup2\n      mstore\n      0x20\n      add\n      0x00\n      dup2\n      mstore\n      0x20\n      add\n      0x00\n      dup2\n      mstore\n      pop\n      swap1\n      jump\t// out\n    tag_54:\n      dup3\n      dup1\n      sload\n      0x01\n      dup2\n      0x01\n      and\n      iszero\n      0x0100\n      mul\n      sub\n      and\n      0x02\n      swap1\n      div\n      swap1\n      0x00\n      mstore\n      keccak256(0x00, 0x20)\n      swap1\n      0x1f\n      add\n      0x20\n      swap1\n      div\n      dup2\n      add\n      swap3\n      dup3\n      0x1f\n      lt\n      tag_165\n      jumpi\n      dup1\n      mload\n      not(0xff)\n      and\n      dup4\n      dup1\n      add\n      or\n      dup6\n      sstore\n      jump(tag_164)\n    tag_165:\n      dup3\n      dup1\n      add\n      0x01\n      add\n      dup6\n      sstore\n      dup3\n      iszero\n      tag_164\n      jumpi\n      swap2\n      dup3\n      add\n    tag_166:\n      dup3\n      dup2\n      gt\n      iszero\n      tag_167\n      jumpi\n      dup3\n      mload\n      dup3\n      sstore\n      swap2\n      0x20\n      add\n      swap2\n      swap1\n      0x01\n      add\n      swap1\n      jump(tag_166)\n    tag_167:\n    tag_164:\n      pop\n      swap1\n      pop\n      tag_168\n      swap2\n      swap1\n      tag_169\n      jump\t// in\n    tag_168:\n      pop\n      swap1\n      jump\t// out\n    tag_72:\n      dup3\n      dup1\n      sload\n      0x01\n      dup2\n      0x01\n      and\n      iszero\n      0x0100\n      mul\n      sub\n      and\n      0x02\n      swap1\n      div\n      swap1\n      0x00\n      mstore\n      keccak256(0x00, 0x20)\n      swap1\n      0x1f\n      add\n      0x20\n      swap1\n      div\n      dup2\n      add\n      swap3\n      dup3\n      0x1f\n      lt\n      tag_171\n      jumpi\n      dup1\n      sload\n      dup6\n      sstore\n      jump(tag_170)\n    tag_171:\n      dup3\n      dup1\n      add\n      0x01\n      add\n      dup6\n      sstore\n      dup3\n      iszero\n      tag_170\n      jumpi\n      0x00\n      mstore\n      keccak256(0x00, 0x20)\n      swap2\n      0x1f\n      add\n      0x20\n      swap1\n      div\n      dup3\n      add\n    tag_172:\n      dup3\n      dup2\n      gt\n      iszero\n      tag_173\n      jumpi\n      dup3\n      sload\n      dup3\n      sstore\n      swap2\n      0x01\n      add\n      swap2\n      swap1\n      0x01\n      add\n      swap1\n      jump(tag_172)\n    tag_173:\n    tag_170:\n      pop\n      swap1\n      pop\n      tag_174\n      swap2\n      swap1\n      tag_169\n      jump\t// in\n    tag_174:\n      pop\n      swap1\n      jump\t// out\n    tag_78:\n      pop\n      dup1\n      sload\n      0x01\n      dup2\n      0x01\n      and\n      iszero\n      0x0100\n      mul\n      sub\n      and\n      0x02\n      swap1\n      div\n      0x00\n      dup3\n      sstore\n      dup1\n      0x1f\n      lt\n      tag_176\n      jumpi\n      pop\n      jump(tag_175)\n    tag_176:\n      0x1f\n      add\n      0x20\n      swap1\n      div\n      swap1\n      0x00\n      mstore\n      keccak256(0x00, 0x20)\n      swap1\n      dup2\n      add\n      swap1\n      tag_177\n      swap2\n      swap1\n      tag_169\n      jump\t// in\n    tag_177:\n    tag_175:\n      pop\n      jump\t// out\n    tag_147:\n      0x0120\n      mload(0x40)\n      swap1\n      dup2\n      add\n      0x40\n      mstore\n      dup1\n      and(0xffffffffffffffffffffffffffffffffffffffff, 0x00)\n      dup2\n      mstore\n      0x20\n      add\n      and(0xffffffffffffffffffffffffffffffffffffffff, 0x00)\n      dup2\n      mstore\n      0x20\n      add\n      0x60\n      dup2\n      mstore\n      0x20\n      add\n      0x60\n      dup2\n      mstore\n      0x20\n      add\n      iszero(iszero(0x00))\n      dup2\n      mstore\n      0x20\n      add\n      iszero(iszero(0x00))\n      dup2\n      mstore\n      0x20\n      add\n      0x60\n      dup2\n      mstore\n      0x20\n      add\n      0x00\n      dup2\n      mstore\n      0x20\n      add\n      0x00\n      dup2\n      mstore\n      pop\n      swap1\n      jump\t// out\n    tag_151:\n      mload(0x40)\n      dataSize(sub_0)\n      dup1\n      dataOffset(sub_0)\n      dup4\n      codecopy\n      add\n      swap1\n      jump\t// out\n    tag_169:\n      tag_178\n      swap2\n      swap1\n    tag_179:\n      dup1\n      dup3\n      gt\n      iszero\n      tag_180\n      jumpi\n      0x00\n      dup2\n      0x00\n      swap1\n      sstore\n      pop\n      0x01\n      add\n      jump(tag_179)\n    tag_180:\n      pop\n      swap1\n      jump\n    tag_178:\n      swap1\n      jump\t// out\n        /* \"--CODEGEN--\":5:123   */\n    tag_182:\n      0x00\n        /* \"--CODEGEN--\":72:118   */\n      tag_183\n        /* \"--CODEGEN--\":110:116   */\n      dup3\n        /* \"--CODEGEN--\":97:117   */\n      calldataload\n        /* \"--CODEGEN--\":72:118   */\n      jump(tag_184)\n    tag_183:\n        /* \"--CODEGEN--\":63:118   */\n      swap1\n      pop\n        /* \"--CODEGEN--\":57:123   */\n      swap3\n      swap2\n      pop\n      pop\n      jump\n        /* \"--CODEGEN--\":130:252   */\n    tag_186:\n      0x00\n        /* \"--CODEGEN--\":208:247   */\n      tag_187\n        /* \"--CODEGEN--\":239:245   */\n      dup3\n        /* \"--CODEGEN--\":233:246   */\n      mload\n        /* \"--CODEGEN--\":208:247   */\n      jump(tag_184)\n    tag_187:\n        /* \"--CODEGEN--\":199:247   */\n      swap1\n      pop\n        /* \"--CODEGEN--\":193:252   */\n      swap3\n      swap2\n      pop\n      pop\n      jump\n        /* \"--CODEGEN--\":259:371   */\n    tag_189:\n      0x00\n        /* \"--CODEGEN--\":323:366   */\n      tag_190\n        /* \"--CODEGEN--\":358:364   */\n      dup3\n        /* \"--CODEGEN--\":345:365   */\n      calldataload\n        /* \"--CODEGEN--\":323:366   */\n      jump(tag_191)\n    tag_190:\n        /* \"--CODEGEN--\":314:366   */\n      swap1\n      pop\n        /* \"--CODEGEN--\":308:371   */\n      swap3\n      swap2\n      pop\n      pop\n      jump\n        /* \"--CODEGEN--\":378:494   */\n    tag_193:\n      0x00\n        /* \"--CODEGEN--\":444:489   */\n      tag_194\n        /* \"--CODEGEN--\":481:487   */\n      dup3\n        /* \"--CODEGEN--\":468:488   */\n      calldataload\n        /* \"--CODEGEN--\":444:489   */\n      jump(tag_195)\n    tag_194:\n        /* \"--CODEGEN--\":435:489   */\n      swap1\n      pop\n        /* \"--CODEGEN--\":429:494   */\n      swap3\n      swap2\n      pop\n      pop\n      jump\n        /* \"--CODEGEN--\":502:944   */\n    tag_197:\n      0x00\n        /* \"--CODEGEN--\":604:607   */\n      dup3\n        /* \"--CODEGEN--\":597:601   */\n      0x1f\n        /* \"--CODEGEN--\":589:595   */\n      dup4\n        /* \"--CODEGEN--\":585:602   */\n      add\n        /* \"--CODEGEN--\":581:608   */\n      slt\n        /* \"--CODEGEN--\":574:609   */\n      iszero\n        /* \"--CODEGEN--\":571:573   */\n      iszero\n      tag_198\n      jumpi\n        /* \"--CODEGEN--\":622:623   */\n      0x00\n        /* \"--CODEGEN--\":619:620   */\n      dup1\n        /* \"--CODEGEN--\":612:624   */\n      revert\n        /* \"--CODEGEN--\":571:573   */\n    tag_198:\n        /* \"--CODEGEN--\":659:665   */\n      dup2\n        /* \"--CODEGEN--\":646:666   */\n      calldataload\n        /* \"--CODEGEN--\":681:746   */\n      tag_199\n        /* \"--CODEGEN--\":696:745   */\n      tag_200\n        /* \"--CODEGEN--\":738:744   */\n      dup3\n        /* \"--CODEGEN--\":696:745   */\n      jump(tag_201)\n    tag_200:\n        /* \"--CODEGEN--\":681:746   */\n      jump(tag_202)\n    tag_199:\n        /* \"--CODEGEN--\":672:746   */\n      swap2\n      pop\n        /* \"--CODEGEN--\":766:772   */\n      dup1\n        /* \"--CODEGEN--\":759:764   */\n      dup3\n        /* \"--CODEGEN--\":752:773   */\n      mstore\n        /* \"--CODEGEN--\":802:806   */\n      0x20\n        /* \"--CODEGEN--\":794:800   */\n      dup4\n        /* \"--CODEGEN--\":790:807   */\n      add\n        /* \"--CODEGEN--\":835:839   */\n      0x20\n        /* \"--CODEGEN--\":828:833   */\n      dup4\n        /* \"--CODEGEN--\":824:840   */\n      add\n        /* \"--CODEGEN--\":870:873   */\n      dup6\n        /* \"--CODEGEN--\":861:867   */\n      dup4\n        /* \"--CODEGEN--\":856:859   */\n      dup4\n        /* \"--CODEGEN--\":852:868   */\n      add\n        /* \"--CODEGEN--\":849:874   */\n      gt\n        /* \"--CODEGEN--\":846:848   */\n      iszero\n      tag_203\n      jumpi\n        /* \"--CODEGEN--\":887:888   */\n      0x00\n        /* \"--CODEGEN--\":884:885   */\n      dup1\n        /* \"--CODEGEN--\":877:889   */\n      revert\n        /* \"--CODEGEN--\":846:848   */\n    tag_203:\n        /* \"--CODEGEN--\":897:938   */\n      tag_204\n        /* \"--CODEGEN--\":931:937   */\n      dup4\n        /* \"--CODEGEN--\":926:929   */\n      dup3\n        /* \"--CODEGEN--\":921:924   */\n      dup5\n        /* \"--CODEGEN--\":897:938   */\n      jump(tag_205)\n    tag_204:\n        /* \"--CODEGEN--\":564:944   */\n      pop\n      pop\n      pop\n      swap3\n      swap2\n      pop\n      pop\n      jump\n        /* \"--CODEGEN--\":952:1070   */\n    tag_207:\n      0x00\n        /* \"--CODEGEN--\":1019:1065   */\n      tag_208\n        /* \"--CODEGEN--\":1057:1063   */\n      dup3\n        /* \"--CODEGEN--\":1044:1064   */\n      calldataload\n        /* \"--CODEGEN--\":1019:1065   */\n      jump(tag_209)\n    tag_208:\n        /* \"--CODEGEN--\":1010:1065   */\n      swap1\n      pop\n        /* \"--CODEGEN--\":1004:1070   */\n      swap3\n      swap2\n      pop\n      pop\n      jump\n        /* \"--CODEGEN--\":1077:1318   */\n    tag_11:\n      0x00\n        /* \"--CODEGEN--\":1181:1183   */\n      0x20\n        /* \"--CODEGEN--\":1169:1178   */\n      dup3\n        /* \"--CODEGEN--\":1160:1167   */\n      dup5\n        /* \"--CODEGEN--\":1156:1179   */\n      sub\n        /* \"--CODEGEN--\":1152:1184   */\n      slt\n        /* \"--CODEGEN--\":1149:1151   */\n      iszero\n      tag_211\n      jumpi\n        /* \"--CODEGEN--\":1197:1198   */\n      0x00\n        /* \"--CODEGEN--\":1194:1195   */\n      dup1\n        /* \"--CODEGEN--\":1187:1199   */\n      revert\n        /* \"--CODEGEN--\":1149:1151   */\n    tag_211:\n        /* \"--CODEGEN--\":1232:1233   */\n      0x00\n        /* \"--CODEGEN--\":1249:1302   */\n      tag_212\n        /* \"--CODEGEN--\":1294:1301   */\n      dup5\n        /* \"--CODEGEN--\":1285:1291   */\n      dup3\n        /* \"--CODEGEN--\":1274:1283   */\n      dup6\n        /* \"--CODEGEN--\":1270:1292   */\n      add\n        /* \"--CODEGEN--\":1249:1302   */\n      jump(tag_182)\n    tag_212:\n        /* \"--CODEGEN--\":1239:1302   */\n      swap2\n      pop\n        /* \"--CODEGEN--\":1211:1308   */\n      pop\n        /* \"--CODEGEN--\":1143:1318   */\n      swap3\n      swap2\n      pop\n      pop\n      jump\n        /* \"--CODEGEN--\":1325:1588   */\n    tag_159:\n      0x00\n        /* \"--CODEGEN--\":1440:1442   */\n      0x20\n        /* \"--CODEGEN--\":1428:1437   */\n      dup3\n        /* \"--CODEGEN--\":1419:1426   */\n      dup5\n        /* \"--CODEGEN--\":1415:1438   */\n      sub\n        /* \"--CODEGEN--\":1411:1443   */\n      slt\n        /* \"--CODEGEN--\":1408:1410   */\n      iszero\n      tag_214\n      jumpi\n        /* \"--CODEGEN--\":1456:1457   */\n      0x00\n        /* \"--CODEGEN--\":1453:1454   */\n      dup1\n        /* \"--CODEGEN--\":1446:1458   */\n      revert\n        /* \"--CODEGEN--\":1408:1410   */\n    tag_214:\n        /* \"--CODEGEN--\":1491:1492   */\n      0x00\n        /* \"--CODEGEN--\":1508:1572   */\n      tag_215\n        /* \"--CODEGEN--\":1564:1571   */\n      dup5\n        /* \"--CODEGEN--\":1555:1561   */\n      dup3\n        /* \"--CODEGEN--\":1544:1553   */\n      dup6\n        /* \"--CODEGEN--\":1540:1562   */\n      add\n        /* \"--CODEGEN--\":1508:1572   */\n      jump(tag_186)\n    tag_215:\n        /* \"--CODEGEN--\":1498:1572   */\n      swap2\n      pop\n        /* \"--CODEGEN--\":1470:1578   */\n      pop\n        /* \"--CODEGEN--\":1402:1588   */\n      swap3\n      swap2\n      pop\n      pop\n      jump\n        /* \"--CODEGEN--\":1595:3022   */\n    tag_21:\n      0x00\n      dup1\n      0x00\n      dup1\n      0x00\n      dup1\n      0x00\n      dup1\n        /* \"--CODEGEN--\":1842:1845   */\n      0x0100\n        /* \"--CODEGEN--\":1830:1839   */\n      dup10\n        /* \"--CODEGEN--\":1821:1828   */\n      dup12\n        /* \"--CODEGEN--\":1817:1840   */\n      sub\n        /* \"--CODEGEN--\":1813:1846   */\n      slt\n        /* \"--CODEGEN--\":1810:1812   */\n      iszero\n      tag_217\n      jumpi\n        /* \"--CODEGEN--\":1859:1860   */\n      0x00\n        /* \"--CODEGEN--\":1856:1857   */\n      dup1\n        /* \"--CODEGEN--\":1849:1861   */\n      revert\n        /* \"--CODEGEN--\":1810:1812   */\n    tag_217:\n        /* \"--CODEGEN--\":1894:1895   */\n      0x00\n        /* \"--CODEGEN--\":1911:1964   */\n      tag_218\n        /* \"--CODEGEN--\":1956:1963   */\n      dup12\n        /* \"--CODEGEN--\":1947:1953   */\n      dup3\n        /* \"--CODEGEN--\":1936:1945   */\n      dup13\n        /* \"--CODEGEN--\":1932:1954   */\n      add\n        /* \"--CODEGEN--\":1911:1964   */\n      jump(tag_182)\n    tag_218:\n        /* \"--CODEGEN--\":1901:1964   */\n      swap9\n      pop\n        /* \"--CODEGEN--\":1873:1970   */\n      pop\n        /* \"--CODEGEN--\":2001:2003   */\n      0x20\n        /* \"--CODEGEN--\":2019:2072   */\n      tag_219\n        /* \"--CODEGEN--\":2064:2071   */\n      dup12\n        /* \"--CODEGEN--\":2055:2061   */\n      dup3\n        /* \"--CODEGEN--\":2044:2053   */\n      dup13\n        /* \"--CODEGEN--\":2040:2062   */\n      add\n        /* \"--CODEGEN--\":2019:2072   */\n      jump(tag_182)\n    tag_219:\n        /* \"--CODEGEN--\":2009:2072   */\n      swap8\n      pop\n        /* \"--CODEGEN--\":1980:2078   */\n      pop\n        /* \"--CODEGEN--\":2137:2139   */\n      0x40\n        /* \"--CODEGEN--\":2126:2135   */\n      dup10\n        /* \"--CODEGEN--\":2122:2140   */\n      add\n        /* \"--CODEGEN--\":2109:2141   */\n      calldataload\n        /* \"--CODEGEN--\":2161:2179   */\n      0xffffffffffffffff\n        /* \"--CODEGEN--\":2153:2159   */\n      dup2\n        /* \"--CODEGEN--\":2150:2180   */\n      gt\n        /* \"--CODEGEN--\":2147:2149   */\n      iszero\n      tag_220\n      jumpi\n        /* \"--CODEGEN--\":2193:2194   */\n      0x00\n        /* \"--CODEGEN--\":2190:2191   */\n      dup1\n        /* \"--CODEGEN--\":2183:2195   */\n      revert\n        /* \"--CODEGEN--\":2147:2149   */\n    tag_220:\n        /* \"--CODEGEN--\":2213:2276   */\n      tag_221\n        /* \"--CODEGEN--\":2268:2275   */\n      dup12\n        /* \"--CODEGEN--\":2259:2265   */\n      dup3\n        /* \"--CODEGEN--\":2248:2257   */\n      dup13\n        /* \"--CODEGEN--\":2244:2266   */\n      add\n        /* \"--CODEGEN--\":2213:2276   */\n      jump(tag_197)\n    tag_221:\n        /* \"--CODEGEN--\":2203:2276   */\n      swap7\n      pop\n        /* \"--CODEGEN--\":2088:2282   */\n      pop\n        /* \"--CODEGEN--\":2341:2343   */\n      0x60\n        /* \"--CODEGEN--\":2330:2339   */\n      dup10\n        /* \"--CODEGEN--\":2326:2344   */\n      add\n        /* \"--CODEGEN--\":2313:2345   */\n      calldataload\n        /* \"--CODEGEN--\":2365:2383   */\n      0xffffffffffffffff\n        /* \"--CODEGEN--\":2357:2363   */\n      dup2\n        /* \"--CODEGEN--\":2354:2384   */\n      gt\n        /* \"--CODEGEN--\":2351:2353   */\n      iszero\n      tag_222\n      jumpi\n        /* \"--CODEGEN--\":2397:2398   */\n      0x00\n        /* \"--CODEGEN--\":2394:2395   */\n      dup1\n        /* \"--CODEGEN--\":2387:2399   */\n      revert\n        /* \"--CODEGEN--\":2351:2353   */\n    tag_222:\n        /* \"--CODEGEN--\":2417:2480   */\n      tag_223\n        /* \"--CODEGEN--\":2472:2479   */\n      dup12\n        /* \"--CODEGEN--\":2463:2469   */\n      dup3\n        /* \"--CODEGEN--\":2452:2461   */\n      dup13\n        /* \"--CODEGEN--\":2448:2470   */\n      add\n        /* \"--CODEGEN--\":2417:2480   */\n      jump(tag_197)\n    tag_223:\n        /* \"--CODEGEN--\":2407:2480   */\n      swap6\n      pop\n        /* \"--CODEGEN--\":2292:2486   */\n      pop\n        /* \"--CODEGEN--\":2545:2548   */\n      0x80\n        /* \"--CODEGEN--\":2534:2543   */\n      dup10\n        /* \"--CODEGEN--\":2530:2549   */\n      add\n        /* \"--CODEGEN--\":2517:2550   */\n      calldataload\n        /* \"--CODEGEN--\":2570:2588   */\n      0xffffffffffffffff\n        /* \"--CODEGEN--\":2562:2568   */\n      dup2\n        /* \"--CODEGEN--\":2559:2589   */\n      gt\n        /* \"--CODEGEN--\":2556:2558   */\n      iszero\n      tag_224\n      jumpi\n        /* \"--CODEGEN--\":2602:2603   */\n      0x00\n        /* \"--CODEGEN--\":2599:2600   */\n      dup1\n        /* \"--CODEGEN--\":2592:2604   */\n      revert\n        /* \"--CODEGEN--\":2556:2558   */\n    tag_224:\n        /* \"--CODEGEN--\":2622:2685   */\n      tag_225\n        /* \"--CODEGEN--\":2677:2684   */\n      dup12\n        /* \"--CODEGEN--\":2668:2674   */\n      dup3\n        /* \"--CODEGEN--\":2657:2666   */\n      dup13\n        /* \"--CODEGEN--\":2653:2675   */\n      add\n        /* \"--CODEGEN--\":2622:2685   */\n      jump(tag_197)\n    tag_225:\n        /* \"--CODEGEN--\":2612:2685   */\n      swap5\n      pop\n        /* \"--CODEGEN--\":2496:2691   */\n      pop\n        /* \"--CODEGEN--\":2722:2725   */\n      0xa0\n        /* \"--CODEGEN--\":2741:2791   */\n      tag_226\n        /* \"--CODEGEN--\":2783:2790   */\n      dup12\n        /* \"--CODEGEN--\":2774:2780   */\n      dup3\n        /* \"--CODEGEN--\":2763:2772   */\n      dup13\n        /* \"--CODEGEN--\":2759:2781   */\n      add\n        /* \"--CODEGEN--\":2741:2791   */\n      jump(tag_189)\n    tag_226:\n        /* \"--CODEGEN--\":2731:2791   */\n      swap4\n      pop\n        /* \"--CODEGEN--\":2701:2797   */\n      pop\n        /* \"--CODEGEN--\":2828:2831   */\n      0xc0\n        /* \"--CODEGEN--\":2847:2897   */\n      tag_227\n        /* \"--CODEGEN--\":2889:2896   */\n      dup12\n        /* \"--CODEGEN--\":2880:2886   */\n      dup3\n        /* \"--CODEGEN--\":2869:2878   */\n      dup13\n        /* \"--CODEGEN--\":2865:2887   */\n      add\n        /* \"--CODEGEN--\":2847:2897   */\n      jump(tag_189)\n    tag_227:\n        /* \"--CODEGEN--\":2837:2897   */\n      swap3\n      pop\n        /* \"--CODEGEN--\":2807:2903   */\n      pop\n        /* \"--CODEGEN--\":2934:2937   */\n      0xe0\n        /* \"--CODEGEN--\":2953:3006   */\n      tag_228\n        /* \"--CODEGEN--\":2998:3005   */\n      dup12\n        /* \"--CODEGEN--\":2989:2995   */\n      dup3\n        /* \"--CODEGEN--\":2978:2987   */\n      dup13\n        /* \"--CODEGEN--\":2974:2996   */\n      add\n        /* \"--CODEGEN--\":2953:3006   */\n      jump(tag_207)\n    tag_228:\n        /* \"--CODEGEN--\":2943:3006   */\n      swap2\n      pop\n        /* \"--CODEGEN--\":2913:3012   */\n      pop\n        /* \"--CODEGEN--\":1804:3022   */\n      swap3\n      swap6\n      swap9\n      pop\n      swap3\n      swap6\n      swap9\n      swap1\n      swap4\n      swap7\n      pop\n      jump\n        /* \"--CODEGEN--\":3029:3376   */\n    tag_15:\n      0x00\n        /* \"--CODEGEN--\":3143:3145   */\n      0x20\n        /* \"--CODEGEN--\":3131:3140   */\n      dup3\n        /* \"--CODEGEN--\":3122:3129   */\n      dup5\n        /* \"--CODEGEN--\":3118:3141   */\n      sub\n        /* \"--CODEGEN--\":3114:3146   */\n      slt\n        /* \"--CODEGEN--\":3111:3113   */\n      iszero\n      tag_230\n      jumpi\n        /* \"--CODEGEN--\":3159:3160   */\n      0x00\n        /* \"--CODEGEN--\":3156:3157   */\n      dup1\n        /* \"--CODEGEN--\":3149:3161   */\n      revert\n        /* \"--CODEGEN--\":3111:3113   */\n    tag_230:\n        /* \"--CODEGEN--\":3222:3223   */\n      0x00\n        /* \"--CODEGEN--\":3211:3220   */\n      dup3\n        /* \"--CODEGEN--\":3207:3224   */\n      add\n        /* \"--CODEGEN--\":3194:3225   */\n      calldataload\n        /* \"--CODEGEN--\":3245:3263   */\n      0xffffffffffffffff\n        /* \"--CODEGEN--\":3237:3243   */\n      dup2\n        /* \"--CODEGEN--\":3234:3264   */\n      gt\n        /* \"--CODEGEN--\":3231:3233   */\n      iszero\n      tag_231\n      jumpi\n        /* \"--CODEGEN--\":3277:3278   */\n      0x00\n        /* \"--CODEGEN--\":3274:3275   */\n      dup1\n        /* \"--CODEGEN--\":3267:3279   */\n      revert\n        /* \"--CODEGEN--\":3231:3233   */\n    tag_231:\n        /* \"--CODEGEN--\":3297:3360   */\n      tag_232\n        /* \"--CODEGEN--\":3352:3359   */\n      dup5\n        /* \"--CODEGEN--\":3343:3349   */\n      dup3\n        /* \"--CODEGEN--\":3332:3341   */\n      dup6\n        /* \"--CODEGEN--\":3328:3350   */\n      add\n        /* \"--CODEGEN--\":3297:3360   */\n      jump(tag_197)\n    tag_232:\n        /* \"--CODEGEN--\":3287:3360   */\n      swap2\n      pop\n        /* \"--CODEGEN--\":3173:3366   */\n      pop\n        /* \"--CODEGEN--\":3105:3376   */\n      swap3\n      swap2\n      pop\n      pop\n      jump\n        /* \"--CODEGEN--\":3383:4564   */\n    tag_34:\n      0x00\n      dup1\n      0x00\n      dup1\n      0x00\n      dup1\n        /* \"--CODEGEN--\":3599:3602   */\n      0xc0\n        /* \"--CODEGEN--\":3587:3596   */\n      dup8\n        /* \"--CODEGEN--\":3578:3585   */\n      dup10\n        /* \"--CODEGEN--\":3574:3597   */\n      sub\n        /* \"--CODEGEN--\":3570:3603   */\n      slt\n        /* \"--CODEGEN--\":3567:3569   */\n      iszero\n      tag_234\n      jumpi\n        /* \"--CODEGEN--\":3616:3617   */\n      0x00\n        /* \"--CODEGEN--\":3613:3614   */\n      dup1\n        /* \"--CODEGEN--\":3606:3618   */\n      revert\n        /* \"--CODEGEN--\":3567:3569   */\n    tag_234:\n        /* \"--CODEGEN--\":3679:3680   */\n      0x00\n        /* \"--CODEGEN--\":3668:3677   */\n      dup8\n        /* \"--CODEGEN--\":3664:3681   */\n      add\n        /* \"--CODEGEN--\":3651:3682   */\n      calldataload\n        /* \"--CODEGEN--\":3702:3720   */\n      0xffffffffffffffff\n        /* \"--CODEGEN--\":3694:3700   */\n      dup2\n        /* \"--CODEGEN--\":3691:3721   */\n      gt\n        /* \"--CODEGEN--\":3688:3690   */\n      iszero\n      tag_235\n      jumpi\n        /* \"--CODEGEN--\":3734:3735   */\n      0x00\n        /* \"--CODEGEN--\":3731:3732   */\n      dup1\n        /* \"--CODEGEN--\":3724:3736   */\n      revert\n        /* \"--CODEGEN--\":3688:3690   */\n    tag_235:\n        /* \"--CODEGEN--\":3754:3817   */\n      tag_236\n        /* \"--CODEGEN--\":3809:3816   */\n      dup10\n        /* \"--CODEGEN--\":3800:3806   */\n      dup3\n        /* \"--CODEGEN--\":3789:3798   */\n      dup11\n        /* \"--CODEGEN--\":3785:3807   */\n      add\n        /* \"--CODEGEN--\":3754:3817   */\n      jump(tag_197)\n    tag_236:\n        /* \"--CODEGEN--\":3744:3817   */\n      swap7\n      pop\n        /* \"--CODEGEN--\":3630:3823   */\n      pop\n        /* \"--CODEGEN--\":3854:3856   */\n      0x20\n        /* \"--CODEGEN--\":3872:3924   */\n      tag_237\n        /* \"--CODEGEN--\":3916:3923   */\n      dup10\n        /* \"--CODEGEN--\":3907:3913   */\n      dup3\n        /* \"--CODEGEN--\":3896:3905   */\n      dup11\n        /* \"--CODEGEN--\":3892:3914   */\n      add\n        /* \"--CODEGEN--\":3872:3924   */\n      jump(tag_193)\n    tag_237:\n        /* \"--CODEGEN--\":3862:3924   */\n      swap6\n      pop\n        /* \"--CODEGEN--\":3833:3930   */\n      pop\n        /* \"--CODEGEN--\":3961:3963   */\n      0x40\n        /* \"--CODEGEN--\":3979:4031   */\n      tag_238\n        /* \"--CODEGEN--\":4023:4030   */\n      dup10\n        /* \"--CODEGEN--\":4014:4020   */\n      dup3\n        /* \"--CODEGEN--\":4003:4012   */\n      dup11\n        /* \"--CODEGEN--\":3999:4021   */\n      add\n        /* \"--CODEGEN--\":3979:4031   */\n      jump(tag_193)\n    tag_238:\n        /* \"--CODEGEN--\":3969:4031   */\n      swap5\n      pop\n        /* \"--CODEGEN--\":3940:4037   */\n      pop\n        /* \"--CODEGEN--\":4096:4098   */\n      0x60\n        /* \"--CODEGEN--\":4085:4094   */\n      dup8\n        /* \"--CODEGEN--\":4081:4099   */\n      add\n        /* \"--CODEGEN--\":4068:4100   */\n      calldataload\n        /* \"--CODEGEN--\":4120:4138   */\n      0xffffffffffffffff\n        /* \"--CODEGEN--\":4112:4118   */\n      dup2\n        /* \"--CODEGEN--\":4109:4139   */\n      gt\n        /* \"--CODEGEN--\":4106:4108   */\n      iszero\n      tag_239\n      jumpi\n        /* \"--CODEGEN--\":4152:4153   */\n      0x00\n        /* \"--CODEGEN--\":4149:4150   */\n      dup1\n        /* \"--CODEGEN--\":4142:4154   */\n      revert\n        /* \"--CODEGEN--\":4106:4108   */\n    tag_239:\n        /* \"--CODEGEN--\":4172:4235   */\n      tag_240\n        /* \"--CODEGEN--\":4227:4234   */\n      dup10\n        /* \"--CODEGEN--\":4218:4224   */\n      dup3\n        /* \"--CODEGEN--\":4207:4216   */\n      dup11\n        /* \"--CODEGEN--\":4203:4225   */\n      add\n        /* \"--CODEGEN--\":4172:4235   */\n      jump(tag_197)\n    tag_240:\n        /* \"--CODEGEN--\":4162:4235   */\n      swap4\n      pop\n        /* \"--CODEGEN--\":4047:4241   */\n      pop\n        /* \"--CODEGEN--\":4300:4303   */\n      0x80\n        /* \"--CODEGEN--\":4289:4298   */\n      dup8\n        /* \"--CODEGEN--\":4285:4304   */\n      add\n        /* \"--CODEGEN--\":4272:4305   */\n      calldataload\n        /* \"--CODEGEN--\":4325:4343   */\n      0xffffffffffffffff\n        /* \"--CODEGEN--\":4317:4323   */\n      dup2\n        /* \"--CODEGEN--\":4314:4344   */\n      gt\n        /* \"--CODEGEN--\":4311:4313   */\n      iszero\n      tag_241\n      jumpi\n        /* \"--CODEGEN--\":4357:4358   */\n      0x00\n        /* \"--CODEGEN--\":4354:4355   */\n      dup1\n        /* \"--CODEGEN--\":4347:4359   */\n      revert\n        /* \"--CODEGEN--\":4311:4313   */\n    tag_241:\n        /* \"--CODEGEN--\":4377:4440   */\n      tag_242\n        /* \"--CODEGEN--\":4432:4439   */\n      dup10\n        /* \"--CODEGEN--\":4423:4429   */\n      dup3\n        /* \"--CODEGEN--\":4412:4421   */\n      dup11\n        /* \"--CODEGEN--\":4408:4430   */\n      add\n        /* \"--CODEGEN--\":4377:4440   */\n      jump(tag_197)\n    tag_242:\n        /* \"--CODEGEN--\":4367:4440   */\n      swap3\n      pop\n        /* \"--CODEGEN--\":4251:4446   */\n      pop\n        /* \"--CODEGEN--\":4477:4480   */\n      0xa0\n        /* \"--CODEGEN--\":4496:4548   */\n      tag_243\n        /* \"--CODEGEN--\":4540:4547   */\n      dup10\n        /* \"--CODEGEN--\":4531:4537   */\n      dup3\n        /* \"--CODEGEN--\":4520:4529   */\n      dup11\n        /* \"--CODEGEN--\":4516:4538   */\n      add\n        /* \"--CODEGEN--\":4496:4548   */\n      jump(tag_193)\n    tag_243:\n        /* \"--CODEGEN--\":4486:4548   */\n      swap2\n      pop\n        /* \"--CODEGEN--\":4456:4554   */\n      pop\n        /* \"--CODEGEN--\":3561:4564   */\n      swap3\n      swap6\n      pop\n      swap3\n      swap6\n      pop\n      swap3\n      swap6\n      jump\n        /* \"--CODEGEN--\":4571:4931   */\n    tag_25:\n      0x00\n      dup1\n        /* \"--CODEGEN--\":4689:4691   */\n      0x40\n        /* \"--CODEGEN--\":4677:4686   */\n      dup4\n        /* \"--CODEGEN--\":4668:4675   */\n      dup6\n        /* \"--CODEGEN--\":4664:4687   */\n      sub\n        /* \"--CODEGEN--\":4660:4692   */\n      slt\n        /* \"--CODEGEN--\":4657:4659   */\n      iszero\n      tag_245\n      jumpi\n        /* \"--CODEGEN--\":4705:4706   */\n      0x00\n        /* \"--CODEGEN--\":4702:4703   */\n      dup1\n        /* \"--CODEGEN--\":4695:4707   */\n      revert\n        /* \"--CODEGEN--\":4657:4659   */\n    tag_245:\n        /* \"--CODEGEN--\":4740:4741   */\n      0x00\n        /* \"--CODEGEN--\":4757:4810   */\n      tag_246\n        /* \"--CODEGEN--\":4802:4809   */\n      dup6\n        /* \"--CODEGEN--\":4793:4799   */\n      dup3\n        /* \"--CODEGEN--\":4782:4791   */\n      dup7\n        /* \"--CODEGEN--\":4778:4800   */\n      add\n        /* \"--CODEGEN--\":4757:4810   */\n      jump(tag_207)\n    tag_246:\n        /* \"--CODEGEN--\":4747:4810   */\n      swap3\n      pop\n        /* \"--CODEGEN--\":4719:4816   */\n      pop\n        /* \"--CODEGEN--\":4847:4849   */\n      0x20\n        /* \"--CODEGEN--\":4865:4915   */\n      tag_247\n        /* \"--CODEGEN--\":4907:4914   */\n      dup6\n        /* \"--CODEGEN--\":4898:4904   */\n      dup3\n        /* \"--CODEGEN--\":4887:4896   */\n      dup7\n        /* \"--CODEGEN--\":4883:4905   */\n      add\n        /* \"--CODEGEN--\":4865:4915   */\n      jump(tag_189)\n    tag_247:\n        /* \"--CODEGEN--\":4855:4915   */\n      swap2\n      pop\n        /* \"--CODEGEN--\":4826:4921   */\n      pop\n        /* \"--CODEGEN--\":4651:4931   */\n      swap3\n      pop\n      swap3\n      swap1\n      pop\n      jump\n        /* \"--CODEGEN--\":4938:5070   */\n    tag_249:\n        /* \"--CODEGEN--\":5019:5064   */\n      tag_250\n        /* \"--CODEGEN--\":5058:5063   */\n      dup2\n        /* \"--CODEGEN--\":5019:5064   */\n      jump(tag_251)\n    tag_250:\n        /* \"--CODEGEN--\":5014:5017   */\n      dup3\n        /* \"--CODEGEN--\":5007:5065   */\n      mstore\n        /* \"--CODEGEN--\":5001:5070   */\n      pop\n      pop\n      jump\n        /* \"--CODEGEN--\":5077:5187   */\n    tag_253:\n        /* \"--CODEGEN--\":5150:5181   */\n      tag_254\n        /* \"--CODEGEN--\":5175:5180   */\n      dup2\n        /* \"--CODEGEN--\":5150:5181   */\n      jump(tag_255)\n    tag_254:\n        /* \"--CODEGEN--\":5145:5148   */\n      dup3\n        /* \"--CODEGEN--\":5138:5182   */\n      mstore\n        /* \"--CODEGEN--\":5132:5187   */\n      pop\n      pop\n      jump\n        /* \"--CODEGEN--\":5225:5815   */\n    tag_257:\n      0x00\n        /* \"--CODEGEN--\":5360:5414   */\n      tag_258\n        /* \"--CODEGEN--\":5408:5413   */\n      dup3\n        /* \"--CODEGEN--\":5360:5414   */\n      jump(tag_259)\n    tag_258:\n        /* \"--CODEGEN--\":5432:5438   */\n      dup1\n        /* \"--CODEGEN--\":5427:5430   */\n      dup5\n        /* \"--CODEGEN--\":5420:5439   */\n      mstore\n        /* \"--CODEGEN--\":5456:5460   */\n      0x20\n        /* \"--CODEGEN--\":5451:5454   */\n      dup5\n        /* \"--CODEGEN--\":5447:5461   */\n      add\n        /* \"--CODEGEN--\":5440:5461   */\n      swap4\n      pop\n        /* \"--CODEGEN--\":5501:5557   */\n      tag_260\n        /* \"--CODEGEN--\":5551:5556   */\n      dup4\n        /* \"--CODEGEN--\":5501:5557   */\n      jump(tag_261)\n    tag_260:\n        /* \"--CODEGEN--\":5578:5579   */\n      0x00\n        /* \"--CODEGEN--\":5563:5793   */\n    tag_262:\n        /* \"--CODEGEN--\":5588:5594   */\n      dup3\n        /* \"--CODEGEN--\":5585:5586   */\n      dup2\n        /* \"--CODEGEN--\":5582:5595   */\n      lt\n        /* \"--CODEGEN--\":5563:5793   */\n      iszero\n      tag_263\n      jumpi\n        /* \"--CODEGEN--\":5628:5681   */\n      tag_265\n        /* \"--CODEGEN--\":5677:5680   */\n      dup7\n        /* \"--CODEGEN--\":5668:5674   */\n      dup4\n        /* \"--CODEGEN--\":5662:5675   */\n      mload\n        /* \"--CODEGEN--\":5628:5681   */\n      jump(tag_253)\n    tag_265:\n        /* \"--CODEGEN--\":5698:5758   */\n      tag_266\n        /* \"--CODEGEN--\":5751:5757   */\n      dup3\n        /* \"--CODEGEN--\":5698:5758   */\n      jump(tag_267)\n    tag_266:\n        /* \"--CODEGEN--\":5688:5758   */\n      swap2\n      pop\n        /* \"--CODEGEN--\":5781:5785   */\n      0x20\n        /* \"--CODEGEN--\":5776:5779   */\n      dup7\n        /* \"--CODEGEN--\":5772:5786   */\n      add\n        /* \"--CODEGEN--\":5765:5786   */\n      swap6\n      pop\n        /* \"--CODEGEN--\":5610:5611   */\n      0x01\n        /* \"--CODEGEN--\":5607:5608   */\n      dup2\n        /* \"--CODEGEN--\":5603:5612   */\n      add\n        /* \"--CODEGEN--\":5598:5612   */\n      swap1\n      pop\n        /* \"--CODEGEN--\":5563:5793   */\n      jump(tag_262)\n    tag_263:\n        /* \"--CODEGEN--\":5567:5581   */\n      pop\n        /* \"--CODEGEN--\":5806:5809   */\n      dup5\n        /* \"--CODEGEN--\":5799:5809   */\n      swap3\n      pop\n        /* \"--CODEGEN--\":5339:5815   */\n      pop\n      pop\n      swap3\n      swap2\n      pop\n      pop\n      jump\n        /* \"--CODEGEN--\":5880:6751   */\n    tag_269:\n      0x00\n        /* \"--CODEGEN--\":6055:6129   */\n      tag_270\n        /* \"--CODEGEN--\":6123:6128   */\n      dup3\n        /* \"--CODEGEN--\":6055:6129   */\n      jump(tag_271)\n    tag_270:\n        /* \"--CODEGEN--\":6147:6153   */\n      dup1\n        /* \"--CODEGEN--\":6142:6145   */\n      dup5\n        /* \"--CODEGEN--\":6135:6154   */\n      mstore\n        /* \"--CODEGEN--\":6171:6175   */\n      0x20\n        /* \"--CODEGEN--\":6166:6169   */\n      dup5\n        /* \"--CODEGEN--\":6162:6176   */\n      add\n        /* \"--CODEGEN--\":6155:6176   */\n      swap4\n      pop\n        /* \"--CODEGEN--\":6219:6222   */\n      dup4\n        /* \"--CODEGEN--\":6261:6265   */\n      0x20\n        /* \"--CODEGEN--\":6253:6259   */\n      dup3\n        /* \"--CODEGEN--\":6249:6266   */\n      mul\n        /* \"--CODEGEN--\":6244:6247   */\n      dup6\n        /* \"--CODEGEN--\":6240:6267   */\n      add\n        /* \"--CODEGEN--\":6287:6363   */\n      tag_272\n        /* \"--CODEGEN--\":6357:6362   */\n      dup6\n        /* \"--CODEGEN--\":6287:6363   */\n      jump(tag_273)\n    tag_272:\n        /* \"--CODEGEN--\":6384:6385   */\n      0x00\n        /* \"--CODEGEN--\":6369:6712   */\n    tag_274:\n        /* \"--CODEGEN--\":6394:6400   */\n      dup5\n        /* \"--CODEGEN--\":6391:6392   */\n      dup2\n        /* \"--CODEGEN--\":6388:6401   */\n      lt\n        /* \"--CODEGEN--\":6369:6712   */\n      iszero\n      tag_275\n      jumpi\n        /* \"--CODEGEN--\":6456:6465   */\n      dup4\n        /* \"--CODEGEN--\":6450:6454   */\n      dup4\n        /* \"--CODEGEN--\":6446:6466   */\n      sub\n        /* \"--CODEGEN--\":6441:6444   */\n      dup9\n        /* \"--CODEGEN--\":6434:6467   */\n      mstore\n        /* \"--CODEGEN--\":6482:6580   */\n      tag_277\n        /* \"--CODEGEN--\":6575:6579   */\n      dup4\n        /* \"--CODEGEN--\":6566:6572   */\n      dup4\n        /* \"--CODEGEN--\":6560:6573   */\n      mload\n        /* \"--CODEGEN--\":6482:6580   */\n      jump(tag_278)\n    tag_277:\n        /* \"--CODEGEN--\":6474:6580   */\n      swap3\n      pop\n        /* \"--CODEGEN--\":6597:6677   */\n      tag_279\n        /* \"--CODEGEN--\":6670:6676   */\n      dup3\n        /* \"--CODEGEN--\":6597:6677   */\n      jump(tag_280)\n    tag_279:\n        /* \"--CODEGEN--\":6587:6677   */\n      swap2\n      pop\n        /* \"--CODEGEN--\":6700:6704   */\n      0x20\n        /* \"--CODEGEN--\":6695:6698   */\n      dup9\n        /* \"--CODEGEN--\":6691:6705   */\n      add\n        /* \"--CODEGEN--\":6684:6705   */\n      swap8\n      pop\n        /* \"--CODEGEN--\":6416:6417   */\n      0x01\n        /* \"--CODEGEN--\":6413:6414   */\n      dup2\n        /* \"--CODEGEN--\":6409:6418   */\n      add\n        /* \"--CODEGEN--\":6404:6418   */\n      swap1\n      pop\n        /* \"--CODEGEN--\":6369:6712   */\n      jump(tag_274)\n    tag_275:\n        /* \"--CODEGEN--\":6373:6387   */\n      pop\n        /* \"--CODEGEN--\":6725:6729   */\n      dup2\n        /* \"--CODEGEN--\":6718:6729   */\n      swap7\n      pop\n        /* \"--CODEGEN--\":6742:6745   */\n      dup7\n        /* \"--CODEGEN--\":6735:6745   */\n      swap5\n      pop\n        /* \"--CODEGEN--\":6034:6751   */\n      pop\n      pop\n      pop\n      pop\n      swap3\n      swap2\n      pop\n      pop\n      jump\n        /* \"--CODEGEN--\":6759:6860   */\n    tag_282:\n        /* \"--CODEGEN--\":6826:6854   */\n      tag_283\n        /* \"--CODEGEN--\":6848:6853   */\n      dup2\n        /* \"--CODEGEN--\":6826:6854   */\n      jump(tag_284)\n    tag_283:\n        /* \"--CODEGEN--\":6821:6824   */\n      dup3\n        /* \"--CODEGEN--\":6814:6855   */\n      mstore\n        /* \"--CODEGEN--\":6808:6860   */\n      pop\n      pop\n      jump\n        /* \"--CODEGEN--\":6867:6974   */\n    tag_286:\n        /* \"--CODEGEN--\":6938:6968   */\n      tag_287\n        /* \"--CODEGEN--\":6962:6967   */\n      dup2\n        /* \"--CODEGEN--\":6938:6968   */\n      jump(tag_288)\n    tag_287:\n        /* \"--CODEGEN--\":6933:6936   */\n      dup3\n        /* \"--CODEGEN--\":6926:6969   */\n      mstore\n        /* \"--CODEGEN--\":6920:6974   */\n      pop\n      pop\n      jump\n        /* \"--CODEGEN--\":6981:7281   */\n    tag_290:\n      0x00\n        /* \"--CODEGEN--\":7083:7122   */\n      tag_291\n        /* \"--CODEGEN--\":7116:7121   */\n      dup3\n        /* \"--CODEGEN--\":7083:7122   */\n      jump(tag_292)\n    tag_291:\n        /* \"--CODEGEN--\":7139:7145   */\n      dup1\n        /* \"--CODEGEN--\":7134:7137   */\n      dup5\n        /* \"--CODEGEN--\":7127:7146   */\n      mstore\n        /* \"--CODEGEN--\":7151:7214   */\n      tag_293\n        /* \"--CODEGEN--\":7207:7213   */\n      dup2\n        /* \"--CODEGEN--\":7200:7204   */\n      0x20\n        /* \"--CODEGEN--\":7195:7198   */\n      dup7\n        /* \"--CODEGEN--\":7191:7205   */\n      add\n        /* \"--CODEGEN--\":7184:7188   */\n      0x20\n        /* \"--CODEGEN--\":7177:7182   */\n      dup7\n        /* \"--CODEGEN--\":7173:7189   */\n      add\n        /* \"--CODEGEN--\":7151:7214   */\n      jump(tag_294)\n    tag_293:\n        /* \"--CODEGEN--\":7246:7275   */\n      tag_295\n        /* \"--CODEGEN--\":7268:7274   */\n      dup2\n        /* \"--CODEGEN--\":7246:7275   */\n      jump(tag_296)\n    tag_295:\n        /* \"--CODEGEN--\":7239:7243   */\n      0x20\n        /* \"--CODEGEN--\":7234:7237   */\n      dup6\n        /* \"--CODEGEN--\":7230:7244   */\n      add\n        /* \"--CODEGEN--\":7226:7276   */\n      add\n        /* \"--CODEGEN--\":7219:7276   */\n      swap2\n      pop\n        /* \"--CODEGEN--\":7063:7281   */\n      pop\n      swap3\n      swap2\n      pop\n      pop\n      jump\n        /* \"--CODEGEN--\":7288:7580   */\n    tag_298:\n      0x00\n        /* \"--CODEGEN--\":7386:7421   */\n      tag_299\n        /* \"--CODEGEN--\":7415:7420   */\n      dup3\n        /* \"--CODEGEN--\":7386:7421   */\n      jump(tag_300)\n    tag_299:\n        /* \"--CODEGEN--\":7438:7444   */\n      dup1\n        /* \"--CODEGEN--\":7433:7436   */\n      dup5\n        /* \"--CODEGEN--\":7426:7445   */\n      mstore\n        /* \"--CODEGEN--\":7450:7513   */\n      tag_301\n        /* \"--CODEGEN--\":7506:7512   */\n      dup2\n        /* \"--CODEGEN--\":7499:7503   */\n      0x20\n        /* \"--CODEGEN--\":7494:7497   */\n      dup7\n        /* \"--CODEGEN--\":7490:7504   */\n      add\n        /* \"--CODEGEN--\":7483:7487   */\n      0x20\n        /* \"--CODEGEN--\":7476:7481   */\n      dup7\n        /* \"--CODEGEN--\":7472:7488   */\n      add\n        /* \"--CODEGEN--\":7450:7513   */\n      jump(tag_294)\n    tag_301:\n        /* \"--CODEGEN--\":7545:7574   */\n      tag_302\n        /* \"--CODEGEN--\":7567:7573   */\n      dup2\n        /* \"--CODEGEN--\":7545:7574   */\n      jump(tag_296)\n    tag_302:\n        /* \"--CODEGEN--\":7538:7542   */\n      0x20\n        /* \"--CODEGEN--\":7533:7536   */\n      dup6\n        /* \"--CODEGEN--\":7529:7543   */\n      add\n        /* \"--CODEGEN--\":7525:7575   */\n      add\n        /* \"--CODEGEN--\":7518:7575   */\n      swap2\n      pop\n        /* \"--CODEGEN--\":7366:7580   */\n      pop\n      swap3\n      swap2\n      pop\n      pop\n      jump\n        /* \"--CODEGEN--\":7638:9519   */\n    tag_278:\n      0x00\n        /* \"--CODEGEN--\":7773:7778   */\n      0x0120\n        /* \"--CODEGEN--\":7768:7771   */\n      dup4\n        /* \"--CODEGEN--\":7764:7779   */\n      add\n        /* \"--CODEGEN--\":7864:7867   */\n      0x00\n        /* \"--CODEGEN--\":7857:7862   */\n      dup4\n        /* \"--CODEGEN--\":7853:7868   */\n      add\n        /* \"--CODEGEN--\":7847:7869   */\n      mload\n        /* \"--CODEGEN--\":7881:7942   */\n      tag_304\n        /* \"--CODEGEN--\":7937:7940   */\n      0x00\n        /* \"--CODEGEN--\":7932:7935   */\n      dup7\n        /* \"--CODEGEN--\":7928:7941   */\n      add\n        /* \"--CODEGEN--\":7915:7926   */\n      dup3\n        /* \"--CODEGEN--\":7881:7942   */\n      jump(tag_253)\n    tag_304:\n        /* \"--CODEGEN--\":7794:7954   */\n      pop\n        /* \"--CODEGEN--\":8033:8037   */\n      0x20\n        /* \"--CODEGEN--\":8026:8031   */\n      dup4\n        /* \"--CODEGEN--\":8022:8038   */\n      add\n        /* \"--CODEGEN--\":8016:8039   */\n      mload\n        /* \"--CODEGEN--\":8051:8113   */\n      tag_305\n        /* \"--CODEGEN--\":8107:8111   */\n      0x20\n        /* \"--CODEGEN--\":8102:8105   */\n      dup7\n        /* \"--CODEGEN--\":8098:8112   */\n      add\n        /* \"--CODEGEN--\":8085:8096   */\n      dup3\n        /* \"--CODEGEN--\":8051:8113   */\n      jump(tag_253)\n    tag_305:\n        /* \"--CODEGEN--\":7964:8125   */\n      pop\n        /* \"--CODEGEN--\":8202:8206   */\n      0x40\n        /* \"--CODEGEN--\":8195:8200   */\n      dup4\n        /* \"--CODEGEN--\":8191:8207   */\n      add\n        /* \"--CODEGEN--\":8185:8208   */\n      mload\n        /* \"--CODEGEN--\":8253:8256   */\n      dup5\n        /* \"--CODEGEN--\":8247:8251   */\n      dup3\n        /* \"--CODEGEN--\":8243:8257   */\n      sub\n        /* \"--CODEGEN--\":8236:8240   */\n      0x40\n        /* \"--CODEGEN--\":8231:8234   */\n      dup7\n        /* \"--CODEGEN--\":8227:8241   */\n      add\n        /* \"--CODEGEN--\":8220:8258   */\n      mstore\n        /* \"--CODEGEN--\":8273:8341   */\n      tag_306\n        /* \"--CODEGEN--\":8336:8340   */\n      dup3\n        /* \"--CODEGEN--\":8323:8334   */\n      dup3\n        /* \"--CODEGEN--\":8273:8341   */\n      jump(tag_298)\n    tag_306:\n        /* \"--CODEGEN--\":8265:8341   */\n      swap2\n      pop\n        /* \"--CODEGEN--\":8135:8353   */\n      pop\n        /* \"--CODEGEN--\":8432:8436   */\n      0x60\n        /* \"--CODEGEN--\":8425:8430   */\n      dup4\n        /* \"--CODEGEN--\":8421:8437   */\n      add\n        /* \"--CODEGEN--\":8415:8438   */\n      mload\n        /* \"--CODEGEN--\":8483:8486   */\n      dup5\n        /* \"--CODEGEN--\":8477:8481   */\n      dup3\n        /* \"--CODEGEN--\":8473:8487   */\n      sub\n        /* \"--CODEGEN--\":8466:8470   */\n      0x60\n        /* \"--CODEGEN--\":8461:8464   */\n      dup7\n        /* \"--CODEGEN--\":8457:8471   */\n      add\n        /* \"--CODEGEN--\":8450:8488   */\n      mstore\n        /* \"--CODEGEN--\":8503:8571   */\n      tag_307\n        /* \"--CODEGEN--\":8566:8570   */\n      dup3\n        /* \"--CODEGEN--\":8553:8564   */\n      dup3\n        /* \"--CODEGEN--\":8503:8571   */\n      jump(tag_298)\n    tag_307:\n        /* \"--CODEGEN--\":8495:8571   */\n      swap2\n      pop\n        /* \"--CODEGEN--\":8363:8583   */\n      pop\n        /* \"--CODEGEN--\":8661:8665   */\n      0x80\n        /* \"--CODEGEN--\":8654:8659   */\n      dup4\n        /* \"--CODEGEN--\":8650:8666   */\n      add\n        /* \"--CODEGEN--\":8644:8667   */\n      mload\n        /* \"--CODEGEN--\":8679:8735   */\n      tag_308\n        /* \"--CODEGEN--\":8729:8733   */\n      0x80\n        /* \"--CODEGEN--\":8724:8727   */\n      dup7\n        /* \"--CODEGEN--\":8720:8734   */\n      add\n        /* \"--CODEGEN--\":8707:8718   */\n      dup3\n        /* \"--CODEGEN--\":8679:8735   */\n      jump(tag_282)\n    tag_308:\n        /* \"--CODEGEN--\":8593:8747   */\n      pop\n        /* \"--CODEGEN--\":8824:8828   */\n      0xa0\n        /* \"--CODEGEN--\":8817:8822   */\n      dup4\n        /* \"--CODEGEN--\":8813:8829   */\n      add\n        /* \"--CODEGEN--\":8807:8830   */\n      mload\n        /* \"--CODEGEN--\":8842:8898   */\n      tag_309\n        /* \"--CODEGEN--\":8892:8896   */\n      0xa0\n        /* \"--CODEGEN--\":8887:8890   */\n      dup7\n        /* \"--CODEGEN--\":8883:8897   */\n      add\n        /* \"--CODEGEN--\":8870:8881   */\n      dup3\n        /* \"--CODEGEN--\":8842:8898   */\n      jump(tag_282)\n    tag_309:\n        /* \"--CODEGEN--\":8757:8910   */\n      pop\n        /* \"--CODEGEN--\":8987:8991   */\n      0xc0\n        /* \"--CODEGEN--\":8980:8985   */\n      dup4\n        /* \"--CODEGEN--\":8976:8992   */\n      add\n        /* \"--CODEGEN--\":8970:8993   */\n      mload\n        /* \"--CODEGEN--\":9038:9041   */\n      dup5\n        /* \"--CODEGEN--\":9032:9036   */\n      dup3\n        /* \"--CODEGEN--\":9028:9042   */\n      sub\n        /* \"--CODEGEN--\":9021:9025   */\n      0xc0\n        /* \"--CODEGEN--\":9016:9019   */\n      dup7\n        /* \"--CODEGEN--\":9012:9026   */\n      add\n        /* \"--CODEGEN--\":9005:9043   */\n      mstore\n        /* \"--CODEGEN--\":9058:9126   */\n      tag_310\n        /* \"--CODEGEN--\":9121:9125   */\n      dup3\n        /* \"--CODEGEN--\":9108:9119   */\n      dup3\n        /* \"--CODEGEN--\":9058:9126   */\n      jump(tag_298)\n    tag_310:\n        /* \"--CODEGEN--\":9050:9126   */\n      swap2\n      pop\n        /* \"--CODEGEN--\":8920:9138   */\n      pop\n        /* \"--CODEGEN--\":9215:9219   */\n      0xe0\n        /* \"--CODEGEN--\":9208:9213   */\n      dup4\n        /* \"--CODEGEN--\":9204:9220   */\n      add\n        /* \"--CODEGEN--\":9198:9221   */\n      mload\n        /* \"--CODEGEN--\":9233:9295   */\n      tag_311\n        /* \"--CODEGEN--\":9289:9293   */\n      0xe0\n        /* \"--CODEGEN--\":9284:9287   */\n      dup7\n        /* \"--CODEGEN--\":9280:9294   */\n      add\n        /* \"--CODEGEN--\":9267:9278   */\n      dup3\n        /* \"--CODEGEN--\":9233:9295   */\n      jump(tag_312)\n    tag_311:\n        /* \"--CODEGEN--\":9148:9307   */\n      pop\n        /* \"--CODEGEN--\":9399:9404   */\n      0x0100\n        /* \"--CODEGEN--\":9392:9397   */\n      dup4\n        /* \"--CODEGEN--\":9388:9405   */\n      add\n        /* \"--CODEGEN--\":9382:9406   */\n      mload\n        /* \"--CODEGEN--\":9418:9481   */\n      tag_313\n        /* \"--CODEGEN--\":9474:9479   */\n      0x0100\n        /* \"--CODEGEN--\":9469:9472   */\n      dup7\n        /* \"--CODEGEN--\":9465:9480   */\n      add\n        /* \"--CODEGEN--\":9452:9463   */\n      dup3\n        /* \"--CODEGEN--\":9418:9481   */\n      jump(tag_312)\n    tag_313:\n        /* \"--CODEGEN--\":9317:9493   */\n      pop\n        /* \"--CODEGEN--\":9510:9514   */\n      dup1\n        /* \"--CODEGEN--\":9503:9514   */\n      swap2\n      pop\n        /* \"--CODEGEN--\":7746:9519   */\n      pop\n      swap3\n      swap2\n      pop\n      pop\n      jump\n        /* \"--CODEGEN--\":9526:9636   */\n    tag_312:\n        /* \"--CODEGEN--\":9599:9630   */\n      tag_315\n        /* \"--CODEGEN--\":9624:9629   */\n      dup2\n        /* \"--CODEGEN--\":9599:9630   */\n      jump(tag_316)\n    tag_315:\n        /* \"--CODEGEN--\":9594:9597   */\n      dup3\n        /* \"--CODEGEN--\":9587:9631   */\n      mstore\n        /* \"--CODEGEN--\":9581:9636   */\n      pop\n      pop\n      jump\n        /* \"--CODEGEN--\":9643:10600   */\n    tag_153:\n      0x00\n        /* \"--CODEGEN--\":9947:9950   */\n      0xc0\n        /* \"--CODEGEN--\":9936:9945   */\n      dup3\n        /* \"--CODEGEN--\":9932:9951   */\n      add\n        /* \"--CODEGEN--\":9924:9951   */\n      swap1\n      pop\n        /* \"--CODEGEN--\":9962:10023   */\n      tag_318\n        /* \"--CODEGEN--\":10020:10021   */\n      0x00\n        /* \"--CODEGEN--\":10009:10018   */\n      dup4\n        /* \"--CODEGEN--\":10005:10022   */\n      add\n        /* \"--CODEGEN--\":9996:10002   */\n      dup10\n        /* \"--CODEGEN--\":9962:10023   */\n      jump(tag_253)\n    tag_318:\n        /* \"--CODEGEN--\":10071:10080   */\n      dup2\n        /* \"--CODEGEN--\":10065:10069   */\n      dup2\n        /* \"--CODEGEN--\":10061:10081   */\n      sub\n        /* \"--CODEGEN--\":10056:10058   */\n      0x20\n        /* \"--CODEGEN--\":10045:10054   */\n      dup4\n        /* \"--CODEGEN--\":10041:10059   */\n      add\n        /* \"--CODEGEN--\":10034:10082   */\n      mstore\n        /* \"--CODEGEN--\":10096:10164   */\n      tag_319\n        /* \"--CODEGEN--\":10159:10163   */\n      dup2\n        /* \"--CODEGEN--\":10150:10156   */\n      dup9\n        /* \"--CODEGEN--\":10096:10164   */\n      jump(tag_290)\n    tag_319:\n        /* \"--CODEGEN--\":10088:10164   */\n      swap1\n      pop\n        /* \"--CODEGEN--\":10175:10235   */\n      tag_320\n        /* \"--CODEGEN--\":10231:10233   */\n      0x40\n        /* \"--CODEGEN--\":10220:10229   */\n      dup4\n        /* \"--CODEGEN--\":10216:10234   */\n      add\n        /* \"--CODEGEN--\":10207:10213   */\n      dup8\n        /* \"--CODEGEN--\":10175:10235   */\n      jump(tag_286)\n    tag_320:\n        /* \"--CODEGEN--\":10246:10306   */\n      tag_321\n        /* \"--CODEGEN--\":10302:10304   */\n      0x60\n        /* \"--CODEGEN--\":10291:10300   */\n      dup4\n        /* \"--CODEGEN--\":10287:10305   */\n      add\n        /* \"--CODEGEN--\":10278:10284   */\n      dup7\n        /* \"--CODEGEN--\":10246:10306   */\n      jump(tag_286)\n    tag_321:\n        /* \"--CODEGEN--\":10355:10364   */\n      dup2\n        /* \"--CODEGEN--\":10349:10353   */\n      dup2\n        /* \"--CODEGEN--\":10345:10365   */\n      sub\n        /* \"--CODEGEN--\":10339:10342   */\n      0x80\n        /* \"--CODEGEN--\":10328:10337   */\n      dup4\n        /* \"--CODEGEN--\":10324:10343   */\n      add\n        /* \"--CODEGEN--\":10317:10366   */\n      mstore\n        /* \"--CODEGEN--\":10380:10448   */\n      tag_322\n        /* \"--CODEGEN--\":10443:10447   */\n      dup2\n        /* \"--CODEGEN--\":10434:10440   */\n      dup6\n        /* \"--CODEGEN--\":10380:10448   */\n      jump(tag_290)\n    tag_322:\n        /* \"--CODEGEN--\":10372:10448   */\n      swap1\n      pop\n        /* \"--CODEGEN--\":10497:10506   */\n      dup2\n        /* \"--CODEGEN--\":10491:10495   */\n      dup2\n        /* \"--CODEGEN--\":10487:10507   */\n      sub\n        /* \"--CODEGEN--\":10481:10484   */\n      0xa0\n        /* \"--CODEGEN--\":10470:10479   */\n      dup4\n        /* \"--CODEGEN--\":10466:10485   */\n      add\n        /* \"--CODEGEN--\":10459:10508   */\n      mstore\n        /* \"--CODEGEN--\":10522:10590   */\n      tag_323\n        /* \"--CODEGEN--\":10585:10589   */\n      dup2\n        /* \"--CODEGEN--\":10576:10582   */\n      dup5\n        /* \"--CODEGEN--\":10522:10590   */\n      jump(tag_290)\n    tag_323:\n        /* \"--CODEGEN--\":10514:10590   */\n      swap1\n      pop\n        /* \"--CODEGEN--\":9918:10600   */\n      swap8\n      swap7\n      pop\n      pop\n      pop\n      pop\n      pop\n      pop\n      pop\n      jump\n        /* \"--CODEGEN--\":10607:10788   */\n    tag_18:\n      0x00\n        /* \"--CODEGEN--\":10709:10711   */\n      0x20\n        /* \"--CODEGEN--\":10698:10707   */\n      dup3\n        /* \"--CODEGEN--\":10694:10712   */\n      add\n        /* \"--CODEGEN--\":10686:10712   */\n      swap1\n      pop\n        /* \"--CODEGEN--\":10723:10778   */\n      tag_325\n        /* \"--CODEGEN--\":10775:10776   */\n      0x00\n        /* \"--CODEGEN--\":10764:10773   */\n      dup4\n        /* \"--CODEGEN--\":10760:10777   */\n      add\n        /* \"--CODEGEN--\":10751:10757   */\n      dup5\n        /* \"--CODEGEN--\":10723:10778   */\n      jump(tag_282)\n    tag_325:\n        /* \"--CODEGEN--\":10680:10788   */\n      swap3\n      swap2\n      pop\n      pop\n      jump\n        /* \"--CODEGEN--\":10795:12622   */\n    tag_31:\n      0x00\n        /* \"--CODEGEN--\":11441:11444   */\n      0x0120\n        /* \"--CODEGEN--\":11430:11439   */\n      dup3\n        /* \"--CODEGEN--\":11426:11445   */\n      add\n        /* \"--CODEGEN--\":11418:11445   */\n      swap1\n      pop\n        /* \"--CODEGEN--\":11456:11511   */\n      tag_327\n        /* \"--CODEGEN--\":11508:11509   */\n      0x00\n        /* \"--CODEGEN--\":11497:11506   */\n      dup4\n        /* \"--CODEGEN--\":11493:11510   */\n      add\n        /* \"--CODEGEN--\":11484:11490   */\n      dup13\n        /* \"--CODEGEN--\":11456:11511   */\n      jump(tag_282)\n    tag_327:\n        /* \"--CODEGEN--\":11522:11584   */\n      tag_328\n        /* \"--CODEGEN--\":11580:11582   */\n      0x20\n        /* \"--CODEGEN--\":11569:11578   */\n      dup4\n        /* \"--CODEGEN--\":11565:11583   */\n      add\n        /* \"--CODEGEN--\":11556:11562   */\n      dup12\n        /* \"--CODEGEN--\":11522:11584   */\n      jump(tag_312)\n    tag_328:\n        /* \"--CODEGEN--\":11595:11657   */\n      tag_329\n        /* \"--CODEGEN--\":11653:11655   */\n      0x40\n        /* \"--CODEGEN--\":11642:11651   */\n      dup4\n        /* \"--CODEGEN--\":11638:11656   */\n      add\n        /* \"--CODEGEN--\":11629:11635   */\n      dup11\n        /* \"--CODEGEN--\":11595:11657   */\n      jump(tag_312)\n    tag_329:\n        /* \"--CODEGEN--\":11668:11730   */\n      tag_330\n        /* \"--CODEGEN--\":11726:11728   */\n      0x60\n        /* \"--CODEGEN--\":11715:11724   */\n      dup4\n        /* \"--CODEGEN--\":11711:11729   */\n      add\n        /* \"--CODEGEN--\":11702:11708   */\n      dup10\n        /* \"--CODEGEN--\":11668:11730   */\n      jump(tag_312)\n    tag_330:\n        /* \"--CODEGEN--\":11741:11804   */\n      tag_331\n        /* \"--CODEGEN--\":11799:11802   */\n      0x80\n        /* \"--CODEGEN--\":11788:11797   */\n      dup4\n        /* \"--CODEGEN--\":11784:11803   */\n      add\n        /* \"--CODEGEN--\":11775:11781   */\n      dup9\n        /* \"--CODEGEN--\":11741:11804   */\n      jump(tag_312)\n    tag_331:\n        /* \"--CODEGEN--\":11853:11862   */\n      dup2\n        /* \"--CODEGEN--\":11847:11851   */\n      dup2\n        /* \"--CODEGEN--\":11843:11863   */\n      sub\n        /* \"--CODEGEN--\":11837:11840   */\n      0xa0\n        /* \"--CODEGEN--\":11826:11835   */\n      dup4\n        /* \"--CODEGEN--\":11822:11841   */\n      add\n        /* \"--CODEGEN--\":11815:11864   */\n      mstore\n        /* \"--CODEGEN--\":11878:11976   */\n      tag_332\n        /* \"--CODEGEN--\":11971:11975   */\n      dup2\n        /* \"--CODEGEN--\":11962:11968   */\n      dup8\n        /* \"--CODEGEN--\":11878:11976   */\n      jump(tag_257)\n    tag_332:\n        /* \"--CODEGEN--\":11870:11976   */\n      swap1\n      pop\n        /* \"--CODEGEN--\":12025:12034   */\n      dup2\n        /* \"--CODEGEN--\":12019:12023   */\n      dup2\n        /* \"--CODEGEN--\":12015:12035   */\n      sub\n        /* \"--CODEGEN--\":12009:12012   */\n      0xc0\n        /* \"--CODEGEN--\":11998:12007   */\n      dup4\n        /* \"--CODEGEN--\":11994:12013   */\n      add\n        /* \"--CODEGEN--\":11987:12036   */\n      mstore\n        /* \"--CODEGEN--\":12050:12188   */\n      tag_333\n        /* \"--CODEGEN--\":12183:12187   */\n      dup2\n        /* \"--CODEGEN--\":12174:12180   */\n      dup7\n        /* \"--CODEGEN--\":12050:12188   */\n      jump(tag_269)\n    tag_333:\n        /* \"--CODEGEN--\":12042:12188   */\n      swap1\n      pop\n        /* \"--CODEGEN--\":12237:12246   */\n      dup2\n        /* \"--CODEGEN--\":12231:12235   */\n      dup2\n        /* \"--CODEGEN--\":12227:12247   */\n      sub\n        /* \"--CODEGEN--\":12221:12224   */\n      0xe0\n        /* \"--CODEGEN--\":12210:12219   */\n      dup4\n        /* \"--CODEGEN--\":12206:12225   */\n      add\n        /* \"--CODEGEN--\":12199:12248   */\n      mstore\n        /* \"--CODEGEN--\":12262:12400   */\n      tag_334\n        /* \"--CODEGEN--\":12395:12399   */\n      dup2\n        /* \"--CODEGEN--\":12386:12392   */\n      dup6\n        /* \"--CODEGEN--\":12262:12400   */\n      jump(tag_269)\n    tag_334:\n        /* \"--CODEGEN--\":12254:12400   */\n      swap1\n      pop\n        /* \"--CODEGEN--\":12449:12458   */\n      dup2\n        /* \"--CODEGEN--\":12443:12447   */\n      dup2\n        /* \"--CODEGEN--\":12439:12459   */\n      sub\n        /* \"--CODEGEN--\":12433:12436   */\n      0x0100\n        /* \"--CODEGEN--\":12422:12431   */\n      dup4\n        /* \"--CODEGEN--\":12418:12437   */\n      add\n        /* \"--CODEGEN--\":12411:12460   */\n      mstore\n        /* \"--CODEGEN--\":12474:12612   */\n      tag_335\n        /* \"--CODEGEN--\":12607:12611   */\n      dup2\n        /* \"--CODEGEN--\":12598:12604   */\n      dup5\n        /* \"--CODEGEN--\":12474:12612   */\n      jump(tag_269)\n    tag_335:\n        /* \"--CODEGEN--\":12466:12612   */\n      swap1\n      pop\n        /* \"--CODEGEN--\":11412:12622   */\n      swap11\n      swap10\n      pop\n      pop\n      pop\n      pop\n      pop\n      pop\n      pop\n      pop\n      pop\n      pop\n      jump\n        /* \"--CODEGEN--\":12629:12919   */\n    tag_161:\n      0x00\n        /* \"--CODEGEN--\":12763:12765   */\n      0x40\n        /* \"--CODEGEN--\":12752:12761   */\n      dup3\n        /* \"--CODEGEN--\":12748:12766   */\n      add\n        /* \"--CODEGEN--\":12740:12766   */\n      swap1\n      pop\n        /* \"--CODEGEN--\":12777:12836   */\n      tag_337\n        /* \"--CODEGEN--\":12833:12834   */\n      0x00\n        /* \"--CODEGEN--\":12822:12831   */\n      dup4\n        /* \"--CODEGEN--\":12818:12835   */\n      add\n        /* \"--CODEGEN--\":12809:12815   */\n      dup6\n        /* \"--CODEGEN--\":12777:12836   */\n      jump(tag_286)\n    tag_337:\n        /* \"--CODEGEN--\":12847:12909   */\n      tag_338\n        /* \"--CODEGEN--\":12905:12907   */\n      0x20\n        /* \"--CODEGEN--\":12894:12903   */\n      dup4\n        /* \"--CODEGEN--\":12890:12908   */\n      add\n        /* \"--CODEGEN--\":12881:12887   */\n      dup5\n        /* \"--CODEGEN--\":12847:12909   */\n      jump(tag_253)\n    tag_338:\n        /* \"--CODEGEN--\":12734:12919   */\n      swap4\n      swap3\n      pop\n      pop\n      pop\n      jump\n        /* \"--CODEGEN--\":12926:13325   */\n    tag_65:\n      0x00\n        /* \"--CODEGEN--\":13092:13094   */\n      0x60\n        /* \"--CODEGEN--\":13081:13090   */\n      dup3\n        /* \"--CODEGEN--\":13077:13095   */\n      add\n        /* \"--CODEGEN--\":13069:13095   */\n      swap1\n      pop\n        /* \"--CODEGEN--\":13106:13167   */\n      tag_340\n        /* \"--CODEGEN--\":13164:13165   */\n      0x00\n        /* \"--CODEGEN--\":13153:13162   */\n      dup4\n        /* \"--CODEGEN--\":13149:13166   */\n      add\n        /* \"--CODEGEN--\":13140:13146   */\n      dup7\n        /* \"--CODEGEN--\":13106:13167   */\n      jump(tag_312)\n    tag_340:\n        /* \"--CODEGEN--\":13178:13248   */\n      tag_341\n        /* \"--CODEGEN--\":13244:13246   */\n      0x20\n        /* \"--CODEGEN--\":13233:13242   */\n      dup4\n        /* \"--CODEGEN--\":13229:13247   */\n      add\n        /* \"--CODEGEN--\":13220:13226   */\n      dup6\n        /* \"--CODEGEN--\":13178:13248   */\n      jump(tag_249)\n    tag_341:\n        /* \"--CODEGEN--\":13259:13315   */\n      tag_342\n        /* \"--CODEGEN--\":13311:13313   */\n      0x40\n        /* \"--CODEGEN--\":13300:13309   */\n      dup4\n        /* \"--CODEGEN--\":13296:13314   */\n      add\n        /* \"--CODEGEN--\":13287:13293   */\n      dup5\n        /* \"--CODEGEN--\":13259:13315   */\n      jump(tag_282)\n    tag_342:\n        /* \"--CODEGEN--\":13063:13325   */\n      swap5\n      swap4\n      pop\n      pop\n      pop\n      pop\n      jump\n        /* \"--CODEGEN--\":13332:13588   */\n    tag_202:\n      0x00\n        /* \"--CODEGEN--\":13394:13396   */\n      0x40\n        /* \"--CODEGEN--\":13388:13397   */\n      mload\n        /* \"--CODEGEN--\":13378:13397   */\n      swap1\n      pop\n        /* \"--CODEGEN--\":13432:13436   */\n      dup2\n        /* \"--CODEGEN--\":13424:13430   */\n      dup2\n        /* \"--CODEGEN--\":13420:13437   */\n      add\n        /* \"--CODEGEN--\":13531:13537   */\n      dup2\n        /* \"--CODEGEN--\":13519:13529   */\n      dup2\n        /* \"--CODEGEN--\":13516:13538   */\n      lt\n        /* \"--CODEGEN--\":13495:13513   */\n      0xffffffffffffffff\n        /* \"--CODEGEN--\":13483:13493   */\n      dup3\n        /* \"--CODEGEN--\":13480:13514   */\n      gt\n        /* \"--CODEGEN--\":13477:13539   */\n      or\n        /* \"--CODEGEN--\":13474:13476   */\n      iszero\n      tag_344\n      jumpi\n        /* \"--CODEGEN--\":13552:13553   */\n      0x00\n        /* \"--CODEGEN--\":13549:13550   */\n      dup1\n        /* \"--CODEGEN--\":13542:13554   */\n      revert\n        /* \"--CODEGEN--\":13474:13476   */\n    tag_344:\n        /* \"--CODEGEN--\":13572:13582   */\n      dup1\n        /* \"--CODEGEN--\":13568:13570   */\n      0x40\n        /* \"--CODEGEN--\":13561:13583   */\n      mstore\n        /* \"--CODEGEN--\":13372:13588   */\n      pop\n      swap2\n      swap1\n      pop\n      jump\n        /* \"--CODEGEN--\":13595:13854   */\n    tag_201:\n      0x00\n        /* \"--CODEGEN--\":13739:13757   */\n      0xffffffffffffffff\n        /* \"--CODEGEN--\":13731:13737   */\n      dup3\n        /* \"--CODEGEN--\":13728:13758   */\n      gt\n        /* \"--CODEGEN--\":13725:13727   */\n      iszero\n      tag_346\n      jumpi\n        /* \"--CODEGEN--\":13771:13772   */\n      0x00\n        /* \"--CODEGEN--\":13768:13769   */\n      dup1\n        /* \"--CODEGEN--\":13761:13773   */\n      revert\n        /* \"--CODEGEN--\":13725:13727   */\n    tag_346:\n        /* \"--CODEGEN--\":13815:13819   */\n      0x1f\n        /* \"--CODEGEN--\":13811:13820   */\n      not\n        /* \"--CODEGEN--\":13804:13808   */\n      0x1f\n        /* \"--CODEGEN--\":13796:13802   */\n      dup4\n        /* \"--CODEGEN--\":13792:13809   */\n      add\n        /* \"--CODEGEN--\":13788:13821   */\n      and\n        /* \"--CODEGEN--\":13780:13821   */\n      swap1\n      pop\n        /* \"--CODEGEN--\":13844:13848   */\n      0x20\n        /* \"--CODEGEN--\":13838:13842   */\n      dup2\n        /* \"--CODEGEN--\":13834:13849   */\n      add\n        /* \"--CODEGEN--\":13826:13849   */\n      swap1\n      pop\n        /* \"--CODEGEN--\":13662:13854   */\n      swap2\n      swap1\n      pop\n      jump\n        /* \"--CODEGEN--\":13863:13984   */\n    tag_261:\n      0x00\n        /* \"--CODEGEN--\":13972:13976   */\n      0x20\n        /* \"--CODEGEN--\":13964:13970   */\n      dup3\n        /* \"--CODEGEN--\":13960:13977   */\n      add\n        /* \"--CODEGEN--\":13949:13977   */\n      swap1\n      pop\n        /* \"--CODEGEN--\":13941:13984   */\n      swap2\n      swap1\n      pop\n      jump\n        /* \"--CODEGEN--\":13995:14136   */\n    tag_273:\n      0x00\n        /* \"--CODEGEN--\":14124:14128   */\n      0x20\n        /* \"--CODEGEN--\":14116:14122   */\n      dup3\n        /* \"--CODEGEN--\":14112:14129   */\n      add\n        /* \"--CODEGEN--\":14101:14129   */\n      swap1\n      pop\n        /* \"--CODEGEN--\":14093:14136   */\n      swap2\n      swap1\n      pop\n      jump\n        /* \"--CODEGEN--\":14145:14252   */\n    tag_259:\n      0x00\n        /* \"--CODEGEN--\":14241:14246   */\n      dup2\n        /* \"--CODEGEN--\":14235:14247   */\n      mload\n        /* \"--CODEGEN--\":14225:14247   */\n      swap1\n      pop\n        /* \"--CODEGEN--\":14219:14252   */\n      swap2\n      swap1\n      pop\n      jump\n        /* \"--CODEGEN--\":14259:14386   */\n    tag_271:\n      0x00\n        /* \"--CODEGEN--\":14375:14380   */\n      dup2\n        /* \"--CODEGEN--\":14369:14381   */\n      mload\n        /* \"--CODEGEN--\":14359:14381   */\n      swap1\n      pop\n        /* \"--CODEGEN--\":14353:14386   */\n      swap2\n      swap1\n      pop\n      jump\n        /* \"--CODEGEN--\":14393:14481   */\n    tag_300:\n      0x00\n        /* \"--CODEGEN--\":14470:14475   */\n      dup2\n        /* \"--CODEGEN--\":14464:14476   */\n      mload\n        /* \"--CODEGEN--\":14454:14476   */\n      swap1\n      pop\n        /* \"--CODEGEN--\":14448:14481   */\n      swap2\n      swap1\n      pop\n      jump\n        /* \"--CODEGEN--\":14488:14580   */\n    tag_292:\n      0x00\n        /* \"--CODEGEN--\":14569:14574   */\n      dup2\n        /* \"--CODEGEN--\":14563:14575   */\n      mload\n        /* \"--CODEGEN--\":14553:14575   */\n      swap1\n      pop\n        /* \"--CODEGEN--\":14547:14580   */\n      swap2\n      swap1\n      pop\n      jump\n        /* \"--CODEGEN--\":14588:14710   */\n    tag_267:\n      0x00\n        /* \"--CODEGEN--\":14699:14703   */\n      0x20\n        /* \"--CODEGEN--\":14691:14697   */\n      dup3\n        /* \"--CODEGEN--\":14687:14704   */\n      add\n        /* \"--CODEGEN--\":14676:14704   */\n      swap1\n      pop\n        /* \"--CODEGEN--\":14669:14710   */\n      swap2\n      swap1\n      pop\n      jump\n        /* \"--CODEGEN--\":14719:14861   */\n    tag_280:\n      0x00\n        /* \"--CODEGEN--\":14850:14854   */\n      0x20\n        /* \"--CODEGEN--\":14842:14848   */\n      dup3\n        /* \"--CODEGEN--\":14838:14855   */\n      add\n        /* \"--CODEGEN--\":14827:14855   */\n      swap1\n      pop\n        /* \"--CODEGEN--\":14820:14861   */\n      swap2\n      swap1\n      pop\n      jump\n        /* \"--CODEGEN--\":14869:14974   */\n    tag_255:\n      0x00\n        /* \"--CODEGEN--\":14938:14969   */\n      tag_356\n        /* \"--CODEGEN--\":14963:14968   */\n      dup3\n        /* \"--CODEGEN--\":14938:14969   */\n      jump(tag_357)\n    tag_356:\n        /* \"--CODEGEN--\":14927:14969   */\n      swap1\n      pop\n        /* \"--CODEGEN--\":14921:14974   */\n      swap2\n      swap1\n      pop\n      jump\n        /* \"--CODEGEN--\":14981:15073   */\n    tag_284:\n      0x00\n        /* \"--CODEGEN--\":15061:15066   */\n      dup2\n        /* \"--CODEGEN--\":15054:15067   */\n      iszero\n        /* \"--CODEGEN--\":15047:15068   */\n      iszero\n        /* \"--CODEGEN--\":15036:15068   */\n      swap1\n      pop\n        /* \"--CODEGEN--\":15030:15073   */\n      swap2\n      swap1\n      pop\n      jump\n        /* \"--CODEGEN--\":15080:15158   */\n    tag_288:\n      0x00\n        /* \"--CODEGEN--\":15148:15153   */\n      dup2\n        /* \"--CODEGEN--\":15137:15153   */\n      swap1\n      pop\n        /* \"--CODEGEN--\":15131:15158   */\n      swap2\n      swap1\n      pop\n      jump\n        /* \"--CODEGEN--\":15165:15293   */\n    tag_357:\n      0x00\n        /* \"--CODEGEN--\":15245:15287   */\n      0xffffffffffffffffffffffffffffffffffffffff\n        /* \"--CODEGEN--\":15238:15243   */\n      dup3\n        /* \"--CODEGEN--\":15234:15288   */\n      and\n        /* \"--CODEGEN--\":15223:15288   */\n      swap1\n      pop\n        /* \"--CODEGEN--\":15217:15293   */\n      swap2\n      swap1\n      pop\n      jump\n        /* \"--CODEGEN--\":15300:15379   */\n    tag_316:\n      0x00\n        /* \"--CODEGEN--\":15369:15374   */\n      dup2\n        /* \"--CODEGEN--\":15358:15374   */\n      swap1\n      pop\n        /* \"--CODEGEN--\":15352:15379   */\n      swap2\n      swap1\n      pop\n      jump\n        /* \"--CODEGEN--\":15386:15491   */\n    tag_184:\n      0x00\n        /* \"--CODEGEN--\":15455:15486   */\n      tag_363\n        /* \"--CODEGEN--\":15480:15485   */\n      dup3\n        /* \"--CODEGEN--\":15455:15486   */\n      jump(tag_357)\n    tag_363:\n        /* \"--CODEGEN--\":15444:15486   */\n      swap1\n      pop\n        /* \"--CODEGEN--\":15438:15491   */\n      swap2\n      swap1\n      pop\n      jump\n        /* \"--CODEGEN--\":15498:15590   */\n    tag_191:\n      0x00\n        /* \"--CODEGEN--\":15578:15583   */\n      dup2\n        /* \"--CODEGEN--\":15571:15584   */\n      iszero\n        /* \"--CODEGEN--\":15564:15585   */\n      iszero\n        /* \"--CODEGEN--\":15553:15585   */\n      swap1\n      pop\n        /* \"--CODEGEN--\":15547:15590   */\n      swap2\n      swap1\n      pop\n      jump\n        /* \"--CODEGEN--\":15597:15675   */\n    tag_195:\n      0x00\n        /* \"--CODEGEN--\":15665:15670   */\n      dup2\n        /* \"--CODEGEN--\":15654:15670   */\n      swap1\n      pop\n        /* \"--CODEGEN--\":15648:15675   */\n      swap2\n      swap1\n      pop\n      jump\n        /* \"--CODEGEN--\":15682:15761   */\n    tag_209:\n      0x00\n        /* \"--CODEGEN--\":15751:15756   */\n      dup2\n        /* \"--CODEGEN--\":15740:15756   */\n      swap1\n      pop\n        /* \"--CODEGEN--\":15734:15761   */\n      swap2\n      swap1\n      pop\n      jump\n        /* \"--CODEGEN--\":15768:15897   */\n    tag_251:\n      0x00\n        /* \"--CODEGEN--\":15855:15892   */\n      tag_368\n        /* \"--CODEGEN--\":15886:15891   */\n      dup3\n        /* \"--CODEGEN--\":15855:15892   */\n      jump(tag_369)\n    tag_368:\n        /* \"--CODEGEN--\":15842:15892   */\n      swap1\n      pop\n        /* \"--CODEGEN--\":15836:15897   */\n      swap2\n      swap1\n      pop\n      jump\n        /* \"--CODEGEN--\":15904:16025   */\n    tag_369:\n      0x00\n        /* \"--CODEGEN--\":15983:16020   */\n      tag_371\n        /* \"--CODEGEN--\":16014:16019   */\n      dup3\n        /* \"--CODEGEN--\":15983:16020   */\n      jump(tag_372)\n    tag_371:\n        /* \"--CODEGEN--\":15970:16020   */\n      swap1\n      pop\n        /* \"--CODEGEN--\":15964:16025   */\n      swap2\n      swap1\n      pop\n      jump\n        /* \"--CODEGEN--\":16032:16147   */\n    tag_372:\n      0x00\n        /* \"--CODEGEN--\":16111:16142   */\n      tag_374\n        /* \"--CODEGEN--\":16136:16141   */\n      dup3\n        /* \"--CODEGEN--\":16111:16142   */\n      jump(tag_357)\n    tag_374:\n        /* \"--CODEGEN--\":16098:16142   */\n      swap1\n      pop\n        /* \"--CODEGEN--\":16092:16147   */\n      swap2\n      swap1\n      pop\n      jump\n        /* \"--CODEGEN--\":16155:16300   */\n    tag_205:\n        /* \"--CODEGEN--\":16236:16242   */\n      dup3\n        /* \"--CODEGEN--\":16231:16234   */\n      dup2\n        /* \"--CODEGEN--\":16226:16229   */\n      dup4\n        /* \"--CODEGEN--\":16213:16243   */\n      calldatacopy\n        /* \"--CODEGEN--\":16292:16293   */\n      0x00\n        /* \"--CODEGEN--\":16283:16289   */\n      dup4\n        /* \"--CODEGEN--\":16278:16281   */\n      dup4\n        /* \"--CODEGEN--\":16274:16290   */\n      add\n        /* \"--CODEGEN--\":16267:16294   */\n      mstore\n        /* \"--CODEGEN--\":16206:16300   */\n      pop\n      pop\n      pop\n      jump\n        /* \"--CODEGEN--\":16309:16577   */\n    tag_294:\n        /* \"--CODEGEN--\":16374:16375   */\n      0x00\n        /* \"--CODEGEN--\":16381:16482   */\n    tag_377:\n        /* \"--CODEGEN--\":16395:16401   */\n      dup4\n        /* \"--CODEGEN--\":16392:16393   */\n      dup2\n        /* \"--CODEGEN--\":16389:16402   */\n      lt\n        /* \"--CODEGEN--\":16381:16482   */\n      iszero\n      tag_378\n      jumpi\n        /* \"--CODEGEN--\":16471:16472   */\n      dup1\n        /* \"--CODEGEN--\":16466:16469   */\n      dup3\n        /* \"--CODEGEN--\":16462:16473   */\n      add\n        /* \"--CODEGEN--\":16456:16474   */\n      mload\n        /* \"--CODEGEN--\":16452:16453   */\n      dup2\n        /* \"--CODEGEN--\":16447:16450   */\n      dup5\n        /* \"--CODEGEN--\":16443:16454   */\n      add\n        /* \"--CODEGEN--\":16436:16475   */\n      mstore\n        /* \"--CODEGEN--\":16417:16419   */\n      0x20\n        /* \"--CODEGEN--\":16414:16415   */\n      dup2\n        /* \"--CODEGEN--\":16410:16420   */\n      add\n        /* \"--CODEGEN--\":16405:16420   */\n      swap1\n      pop\n        /* \"--CODEGEN--\":16381:16482   */\n      jump(tag_377)\n    tag_378:\n        /* \"--CODEGEN--\":16497:16503   */\n      dup4\n        /* \"--CODEGEN--\":16494:16495   */\n      dup2\n        /* \"--CODEGEN--\":16491:16504   */\n      gt\n        /* \"--CODEGEN--\":16488:16490   */\n      iszero\n      tag_380\n      jumpi\n        /* \"--CODEGEN--\":16562:16563   */\n      0x00\n        /* \"--CODEGEN--\":16553:16559   */\n      dup5\n        /* \"--CODEGEN--\":16548:16551   */\n      dup5\n        /* \"--CODEGEN--\":16544:16560   */\n      add\n        /* \"--CODEGEN--\":16537:16564   */\n      mstore\n        /* \"--CODEGEN--\":16488:16490   */\n    tag_380:\n        /* \"--CODEGEN--\":16358:16577   */\n      pop\n      pop\n      pop\n      pop\n      jump\n        /* \"--CODEGEN--\":16585:16682   */\n    tag_296:\n      0x00\n        /* \"--CODEGEN--\":16673:16675   */\n      0x1f\n        /* \"--CODEGEN--\":16669:16676   */\n      not\n        /* \"--CODEGEN--\":16664:16666   */\n      0x1f\n        /* \"--CODEGEN--\":16657:16662   */\n      dup4\n        /* \"--CODEGEN--\":16653:16667   */\n      add\n        /* \"--CODEGEN--\":16649:16677   */\n      and\n        /* \"--CODEGEN--\":16639:16677   */\n      swap1\n      pop\n        /* \"--CODEGEN--\":16633:16682   */\n      swap2\n      swap1\n      pop\n      jump\n    stop\n\n    sub_0: assembly {\n            /* \"background.sol\":16473:18726  contract Insurance {\r... */\n          mstore(0x40, 0x80)\n            /* \"background.sol\":16950:16952  -1 */\n          0xffffffffffffffffffffffffffffffffffffffffffffffffffffffffffffffff\n            /* \"background.sol\":16930:16952  int requestsCount = -1 */\n          0x07\n          sstore\n            /* \"background.sol\":16986:17340  constructor(address ownerrr, string memory namee, int aadharr, int amountt, string memory insDetailss, string memory documentss) public {\r... */\n          callvalue\n            /* \"--CODEGEN--\":8:17   */\n          dup1\n            /* \"--CODEGEN--\":5:7   */\n          iszero\n          tag_1\n          jumpi\n            /* \"--CODEGEN--\":30:31   */\n          0x00\n            /* \"--CODEGEN--\":27:28   */\n          dup1\n            /* \"--CODEGEN--\":20:32   */\n          revert\n            /* \"--CODEGEN--\":5:7   */\n        tag_1:\n            /* \"background.sol\":16986:17340  constructor(address ownerrr, string memory namee, int aadharr, int amountt, string memory insDetailss, string memory documentss) public {\r... */\n          pop\n          mload(0x40)\n          sub(codesize, bytecodeSize)\n          dup1\n          bytecodeSize\n          dup4\n          codecopy\n          dup2\n          add\n          dup1\n          0x40\n          mstore\n          tag_2\n          swap2\n          swap1\n          dup2\n          add\n          swap1\n          jump(tag_3)\n        tag_2:\n            /* \"background.sol\":17155:17159  this */\n          address\n            /* \"background.sol\":17133:17144  selfAddress */\n          0x00\n          dup1\n            /* \"background.sol\":17133:17160  selfAddress = address(this) */\n          0x0100\n          exp\n          dup2\n          sload\n          dup2\n          0xffffffffffffffffffffffffffffffffffffffff\n          mul\n          not\n          and\n          swap1\n          dup4\n          0xffffffffffffffffffffffffffffffffffffffff\n          and\n          mul\n          or\n          swap1\n          sstore\n          pop\n            /* \"background.sol\":17180:17187  ownerrr */\n          dup6\n            /* \"background.sol\":17171:17177  ownerr */\n          0x01\n          0x00\n            /* \"background.sol\":17171:17187  ownerr = ownerrr */\n          0x0100\n          exp\n          dup2\n          sload\n          dup2\n          0xffffffffffffffffffffffffffffffffffffffff\n          mul\n          not\n          and\n          swap1\n          dup4\n          0xffffffffffffffffffffffffffffffffffffffff\n          and\n          mul\n          or\n          swap1\n          sstore\n          pop\n            /* \"background.sol\":17205:17210  namee */\n          dup5\n            /* \"background.sol\":17198:17202  name */\n          0x02\n            /* \"background.sol\":17198:17210  name = namee */\n          swap1\n          dup1\n          mload\n          swap1\n          0x20\n          add\n          swap1\n          tag_6\n          swap3\n          swap2\n          swap1\n          tag_7\n          jump\t// in\n        tag_6:\n          pop\n            /* \"background.sol\":17234:17245  insDetailss */\n          dup2\n            /* \"background.sol\":17221:17231  insDetails */\n          0x04\n            /* \"background.sol\":17221:17245  insDetails = insDetailss */\n          swap1\n          dup1\n          mload\n          swap1\n          0x20\n          add\n          swap1\n          tag_8\n          swap3\n          swap2\n          swap1\n          tag_7\n          jump\t// in\n        tag_8:\n          pop\n            /* \"background.sol\":17268:17278  documentss */\n          dup1\n            /* \"background.sol\":17256:17265  documents */\n          0x05\n            /* \"background.sol\":17256:17278  documents = documentss */\n          swap1\n          dup1\n          mload\n          swap1\n          0x20\n          add\n          swap1\n          tag_9\n          swap3\n          swap2\n          swap1\n          tag_7\n          jump\t// in\n        tag_9:\n          pop\n            /* \"background.sol\":17298:17305  aadharr */\n          dup4\n            /* \"background.sol\":17289:17295  aadhar */\n          0x03\n            /* \"background.sol\":17289:17305  aadhar = aadharr */\n          dup2\n          swap1\n          sstore\n          pop\n            /* \"background.sol\":17325:17332  amountt */\n          dup3\n            /* \"background.sol\":17316:17322  amount */\n          0x06\n            /* \"background.sol\":17316:17332  amount = amountt */\n          dup2\n          swap1\n          sstore\n          pop\n            /* \"background.sol\":16986:17340  constructor(address ownerrr, string memory namee, int aadharr, int amountt, string memory insDetailss, string memory documentss) public {\r... */\n          pop\n          pop\n          pop\n          pop\n          pop\n          pop\n            /* \"background.sol\":16473:18726  contract Insurance {\r... */\n          jump(tag_10)\n        tag_7:\n          dup3\n          dup1\n          sload\n          0x01\n          dup2\n          0x01\n          and\n          iszero\n          0x0100\n          mul\n          sub\n          and\n          0x02\n          swap1\n          div\n          swap1\n          0x00\n          mstore\n          keccak256(0x00, 0x20)\n          swap1\n          0x1f\n          add\n          0x20\n          swap1\n          div\n          dup2\n          add\n          swap3\n          dup3\n          0x1f\n          lt\n          tag_12\n          jumpi\n          dup1\n          mload\n          not(0xff)\n          and\n          dup4\n          dup1\n          add\n          or\n          dup6\n          sstore\n          jump(tag_11)\n        tag_12:\n          dup3\n          dup1\n          add\n          0x01\n          add\n          dup6\n          sstore\n          dup3\n          iszero\n          tag_11\n          jumpi\n          swap2\n          dup3\n          add\n        tag_13:\n          dup3\n          dup2\n          gt\n          iszero\n          tag_14\n          jumpi\n          dup3\n          mload\n          dup3\n          sstore\n          swap2\n          0x20\n          add\n          swap2\n          swap1\n          0x01\n          add\n          swap1\n          jump(tag_13)\n        tag_14:\n        tag_11:\n          pop\n          swap1\n          pop\n          tag_15\n          swap2\n          swap1\n          tag_16\n          jump\t// in\n        tag_15:\n          pop\n          swap1\n          jump\t// out\n        tag_16:\n          tag_17\n          swap2\n          swap1\n        tag_18:\n          dup1\n          dup3\n          gt\n          iszero\n          tag_19\n          jumpi\n          0x00\n          dup2\n          0x00\n          swap1\n          sstore\n          pop\n          0x01\n          add\n          jump(tag_18)\n        tag_19:\n          pop\n          swap1\n          jump\n        tag_17:\n          swap1\n          jump\t// out\n            /* \"--CODEGEN--\":5:127   */\n        tag_21:\n          0x00\n            /* \"--CODEGEN--\":83:122   */\n          tag_22\n            /* \"--CODEGEN--\":114:120   */\n          dup3\n            /* \"--CODEGEN--\":108:121   */\n          mload\n            /* \"--CODEGEN--\":83:122   */\n          jump(tag_23)\n        tag_22:\n            /* \"--CODEGEN--\":74:122   */\n          swap1\n          pop\n            /* \"--CODEGEN--\":68:127   */\n          swap3\n          swap2\n          pop\n          pop\n          jump\n            /* \"--CODEGEN--\":134:254   */\n        tag_25:\n          0x00\n            /* \"--CODEGEN--\":211:249   */\n          tag_26\n            /* \"--CODEGEN--\":241:247   */\n          dup3\n            /* \"--CODEGEN--\":235:248   */\n          mload\n            /* \"--CODEGEN--\":211:249   */\n          jump(tag_27)\n        tag_26:\n            /* \"--CODEGEN--\":202:249   */\n          swap1\n          pop\n            /* \"--CODEGEN--\":196:254   */\n          swap3\n          swap2\n          pop\n          pop\n          jump\n            /* \"--CODEGEN--\":262:706   */\n        tag_29:\n          0x00\n            /* \"--CODEGEN--\":375:378   */\n          dup3\n            /* \"--CODEGEN--\":368:372   */\n          0x1f\n            /* \"--CODEGEN--\":360:366   */\n          dup4\n            /* \"--CODEGEN--\":356:373   */\n          add\n            /* \"--CODEGEN--\":352:379   */\n          slt\n            /* \"--CODEGEN--\":345:380   */\n          iszero\n            /* \"--CODEGEN--\":342:344   */\n          iszero\n          tag_30\n          jumpi\n            /* \"--CODEGEN--\":393:394   */\n          0x00\n            /* \"--CODEGEN--\":390:391   */\n          dup1\n            /* \"--CODEGEN--\":383:395   */\n          revert\n            /* \"--CODEGEN--\":342:344   */\n        tag_30:\n            /* \"--CODEGEN--\":423:429   */\n          dup2\n            /* \"--CODEGEN--\":417:430   */\n          mload\n            /* \"--CODEGEN--\":445:510   */\n          tag_31\n            /* \"--CODEGEN--\":460:509   */\n          tag_32\n            /* \"--CODEGEN--\":502:508   */\n          dup3\n            /* \"--CODEGEN--\":460:509   */\n          jump(tag_33)\n        tag_32:\n            /* \"--CODEGEN--\":445:510   */\n          jump(tag_34)\n        tag_31:\n            /* \"--CODEGEN--\":436:510   */\n          swap2\n          pop\n            /* \"--CODEGEN--\":530:536   */\n          dup1\n            /* \"--CODEGEN--\":523:528   */\n          dup3\n            /* \"--CODEGEN--\":516:537   */\n          mstore\n            /* \"--CODEGEN--\":566:570   */\n          0x20\n            /* \"--CODEGEN--\":558:564   */\n          dup4\n            /* \"--CODEGEN--\":554:571   */\n          add\n            /* \"--CODEGEN--\":599:603   */\n          0x20\n            /* \"--CODEGEN--\":592:597   */\n          dup4\n            /* \"--CODEGEN--\":588:604   */\n          add\n            /* \"--CODEGEN--\":634:637   */\n          dup6\n            /* \"--CODEGEN--\":625:631   */\n          dup4\n            /* \"--CODEGEN--\":620:623   */\n          dup4\n            /* \"--CODEGEN--\":616:632   */\n          add\n            /* \"--CODEGEN--\":613:638   */\n          gt\n            /* \"--CODEGEN--\":610:612   */\n          iszero\n          tag_35\n          jumpi\n            /* \"--CODEGEN--\":651:652   */\n          0x00\n            /* \"--CODEGEN--\":648:649   */\n          dup1\n            /* \"--CODEGEN--\":641:653   */\n          revert\n            /* \"--CODEGEN--\":610:612   */\n        tag_35:\n            /* \"--CODEGEN--\":661:700   */\n          tag_36\n            /* \"--CODEGEN--\":693:699   */\n          dup4\n            /* \"--CODEGEN--\":688:691   */\n          dup3\n            /* \"--CODEGEN--\":683:686   */\n          dup5\n            /* \"--CODEGEN--\":661:700   */\n          jump(tag_37)\n        tag_36:\n            /* \"--CODEGEN--\":335:706   */\n          pop\n          pop\n          pop\n          swap3\n          swap2\n          pop\n          pop\n          jump\n            /* \"--CODEGEN--\":714:1953   */\n        tag_3:\n          0x00\n          dup1\n          0x00\n          dup1\n          0x00\n          dup1\n            /* \"--CODEGEN--\":942:945   */\n          0xc0\n            /* \"--CODEGEN--\":930:939   */\n          dup8\n            /* \"--CODEGEN--\":921:928   */\n          dup10\n            /* \"--CODEGEN--\":917:940   */\n          sub\n            /* \"--CODEGEN--\":913:946   */\n          slt\n            /* \"--CODEGEN--\":910:912   */\n          iszero\n          tag_39\n          jumpi\n            /* \"--CODEGEN--\":959:960   */\n          0x00\n            /* \"--CODEGEN--\":956:957   */\n          dup1\n            /* \"--CODEGEN--\":949:961   */\n          revert\n            /* \"--CODEGEN--\":910:912   */\n        tag_39:\n            /* \"--CODEGEN--\":994:995   */\n          0x00\n            /* \"--CODEGEN--\":1011:1075   */\n          tag_40\n            /* \"--CODEGEN--\":1067:1074   */\n          dup10\n            /* \"--CODEGEN--\":1058:1064   */\n          dup3\n            /* \"--CODEGEN--\":1047:1056   */\n          dup11\n            /* \"--CODEGEN--\":1043:1065   */\n          add\n            /* \"--CODEGEN--\":1011:1075   */\n          jump(tag_21)\n        tag_40:\n            /* \"--CODEGEN--\":1001:1075   */\n          swap7\n          pop\n            /* \"--CODEGEN--\":973:1081   */\n          pop\n            /* \"--CODEGEN--\":1133:1135   */\n          0x20\n            /* \"--CODEGEN--\":1122:1131   */\n          dup8\n            /* \"--CODEGEN--\":1118:1136   */\n          add\n            /* \"--CODEGEN--\":1112:1137   */\n          mload\n            /* \"--CODEGEN--\":1157:1175   */\n          0xffffffffffffffff\n            /* \"--CODEGEN--\":1149:1155   */\n          dup2\n            /* \"--CODEGEN--\":1146:1176   */\n          gt\n            /* \"--CODEGEN--\":1143:1145   */\n          iszero\n          tag_41\n          jumpi\n            /* \"--CODEGEN--\":1189:1190   */\n          0x00\n            /* \"--CODEGEN--\":1186:1187   */\n          dup1\n            /* \"--CODEGEN--\":1179:1191   */\n          revert\n            /* \"--CODEGEN--\":1143:1145   */\n        tag_41:\n            /* \"--CODEGEN--\":1209:1283   */\n          tag_42\n            /* \"--CODEGEN--\":1275:1282   */\n          dup10\n            /* \"--CODEGEN--\":1266:1272   */\n          dup3\n            /* \"--CODEGEN--\":1255:1264   */\n          dup11\n            /* \"--CODEGEN--\":1251:1273   */\n          add\n            /* \"--CODEGEN--\":1209:1283   */\n          jump(tag_29)\n        tag_42:\n            /* \"--CODEGEN--\":1199:1283   */\n          swap6\n          pop\n            /* \"--CODEGEN--\":1091:1289   */\n          pop\n            /* \"--CODEGEN--\":1320:1322   */\n          0x40\n            /* \"--CODEGEN--\":1338:1401   */\n          tag_43\n            /* \"--CODEGEN--\":1393:1400   */\n          dup10\n            /* \"--CODEGEN--\":1384:1390   */\n          dup3\n            /* \"--CODEGEN--\":1373:1382   */\n          dup11\n            /* \"--CODEGEN--\":1369:1391   */\n          add\n            /* \"--CODEGEN--\":1338:1401   */\n          jump(tag_25)\n        tag_43:\n            /* \"--CODEGEN--\":1328:1401   */\n          swap5\n          pop\n            /* \"--CODEGEN--\":1299:1407   */\n          pop\n            /* \"--CODEGEN--\":1438:1440   */\n          0x60\n            /* \"--CODEGEN--\":1456:1519   */\n          tag_44\n            /* \"--CODEGEN--\":1511:1518   */\n          dup10\n            /* \"--CODEGEN--\":1502:1508   */\n          dup3\n            /* \"--CODEGEN--\":1491:1500   */\n          dup11\n            /* \"--CODEGEN--\":1487:1509   */\n          add\n            /* \"--CODEGEN--\":1456:1519   */\n          jump(tag_25)\n        tag_44:\n            /* \"--CODEGEN--\":1446:1519   */\n          swap4\n          pop\n            /* \"--CODEGEN--\":1417:1525   */\n          pop\n            /* \"--CODEGEN--\":1577:1580   */\n          0x80\n            /* \"--CODEGEN--\":1566:1575   */\n          dup8\n            /* \"--CODEGEN--\":1562:1581   */\n          add\n            /* \"--CODEGEN--\":1556:1582   */\n          mload\n            /* \"--CODEGEN--\":1602:1620   */\n          0xffffffffffffffff\n            /* \"--CODEGEN--\":1594:1600   */\n          dup2\n            /* \"--CODEGEN--\":1591:1621   */\n          gt\n            /* \"--CODEGEN--\":1588:1590   */\n          iszero\n          tag_45\n          jumpi\n            /* \"--CODEGEN--\":1634:1635   */\n          0x00\n            /* \"--CODEGEN--\":1631:1632   */\n          dup1\n            /* \"--CODEGEN--\":1624:1636   */\n          revert\n            /* \"--CODEGEN--\":1588:1590   */\n        tag_45:\n            /* \"--CODEGEN--\":1654:1728   */\n          tag_46\n            /* \"--CODEGEN--\":1720:1727   */\n          dup10\n            /* \"--CODEGEN--\":1711:1717   */\n          dup3\n            /* \"--CODEGEN--\":1700:1709   */\n          dup11\n            /* \"--CODEGEN--\":1696:1718   */\n          add\n            /* \"--CODEGEN--\":1654:1728   */\n          jump(tag_29)\n        tag_46:\n            /* \"--CODEGEN--\":1644:1728   */\n          swap3\n          pop\n            /* \"--CODEGEN--\":1535:1734   */\n          pop\n            /* \"--CODEGEN--\":1786:1789   */\n          0xa0\n            /* \"--CODEGEN--\":1775:1784   */\n          dup8\n            /* \"--CODEGEN--\":1771:1790   */\n          add\n            /* \"--CODEGEN--\":1765:1791   */\n          mload\n            /* \"--CODEGEN--\":1811:1829   */\n          0xffffffffffffffff\n            /* \"--CODEGEN--\":1803:1809   */\n          dup2\n            /* \"--CODEGEN--\":1800:1830   */\n          gt\n            /* \"--CODEGEN--\":1797:1799   */\n          iszero\n          tag_47\n          jumpi\n            /* \"--CODEGEN--\":1843:1844   */\n          0x00\n            /* \"--CODEGEN--\":1840:1841   */\n          dup1\n            /* \"--CODEGEN--\":1833:1845   */\n          revert\n            /* \"--CODEGEN--\":1797:1799   */\n        tag_47:\n            /* \"--CODEGEN--\":1863:1937   */\n          tag_48\n            /* \"--CODEGEN--\":1929:1936   */\n          dup10\n            /* \"--CODEGEN--\":1920:1926   */\n          dup3\n            /* \"--CODEGEN--\":1909:1918   */\n          dup11\n            /* \"--CODEGEN--\":1905:1927   */\n          add\n            /* \"--CODEGEN--\":1863:1937   */\n          jump(tag_29)\n        tag_48:\n            /* \"--CODEGEN--\":1853:1937   */\n          swap2\n          pop\n            /* \"--CODEGEN--\":1744:1943   */\n          pop\n            /* \"--CODEGEN--\":904:1953   */\n          swap3\n          swap6\n          pop\n          swap3\n          swap6\n          pop\n          swap3\n          swap6\n          jump\n            /* \"--CODEGEN--\":1960:2216   */\n        tag_34:\n          0x00\n            /* \"--CODEGEN--\":2022:2024   */\n          0x40\n            /* \"--CODEGEN--\":2016:2025   */\n          mload\n            /* \"--CODEGEN--\":2006:2025   */\n          swap1\n          pop\n            /* \"--CODEGEN--\":2060:2064   */\n          dup2\n            /* \"--CODEGEN--\":2052:2058   */\n          dup2\n            /* \"--CODEGEN--\":2048:2065   */\n          add\n            /* \"--CODEGEN--\":2159:2165   */\n          dup2\n            /* \"--CODEGEN--\":2147:2157   */\n          dup2\n            /* \"--CODEGEN--\":2144:2166   */\n          lt\n            /* \"--CODEGEN--\":2123:2141   */\n          0xffffffffffffffff\n            /* \"--CODEGEN--\":2111:2121   */\n          dup3\n            /* \"--CODEGEN--\":2108:2142   */\n          gt\n            /* \"--CODEGEN--\":2105:2167   */\n          or\n            /* \"--CODEGEN--\":2102:2104   */\n          iszero\n          tag_50\n          jumpi\n            /* \"--CODEGEN--\":2180:2181   */\n          0x00\n            /* \"--CODEGEN--\":2177:2178   */\n          dup1\n            /* \"--CODEGEN--\":2170:2182   */\n          revert\n            /* \"--CODEGEN--\":2102:2104   */\n        tag_50:\n            /* \"--CODEGEN--\":2200:2210   */\n          dup1\n            /* \"--CODEGEN--\":2196:2198   */\n          0x40\n            /* \"--CODEGEN--\":2189:2211   */\n          mstore\n            /* \"--CODEGEN--\":2000:2216   */\n          pop\n          swap2\n          swap1\n          pop\n          jump\n            /* \"--CODEGEN--\":2223:2482   */\n        tag_33:\n          0x00\n            /* \"--CODEGEN--\":2367:2385   */\n          0xffffffffffffffff\n            /* \"--CODEGEN--\":2359:2365   */\n          dup3\n            /* \"--CODEGEN--\":2356:2386   */\n          gt\n            /* \"--CODEGEN--\":2353:2355   */\n          iszero\n          tag_52\n          jumpi\n            /* \"--CODEGEN--\":2399:2400   */\n          0x00\n            /* \"--CODEGEN--\":2396:2397   */\n          dup1\n            /* \"--CODEGEN--\":2389:2401   */\n          revert\n            /* \"--CODEGEN--\":2353:2355   */\n        tag_52:\n            /* \"--CODEGEN--\":2443:2447   */\n          0x1f\n            /* \"--CODEGEN--\":2439:2448   */\n          not\n            /* \"--CODEGEN--\":2432:2436   */\n          0x1f\n            /* \"--CODEGEN--\":2424:2430   */\n          dup4\n            /* \"--CODEGEN--\":2420:2437   */\n          add\n            /* \"--CODEGEN--\":2416:2449   */\n          and\n            /* \"--CODEGEN--\":2408:2449   */\n          swap1\n          pop\n            /* \"--CODEGEN--\":2472:2476   */\n          0x20\n            /* \"--CODEGEN--\":2466:2470   */\n          dup2\n            /* \"--CODEGEN--\":2462:2477   */\n          add\n            /* \"--CODEGEN--\":2454:2477   */\n          swap1\n          pop\n            /* \"--CODEGEN--\":2290:2482   */\n          swap2\n          swap1\n          pop\n          jump\n            /* \"--CODEGEN--\":2489:2617   */\n        tag_54:\n          0x00\n            /* \"--CODEGEN--\":2569:2611   */\n          0xffffffffffffffffffffffffffffffffffffffff\n            /* \"--CODEGEN--\":2562:2567   */\n          dup3\n            /* \"--CODEGEN--\":2558:2612   */\n          and\n            /* \"--CODEGEN--\":2547:2612   */\n          swap1\n          pop\n            /* \"--CODEGEN--\":2541:2617   */\n          swap2\n          swap1\n          pop\n          jump\n            /* \"--CODEGEN--\":2624:2729   */\n        tag_23:\n          0x00\n            /* \"--CODEGEN--\":2693:2724   */\n          tag_56\n            /* \"--CODEGEN--\":2718:2723   */\n          dup3\n            /* \"--CODEGEN--\":2693:2724   */\n          jump(tag_54)\n        tag_56:\n            /* \"--CODEGEN--\":2682:2724   */\n          swap1\n          pop\n            /* \"--CODEGEN--\":2676:2729   */\n          swap2\n          swap1\n          pop\n          jump\n            /* \"--CODEGEN--\":2736:2814   */\n        tag_27:\n          0x00\n            /* \"--CODEGEN--\":2804:2809   */\n          dup2\n            /* \"--CODEGEN--\":2793:2809   */\n          swap1\n          pop\n            /* \"--CODEGEN--\":2787:2814   */\n          swap2\n          swap1\n          pop\n          jump\n            /* \"--CODEGEN--\":2822:3090   */\n        tag_37:\n            /* \"--CODEGEN--\":2887:2888   */\n          0x00\n            /* \"--CODEGEN--\":2894:2995   */\n        tag_59:\n            /* \"--CODEGEN--\":2908:2914   */\n          dup4\n            /* \"--CODEGEN--\":2905:2906   */\n          dup2\n            /* \"--CODEGEN--\":2902:2915   */\n          lt\n            /* \"--CODEGEN--\":2894:2995   */\n          iszero\n          tag_60\n          jumpi\n            /* \"--CODEGEN--\":2984:2985   */\n          dup1\n            /* \"--CODEGEN--\":2979:2982   */\n          dup3\n            /* \"--CODEGEN--\":2975:2986   */\n          add\n            /* \"--CODEGEN--\":2969:2987   */\n          mload\n            /* \"--CODEGEN--\":2965:2966   */\n          dup2\n            /* \"--CODEGEN--\":2960:2963   */\n          dup5\n            /* \"--CODEGEN--\":2956:2967   */\n          add\n            /* \"--CODEGEN--\":2949:2988   */\n          mstore\n            /* \"--CODEGEN--\":2930:2932   */\n          0x20\n            /* \"--CODEGEN--\":2927:2928   */\n          dup2\n            /* \"--CODEGEN--\":2923:2933   */\n          add\n            /* \"--CODEGEN--\":2918:2933   */\n          swap1\n          pop\n            /* \"--CODEGEN--\":2894:2995   */\n          jump(tag_59)\n        tag_60:\n            /* \"--CODEGEN--\":3010:3016   */\n          dup4\n            /* \"--CODEGEN--\":3007:3008   */\n          dup2\n            /* \"--CODEGEN--\":3004:3017   */\n          gt\n            /* \"--CODEGEN--\":3001:3003   */\n          iszero\n          tag_62\n          jumpi\n            /* \"--CODEGEN--\":3075:3076   */\n          0x00\n            /* \"--CODEGEN--\":3066:3072   */\n          dup5\n            /* \"--CODEGEN--\":3061:3064   */\n          dup5\n            /* \"--CODEGEN--\":3057:3073   */\n          add\n            /* \"--CODEGEN--\":3050:3077   */\n          mstore\n            /* \"--CODEGEN--\":3001:3003   */\n        tag_62:\n            /* \"--CODEGEN--\":2871:3090   */\n          pop\n          pop\n          pop\n          pop\n          jump\n            /* \"background.sol\":16473:18726  contract Insurance {\r... */\n        tag_10:\n          dataSize(sub_0)\n          dup1\n          dataOffset(sub_0)\n          0x00\n          codecopy\n          0x00\n          return\n        stop\n\n        sub_0: assembly {\n                /* \"background.sol\":16473:18726  contract Insurance {\r... */\n              mstore(0x40, 0x80)\n              callvalue\n                /* \"--CODEGEN--\":8:17   */\n              dup1\n                /* \"--CODEGEN--\":5:7   */\n              iszero\n              tag_1\n              jumpi\n                /* \"--CODEGEN--\":30:31   */\n              0x00\n                /* \"--CODEGEN--\":27:28   */\n              dup1\n                /* \"--CODEGEN--\":20:32   */\n              revert\n                /* \"--CODEGEN--\":5:7   */\n            tag_1:\n                /* \"background.sol\":16473:18726  contract Insurance {\r... */\n              pop\n              jumpi(tag_2, lt(calldatasize, 0x04))\n              calldataload(0x00)\n              0x0100000000000000000000000000000000000000000000000000000000\n              swap1\n              div\n              dup1\n              0x3bc5de30\n              eq\n              tag_3\n              jumpi\n              dup1\n              0x72102d18\n              eq\n              tag_4\n              jumpi\n              dup1\n              0x83bffb88\n              eq\n              tag_5\n              jumpi\n            tag_2:\n              0x00\n              dup1\n              revert\n                /* \"background.sol\":17352:17583  function getData() public view returns(address, address, string memory, int, string memory, string memory, int, Request[] memory) {\r... */\n            tag_3:\n              tag_6\n              tag_7\n              jump\t// in\n            tag_6:\n              mload(0x40)\n              tag_8\n              swap9\n              swap8\n              swap7\n              swap6\n              swap5\n              swap4\n              swap3\n              swap2\n              swap1\n              jump(tag_9)\n            tag_8:\n              mload(0x40)\n              dup1\n              swap2\n              sub\n              swap1\n              return\n                /* \"background.sol\":18327:18723  function finalizeRequest(uint256 index, address add, bool flag) public {\r... */\n            tag_4:\n              tag_10\n              0x04\n              dup1\n              calldatasize\n              sub\n              tag_11\n              swap2\n              swap1\n              dup2\n              add\n              swap1\n              jump(tag_12)\n            tag_11:\n              tag_13\n              jump\t// in\n            tag_10:\n              stop\n                /* \"background.sol\":17591:18319  function applyClaim(string memory fileHash, string memory titlee, string memory detailss) public {\r... */\n            tag_5:\n              tag_14\n              0x04\n              dup1\n              calldatasize\n              sub\n              tag_15\n              swap2\n              swap1\n              dup2\n              add\n              swap1\n              jump(tag_16)\n            tag_15:\n              tag_17\n              jump\t// in\n            tag_14:\n              stop\n                /* \"background.sol\":17352:17583  function getData() public view returns(address, address, string memory, int, string memory, string memory, int, Request[] memory) {\r... */\n            tag_7:\n                /* \"background.sol\":17391:17398  address */\n              0x00\n                /* \"background.sol\":17400:17407  address */\n              dup1\n                /* \"background.sol\":17409:17422  string memory */\n              0x60\n                /* \"background.sol\":17424:17427  int */\n              0x00\n                /* \"background.sol\":17429:17442  string memory */\n              0x60\n                /* \"background.sol\":17444:17457  string memory */\n              dup1\n                /* \"background.sol\":17459:17462  int */\n              0x00\n                /* \"background.sol\":17464:17480  Request[] memory */\n              0x60\n                /* \"background.sol\":17500:17511  selfAddress */\n              0x00\n              dup1\n              swap1\n              sload\n              swap1\n              0x0100\n              exp\n              swap1\n              div\n              0xffffffffffffffffffffffffffffffffffffffff\n              and\n                /* \"background.sol\":17513:17519  ownerr */\n              0x01\n              0x00\n              swap1\n              sload\n              swap1\n              0x0100\n              exp\n              swap1\n              div\n              0xffffffffffffffffffffffffffffffffffffffff\n              and\n                /* \"background.sol\":17521:17525  name */\n              0x02\n                /* \"background.sol\":17527:17533  aadhar */\n              sload(0x03)\n                /* \"background.sol\":17535:17545  insDetails */\n              0x04\n                /* \"background.sol\":17547:17556  documents */\n              0x05\n                /* \"background.sol\":17558:17564  amount */\n              sload(0x06)\n                /* \"background.sol\":17566:17574  requests */\n              0x08\n                /* \"background.sol\":17493:17575  return(selfAddress, ownerr, name, aadhar, insDetails, documents, amount, requests) */\n              dup6\n              dup1\n              sload\n              0x01\n              dup2\n              0x01\n              and\n              iszero\n              0x0100\n              mul\n              sub\n              and\n              0x02\n              swap1\n              div\n              dup1\n              0x1f\n              add\n              0x20\n              dup1\n              swap2\n              div\n              mul\n              0x20\n              add\n              mload(0x40)\n              swap1\n              dup2\n              add\n              0x40\n              mstore\n              dup1\n              swap3\n              swap2\n              swap1\n              dup2\n              dup2\n              mstore\n              0x20\n              add\n              dup3\n              dup1\n              sload\n              0x01\n              dup2\n              0x01\n              and\n              iszero\n              0x0100\n              mul\n              sub\n              and\n              0x02\n              swap1\n              div\n              dup1\n              iszero\n              tag_19\n              jumpi\n              dup1\n              0x1f\n              lt\n              tag_20\n              jumpi\n              0x0100\n              dup1\n              dup4\n              sload\n              div\n              mul\n              dup4\n              mstore\n              swap2\n              0x20\n              add\n              swap2\n              jump(tag_19)\n            tag_20:\n              dup3\n              add\n              swap2\n              swap1\n              0x00\n              mstore\n              keccak256(0x00, 0x20)\n              swap1\n            tag_21:\n              dup2\n              sload\n              dup2\n              mstore\n              swap1\n              0x01\n              add\n              swap1\n              0x20\n              add\n              dup1\n              dup4\n              gt\n              tag_21\n              jumpi\n              dup3\n              swap1\n              sub\n              0x1f\n              and\n              dup3\n              add\n              swap2\n            tag_19:\n              pop\n              pop\n              pop\n              pop\n              pop\n              swap6\n              pop\n              dup4\n              dup1\n              sload\n              0x01\n              dup2\n              0x01\n              and\n              iszero\n              0x0100\n              mul\n              sub\n              and\n              0x02\n              swap1\n              div\n              dup1\n              0x1f\n              add\n              0x20\n              dup1\n              swap2\n              div\n              mul\n              0x20\n              add\n              mload(0x40)\n              swap1\n              dup2\n              add\n              0x40\n              mstore\n              dup1\n              swap3\n              swap2\n              swap1\n              dup2\n              dup2\n              mstore\n              0x20\n              add\n              dup3\n              dup1\n              sload\n              0x01\n              dup2\n              0x01\n              and\n              iszero\n              0x0100\n              mul\n              sub\n              and\n              0x02\n              swap1\n              div\n              dup1\n              iszero\n              tag_22\n              jumpi\n              dup1\n              0x1f\n              lt\n              tag_23\n              jumpi\n              0x0100\n              dup1\n              dup4\n              sload\n              div\n              mul\n              dup4\n              mstore\n              swap2\n              0x20\n              add\n              swap2\n              jump(tag_22)\n            tag_23:\n              dup3\n              add\n              swap2\n              swap1\n              0x00\n              mstore\n              keccak256(0x00, 0x20)\n              swap1\n            tag_24:\n              dup2\n              sload\n              dup2\n              mstore\n              swap1\n              0x01\n              add\n              swap1\n              0x20\n              add\n              dup1\n              dup4\n              gt\n              tag_24\n              jumpi\n              dup3\n              swap1\n              sub\n              0x1f\n              and\n              dup3\n              add\n              swap2\n            tag_22:\n              pop\n              pop\n              pop\n              pop\n              pop\n              swap4\n              pop\n              dup3\n              dup1\n              sload\n              0x01\n              dup2\n              0x01\n              and\n              iszero\n              0x0100\n              mul\n              sub\n              and\n              0x02\n              swap1\n              div\n              dup1\n              0x1f\n              add\n              0x20\n              dup1\n              swap2\n              div\n              mul\n              0x20\n              add\n              mload(0x40)\n              swap1\n              dup2\n              add\n              0x40\n              mstore\n              dup1\n              swap3\n              swap2\n              swap1\n              dup2\n              dup2\n              mstore\n              0x20\n              add\n              dup3\n              dup1\n              sload\n              0x01\n              dup2\n              0x01\n              and\n              iszero\n              0x0100\n              mul\n              sub\n              and\n              0x02\n              swap1\n              div\n              dup1\n              iszero\n              tag_25\n              jumpi\n              dup1\n              0x1f\n              lt\n              tag_26\n              jumpi\n              0x0100\n              dup1\n              dup4\n              sload\n              div\n              mul\n              dup4\n              mstore\n              swap2\n              0x20\n              add\n              swap2\n              jump(tag_25)\n            tag_26:\n              dup3\n              add\n              swap2\n              swap1\n              0x00\n              mstore\n              keccak256(0x00, 0x20)\n              swap1\n            tag_27:\n              dup2\n              sload\n              dup2\n              mstore\n              swap1\n              0x01\n              add\n              swap1\n              0x20\n              add\n              dup1\n              dup4\n              gt\n              tag_27\n              jumpi\n              dup3\n              swap1\n              sub\n              0x1f\n              and\n              dup3\n              add\n              swap2\n            tag_25:\n              pop\n              pop\n              pop\n              pop\n              pop\n              swap3\n              pop\n              dup1\n              dup1\n              sload\n              dup1\n              0x20\n              mul\n              0x20\n              add\n              mload(0x40)\n              swap1\n              dup2\n              add\n              0x40\n              mstore\n              dup1\n              swap3\n              swap2\n              swap1\n              dup2\n              dup2\n              mstore\n              0x20\n              add\n              0x00\n              swap1\n            tag_28:\n              dup3\n              dup3\n              lt\n              iszero\n              tag_29\n              jumpi\n              dup4\n              dup3\n              swap1\n              0x00\n              mstore\n              keccak256(0x00, 0x20)\n              swap1\n              0x09\n              mul\n              add\n              0x0140\n              mload(0x40)\n              swap1\n              dup2\n              add\n              0x40\n              mstore\n              swap1\n              dup2\n              0x00\n              dup3\n              add\n              0x00\n              swap1\n              sload\n              swap1\n              0x0100\n              exp\n              swap1\n              div\n              0xffffffffffffffffffffffffffffffffffffffff\n              and\n              0xffffffffffffffffffffffffffffffffffffffff\n              and\n              0xffffffffffffffffffffffffffffffffffffffff\n              and\n              dup2\n              mstore\n              0x20\n              add\n              0x01\n              dup3\n              add\n              0x00\n              swap1\n              sload\n              swap1\n              0x0100\n              exp\n              swap1\n              div\n              0xffffffffffffffffffffffffffffffffffffffff\n              and\n              0xffffffffffffffffffffffffffffffffffffffff\n              and\n              0xffffffffffffffffffffffffffffffffffffffff\n              and\n              dup2\n              mstore\n              0x20\n              add\n              0x02\n              dup3\n              add\n              dup1\n              sload\n              0x01\n              dup2\n              0x01\n              and\n              iszero\n              0x0100\n              mul\n              sub\n              and\n              0x02\n              swap1\n              div\n              dup1\n              0x1f\n              add\n              0x20\n              dup1\n              swap2\n              div\n              mul\n              0x20\n              add\n              mload(0x40)\n              swap1\n              dup2\n              add\n              0x40\n              mstore\n              dup1\n              swap3\n              swap2\n              swap1\n              dup2\n              dup2\n              mstore\n              0x20\n              add\n              dup3\n              dup1\n              sload\n              0x01\n              dup2\n              0x01\n              and\n              iszero\n              0x0100\n              mul\n              sub\n              and\n              0x02\n              swap1\n              div\n              dup1\n              iszero\n              tag_31\n              jumpi\n              dup1\n              0x1f\n              lt\n              tag_32\n              jumpi\n              0x0100\n              dup1\n              dup4\n              sload\n              div\n              mul\n              dup4\n              mstore\n              swap2\n              0x20\n              add\n              swap2\n              jump(tag_31)\n            tag_32:\n              dup3\n              add\n              swap2\n              swap1\n              0x00\n              mstore\n              keccak256(0x00, 0x20)\n              swap1\n            tag_33:\n              dup2\n              sload\n              dup2\n              mstore\n              swap1\n              0x01\n              add\n              swap1\n              0x20\n              add\n              dup1\n              dup4\n              gt\n              tag_33\n              jumpi\n              dup3\n              swap1\n              sub\n              0x1f\n              and\n              dup3\n              add\n              swap2\n            tag_31:\n              pop\n              pop\n              pop\n              pop\n              pop\n              dup2\n              mstore\n              0x20\n              add\n              0x03\n              dup3\n              add\n              dup1\n              sload\n              0x01\n              dup2\n              0x01\n              and\n              iszero\n              0x0100\n              mul\n              sub\n              and\n              0x02\n              swap1\n              div\n              dup1\n              0x1f\n              add\n              0x20\n              dup1\n              swap2\n              div\n              mul\n              0x20\n              add\n              mload(0x40)\n              swap1\n              dup2\n              add\n              0x40\n              mstore\n              dup1\n              swap3\n              swap2\n              swap1\n              dup2\n              dup2\n              mstore\n              0x20\n              add\n              dup3\n              dup1\n              sload\n              0x01\n              dup2\n              0x01\n              and\n              iszero\n              0x0100\n              mul\n              sub\n              and\n              0x02\n              swap1\n              div\n              dup1\n              iszero\n              tag_34\n              jumpi\n              dup1\n              0x1f\n              lt\n              tag_35\n              jumpi\n              0x0100\n              dup1\n              dup4\n              sload\n              div\n              mul\n              dup4\n              mstore\n              swap2\n              0x20\n              add\n              swap2\n              jump(tag_34)\n            tag_35:\n              dup3\n              add\n              swap2\n              swap1\n              0x00\n              mstore\n              keccak256(0x00, 0x20)\n              swap1\n            tag_36:\n              dup2\n              sload\n              dup2\n              mstore\n              swap1\n              0x01\n              add\n              swap1\n              0x20\n              add\n              dup1\n              dup4\n              gt\n              tag_36\n              jumpi\n              dup3\n              swap1\n              sub\n              0x1f\n              and\n              dup3\n              add\n              swap2\n            tag_34:\n              pop\n              pop\n              pop\n              pop\n              pop\n              dup2\n              mstore\n              0x20\n              add\n              0x04\n              dup3\n              add\n              0x00\n              swap1\n              sload\n              swap1\n              0x0100\n              exp\n              swap1\n              div\n              0xff\n              and\n              iszero\n              iszero\n              iszero\n              iszero\n              dup2\n              mstore\n              0x20\n              add\n              0x04\n              dup3\n              add\n              0x01\n              swap1\n              sload\n              swap1\n              0x0100\n              exp\n              swap1\n              div\n              0xff\n              and\n              iszero\n              iszero\n              iszero\n              iszero\n              dup2\n              mstore\n              0x20\n              add\n              0x05\n              dup3\n              add\n              dup1\n              sload\n              0x01\n              dup2\n              0x01\n              and\n              iszero\n              0x0100\n              mul\n              sub\n              and\n              0x02\n              swap1\n              div\n              dup1\n              0x1f\n              add\n              0x20\n              dup1\n              swap2\n              div\n              mul\n              0x20\n              add\n              mload(0x40)\n              swap1\n              dup2\n              add\n              0x40\n              mstore\n              dup1\n              swap3\n              swap2\n              swap1\n              dup2\n              dup2\n              mstore\n              0x20\n              add\n              dup3\n              dup1\n              sload\n              0x01\n              dup2\n              0x01\n              and\n              iszero\n              0x0100\n              mul\n              sub\n              and\n              0x02\n              swap1\n              div\n              dup1\n              iszero\n              tag_37\n              jumpi\n              dup1\n              0x1f\n              lt\n              tag_38\n              jumpi\n              0x0100\n              dup1\n              dup4\n              sload\n              div\n              mul\n              dup4\n              mstore\n              swap2\n              0x20\n              add\n              swap2\n              jump(tag_37)\n            tag_38:\n              dup3\n              add\n              swap2\n              swap1\n              0x00\n              mstore\n              keccak256(0x00, 0x20)\n              swap1\n            tag_39:\n              dup2\n              sload\n              dup2\n              mstore\n              swap1\n              0x01\n              add\n              swap1\n              0x20\n              add\n              dup1\n              dup4\n              gt\n              tag_39\n              jumpi\n              dup3\n              swap1\n              sub\n              0x1f\n              and\n              dup3\n              add\n              swap2\n            tag_37:\n              pop\n              pop\n              pop\n              pop\n              pop\n              dup2\n              mstore\n              0x20\n              add\n              0x06\n              dup3\n              add\n              sload\n              dup2\n              mstore\n              0x20\n              add\n              0x07\n              dup3\n              add\n              0x00\n              swap1\n              sload\n              swap1\n              0x0100\n              exp\n              swap1\n              div\n              0xff\n              and\n              iszero\n              iszero\n              iszero\n              iszero\n              dup2\n              mstore\n              0x20\n              add\n              0x08\n              dup3\n              add\n              sload\n              dup2\n              mstore\n              pop\n              pop\n              dup2\n              mstore\n              0x20\n              add\n              swap1\n              0x01\n              add\n              swap1\n              jump(tag_28)\n            tag_29:\n              pop\n              pop\n              pop\n              pop\n              swap1\n              pop\n              swap8\n              pop\n              swap8\n              pop\n              swap8\n              pop\n              swap8\n              pop\n              swap8\n              pop\n              swap8\n              pop\n              swap8\n              pop\n              swap8\n              pop\n                /* \"background.sol\":17352:17583  function getData() public view returns(address, address, string memory, int, string memory, string memory, int, Request[] memory) {\r... */\n              swap1\n              swap2\n              swap3\n              swap4\n              swap5\n              swap6\n              swap7\n              swap8\n              jump\t// out\n                /* \"background.sol\":18327:18723  function finalizeRequest(uint256 index, address add, bool flag) public {\r... */\n            tag_13:\n                /* \"background.sol\":18419:18425  ownerr */\n              0x01\n              0x00\n              swap1\n              sload\n              swap1\n              0x0100\n              exp\n              swap1\n              div\n              0xffffffffffffffffffffffffffffffffffffffff\n              and\n                /* \"background.sol\":18412:18425  add == ownerr */\n              0xffffffffffffffffffffffffffffffffffffffff\n              and\n                /* \"background.sol\":18412:18415  add */\n              dup3\n                /* \"background.sol\":18412:18425  add == ownerr */\n              0xffffffffffffffffffffffffffffffffffffffff\n              and\n              eq\n                /* \"background.sol\":18409:18716  if(add == ownerr) {\r... */\n              iszero\n              tag_41\n              jumpi\n                /* \"background.sol\":18453:18457  true */\n              0x01\n                /* \"background.sol\":18445:18457  flag == true */\n              iszero\n              iszero\n                /* \"background.sol\":18445:18449  flag */\n              dup2\n                /* \"background.sol\":18445:18457  flag == true */\n              iszero\n              iszero\n              eq\n                /* \"background.sol\":18442:18705  if(flag == true) {\r... */\n              iszero\n              tag_42\n              jumpi\n                /* \"background.sol\":18505:18509  true */\n              0x01\n                /* \"background.sol\":18478:18486  requests */\n              0x08\n                /* \"background.sol\":18487:18492  index */\n              dup5\n                /* \"background.sol\":18478:18493  requests[index] */\n              dup2\n              sload\n              dup2\n              lt\n              iszero\n              iszero\n              tag_43\n              jumpi\n              invalid\n            tag_43:\n              swap1\n              0x00\n              mstore\n              keccak256(0x00, 0x20)\n              swap1\n              0x09\n              mul\n              add\n                /* \"background.sol\":18478:18502  requests[index].finalize */\n              0x07\n              add\n              0x00\n                /* \"background.sol\":18478:18509  requests[index].finalize = true */\n              0x0100\n              exp\n              dup2\n              sload\n              dup2\n              0xff\n              mul\n              not\n              and\n              swap1\n              dup4\n              iszero\n              iszero\n              mul\n              or\n              swap1\n              sstore\n              pop\n                /* \"background.sol\":18552:18556  true */\n              0x01\n                /* \"background.sol\":18528:18536  requests */\n              0x08\n                /* \"background.sol\":18537:18542  index */\n              dup5\n                /* \"background.sol\":18528:18543  requests[index] */\n              dup2\n              sload\n              dup2\n              lt\n              iszero\n              iszero\n              tag_45\n              jumpi\n              invalid\n            tag_45:\n              swap1\n              0x00\n              mstore\n              keccak256(0x00, 0x20)\n              swap1\n              0x09\n              mul\n              add\n                /* \"background.sol\":18528:18549  requests[index].owner */\n              0x04\n              add\n              0x01\n                /* \"background.sol\":18528:18556  requests[index].owner = true */\n              0x0100\n              exp\n              dup2\n              sload\n              dup2\n              0xff\n              mul\n              not\n              and\n              swap1\n              dup4\n              iszero\n              iszero\n              mul\n              or\n              swap1\n              sstore\n              pop\n                /* \"background.sol\":18442:18705  if(flag == true) {\r... */\n              jump(tag_47)\n            tag_42:\n                /* \"background.sol\":18637:18641  true */\n              0x01\n                /* \"background.sol\":18610:18618  requests */\n              0x08\n                /* \"background.sol\":18619:18624  index */\n              dup5\n                /* \"background.sol\":18610:18625  requests[index] */\n              dup2\n              sload\n              dup2\n              lt\n              iszero\n              iszero\n              tag_48\n              jumpi\n              invalid\n            tag_48:\n              swap1\n              0x00\n              mstore\n              keccak256(0x00, 0x20)\n              swap1\n              0x09\n              mul\n              add\n                /* \"background.sol\":18610:18634  requests[index].finalize */\n              0x07\n              add\n              0x00\n                /* \"background.sol\":18610:18641  requests[index].finalize = true */\n              0x0100\n              exp\n              dup2\n              sload\n              dup2\n              0xff\n              mul\n              not\n              and\n              swap1\n              dup4\n              iszero\n              iszero\n              mul\n              or\n              swap1\n              sstore\n              pop\n                /* \"background.sol\":18684:18689  false */\n              0x00\n                /* \"background.sol\":18660:18668  requests */\n              0x08\n                /* \"background.sol\":18669:18674  index */\n              dup5\n                /* \"background.sol\":18660:18675  requests[index] */\n              dup2\n              sload\n              dup2\n              lt\n              iszero\n              iszero\n              tag_50\n              jumpi\n              invalid\n            tag_50:\n              swap1\n              0x00\n              mstore\n              keccak256(0x00, 0x20)\n              swap1\n              0x09\n              mul\n              add\n                /* \"background.sol\":18660:18681  requests[index].owner */\n              0x04\n              add\n              0x01\n                /* \"background.sol\":18660:18689  requests[index].owner = false */\n              0x0100\n              exp\n              dup2\n              sload\n              dup2\n              0xff\n              mul\n              not\n              and\n              swap1\n              dup4\n              iszero\n              iszero\n              mul\n              or\n              swap1\n              sstore\n              pop\n                /* \"background.sol\":18442:18705  if(flag == true) {\r... */\n            tag_47:\n                /* \"background.sol\":18409:18716  if(add == ownerr) {\r... */\n            tag_41:\n                /* \"background.sol\":18327:18723  function finalizeRequest(uint256 index, address add, bool flag) public {\r... */\n              pop\n              pop\n              pop\n              jump\t// out\n                /* \"background.sol\":17591:18319  function applyClaim(string memory fileHash, string memory titlee, string memory detailss) public {\r... */\n            tag_17:\n                /* \"background.sol\":17699:17724  Request memory newRequest */\n              tag_53\n              tag_54\n              jump\t// in\n            tag_53:\n                /* \"background.sol\":17727:18076  Request( {\r... */\n              0x0140\n              mload(0x40)\n              swap1\n              dup2\n              add\n              0x40\n              mstore\n              dup1\n                /* \"background.sol\":17761:17767  ownerr */\n              0x01\n              0x00\n              swap1\n              sload\n              swap1\n              0x0100\n              exp\n              swap1\n              div\n              0xffffffffffffffffffffffffffffffffffffffff\n              and\n                /* \"background.sol\":17727:18076  Request( {\r... */\n              0xffffffffffffffffffffffffffffffffffffffff\n              and\n              dup2\n              mstore\n              0x20\n              add\n                /* \"background.sol\":17799:17803  this */\n              address\n                /* \"background.sol\":17727:18076  Request( {\r... */\n              0xffffffffffffffffffffffffffffffffffffffff\n              and\n              dup2\n              mstore\n              0x20\n              add\n                /* \"background.sol\":17826:17832  titlee */\n              dup5\n                /* \"background.sol\":17727:18076  Request( {\r... */\n              dup2\n              mstore\n              0x20\n              add\n                /* \"background.sol\":17856:17864  detailss */\n              dup4\n                /* \"background.sol\":17727:18076  Request( {\r... */\n              dup2\n              mstore\n              0x20\n              add\n                /* \"background.sol\":17917:17921  true */\n              0x01\n                /* \"background.sol\":17727:18076  Request( {\r... */\n              iszero\n              iszero\n              dup2\n              mstore\n              0x20\n              add\n                /* \"background.sol\":17943:17948  false */\n              0x00\n                /* \"background.sol\":17727:18076  Request( {\r... */\n              iszero\n              iszero\n              dup2\n              mstore\n              0x20\n              add\n                /* \"background.sol\":17886:17894  fileHash */\n              dup6\n                /* \"background.sol\":17727:18076  Request( {\r... */\n              dup2\n              mstore\n              0x20\n              add\n                /* \"background.sol\":17994:17995  1 */\n              0x01\n                /* \"background.sol\":17978:17991  requestsCount */\n              sload(0x07)\n                /* \"background.sol\":17978:17995  requestsCount + 1 */\n              add\n                /* \"background.sol\":17727:18076  Request( {\r... */\n              dup2\n              mstore\n              0x20\n              add\n                /* \"background.sol\":18021:18026  false */\n              0x00\n                /* \"background.sol\":17727:18076  Request( {\r... */\n              iszero\n              iszero\n              dup2\n              mstore\n              0x20\n              add\n                /* \"background.sol\":18063:18064  0 */\n              0x00\n                /* \"background.sol\":17727:18076  Request( {\r... */\n              dup2\n              mstore\n              pop\n                /* \"background.sol\":17699:18076  Request memory newRequest = Request( {\r... */\n              swap1\n              pop\n                /* \"background.sol\":18087:18095  requests */\n              0x08\n                /* \"background.sol\":18101:18111  newRequest */\n              dup2\n                /* \"background.sol\":18087:18112  requests.push(newRequest) */\n              swap1\n              dup1\n                /* \"--CODEGEN--\":39:40   */\n              0x01\n                /* \"--CODEGEN--\":33:36   */\n              dup2\n                /* \"--CODEGEN--\":27:37   */\n              sload\n                /* \"--CODEGEN--\":23:41   */\n              add\n                /* \"--CODEGEN--\":57:67   */\n              dup1\n                /* \"--CODEGEN--\":52:55   */\n              dup3\n                /* \"--CODEGEN--\":45:68   */\n              sstore\n                /* \"--CODEGEN--\":79:89   */\n              dup1\n                /* \"--CODEGEN--\":72:89   */\n              swap2\n              pop\n                /* \"--CODEGEN--\":0:93   */\n              pop\n                /* \"background.sol\":18087:18112  requests.push(newRequest) */\n              swap1\n              0x01\n              dup3\n              sub\n              swap1\n              0x00\n              mstore\n              keccak256(0x00, 0x20)\n              swap1\n              0x09\n              mul\n              add\n              0x00\n              swap1\n              swap2\n              swap3\n              swap1\n              swap2\n              swap1\n              swap2\n              pop\n              0x00\n              dup3\n              add\n              mload\n              dup2\n              0x00\n              add\n              exp(0x0100, 0x00)\n              dup2\n              sload\n              dup2\n              0xffffffffffffffffffffffffffffffffffffffff\n              mul\n              not\n              and\n              swap1\n              dup4\n              0xffffffffffffffffffffffffffffffffffffffff\n              and\n              mul\n              or\n              swap1\n              sstore\n              pop\n              0x20\n              dup3\n              add\n              mload\n              dup2\n              0x01\n              add\n              exp(0x0100, 0x00)\n              dup2\n              sload\n              dup2\n              0xffffffffffffffffffffffffffffffffffffffff\n              mul\n              not\n              and\n              swap1\n              dup4\n              0xffffffffffffffffffffffffffffffffffffffff\n              and\n              mul\n              or\n              swap1\n              sstore\n              pop\n              0x40\n              dup3\n              add\n              mload\n              dup2\n              0x02\n              add\n              swap1\n              dup1\n              mload\n              swap1\n              0x20\n              add\n              swap1\n              tag_56\n              swap3\n              swap2\n              swap1\n              tag_57\n              jump\t// in\n            tag_56:\n              pop\n              0x60\n              dup3\n              add\n              mload\n              dup2\n              0x03\n              add\n              swap1\n              dup1\n              mload\n              swap1\n              0x20\n              add\n              swap1\n              tag_58\n              swap3\n              swap2\n              swap1\n              tag_57\n              jump\t// in\n            tag_58:\n              pop\n              0x80\n              dup3\n              add\n              mload\n              dup2\n              0x04\n              add\n              exp(0x0100, 0x00)\n              dup2\n              sload\n              dup2\n              0xff\n              mul\n              not\n              and\n              swap1\n              dup4\n              iszero\n              iszero\n              mul\n              or\n              swap1\n              sstore\n              pop\n              0xa0\n              dup3\n              add\n              mload\n              dup2\n              0x04\n              add\n              exp(0x0100, 0x01)\n              dup2\n              sload\n              dup2\n              0xff\n              mul\n              not\n              and\n              swap1\n              dup4\n              iszero\n              iszero\n              mul\n              or\n              swap1\n              sstore\n              pop\n              0xc0\n              dup3\n              add\n              mload\n              dup2\n              0x05\n              add\n              swap1\n              dup1\n              mload\n              swap1\n              0x20\n              add\n              swap1\n              tag_59\n              swap3\n              swap2\n              swap1\n              tag_57\n              jump\t// in\n            tag_59:\n              pop\n              0xe0\n              dup3\n              add\n              mload\n              dup2\n              0x06\n              add\n              sstore\n              0x0100\n              dup3\n              add\n              mload\n              dup2\n              0x07\n              add\n              exp(0x0100, 0x00)\n              dup2\n              sload\n              dup2\n              0xff\n              mul\n              not\n              and\n              swap1\n              dup4\n              iszero\n              iszero\n              mul\n              or\n              swap1\n              sstore\n              pop\n              0x0120\n              dup3\n              add\n              mload\n              dup2\n              0x08\n              add\n              sstore\n              pop\n              pop\n              pop\n                /* \"background.sol\":18123:18131  Owner oo */\n              0x00\n                /* \"background.sol\":18140:18146  ownerr */\n              0x01\n              0x00\n              swap1\n              sload\n              swap1\n              0x0100\n              exp\n              swap1\n              div\n              0xffffffffffffffffffffffffffffffffffffffff\n              and\n                /* \"background.sol\":18123:18147  Owner oo = Owner(ownerr) */\n              swap1\n              pop\n                /* \"background.sol\":18158:18160  oo */\n              dup1\n                /* \"background.sol\":18158:18175  oo.pendingRequest */\n              0xffffffffffffffffffffffffffffffffffffffff\n              and\n              0x9b6b309a\n                /* \"background.sol\":18176:18182  ownerr */\n              0x01\n              0x00\n              swap1\n              sload\n              swap1\n              0x0100\n              exp\n              swap1\n              div\n              0xffffffffffffffffffffffffffffffffffffffff\n              and\n                /* \"background.sol\":18192:18196  this */\n              address\n                /* \"background.sol\":18199:18205  titlee */\n              dup8\n                /* \"background.sol\":18207:18215  detailss */\n              dup8\n                /* \"background.sol\":18217:18225  fileHash */\n              dup11\n                /* \"background.sol\":18227:18231  true */\n              0x01\n                /* \"background.sol\":18233:18238  false */\n              0x00\n                /* \"background.sol\":18264:18265  1 */\n              0x01\n                /* \"background.sol\":18248:18261  requestsCount */\n              sload(0x07)\n                /* \"background.sol\":18248:18265  requestsCount + 1 */\n              add\n                /* \"background.sol\":18158:18267  oo.pendingRequest(ownerr, address(this), titlee, detailss, fileHash, true, false, uint256(requestsCount + 1)) */\n              mload(0x40)\n              dup10\n              0xffffffff\n              and\n              0x0100000000000000000000000000000000000000000000000000000000\n              mul\n              dup2\n              mstore\n              0x04\n              add\n              tag_60\n              swap9\n              swap8\n              swap7\n              swap6\n              swap5\n              swap4\n              swap3\n              swap2\n              swap1\n              jump(tag_61)\n            tag_60:\n              0x00\n              mload(0x40)\n              dup1\n              dup4\n              sub\n              dup2\n              0x00\n              dup8\n              dup1\n              extcodesize\n              iszero\n                /* \"--CODEGEN--\":8:17   */\n              dup1\n                /* \"--CODEGEN--\":5:7   */\n              iszero\n              tag_62\n              jumpi\n                /* \"--CODEGEN--\":30:31   */\n              0x00\n                /* \"--CODEGEN--\":27:28   */\n              dup1\n                /* \"--CODEGEN--\":20:32   */\n              revert\n                /* \"--CODEGEN--\":5:7   */\n            tag_62:\n                /* \"background.sol\":18158:18267  oo.pendingRequest(ownerr, address(this), titlee, detailss, fileHash, true, false, uint256(requestsCount + 1)) */\n              pop\n              gas\n              call\n              iszero\n                /* \"--CODEGEN--\":8:17   */\n              dup1\n                /* \"--CODEGEN--\":5:7   */\n              iszero\n              tag_63\n              jumpi\n                /* \"--CODEGEN--\":45:61   */\n              returndatasize\n                /* \"--CODEGEN--\":42:43   */\n              0x00\n                /* \"--CODEGEN--\":39:40   */\n              dup1\n                /* \"--CODEGEN--\":24:62   */\n              returndatacopy\n                /* \"--CODEGEN--\":77:93   */\n              returndatasize\n                /* \"--CODEGEN--\":74:75   */\n              0x00\n                /* \"--CODEGEN--\":67:94   */\n              revert\n                /* \"--CODEGEN--\":5:7   */\n            tag_63:\n                /* \"background.sol\":18158:18267  oo.pendingRequest(ownerr, address(this), titlee, detailss, fileHash, true, false, uint256(requestsCount + 1)) */\n              pop\n              pop\n              pop\n              pop\n                /* \"background.sol\":18310:18311  1 */\n              0x01\n                /* \"background.sol\":18294:18307  requestsCount */\n              sload(0x07)\n                /* \"background.sol\":18294:18311  requestsCount + 1 */\n              add\n                /* \"background.sol\":18278:18291  requestsCount */\n              0x07\n                /* \"background.sol\":18278:18311  requestsCount = requestsCount + 1 */\n              dup2\n              swap1\n              sstore\n              pop\n                /* \"background.sol\":17591:18319  function applyClaim(string memory fileHash, string memory titlee, string memory detailss) public {\r... */\n              pop\n              pop\n              pop\n              pop\n              pop\n              jump\t// out\n                /* \"background.sol\":16473:18726  contract Insurance {\r... */\n            tag_54:\n              0x0140\n              mload(0x40)\n              swap1\n              dup2\n              add\n              0x40\n              mstore\n              dup1\n              and(0xffffffffffffffffffffffffffffffffffffffff, 0x00)\n              dup2\n              mstore\n              0x20\n              add\n              and(0xffffffffffffffffffffffffffffffffffffffff, 0x00)\n              dup2\n              mstore\n              0x20\n              add\n              0x60\n              dup2\n              mstore\n              0x20\n              add\n              0x60\n              dup2\n              mstore\n              0x20\n              add\n              iszero(iszero(0x00))\n              dup2\n              mstore\n              0x20\n              add\n              iszero(iszero(0x00))\n              dup2\n              mstore\n              0x20\n              add\n              0x60\n              dup2\n              mstore\n              0x20\n              add\n              0x00\n              dup2\n              mstore\n              0x20\n              add\n              iszero(iszero(0x00))\n              dup2\n              mstore\n              0x20\n              add\n              0x00\n              dup2\n              mstore\n              pop\n              swap1\n              jump\t// out\n            tag_57:\n              dup3\n              dup1\n              sload\n              0x01\n              dup2\n              0x01\n              and\n              iszero\n              0x0100\n              mul\n              sub\n              and\n              0x02\n              swap1\n              div\n              swap1\n              0x00\n              mstore\n              keccak256(0x00, 0x20)\n              swap1\n              0x1f\n              add\n              0x20\n              swap1\n              div\n              dup2\n              add\n              swap3\n              dup3\n              0x1f\n              lt\n              tag_65\n              jumpi\n              dup1\n              mload\n              not(0xff)\n              and\n              dup4\n              dup1\n              add\n              or\n              dup6\n              sstore\n              jump(tag_64)\n            tag_65:\n              dup3\n              dup1\n              add\n              0x01\n              add\n              dup6\n              sstore\n              dup3\n              iszero\n              tag_64\n              jumpi\n              swap2\n              dup3\n              add\n            tag_66:\n              dup3\n              dup2\n              gt\n              iszero\n              tag_67\n              jumpi\n              dup3\n              mload\n              dup3\n              sstore\n              swap2\n              0x20\n              add\n              swap2\n              swap1\n              0x01\n              add\n              swap1\n              jump(tag_66)\n            tag_67:\n            tag_64:\n              pop\n              swap1\n              pop\n              tag_68\n              swap2\n              swap1\n              tag_69\n              jump\t// in\n            tag_68:\n              pop\n              swap1\n              jump\t// out\n            tag_69:\n              tag_70\n              swap2\n              swap1\n            tag_71:\n              dup1\n              dup3\n              gt\n              iszero\n              tag_72\n              jumpi\n              0x00\n              dup2\n              0x00\n              swap1\n              sstore\n              pop\n              0x01\n              add\n              jump(tag_71)\n            tag_72:\n              pop\n              swap1\n              jump\n            tag_70:\n              swap1\n              jump\t// out\n                /* \"--CODEGEN--\":5:123   */\n            tag_74:\n              0x00\n                /* \"--CODEGEN--\":72:118   */\n              tag_75\n                /* \"--CODEGEN--\":110:116   */\n              dup3\n                /* \"--CODEGEN--\":97:117   */\n              calldataload\n                /* \"--CODEGEN--\":72:118   */\n              jump(tag_76)\n            tag_75:\n                /* \"--CODEGEN--\":63:118   */\n              swap1\n              pop\n                /* \"--CODEGEN--\":57:123   */\n              swap3\n              swap2\n              pop\n              pop\n              jump\n                /* \"--CODEGEN--\":130:242   */\n            tag_78:\n              0x00\n                /* \"--CODEGEN--\":194:237   */\n              tag_79\n                /* \"--CODEGEN--\":229:235   */\n              dup3\n                /* \"--CODEGEN--\":216:236   */\n              calldataload\n                /* \"--CODEGEN--\":194:237   */\n              jump(tag_80)\n            tag_79:\n                /* \"--CODEGEN--\":185:237   */\n              swap1\n              pop\n                /* \"--CODEGEN--\":179:242   */\n              swap3\n              swap2\n              pop\n              pop\n              jump\n                /* \"--CODEGEN--\":250:692   */\n            tag_82:\n              0x00\n                /* \"--CODEGEN--\":352:355   */\n              dup3\n                /* \"--CODEGEN--\":345:349   */\n              0x1f\n                /* \"--CODEGEN--\":337:343   */\n              dup4\n                /* \"--CODEGEN--\":333:350   */\n              add\n                /* \"--CODEGEN--\":329:356   */\n              slt\n                /* \"--CODEGEN--\":322:357   */\n              iszero\n                /* \"--CODEGEN--\":319:321   */\n              iszero\n              tag_83\n              jumpi\n                /* \"--CODEGEN--\":370:371   */\n              0x00\n                /* \"--CODEGEN--\":367:368   */\n              dup1\n                /* \"--CODEGEN--\":360:372   */\n              revert\n                /* \"--CODEGEN--\":319:321   */\n            tag_83:\n                /* \"--CODEGEN--\":407:413   */\n              dup2\n                /* \"--CODEGEN--\":394:414   */\n              calldataload\n                /* \"--CODEGEN--\":429:494   */\n              tag_84\n                /* \"--CODEGEN--\":444:493   */\n              tag_85\n                /* \"--CODEGEN--\":486:492   */\n              dup3\n                /* \"--CODEGEN--\":444:493   */\n              jump(tag_86)\n            tag_85:\n                /* \"--CODEGEN--\":429:494   */\n              jump(tag_87)\n            tag_84:\n                /* \"--CODEGEN--\":420:494   */\n              swap2\n              pop\n                /* \"--CODEGEN--\":514:520   */\n              dup1\n                /* \"--CODEGEN--\":507:512   */\n              dup3\n                /* \"--CODEGEN--\":500:521   */\n              mstore\n                /* \"--CODEGEN--\":550:554   */\n              0x20\n                /* \"--CODEGEN--\":542:548   */\n              dup4\n                /* \"--CODEGEN--\":538:555   */\n              add\n                /* \"--CODEGEN--\":583:587   */\n              0x20\n                /* \"--CODEGEN--\":576:581   */\n              dup4\n                /* \"--CODEGEN--\":572:588   */\n              add\n                /* \"--CODEGEN--\":618:621   */\n              dup6\n                /* \"--CODEGEN--\":609:615   */\n              dup4\n                /* \"--CODEGEN--\":604:607   */\n              dup4\n                /* \"--CODEGEN--\":600:616   */\n              add\n                /* \"--CODEGEN--\":597:622   */\n              gt\n                /* \"--CODEGEN--\":594:596   */\n              iszero\n              tag_88\n              jumpi\n                /* \"--CODEGEN--\":635:636   */\n              0x00\n                /* \"--CODEGEN--\":632:633   */\n              dup1\n                /* \"--CODEGEN--\":625:637   */\n              revert\n                /* \"--CODEGEN--\":594:596   */\n            tag_88:\n                /* \"--CODEGEN--\":645:686   */\n              tag_89\n                /* \"--CODEGEN--\":679:685   */\n              dup4\n                /* \"--CODEGEN--\":674:677   */\n              dup3\n                /* \"--CODEGEN--\":669:672   */\n              dup5\n                /* \"--CODEGEN--\":645:686   */\n              jump(tag_90)\n            tag_89:\n                /* \"--CODEGEN--\":312:692   */\n              pop\n              pop\n              pop\n              swap3\n              swap2\n              pop\n              pop\n              jump\n                /* \"--CODEGEN--\":700:818   */\n            tag_92:\n              0x00\n                /* \"--CODEGEN--\":767:813   */\n              tag_93\n                /* \"--CODEGEN--\":805:811   */\n              dup3\n                /* \"--CODEGEN--\":792:812   */\n              calldataload\n                /* \"--CODEGEN--\":767:813   */\n              jump(tag_94)\n            tag_93:\n                /* \"--CODEGEN--\":758:813   */\n              swap1\n              pop\n                /* \"--CODEGEN--\":752:818   */\n              swap3\n              swap2\n              pop\n              pop\n              jump\n                /* \"--CODEGEN--\":825:1634   */\n            tag_16:\n              0x00\n              dup1\n              0x00\n                /* \"--CODEGEN--\":993:995   */\n              0x60\n                /* \"--CODEGEN--\":981:990   */\n              dup5\n                /* \"--CODEGEN--\":972:979   */\n              dup7\n                /* \"--CODEGEN--\":968:991   */\n              sub\n                /* \"--CODEGEN--\":964:996   */\n              slt\n                /* \"--CODEGEN--\":961:963   */\n              iszero\n              tag_96\n              jumpi\n                /* \"--CODEGEN--\":1009:1010   */\n              0x00\n                /* \"--CODEGEN--\":1006:1007   */\n              dup1\n                /* \"--CODEGEN--\":999:1011   */\n              revert\n                /* \"--CODEGEN--\":961:963   */\n            tag_96:\n                /* \"--CODEGEN--\":1072:1073   */\n              0x00\n                /* \"--CODEGEN--\":1061:1070   */\n              dup5\n                /* \"--CODEGEN--\":1057:1074   */\n              add\n                /* \"--CODEGEN--\":1044:1075   */\n              calldataload\n                /* \"--CODEGEN--\":1095:1113   */\n              0xffffffffffffffff\n                /* \"--CODEGEN--\":1087:1093   */\n              dup2\n                /* \"--CODEGEN--\":1084:1114   */\n              gt\n                /* \"--CODEGEN--\":1081:1083   */\n              iszero\n              tag_97\n              jumpi\n                /* \"--CODEGEN--\":1127:1128   */\n              0x00\n                /* \"--CODEGEN--\":1124:1125   */\n              dup1\n                /* \"--CODEGEN--\":1117:1129   */\n              revert\n                /* \"--CODEGEN--\":1081:1083   */\n            tag_97:\n                /* \"--CODEGEN--\":1147:1210   */\n              tag_98\n                /* \"--CODEGEN--\":1202:1209   */\n              dup7\n                /* \"--CODEGEN--\":1193:1199   */\n              dup3\n                /* \"--CODEGEN--\":1182:1191   */\n              dup8\n                /* \"--CODEGEN--\":1178:1200   */\n              add\n                /* \"--CODEGEN--\":1147:1210   */\n              jump(tag_82)\n            tag_98:\n                /* \"--CODEGEN--\":1137:1210   */\n              swap4\n              pop\n                /* \"--CODEGEN--\":1023:1216   */\n              pop\n                /* \"--CODEGEN--\":1275:1277   */\n              0x20\n                /* \"--CODEGEN--\":1264:1273   */\n              dup5\n                /* \"--CODEGEN--\":1260:1278   */\n              add\n                /* \"--CODEGEN--\":1247:1279   */\n              calldataload\n                /* \"--CODEGEN--\":1299:1317   */\n              0xffffffffffffffff\n                /* \"--CODEGEN--\":1291:1297   */\n              dup2\n                /* \"--CODEGEN--\":1288:1318   */\n              gt\n                /* \"--CODEGEN--\":1285:1287   */\n              iszero\n              tag_99\n              jumpi\n                /* \"--CODEGEN--\":1331:1332   */\n              0x00\n                /* \"--CODEGEN--\":1328:1329   */\n              dup1\n                /* \"--CODEGEN--\":1321:1333   */\n              revert\n                /* \"--CODEGEN--\":1285:1287   */\n            tag_99:\n                /* \"--CODEGEN--\":1351:1414   */\n              tag_100\n                /* \"--CODEGEN--\":1406:1413   */\n              dup7\n                /* \"--CODEGEN--\":1397:1403   */\n              dup3\n                /* \"--CODEGEN--\":1386:1395   */\n              dup8\n                /* \"--CODEGEN--\":1382:1404   */\n              add\n                /* \"--CODEGEN--\":1351:1414   */\n              jump(tag_82)\n            tag_100:\n                /* \"--CODEGEN--\":1341:1414   */\n              swap3\n              pop\n                /* \"--CODEGEN--\":1226:1420   */\n              pop\n                /* \"--CODEGEN--\":1479:1481   */\n              0x40\n                /* \"--CODEGEN--\":1468:1477   */\n              dup5\n                /* \"--CODEGEN--\":1464:1482   */\n              add\n                /* \"--CODEGEN--\":1451:1483   */\n              calldataload\n                /* \"--CODEGEN--\":1503:1521   */\n              0xffffffffffffffff\n                /* \"--CODEGEN--\":1495:1501   */\n              dup2\n                /* \"--CODEGEN--\":1492:1522   */\n              gt\n                /* \"--CODEGEN--\":1489:1491   */\n              iszero\n              tag_101\n              jumpi\n                /* \"--CODEGEN--\":1535:1536   */\n              0x00\n                /* \"--CODEGEN--\":1532:1533   */\n              dup1\n                /* \"--CODEGEN--\":1525:1537   */\n              revert\n                /* \"--CODEGEN--\":1489:1491   */\n            tag_101:\n                /* \"--CODEGEN--\":1555:1618   */\n              tag_102\n                /* \"--CODEGEN--\":1610:1617   */\n              dup7\n                /* \"--CODEGEN--\":1601:1607   */\n              dup3\n                /* \"--CODEGEN--\":1590:1599   */\n              dup8\n                /* \"--CODEGEN--\":1586:1608   */\n              add\n                /* \"--CODEGEN--\":1555:1618   */\n              jump(tag_82)\n            tag_102:\n                /* \"--CODEGEN--\":1545:1618   */\n              swap2\n              pop\n                /* \"--CODEGEN--\":1430:1624   */\n              pop\n                /* \"--CODEGEN--\":955:1634   */\n              swap3\n              pop\n              swap3\n              pop\n              swap3\n              jump\n                /* \"--CODEGEN--\":1641:2126   */\n            tag_12:\n              0x00\n              dup1\n              0x00\n                /* \"--CODEGEN--\":1776:1778   */\n              0x60\n                /* \"--CODEGEN--\":1764:1773   */\n              dup5\n                /* \"--CODEGEN--\":1755:1762   */\n              dup7\n                /* \"--CODEGEN--\":1751:1774   */\n              sub\n                /* \"--CODEGEN--\":1747:1779   */\n              slt\n                /* \"--CODEGEN--\":1744:1746   */\n              iszero\n              tag_104\n              jumpi\n                /* \"--CODEGEN--\":1792:1793   */\n              0x00\n                /* \"--CODEGEN--\":1789:1790   */\n              dup1\n                /* \"--CODEGEN--\":1782:1794   */\n              revert\n                /* \"--CODEGEN--\":1744:1746   */\n            tag_104:\n                /* \"--CODEGEN--\":1827:1828   */\n              0x00\n                /* \"--CODEGEN--\":1844:1897   */\n              tag_105\n                /* \"--CODEGEN--\":1889:1896   */\n              dup7\n                /* \"--CODEGEN--\":1880:1886   */\n              dup3\n                /* \"--CODEGEN--\":1869:1878   */\n              dup8\n                /* \"--CODEGEN--\":1865:1887   */\n              add\n                /* \"--CODEGEN--\":1844:1897   */\n              jump(tag_92)\n            tag_105:\n                /* \"--CODEGEN--\":1834:1897   */\n              swap4\n              pop\n                /* \"--CODEGEN--\":1806:1903   */\n              pop\n                /* \"--CODEGEN--\":1934:1936   */\n              0x20\n                /* \"--CODEGEN--\":1952:2005   */\n              tag_106\n                /* \"--CODEGEN--\":1997:2004   */\n              dup7\n                /* \"--CODEGEN--\":1988:1994   */\n              dup3\n                /* \"--CODEGEN--\":1977:1986   */\n              dup8\n                /* \"--CODEGEN--\":1973:1995   */\n              add\n                /* \"--CODEGEN--\":1952:2005   */\n              jump(tag_74)\n            tag_106:\n                /* \"--CODEGEN--\":1942:2005   */\n              swap3\n              pop\n                /* \"--CODEGEN--\":1913:2011   */\n              pop\n                /* \"--CODEGEN--\":2042:2044   */\n              0x40\n                /* \"--CODEGEN--\":2060:2110   */\n              tag_107\n                /* \"--CODEGEN--\":2102:2109   */\n              dup7\n                /* \"--CODEGEN--\":2093:2099   */\n              dup3\n                /* \"--CODEGEN--\":2082:2091   */\n              dup8\n                /* \"--CODEGEN--\":2078:2100   */\n              add\n                /* \"--CODEGEN--\":2060:2110   */\n              jump(tag_78)\n            tag_107:\n                /* \"--CODEGEN--\":2050:2110   */\n              swap2\n              pop\n                /* \"--CODEGEN--\":2021:2116   */\n              pop\n                /* \"--CODEGEN--\":1738:2126   */\n              swap3\n              pop\n              swap3\n              pop\n              swap3\n              jump\n                /* \"--CODEGEN--\":2133:2243   */\n            tag_109:\n                /* \"--CODEGEN--\":2206:2237   */\n              tag_110\n                /* \"--CODEGEN--\":2231:2236   */\n              dup2\n                /* \"--CODEGEN--\":2206:2237   */\n              jump(tag_111)\n            tag_110:\n                /* \"--CODEGEN--\":2201:2204   */\n              dup3\n                /* \"--CODEGEN--\":2194:2238   */\n              mstore\n                /* \"--CODEGEN--\":2188:2243   */\n              pop\n              pop\n              jump\n                /* \"--CODEGEN--\":2315:3193   */\n            tag_113:\n              0x00\n                /* \"--CODEGEN--\":2492:2567   */\n              tag_114\n                /* \"--CODEGEN--\":2561:2566   */\n              dup3\n                /* \"--CODEGEN--\":2492:2567   */\n              jump(tag_115)\n            tag_114:\n                /* \"--CODEGEN--\":2585:2591   */\n              dup1\n                /* \"--CODEGEN--\":2580:2583   */\n              dup5\n                /* \"--CODEGEN--\":2573:2592   */\n              mstore\n                /* \"--CODEGEN--\":2609:2613   */\n              0x20\n                /* \"--CODEGEN--\":2604:2607   */\n              dup5\n                /* \"--CODEGEN--\":2600:2614   */\n              add\n                /* \"--CODEGEN--\":2593:2614   */\n              swap4\n              pop\n                /* \"--CODEGEN--\":2657:2660   */\n              dup4\n                /* \"--CODEGEN--\":2699:2703   */\n              0x20\n                /* \"--CODEGEN--\":2691:2697   */\n              dup3\n                /* \"--CODEGEN--\":2687:2704   */\n              mul\n                /* \"--CODEGEN--\":2682:2685   */\n              dup6\n                /* \"--CODEGEN--\":2678:2705   */\n              add\n                /* \"--CODEGEN--\":2725:2802   */\n              tag_116\n                /* \"--CODEGEN--\":2796:2801   */\n              dup6\n                /* \"--CODEGEN--\":2725:2802   */\n              jump(tag_117)\n            tag_116:\n                /* \"--CODEGEN--\":2823:2824   */\n              0x00\n                /* \"--CODEGEN--\":2808:3154   */\n            tag_118:\n                /* \"--CODEGEN--\":2833:2839   */\n              dup5\n                /* \"--CODEGEN--\":2830:2831   */\n              dup2\n                /* \"--CODEGEN--\":2827:2840   */\n              lt\n                /* \"--CODEGEN--\":2808:3154   */\n              iszero\n              tag_119\n              jumpi\n                /* \"--CODEGEN--\":2895:2904   */\n              dup4\n                /* \"--CODEGEN--\":2889:2893   */\n              dup4\n                /* \"--CODEGEN--\":2885:2905   */\n              sub\n                /* \"--CODEGEN--\":2880:2883   */\n              dup9\n                /* \"--CODEGEN--\":2873:2906   */\n              mstore\n                /* \"--CODEGEN--\":2921:3021   */\n              tag_121\n                /* \"--CODEGEN--\":3016:3020   */\n              dup4\n                /* \"--CODEGEN--\":3007:3013   */\n              dup4\n                /* \"--CODEGEN--\":3001:3014   */\n              mload\n                /* \"--CODEGEN--\":2921:3021   */\n              jump(tag_122)\n            tag_121:\n                /* \"--CODEGEN--\":2913:3021   */\n              swap3\n              pop\n                /* \"--CODEGEN--\":3038:3119   */\n              tag_123\n                /* \"--CODEGEN--\":3112:3118   */\n              dup3\n                /* \"--CODEGEN--\":3038:3119   */\n              jump(tag_124)\n            tag_123:\n                /* \"--CODEGEN--\":3028:3119   */\n              swap2\n              pop\n                /* \"--CODEGEN--\":3142:3146   */\n              0x20\n                /* \"--CODEGEN--\":3137:3140   */\n              dup9\n                /* \"--CODEGEN--\":3133:3147   */\n              add\n                /* \"--CODEGEN--\":3126:3147   */\n              swap8\n              pop\n                /* \"--CODEGEN--\":2855:2856   */\n              0x01\n                /* \"--CODEGEN--\":2852:2853   */\n              dup2\n                /* \"--CODEGEN--\":2848:2857   */\n              add\n                /* \"--CODEGEN--\":2843:2857   */\n              swap1\n              pop\n                /* \"--CODEGEN--\":2808:3154   */\n              jump(tag_118)\n            tag_119:\n                /* \"--CODEGEN--\":2812:2826   */\n              pop\n                /* \"--CODEGEN--\":3167:3171   */\n              dup2\n                /* \"--CODEGEN--\":3160:3171   */\n              swap7\n              pop\n                /* \"--CODEGEN--\":3184:3187   */\n              dup7\n                /* \"--CODEGEN--\":3177:3187   */\n              swap5\n              pop\n                /* \"--CODEGEN--\":2471:3193   */\n              pop\n              pop\n              pop\n              pop\n              swap3\n              swap2\n              pop\n              pop\n              jump\n                /* \"--CODEGEN--\":3201:3302   */\n            tag_126:\n                /* \"--CODEGEN--\":3268:3296   */\n              tag_127\n                /* \"--CODEGEN--\":3290:3295   */\n              dup2\n                /* \"--CODEGEN--\":3268:3296   */\n              jump(tag_128)\n            tag_127:\n                /* \"--CODEGEN--\":3263:3266   */\n              dup3\n                /* \"--CODEGEN--\":3256:3297   */\n              mstore\n                /* \"--CODEGEN--\":3250:3302   */\n              pop\n              pop\n              jump\n                /* \"--CODEGEN--\":3309:3416   */\n            tag_130:\n                /* \"--CODEGEN--\":3380:3410   */\n              tag_131\n                /* \"--CODEGEN--\":3404:3409   */\n              dup2\n                /* \"--CODEGEN--\":3380:3410   */\n              jump(tag_132)\n            tag_131:\n                /* \"--CODEGEN--\":3375:3378   */\n              dup3\n                /* \"--CODEGEN--\":3368:3411   */\n              mstore\n                /* \"--CODEGEN--\":3362:3416   */\n              pop\n              pop\n              jump\n                /* \"--CODEGEN--\":3423:3723   */\n            tag_134:\n              0x00\n                /* \"--CODEGEN--\":3525:3564   */\n              tag_135\n                /* \"--CODEGEN--\":3558:3563   */\n              dup3\n                /* \"--CODEGEN--\":3525:3564   */\n              jump(tag_136)\n            tag_135:\n                /* \"--CODEGEN--\":3581:3587   */\n              dup1\n                /* \"--CODEGEN--\":3576:3579   */\n              dup5\n                /* \"--CODEGEN--\":3569:3588   */\n              mstore\n                /* \"--CODEGEN--\":3593:3656   */\n              tag_137\n                /* \"--CODEGEN--\":3649:3655   */\n              dup2\n                /* \"--CODEGEN--\":3642:3646   */\n              0x20\n                /* \"--CODEGEN--\":3637:3640   */\n              dup7\n                /* \"--CODEGEN--\":3633:3647   */\n              add\n                /* \"--CODEGEN--\":3626:3630   */\n              0x20\n                /* \"--CODEGEN--\":3619:3624   */\n              dup7\n                /* \"--CODEGEN--\":3615:3631   */\n              add\n                /* \"--CODEGEN--\":3593:3656   */\n              jump(tag_138)\n            tag_137:\n                /* \"--CODEGEN--\":3688:3717   */\n              tag_139\n                /* \"--CODEGEN--\":3710:3716   */\n              dup2\n                /* \"--CODEGEN--\":3688:3717   */\n              jump(tag_140)\n            tag_139:\n                /* \"--CODEGEN--\":3681:3685   */\n              0x20\n                /* \"--CODEGEN--\":3676:3679   */\n              dup6\n                /* \"--CODEGEN--\":3672:3686   */\n              add\n                /* \"--CODEGEN--\":3668:3718   */\n              add\n                /* \"--CODEGEN--\":3661:3718   */\n              swap2\n              pop\n                /* \"--CODEGEN--\":3505:3723   */\n              pop\n              swap3\n              swap2\n              pop\n              pop\n              jump\n                /* \"--CODEGEN--\":3730:4022   */\n            tag_142:\n              0x00\n                /* \"--CODEGEN--\":3828:3863   */\n              tag_143\n                /* \"--CODEGEN--\":3857:3862   */\n              dup3\n                /* \"--CODEGEN--\":3828:3863   */\n              jump(tag_144)\n            tag_143:\n                /* \"--CODEGEN--\":3880:3886   */\n              dup1\n                /* \"--CODEGEN--\":3875:3878   */\n              dup5\n                /* \"--CODEGEN--\":3868:3887   */\n              mstore\n                /* \"--CODEGEN--\":3892:3955   */\n              tag_145\n                /* \"--CODEGEN--\":3948:3954   */\n              dup2\n                /* \"--CODEGEN--\":3941:3945   */\n              0x20\n                /* \"--CODEGEN--\":3936:3939   */\n              dup7\n                /* \"--CODEGEN--\":3932:3946   */\n              add\n                /* \"--CODEGEN--\":3925:3929   */\n              0x20\n                /* \"--CODEGEN--\":3918:3923   */\n              dup7\n                /* \"--CODEGEN--\":3914:3930   */\n              add\n                /* \"--CODEGEN--\":3892:3955   */\n              jump(tag_138)\n            tag_145:\n                /* \"--CODEGEN--\":3987:4016   */\n              tag_146\n                /* \"--CODEGEN--\":4009:4015   */\n              dup2\n                /* \"--CODEGEN--\":3987:4016   */\n              jump(tag_140)\n            tag_146:\n                /* \"--CODEGEN--\":3980:3984   */\n              0x20\n                /* \"--CODEGEN--\":3975:3978   */\n              dup6\n                /* \"--CODEGEN--\":3971:3985   */\n              add\n                /* \"--CODEGEN--\":3967:4017   */\n              add\n                /* \"--CODEGEN--\":3960:4017   */\n              swap2\n              pop\n                /* \"--CODEGEN--\":3808:4022   */\n              pop\n              swap3\n              swap2\n              pop\n              pop\n              jump\n                /* \"--CODEGEN--\":4088:6139   */\n            tag_122:\n              0x00\n                /* \"--CODEGEN--\":4225:4230   */\n              0x0140\n                /* \"--CODEGEN--\":4220:4223   */\n              dup4\n                /* \"--CODEGEN--\":4216:4231   */\n              add\n                /* \"--CODEGEN--\":4316:4319   */\n              0x00\n                /* \"--CODEGEN--\":4309:4314   */\n              dup4\n                /* \"--CODEGEN--\":4305:4320   */\n              add\n                /* \"--CODEGEN--\":4299:4321   */\n              mload\n                /* \"--CODEGEN--\":4333:4394   */\n              tag_148\n                /* \"--CODEGEN--\":4389:4392   */\n              0x00\n                /* \"--CODEGEN--\":4384:4387   */\n              dup7\n                /* \"--CODEGEN--\":4380:4393   */\n              add\n                /* \"--CODEGEN--\":4367:4378   */\n              dup3\n                /* \"--CODEGEN--\":4333:4394   */\n              jump(tag_109)\n            tag_148:\n                /* \"--CODEGEN--\":4246:4406   */\n              pop\n                /* \"--CODEGEN--\":4485:4489   */\n              0x20\n                /* \"--CODEGEN--\":4478:4483   */\n              dup4\n                /* \"--CODEGEN--\":4474:4490   */\n              add\n                /* \"--CODEGEN--\":4468:4491   */\n              mload\n                /* \"--CODEGEN--\":4503:4565   */\n              tag_149\n                /* \"--CODEGEN--\":4559:4563   */\n              0x20\n                /* \"--CODEGEN--\":4554:4557   */\n              dup7\n                /* \"--CODEGEN--\":4550:4564   */\n              add\n                /* \"--CODEGEN--\":4537:4548   */\n              dup3\n                /* \"--CODEGEN--\":4503:4565   */\n              jump(tag_109)\n            tag_149:\n                /* \"--CODEGEN--\":4416:4577   */\n              pop\n                /* \"--CODEGEN--\":4654:4658   */\n              0x40\n                /* \"--CODEGEN--\":4647:4652   */\n              dup4\n                /* \"--CODEGEN--\":4643:4659   */\n              add\n                /* \"--CODEGEN--\":4637:4660   */\n              mload\n                /* \"--CODEGEN--\":4705:4708   */\n              dup5\n                /* \"--CODEGEN--\":4699:4703   */\n              dup3\n                /* \"--CODEGEN--\":4695:4709   */\n              sub\n                /* \"--CODEGEN--\":4688:4692   */\n              0x40\n                /* \"--CODEGEN--\":4683:4686   */\n              dup7\n                /* \"--CODEGEN--\":4679:4693   */\n              add\n                /* \"--CODEGEN--\":4672:4710   */\n              mstore\n                /* \"--CODEGEN--\":4725:4793   */\n              tag_150\n                /* \"--CODEGEN--\":4788:4792   */\n              dup3\n                /* \"--CODEGEN--\":4775:4786   */\n              dup3\n                /* \"--CODEGEN--\":4725:4793   */\n              jump(tag_142)\n            tag_150:\n                /* \"--CODEGEN--\":4717:4793   */\n              swap2\n              pop\n                /* \"--CODEGEN--\":4587:4805   */\n              pop\n                /* \"--CODEGEN--\":4884:4888   */\n              0x60\n                /* \"--CODEGEN--\":4877:4882   */\n              dup4\n                /* \"--CODEGEN--\":4873:4889   */\n              add\n                /* \"--CODEGEN--\":4867:4890   */\n              mload\n                /* \"--CODEGEN--\":4935:4938   */\n              dup5\n                /* \"--CODEGEN--\":4929:4933   */\n              dup3\n                /* \"--CODEGEN--\":4925:4939   */\n              sub\n                /* \"--CODEGEN--\":4918:4922   */\n              0x60\n                /* \"--CODEGEN--\":4913:4916   */\n              dup7\n                /* \"--CODEGEN--\":4909:4923   */\n              add\n                /* \"--CODEGEN--\":4902:4940   */\n              mstore\n                /* \"--CODEGEN--\":4955:5023   */\n              tag_151\n                /* \"--CODEGEN--\":5018:5022   */\n              dup3\n                /* \"--CODEGEN--\":5005:5016   */\n              dup3\n                /* \"--CODEGEN--\":4955:5023   */\n              jump(tag_142)\n            tag_151:\n                /* \"--CODEGEN--\":4947:5023   */\n              swap2\n              pop\n                /* \"--CODEGEN--\":4815:5035   */\n              pop\n                /* \"--CODEGEN--\":5113:5117   */\n              0x80\n                /* \"--CODEGEN--\":5106:5111   */\n              dup4\n                /* \"--CODEGEN--\":5102:5118   */\n              add\n                /* \"--CODEGEN--\":5096:5119   */\n              mload\n                /* \"--CODEGEN--\":5131:5187   */\n              tag_152\n                /* \"--CODEGEN--\":5181:5185   */\n              0x80\n                /* \"--CODEGEN--\":5176:5179   */\n              dup7\n                /* \"--CODEGEN--\":5172:5186   */\n              add\n                /* \"--CODEGEN--\":5159:5170   */\n              dup3\n                /* \"--CODEGEN--\":5131:5187   */\n              jump(tag_126)\n            tag_152:\n                /* \"--CODEGEN--\":5045:5199   */\n              pop\n                /* \"--CODEGEN--\":5276:5280   */\n              0xa0\n                /* \"--CODEGEN--\":5269:5274   */\n              dup4\n                /* \"--CODEGEN--\":5265:5281   */\n              add\n                /* \"--CODEGEN--\":5259:5282   */\n              mload\n                /* \"--CODEGEN--\":5294:5350   */\n              tag_153\n                /* \"--CODEGEN--\":5344:5348   */\n              0xa0\n                /* \"--CODEGEN--\":5339:5342   */\n              dup7\n                /* \"--CODEGEN--\":5335:5349   */\n              add\n                /* \"--CODEGEN--\":5322:5333   */\n              dup3\n                /* \"--CODEGEN--\":5294:5350   */\n              jump(tag_126)\n            tag_153:\n                /* \"--CODEGEN--\":5209:5362   */\n              pop\n                /* \"--CODEGEN--\":5439:5443   */\n              0xc0\n                /* \"--CODEGEN--\":5432:5437   */\n              dup4\n                /* \"--CODEGEN--\":5428:5444   */\n              add\n                /* \"--CODEGEN--\":5422:5445   */\n              mload\n                /* \"--CODEGEN--\":5490:5493   */\n              dup5\n                /* \"--CODEGEN--\":5484:5488   */\n              dup3\n                /* \"--CODEGEN--\":5480:5494   */\n              sub\n                /* \"--CODEGEN--\":5473:5477   */\n              0xc0\n                /* \"--CODEGEN--\":5468:5471   */\n              dup7\n                /* \"--CODEGEN--\":5464:5478   */\n              add\n                /* \"--CODEGEN--\":5457:5495   */\n              mstore\n                /* \"--CODEGEN--\":5510:5578   */\n              tag_154\n                /* \"--CODEGEN--\":5573:5577   */\n              dup3\n                /* \"--CODEGEN--\":5560:5571   */\n              dup3\n                /* \"--CODEGEN--\":5510:5578   */\n              jump(tag_142)\n            tag_154:\n                /* \"--CODEGEN--\":5502:5578   */\n              swap2\n              pop\n                /* \"--CODEGEN--\":5372:5590   */\n              pop\n                /* \"--CODEGEN--\":5667:5671   */\n              0xe0\n                /* \"--CODEGEN--\":5660:5665   */\n              dup4\n                /* \"--CODEGEN--\":5656:5672   */\n              add\n                /* \"--CODEGEN--\":5650:5673   */\n              mload\n                /* \"--CODEGEN--\":5685:5747   */\n              tag_155\n                /* \"--CODEGEN--\":5741:5745   */\n              0xe0\n                /* \"--CODEGEN--\":5736:5739   */\n              dup7\n                /* \"--CODEGEN--\":5732:5746   */\n              add\n                /* \"--CODEGEN--\":5719:5730   */\n              dup3\n                /* \"--CODEGEN--\":5685:5747   */\n              jump(tag_156)\n            tag_155:\n                /* \"--CODEGEN--\":5600:5759   */\n              pop\n                /* \"--CODEGEN--\":5839:5844   */\n              0x0100\n                /* \"--CODEGEN--\":5832:5837   */\n              dup4\n                /* \"--CODEGEN--\":5828:5845   */\n              add\n                /* \"--CODEGEN--\":5822:5846   */\n              mload\n                /* \"--CODEGEN--\":5858:5915   */\n              tag_157\n                /* \"--CODEGEN--\":5908:5913   */\n              0x0100\n                /* \"--CODEGEN--\":5903:5906   */\n              dup7\n                /* \"--CODEGEN--\":5899:5914   */\n              add\n                /* \"--CODEGEN--\":5886:5897   */\n              dup3\n                /* \"--CODEGEN--\":5858:5915   */\n              jump(tag_126)\n            tag_157:\n                /* \"--CODEGEN--\":5769:5927   */\n              pop\n                /* \"--CODEGEN--\":6019:6024   */\n              0x0120\n                /* \"--CODEGEN--\":6012:6017   */\n              dup4\n                /* \"--CODEGEN--\":6008:6025   */\n              add\n                /* \"--CODEGEN--\":6002:6026   */\n              mload\n                /* \"--CODEGEN--\":6038:6101   */\n              tag_158\n                /* \"--CODEGEN--\":6094:6099   */\n              0x0120\n                /* \"--CODEGEN--\":6089:6092   */\n              dup7\n                /* \"--CODEGEN--\":6085:6100   */\n              add\n                /* \"--CODEGEN--\":6072:6083   */\n              dup3\n                /* \"--CODEGEN--\":6038:6101   */\n              jump(tag_156)\n            tag_158:\n                /* \"--CODEGEN--\":5937:6113   */\n              pop\n                /* \"--CODEGEN--\":6130:6134   */\n              dup1\n                /* \"--CODEGEN--\":6123:6134   */\n              swap2\n              pop\n                /* \"--CODEGEN--\":4198:6139   */\n              pop\n              swap3\n              swap2\n              pop\n              pop\n              jump\n                /* \"--CODEGEN--\":6146:6256   */\n            tag_156:\n                /* \"--CODEGEN--\":6219:6250   */\n              tag_160\n                /* \"--CODEGEN--\":6244:6249   */\n              dup2\n                /* \"--CODEGEN--\":6219:6250   */\n              jump(tag_161)\n            tag_160:\n                /* \"--CODEGEN--\":6214:6217   */\n              dup3\n                /* \"--CODEGEN--\":6207:6251   */\n              mstore\n                /* \"--CODEGEN--\":6201:6256   */\n              pop\n              pop\n              jump\n                /* \"--CODEGEN--\":6263:7656   */\n            tag_9:\n              0x00\n                /* \"--CODEGEN--\":6715:6718   */\n              0x0100\n                /* \"--CODEGEN--\":6704:6713   */\n              dup3\n                /* \"--CODEGEN--\":6700:6719   */\n              add\n                /* \"--CODEGEN--\":6692:6719   */\n              swap1\n              pop\n                /* \"--CODEGEN--\":6730:6791   */\n              tag_163\n                /* \"--CODEGEN--\":6788:6789   */\n              0x00\n                /* \"--CODEGEN--\":6777:6786   */\n              dup4\n                /* \"--CODEGEN--\":6773:6790   */\n              add\n                /* \"--CODEGEN--\":6764:6770   */\n              dup12\n                /* \"--CODEGEN--\":6730:6791   */\n              jump(tag_109)\n            tag_163:\n                /* \"--CODEGEN--\":6802:6864   */\n              tag_164\n                /* \"--CODEGEN--\":6860:6862   */\n              0x20\n                /* \"--CODEGEN--\":6849:6858   */\n              dup4\n                /* \"--CODEGEN--\":6845:6863   */\n              add\n                /* \"--CODEGEN--\":6836:6842   */\n              dup11\n                /* \"--CODEGEN--\":6802:6864   */\n              jump(tag_109)\n            tag_164:\n                /* \"--CODEGEN--\":6912:6921   */\n              dup2\n                /* \"--CODEGEN--\":6906:6910   */\n              dup2\n                /* \"--CODEGEN--\":6902:6922   */\n              sub\n                /* \"--CODEGEN--\":6897:6899   */\n              0x40\n                /* \"--CODEGEN--\":6886:6895   */\n              dup4\n                /* \"--CODEGEN--\":6882:6900   */\n              add\n                /* \"--CODEGEN--\":6875:6923   */\n              mstore\n                /* \"--CODEGEN--\":6937:7005   */\n              tag_165\n                /* \"--CODEGEN--\":7000:7004   */\n              dup2\n                /* \"--CODEGEN--\":6991:6997   */\n              dup10\n                /* \"--CODEGEN--\":6937:7005   */\n              jump(tag_134)\n            tag_165:\n                /* \"--CODEGEN--\":6929:7005   */\n              swap1\n              pop\n                /* \"--CODEGEN--\":7016:7076   */\n              tag_166\n                /* \"--CODEGEN--\":7072:7074   */\n              0x60\n                /* \"--CODEGEN--\":7061:7070   */\n              dup4\n                /* \"--CODEGEN--\":7057:7075   */\n              add\n                /* \"--CODEGEN--\":7048:7054   */\n              dup9\n                /* \"--CODEGEN--\":7016:7076   */\n              jump(tag_130)\n            tag_166:\n                /* \"--CODEGEN--\":7125:7134   */\n              dup2\n                /* \"--CODEGEN--\":7119:7123   */\n              dup2\n                /* \"--CODEGEN--\":7115:7135   */\n              sub\n                /* \"--CODEGEN--\":7109:7112   */\n              0x80\n                /* \"--CODEGEN--\":7098:7107   */\n              dup4\n                /* \"--CODEGEN--\":7094:7113   */\n              add\n                /* \"--CODEGEN--\":7087:7136   */\n              mstore\n                /* \"--CODEGEN--\":7150:7218   */\n              tag_167\n                /* \"--CODEGEN--\":7213:7217   */\n              dup2\n                /* \"--CODEGEN--\":7204:7210   */\n              dup8\n                /* \"--CODEGEN--\":7150:7218   */\n              jump(tag_134)\n            tag_167:\n                /* \"--CODEGEN--\":7142:7218   */\n              swap1\n              pop\n                /* \"--CODEGEN--\":7267:7276   */\n              dup2\n                /* \"--CODEGEN--\":7261:7265   */\n              dup2\n                /* \"--CODEGEN--\":7257:7277   */\n              sub\n                /* \"--CODEGEN--\":7251:7254   */\n              0xa0\n                /* \"--CODEGEN--\":7240:7249   */\n              dup4\n                /* \"--CODEGEN--\":7236:7255   */\n              add\n                /* \"--CODEGEN--\":7229:7278   */\n              mstore\n                /* \"--CODEGEN--\":7292:7360   */\n              tag_168\n                /* \"--CODEGEN--\":7355:7359   */\n              dup2\n                /* \"--CODEGEN--\":7346:7352   */\n              dup7\n                /* \"--CODEGEN--\":7292:7360   */\n              jump(tag_134)\n            tag_168:\n                /* \"--CODEGEN--\":7284:7360   */\n              swap1\n              pop\n                /* \"--CODEGEN--\":7371:7432   */\n              tag_169\n                /* \"--CODEGEN--\":7427:7430   */\n              0xc0\n                /* \"--CODEGEN--\":7416:7425   */\n              dup4\n                /* \"--CODEGEN--\":7412:7431   */\n              add\n                /* \"--CODEGEN--\":7403:7409   */\n              dup6\n                /* \"--CODEGEN--\":7371:7432   */\n              jump(tag_130)\n            tag_169:\n                /* \"--CODEGEN--\":7481:7490   */\n              dup2\n                /* \"--CODEGEN--\":7475:7479   */\n              dup2\n                /* \"--CODEGEN--\":7471:7491   */\n              sub\n                /* \"--CODEGEN--\":7465:7468   */\n              0xe0\n                /* \"--CODEGEN--\":7454:7463   */\n              dup4\n                /* \"--CODEGEN--\":7450:7469   */\n              add\n                /* \"--CODEGEN--\":7443:7492   */\n              mstore\n                /* \"--CODEGEN--\":7506:7646   */\n              tag_170\n                /* \"--CODEGEN--\":7641:7645   */\n              dup2\n                /* \"--CODEGEN--\":7632:7638   */\n              dup5\n                /* \"--CODEGEN--\":7506:7646   */\n              jump(tag_113)\n            tag_170:\n                /* \"--CODEGEN--\":7498:7646   */\n              swap1\n              pop\n                /* \"--CODEGEN--\":6686:7656   */\n              swap10\n              swap9\n              pop\n              pop\n              pop\n              pop\n              pop\n              pop\n              pop\n              pop\n              pop\n              jump\n                /* \"--CODEGEN--\":7663:8808   */\n            tag_61:\n              0x00\n                /* \"--CODEGEN--\":8015:8018   */\n              0x0100\n                /* \"--CODEGEN--\":8004:8013   */\n              dup3\n                /* \"--CODEGEN--\":8000:8019   */\n              add\n                /* \"--CODEGEN--\":7992:8019   */\n              swap1\n              pop\n                /* \"--CODEGEN--\":8030:8091   */\n              tag_172\n                /* \"--CODEGEN--\":8088:8089   */\n              0x00\n                /* \"--CODEGEN--\":8077:8086   */\n              dup4\n                /* \"--CODEGEN--\":8073:8090   */\n              add\n                /* \"--CODEGEN--\":8064:8070   */\n              dup12\n                /* \"--CODEGEN--\":8030:8091   */\n              jump(tag_109)\n            tag_172:\n                /* \"--CODEGEN--\":8102:8164   */\n              tag_173\n                /* \"--CODEGEN--\":8160:8162   */\n              0x20\n                /* \"--CODEGEN--\":8149:8158   */\n              dup4\n                /* \"--CODEGEN--\":8145:8163   */\n              add\n                /* \"--CODEGEN--\":8136:8142   */\n              dup11\n                /* \"--CODEGEN--\":8102:8164   */\n              jump(tag_109)\n            tag_173:\n                /* \"--CODEGEN--\":8212:8221   */\n              dup2\n                /* \"--CODEGEN--\":8206:8210   */\n              dup2\n                /* \"--CODEGEN--\":8202:8222   */\n              sub\n                /* \"--CODEGEN--\":8197:8199   */\n              0x40\n                /* \"--CODEGEN--\":8186:8195   */\n              dup4\n                /* \"--CODEGEN--\":8182:8200   */\n              add\n                /* \"--CODEGEN--\":8175:8223   */\n              mstore\n                /* \"--CODEGEN--\":8237:8305   */\n              tag_174\n                /* \"--CODEGEN--\":8300:8304   */\n              dup2\n                /* \"--CODEGEN--\":8291:8297   */\n              dup10\n                /* \"--CODEGEN--\":8237:8305   */\n              jump(tag_134)\n            tag_174:\n                /* \"--CODEGEN--\":8229:8305   */\n              swap1\n              pop\n                /* \"--CODEGEN--\":8353:8362   */\n              dup2\n                /* \"--CODEGEN--\":8347:8351   */\n              dup2\n                /* \"--CODEGEN--\":8343:8363   */\n              sub\n                /* \"--CODEGEN--\":8338:8340   */\n              0x60\n                /* \"--CODEGEN--\":8327:8336   */\n              dup4\n                /* \"--CODEGEN--\":8323:8341   */\n              add\n                /* \"--CODEGEN--\":8316:8364   */\n              mstore\n                /* \"--CODEGEN--\":8378:8446   */\n              tag_175\n                /* \"--CODEGEN--\":8441:8445   */\n              dup2\n                /* \"--CODEGEN--\":8432:8438   */\n              dup9\n                /* \"--CODEGEN--\":8378:8446   */\n              jump(tag_134)\n            tag_175:\n                /* \"--CODEGEN--\":8370:8446   */\n              swap1\n              pop\n                /* \"--CODEGEN--\":8495:8504   */\n              dup2\n                /* \"--CODEGEN--\":8489:8493   */\n              dup2\n                /* \"--CODEGEN--\":8485:8505   */\n              sub\n                /* \"--CODEGEN--\":8479:8482   */\n              0x80\n                /* \"--CODEGEN--\":8468:8477   */\n              dup4\n                /* \"--CODEGEN--\":8464:8483   */\n              add\n                /* \"--CODEGEN--\":8457:8506   */\n              mstore\n                /* \"--CODEGEN--\":8520:8588   */\n              tag_176\n                /* \"--CODEGEN--\":8583:8587   */\n              dup2\n                /* \"--CODEGEN--\":8574:8580   */\n              dup8\n                /* \"--CODEGEN--\":8520:8588   */\n              jump(tag_134)\n            tag_176:\n                /* \"--CODEGEN--\":8512:8588   */\n              swap1\n              pop\n                /* \"--CODEGEN--\":8599:8656   */\n              tag_177\n                /* \"--CODEGEN--\":8651:8654   */\n              0xa0\n                /* \"--CODEGEN--\":8640:8649   */\n              dup4\n                /* \"--CODEGEN--\":8636:8655   */\n              add\n                /* \"--CODEGEN--\":8627:8633   */\n              dup7\n                /* \"--CODEGEN--\":8599:8656   */\n              jump(tag_126)\n            tag_177:\n                /* \"--CODEGEN--\":8667:8724   */\n              tag_178\n                /* \"--CODEGEN--\":8719:8722   */\n              0xc0\n                /* \"--CODEGEN--\":8708:8717   */\n              dup4\n                /* \"--CODEGEN--\":8704:8723   */\n              add\n                /* \"--CODEGEN--\":8695:8701   */\n              dup6\n                /* \"--CODEGEN--\":8667:8724   */\n              jump(tag_126)\n            tag_178:\n                /* \"--CODEGEN--\":8735:8798   */\n              tag_179\n                /* \"--CODEGEN--\":8793:8796   */\n              0xe0\n                /* \"--CODEGEN--\":8782:8791   */\n              dup4\n                /* \"--CODEGEN--\":8778:8797   */\n              add\n                /* \"--CODEGEN--\":8769:8775   */\n              dup5\n                /* \"--CODEGEN--\":8735:8798   */\n              jump(tag_156)\n            tag_179:\n                /* \"--CODEGEN--\":7986:8808   */\n              swap10\n              swap9\n              pop\n              pop\n              pop\n              pop\n              pop\n              pop\n              pop\n              pop\n              pop\n              jump\n                /* \"--CODEGEN--\":8815:9071   */\n            tag_87:\n              0x00\n                /* \"--CODEGEN--\":8877:8879   */\n              0x40\n                /* \"--CODEGEN--\":8871:8880   */\n              mload\n                /* \"--CODEGEN--\":8861:8880   */\n              swap1\n              pop\n                /* \"--CODEGEN--\":8915:8919   */\n              dup2\n                /* \"--CODEGEN--\":8907:8913   */\n              dup2\n                /* \"--CODEGEN--\":8903:8920   */\n              add\n                /* \"--CODEGEN--\":9014:9020   */\n              dup2\n                /* \"--CODEGEN--\":9002:9012   */\n              dup2\n                /* \"--CODEGEN--\":8999:9021   */\n              lt\n                /* \"--CODEGEN--\":8978:8996   */\n              0xffffffffffffffff\n                /* \"--CODEGEN--\":8966:8976   */\n              dup3\n                /* \"--CODEGEN--\":8963:8997   */\n              gt\n                /* \"--CODEGEN--\":8960:9022   */\n              or\n                /* \"--CODEGEN--\":8957:8959   */\n              iszero\n              tag_181\n              jumpi\n                /* \"--CODEGEN--\":9035:9036   */\n              0x00\n                /* \"--CODEGEN--\":9032:9033   */\n              dup1\n                /* \"--CODEGEN--\":9025:9037   */\n              revert\n                /* \"--CODEGEN--\":8957:8959   */\n            tag_181:\n                /* \"--CODEGEN--\":9055:9065   */\n              dup1\n                /* \"--CODEGEN--\":9051:9053   */\n              0x40\n                /* \"--CODEGEN--\":9044:9066   */\n              mstore\n                /* \"--CODEGEN--\":8855:9071   */\n              pop\n              swap2\n              swap1\n              pop\n              jump\n                /* \"--CODEGEN--\":9078:9337   */\n            tag_86:\n              0x00\n                /* \"--CODEGEN--\":9222:9240   */\n              0xffffffffffffffff\n                /* \"--CODEGEN--\":9214:9220   */\n              dup3\n                /* \"--CODEGEN--\":9211:9241   */\n              gt\n                /* \"--CODEGEN--\":9208:9210   */\n              iszero\n              tag_183\n              jumpi\n                /* \"--CODEGEN--\":9254:9255   */\n              0x00\n                /* \"--CODEGEN--\":9251:9252   */\n              dup1\n                /* \"--CODEGEN--\":9244:9256   */\n              revert\n                /* \"--CODEGEN--\":9208:9210   */\n            tag_183:\n                /* \"--CODEGEN--\":9298:9302   */\n              0x1f\n                /* \"--CODEGEN--\":9294:9303   */\n              not\n                /* \"--CODEGEN--\":9287:9291   */\n              0x1f\n                /* \"--CODEGEN--\":9279:9285   */\n              dup4\n                /* \"--CODEGEN--\":9275:9292   */\n              add\n                /* \"--CODEGEN--\":9271:9304   */\n              and\n                /* \"--CODEGEN--\":9263:9304   */\n              swap1\n              pop\n                /* \"--CODEGEN--\":9327:9331   */\n              0x20\n                /* \"--CODEGEN--\":9321:9325   */\n              dup2\n                /* \"--CODEGEN--\":9317:9332   */\n              add\n                /* \"--CODEGEN--\":9309:9332   */\n              swap1\n              pop\n                /* \"--CODEGEN--\":9145:9337   */\n              swap2\n              swap1\n              pop\n              jump\n                /* \"--CODEGEN--\":9346:9488   */\n            tag_117:\n              0x00\n                /* \"--CODEGEN--\":9476:9480   */\n              0x20\n                /* \"--CODEGEN--\":9468:9474   */\n              dup3\n                /* \"--CODEGEN--\":9464:9481   */\n              add\n                /* \"--CODEGEN--\":9453:9481   */\n              swap1\n              pop\n                /* \"--CODEGEN--\":9445:9488   */\n              swap2\n              swap1\n              pop\n              jump\n                /* \"--CODEGEN--\":9497:9625   */\n            tag_115:\n              0x00\n                /* \"--CODEGEN--\":9614:9619   */\n              dup2\n                /* \"--CODEGEN--\":9608:9620   */\n              mload\n                /* \"--CODEGEN--\":9598:9620   */\n              swap1\n              pop\n                /* \"--CODEGEN--\":9592:9625   */\n              swap2\n              swap1\n              pop\n              jump\n                /* \"--CODEGEN--\":9632:9720   */\n            tag_144:\n              0x00\n                /* \"--CODEGEN--\":9709:9714   */\n              dup2\n                /* \"--CODEGEN--\":9703:9715   */\n              mload\n                /* \"--CODEGEN--\":9693:9715   */\n              swap1\n              pop\n                /* \"--CODEGEN--\":9687:9720   */\n              swap2\n              swap1\n              pop\n              jump\n                /* \"--CODEGEN--\":9727:9819   */\n            tag_136:\n              0x00\n                /* \"--CODEGEN--\":9808:9813   */\n              dup2\n                /* \"--CODEGEN--\":9802:9814   */\n              mload\n                /* \"--CODEGEN--\":9792:9814   */\n              swap1\n              pop\n                /* \"--CODEGEN--\":9786:9819   */\n              swap2\n              swap1\n              pop\n              jump\n                /* \"--CODEGEN--\":9827:9970   */\n            tag_124:\n              0x00\n                /* \"--CODEGEN--\":9959:9963   */\n              0x20\n                /* \"--CODEGEN--\":9951:9957   */\n              dup3\n                /* \"--CODEGEN--\":9947:9964   */\n              add\n                /* \"--CODEGEN--\":9936:9964   */\n              swap1\n              pop\n                /* \"--CODEGEN--\":9929:9970   */\n              swap2\n              swap1\n              pop\n              jump\n                /* \"--CODEGEN--\":9978:10083   */\n            tag_111:\n              0x00\n                /* \"--CODEGEN--\":10047:10078   */\n              tag_190\n                /* \"--CODEGEN--\":10072:10077   */\n              dup3\n                /* \"--CODEGEN--\":10047:10078   */\n              jump(tag_191)\n            tag_190:\n                /* \"--CODEGEN--\":10036:10078   */\n              swap1\n              pop\n                /* \"--CODEGEN--\":10030:10083   */\n              swap2\n              swap1\n              pop\n              jump\n                /* \"--CODEGEN--\":10090:10182   */\n            tag_128:\n              0x00\n                /* \"--CODEGEN--\":10170:10175   */\n              dup2\n                /* \"--CODEGEN--\":10163:10176   */\n              iszero\n                /* \"--CODEGEN--\":10156:10177   */\n              iszero\n                /* \"--CODEGEN--\":10145:10177   */\n              swap1\n              pop\n                /* \"--CODEGEN--\":10139:10182   */\n              swap2\n              swap1\n              pop\n              jump\n                /* \"--CODEGEN--\":10189:10267   */\n            tag_132:\n              0x00\n                /* \"--CODEGEN--\":10257:10262   */\n              dup2\n                /* \"--CODEGEN--\":10246:10262   */\n              swap1\n              pop\n                /* \"--CODEGEN--\":10240:10267   */\n              swap2\n              swap1\n              pop\n              jump\n                /* \"--CODEGEN--\":10274:10402   */\n            tag_191:\n              0x00\n                /* \"--CODEGEN--\":10354:10396   */\n              0xffffffffffffffffffffffffffffffffffffffff\n                /* \"--CODEGEN--\":10347:10352   */\n              dup3\n                /* \"--CODEGEN--\":10343:10397   */\n              and\n                /* \"--CODEGEN--\":10332:10397   */\n              swap1\n              pop\n                /* \"--CODEGEN--\":10326:10402   */\n              swap2\n              swap1\n              pop\n              jump\n                /* \"--CODEGEN--\":10409:10488   */\n            tag_161:\n              0x00\n                /* \"--CODEGEN--\":10478:10483   */\n              dup2\n                /* \"--CODEGEN--\":10467:10483   */\n              swap1\n              pop\n                /* \"--CODEGEN--\":10461:10488   */\n              swap2\n              swap1\n              pop\n              jump\n                /* \"--CODEGEN--\":10495:10600   */\n            tag_76:\n              0x00\n                /* \"--CODEGEN--\":10564:10595   */\n              tag_197\n                /* \"--CODEGEN--\":10589:10594   */\n              dup3\n                /* \"--CODEGEN--\":10564:10595   */\n              jump(tag_191)\n            tag_197:\n                /* \"--CODEGEN--\":10553:10595   */\n              swap1\n              pop\n                /* \"--CODEGEN--\":10547:10600   */\n              swap2\n              swap1\n              pop\n              jump\n                /* \"--CODEGEN--\":10607:10699   */\n            tag_80:\n              0x00\n                /* \"--CODEGEN--\":10687:10692   */\n              dup2\n                /* \"--CODEGEN--\":10680:10693   */\n              iszero\n                /* \"--CODEGEN--\":10673:10694   */\n              iszero\n                /* \"--CODEGEN--\":10662:10694   */\n              swap1\n              pop\n                /* \"--CODEGEN--\":10656:10699   */\n              swap2\n              swap1\n              pop\n              jump\n                /* \"--CODEGEN--\":10706:10785   */\n            tag_94:\n              0x00\n                /* \"--CODEGEN--\":10775:10780   */\n              dup2\n                /* \"--CODEGEN--\":10764:10780   */\n              swap1\n              pop\n                /* \"--CODEGEN--\":10758:10785   */\n              swap2\n              swap1\n              pop\n              jump\n                /* \"--CODEGEN--\":10793:10938   */\n            tag_90:\n                /* \"--CODEGEN--\":10874:10880   */\n              dup3\n                /* \"--CODEGEN--\":10869:10872   */\n              dup2\n                /* \"--CODEGEN--\":10864:10867   */\n              dup4\n                /* \"--CODEGEN--\":10851:10881   */\n              calldatacopy\n                /* \"--CODEGEN--\":10930:10931   */\n              0x00\n                /* \"--CODEGEN--\":10921:10927   */\n              dup4\n                /* \"--CODEGEN--\":10916:10919   */\n              dup4\n                /* \"--CODEGEN--\":10912:10928   */\n              add\n                /* \"--CODEGEN--\":10905:10932   */\n              mstore\n                /* \"--CODEGEN--\":10844:10938   */\n              pop\n              pop\n              pop\n              jump\n                /* \"--CODEGEN--\":10947:11215   */\n            tag_138:\n                /* \"--CODEGEN--\":11012:11013   */\n              0x00\n                /* \"--CODEGEN--\":11019:11120   */\n            tag_202:\n                /* \"--CODEGEN--\":11033:11039   */\n              dup4\n                /* \"--CODEGEN--\":11030:11031   */\n              dup2\n                /* \"--CODEGEN--\":11027:11040   */\n              lt\n                /* \"--CODEGEN--\":11019:11120   */\n              iszero\n              tag_203\n              jumpi\n                /* \"--CODEGEN--\":11109:11110   */\n              dup1\n                /* \"--CODEGEN--\":11104:11107   */\n              dup3\n                /* \"--CODEGEN--\":11100:11111   */\n              add\n                /* \"--CODEGEN--\":11094:11112   */\n              mload\n                /* \"--CODEGEN--\":11090:11091   */\n              dup2\n                /* \"--CODEGEN--\":11085:11088   */\n              dup5\n                /* \"--CODEGEN--\":11081:11092   */\n              add\n                /* \"--CODEGEN--\":11074:11113   */\n              mstore\n                /* \"--CODEGEN--\":11055:11057   */\n              0x20\n                /* \"--CODEGEN--\":11052:11053   */\n              dup2\n                /* \"--CODEGEN--\":11048:11058   */\n              add\n                /* \"--CODEGEN--\":11043:11058   */\n              swap1\n              pop\n                /* \"--CODEGEN--\":11019:11120   */\n              jump(tag_202)\n            tag_203:\n                /* \"--CODEGEN--\":11135:11141   */\n              dup4\n                /* \"--CODEGEN--\":11132:11133   */\n              dup2\n                /* \"--CODEGEN--\":11129:11142   */\n              gt\n                /* \"--CODEGEN--\":11126:11128   */\n              iszero\n              tag_205\n              jumpi\n                /* \"--CODEGEN--\":11200:11201   */\n              0x00\n                /* \"--CODEGEN--\":11191:11197   */\n              dup5\n                /* \"--CODEGEN--\":11186:11189   */\n              dup5\n                /* \"--CODEGEN--\":11182:11198   */\n              add\n                /* \"--CODEGEN--\":11175:11202   */\n              mstore\n                /* \"--CODEGEN--\":11126:11128   */\n            tag_205:\n                /* \"--CODEGEN--\":10996:11215   */\n              pop\n              pop\n              pop\n              pop\n              jump\n                /* \"--CODEGEN--\":11223:11320   */\n            tag_140:\n              0x00\n                /* \"--CODEGEN--\":11311:11313   */\n              0x1f\n                /* \"--CODEGEN--\":11307:11314   */\n              not\n                /* \"--CODEGEN--\":11302:11304   */\n              0x1f\n                /* \"--CODEGEN--\":11295:11300   */\n              dup4\n                /* \"--CODEGEN--\":11291:11305   */\n              add\n                /* \"--CODEGEN--\":11287:11315   */\n              and\n                /* \"--CODEGEN--\":11277:11315   */\n              swap1\n              pop\n                /* \"--CODEGEN--\":11271:11320   */\n              swap2\n              swap1\n              pop\n              jump\n\n            auxdata: 0xa265627a7a72305820b5956848fe2ca68be3218ed4e8be93b5df07f306e7ad3a37d4500d845a4c21716c6578706572696d656e74616cf50037\n        }\n    }\n\n    auxdata: 0xa265627a7a72305820e18504903fd1b3a7d3042f7fddef2612af5fe7788600da1666991035ff22827f6c6578706572696d656e74616cf50037\n}\n",
    "bytecode": {
      "linkReferences": {},
      "object": "60806040527fffffffffffffffffffffffffffffffffffffffffffffffffffffffffffffffff6007553480156200003557600080fd5b50604051620042d4380380620042d483398101806040526200005b9190810190620001e0565b80600160006101000a81548173ffffffffffffffffffffffffffffffffffffffff021916908373ffffffffffffffffffffffffffffffffffffffff1602179055508160009080519060200190620000b4929190620000bd565b505050620002ff565b828054600181600116156101000203166002900490600052602060002090601f016020900481019282601f106200010057805160ff191683800117855562000131565b8280016001018555821562000131579182015b828111156200013057825182559160200191906001019062000113565b5b50905062000140919062000144565b5090565b6200016991905b80821115620001655760008160009055506001016200014b565b5090565b90565b60006200017a8251620002b5565b905092915050565b600082601f83011215156200019657600080fd5b8151620001ad620001a78262000268565b6200023a565b91508082526020830160208301858383011115620001ca57600080fd5b620001d7838284620002c9565b50505092915050565b60008060408385031215620001f457600080fd5b600083015167ffffffffffffffff8111156200020f57600080fd5b6200021d8582860162000182565b925050602062000230858286016200016c565b9150509250929050565b6000604051905081810181811067ffffffffffffffff821117156200025e57600080fd5b8060405250919050565b600067ffffffffffffffff8211156200028057600080fd5b601f19601f8301169050602081019050919050565b600073ffffffffffffffffffffffffffffffffffffffff82169050919050565b6000620002c28262000295565b9050919050565b60005b83811015620002e9578082015181840152602081019050620002cc565b83811115620002f9576000848401525b50505050565b613fc5806200030f6000396000f3fe60806040523480156200001157600080fd5b506004361062000087576000357c010000000000000000000000000000000000000000000000000000000090048063271eec7a146200008c5780637ec35b0a14620000ac5780639b6b309a14620000e25780639d55295c1462000102578063ae55c8881462000122578063d15540d81462000160575b600080fd5b620000aa6004803603620000a491908101906200200d565b62000180565b005b620000ca6004803603620000c4919081019062002173565b62000299565b604051620000d99190620025eb565b60405180910390f35b620001006004803603620000fa919081019062002065565b620003aa565b005b6200012060048036036200011a919081019062002299565b62000608565b005b6200014060048036036200013a919081019062002173565b62000e33565b604051620001579998979695949392919062002608565b60405180910390f35b6200017e6004803603620001789190810190620021b8565b62001a01565b005b600160009054906101000a900473ffffffffffffffffffffffffffffffffffffffff1673ffffffffffffffffffffffffffffffffffffffff163373ffffffffffffffffffffffffffffffffffffffff161415620002965760058190806001815401808255809150509060018203906000526020600020016000909192909190916101000a81548173ffffffffffffffffffffffffffffffffffffffff021916908373ffffffffffffffffffffffffffffffffffffffff160217905550506001600660008373ffffffffffffffffffffffffffffffffffffffff1673ffffffffffffffffffffffffffffffffffffffff16815260200190815260200160002060006101000a81548160ff0219169083151502179055505b50565b6000806040516020018082805460018160011615610100020316600290048015620002fe5780601f10620002db576101008083540402835291820191620002fe565b820191906000526020600020905b815481529060010190602001808311620002e9575b505091505060405160208183030381529060405280519060200120826040516020018082805190602001908083835b6020831015156200035457805182526020820191506020810190506020830392506200032d565b6001836020036101000a038019825116818451168082178552505050505050905001915050604051602081830303815290604052805190602001201415620003a05760019050620003a5565b600090505b919050565b600660008873ffffffffffffffffffffffffffffffffffffffff1673ffffffffffffffffffffffffffffffffffffffff16815260200190815260200160002060009054906101000a900460ff1615620005fe576200040762001cad565b610120604051908101604052808a73ffffffffffffffffffffffffffffffffffffffff1681526020018973ffffffffffffffffffffffffffffffffffffffff1681526020018881526020018781526020018515158152602001841515815260200186815260200183815260200160016007540181525090506002819080600181540180825580915050906001820390600052602060002090600802016000909192909190915060008201518160000160006101000a81548173ffffffffffffffffffffffffffffffffffffffff021916908373ffffffffffffffffffffffffffffffffffffffff16021790555060208201518160010160006101000a81548173ffffffffffffffffffffffffffffffffffffffff021916908373ffffffffffffffffffffffffffffffffffffffff16021790555060408201518160020190805190602001906200055992919062001d2a565b5060608201518160030190805190602001906200057892919062001d2a565b5060808201518160040160006101000a81548160ff02191690831515021790555060a08201518160040160016101000a81548160ff02191690831515021790555060c0820151816005019080519060200190620005d792919062001d2a565b5060e082015181600601556101008201518160070155505050600160075401600781905550505b5050505050505050565b600160009054906101000a900473ffffffffffffffffffffffffffffffffffffffff1673ffffffffffffffffffffffffffffffffffffffff163373ffffffffffffffffffffffffffffffffffffffff16141562000e2f5760011515811515141562000a505760006002838154811015156200067f57fe5b906000526020600020906008020160010160009054906101000a900473ffffffffffffffffffffffffffffffffffffffff1690508073ffffffffffffffffffffffffffffffffffffffff166372102d18600285815481101515620006df57fe5b9060005260206000209060080201600601543360016040518463ffffffff167c01000000000000000000000000000000000000000000000000000000000281526004016200073093929190620026f0565b600060405180830381600087803b1580156200074b57600080fd5b505af115801562000760573d6000803e3d6000fd5b5050505060036002848154811015156200077657fe5b9060005260206000209060080201908060018154018082558091505090600182039060005260206000209060080201600090919290919091506000820160009054906101000a900473ffffffffffffffffffffffffffffffffffffffff168160000160006101000a81548173ffffffffffffffffffffffffffffffffffffffff021916908373ffffffffffffffffffffffffffffffffffffffff1602179055506001820160009054906101000a900473ffffffffffffffffffffffffffffffffffffffff168160010160006101000a81548173ffffffffffffffffffffffffffffffffffffffff021916908373ffffffffffffffffffffffffffffffffffffffff16021790555060028201816002019080546001816001161561010002031660029004620008a692919062001db1565b5060038201816003019080546001816001161561010002031660029004620008d092919062001db1565b506004820160009054906101000a900460ff168160040160006101000a81548160ff0219169083151502179055506004820160019054906101000a900460ff168160040160016101000a81548160ff021916908315150217905550600582018160050190805460018160011615610100020316600290046200095492919062001db1565b5060068201548160060155600782015481600701555050506002838154811015156200097c57fe5b9060005260206000209060080201600080820160006101000a81549073ffffffffffffffffffffffffffffffffffffffff02191690556001820160006101000a81549073ffffffffffffffffffffffffffffffffffffffff0219169055600282016000620009eb919062001e3f565b600382016000620009fd919062001e3f565b6004820160006101000a81549060ff02191690556004820160016101000a81549060ff021916905560058201600062000a37919062001e3f565b6006820160009055600782016000905550505062000e2e565b600060028381548110151562000a6257fe5b906000526020600020906008020160010160009054906101000a900473ffffffffffffffffffffffffffffffffffffffff1690508073ffffffffffffffffffffffffffffffffffffffff166372102d1860028581548110151562000ac257fe5b9060005260206000209060080201600601543360006040518463ffffffff167c010000000000000000000000000000000000000000000000000000000002815260040162000b1393929190620026f0565b600060405180830381600087803b15801562000b2e57600080fd5b505af115801562000b43573d6000803e3d6000fd5b50505050600460028481548110151562000b5957fe5b9060005260206000209060080201908060018154018082558091505090600182039060005260206000209060080201600090919290919091506000820160009054906101000a900473ffffffffffffffffffffffffffffffffffffffff168160000160006101000a81548173ffffffffffffffffffffffffffffffffffffffff021916908373ffffffffffffffffffffffffffffffffffffffff1602179055506001820160009054906101000a900473ffffffffffffffffffffffffffffffffffffffff168160010160006101000a81548173ffffffffffffffffffffffffffffffffffffffff021916908373ffffffffffffffffffffffffffffffffffffffff1602179055506002820181600201908054600181600116156101000203166002900462000c8992919062001db1565b506003820181600301908054600181600116156101000203166002900462000cb392919062001db1565b506004820160009054906101000a900460ff168160040160006101000a81548160ff0219169083151502179055506004820160019054906101000a900460ff168160040160016101000a81548160ff0219169083151502179055506005820181600501908054600181600116156101000203166002900462000d3792919062001db1565b50600682015481600601556007820154816007015550505060028381548110151562000d5f57fe5b9060005260206000209060080201600080820160006101000a81549073ffffffffffffffffffffffffffffffffffffffff02191690556001820160006101000a81549073ffffffffffffffffffffffffffffffffffffffff021916905560028201600062000dce919062001e3f565b60038201600062000de0919062001e3f565b6004820160006101000a81549060ff02191690556004820160016101000a81549060ff021916905560058201600062000e1a919062001e3f565b600682016000905560078201600090555050505b5b5050565b6000806000806000606080606080600160009054906101000a900473ffffffffffffffffffffffffffffffffffffffff1673ffffffffffffffffffffffffffffffffffffffff163373ffffffffffffffffffffffffffffffffffffffff1614801562000ea6575062000ea58a62000299565b5b156200194d576001600580549050600480549050600380549050600280549050030360038054905060048054905060056002600360048380548060200260200160405190810160405280929190818152602001828054801562000f5f57602002820191906000526020600020905b8160009054906101000a900473ffffffffffffffffffffffffffffffffffffffff1673ffffffffffffffffffffffffffffffffffffffff168152602001906001019080831162000f14575b5050505050935082805480602002602001604051908101604052809291908181526020016000905b82821015620012a5578382906000526020600020906008020161012060405190810160405290816000820160009054906101000a900473ffffffffffffffffffffffffffffffffffffffff1673ffffffffffffffffffffffffffffffffffffffff1673ffffffffffffffffffffffffffffffffffffffff1681526020016001820160009054906101000a900473ffffffffffffffffffffffffffffffffffffffff1673ffffffffffffffffffffffffffffffffffffffff1673ffffffffffffffffffffffffffffffffffffffff168152602001600282018054600181600116156101000203166002900480601f016020809104026020016040519081016040528092919081815260200182805460018160011615610100020316600290048015620010f65780601f10620010ca57610100808354040283529160200191620010f6565b820191906000526020600020905b815481529060010190602001808311620010d857829003601f168201915b50505050508152602001600382018054600181600116156101000203166002900480601f0160208091040260200160405190810160405280929190818152602001828054600181600116156101000203166002900480156200119c5780601f1062001170576101008083540402835291602001916200119c565b820191906000526020600020905b8154815290600101906020018083116200117e57829003601f168201915b505050505081526020016004820160009054906101000a900460ff161515151581526020016004820160019054906101000a900460ff16151515158152602001600582018054600181600116156101000203166002900480601f016020809104026020016040519081016040528092919081815260200182805460018160011615610100020316600290048015620012785780601f106200124c5761010080835404028352916020019162001278565b820191906000526020600020905b8154815290600101906020018083116200125a57829003601f168201915b50505050508152602001600682015481526020016007820154815250508152602001906001019062000f87565b50505050925081805480602002602001604051908101604052809291908181526020016000905b82821015620015ea578382906000526020600020906008020161012060405190810160405290816000820160009054906101000a900473ffffffffffffffffffffffffffffffffffffffff1673ffffffffffffffffffffffffffffffffffffffff1673ffffffffffffffffffffffffffffffffffffffff1681526020016001820160009054906101000a900473ffffffffffffffffffffffffffffffffffffffff1673ffffffffffffffffffffffffffffffffffffffff1673ffffffffffffffffffffffffffffffffffffffff168152602001600282018054600181600116156101000203166002900480601f0160208091040260200160405190810160405280929190818152602001828054600181600116156101000203166002900480156200143b5780601f106200140f576101008083540402835291602001916200143b565b820191906000526020600020905b8154815290600101906020018083116200141d57829003601f168201915b50505050508152602001600382018054600181600116156101000203166002900480601f016020809104026020016040519081016040528092919081815260200182805460018160011615610100020316600290048015620014e15780601f10620014b557610100808354040283529160200191620014e1565b820191906000526020600020905b815481529060010190602001808311620014c357829003601f168201915b505050505081526020016004820160009054906101000a900460ff161515151581526020016004820160019054906101000a900460ff16151515158152602001600582018054600181600116156101000203166002900480601f016020809104026020016040519081016040528092919081815260200182805460018160011615610100020316600290048015620015bd5780601f106200159157610100808354040283529160200191620015bd565b820191906000526020600020905b8154815290600101906020018083116200159f57829003601f168201915b505050505081526020016006820154815260200160078201548152505081526020019060010190620012cc565b50505050915080805480602002602001604051908101604052809291908181526020016000905b828210156200192f578382906000526020600020906008020161012060405190810160405290816000820160009054906101000a900473ffffffffffffffffffffffffffffffffffffffff1673ffffffffffffffffffffffffffffffffffffffff1673ffffffffffffffffffffffffffffffffffffffff1681526020016001820160009054906101000a900473ffffffffffffffffffffffffffffffffffffffff1673ffffffffffffffffffffffffffffffffffffffff1673ffffffffffffffffffffffffffffffffffffffff168152602001600282018054600181600116156101000203166002900480601f016020809104026020016040519081016040528092919081815260200182805460018160011615610100020316600290048015620017805780601f10620017545761010080835404028352916020019162001780565b820191906000526020600020905b8154815290600101906020018083116200176257829003601f168201915b50505050508152602001600382018054600181600116156101000203166002900480601f016020809104026020016040519081016040528092919081815260200182805460018160011615610100020316600290048015620018265780601f10620017fa5761010080835404028352916020019162001826565b820191906000526020600020905b8154815290600101906020018083116200180857829003601f168201915b505050505081526020016004820160009054906101000a900460ff161515151581526020016004820160019054906101000a900460ff16151515158152602001600582018054600181600116156101000203166002900480601f016020809104026020016040519081016040528092919081815260200182805460018160011615610100020316600290048015620019025780601f10620018d65761010080835404028352916020019162001902565b820191906000526020600020905b815481529060010190602001808311620018e457829003601f168201915b50505050508152602001600682015481526020016007820154815250508152602001906001019062001611565b505050509050985098509850985098509850985098509850620019f4565b60606001604051908082528060200260200182016040528015620019805781602001602082028038833980820191505090505b50905060606001604051908082528060200260200182016040528015620019c457816020015b620019b062001e8b565b815260200190600190039081620019a65790505b5090506000806000806000868687888797508696508595508494509a509a509a509a509a509a509a509a509a5050505b9193959799909294969850565b600160009054906101000a900473ffffffffffffffffffffffffffffffffffffffff1673ffffffffffffffffffffffffffffffffffffffff163373ffffffffffffffffffffffffffffffffffffffff16141562001ca557600030878787878762001a6a62001f08565b62001a7b9695949392919062002569565b604051809103906000f08015801562001a98573d6000803e3d6000fd5b50905060058190806001815401808255809150509060018203906000526020600020016000909192909190916101000a81548173ffffffffffffffffffffffffffffffffffffffff021916908373ffffffffffffffffffffffffffffffffffffffff160217905550506001600660008373ffffffffffffffffffffffffffffffffffffffff1673ffffffffffffffffffffffffffffffffffffffff16815260200190815260200160002060006101000a81548160ff021916908315150217905550600073d8693bafba8a45be8dfd090fa032ab4e5e8a504c905060008173ffffffffffffffffffffffffffffffffffffffff1663de96b8516040518163ffffffff167c010000000000000000000000000000000000000000000000000000000002815260040160206040518083038186803b15801562001bd757600080fd5b505afa15801562001bec573d6000803e3d6000fd5b505050506040513d601f19601f8201168201806040525062001c12919081019062002039565b90508073ffffffffffffffffffffffffffffffffffffffff1663186dd4f185856040518363ffffffff167c010000000000000000000000000000000000000000000000000000000002815260040162001c6d929190620026c3565b600060405180830381600087803b15801562001c8857600080fd5b505af115801562001c9d573d6000803e3d6000fd5b505050505050505b505050505050565b61012060405190810160405280600073ffffffffffffffffffffffffffffffffffffffff168152602001600073ffffffffffffffffffffffffffffffffffffffff16815260200160608152602001606081526020016000151581526020016000151581526020016060815260200160008152602001600081525090565b828054600181600116156101000203166002900490600052602060002090601f016020900481019282601f1062001d6d57805160ff191683800117855562001d9e565b8280016001018555821562001d9e579182015b8281111562001d9d57825182559160200191906001019062001d80565b5b50905062001dad919062001f19565b5090565b828054600181600116156101000203166002900490600052602060002090601f016020900481019282601f1062001dec578054855562001e2c565b8280016001018555821562001e2c57600052602060002091601f016020900482015b8281111562001e2b57825482559160010191906001019062001e0e565b5b50905062001e3b919062001f19565b5090565b50805460018160011615610100020316600290046000825580601f1062001e67575062001e88565b601f01602090049060005260206000209081019062001e87919062001f19565b5b50565b61012060405190810160405280600073ffffffffffffffffffffffffffffffffffffffff168152602001600073ffffffffffffffffffffffffffffffffffffffff16815260200160608152602001606081526020016000151581526020016000151581526020016060815260200160008152602001600081525090565b604051611689806200290383390190565b62001f3e91905b8082111562001f3a57600081600090555060010162001f20565b5090565b90565b600062001f4f82356200283c565b905092915050565b600062001f6582516200283c565b905092915050565b600062001f7b823562002850565b905092915050565b600062001f9182356200285c565b905092915050565b600082601f830112151562001fad57600080fd5b813562001fc462001fbe826200275b565b6200272d565b9150808252602083016020830185838301111562001fe157600080fd5b62001fee838284620028ac565b50505092915050565b600062002005823562002866565b905092915050565b6000602082840312156200202057600080fd5b6000620020308482850162001f41565b91505092915050565b6000602082840312156200204c57600080fd5b60006200205c8482850162001f57565b91505092915050565b600080600080600080600080610100898b0312156200208357600080fd5b6000620020938b828c0162001f41565b9850506020620020a68b828c0162001f41565b975050604089013567ffffffffffffffff811115620020c457600080fd5b620020d28b828c0162001f99565b965050606089013567ffffffffffffffff811115620020f057600080fd5b620020fe8b828c0162001f99565b955050608089013567ffffffffffffffff8111156200211c57600080fd5b6200212a8b828c0162001f99565b94505060a06200213d8b828c0162001f6d565b93505060c0620021508b828c0162001f6d565b92505060e0620021638b828c0162001ff7565b9150509295985092959890939650565b6000602082840312156200218657600080fd5b600082013567ffffffffffffffff811115620021a157600080fd5b620021af8482850162001f99565b91505092915050565b60008060008060008060c08789031215620021d257600080fd5b600087013567ffffffffffffffff811115620021ed57600080fd5b620021fb89828a0162001f99565b96505060206200220e89828a0162001f83565b95505060406200222189828a0162001f83565b945050606087013567ffffffffffffffff8111156200223f57600080fd5b6200224d89828a0162001f99565b935050608087013567ffffffffffffffff8111156200226b57600080fd5b6200227989828a0162001f99565b92505060a06200228c89828a0162001f83565b9150509295509295509295565b60008060408385031215620022ad57600080fd5b6000620022bd8582860162001ff7565b9250506020620022d08582860162001f6d565b9150509250929050565b620022e58162002870565b82525050565b620022f681620027e8565b82525050565b60006200230982620027a2565b8084526020840193506200231d8362002788565b60005b82811015620023555762002336868351620022eb565b6200234182620027ce565b915060208601955060018101905062002320565b50849250505092915050565b60006200236e82620027ad565b80845260208401935083602082028501620023898562002795565b60005b84811015620023c8578383038852620023a783835162002473565b9250620023b482620027db565b91506020880197506001810190506200238c565b508196508694505050505092915050565b620023e481620027fc565b82525050565b620023f58162002808565b82525050565b60006200240882620027c3565b8084526200241e816020860160208601620028bb565b6200242981620028f1565b602085010191505092915050565b60006200244482620027b8565b8084526200245a816020860160208601620028bb565b6200246581620028f1565b602085010191505092915050565b6000610120830160008301516200248e6000860182620022eb565b506020830151620024a36020860182620022eb565b5060408301518482036040860152620024bd828262002437565b91505060608301518482036060860152620024d9828262002437565b9150506080830151620024f06080860182620023d9565b5060a08301516200250560a0860182620023d9565b5060c083015184820360c08601526200251f828262002437565b91505060e08301516200253660e086018262002558565b506101008301516200254d61010086018262002558565b508091505092915050565b620025638162002832565b82525050565b600060c082019050620025806000830189620022eb565b8181036020830152620025948188620023fb565b9050620025a56040830187620023ea565b620025b46060830186620023ea565b8181036080830152620025c88185620023fb565b905081810360a0830152620025de8184620023fb565b9050979650505050505050565b6000602082019050620026026000830184620023d9565b92915050565b60006101208201905062002620600083018c620023d9565b6200262f602083018b62002558565b6200263e604083018a62002558565b6200264d606083018962002558565b6200265c608083018862002558565b81810360a0830152620026708187620022fc565b905081810360c083015262002686818662002361565b905081810360e08301526200269c818562002361565b9050818103610100830152620026b3818462002361565b90509a9950505050505050505050565b6000604082019050620026da6000830185620023ea565b620026e96020830184620022eb565b9392505050565b600060608201905062002707600083018662002558565b620027166020830185620022da565b620027256040830184620023d9565b949350505050565b6000604051905081810181811067ffffffffffffffff821117156200275157600080fd5b8060405250919050565b600067ffffffffffffffff8211156200277357600080fd5b601f19601f8301169050602081019050919050565b6000602082019050919050565b6000602082019050919050565b600081519050919050565b600081519050919050565b600081519050919050565b600081519050919050565b6000602082019050919050565b6000602082019050919050565b6000620027f58262002812565b9050919050565b60008115159050919050565b6000819050919050565b600073ffffffffffffffffffffffffffffffffffffffff82169050919050565b6000819050919050565b6000620028498262002812565b9050919050565b60008115159050919050565b6000819050919050565b6000819050919050565b60006200287d8262002884565b9050919050565b6000620028918262002898565b9050919050565b6000620028a58262002812565b9050919050565b82818337600083830152505050565b60005b83811015620028db578082015181840152602081019050620028be565b83811115620028eb576000848401525b50505050565b6000601f19601f830116905091905056fe60806040527fffffffffffffffffffffffffffffffffffffffffffffffffffffffffffffffff6007553480156200003557600080fd5b50604051620016893803806200168983398101806040526200005b91908101906200027a565b306000806101000a81548173ffffffffffffffffffffffffffffffffffffffff021916908373ffffffffffffffffffffffffffffffffffffffff16021790555085600160006101000a81548173ffffffffffffffffffffffffffffffffffffffff021916908373ffffffffffffffffffffffffffffffffffffffff1602179055508460029080519060200190620000f492919062000141565b5081600490805190602001906200010d92919062000141565b5080600590805190602001906200012692919062000141565b5083600381905550826006819055505050505050506200042a565b828054600181600116156101000203166002900490600052602060002090601f016020900481019282601f106200018457805160ff1916838001178555620001b5565b82800160010185558215620001b5579182015b82811115620001b457825182559160200191906001019062000197565b5b509050620001c49190620001c8565b5090565b620001ed91905b80821115620001e9576000816000905550600101620001cf565b5090565b90565b6000620001fe8251620003d6565b905092915050565b6000620002148251620003ea565b905092915050565b600082601f83011215156200023057600080fd5b815162000247620002418262000389565b6200035b565b915080825260208301602083018583830111156200026457600080fd5b62000271838284620003f4565b50505092915050565b60008060008060008060c087890312156200029457600080fd5b6000620002a489828a01620001f0565b965050602087015167ffffffffffffffff811115620002c257600080fd5b620002d089828a016200021c565b9550506040620002e389828a0162000206565b9450506060620002f689828a0162000206565b935050608087015167ffffffffffffffff8111156200031457600080fd5b6200032289828a016200021c565b92505060a087015167ffffffffffffffff8111156200034057600080fd5b6200034e89828a016200021c565b9150509295509295509295565b6000604051905081810181811067ffffffffffffffff821117156200037f57600080fd5b8060405250919050565b600067ffffffffffffffff821115620003a157600080fd5b601f19601f8301169050602081019050919050565b600073ffffffffffffffffffffffffffffffffffffffff82169050919050565b6000620003e382620003b6565b9050919050565b6000819050919050565b60005b8381101562000414578082015181840152602081019050620003f7565b8381111562000424576000848401525b50505050565b61124f806200043a6000396000f3fe608060405234801561001057600080fd5b506004361061005e576000357c0100000000000000000000000000000000000000000000000000000000900480633bc5de301461006357806372102d181461008857806383bffb88146100a4575b600080fd5b61006b6100c0565b60405161007f989796959493929190610f87565b60405180910390f35b6100a2600480360361009d9190810190610d3a565b610661565b005b6100be60048036036100b99190810190610ca3565b6107b4565b005b60008060606000606080600060606000809054906101000a900473ffffffffffffffffffffffffffffffffffffffff16600160009054906101000a900473ffffffffffffffffffffffffffffffffffffffff166002600354600460056006546008858054600181600116156101000203166002900480601f0160208091040260200160405190810160405280929190818152602001828054600181600116156101000203166002900480156101b65780601f1061018b576101008083540402835291602001916101b6565b820191906000526020600020905b81548152906001019060200180831161019957829003601f168201915b50505050509550838054600181600116156101000203166002900480601f0160208091040260200160405190810160405280929190818152602001828054600181600116156101000203166002900480156102525780601f1061022757610100808354040283529160200191610252565b820191906000526020600020905b81548152906001019060200180831161023557829003601f168201915b50505050509350828054600181600116156101000203166002900480601f0160208091040260200160405190810160405280929190818152602001828054600181600116156101000203166002900480156102ee5780601f106102c3576101008083540402835291602001916102ee565b820191906000526020600020905b8154815290600101906020018083116102d157829003601f168201915b5050505050925080805480602002602001604051908101604052809291908181526020016000905b82821015610641578382906000526020600020906009020161014060405190810160405290816000820160009054906101000a900473ffffffffffffffffffffffffffffffffffffffff1673ffffffffffffffffffffffffffffffffffffffff1673ffffffffffffffffffffffffffffffffffffffff1681526020016001820160009054906101000a900473ffffffffffffffffffffffffffffffffffffffff1673ffffffffffffffffffffffffffffffffffffffff1673ffffffffffffffffffffffffffffffffffffffff168152602001600282018054600181600116156101000203166002900480601f0160208091040260200160405190810160405280929190818152602001828054600181600116156101000203166002900480156104805780601f1061045557610100808354040283529160200191610480565b820191906000526020600020905b81548152906001019060200180831161046357829003601f168201915b50505050508152602001600382018054600181600116156101000203166002900480601f0160208091040260200160405190810160405280929190818152602001828054600181600116156101000203166002900480156105225780601f106104f757610100808354040283529160200191610522565b820191906000526020600020905b81548152906001019060200180831161050557829003601f168201915b505050505081526020016004820160009054906101000a900460ff161515151581526020016004820160019054906101000a900460ff16151515158152602001600582018054600181600116156101000203166002900480601f0160208091040260200160405190810160405280929190818152602001828054600181600116156101000203166002900480156105fa5780601f106105cf576101008083540402835291602001916105fa565b820191906000526020600020905b8154815290600101906020018083116105dd57829003601f168201915b50505050508152602001600682015481526020016007820160009054906101000a900460ff1615151515815260200160088201548152505081526020019060010190610316565b505050509050975097509750975097509750975097509091929394959697565b600160009054906101000a900473ffffffffffffffffffffffffffffffffffffffff1673ffffffffffffffffffffffffffffffffffffffff168273ffffffffffffffffffffffffffffffffffffffff1614156107af5760011515811515141561073b5760016008848154811015156106d557fe5b906000526020600020906009020160070160006101000a81548160ff021916908315150217905550600160088481548110151561070e57fe5b906000526020600020906009020160040160016101000a81548160ff0219169083151502179055506107ae565b600160088481548110151561074c57fe5b906000526020600020906009020160070160006101000a81548160ff021916908315150217905550600060088481548110151561078557fe5b906000526020600020906009020160040160016101000a81548160ff0219169083151502179055505b5b505050565b6107bc610ae6565b61014060405190810160405280600160009054906101000a900473ffffffffffffffffffffffffffffffffffffffff1673ffffffffffffffffffffffffffffffffffffffff1681526020013073ffffffffffffffffffffffffffffffffffffffff1681526020018481526020018381526020016001151581526020016000151581526020018581526020016001600754018152602001600015158152602001600081525090506008819080600181540180825580915050906001820390600052602060002090600902016000909192909190915060008201518160000160006101000a81548173ffffffffffffffffffffffffffffffffffffffff021916908373ffffffffffffffffffffffffffffffffffffffff16021790555060208201518160010160006101000a81548173ffffffffffffffffffffffffffffffffffffffff021916908373ffffffffffffffffffffffffffffffffffffffff160217905550604082015181600201908051906020019061093a929190610b6c565b506060820151816003019080519060200190610957929190610b6c565b5060808201518160040160006101000a81548160ff02191690831515021790555060a08201518160040160016101000a81548160ff02191690831515021790555060c08201518160050190805190602001906109b4929190610b6c565b5060e082015181600601556101008201518160070160006101000a81548160ff02191690831515021790555061012082015181600801555050506000600160009054906101000a900473ffffffffffffffffffffffffffffffffffffffff1690508073ffffffffffffffffffffffffffffffffffffffff16639b6b309a600160009054906101000a900473ffffffffffffffffffffffffffffffffffffffff163087878a600160006001600754016040518963ffffffff167c0100000000000000000000000000000000000000000000000000000000028152600401610aa1989796959493929190611021565b600060405180830381600087803b158015610abb57600080fd5b505af1158015610acf573d6000803e3d6000fd5b505050506001600754016007819055505050505050565b61014060405190810160405280600073ffffffffffffffffffffffffffffffffffffffff168152602001600073ffffffffffffffffffffffffffffffffffffffff16815260200160608152602001606081526020016000151581526020016000151581526020016060815260200160008152602001600015158152602001600081525090565b828054600181600116156101000203166002900490600052602060002090601f016020900481019282601f10610bad57805160ff1916838001178555610bdb565b82800160010185558215610bdb579182015b82811115610bda578251825591602001919060010190610bbf565b5b509050610be89190610bec565b5090565b610c0e91905b80821115610c0a576000816000905550600101610bf2565b5090565b90565b6000610c1d823561119a565b905092915050565b6000610c3182356111ac565b905092915050565b600082601f8301121515610c4c57600080fd5b8135610c5f610c5a826110e1565b6110b4565b91508082526020830160208301858383011115610c7b57600080fd5b610c868382846111c2565b50505092915050565b6000610c9b82356111b8565b905092915050565b600080600060608486031215610cb857600080fd5b600084013567ffffffffffffffff811115610cd257600080fd5b610cde86828701610c39565b935050602084013567ffffffffffffffff811115610cfb57600080fd5b610d0786828701610c39565b925050604084013567ffffffffffffffff811115610d2457600080fd5b610d3086828701610c39565b9150509250925092565b600080600060608486031215610d4f57600080fd5b6000610d5d86828701610c8f565b9350506020610d6e86828701610c11565b9250506040610d7f86828701610c25565b9150509250925092565b610d9281611148565b82525050565b6000610da38261111a565b80845260208401935083602082028501610dbc8561110d565b60005b84811015610df5578383038852610dd7838351610e90565b9250610de28261113b565b9150602088019750600181019050610dbf565b508196508694505050505092915050565b610e0f8161115a565b82525050565b610e1e81611166565b82525050565b6000610e2f82611130565b808452610e438160208601602086016111d1565b610e4c81611204565b602085010191505092915050565b6000610e6582611125565b808452610e798160208601602086016111d1565b610e8281611204565b602085010191505092915050565b600061014083016000830151610ea96000860182610d89565b506020830151610ebc6020860182610d89565b5060408301518482036040860152610ed48282610e5a565b91505060608301518482036060860152610eee8282610e5a565b9150506080830151610f036080860182610e06565b5060a0830151610f1660a0860182610e06565b5060c083015184820360c0860152610f2e8282610e5a565b91505060e0830151610f4360e0860182610f78565b50610100830151610f58610100860182610e06565b50610120830151610f6d610120860182610f78565b508091505092915050565b610f8181611190565b82525050565b600061010082019050610f9d600083018b610d89565b610faa602083018a610d89565b8181036040830152610fbc8189610e24565b9050610fcb6060830188610e15565b8181036080830152610fdd8187610e24565b905081810360a0830152610ff18186610e24565b905061100060c0830185610e15565b81810360e08301526110128184610d98565b90509998505050505050505050565b600061010082019050611037600083018b610d89565b611044602083018a610d89565b81810360408301526110568189610e24565b9050818103606083015261106a8188610e24565b9050818103608083015261107e8187610e24565b905061108d60a0830186610e06565b61109a60c0830185610e06565b6110a760e0830184610f78565b9998505050505050505050565b6000604051905081810181811067ffffffffffffffff821117156110d757600080fd5b8060405250919050565b600067ffffffffffffffff8211156110f857600080fd5b601f19601f8301169050602081019050919050565b6000602082019050919050565b600081519050919050565b600081519050919050565b600081519050919050565b6000602082019050919050565b600061115382611170565b9050919050565b60008115159050919050565b6000819050919050565b600073ffffffffffffffffffffffffffffffffffffffff82169050919050565b6000819050919050565b60006111a582611170565b9050919050565b60008115159050919050565b6000819050919050565b82818337600083830152505050565b60005b838110156111ef5780820151818401526020810190506111d4565b838111156111fe576000848401525b50505050565b6000601f19601f830116905091905056fea265627a7a72305820b5956848fe2ca68be3218ed4e8be93b5df07f306e7ad3a37d4500d845a4c21716c6578706572696d656e74616cf50037a265627a7a72305820e18504903fd1b3a7d3042f7fddef2612af5fe7788600da1666991035ff22827f6c6578706572696d656e74616cf50037",
      "opcodes": "PUSH1 0x80 PUSH1 0x40 MSTORE PUSH32 0xFFFFFFFFFFFFFFFFFFFFFFFFFFFFFFFFFFFFFFFFFFFFFFFFFFFFFFFFFFFFFFFF PUSH1 0x7 SSTORE CALLVALUE DUP1 ISZERO PUSH3 0x35 JUMPI PUSH1 0x0 DUP1 REVERT JUMPDEST POP PUSH1 0x40 MLOAD PUSH3 0x42D4 CODESIZE SUB DUP1 PUSH3 0x42D4 DUP4 CODECOPY DUP2 ADD DUP1 PUSH1 0x40 MSTORE PUSH3 0x5B SWAP2 SWAP1 DUP2 ADD SWAP1 PUSH3 0x1E0 JUMP JUMPDEST DUP1 PUSH1 0x1 PUSH1 0x0 PUSH2 0x100 EXP DUP2 SLOAD DUP2 PUSH20 0xFFFFFFFFFFFFFFFFFFFFFFFFFFFFFFFFFFFFFFFF MUL NOT AND SWAP1 DUP4 PUSH20 0xFFFFFFFFFFFFFFFFFFFFFFFFFFFFFFFFFFFFFFFF AND MUL OR SWAP1 SSTORE POP DUP2 PUSH1 0x0 SWAP1 DUP1 MLOAD SWAP1 PUSH1 0x20 ADD SWAP1 PUSH3 0xB4 SWAP3 SWAP2 SWAP1 PUSH3 0xBD JUMP JUMPDEST POP POP POP PUSH3 0x2FF JUMP JUMPDEST DUP3 DUP1 SLOAD PUSH1 0x1 DUP2 PUSH1 0x1 AND ISZERO PUSH2 0x100 MUL SUB AND PUSH1 0x2 SWAP1 DIV SWAP1 PUSH1 0x0 MSTORE PUSH1 0x20 PUSH1 0x0 KECCAK256 SWAP1 PUSH1 0x1F ADD PUSH1 0x20 SWAP1 DIV DUP2 ADD SWAP3 DUP3 PUSH1 0x1F LT PUSH3 0x100 JUMPI DUP1 MLOAD PUSH1 0xFF NOT AND DUP4 DUP1 ADD OR DUP6 SSTORE PUSH3 0x131 JUMP JUMPDEST DUP3 DUP1 ADD PUSH1 0x1 ADD DUP6 SSTORE DUP3 ISZERO PUSH3 0x131 JUMPI SWAP2 DUP3 ADD JUMPDEST DUP3 DUP2 GT ISZERO PUSH3 0x130 JUMPI DUP3 MLOAD DUP3 SSTORE SWAP2 PUSH1 0x20 ADD SWAP2 SWAP1 PUSH1 0x1 ADD SWAP1 PUSH3 0x113 JUMP JUMPDEST JUMPDEST POP SWAP1 POP PUSH3 0x140 SWAP2 SWAP1 PUSH3 0x144 JUMP JUMPDEST POP SWAP1 JUMP JUMPDEST PUSH3 0x169 SWAP2 SWAP1 JUMPDEST DUP1 DUP3 GT ISZERO PUSH3 0x165 JUMPI PUSH1 0x0 DUP2 PUSH1 0x0 SWAP1 SSTORE POP PUSH1 0x1 ADD PUSH3 0x14B JUMP JUMPDEST POP SWAP1 JUMP JUMPDEST SWAP1 JUMP JUMPDEST PUSH1 0x0 PUSH3 0x17A DUP3 MLOAD PUSH3 0x2B5 JUMP JUMPDEST SWAP1 POP SWAP3 SWAP2 POP POP JUMP JUMPDEST PUSH1 0x0 DUP3 PUSH1 0x1F DUP4 ADD SLT ISZERO ISZERO PUSH3 0x196 JUMPI PUSH1 0x0 DUP1 REVERT JUMPDEST DUP2 MLOAD PUSH3 0x1AD PUSH3 0x1A7 DUP3 PUSH3 0x268 JUMP JUMPDEST PUSH3 0x23A JUMP JUMPDEST SWAP2 POP DUP1 DUP3 MSTORE PUSH1 0x20 DUP4 ADD PUSH1 0x20 DUP4 ADD DUP6 DUP4 DUP4 ADD GT ISZERO PUSH3 0x1CA JUMPI PUSH1 0x0 DUP1 REVERT JUMPDEST PUSH3 0x1D7 DUP4 DUP3 DUP5 PUSH3 0x2C9 JUMP JUMPDEST POP POP POP SWAP3 SWAP2 POP POP JUMP JUMPDEST PUSH1 0x0 DUP1 PUSH1 0x40 DUP4 DUP6 SUB SLT ISZERO PUSH3 0x1F4 JUMPI PUSH1 0x0 DUP1 REVERT JUMPDEST PUSH1 0x0 DUP4 ADD MLOAD PUSH8 0xFFFFFFFFFFFFFFFF DUP2 GT ISZERO PUSH3 0x20F JUMPI PUSH1 0x0 DUP1 REVERT JUMPDEST PUSH3 0x21D DUP6 DUP3 DUP7 ADD PUSH3 0x182 JUMP JUMPDEST SWAP3 POP POP PUSH1 0x20 PUSH3 0x230 DUP6 DUP3 DUP7 ADD PUSH3 0x16C JUMP JUMPDEST SWAP2 POP POP SWAP3 POP SWAP3 SWAP1 POP JUMP JUMPDEST PUSH1 0x0 PUSH1 0x40 MLOAD SWAP1 POP DUP2 DUP2 ADD DUP2 DUP2 LT PUSH8 0xFFFFFFFFFFFFFFFF DUP3 GT OR ISZERO PUSH3 0x25E JUMPI PUSH1 0x0 DUP1 REVERT JUMPDEST DUP1 PUSH1 0x40 MSTORE POP SWAP2 SWAP1 POP JUMP JUMPDEST PUSH1 0x0 PUSH8 0xFFFFFFFFFFFFFFFF DUP3 GT ISZERO PUSH3 0x280 JUMPI PUSH1 0x0 DUP1 REVERT JUMPDEST PUSH1 0x1F NOT PUSH1 0x1F DUP4 ADD AND SWAP1 POP PUSH1 0x20 DUP2 ADD SWAP1 POP SWAP2 SWAP1 POP JUMP JUMPDEST PUSH1 0x0 PUSH20 0xFFFFFFFFFFFFFFFFFFFFFFFFFFFFFFFFFFFFFFFF DUP3 AND SWAP1 POP SWAP2 SWAP1 POP JUMP JUMPDEST PUSH1 0x0 PUSH3 0x2C2 DUP3 PUSH3 0x295 JUMP JUMPDEST SWAP1 POP SWAP2 SWAP1 POP JUMP JUMPDEST PUSH1 0x0 JUMPDEST DUP4 DUP2 LT ISZERO PUSH3 0x2E9 JUMPI DUP1 DUP3 ADD MLOAD DUP2 DUP5 ADD MSTORE PUSH1 0x20 DUP2 ADD SWAP1 POP PUSH3 0x2CC JUMP JUMPDEST DUP4 DUP2 GT ISZERO PUSH3 0x2F9 JUMPI PUSH1 0x0 DUP5 DUP5 ADD MSTORE JUMPDEST POP POP POP POP JUMP JUMPDEST PUSH2 0x3FC5 DUP1 PUSH3 0x30F PUSH1 0x0 CODECOPY PUSH1 0x0 RETURN INVALID PUSH1 0x80 PUSH1 0x40 MSTORE CALLVALUE DUP1 ISZERO PUSH3 0x11 JUMPI PUSH1 0x0 DUP1 REVERT JUMPDEST POP PUSH1 0x4 CALLDATASIZE LT PUSH3 0x87 JUMPI PUSH1 0x0 CALLDATALOAD PUSH29 0x100000000000000000000000000000000000000000000000000000000 SWAP1 DIV DUP1 PUSH4 0x271EEC7A EQ PUSH3 0x8C JUMPI DUP1 PUSH4 0x7EC35B0A EQ PUSH3 0xAC JUMPI DUP1 PUSH4 0x9B6B309A EQ PUSH3 0xE2 JUMPI DUP1 PUSH4 0x9D55295C EQ PUSH3 0x102 JUMPI DUP1 PUSH4 0xAE55C888 EQ PUSH3 0x122 JUMPI DUP1 PUSH4 0xD15540D8 EQ PUSH3 0x160 JUMPI JUMPDEST PUSH1 0x0 DUP1 REVERT JUMPDEST PUSH3 0xAA PUSH1 0x4 DUP1 CALLDATASIZE SUB PUSH3 0xA4 SWAP2 SWAP1 DUP2 ADD SWAP1 PUSH3 0x200D JUMP JUMPDEST PUSH3 0x180 JUMP JUMPDEST STOP JUMPDEST PUSH3 0xCA PUSH1 0x4 DUP1 CALLDATASIZE SUB PUSH3 0xC4 SWAP2 SWAP1 DUP2 ADD SWAP1 PUSH3 0x2173 JUMP JUMPDEST PUSH3 0x299 JUMP JUMPDEST PUSH1 0x40 MLOAD PUSH3 0xD9 SWAP2 SWAP1 PUSH3 0x25EB JUMP JUMPDEST PUSH1 0x40 MLOAD DUP1 SWAP2 SUB SWAP1 RETURN JUMPDEST PUSH3 0x100 PUSH1 0x4 DUP1 CALLDATASIZE SUB PUSH3 0xFA SWAP2 SWAP1 DUP2 ADD SWAP1 PUSH3 0x2065 JUMP JUMPDEST PUSH3 0x3AA JUMP JUMPDEST STOP JUMPDEST PUSH3 0x120 PUSH1 0x4 DUP1 CALLDATASIZE SUB PUSH3 0x11A SWAP2 SWAP1 DUP2 ADD SWAP1 PUSH3 0x2299 JUMP JUMPDEST PUSH3 0x608 JUMP JUMPDEST STOP JUMPDEST PUSH3 0x140 PUSH1 0x4 DUP1 CALLDATASIZE SUB PUSH3 0x13A SWAP2 SWAP1 DUP2 ADD SWAP1 PUSH3 0x2173 JUMP JUMPDEST PUSH3 0xE33 JUMP JUMPDEST PUSH1 0x40 MLOAD PUSH3 0x157 SWAP10 SWAP9 SWAP8 SWAP7 SWAP6 SWAP5 SWAP4 SWAP3 SWAP2 SWAP1 PUSH3 0x2608 JUMP JUMPDEST PUSH1 0x40 MLOAD DUP1 SWAP2 SUB SWAP1 RETURN JUMPDEST PUSH3 0x17E PUSH1 0x4 DUP1 CALLDATASIZE SUB PUSH3 0x178 SWAP2 SWAP1 DUP2 ADD SWAP1 PUSH3 0x21B8 JUMP JUMPDEST PUSH3 0x1A01 JUMP JUMPDEST STOP JUMPDEST PUSH1 0x1 PUSH1 0x0 SWAP1 SLOAD SWAP1 PUSH2 0x100 EXP SWAP1 DIV PUSH20 0xFFFFFFFFFFFFFFFFFFFFFFFFFFFFFFFFFFFFFFFF AND PUSH20 0xFFFFFFFFFFFFFFFFFFFFFFFFFFFFFFFFFFFFFFFF AND CALLER PUSH20 0xFFFFFFFFFFFFFFFFFFFFFFFFFFFFFFFFFFFFFFFF AND EQ ISZERO PUSH3 0x296 JUMPI PUSH1 0x5 DUP2 SWAP1 DUP1 PUSH1 0x1 DUP2 SLOAD ADD DUP1 DUP3 SSTORE DUP1 SWAP2 POP POP SWAP1 PUSH1 0x1 DUP3 SUB SWAP1 PUSH1 0x0 MSTORE PUSH1 0x20 PUSH1 0x0 KECCAK256 ADD PUSH1 0x0 SWAP1 SWAP2 SWAP3 SWAP1 SWAP2 SWAP1 SWAP2 PUSH2 0x100 EXP DUP2 SLOAD DUP2 PUSH20 0xFFFFFFFFFFFFFFFFFFFFFFFFFFFFFFFFFFFFFFFF MUL NOT AND SWAP1 DUP4 PUSH20 0xFFFFFFFFFFFFFFFFFFFFFFFFFFFFFFFFFFFFFFFF AND MUL OR SWAP1 SSTORE POP POP PUSH1 0x1 PUSH1 0x6 PUSH1 0x0 DUP4 PUSH20 0xFFFFFFFFFFFFFFFFFFFFFFFFFFFFFFFFFFFFFFFF AND PUSH20 0xFFFFFFFFFFFFFFFFFFFFFFFFFFFFFFFFFFFFFFFF AND DUP2 MSTORE PUSH1 0x20 ADD SWAP1 DUP2 MSTORE PUSH1 0x20 ADD PUSH1 0x0 KECCAK256 PUSH1 0x0 PUSH2 0x100 EXP DUP2 SLOAD DUP2 PUSH1 0xFF MUL NOT AND SWAP1 DUP4 ISZERO ISZERO MUL OR SWAP1 SSTORE POP JUMPDEST POP JUMP JUMPDEST PUSH1 0x0 DUP1 PUSH1 0x40 MLOAD PUSH1 0x20 ADD DUP1 DUP3 DUP1 SLOAD PUSH1 0x1 DUP2 PUSH1 0x1 AND ISZERO PUSH2 0x100 MUL SUB AND PUSH1 0x2 SWAP1 DIV DUP1 ISZERO PUSH3 0x2FE JUMPI DUP1 PUSH1 0x1F LT PUSH3 0x2DB JUMPI PUSH2 0x100 DUP1 DUP4 SLOAD DIV MUL DUP4 MSTORE SWAP2 DUP3 ADD SWAP2 PUSH3 0x2FE JUMP JUMPDEST DUP3 ADD SWAP2 SWAP1 PUSH1 0x0 MSTORE PUSH1 0x20 PUSH1 0x0 KECCAK256 SWAP1 JUMPDEST DUP2 SLOAD DUP2 MSTORE SWAP1 PUSH1 0x1 ADD SWAP1 PUSH1 0x20 ADD DUP1 DUP4 GT PUSH3 0x2E9 JUMPI JUMPDEST POP POP SWAP2 POP POP PUSH1 0x40 MLOAD PUSH1 0x20 DUP2 DUP4 SUB SUB DUP2 MSTORE SWAP1 PUSH1 0x40 MSTORE DUP1 MLOAD SWAP1 PUSH1 0x20 ADD KECCAK256 DUP3 PUSH1 0x40 MLOAD PUSH1 0x20 ADD DUP1 DUP3 DUP1 MLOAD SWAP1 PUSH1 0x20 ADD SWAP1 DUP1 DUP4 DUP4 JUMPDEST PUSH1 0x20 DUP4 LT ISZERO ISZERO PUSH3 0x354 JUMPI DUP1 MLOAD DUP3 MSTORE PUSH1 0x20 DUP3 ADD SWAP2 POP PUSH1 0x20 DUP2 ADD SWAP1 POP PUSH1 0x20 DUP4 SUB SWAP3 POP PUSH3 0x32D JUMP JUMPDEST PUSH1 0x1 DUP4 PUSH1 0x20 SUB PUSH2 0x100 EXP SUB DUP1 NOT DUP3 MLOAD AND DUP2 DUP5 MLOAD AND DUP1 DUP3 OR DUP6 MSTORE POP POP POP POP POP POP SWAP1 POP ADD SWAP2 POP POP PUSH1 0x40 MLOAD PUSH1 0x20 DUP2 DUP4 SUB SUB DUP2 MSTORE SWAP1 PUSH1 0x40 MSTORE DUP1 MLOAD SWAP1 PUSH1 0x20 ADD KECCAK256 EQ ISZERO PUSH3 0x3A0 JUMPI PUSH1 0x1 SWAP1 POP PUSH3 0x3A5 JUMP JUMPDEST PUSH1 0x0 SWAP1 POP JUMPDEST SWAP2 SWAP1 POP JUMP JUMPDEST PUSH1 0x6 PUSH1 0x0 DUP9 PUSH20 0xFFFFFFFFFFFFFFFFFFFFFFFFFFFFFFFFFFFFFFFF AND PUSH20 0xFFFFFFFFFFFFFFFFFFFFFFFFFFFFFFFFFFFFFFFF AND DUP2 MSTORE PUSH1 0x20 ADD SWAP1 DUP2 MSTORE PUSH1 0x20 ADD PUSH1 0x0 KECCAK256 PUSH1 0x0 SWAP1 SLOAD SWAP1 PUSH2 0x100 EXP SWAP1 DIV PUSH1 0xFF AND ISZERO PUSH3 0x5FE JUMPI PUSH3 0x407 PUSH3 0x1CAD JUMP JUMPDEST PUSH2 0x120 PUSH1 0x40 MLOAD SWAP1 DUP2 ADD PUSH1 0x40 MSTORE DUP1 DUP11 PUSH20 0xFFFFFFFFFFFFFFFFFFFFFFFFFFFFFFFFFFFFFFFF AND DUP2 MSTORE PUSH1 0x20 ADD DUP10 PUSH20 0xFFFFFFFFFFFFFFFFFFFFFFFFFFFFFFFFFFFFFFFF AND DUP2 MSTORE PUSH1 0x20 ADD DUP9 DUP2 MSTORE PUSH1 0x20 ADD DUP8 DUP2 MSTORE PUSH1 0x20 ADD DUP6 ISZERO ISZERO DUP2 MSTORE PUSH1 0x20 ADD DUP5 ISZERO ISZERO DUP2 MSTORE PUSH1 0x20 ADD DUP7 DUP2 MSTORE PUSH1 0x20 ADD DUP4 DUP2 MSTORE PUSH1 0x20 ADD PUSH1 0x1 PUSH1 0x7 SLOAD ADD DUP2 MSTORE POP SWAP1 POP PUSH1 0x2 DUP2 SWAP1 DUP1 PUSH1 0x1 DUP2 SLOAD ADD DUP1 DUP3 SSTORE DUP1 SWAP2 POP POP SWAP1 PUSH1 0x1 DUP3 SUB SWAP1 PUSH1 0x0 MSTORE PUSH1 0x20 PUSH1 0x0 KECCAK256 SWAP1 PUSH1 0x8 MUL ADD PUSH1 0x0 SWAP1 SWAP2 SWAP3 SWAP1 SWAP2 SWAP1 SWAP2 POP PUSH1 0x0 DUP3 ADD MLOAD DUP2 PUSH1 0x0 ADD PUSH1 0x0 PUSH2 0x100 EXP DUP2 SLOAD DUP2 PUSH20 0xFFFFFFFFFFFFFFFFFFFFFFFFFFFFFFFFFFFFFFFF MUL NOT AND SWAP1 DUP4 PUSH20 0xFFFFFFFFFFFFFFFFFFFFFFFFFFFFFFFFFFFFFFFF AND MUL OR SWAP1 SSTORE POP PUSH1 0x20 DUP3 ADD MLOAD DUP2 PUSH1 0x1 ADD PUSH1 0x0 PUSH2 0x100 EXP DUP2 SLOAD DUP2 PUSH20 0xFFFFFFFFFFFFFFFFFFFFFFFFFFFFFFFFFFFFFFFF MUL NOT AND SWAP1 DUP4 PUSH20 0xFFFFFFFFFFFFFFFFFFFFFFFFFFFFFFFFFFFFFFFF AND MUL OR SWAP1 SSTORE POP PUSH1 0x40 DUP3 ADD MLOAD DUP2 PUSH1 0x2 ADD SWAP1 DUP1 MLOAD SWAP1 PUSH1 0x20 ADD SWAP1 PUSH3 0x559 SWAP3 SWAP2 SWAP1 PUSH3 0x1D2A JUMP JUMPDEST POP PUSH1 0x60 DUP3 ADD MLOAD DUP2 PUSH1 0x3 ADD SWAP1 DUP1 MLOAD SWAP1 PUSH1 0x20 ADD SWAP1 PUSH3 0x578 SWAP3 SWAP2 SWAP1 PUSH3 0x1D2A JUMP JUMPDEST POP PUSH1 0x80 DUP3 ADD MLOAD DUP2 PUSH1 0x4 ADD PUSH1 0x0 PUSH2 0x100 EXP DUP2 SLOAD DUP2 PUSH1 0xFF MUL NOT AND SWAP1 DUP4 ISZERO ISZERO MUL OR SWAP1 SSTORE POP PUSH1 0xA0 DUP3 ADD MLOAD DUP2 PUSH1 0x4 ADD PUSH1 0x1 PUSH2 0x100 EXP DUP2 SLOAD DUP2 PUSH1 0xFF MUL NOT AND SWAP1 DUP4 ISZERO ISZERO MUL OR SWAP1 SSTORE POP PUSH1 0xC0 DUP3 ADD MLOAD DUP2 PUSH1 0x5 ADD SWAP1 DUP1 MLOAD SWAP1 PUSH1 0x20 ADD SWAP1 PUSH3 0x5D7 SWAP3 SWAP2 SWAP1 PUSH3 0x1D2A JUMP JUMPDEST POP PUSH1 0xE0 DUP3 ADD MLOAD DUP2 PUSH1 0x6 ADD SSTORE PUSH2 0x100 DUP3 ADD MLOAD DUP2 PUSH1 0x7 ADD SSTORE POP POP POP PUSH1 0x1 PUSH1 0x7 SLOAD ADD PUSH1 0x7 DUP2 SWAP1 SSTORE POP POP JUMPDEST POP POP POP POP POP POP POP POP JUMP JUMPDEST PUSH1 0x1 PUSH1 0x0 SWAP1 SLOAD SWAP1 PUSH2 0x100 EXP SWAP1 DIV PUSH20 0xFFFFFFFFFFFFFFFFFFFFFFFFFFFFFFFFFFFFFFFF AND PUSH20 0xFFFFFFFFFFFFFFFFFFFFFFFFFFFFFFFFFFFFFFFF AND CALLER PUSH20 0xFFFFFFFFFFFFFFFFFFFFFFFFFFFFFFFFFFFFFFFF AND EQ ISZERO PUSH3 0xE2F JUMPI PUSH1 0x1 ISZERO ISZERO DUP2 ISZERO ISZERO EQ ISZERO PUSH3 0xA50 JUMPI PUSH1 0x0 PUSH1 0x2 DUP4 DUP2 SLOAD DUP2 LT ISZERO ISZERO PUSH3 0x67F JUMPI INVALID JUMPDEST SWAP1 PUSH1 0x0 MSTORE PUSH1 0x20 PUSH1 0x0 KECCAK256 SWAP1 PUSH1 0x8 MUL ADD PUSH1 0x1 ADD PUSH1 0x0 SWAP1 SLOAD SWAP1 PUSH2 0x100 EXP SWAP1 DIV PUSH20 0xFFFFFFFFFFFFFFFFFFFFFFFFFFFFFFFFFFFFFFFF AND SWAP1 POP DUP1 PUSH20 0xFFFFFFFFFFFFFFFFFFFFFFFFFFFFFFFFFFFFFFFF AND PUSH4 0x72102D18 PUSH1 0x2 DUP6 DUP2 SLOAD DUP2 LT ISZERO ISZERO PUSH3 0x6DF JUMPI INVALID JUMPDEST SWAP1 PUSH1 0x0 MSTORE PUSH1 0x20 PUSH1 0x0 KECCAK256 SWAP1 PUSH1 0x8 MUL ADD PUSH1 0x6 ADD SLOAD CALLER PUSH1 0x1 PUSH1 0x40 MLOAD DUP5 PUSH4 0xFFFFFFFF AND PUSH29 0x100000000000000000000000000000000000000000000000000000000 MUL DUP2 MSTORE PUSH1 0x4 ADD PUSH3 0x730 SWAP4 SWAP3 SWAP2 SWAP1 PUSH3 0x26F0 JUMP JUMPDEST PUSH1 0x0 PUSH1 0x40 MLOAD DUP1 DUP4 SUB DUP2 PUSH1 0x0 DUP8 DUP1 EXTCODESIZE ISZERO DUP1 ISZERO PUSH3 0x74B JUMPI PUSH1 0x0 DUP1 REVERT JUMPDEST POP GAS CALL ISZERO DUP1 ISZERO PUSH3 0x760 JUMPI RETURNDATASIZE PUSH1 0x0 DUP1 RETURNDATACOPY RETURNDATASIZE PUSH1 0x0 REVERT JUMPDEST POP POP POP POP PUSH1 0x3 PUSH1 0x2 DUP5 DUP2 SLOAD DUP2 LT ISZERO ISZERO PUSH3 0x776 JUMPI INVALID JUMPDEST SWAP1 PUSH1 0x0 MSTORE PUSH1 0x20 PUSH1 0x0 KECCAK256 SWAP1 PUSH1 0x8 MUL ADD SWAP1 DUP1 PUSH1 0x1 DUP2 SLOAD ADD DUP1 DUP3 SSTORE DUP1 SWAP2 POP POP SWAP1 PUSH1 0x1 DUP3 SUB SWAP1 PUSH1 0x0 MSTORE PUSH1 0x20 PUSH1 0x0 KECCAK256 SWAP1 PUSH1 0x8 MUL ADD PUSH1 0x0 SWAP1 SWAP2 SWAP3 SWAP1 SWAP2 SWAP1 SWAP2 POP PUSH1 0x0 DUP3 ADD PUSH1 0x0 SWAP1 SLOAD SWAP1 PUSH2 0x100 EXP SWAP1 DIV PUSH20 0xFFFFFFFFFFFFFFFFFFFFFFFFFFFFFFFFFFFFFFFF AND DUP2 PUSH1 0x0 ADD PUSH1 0x0 PUSH2 0x100 EXP DUP2 SLOAD DUP2 PUSH20 0xFFFFFFFFFFFFFFFFFFFFFFFFFFFFFFFFFFFFFFFF MUL NOT AND SWAP1 DUP4 PUSH20 0xFFFFFFFFFFFFFFFFFFFFFFFFFFFFFFFFFFFFFFFF AND MUL OR SWAP1 SSTORE POP PUSH1 0x1 DUP3 ADD PUSH1 0x0 SWAP1 SLOAD SWAP1 PUSH2 0x100 EXP SWAP1 DIV PUSH20 0xFFFFFFFFFFFFFFFFFFFFFFFFFFFFFFFFFFFFFFFF AND DUP2 PUSH1 0x1 ADD PUSH1 0x0 PUSH2 0x100 EXP DUP2 SLOAD DUP2 PUSH20 0xFFFFFFFFFFFFFFFFFFFFFFFFFFFFFFFFFFFFFFFF MUL NOT AND SWAP1 DUP4 PUSH20 0xFFFFFFFFFFFFFFFFFFFFFFFFFFFFFFFFFFFFFFFF AND MUL OR SWAP1 SSTORE POP PUSH1 0x2 DUP3 ADD DUP2 PUSH1 0x2 ADD SWAP1 DUP1 SLOAD PUSH1 0x1 DUP2 PUSH1 0x1 AND ISZERO PUSH2 0x100 MUL SUB AND PUSH1 0x2 SWAP1 DIV PUSH3 0x8A6 SWAP3 SWAP2 SWAP1 PUSH3 0x1DB1 JUMP JUMPDEST POP PUSH1 0x3 DUP3 ADD DUP2 PUSH1 0x3 ADD SWAP1 DUP1 SLOAD PUSH1 0x1 DUP2 PUSH1 0x1 AND ISZERO PUSH2 0x100 MUL SUB AND PUSH1 0x2 SWAP1 DIV PUSH3 0x8D0 SWAP3 SWAP2 SWAP1 PUSH3 0x1DB1 JUMP JUMPDEST POP PUSH1 0x4 DUP3 ADD PUSH1 0x0 SWAP1 SLOAD SWAP1 PUSH2 0x100 EXP SWAP1 DIV PUSH1 0xFF AND DUP2 PUSH1 0x4 ADD PUSH1 0x0 PUSH2 0x100 EXP DUP2 SLOAD DUP2 PUSH1 0xFF MUL NOT AND SWAP1 DUP4 ISZERO ISZERO MUL OR SWAP1 SSTORE POP PUSH1 0x4 DUP3 ADD PUSH1 0x1 SWAP1 SLOAD SWAP1 PUSH2 0x100 EXP SWAP1 DIV PUSH1 0xFF AND DUP2 PUSH1 0x4 ADD PUSH1 0x1 PUSH2 0x100 EXP DUP2 SLOAD DUP2 PUSH1 0xFF MUL NOT AND SWAP1 DUP4 ISZERO ISZERO MUL OR SWAP1 SSTORE POP PUSH1 0x5 DUP3 ADD DUP2 PUSH1 0x5 ADD SWAP1 DUP1 SLOAD PUSH1 0x1 DUP2 PUSH1 0x1 AND ISZERO PUSH2 0x100 MUL SUB AND PUSH1 0x2 SWAP1 DIV PUSH3 0x954 SWAP3 SWAP2 SWAP1 PUSH3 0x1DB1 JUMP JUMPDEST POP PUSH1 0x6 DUP3 ADD SLOAD DUP2 PUSH1 0x6 ADD SSTORE PUSH1 0x7 DUP3 ADD SLOAD DUP2 PUSH1 0x7 ADD SSTORE POP POP POP PUSH1 0x2 DUP4 DUP2 SLOAD DUP2 LT ISZERO ISZERO PUSH3 0x97C JUMPI INVALID JUMPDEST SWAP1 PUSH1 0x0 MSTORE PUSH1 0x20 PUSH1 0x0 KECCAK256 SWAP1 PUSH1 0x8 MUL ADD PUSH1 0x0 DUP1 DUP3 ADD PUSH1 0x0 PUSH2 0x100 EXP DUP2 SLOAD SWAP1 PUSH20 0xFFFFFFFFFFFFFFFFFFFFFFFFFFFFFFFFFFFFFFFF MUL NOT AND SWAP1 SSTORE PUSH1 0x1 DUP3 ADD PUSH1 0x0 PUSH2 0x100 EXP DUP2 SLOAD SWAP1 PUSH20 0xFFFFFFFFFFFFFFFFFFFFFFFFFFFFFFFFFFFFFFFF MUL NOT AND SWAP1 SSTORE PUSH1 0x2 DUP3 ADD PUSH1 0x0 PUSH3 0x9EB SWAP2 SWAP1 PUSH3 0x1E3F JUMP JUMPDEST PUSH1 0x3 DUP3 ADD PUSH1 0x0 PUSH3 0x9FD SWAP2 SWAP1 PUSH3 0x1E3F JUMP JUMPDEST PUSH1 0x4 DUP3 ADD PUSH1 0x0 PUSH2 0x100 EXP DUP2 SLOAD SWAP1 PUSH1 0xFF MUL NOT AND SWAP1 SSTORE PUSH1 0x4 DUP3 ADD PUSH1 0x1 PUSH2 0x100 EXP DUP2 SLOAD SWAP1 PUSH1 0xFF MUL NOT AND SWAP1 SSTORE PUSH1 0x5 DUP3 ADD PUSH1 0x0 PUSH3 0xA37 SWAP2 SWAP1 PUSH3 0x1E3F JUMP JUMPDEST PUSH1 0x6 DUP3 ADD PUSH1 0x0 SWAP1 SSTORE PUSH1 0x7 DUP3 ADD PUSH1 0x0 SWAP1 SSTORE POP POP POP PUSH3 0xE2E JUMP JUMPDEST PUSH1 0x0 PUSH1 0x2 DUP4 DUP2 SLOAD DUP2 LT ISZERO ISZERO PUSH3 0xA62 JUMPI INVALID JUMPDEST SWAP1 PUSH1 0x0 MSTORE PUSH1 0x20 PUSH1 0x0 KECCAK256 SWAP1 PUSH1 0x8 MUL ADD PUSH1 0x1 ADD PUSH1 0x0 SWAP1 SLOAD SWAP1 PUSH2 0x100 EXP SWAP1 DIV PUSH20 0xFFFFFFFFFFFFFFFFFFFFFFFFFFFFFFFFFFFFFFFF AND SWAP1 POP DUP1 PUSH20 0xFFFFFFFFFFFFFFFFFFFFFFFFFFFFFFFFFFFFFFFF AND PUSH4 0x72102D18 PUSH1 0x2 DUP6 DUP2 SLOAD DUP2 LT ISZERO ISZERO PUSH3 0xAC2 JUMPI INVALID JUMPDEST SWAP1 PUSH1 0x0 MSTORE PUSH1 0x20 PUSH1 0x0 KECCAK256 SWAP1 PUSH1 0x8 MUL ADD PUSH1 0x6 ADD SLOAD CALLER PUSH1 0x0 PUSH1 0x40 MLOAD DUP5 PUSH4 0xFFFFFFFF AND PUSH29 0x100000000000000000000000000000000000000000000000000000000 MUL DUP2 MSTORE PUSH1 0x4 ADD PUSH3 0xB13 SWAP4 SWAP3 SWAP2 SWAP1 PUSH3 0x26F0 JUMP JUMPDEST PUSH1 0x0 PUSH1 0x40 MLOAD DUP1 DUP4 SUB DUP2 PUSH1 0x0 DUP8 DUP1 EXTCODESIZE ISZERO DUP1 ISZERO PUSH3 0xB2E JUMPI PUSH1 0x0 DUP1 REVERT JUMPDEST POP GAS CALL ISZERO DUP1 ISZERO PUSH3 0xB43 JUMPI RETURNDATASIZE PUSH1 0x0 DUP1 RETURNDATACOPY RETURNDATASIZE PUSH1 0x0 REVERT JUMPDEST POP POP POP POP PUSH1 0x4 PUSH1 0x2 DUP5 DUP2 SLOAD DUP2 LT ISZERO ISZERO PUSH3 0xB59 JUMPI INVALID JUMPDEST SWAP1 PUSH1 0x0 MSTORE PUSH1 0x20 PUSH1 0x0 KECCAK256 SWAP1 PUSH1 0x8 MUL ADD SWAP1 DUP1 PUSH1 0x1 DUP2 SLOAD ADD DUP1 DUP3 SSTORE DUP1 SWAP2 POP POP SWAP1 PUSH1 0x1 DUP3 SUB SWAP1 PUSH1 0x0 MSTORE PUSH1 0x20 PUSH1 0x0 KECCAK256 SWAP1 PUSH1 0x8 MUL ADD PUSH1 0x0 SWAP1 SWAP2 SWAP3 SWAP1 SWAP2 SWAP1 SWAP2 POP PUSH1 0x0 DUP3 ADD PUSH1 0x0 SWAP1 SLOAD SWAP1 PUSH2 0x100 EXP SWAP1 DIV PUSH20 0xFFFFFFFFFFFFFFFFFFFFFFFFFFFFFFFFFFFFFFFF AND DUP2 PUSH1 0x0 ADD PUSH1 0x0 PUSH2 0x100 EXP DUP2 SLOAD DUP2 PUSH20 0xFFFFFFFFFFFFFFFFFFFFFFFFFFFFFFFFFFFFFFFF MUL NOT AND SWAP1 DUP4 PUSH20 0xFFFFFFFFFFFFFFFFFFFFFFFFFFFFFFFFFFFFFFFF AND MUL OR SWAP1 SSTORE POP PUSH1 0x1 DUP3 ADD PUSH1 0x0 SWAP1 SLOAD SWAP1 PUSH2 0x100 EXP SWAP1 DIV PUSH20 0xFFFFFFFFFFFFFFFFFFFFFFFFFFFFFFFFFFFFFFFF AND DUP2 PUSH1 0x1 ADD PUSH1 0x0 PUSH2 0x100 EXP DUP2 SLOAD DUP2 PUSH20 0xFFFFFFFFFFFFFFFFFFFFFFFFFFFFFFFFFFFFFFFF MUL NOT AND SWAP1 DUP4 PUSH20 0xFFFFFFFFFFFFFFFFFFFFFFFFFFFFFFFFFFFFFFFF AND MUL OR SWAP1 SSTORE POP PUSH1 0x2 DUP3 ADD DUP2 PUSH1 0x2 ADD SWAP1 DUP1 SLOAD PUSH1 0x1 DUP2 PUSH1 0x1 AND ISZERO PUSH2 0x100 MUL SUB AND PUSH1 0x2 SWAP1 DIV PUSH3 0xC89 SWAP3 SWAP2 SWAP1 PUSH3 0x1DB1 JUMP JUMPDEST POP PUSH1 0x3 DUP3 ADD DUP2 PUSH1 0x3 ADD SWAP1 DUP1 SLOAD PUSH1 0x1 DUP2 PUSH1 0x1 AND ISZERO PUSH2 0x100 MUL SUB AND PUSH1 0x2 SWAP1 DIV PUSH3 0xCB3 SWAP3 SWAP2 SWAP1 PUSH3 0x1DB1 JUMP JUMPDEST POP PUSH1 0x4 DUP3 ADD PUSH1 0x0 SWAP1 SLOAD SWAP1 PUSH2 0x100 EXP SWAP1 DIV PUSH1 0xFF AND DUP2 PUSH1 0x4 ADD PUSH1 0x0 PUSH2 0x100 EXP DUP2 SLOAD DUP2 PUSH1 0xFF MUL NOT AND SWAP1 DUP4 ISZERO ISZERO MUL OR SWAP1 SSTORE POP PUSH1 0x4 DUP3 ADD PUSH1 0x1 SWAP1 SLOAD SWAP1 PUSH2 0x100 EXP SWAP1 DIV PUSH1 0xFF AND DUP2 PUSH1 0x4 ADD PUSH1 0x1 PUSH2 0x100 EXP DUP2 SLOAD DUP2 PUSH1 0xFF MUL NOT AND SWAP1 DUP4 ISZERO ISZERO MUL OR SWAP1 SSTORE POP PUSH1 0x5 DUP3 ADD DUP2 PUSH1 0x5 ADD SWAP1 DUP1 SLOAD PUSH1 0x1 DUP2 PUSH1 0x1 AND ISZERO PUSH2 0x100 MUL SUB AND PUSH1 0x2 SWAP1 DIV PUSH3 0xD37 SWAP3 SWAP2 SWAP1 PUSH3 0x1DB1 JUMP JUMPDEST POP PUSH1 0x6 DUP3 ADD SLOAD DUP2 PUSH1 0x6 ADD SSTORE PUSH1 0x7 DUP3 ADD SLOAD DUP2 PUSH1 0x7 ADD SSTORE POP POP POP PUSH1 0x2 DUP4 DUP2 SLOAD DUP2 LT ISZERO ISZERO PUSH3 0xD5F JUMPI INVALID JUMPDEST SWAP1 PUSH1 0x0 MSTORE PUSH1 0x20 PUSH1 0x0 KECCAK256 SWAP1 PUSH1 0x8 MUL ADD PUSH1 0x0 DUP1 DUP3 ADD PUSH1 0x0 PUSH2 0x100 EXP DUP2 SLOAD SWAP1 PUSH20 0xFFFFFFFFFFFFFFFFFFFFFFFFFFFFFFFFFFFFFFFF MUL NOT AND SWAP1 SSTORE PUSH1 0x1 DUP3 ADD PUSH1 0x0 PUSH2 0x100 EXP DUP2 SLOAD SWAP1 PUSH20 0xFFFFFFFFFFFFFFFFFFFFFFFFFFFFFFFFFFFFFFFF MUL NOT AND SWAP1 SSTORE PUSH1 0x2 DUP3 ADD PUSH1 0x0 PUSH3 0xDCE SWAP2 SWAP1 PUSH3 0x1E3F JUMP JUMPDEST PUSH1 0x3 DUP3 ADD PUSH1 0x0 PUSH3 0xDE0 SWAP2 SWAP1 PUSH3 0x1E3F JUMP JUMPDEST PUSH1 0x4 DUP3 ADD PUSH1 0x0 PUSH2 0x100 EXP DUP2 SLOAD SWAP1 PUSH1 0xFF MUL NOT AND SWAP1 SSTORE PUSH1 0x4 DUP3 ADD PUSH1 0x1 PUSH2 0x100 EXP DUP2 SLOAD SWAP1 PUSH1 0xFF MUL NOT AND SWAP1 SSTORE PUSH1 0x5 DUP3 ADD PUSH1 0x0 PUSH3 0xE1A SWAP2 SWAP1 PUSH3 0x1E3F JUMP JUMPDEST PUSH1 0x6 DUP3 ADD PUSH1 0x0 SWAP1 SSTORE PUSH1 0x7 DUP3 ADD PUSH1 0x0 SWAP1 SSTORE POP POP POP JUMPDEST JUMPDEST POP POP JUMP JUMPDEST PUSH1 0x0 DUP1 PUSH1 0x0 DUP1 PUSH1 0x0 PUSH1 0x60 DUP1 PUSH1 0x60 DUP1 PUSH1 0x1 PUSH1 0x0 SWAP1 SLOAD SWAP1 PUSH2 0x100 EXP SWAP1 DIV PUSH20 0xFFFFFFFFFFFFFFFFFFFFFFFFFFFFFFFFFFFFFFFF AND PUSH20 0xFFFFFFFFFFFFFFFFFFFFFFFFFFFFFFFFFFFFFFFF AND CALLER PUSH20 0xFFFFFFFFFFFFFFFFFFFFFFFFFFFFFFFFFFFFFFFF AND EQ DUP1 ISZERO PUSH3 0xEA6 JUMPI POP PUSH3 0xEA5 DUP11 PUSH3 0x299 JUMP JUMPDEST JUMPDEST ISZERO PUSH3 0x194D JUMPI PUSH1 0x1 PUSH1 0x5 DUP1 SLOAD SWAP1 POP PUSH1 0x4 DUP1 SLOAD SWAP1 POP PUSH1 0x3 DUP1 SLOAD SWAP1 POP PUSH1 0x2 DUP1 SLOAD SWAP1 POP SUB SUB PUSH1 0x3 DUP1 SLOAD SWAP1 POP PUSH1 0x4 DUP1 SLOAD SWAP1 POP PUSH1 0x5 PUSH1 0x2 PUSH1 0x3 PUSH1 0x4 DUP4 DUP1 SLOAD DUP1 PUSH1 0x20 MUL PUSH1 0x20 ADD PUSH1 0x40 MLOAD SWAP1 DUP2 ADD PUSH1 0x40 MSTORE DUP1 SWAP3 SWAP2 SWAP1 DUP2 DUP2 MSTORE PUSH1 0x20 ADD DUP3 DUP1 SLOAD DUP1 ISZERO PUSH3 0xF5F JUMPI PUSH1 0x20 MUL DUP3 ADD SWAP2 SWAP1 PUSH1 0x0 MSTORE PUSH1 0x20 PUSH1 0x0 KECCAK256 SWAP1 JUMPDEST DUP2 PUSH1 0x0 SWAP1 SLOAD SWAP1 PUSH2 0x100 EXP SWAP1 DIV PUSH20 0xFFFFFFFFFFFFFFFFFFFFFFFFFFFFFFFFFFFFFFFF AND PUSH20 0xFFFFFFFFFFFFFFFFFFFFFFFFFFFFFFFFFFFFFFFF AND DUP2 MSTORE PUSH1 0x20 ADD SWAP1 PUSH1 0x1 ADD SWAP1 DUP1 DUP4 GT PUSH3 0xF14 JUMPI JUMPDEST POP POP POP POP POP SWAP4 POP DUP3 DUP1 SLOAD DUP1 PUSH1 0x20 MUL PUSH1 0x20 ADD PUSH1 0x40 MLOAD SWAP1 DUP2 ADD PUSH1 0x40 MSTORE DUP1 SWAP3 SWAP2 SWAP1 DUP2 DUP2 MSTORE PUSH1 0x20 ADD PUSH1 0x0 SWAP1 JUMPDEST DUP3 DUP3 LT ISZERO PUSH3 0x12A5 JUMPI DUP4 DUP3 SWAP1 PUSH1 0x0 MSTORE PUSH1 0x20 PUSH1 0x0 KECCAK256 SWAP1 PUSH1 0x8 MUL ADD PUSH2 0x120 PUSH1 0x40 MLOAD SWAP1 DUP2 ADD PUSH1 0x40 MSTORE SWAP1 DUP2 PUSH1 0x0 DUP3 ADD PUSH1 0x0 SWAP1 SLOAD SWAP1 PUSH2 0x100 EXP SWAP1 DIV PUSH20 0xFFFFFFFFFFFFFFFFFFFFFFFFFFFFFFFFFFFFFFFF AND PUSH20 0xFFFFFFFFFFFFFFFFFFFFFFFFFFFFFFFFFFFFFFFF AND PUSH20 0xFFFFFFFFFFFFFFFFFFFFFFFFFFFFFFFFFFFFFFFF AND DUP2 MSTORE PUSH1 0x20 ADD PUSH1 0x1 DUP3 ADD PUSH1 0x0 SWAP1 SLOAD SWAP1 PUSH2 0x100 EXP SWAP1 DIV PUSH20 0xFFFFFFFFFFFFFFFFFFFFFFFFFFFFFFFFFFFFFFFF AND PUSH20 0xFFFFFFFFFFFFFFFFFFFFFFFFFFFFFFFFFFFFFFFF AND PUSH20 0xFFFFFFFFFFFFFFFFFFFFFFFFFFFFFFFFFFFFFFFF AND DUP2 MSTORE PUSH1 0x20 ADD PUSH1 0x2 DUP3 ADD DUP1 SLOAD PUSH1 0x1 DUP2 PUSH1 0x1 AND ISZERO PUSH2 0x100 MUL SUB AND PUSH1 0x2 SWAP1 DIV DUP1 PUSH1 0x1F ADD PUSH1 0x20 DUP1 SWAP2 DIV MUL PUSH1 0x20 ADD PUSH1 0x40 MLOAD SWAP1 DUP2 ADD PUSH1 0x40 MSTORE DUP1 SWAP3 SWAP2 SWAP1 DUP2 DUP2 MSTORE PUSH1 0x20 ADD DUP3 DUP1 SLOAD PUSH1 0x1 DUP2 PUSH1 0x1 AND ISZERO PUSH2 0x100 MUL SUB AND PUSH1 0x2 SWAP1 DIV DUP1 ISZERO PUSH3 0x10F6 JUMPI DUP1 PUSH1 0x1F LT PUSH3 0x10CA JUMPI PUSH2 0x100 DUP1 DUP4 SLOAD DIV MUL DUP4 MSTORE SWAP2 PUSH1 0x20 ADD SWAP2 PUSH3 0x10F6 JUMP JUMPDEST DUP3 ADD SWAP2 SWAP1 PUSH1 0x0 MSTORE PUSH1 0x20 PUSH1 0x0 KECCAK256 SWAP1 JUMPDEST DUP2 SLOAD DUP2 MSTORE SWAP1 PUSH1 0x1 ADD SWAP1 PUSH1 0x20 ADD DUP1 DUP4 GT PUSH3 0x10D8 JUMPI DUP3 SWAP1 SUB PUSH1 0x1F AND DUP3 ADD SWAP2 JUMPDEST POP POP POP POP POP DUP2 MSTORE PUSH1 0x20 ADD PUSH1 0x3 DUP3 ADD DUP1 SLOAD PUSH1 0x1 DUP2 PUSH1 0x1 AND ISZERO PUSH2 0x100 MUL SUB AND PUSH1 0x2 SWAP1 DIV DUP1 PUSH1 0x1F ADD PUSH1 0x20 DUP1 SWAP2 DIV MUL PUSH1 0x20 ADD PUSH1 0x40 MLOAD SWAP1 DUP2 ADD PUSH1 0x40 MSTORE DUP1 SWAP3 SWAP2 SWAP1 DUP2 DUP2 MSTORE PUSH1 0x20 ADD DUP3 DUP1 SLOAD PUSH1 0x1 DUP2 PUSH1 0x1 AND ISZERO PUSH2 0x100 MUL SUB AND PUSH1 0x2 SWAP1 DIV DUP1 ISZERO PUSH3 0x119C JUMPI DUP1 PUSH1 0x1F LT PUSH3 0x1170 JUMPI PUSH2 0x100 DUP1 DUP4 SLOAD DIV MUL DUP4 MSTORE SWAP2 PUSH1 0x20 ADD SWAP2 PUSH3 0x119C JUMP JUMPDEST DUP3 ADD SWAP2 SWAP1 PUSH1 0x0 MSTORE PUSH1 0x20 PUSH1 0x0 KECCAK256 SWAP1 JUMPDEST DUP2 SLOAD DUP2 MSTORE SWAP1 PUSH1 0x1 ADD SWAP1 PUSH1 0x20 ADD DUP1 DUP4 GT PUSH3 0x117E JUMPI DUP3 SWAP1 SUB PUSH1 0x1F AND DUP3 ADD SWAP2 JUMPDEST POP POP POP POP POP DUP2 MSTORE PUSH1 0x20 ADD PUSH1 0x4 DUP3 ADD PUSH1 0x0 SWAP1 SLOAD SWAP1 PUSH2 0x100 EXP SWAP1 DIV PUSH1 0xFF AND ISZERO ISZERO ISZERO ISZERO DUP2 MSTORE PUSH1 0x20 ADD PUSH1 0x4 DUP3 ADD PUSH1 0x1 SWAP1 SLOAD SWAP1 PUSH2 0x100 EXP SWAP1 DIV PUSH1 0xFF AND ISZERO ISZERO ISZERO ISZERO DUP2 MSTORE PUSH1 0x20 ADD PUSH1 0x5 DUP3 ADD DUP1 SLOAD PUSH1 0x1 DUP2 PUSH1 0x1 AND ISZERO PUSH2 0x100 MUL SUB AND PUSH1 0x2 SWAP1 DIV DUP1 PUSH1 0x1F ADD PUSH1 0x20 DUP1 SWAP2 DIV MUL PUSH1 0x20 ADD PUSH1 0x40 MLOAD SWAP1 DUP2 ADD PUSH1 0x40 MSTORE DUP1 SWAP3 SWAP2 SWAP1 DUP2 DUP2 MSTORE PUSH1 0x20 ADD DUP3 DUP1 SLOAD PUSH1 0x1 DUP2 PUSH1 0x1 AND ISZERO PUSH2 0x100 MUL SUB AND PUSH1 0x2 SWAP1 DIV DUP1 ISZERO PUSH3 0x1278 JUMPI DUP1 PUSH1 0x1F LT PUSH3 0x124C JUMPI PUSH2 0x100 DUP1 DUP4 SLOAD DIV MUL DUP4 MSTORE SWAP2 PUSH1 0x20 ADD SWAP2 PUSH3 0x1278 JUMP JUMPDEST DUP3 ADD SWAP2 SWAP1 PUSH1 0x0 MSTORE PUSH1 0x20 PUSH1 0x0 KECCAK256 SWAP1 JUMPDEST DUP2 SLOAD DUP2 MSTORE SWAP1 PUSH1 0x1 ADD SWAP1 PUSH1 0x20 ADD DUP1 DUP4 GT PUSH3 0x125A JUMPI DUP3 SWAP1 SUB PUSH1 0x1F AND DUP3 ADD SWAP2 JUMPDEST POP POP POP POP POP DUP2 MSTORE PUSH1 0x20 ADD PUSH1 0x6 DUP3 ADD SLOAD DUP2 MSTORE PUSH1 0x20 ADD PUSH1 0x7 DUP3 ADD SLOAD DUP2 MSTORE POP POP DUP2 MSTORE PUSH1 0x20 ADD SWAP1 PUSH1 0x1 ADD SWAP1 PUSH3 0xF87 JUMP JUMPDEST POP POP POP POP SWAP3 POP DUP2 DUP1 SLOAD DUP1 PUSH1 0x20 MUL PUSH1 0x20 ADD PUSH1 0x40 MLOAD SWAP1 DUP2 ADD PUSH1 0x40 MSTORE DUP1 SWAP3 SWAP2 SWAP1 DUP2 DUP2 MSTORE PUSH1 0x20 ADD PUSH1 0x0 SWAP1 JUMPDEST DUP3 DUP3 LT ISZERO PUSH3 0x15EA JUMPI DUP4 DUP3 SWAP1 PUSH1 0x0 MSTORE PUSH1 0x20 PUSH1 0x0 KECCAK256 SWAP1 PUSH1 0x8 MUL ADD PUSH2 0x120 PUSH1 0x40 MLOAD SWAP1 DUP2 ADD PUSH1 0x40 MSTORE SWAP1 DUP2 PUSH1 0x0 DUP3 ADD PUSH1 0x0 SWAP1 SLOAD SWAP1 PUSH2 0x100 EXP SWAP1 DIV PUSH20 0xFFFFFFFFFFFFFFFFFFFFFFFFFFFFFFFFFFFFFFFF AND PUSH20 0xFFFFFFFFFFFFFFFFFFFFFFFFFFFFFFFFFFFFFFFF AND PUSH20 0xFFFFFFFFFFFFFFFFFFFFFFFFFFFFFFFFFFFFFFFF AND DUP2 MSTORE PUSH1 0x20 ADD PUSH1 0x1 DUP3 ADD PUSH1 0x0 SWAP1 SLOAD SWAP1 PUSH2 0x100 EXP SWAP1 DIV PUSH20 0xFFFFFFFFFFFFFFFFFFFFFFFFFFFFFFFFFFFFFFFF AND PUSH20 0xFFFFFFFFFFFFFFFFFFFFFFFFFFFFFFFFFFFFFFFF AND PUSH20 0xFFFFFFFFFFFFFFFFFFFFFFFFFFFFFFFFFFFFFFFF AND DUP2 MSTORE PUSH1 0x20 ADD PUSH1 0x2 DUP3 ADD DUP1 SLOAD PUSH1 0x1 DUP2 PUSH1 0x1 AND ISZERO PUSH2 0x100 MUL SUB AND PUSH1 0x2 SWAP1 DIV DUP1 PUSH1 0x1F ADD PUSH1 0x20 DUP1 SWAP2 DIV MUL PUSH1 0x20 ADD PUSH1 0x40 MLOAD SWAP1 DUP2 ADD PUSH1 0x40 MSTORE DUP1 SWAP3 SWAP2 SWAP1 DUP2 DUP2 MSTORE PUSH1 0x20 ADD DUP3 DUP1 SLOAD PUSH1 0x1 DUP2 PUSH1 0x1 AND ISZERO PUSH2 0x100 MUL SUB AND PUSH1 0x2 SWAP1 DIV DUP1 ISZERO PUSH3 0x143B JUMPI DUP1 PUSH1 0x1F LT PUSH3 0x140F JUMPI PUSH2 0x100 DUP1 DUP4 SLOAD DIV MUL DUP4 MSTORE SWAP2 PUSH1 0x20 ADD SWAP2 PUSH3 0x143B JUMP JUMPDEST DUP3 ADD SWAP2 SWAP1 PUSH1 0x0 MSTORE PUSH1 0x20 PUSH1 0x0 KECCAK256 SWAP1 JUMPDEST DUP2 SLOAD DUP2 MSTORE SWAP1 PUSH1 0x1 ADD SWAP1 PUSH1 0x20 ADD DUP1 DUP4 GT PUSH3 0x141D JUMPI DUP3 SWAP1 SUB PUSH1 0x1F AND DUP3 ADD SWAP2 JUMPDEST POP POP POP POP POP DUP2 MSTORE PUSH1 0x20 ADD PUSH1 0x3 DUP3 ADD DUP1 SLOAD PUSH1 0x1 DUP2 PUSH1 0x1 AND ISZERO PUSH2 0x100 MUL SUB AND PUSH1 0x2 SWAP1 DIV DUP1 PUSH1 0x1F ADD PUSH1 0x20 DUP1 SWAP2 DIV MUL PUSH1 0x20 ADD PUSH1 0x40 MLOAD SWAP1 DUP2 ADD PUSH1 0x40 MSTORE DUP1 SWAP3 SWAP2 SWAP1 DUP2 DUP2 MSTORE PUSH1 0x20 ADD DUP3 DUP1 SLOAD PUSH1 0x1 DUP2 PUSH1 0x1 AND ISZERO PUSH2 0x100 MUL SUB AND PUSH1 0x2 SWAP1 DIV DUP1 ISZERO PUSH3 0x14E1 JUMPI DUP1 PUSH1 0x1F LT PUSH3 0x14B5 JUMPI PUSH2 0x100 DUP1 DUP4 SLOAD DIV MUL DUP4 MSTORE SWAP2 PUSH1 0x20 ADD SWAP2 PUSH3 0x14E1 JUMP JUMPDEST DUP3 ADD SWAP2 SWAP1 PUSH1 0x0 MSTORE PUSH1 0x20 PUSH1 0x0 KECCAK256 SWAP1 JUMPDEST DUP2 SLOAD DUP2 MSTORE SWAP1 PUSH1 0x1 ADD SWAP1 PUSH1 0x20 ADD DUP1 DUP4 GT PUSH3 0x14C3 JUMPI DUP3 SWAP1 SUB PUSH1 0x1F AND DUP3 ADD SWAP2 JUMPDEST POP POP POP POP POP DUP2 MSTORE PUSH1 0x20 ADD PUSH1 0x4 DUP3 ADD PUSH1 0x0 SWAP1 SLOAD SWAP1 PUSH2 0x100 EXP SWAP1 DIV PUSH1 0xFF AND ISZERO ISZERO ISZERO ISZERO DUP2 MSTORE PUSH1 0x20 ADD PUSH1 0x4 DUP3 ADD PUSH1 0x1 SWAP1 SLOAD SWAP1 PUSH2 0x100 EXP SWAP1 DIV PUSH1 0xFF AND ISZERO ISZERO ISZERO ISZERO DUP2 MSTORE PUSH1 0x20 ADD PUSH1 0x5 DUP3 ADD DUP1 SLOAD PUSH1 0x1 DUP2 PUSH1 0x1 AND ISZERO PUSH2 0x100 MUL SUB AND PUSH1 0x2 SWAP1 DIV DUP1 PUSH1 0x1F ADD PUSH1 0x20 DUP1 SWAP2 DIV MUL PUSH1 0x20 ADD PUSH1 0x40 MLOAD SWAP1 DUP2 ADD PUSH1 0x40 MSTORE DUP1 SWAP3 SWAP2 SWAP1 DUP2 DUP2 MSTORE PUSH1 0x20 ADD DUP3 DUP1 SLOAD PUSH1 0x1 DUP2 PUSH1 0x1 AND ISZERO PUSH2 0x100 MUL SUB AND PUSH1 0x2 SWAP1 DIV DUP1 ISZERO PUSH3 0x15BD JUMPI DUP1 PUSH1 0x1F LT PUSH3 0x1591 JUMPI PUSH2 0x100 DUP1 DUP4 SLOAD DIV MUL DUP4 MSTORE SWAP2 PUSH1 0x20 ADD SWAP2 PUSH3 0x15BD JUMP JUMPDEST DUP3 ADD SWAP2 SWAP1 PUSH1 0x0 MSTORE PUSH1 0x20 PUSH1 0x0 KECCAK256 SWAP1 JUMPDEST DUP2 SLOAD DUP2 MSTORE SWAP1 PUSH1 0x1 ADD SWAP1 PUSH1 0x20 ADD DUP1 DUP4 GT PUSH3 0x159F JUMPI DUP3 SWAP1 SUB PUSH1 0x1F AND DUP3 ADD SWAP2 JUMPDEST POP POP POP POP POP DUP2 MSTORE PUSH1 0x20 ADD PUSH1 0x6 DUP3 ADD SLOAD DUP2 MSTORE PUSH1 0x20 ADD PUSH1 0x7 DUP3 ADD SLOAD DUP2 MSTORE POP POP DUP2 MSTORE PUSH1 0x20 ADD SWAP1 PUSH1 0x1 ADD SWAP1 PUSH3 0x12CC JUMP JUMPDEST POP POP POP POP SWAP2 POP DUP1 DUP1 SLOAD DUP1 PUSH1 0x20 MUL PUSH1 0x20 ADD PUSH1 0x40 MLOAD SWAP1 DUP2 ADD PUSH1 0x40 MSTORE DUP1 SWAP3 SWAP2 SWAP1 DUP2 DUP2 MSTORE PUSH1 0x20 ADD PUSH1 0x0 SWAP1 JUMPDEST DUP3 DUP3 LT ISZERO PUSH3 0x192F JUMPI DUP4 DUP3 SWAP1 PUSH1 0x0 MSTORE PUSH1 0x20 PUSH1 0x0 KECCAK256 SWAP1 PUSH1 0x8 MUL ADD PUSH2 0x120 PUSH1 0x40 MLOAD SWAP1 DUP2 ADD PUSH1 0x40 MSTORE SWAP1 DUP2 PUSH1 0x0 DUP3 ADD PUSH1 0x0 SWAP1 SLOAD SWAP1 PUSH2 0x100 EXP SWAP1 DIV PUSH20 0xFFFFFFFFFFFFFFFFFFFFFFFFFFFFFFFFFFFFFFFF AND PUSH20 0xFFFFFFFFFFFFFFFFFFFFFFFFFFFFFFFFFFFFFFFF AND PUSH20 0xFFFFFFFFFFFFFFFFFFFFFFFFFFFFFFFFFFFFFFFF AND DUP2 MSTORE PUSH1 0x20 ADD PUSH1 0x1 DUP3 ADD PUSH1 0x0 SWAP1 SLOAD SWAP1 PUSH2 0x100 EXP SWAP1 DIV PUSH20 0xFFFFFFFFFFFFFFFFFFFFFFFFFFFFFFFFFFFFFFFF AND PUSH20 0xFFFFFFFFFFFFFFFFFFFFFFFFFFFFFFFFFFFFFFFF AND PUSH20 0xFFFFFFFFFFFFFFFFFFFFFFFFFFFFFFFFFFFFFFFF AND DUP2 MSTORE PUSH1 0x20 ADD PUSH1 0x2 DUP3 ADD DUP1 SLOAD PUSH1 0x1 DUP2 PUSH1 0x1 AND ISZERO PUSH2 0x100 MUL SUB AND PUSH1 0x2 SWAP1 DIV DUP1 PUSH1 0x1F ADD PUSH1 0x20 DUP1 SWAP2 DIV MUL PUSH1 0x20 ADD PUSH1 0x40 MLOAD SWAP1 DUP2 ADD PUSH1 0x40 MSTORE DUP1 SWAP3 SWAP2 SWAP1 DUP2 DUP2 MSTORE PUSH1 0x20 ADD DUP3 DUP1 SLOAD PUSH1 0x1 DUP2 PUSH1 0x1 AND ISZERO PUSH2 0x100 MUL SUB AND PUSH1 0x2 SWAP1 DIV DUP1 ISZERO PUSH3 0x1780 JUMPI DUP1 PUSH1 0x1F LT PUSH3 0x1754 JUMPI PUSH2 0x100 DUP1 DUP4 SLOAD DIV MUL DUP4 MSTORE SWAP2 PUSH1 0x20 ADD SWAP2 PUSH3 0x1780 JUMP JUMPDEST DUP3 ADD SWAP2 SWAP1 PUSH1 0x0 MSTORE PUSH1 0x20 PUSH1 0x0 KECCAK256 SWAP1 JUMPDEST DUP2 SLOAD DUP2 MSTORE SWAP1 PUSH1 0x1 ADD SWAP1 PUSH1 0x20 ADD DUP1 DUP4 GT PUSH3 0x1762 JUMPI DUP3 SWAP1 SUB PUSH1 0x1F AND DUP3 ADD SWAP2 JUMPDEST POP POP POP POP POP DUP2 MSTORE PUSH1 0x20 ADD PUSH1 0x3 DUP3 ADD DUP1 SLOAD PUSH1 0x1 DUP2 PUSH1 0x1 AND ISZERO PUSH2 0x100 MUL SUB AND PUSH1 0x2 SWAP1 DIV DUP1 PUSH1 0x1F ADD PUSH1 0x20 DUP1 SWAP2 DIV MUL PUSH1 0x20 ADD PUSH1 0x40 MLOAD SWAP1 DUP2 ADD PUSH1 0x40 MSTORE DUP1 SWAP3 SWAP2 SWAP1 DUP2 DUP2 MSTORE PUSH1 0x20 ADD DUP3 DUP1 SLOAD PUSH1 0x1 DUP2 PUSH1 0x1 AND ISZERO PUSH2 0x100 MUL SUB AND PUSH1 0x2 SWAP1 DIV DUP1 ISZERO PUSH3 0x1826 JUMPI DUP1 PUSH1 0x1F LT PUSH3 0x17FA JUMPI PUSH2 0x100 DUP1 DUP4 SLOAD DIV MUL DUP4 MSTORE SWAP2 PUSH1 0x20 ADD SWAP2 PUSH3 0x1826 JUMP JUMPDEST DUP3 ADD SWAP2 SWAP1 PUSH1 0x0 MSTORE PUSH1 0x20 PUSH1 0x0 KECCAK256 SWAP1 JUMPDEST DUP2 SLOAD DUP2 MSTORE SWAP1 PUSH1 0x1 ADD SWAP1 PUSH1 0x20 ADD DUP1 DUP4 GT PUSH3 0x1808 JUMPI DUP3 SWAP1 SUB PUSH1 0x1F AND DUP3 ADD SWAP2 JUMPDEST POP POP POP POP POP DUP2 MSTORE PUSH1 0x20 ADD PUSH1 0x4 DUP3 ADD PUSH1 0x0 SWAP1 SLOAD SWAP1 PUSH2 0x100 EXP SWAP1 DIV PUSH1 0xFF AND ISZERO ISZERO ISZERO ISZERO DUP2 MSTORE PUSH1 0x20 ADD PUSH1 0x4 DUP3 ADD PUSH1 0x1 SWAP1 SLOAD SWAP1 PUSH2 0x100 EXP SWAP1 DIV PUSH1 0xFF AND ISZERO ISZERO ISZERO ISZERO DUP2 MSTORE PUSH1 0x20 ADD PUSH1 0x5 DUP3 ADD DUP1 SLOAD PUSH1 0x1 DUP2 PUSH1 0x1 AND ISZERO PUSH2 0x100 MUL SUB AND PUSH1 0x2 SWAP1 DIV DUP1 PUSH1 0x1F ADD PUSH1 0x20 DUP1 SWAP2 DIV MUL PUSH1 0x20 ADD PUSH1 0x40 MLOAD SWAP1 DUP2 ADD PUSH1 0x40 MSTORE DUP1 SWAP3 SWAP2 SWAP1 DUP2 DUP2 MSTORE PUSH1 0x20 ADD DUP3 DUP1 SLOAD PUSH1 0x1 DUP2 PUSH1 0x1 AND ISZERO PUSH2 0x100 MUL SUB AND PUSH1 0x2 SWAP1 DIV DUP1 ISZERO PUSH3 0x1902 JUMPI DUP1 PUSH1 0x1F LT PUSH3 0x18D6 JUMPI PUSH2 0x100 DUP1 DUP4 SLOAD DIV MUL DUP4 MSTORE SWAP2 PUSH1 0x20 ADD SWAP2 PUSH3 0x1902 JUMP JUMPDEST DUP3 ADD SWAP2 SWAP1 PUSH1 0x0 MSTORE PUSH1 0x20 PUSH1 0x0 KECCAK256 SWAP1 JUMPDEST DUP2 SLOAD DUP2 MSTORE SWAP1 PUSH1 0x1 ADD SWAP1 PUSH1 0x20 ADD DUP1 DUP4 GT PUSH3 0x18E4 JUMPI DUP3 SWAP1 SUB PUSH1 0x1F AND DUP3 ADD SWAP2 JUMPDEST POP POP POP POP POP DUP2 MSTORE PUSH1 0x20 ADD PUSH1 0x6 DUP3 ADD SLOAD DUP2 MSTORE PUSH1 0x20 ADD PUSH1 0x7 DUP3 ADD SLOAD DUP2 MSTORE POP POP DUP2 MSTORE PUSH1 0x20 ADD SWAP1 PUSH1 0x1 ADD SWAP1 PUSH3 0x1611 JUMP JUMPDEST POP POP POP POP SWAP1 POP SWAP9 POP SWAP9 POP SWAP9 POP SWAP9 POP SWAP9 POP SWAP9 POP SWAP9 POP SWAP9 POP SWAP9 POP PUSH3 0x19F4 JUMP JUMPDEST PUSH1 0x60 PUSH1 0x1 PUSH1 0x40 MLOAD SWAP1 DUP1 DUP3 MSTORE DUP1 PUSH1 0x20 MUL PUSH1 0x20 ADD DUP3 ADD PUSH1 0x40 MSTORE DUP1 ISZERO PUSH3 0x1980 JUMPI DUP2 PUSH1 0x20 ADD PUSH1 0x20 DUP3 MUL DUP1 CODESIZE DUP4 CODECOPY DUP1 DUP3 ADD SWAP2 POP POP SWAP1 POP JUMPDEST POP SWAP1 POP PUSH1 0x60 PUSH1 0x1 PUSH1 0x40 MLOAD SWAP1 DUP1 DUP3 MSTORE DUP1 PUSH1 0x20 MUL PUSH1 0x20 ADD DUP3 ADD PUSH1 0x40 MSTORE DUP1 ISZERO PUSH3 0x19C4 JUMPI DUP2 PUSH1 0x20 ADD JUMPDEST PUSH3 0x19B0 PUSH3 0x1E8B JUMP JUMPDEST DUP2 MSTORE PUSH1 0x20 ADD SWAP1 PUSH1 0x1 SWAP1 SUB SWAP1 DUP2 PUSH3 0x19A6 JUMPI SWAP1 POP JUMPDEST POP SWAP1 POP PUSH1 0x0 DUP1 PUSH1 0x0 DUP1 PUSH1 0x0 DUP7 DUP7 DUP8 DUP9 DUP8 SWAP8 POP DUP7 SWAP7 POP DUP6 SWAP6 POP DUP5 SWAP5 POP SWAP11 POP SWAP11 POP SWAP11 POP SWAP11 POP SWAP11 POP SWAP11 POP SWAP11 POP SWAP11 POP SWAP11 POP POP POP JUMPDEST SWAP2 SWAP4 SWAP6 SWAP8 SWAP10 SWAP1 SWAP3 SWAP5 SWAP7 SWAP9 POP JUMP JUMPDEST PUSH1 0x1 PUSH1 0x0 SWAP1 SLOAD SWAP1 PUSH2 0x100 EXP SWAP1 DIV PUSH20 0xFFFFFFFFFFFFFFFFFFFFFFFFFFFFFFFFFFFFFFFF AND PUSH20 0xFFFFFFFFFFFFFFFFFFFFFFFFFFFFFFFFFFFFFFFF AND CALLER PUSH20 0xFFFFFFFFFFFFFFFFFFFFFFFFFFFFFFFFFFFFFFFF AND EQ ISZERO PUSH3 0x1CA5 JUMPI PUSH1 0x0 ADDRESS DUP8 DUP8 DUP8 DUP8 DUP8 PUSH3 0x1A6A PUSH3 0x1F08 JUMP JUMPDEST PUSH3 0x1A7B SWAP7 SWAP6 SWAP5 SWAP4 SWAP3 SWAP2 SWAP1 PUSH3 0x2569 JUMP JUMPDEST PUSH1 0x40 MLOAD DUP1 SWAP2 SUB SWAP1 PUSH1 0x0 CREATE DUP1 ISZERO DUP1 ISZERO PUSH3 0x1A98 JUMPI RETURNDATASIZE PUSH1 0x0 DUP1 RETURNDATACOPY RETURNDATASIZE PUSH1 0x0 REVERT JUMPDEST POP SWAP1 POP PUSH1 0x5 DUP2 SWAP1 DUP1 PUSH1 0x1 DUP2 SLOAD ADD DUP1 DUP3 SSTORE DUP1 SWAP2 POP POP SWAP1 PUSH1 0x1 DUP3 SUB SWAP1 PUSH1 0x0 MSTORE PUSH1 0x20 PUSH1 0x0 KECCAK256 ADD PUSH1 0x0 SWAP1 SWAP2 SWAP3 SWAP1 SWAP2 SWAP1 SWAP2 PUSH2 0x100 EXP DUP2 SLOAD DUP2 PUSH20 0xFFFFFFFFFFFFFFFFFFFFFFFFFFFFFFFFFFFFFFFF MUL NOT AND SWAP1 DUP4 PUSH20 0xFFFFFFFFFFFFFFFFFFFFFFFFFFFFFFFFFFFFFFFF AND MUL OR SWAP1 SSTORE POP POP PUSH1 0x1 PUSH1 0x6 PUSH1 0x0 DUP4 PUSH20 0xFFFFFFFFFFFFFFFFFFFFFFFFFFFFFFFFFFFFFFFF AND PUSH20 0xFFFFFFFFFFFFFFFFFFFFFFFFFFFFFFFFFFFFFFFF AND DUP2 MSTORE PUSH1 0x20 ADD SWAP1 DUP2 MSTORE PUSH1 0x20 ADD PUSH1 0x0 KECCAK256 PUSH1 0x0 PUSH2 0x100 EXP DUP2 SLOAD DUP2 PUSH1 0xFF MUL NOT AND SWAP1 DUP4 ISZERO ISZERO MUL OR SWAP1 SSTORE POP PUSH1 0x0 PUSH20 0xD8693BAFBA8A45BE8DFD090FA032AB4E5E8A504C SWAP1 POP PUSH1 0x0 DUP2 PUSH20 0xFFFFFFFFFFFFFFFFFFFFFFFFFFFFFFFFFFFFFFFF AND PUSH4 0xDE96B851 PUSH1 0x40 MLOAD DUP2 PUSH4 0xFFFFFFFF AND PUSH29 0x100000000000000000000000000000000000000000000000000000000 MUL DUP2 MSTORE PUSH1 0x4 ADD PUSH1 0x20 PUSH1 0x40 MLOAD DUP1 DUP4 SUB DUP2 DUP7 DUP1 EXTCODESIZE ISZERO DUP1 ISZERO PUSH3 0x1BD7 JUMPI PUSH1 0x0 DUP1 REVERT JUMPDEST POP GAS STATICCALL ISZERO DUP1 ISZERO PUSH3 0x1BEC JUMPI RETURNDATASIZE PUSH1 0x0 DUP1 RETURNDATACOPY RETURNDATASIZE PUSH1 0x0 REVERT JUMPDEST POP POP POP POP PUSH1 0x40 MLOAD RETURNDATASIZE PUSH1 0x1F NOT PUSH1 0x1F DUP3 ADD AND DUP3 ADD DUP1 PUSH1 0x40 MSTORE POP PUSH3 0x1C12 SWAP2 SWAP1 DUP2 ADD SWAP1 PUSH3 0x2039 JUMP JUMPDEST SWAP1 POP DUP1 PUSH20 0xFFFFFFFFFFFFFFFFFFFFFFFFFFFFFFFFFFFFFFFF AND PUSH4 0x186DD4F1 DUP6 DUP6 PUSH1 0x40 MLOAD DUP4 PUSH4 0xFFFFFFFF AND PUSH29 0x100000000000000000000000000000000000000000000000000000000 MUL DUP2 MSTORE PUSH1 0x4 ADD PUSH3 0x1C6D SWAP3 SWAP2 SWAP1 PUSH3 0x26C3 JUMP JUMPDEST PUSH1 0x0 PUSH1 0x40 MLOAD DUP1 DUP4 SUB DUP2 PUSH1 0x0 DUP8 DUP1 EXTCODESIZE ISZERO DUP1 ISZERO PUSH3 0x1C88 JUMPI PUSH1 0x0 DUP1 REVERT JUMPDEST POP GAS CALL ISZERO DUP1 ISZERO PUSH3 0x1C9D JUMPI RETURNDATASIZE PUSH1 0x0 DUP1 RETURNDATACOPY RETURNDATASIZE PUSH1 0x0 REVERT JUMPDEST POP POP POP POP POP POP POP JUMPDEST POP POP POP POP POP POP JUMP JUMPDEST PUSH2 0x120 PUSH1 0x40 MLOAD SWAP1 DUP2 ADD PUSH1 0x40 MSTORE DUP1 PUSH1 0x0 PUSH20 0xFFFFFFFFFFFFFFFFFFFFFFFFFFFFFFFFFFFFFFFF AND DUP2 MSTORE PUSH1 0x20 ADD PUSH1 0x0 PUSH20 0xFFFFFFFFFFFFFFFFFFFFFFFFFFFFFFFFFFFFFFFF AND DUP2 MSTORE PUSH1 0x20 ADD PUSH1 0x60 DUP2 MSTORE PUSH1 0x20 ADD PUSH1 0x60 DUP2 MSTORE PUSH1 0x20 ADD PUSH1 0x0 ISZERO ISZERO DUP2 MSTORE PUSH1 0x20 ADD PUSH1 0x0 ISZERO ISZERO DUP2 MSTORE PUSH1 0x20 ADD PUSH1 0x60 DUP2 MSTORE PUSH1 0x20 ADD PUSH1 0x0 DUP2 MSTORE PUSH1 0x20 ADD PUSH1 0x0 DUP2 MSTORE POP SWAP1 JUMP JUMPDEST DUP3 DUP1 SLOAD PUSH1 0x1 DUP2 PUSH1 0x1 AND ISZERO PUSH2 0x100 MUL SUB AND PUSH1 0x2 SWAP1 DIV SWAP1 PUSH1 0x0 MSTORE PUSH1 0x20 PUSH1 0x0 KECCAK256 SWAP1 PUSH1 0x1F ADD PUSH1 0x20 SWAP1 DIV DUP2 ADD SWAP3 DUP3 PUSH1 0x1F LT PUSH3 0x1D6D JUMPI DUP1 MLOAD PUSH1 0xFF NOT AND DUP4 DUP1 ADD OR DUP6 SSTORE PUSH3 0x1D9E JUMP JUMPDEST DUP3 DUP1 ADD PUSH1 0x1 ADD DUP6 SSTORE DUP3 ISZERO PUSH3 0x1D9E JUMPI SWAP2 DUP3 ADD JUMPDEST DUP3 DUP2 GT ISZERO PUSH3 0x1D9D JUMPI DUP3 MLOAD DUP3 SSTORE SWAP2 PUSH1 0x20 ADD SWAP2 SWAP1 PUSH1 0x1 ADD SWAP1 PUSH3 0x1D80 JUMP JUMPDEST JUMPDEST POP SWAP1 POP PUSH3 0x1DAD SWAP2 SWAP1 PUSH3 0x1F19 JUMP JUMPDEST POP SWAP1 JUMP JUMPDEST DUP3 DUP1 SLOAD PUSH1 0x1 DUP2 PUSH1 0x1 AND ISZERO PUSH2 0x100 MUL SUB AND PUSH1 0x2 SWAP1 DIV SWAP1 PUSH1 0x0 MSTORE PUSH1 0x20 PUSH1 0x0 KECCAK256 SWAP1 PUSH1 0x1F ADD PUSH1 0x20 SWAP1 DIV DUP2 ADD SWAP3 DUP3 PUSH1 0x1F LT PUSH3 0x1DEC JUMPI DUP1 SLOAD DUP6 SSTORE PUSH3 0x1E2C JUMP JUMPDEST DUP3 DUP1 ADD PUSH1 0x1 ADD DUP6 SSTORE DUP3 ISZERO PUSH3 0x1E2C JUMPI PUSH1 0x0 MSTORE PUSH1 0x20 PUSH1 0x0 KECCAK256 SWAP2 PUSH1 0x1F ADD PUSH1 0x20 SWAP1 DIV DUP3 ADD JUMPDEST DUP3 DUP2 GT ISZERO PUSH3 0x1E2B JUMPI DUP3 SLOAD DUP3 SSTORE SWAP2 PUSH1 0x1 ADD SWAP2 SWAP1 PUSH1 0x1 ADD SWAP1 PUSH3 0x1E0E JUMP JUMPDEST JUMPDEST POP SWAP1 POP PUSH3 0x1E3B SWAP2 SWAP1 PUSH3 0x1F19 JUMP JUMPDEST POP SWAP1 JUMP JUMPDEST POP DUP1 SLOAD PUSH1 0x1 DUP2 PUSH1 0x1 AND ISZERO PUSH2 0x100 MUL SUB AND PUSH1 0x2 SWAP1 DIV PUSH1 0x0 DUP3 SSTORE DUP1 PUSH1 0x1F LT PUSH3 0x1E67 JUMPI POP PUSH3 0x1E88 JUMP JUMPDEST PUSH1 0x1F ADD PUSH1 0x20 SWAP1 DIV SWAP1 PUSH1 0x0 MSTORE PUSH1 0x20 PUSH1 0x0 KECCAK256 SWAP1 DUP2 ADD SWAP1 PUSH3 0x1E87 SWAP2 SWAP1 PUSH3 0x1F19 JUMP JUMPDEST JUMPDEST POP JUMP JUMPDEST PUSH2 0x120 PUSH1 0x40 MLOAD SWAP1 DUP2 ADD PUSH1 0x40 MSTORE DUP1 PUSH1 0x0 PUSH20 0xFFFFFFFFFFFFFFFFFFFFFFFFFFFFFFFFFFFFFFFF AND DUP2 MSTORE PUSH1 0x20 ADD PUSH1 0x0 PUSH20 0xFFFFFFFFFFFFFFFFFFFFFFFFFFFFFFFFFFFFFFFF AND DUP2 MSTORE PUSH1 0x20 ADD PUSH1 0x60 DUP2 MSTORE PUSH1 0x20 ADD PUSH1 0x60 DUP2 MSTORE PUSH1 0x20 ADD PUSH1 0x0 ISZERO ISZERO DUP2 MSTORE PUSH1 0x20 ADD PUSH1 0x0 ISZERO ISZERO DUP2 MSTORE PUSH1 0x20 ADD PUSH1 0x60 DUP2 MSTORE PUSH1 0x20 ADD PUSH1 0x0 DUP2 MSTORE PUSH1 0x20 ADD PUSH1 0x0 DUP2 MSTORE POP SWAP1 JUMP JUMPDEST PUSH1 0x40 MLOAD PUSH2 0x1689 DUP1 PUSH3 0x2903 DUP4 CODECOPY ADD SWAP1 JUMP JUMPDEST PUSH3 0x1F3E SWAP2 SWAP1 JUMPDEST DUP1 DUP3 GT ISZERO PUSH3 0x1F3A JUMPI PUSH1 0x0 DUP2 PUSH1 0x0 SWAP1 SSTORE POP PUSH1 0x1 ADD PUSH3 0x1F20 JUMP JUMPDEST POP SWAP1 JUMP JUMPDEST SWAP1 JUMP JUMPDEST PUSH1 0x0 PUSH3 0x1F4F DUP3 CALLDATALOAD PUSH3 0x283C JUMP JUMPDEST SWAP1 POP SWAP3 SWAP2 POP POP JUMP JUMPDEST PUSH1 0x0 PUSH3 0x1F65 DUP3 MLOAD PUSH3 0x283C JUMP JUMPDEST SWAP1 POP SWAP3 SWAP2 POP POP JUMP JUMPDEST PUSH1 0x0 PUSH3 0x1F7B DUP3 CALLDATALOAD PUSH3 0x2850 JUMP JUMPDEST SWAP1 POP SWAP3 SWAP2 POP POP JUMP JUMPDEST PUSH1 0x0 PUSH3 0x1F91 DUP3 CALLDATALOAD PUSH3 0x285C JUMP JUMPDEST SWAP1 POP SWAP3 SWAP2 POP POP JUMP JUMPDEST PUSH1 0x0 DUP3 PUSH1 0x1F DUP4 ADD SLT ISZERO ISZERO PUSH3 0x1FAD JUMPI PUSH1 0x0 DUP1 REVERT JUMPDEST DUP2 CALLDATALOAD PUSH3 0x1FC4 PUSH3 0x1FBE DUP3 PUSH3 0x275B JUMP JUMPDEST PUSH3 0x272D JUMP JUMPDEST SWAP2 POP DUP1 DUP3 MSTORE PUSH1 0x20 DUP4 ADD PUSH1 0x20 DUP4 ADD DUP6 DUP4 DUP4 ADD GT ISZERO PUSH3 0x1FE1 JUMPI PUSH1 0x0 DUP1 REVERT JUMPDEST PUSH3 0x1FEE DUP4 DUP3 DUP5 PUSH3 0x28AC JUMP JUMPDEST POP POP POP SWAP3 SWAP2 POP POP JUMP JUMPDEST PUSH1 0x0 PUSH3 0x2005 DUP3 CALLDATALOAD PUSH3 0x2866 JUMP JUMPDEST SWAP1 POP SWAP3 SWAP2 POP POP JUMP JUMPDEST PUSH1 0x0 PUSH1 0x20 DUP3 DUP5 SUB SLT ISZERO PUSH3 0x2020 JUMPI PUSH1 0x0 DUP1 REVERT JUMPDEST PUSH1 0x0 PUSH3 0x2030 DUP5 DUP3 DUP6 ADD PUSH3 0x1F41 JUMP JUMPDEST SWAP2 POP POP SWAP3 SWAP2 POP POP JUMP JUMPDEST PUSH1 0x0 PUSH1 0x20 DUP3 DUP5 SUB SLT ISZERO PUSH3 0x204C JUMPI PUSH1 0x0 DUP1 REVERT JUMPDEST PUSH1 0x0 PUSH3 0x205C DUP5 DUP3 DUP6 ADD PUSH3 0x1F57 JUMP JUMPDEST SWAP2 POP POP SWAP3 SWAP2 POP POP JUMP JUMPDEST PUSH1 0x0 DUP1 PUSH1 0x0 DUP1 PUSH1 0x0 DUP1 PUSH1 0x0 DUP1 PUSH2 0x100 DUP10 DUP12 SUB SLT ISZERO PUSH3 0x2083 JUMPI PUSH1 0x0 DUP1 REVERT JUMPDEST PUSH1 0x0 PUSH3 0x2093 DUP12 DUP3 DUP13 ADD PUSH3 0x1F41 JUMP JUMPDEST SWAP9 POP POP PUSH1 0x20 PUSH3 0x20A6 DUP12 DUP3 DUP13 ADD PUSH3 0x1F41 JUMP JUMPDEST SWAP8 POP POP PUSH1 0x40 DUP10 ADD CALLDATALOAD PUSH8 0xFFFFFFFFFFFFFFFF DUP2 GT ISZERO PUSH3 0x20C4 JUMPI PUSH1 0x0 DUP1 REVERT JUMPDEST PUSH3 0x20D2 DUP12 DUP3 DUP13 ADD PUSH3 0x1F99 JUMP JUMPDEST SWAP7 POP POP PUSH1 0x60 DUP10 ADD CALLDATALOAD PUSH8 0xFFFFFFFFFFFFFFFF DUP2 GT ISZERO PUSH3 0x20F0 JUMPI PUSH1 0x0 DUP1 REVERT JUMPDEST PUSH3 0x20FE DUP12 DUP3 DUP13 ADD PUSH3 0x1F99 JUMP JUMPDEST SWAP6 POP POP PUSH1 0x80 DUP10 ADD CALLDATALOAD PUSH8 0xFFFFFFFFFFFFFFFF DUP2 GT ISZERO PUSH3 0x211C JUMPI PUSH1 0x0 DUP1 REVERT JUMPDEST PUSH3 0x212A DUP12 DUP3 DUP13 ADD PUSH3 0x1F99 JUMP JUMPDEST SWAP5 POP POP PUSH1 0xA0 PUSH3 0x213D DUP12 DUP3 DUP13 ADD PUSH3 0x1F6D JUMP JUMPDEST SWAP4 POP POP PUSH1 0xC0 PUSH3 0x2150 DUP12 DUP3 DUP13 ADD PUSH3 0x1F6D JUMP JUMPDEST SWAP3 POP POP PUSH1 0xE0 PUSH3 0x2163 DUP12 DUP3 DUP13 ADD PUSH3 0x1FF7 JUMP JUMPDEST SWAP2 POP POP SWAP3 SWAP6 SWAP9 POP SWAP3 SWAP6 SWAP9 SWAP1 SWAP4 SWAP7 POP JUMP JUMPDEST PUSH1 0x0 PUSH1 0x20 DUP3 DUP5 SUB SLT ISZERO PUSH3 0x2186 JUMPI PUSH1 0x0 DUP1 REVERT JUMPDEST PUSH1 0x0 DUP3 ADD CALLDATALOAD PUSH8 0xFFFFFFFFFFFFFFFF DUP2 GT ISZERO PUSH3 0x21A1 JUMPI PUSH1 0x0 DUP1 REVERT JUMPDEST PUSH3 0x21AF DUP5 DUP3 DUP6 ADD PUSH3 0x1F99 JUMP JUMPDEST SWAP2 POP POP SWAP3 SWAP2 POP POP JUMP JUMPDEST PUSH1 0x0 DUP1 PUSH1 0x0 DUP1 PUSH1 0x0 DUP1 PUSH1 0xC0 DUP8 DUP10 SUB SLT ISZERO PUSH3 0x21D2 JUMPI PUSH1 0x0 DUP1 REVERT JUMPDEST PUSH1 0x0 DUP8 ADD CALLDATALOAD PUSH8 0xFFFFFFFFFFFFFFFF DUP2 GT ISZERO PUSH3 0x21ED JUMPI PUSH1 0x0 DUP1 REVERT JUMPDEST PUSH3 0x21FB DUP10 DUP3 DUP11 ADD PUSH3 0x1F99 JUMP JUMPDEST SWAP7 POP POP PUSH1 0x20 PUSH3 0x220E DUP10 DUP3 DUP11 ADD PUSH3 0x1F83 JUMP JUMPDEST SWAP6 POP POP PUSH1 0x40 PUSH3 0x2221 DUP10 DUP3 DUP11 ADD PUSH3 0x1F83 JUMP JUMPDEST SWAP5 POP POP PUSH1 0x60 DUP8 ADD CALLDATALOAD PUSH8 0xFFFFFFFFFFFFFFFF DUP2 GT ISZERO PUSH3 0x223F JUMPI PUSH1 0x0 DUP1 REVERT JUMPDEST PUSH3 0x224D DUP10 DUP3 DUP11 ADD PUSH3 0x1F99 JUMP JUMPDEST SWAP4 POP POP PUSH1 0x80 DUP8 ADD CALLDATALOAD PUSH8 0xFFFFFFFFFFFFFFFF DUP2 GT ISZERO PUSH3 0x226B JUMPI PUSH1 0x0 DUP1 REVERT JUMPDEST PUSH3 0x2279 DUP10 DUP3 DUP11 ADD PUSH3 0x1F99 JUMP JUMPDEST SWAP3 POP POP PUSH1 0xA0 PUSH3 0x228C DUP10 DUP3 DUP11 ADD PUSH3 0x1F83 JUMP JUMPDEST SWAP2 POP POP SWAP3 SWAP6 POP SWAP3 SWAP6 POP SWAP3 SWAP6 JUMP JUMPDEST PUSH1 0x0 DUP1 PUSH1 0x40 DUP4 DUP6 SUB SLT ISZERO PUSH3 0x22AD JUMPI PUSH1 0x0 DUP1 REVERT JUMPDEST PUSH1 0x0 PUSH3 0x22BD DUP6 DUP3 DUP7 ADD PUSH3 0x1FF7 JUMP JUMPDEST SWAP3 POP POP PUSH1 0x20 PUSH3 0x22D0 DUP6 DUP3 DUP7 ADD PUSH3 0x1F6D JUMP JUMPDEST SWAP2 POP POP SWAP3 POP SWAP3 SWAP1 POP JUMP JUMPDEST PUSH3 0x22E5 DUP2 PUSH3 0x2870 JUMP JUMPDEST DUP3 MSTORE POP POP JUMP JUMPDEST PUSH3 0x22F6 DUP2 PUSH3 0x27E8 JUMP JUMPDEST DUP3 MSTORE POP POP JUMP JUMPDEST PUSH1 0x0 PUSH3 0x2309 DUP3 PUSH3 0x27A2 JUMP JUMPDEST DUP1 DUP5 MSTORE PUSH1 0x20 DUP5 ADD SWAP4 POP PUSH3 0x231D DUP4 PUSH3 0x2788 JUMP JUMPDEST PUSH1 0x0 JUMPDEST DUP3 DUP2 LT ISZERO PUSH3 0x2355 JUMPI PUSH3 0x2336 DUP7 DUP4 MLOAD PUSH3 0x22EB JUMP JUMPDEST PUSH3 0x2341 DUP3 PUSH3 0x27CE JUMP JUMPDEST SWAP2 POP PUSH1 0x20 DUP7 ADD SWAP6 POP PUSH1 0x1 DUP2 ADD SWAP1 POP PUSH3 0x2320 JUMP JUMPDEST POP DUP5 SWAP3 POP POP POP SWAP3 SWAP2 POP POP JUMP JUMPDEST PUSH1 0x0 PUSH3 0x236E DUP3 PUSH3 0x27AD JUMP JUMPDEST DUP1 DUP5 MSTORE PUSH1 0x20 DUP5 ADD SWAP4 POP DUP4 PUSH1 0x20 DUP3 MUL DUP6 ADD PUSH3 0x2389 DUP6 PUSH3 0x2795 JUMP JUMPDEST PUSH1 0x0 JUMPDEST DUP5 DUP2 LT ISZERO PUSH3 0x23C8 JUMPI DUP4 DUP4 SUB DUP9 MSTORE PUSH3 0x23A7 DUP4 DUP4 MLOAD PUSH3 0x2473 JUMP JUMPDEST SWAP3 POP PUSH3 0x23B4 DUP3 PUSH3 0x27DB JUMP JUMPDEST SWAP2 POP PUSH1 0x20 DUP9 ADD SWAP8 POP PUSH1 0x1 DUP2 ADD SWAP1 POP PUSH3 0x238C JUMP JUMPDEST POP DUP2 SWAP7 POP DUP7 SWAP5 POP POP POP POP POP SWAP3 SWAP2 POP POP JUMP JUMPDEST PUSH3 0x23E4 DUP2 PUSH3 0x27FC JUMP JUMPDEST DUP3 MSTORE POP POP JUMP JUMPDEST PUSH3 0x23F5 DUP2 PUSH3 0x2808 JUMP JUMPDEST DUP3 MSTORE POP POP JUMP JUMPDEST PUSH1 0x0 PUSH3 0x2408 DUP3 PUSH3 0x27C3 JUMP JUMPDEST DUP1 DUP5 MSTORE PUSH3 0x241E DUP2 PUSH1 0x20 DUP7 ADD PUSH1 0x20 DUP7 ADD PUSH3 0x28BB JUMP JUMPDEST PUSH3 0x2429 DUP2 PUSH3 0x28F1 JUMP JUMPDEST PUSH1 0x20 DUP6 ADD ADD SWAP2 POP POP SWAP3 SWAP2 POP POP JUMP JUMPDEST PUSH1 0x0 PUSH3 0x2444 DUP3 PUSH3 0x27B8 JUMP JUMPDEST DUP1 DUP5 MSTORE PUSH3 0x245A DUP2 PUSH1 0x20 DUP7 ADD PUSH1 0x20 DUP7 ADD PUSH3 0x28BB JUMP JUMPDEST PUSH3 0x2465 DUP2 PUSH3 0x28F1 JUMP JUMPDEST PUSH1 0x20 DUP6 ADD ADD SWAP2 POP POP SWAP3 SWAP2 POP POP JUMP JUMPDEST PUSH1 0x0 PUSH2 0x120 DUP4 ADD PUSH1 0x0 DUP4 ADD MLOAD PUSH3 0x248E PUSH1 0x0 DUP7 ADD DUP3 PUSH3 0x22EB JUMP JUMPDEST POP PUSH1 0x20 DUP4 ADD MLOAD PUSH3 0x24A3 PUSH1 0x20 DUP7 ADD DUP3 PUSH3 0x22EB JUMP JUMPDEST POP PUSH1 0x40 DUP4 ADD MLOAD DUP5 DUP3 SUB PUSH1 0x40 DUP7 ADD MSTORE PUSH3 0x24BD DUP3 DUP3 PUSH3 0x2437 JUMP JUMPDEST SWAP2 POP POP PUSH1 0x60 DUP4 ADD MLOAD DUP5 DUP3 SUB PUSH1 0x60 DUP7 ADD MSTORE PUSH3 0x24D9 DUP3 DUP3 PUSH3 0x2437 JUMP JUMPDEST SWAP2 POP POP PUSH1 0x80 DUP4 ADD MLOAD PUSH3 0x24F0 PUSH1 0x80 DUP7 ADD DUP3 PUSH3 0x23D9 JUMP JUMPDEST POP PUSH1 0xA0 DUP4 ADD MLOAD PUSH3 0x2505 PUSH1 0xA0 DUP7 ADD DUP3 PUSH3 0x23D9 JUMP JUMPDEST POP PUSH1 0xC0 DUP4 ADD MLOAD DUP5 DUP3 SUB PUSH1 0xC0 DUP7 ADD MSTORE PUSH3 0x251F DUP3 DUP3 PUSH3 0x2437 JUMP JUMPDEST SWAP2 POP POP PUSH1 0xE0 DUP4 ADD MLOAD PUSH3 0x2536 PUSH1 0xE0 DUP7 ADD DUP3 PUSH3 0x2558 JUMP JUMPDEST POP PUSH2 0x100 DUP4 ADD MLOAD PUSH3 0x254D PUSH2 0x100 DUP7 ADD DUP3 PUSH3 0x2558 JUMP JUMPDEST POP DUP1 SWAP2 POP POP SWAP3 SWAP2 POP POP JUMP JUMPDEST PUSH3 0x2563 DUP2 PUSH3 0x2832 JUMP JUMPDEST DUP3 MSTORE POP POP JUMP JUMPDEST PUSH1 0x0 PUSH1 0xC0 DUP3 ADD SWAP1 POP PUSH3 0x2580 PUSH1 0x0 DUP4 ADD DUP10 PUSH3 0x22EB JUMP JUMPDEST DUP2 DUP2 SUB PUSH1 0x20 DUP4 ADD MSTORE PUSH3 0x2594 DUP2 DUP9 PUSH3 0x23FB JUMP JUMPDEST SWAP1 POP PUSH3 0x25A5 PUSH1 0x40 DUP4 ADD DUP8 PUSH3 0x23EA JUMP JUMPDEST PUSH3 0x25B4 PUSH1 0x60 DUP4 ADD DUP7 PUSH3 0x23EA JUMP JUMPDEST DUP2 DUP2 SUB PUSH1 0x80 DUP4 ADD MSTORE PUSH3 0x25C8 DUP2 DUP6 PUSH3 0x23FB JUMP JUMPDEST SWAP1 POP DUP2 DUP2 SUB PUSH1 0xA0 DUP4 ADD MSTORE PUSH3 0x25DE DUP2 DUP5 PUSH3 0x23FB JUMP JUMPDEST SWAP1 POP SWAP8 SWAP7 POP POP POP POP POP POP POP JUMP JUMPDEST PUSH1 0x0 PUSH1 0x20 DUP3 ADD SWAP1 POP PUSH3 0x2602 PUSH1 0x0 DUP4 ADD DUP5 PUSH3 0x23D9 JUMP JUMPDEST SWAP3 SWAP2 POP POP JUMP JUMPDEST PUSH1 0x0 PUSH2 0x120 DUP3 ADD SWAP1 POP PUSH3 0x2620 PUSH1 0x0 DUP4 ADD DUP13 PUSH3 0x23D9 JUMP JUMPDEST PUSH3 0x262F PUSH1 0x20 DUP4 ADD DUP12 PUSH3 0x2558 JUMP JUMPDEST PUSH3 0x263E PUSH1 0x40 DUP4 ADD DUP11 PUSH3 0x2558 JUMP JUMPDEST PUSH3 0x264D PUSH1 0x60 DUP4 ADD DUP10 PUSH3 0x2558 JUMP JUMPDEST PUSH3 0x265C PUSH1 0x80 DUP4 ADD DUP9 PUSH3 0x2558 JUMP JUMPDEST DUP2 DUP2 SUB PUSH1 0xA0 DUP4 ADD MSTORE PUSH3 0x2670 DUP2 DUP8 PUSH3 0x22FC JUMP JUMPDEST SWAP1 POP DUP2 DUP2 SUB PUSH1 0xC0 DUP4 ADD MSTORE PUSH3 0x2686 DUP2 DUP7 PUSH3 0x2361 JUMP JUMPDEST SWAP1 POP DUP2 DUP2 SUB PUSH1 0xE0 DUP4 ADD MSTORE PUSH3 0x269C DUP2 DUP6 PUSH3 0x2361 JUMP JUMPDEST SWAP1 POP DUP2 DUP2 SUB PUSH2 0x100 DUP4 ADD MSTORE PUSH3 0x26B3 DUP2 DUP5 PUSH3 0x2361 JUMP JUMPDEST SWAP1 POP SWAP11 SWAP10 POP POP POP POP POP POP POP POP POP POP JUMP JUMPDEST PUSH1 0x0 PUSH1 0x40 DUP3 ADD SWAP1 POP PUSH3 0x26DA PUSH1 0x0 DUP4 ADD DUP6 PUSH3 0x23EA JUMP JUMPDEST PUSH3 0x26E9 PUSH1 0x20 DUP4 ADD DUP5 PUSH3 0x22EB JUMP JUMPDEST SWAP4 SWAP3 POP POP POP JUMP JUMPDEST PUSH1 0x0 PUSH1 0x60 DUP3 ADD SWAP1 POP PUSH3 0x2707 PUSH1 0x0 DUP4 ADD DUP7 PUSH3 0x2558 JUMP JUMPDEST PUSH3 0x2716 PUSH1 0x20 DUP4 ADD DUP6 PUSH3 0x22DA JUMP JUMPDEST PUSH3 0x2725 PUSH1 0x40 DUP4 ADD DUP5 PUSH3 0x23D9 JUMP JUMPDEST SWAP5 SWAP4 POP POP POP POP JUMP JUMPDEST PUSH1 0x0 PUSH1 0x40 MLOAD SWAP1 POP DUP2 DUP2 ADD DUP2 DUP2 LT PUSH8 0xFFFFFFFFFFFFFFFF DUP3 GT OR ISZERO PUSH3 0x2751 JUMPI PUSH1 0x0 DUP1 REVERT JUMPDEST DUP1 PUSH1 0x40 MSTORE POP SWAP2 SWAP1 POP JUMP JUMPDEST PUSH1 0x0 PUSH8 0xFFFFFFFFFFFFFFFF DUP3 GT ISZERO PUSH3 0x2773 JUMPI PUSH1 0x0 DUP1 REVERT JUMPDEST PUSH1 0x1F NOT PUSH1 0x1F DUP4 ADD AND SWAP1 POP PUSH1 0x20 DUP2 ADD SWAP1 POP SWAP2 SWAP1 POP JUMP JUMPDEST PUSH1 0x0 PUSH1 0x20 DUP3 ADD SWAP1 POP SWAP2 SWAP1 POP JUMP JUMPDEST PUSH1 0x0 PUSH1 0x20 DUP3 ADD SWAP1 POP SWAP2 SWAP1 POP JUMP JUMPDEST PUSH1 0x0 DUP2 MLOAD SWAP1 POP SWAP2 SWAP1 POP JUMP JUMPDEST PUSH1 0x0 DUP2 MLOAD SWAP1 POP SWAP2 SWAP1 POP JUMP JUMPDEST PUSH1 0x0 DUP2 MLOAD SWAP1 POP SWAP2 SWAP1 POP JUMP JUMPDEST PUSH1 0x0 DUP2 MLOAD SWAP1 POP SWAP2 SWAP1 POP JUMP JUMPDEST PUSH1 0x0 PUSH1 0x20 DUP3 ADD SWAP1 POP SWAP2 SWAP1 POP JUMP JUMPDEST PUSH1 0x0 PUSH1 0x20 DUP3 ADD SWAP1 POP SWAP2 SWAP1 POP JUMP JUMPDEST PUSH1 0x0 PUSH3 0x27F5 DUP3 PUSH3 0x2812 JUMP JUMPDEST SWAP1 POP SWAP2 SWAP1 POP JUMP JUMPDEST PUSH1 0x0 DUP2 ISZERO ISZERO SWAP1 POP SWAP2 SWAP1 POP JUMP JUMPDEST PUSH1 0x0 DUP2 SWAP1 POP SWAP2 SWAP1 POP JUMP JUMPDEST PUSH1 0x0 PUSH20 0xFFFFFFFFFFFFFFFFFFFFFFFFFFFFFFFFFFFFFFFF DUP3 AND SWAP1 POP SWAP2 SWAP1 POP JUMP JUMPDEST PUSH1 0x0 DUP2 SWAP1 POP SWAP2 SWAP1 POP JUMP JUMPDEST PUSH1 0x0 PUSH3 0x2849 DUP3 PUSH3 0x2812 JUMP JUMPDEST SWAP1 POP SWAP2 SWAP1 POP JUMP JUMPDEST PUSH1 0x0 DUP2 ISZERO ISZERO SWAP1 POP SWAP2 SWAP1 POP JUMP JUMPDEST PUSH1 0x0 DUP2 SWAP1 POP SWAP2 SWAP1 POP JUMP JUMPDEST PUSH1 0x0 DUP2 SWAP1 POP SWAP2 SWAP1 POP JUMP JUMPDEST PUSH1 0x0 PUSH3 0x287D DUP3 PUSH3 0x2884 JUMP JUMPDEST SWAP1 POP SWAP2 SWAP1 POP JUMP JUMPDEST PUSH1 0x0 PUSH3 0x2891 DUP3 PUSH3 0x2898 JUMP JUMPDEST SWAP1 POP SWAP2 SWAP1 POP JUMP JUMPDEST PUSH1 0x0 PUSH3 0x28A5 DUP3 PUSH3 0x2812 JUMP JUMPDEST SWAP1 POP SWAP2 SWAP1 POP JUMP JUMPDEST DUP3 DUP2 DUP4 CALLDATACOPY PUSH1 0x0 DUP4 DUP4 ADD MSTORE POP POP POP JUMP JUMPDEST PUSH1 0x0 JUMPDEST DUP4 DUP2 LT ISZERO PUSH3 0x28DB JUMPI DUP1 DUP3 ADD MLOAD DUP2 DUP5 ADD MSTORE PUSH1 0x20 DUP2 ADD SWAP1 POP PUSH3 0x28BE JUMP JUMPDEST DUP4 DUP2 GT ISZERO PUSH3 0x28EB JUMPI PUSH1 0x0 DUP5 DUP5 ADD MSTORE JUMPDEST POP POP POP POP JUMP JUMPDEST PUSH1 0x0 PUSH1 0x1F NOT PUSH1 0x1F DUP4 ADD AND SWAP1 POP SWAP2 SWAP1 POP JUMP INVALID PUSH1 0x80 PUSH1 0x40 MSTORE PUSH32 0xFFFFFFFFFFFFFFFFFFFFFFFFFFFFFFFFFFFFFFFFFFFFFFFFFFFFFFFFFFFFFFFF PUSH1 0x7 SSTORE CALLVALUE DUP1 ISZERO PUSH3 0x35 JUMPI PUSH1 0x0 DUP1 REVERT JUMPDEST POP PUSH1 0x40 MLOAD PUSH3 0x1689 CODESIZE SUB DUP1 PUSH3 0x1689 DUP4 CODECOPY DUP2 ADD DUP1 PUSH1 0x40 MSTORE PUSH3 0x5B SWAP2 SWAP1 DUP2 ADD SWAP1 PUSH3 0x27A JUMP JUMPDEST ADDRESS PUSH1 0x0 DUP1 PUSH2 0x100 EXP DUP2 SLOAD DUP2 PUSH20 0xFFFFFFFFFFFFFFFFFFFFFFFFFFFFFFFFFFFFFFFF MUL NOT AND SWAP1 DUP4 PUSH20 0xFFFFFFFFFFFFFFFFFFFFFFFFFFFFFFFFFFFFFFFF AND MUL OR SWAP1 SSTORE POP DUP6 PUSH1 0x1 PUSH1 0x0 PUSH2 0x100 EXP DUP2 SLOAD DUP2 PUSH20 0xFFFFFFFFFFFFFFFFFFFFFFFFFFFFFFFFFFFFFFFF MUL NOT AND SWAP1 DUP4 PUSH20 0xFFFFFFFFFFFFFFFFFFFFFFFFFFFFFFFFFFFFFFFF AND MUL OR SWAP1 SSTORE POP DUP5 PUSH1 0x2 SWAP1 DUP1 MLOAD SWAP1 PUSH1 0x20 ADD SWAP1 PUSH3 0xF4 SWAP3 SWAP2 SWAP1 PUSH3 0x141 JUMP JUMPDEST POP DUP2 PUSH1 0x4 SWAP1 DUP1 MLOAD SWAP1 PUSH1 0x20 ADD SWAP1 PUSH3 0x10D SWAP3 SWAP2 SWAP1 PUSH3 0x141 JUMP JUMPDEST POP DUP1 PUSH1 0x5 SWAP1 DUP1 MLOAD SWAP1 PUSH1 0x20 ADD SWAP1 PUSH3 0x126 SWAP3 SWAP2 SWAP1 PUSH3 0x141 JUMP JUMPDEST POP DUP4 PUSH1 0x3 DUP2 SWAP1 SSTORE POP DUP3 PUSH1 0x6 DUP2 SWAP1 SSTORE POP POP POP POP POP POP POP PUSH3 0x42A JUMP JUMPDEST DUP3 DUP1 SLOAD PUSH1 0x1 DUP2 PUSH1 0x1 AND ISZERO PUSH2 0x100 MUL SUB AND PUSH1 0x2 SWAP1 DIV SWAP1 PUSH1 0x0 MSTORE PUSH1 0x20 PUSH1 0x0 KECCAK256 SWAP1 PUSH1 0x1F ADD PUSH1 0x20 SWAP1 DIV DUP2 ADD SWAP3 DUP3 PUSH1 0x1F LT PUSH3 0x184 JUMPI DUP1 MLOAD PUSH1 0xFF NOT AND DUP4 DUP1 ADD OR DUP6 SSTORE PUSH3 0x1B5 JUMP JUMPDEST DUP3 DUP1 ADD PUSH1 0x1 ADD DUP6 SSTORE DUP3 ISZERO PUSH3 0x1B5 JUMPI SWAP2 DUP3 ADD JUMPDEST DUP3 DUP2 GT ISZERO PUSH3 0x1B4 JUMPI DUP3 MLOAD DUP3 SSTORE SWAP2 PUSH1 0x20 ADD SWAP2 SWAP1 PUSH1 0x1 ADD SWAP1 PUSH3 0x197 JUMP JUMPDEST JUMPDEST POP SWAP1 POP PUSH3 0x1C4 SWAP2 SWAP1 PUSH3 0x1C8 JUMP JUMPDEST POP SWAP1 JUMP JUMPDEST PUSH3 0x1ED SWAP2 SWAP1 JUMPDEST DUP1 DUP3 GT ISZERO PUSH3 0x1E9 JUMPI PUSH1 0x0 DUP2 PUSH1 0x0 SWAP1 SSTORE POP PUSH1 0x1 ADD PUSH3 0x1CF JUMP JUMPDEST POP SWAP1 JUMP JUMPDEST SWAP1 JUMP JUMPDEST PUSH1 0x0 PUSH3 0x1FE DUP3 MLOAD PUSH3 0x3D6 JUMP JUMPDEST SWAP1 POP SWAP3 SWAP2 POP POP JUMP JUMPDEST PUSH1 0x0 PUSH3 0x214 DUP3 MLOAD PUSH3 0x3EA JUMP JUMPDEST SWAP1 POP SWAP3 SWAP2 POP POP JUMP JUMPDEST PUSH1 0x0 DUP3 PUSH1 0x1F DUP4 ADD SLT ISZERO ISZERO PUSH3 0x230 JUMPI PUSH1 0x0 DUP1 REVERT JUMPDEST DUP2 MLOAD PUSH3 0x247 PUSH3 0x241 DUP3 PUSH3 0x389 JUMP JUMPDEST PUSH3 0x35B JUMP JUMPDEST SWAP2 POP DUP1 DUP3 MSTORE PUSH1 0x20 DUP4 ADD PUSH1 0x20 DUP4 ADD DUP6 DUP4 DUP4 ADD GT ISZERO PUSH3 0x264 JUMPI PUSH1 0x0 DUP1 REVERT JUMPDEST PUSH3 0x271 DUP4 DUP3 DUP5 PUSH3 0x3F4 JUMP JUMPDEST POP POP POP SWAP3 SWAP2 POP POP JUMP JUMPDEST PUSH1 0x0 DUP1 PUSH1 0x0 DUP1 PUSH1 0x0 DUP1 PUSH1 0xC0 DUP8 DUP10 SUB SLT ISZERO PUSH3 0x294 JUMPI PUSH1 0x0 DUP1 REVERT JUMPDEST PUSH1 0x0 PUSH3 0x2A4 DUP10 DUP3 DUP11 ADD PUSH3 0x1F0 JUMP JUMPDEST SWAP7 POP POP PUSH1 0x20 DUP8 ADD MLOAD PUSH8 0xFFFFFFFFFFFFFFFF DUP2 GT ISZERO PUSH3 0x2C2 JUMPI PUSH1 0x0 DUP1 REVERT JUMPDEST PUSH3 0x2D0 DUP10 DUP3 DUP11 ADD PUSH3 0x21C JUMP JUMPDEST SWAP6 POP POP PUSH1 0x40 PUSH3 0x2E3 DUP10 DUP3 DUP11 ADD PUSH3 0x206 JUMP JUMPDEST SWAP5 POP POP PUSH1 0x60 PUSH3 0x2F6 DUP10 DUP3 DUP11 ADD PUSH3 0x206 JUMP JUMPDEST SWAP4 POP POP PUSH1 0x80 DUP8 ADD MLOAD PUSH8 0xFFFFFFFFFFFFFFFF DUP2 GT ISZERO PUSH3 0x314 JUMPI PUSH1 0x0 DUP1 REVERT JUMPDEST PUSH3 0x322 DUP10 DUP3 DUP11 ADD PUSH3 0x21C JUMP JUMPDEST SWAP3 POP POP PUSH1 0xA0 DUP8 ADD MLOAD PUSH8 0xFFFFFFFFFFFFFFFF DUP2 GT ISZERO PUSH3 0x340 JUMPI PUSH1 0x0 DUP1 REVERT JUMPDEST PUSH3 0x34E DUP10 DUP3 DUP11 ADD PUSH3 0x21C JUMP JUMPDEST SWAP2 POP POP SWAP3 SWAP6 POP SWAP3 SWAP6 POP SWAP3 SWAP6 JUMP JUMPDEST PUSH1 0x0 PUSH1 0x40 MLOAD SWAP1 POP DUP2 DUP2 ADD DUP2 DUP2 LT PUSH8 0xFFFFFFFFFFFFFFFF DUP3 GT OR ISZERO PUSH3 0x37F JUMPI PUSH1 0x0 DUP1 REVERT JUMPDEST DUP1 PUSH1 0x40 MSTORE POP SWAP2 SWAP1 POP JUMP JUMPDEST PUSH1 0x0 PUSH8 0xFFFFFFFFFFFFFFFF DUP3 GT ISZERO PUSH3 0x3A1 JUMPI PUSH1 0x0 DUP1 REVERT JUMPDEST PUSH1 0x1F NOT PUSH1 0x1F DUP4 ADD AND SWAP1 POP PUSH1 0x20 DUP2 ADD SWAP1 POP SWAP2 SWAP1 POP JUMP JUMPDEST PUSH1 0x0 PUSH20 0xFFFFFFFFFFFFFFFFFFFFFFFFFFFFFFFFFFFFFFFF DUP3 AND SWAP1 POP SWAP2 SWAP1 POP JUMP JUMPDEST PUSH1 0x0 PUSH3 0x3E3 DUP3 PUSH3 0x3B6 JUMP JUMPDEST SWAP1 POP SWAP2 SWAP1 POP JUMP JUMPDEST PUSH1 0x0 DUP2 SWAP1 POP SWAP2 SWAP1 POP JUMP JUMPDEST PUSH1 0x0 JUMPDEST DUP4 DUP2 LT ISZERO PUSH3 0x414 JUMPI DUP1 DUP3 ADD MLOAD DUP2 DUP5 ADD MSTORE PUSH1 0x20 DUP2 ADD SWAP1 POP PUSH3 0x3F7 JUMP JUMPDEST DUP4 DUP2 GT ISZERO PUSH3 0x424 JUMPI PUSH1 0x0 DUP5 DUP5 ADD MSTORE JUMPDEST POP POP POP POP JUMP JUMPDEST PUSH2 0x124F DUP1 PUSH3 0x43A PUSH1 0x0 CODECOPY PUSH1 0x0 RETURN INVALID PUSH1 0x80 PUSH1 0x40 MSTORE CALLVALUE DUP1 ISZERO PUSH2 0x10 JUMPI PUSH1 0x0 DUP1 REVERT JUMPDEST POP PUSH1 0x4 CALLDATASIZE LT PUSH2 0x5E JUMPI PUSH1 0x0 CALLDATALOAD PUSH29 0x100000000000000000000000000000000000000000000000000000000 SWAP1 DIV DUP1 PUSH4 0x3BC5DE30 EQ PUSH2 0x63 JUMPI DUP1 PUSH4 0x72102D18 EQ PUSH2 0x88 JUMPI DUP1 PUSH4 0x83BFFB88 EQ PUSH2 0xA4 JUMPI JUMPDEST PUSH1 0x0 DUP1 REVERT JUMPDEST PUSH2 0x6B PUSH2 0xC0 JUMP JUMPDEST PUSH1 0x40 MLOAD PUSH2 0x7F SWAP9 SWAP8 SWAP7 SWAP6 SWAP5 SWAP4 SWAP3 SWAP2 SWAP1 PUSH2 0xF87 JUMP JUMPDEST PUSH1 0x40 MLOAD DUP1 SWAP2 SUB SWAP1 RETURN JUMPDEST PUSH2 0xA2 PUSH1 0x4 DUP1 CALLDATASIZE SUB PUSH2 0x9D SWAP2 SWAP1 DUP2 ADD SWAP1 PUSH2 0xD3A JUMP JUMPDEST PUSH2 0x661 JUMP JUMPDEST STOP JUMPDEST PUSH2 0xBE PUSH1 0x4 DUP1 CALLDATASIZE SUB PUSH2 0xB9 SWAP2 SWAP1 DUP2 ADD SWAP1 PUSH2 0xCA3 JUMP JUMPDEST PUSH2 0x7B4 JUMP JUMPDEST STOP JUMPDEST PUSH1 0x0 DUP1 PUSH1 0x60 PUSH1 0x0 PUSH1 0x60 DUP1 PUSH1 0x0 PUSH1 0x60 PUSH1 0x0 DUP1 SWAP1 SLOAD SWAP1 PUSH2 0x100 EXP SWAP1 DIV PUSH20 0xFFFFFFFFFFFFFFFFFFFFFFFFFFFFFFFFFFFFFFFF AND PUSH1 0x1 PUSH1 0x0 SWAP1 SLOAD SWAP1 PUSH2 0x100 EXP SWAP1 DIV PUSH20 0xFFFFFFFFFFFFFFFFFFFFFFFFFFFFFFFFFFFFFFFF AND PUSH1 0x2 PUSH1 0x3 SLOAD PUSH1 0x4 PUSH1 0x5 PUSH1 0x6 SLOAD PUSH1 0x8 DUP6 DUP1 SLOAD PUSH1 0x1 DUP2 PUSH1 0x1 AND ISZERO PUSH2 0x100 MUL SUB AND PUSH1 0x2 SWAP1 DIV DUP1 PUSH1 0x1F ADD PUSH1 0x20 DUP1 SWAP2 DIV MUL PUSH1 0x20 ADD PUSH1 0x40 MLOAD SWAP1 DUP2 ADD PUSH1 0x40 MSTORE DUP1 SWAP3 SWAP2 SWAP1 DUP2 DUP2 MSTORE PUSH1 0x20 ADD DUP3 DUP1 SLOAD PUSH1 0x1 DUP2 PUSH1 0x1 AND ISZERO PUSH2 0x100 MUL SUB AND PUSH1 0x2 SWAP1 DIV DUP1 ISZERO PUSH2 0x1B6 JUMPI DUP1 PUSH1 0x1F LT PUSH2 0x18B JUMPI PUSH2 0x100 DUP1 DUP4 SLOAD DIV MUL DUP4 MSTORE SWAP2 PUSH1 0x20 ADD SWAP2 PUSH2 0x1B6 JUMP JUMPDEST DUP3 ADD SWAP2 SWAP1 PUSH1 0x0 MSTORE PUSH1 0x20 PUSH1 0x0 KECCAK256 SWAP1 JUMPDEST DUP2 SLOAD DUP2 MSTORE SWAP1 PUSH1 0x1 ADD SWAP1 PUSH1 0x20 ADD DUP1 DUP4 GT PUSH2 0x199 JUMPI DUP3 SWAP1 SUB PUSH1 0x1F AND DUP3 ADD SWAP2 JUMPDEST POP POP POP POP POP SWAP6 POP DUP4 DUP1 SLOAD PUSH1 0x1 DUP2 PUSH1 0x1 AND ISZERO PUSH2 0x100 MUL SUB AND PUSH1 0x2 SWAP1 DIV DUP1 PUSH1 0x1F ADD PUSH1 0x20 DUP1 SWAP2 DIV MUL PUSH1 0x20 ADD PUSH1 0x40 MLOAD SWAP1 DUP2 ADD PUSH1 0x40 MSTORE DUP1 SWAP3 SWAP2 SWAP1 DUP2 DUP2 MSTORE PUSH1 0x20 ADD DUP3 DUP1 SLOAD PUSH1 0x1 DUP2 PUSH1 0x1 AND ISZERO PUSH2 0x100 MUL SUB AND PUSH1 0x2 SWAP1 DIV DUP1 ISZERO PUSH2 0x252 JUMPI DUP1 PUSH1 0x1F LT PUSH2 0x227 JUMPI PUSH2 0x100 DUP1 DUP4 SLOAD DIV MUL DUP4 MSTORE SWAP2 PUSH1 0x20 ADD SWAP2 PUSH2 0x252 JUMP JUMPDEST DUP3 ADD SWAP2 SWAP1 PUSH1 0x0 MSTORE PUSH1 0x20 PUSH1 0x0 KECCAK256 SWAP1 JUMPDEST DUP2 SLOAD DUP2 MSTORE SWAP1 PUSH1 0x1 ADD SWAP1 PUSH1 0x20 ADD DUP1 DUP4 GT PUSH2 0x235 JUMPI DUP3 SWAP1 SUB PUSH1 0x1F AND DUP3 ADD SWAP2 JUMPDEST POP POP POP POP POP SWAP4 POP DUP3 DUP1 SLOAD PUSH1 0x1 DUP2 PUSH1 0x1 AND ISZERO PUSH2 0x100 MUL SUB AND PUSH1 0x2 SWAP1 DIV DUP1 PUSH1 0x1F ADD PUSH1 0x20 DUP1 SWAP2 DIV MUL PUSH1 0x20 ADD PUSH1 0x40 MLOAD SWAP1 DUP2 ADD PUSH1 0x40 MSTORE DUP1 SWAP3 SWAP2 SWAP1 DUP2 DUP2 MSTORE PUSH1 0x20 ADD DUP3 DUP1 SLOAD PUSH1 0x1 DUP2 PUSH1 0x1 AND ISZERO PUSH2 0x100 MUL SUB AND PUSH1 0x2 SWAP1 DIV DUP1 ISZERO PUSH2 0x2EE JUMPI DUP1 PUSH1 0x1F LT PUSH2 0x2C3 JUMPI PUSH2 0x100 DUP1 DUP4 SLOAD DIV MUL DUP4 MSTORE SWAP2 PUSH1 0x20 ADD SWAP2 PUSH2 0x2EE JUMP JUMPDEST DUP3 ADD SWAP2 SWAP1 PUSH1 0x0 MSTORE PUSH1 0x20 PUSH1 0x0 KECCAK256 SWAP1 JUMPDEST DUP2 SLOAD DUP2 MSTORE SWAP1 PUSH1 0x1 ADD SWAP1 PUSH1 0x20 ADD DUP1 DUP4 GT PUSH2 0x2D1 JUMPI DUP3 SWAP1 SUB PUSH1 0x1F AND DUP3 ADD SWAP2 JUMPDEST POP POP POP POP POP SWAP3 POP DUP1 DUP1 SLOAD DUP1 PUSH1 0x20 MUL PUSH1 0x20 ADD PUSH1 0x40 MLOAD SWAP1 DUP2 ADD PUSH1 0x40 MSTORE DUP1 SWAP3 SWAP2 SWAP1 DUP2 DUP2 MSTORE PUSH1 0x20 ADD PUSH1 0x0 SWAP1 JUMPDEST DUP3 DUP3 LT ISZERO PUSH2 0x641 JUMPI DUP4 DUP3 SWAP1 PUSH1 0x0 MSTORE PUSH1 0x20 PUSH1 0x0 KECCAK256 SWAP1 PUSH1 0x9 MUL ADD PUSH2 0x140 PUSH1 0x40 MLOAD SWAP1 DUP2 ADD PUSH1 0x40 MSTORE SWAP1 DUP2 PUSH1 0x0 DUP3 ADD PUSH1 0x0 SWAP1 SLOAD SWAP1 PUSH2 0x100 EXP SWAP1 DIV PUSH20 0xFFFFFFFFFFFFFFFFFFFFFFFFFFFFFFFFFFFFFFFF AND PUSH20 0xFFFFFFFFFFFFFFFFFFFFFFFFFFFFFFFFFFFFFFFF AND PUSH20 0xFFFFFFFFFFFFFFFFFFFFFFFFFFFFFFFFFFFFFFFF AND DUP2 MSTORE PUSH1 0x20 ADD PUSH1 0x1 DUP3 ADD PUSH1 0x0 SWAP1 SLOAD SWAP1 PUSH2 0x100 EXP SWAP1 DIV PUSH20 0xFFFFFFFFFFFFFFFFFFFFFFFFFFFFFFFFFFFFFFFF AND PUSH20 0xFFFFFFFFFFFFFFFFFFFFFFFFFFFFFFFFFFFFFFFF AND PUSH20 0xFFFFFFFFFFFFFFFFFFFFFFFFFFFFFFFFFFFFFFFF AND DUP2 MSTORE PUSH1 0x20 ADD PUSH1 0x2 DUP3 ADD DUP1 SLOAD PUSH1 0x1 DUP2 PUSH1 0x1 AND ISZERO PUSH2 0x100 MUL SUB AND PUSH1 0x2 SWAP1 DIV DUP1 PUSH1 0x1F ADD PUSH1 0x20 DUP1 SWAP2 DIV MUL PUSH1 0x20 ADD PUSH1 0x40 MLOAD SWAP1 DUP2 ADD PUSH1 0x40 MSTORE DUP1 SWAP3 SWAP2 SWAP1 DUP2 DUP2 MSTORE PUSH1 0x20 ADD DUP3 DUP1 SLOAD PUSH1 0x1 DUP2 PUSH1 0x1 AND ISZERO PUSH2 0x100 MUL SUB AND PUSH1 0x2 SWAP1 DIV DUP1 ISZERO PUSH2 0x480 JUMPI DUP1 PUSH1 0x1F LT PUSH2 0x455 JUMPI PUSH2 0x100 DUP1 DUP4 SLOAD DIV MUL DUP4 MSTORE SWAP2 PUSH1 0x20 ADD SWAP2 PUSH2 0x480 JUMP JUMPDEST DUP3 ADD SWAP2 SWAP1 PUSH1 0x0 MSTORE PUSH1 0x20 PUSH1 0x0 KECCAK256 SWAP1 JUMPDEST DUP2 SLOAD DUP2 MSTORE SWAP1 PUSH1 0x1 ADD SWAP1 PUSH1 0x20 ADD DUP1 DUP4 GT PUSH2 0x463 JUMPI DUP3 SWAP1 SUB PUSH1 0x1F AND DUP3 ADD SWAP2 JUMPDEST POP POP POP POP POP DUP2 MSTORE PUSH1 0x20 ADD PUSH1 0x3 DUP3 ADD DUP1 SLOAD PUSH1 0x1 DUP2 PUSH1 0x1 AND ISZERO PUSH2 0x100 MUL SUB AND PUSH1 0x2 SWAP1 DIV DUP1 PUSH1 0x1F ADD PUSH1 0x20 DUP1 SWAP2 DIV MUL PUSH1 0x20 ADD PUSH1 0x40 MLOAD SWAP1 DUP2 ADD PUSH1 0x40 MSTORE DUP1 SWAP3 SWAP2 SWAP1 DUP2 DUP2 MSTORE PUSH1 0x20 ADD DUP3 DUP1 SLOAD PUSH1 0x1 DUP2 PUSH1 0x1 AND ISZERO PUSH2 0x100 MUL SUB AND PUSH1 0x2 SWAP1 DIV DUP1 ISZERO PUSH2 0x522 JUMPI DUP1 PUSH1 0x1F LT PUSH2 0x4F7 JUMPI PUSH2 0x100 DUP1 DUP4 SLOAD DIV MUL DUP4 MSTORE SWAP2 PUSH1 0x20 ADD SWAP2 PUSH2 0x522 JUMP JUMPDEST DUP3 ADD SWAP2 SWAP1 PUSH1 0x0 MSTORE PUSH1 0x20 PUSH1 0x0 KECCAK256 SWAP1 JUMPDEST DUP2 SLOAD DUP2 MSTORE SWAP1 PUSH1 0x1 ADD SWAP1 PUSH1 0x20 ADD DUP1 DUP4 GT PUSH2 0x505 JUMPI DUP3 SWAP1 SUB PUSH1 0x1F AND DUP3 ADD SWAP2 JUMPDEST POP POP POP POP POP DUP2 MSTORE PUSH1 0x20 ADD PUSH1 0x4 DUP3 ADD PUSH1 0x0 SWAP1 SLOAD SWAP1 PUSH2 0x100 EXP SWAP1 DIV PUSH1 0xFF AND ISZERO ISZERO ISZERO ISZERO DUP2 MSTORE PUSH1 0x20 ADD PUSH1 0x4 DUP3 ADD PUSH1 0x1 SWAP1 SLOAD SWAP1 PUSH2 0x100 EXP SWAP1 DIV PUSH1 0xFF AND ISZERO ISZERO ISZERO ISZERO DUP2 MSTORE PUSH1 0x20 ADD PUSH1 0x5 DUP3 ADD DUP1 SLOAD PUSH1 0x1 DUP2 PUSH1 0x1 AND ISZERO PUSH2 0x100 MUL SUB AND PUSH1 0x2 SWAP1 DIV DUP1 PUSH1 0x1F ADD PUSH1 0x20 DUP1 SWAP2 DIV MUL PUSH1 0x20 ADD PUSH1 0x40 MLOAD SWAP1 DUP2 ADD PUSH1 0x40 MSTORE DUP1 SWAP3 SWAP2 SWAP1 DUP2 DUP2 MSTORE PUSH1 0x20 ADD DUP3 DUP1 SLOAD PUSH1 0x1 DUP2 PUSH1 0x1 AND ISZERO PUSH2 0x100 MUL SUB AND PUSH1 0x2 SWAP1 DIV DUP1 ISZERO PUSH2 0x5FA JUMPI DUP1 PUSH1 0x1F LT PUSH2 0x5CF JUMPI PUSH2 0x100 DUP1 DUP4 SLOAD DIV MUL DUP4 MSTORE SWAP2 PUSH1 0x20 ADD SWAP2 PUSH2 0x5FA JUMP JUMPDEST DUP3 ADD SWAP2 SWAP1 PUSH1 0x0 MSTORE PUSH1 0x20 PUSH1 0x0 KECCAK256 SWAP1 JUMPDEST DUP2 SLOAD DUP2 MSTORE SWAP1 PUSH1 0x1 ADD SWAP1 PUSH1 0x20 ADD DUP1 DUP4 GT PUSH2 0x5DD JUMPI DUP3 SWAP1 SUB PUSH1 0x1F AND DUP3 ADD SWAP2 JUMPDEST POP POP POP POP POP DUP2 MSTORE PUSH1 0x20 ADD PUSH1 0x6 DUP3 ADD SLOAD DUP2 MSTORE PUSH1 0x20 ADD PUSH1 0x7 DUP3 ADD PUSH1 0x0 SWAP1 SLOAD SWAP1 PUSH2 0x100 EXP SWAP1 DIV PUSH1 0xFF AND ISZERO ISZERO ISZERO ISZERO DUP2 MSTORE PUSH1 0x20 ADD PUSH1 0x8 DUP3 ADD SLOAD DUP2 MSTORE POP POP DUP2 MSTORE PUSH1 0x20 ADD SWAP1 PUSH1 0x1 ADD SWAP1 PUSH2 0x316 JUMP JUMPDEST POP POP POP POP SWAP1 POP SWAP8 POP SWAP8 POP SWAP8 POP SWAP8 POP SWAP8 POP SWAP8 POP SWAP8 POP SWAP8 POP SWAP1 SWAP2 SWAP3 SWAP4 SWAP5 SWAP6 SWAP7 SWAP8 JUMP JUMPDEST PUSH1 0x1 PUSH1 0x0 SWAP1 SLOAD SWAP1 PUSH2 0x100 EXP SWAP1 DIV PUSH20 0xFFFFFFFFFFFFFFFFFFFFFFFFFFFFFFFFFFFFFFFF AND PUSH20 0xFFFFFFFFFFFFFFFFFFFFFFFFFFFFFFFFFFFFFFFF AND DUP3 PUSH20 0xFFFFFFFFFFFFFFFFFFFFFFFFFFFFFFFFFFFFFFFF AND EQ ISZERO PUSH2 0x7AF JUMPI PUSH1 0x1 ISZERO ISZERO DUP2 ISZERO ISZERO EQ ISZERO PUSH2 0x73B JUMPI PUSH1 0x1 PUSH1 0x8 DUP5 DUP2 SLOAD DUP2 LT ISZERO ISZERO PUSH2 0x6D5 JUMPI INVALID JUMPDEST SWAP1 PUSH1 0x0 MSTORE PUSH1 0x20 PUSH1 0x0 KECCAK256 SWAP1 PUSH1 0x9 MUL ADD PUSH1 0x7 ADD PUSH1 0x0 PUSH2 0x100 EXP DUP2 SLOAD DUP2 PUSH1 0xFF MUL NOT AND SWAP1 DUP4 ISZERO ISZERO MUL OR SWAP1 SSTORE POP PUSH1 0x1 PUSH1 0x8 DUP5 DUP2 SLOAD DUP2 LT ISZERO ISZERO PUSH2 0x70E JUMPI INVALID JUMPDEST SWAP1 PUSH1 0x0 MSTORE PUSH1 0x20 PUSH1 0x0 KECCAK256 SWAP1 PUSH1 0x9 MUL ADD PUSH1 0x4 ADD PUSH1 0x1 PUSH2 0x100 EXP DUP2 SLOAD DUP2 PUSH1 0xFF MUL NOT AND SWAP1 DUP4 ISZERO ISZERO MUL OR SWAP1 SSTORE POP PUSH2 0x7AE JUMP JUMPDEST PUSH1 0x1 PUSH1 0x8 DUP5 DUP2 SLOAD DUP2 LT ISZERO ISZERO PUSH2 0x74C JUMPI INVALID JUMPDEST SWAP1 PUSH1 0x0 MSTORE PUSH1 0x20 PUSH1 0x0 KECCAK256 SWAP1 PUSH1 0x9 MUL ADD PUSH1 0x7 ADD PUSH1 0x0 PUSH2 0x100 EXP DUP2 SLOAD DUP2 PUSH1 0xFF MUL NOT AND SWAP1 DUP4 ISZERO ISZERO MUL OR SWAP1 SSTORE POP PUSH1 0x0 PUSH1 0x8 DUP5 DUP2 SLOAD DUP2 LT ISZERO ISZERO PUSH2 0x785 JUMPI INVALID JUMPDEST SWAP1 PUSH1 0x0 MSTORE PUSH1 0x20 PUSH1 0x0 KECCAK256 SWAP1 PUSH1 0x9 MUL ADD PUSH1 0x4 ADD PUSH1 0x1 PUSH2 0x100 EXP DUP2 SLOAD DUP2 PUSH1 0xFF MUL NOT AND SWAP1 DUP4 ISZERO ISZERO MUL OR SWAP1 SSTORE POP JUMPDEST JUMPDEST POP POP POP JUMP JUMPDEST PUSH2 0x7BC PUSH2 0xAE6 JUMP JUMPDEST PUSH2 0x140 PUSH1 0x40 MLOAD SWAP1 DUP2 ADD PUSH1 0x40 MSTORE DUP1 PUSH1 0x1 PUSH1 0x0 SWAP1 SLOAD SWAP1 PUSH2 0x100 EXP SWAP1 DIV PUSH20 0xFFFFFFFFFFFFFFFFFFFFFFFFFFFFFFFFFFFFFFFF AND PUSH20 0xFFFFFFFFFFFFFFFFFFFFFFFFFFFFFFFFFFFFFFFF AND DUP2 MSTORE PUSH1 0x20 ADD ADDRESS PUSH20 0xFFFFFFFFFFFFFFFFFFFFFFFFFFFFFFFFFFFFFFFF AND DUP2 MSTORE PUSH1 0x20 ADD DUP5 DUP2 MSTORE PUSH1 0x20 ADD DUP4 DUP2 MSTORE PUSH1 0x20 ADD PUSH1 0x1 ISZERO ISZERO DUP2 MSTORE PUSH1 0x20 ADD PUSH1 0x0 ISZERO ISZERO DUP2 MSTORE PUSH1 0x20 ADD DUP6 DUP2 MSTORE PUSH1 0x20 ADD PUSH1 0x1 PUSH1 0x7 SLOAD ADD DUP2 MSTORE PUSH1 0x20 ADD PUSH1 0x0 ISZERO ISZERO DUP2 MSTORE PUSH1 0x20 ADD PUSH1 0x0 DUP2 MSTORE POP SWAP1 POP PUSH1 0x8 DUP2 SWAP1 DUP1 PUSH1 0x1 DUP2 SLOAD ADD DUP1 DUP3 SSTORE DUP1 SWAP2 POP POP SWAP1 PUSH1 0x1 DUP3 SUB SWAP1 PUSH1 0x0 MSTORE PUSH1 0x20 PUSH1 0x0 KECCAK256 SWAP1 PUSH1 0x9 MUL ADD PUSH1 0x0 SWAP1 SWAP2 SWAP3 SWAP1 SWAP2 SWAP1 SWAP2 POP PUSH1 0x0 DUP3 ADD MLOAD DUP2 PUSH1 0x0 ADD PUSH1 0x0 PUSH2 0x100 EXP DUP2 SLOAD DUP2 PUSH20 0xFFFFFFFFFFFFFFFFFFFFFFFFFFFFFFFFFFFFFFFF MUL NOT AND SWAP1 DUP4 PUSH20 0xFFFFFFFFFFFFFFFFFFFFFFFFFFFFFFFFFFFFFFFF AND MUL OR SWAP1 SSTORE POP PUSH1 0x20 DUP3 ADD MLOAD DUP2 PUSH1 0x1 ADD PUSH1 0x0 PUSH2 0x100 EXP DUP2 SLOAD DUP2 PUSH20 0xFFFFFFFFFFFFFFFFFFFFFFFFFFFFFFFFFFFFFFFF MUL NOT AND SWAP1 DUP4 PUSH20 0xFFFFFFFFFFFFFFFFFFFFFFFFFFFFFFFFFFFFFFFF AND MUL OR SWAP1 SSTORE POP PUSH1 0x40 DUP3 ADD MLOAD DUP2 PUSH1 0x2 ADD SWAP1 DUP1 MLOAD SWAP1 PUSH1 0x20 ADD SWAP1 PUSH2 0x93A SWAP3 SWAP2 SWAP1 PUSH2 0xB6C JUMP JUMPDEST POP PUSH1 0x60 DUP3 ADD MLOAD DUP2 PUSH1 0x3 ADD SWAP1 DUP1 MLOAD SWAP1 PUSH1 0x20 ADD SWAP1 PUSH2 0x957 SWAP3 SWAP2 SWAP1 PUSH2 0xB6C JUMP JUMPDEST POP PUSH1 0x80 DUP3 ADD MLOAD DUP2 PUSH1 0x4 ADD PUSH1 0x0 PUSH2 0x100 EXP DUP2 SLOAD DUP2 PUSH1 0xFF MUL NOT AND SWAP1 DUP4 ISZERO ISZERO MUL OR SWAP1 SSTORE POP PUSH1 0xA0 DUP3 ADD MLOAD DUP2 PUSH1 0x4 ADD PUSH1 0x1 PUSH2 0x100 EXP DUP2 SLOAD DUP2 PUSH1 0xFF MUL NOT AND SWAP1 DUP4 ISZERO ISZERO MUL OR SWAP1 SSTORE POP PUSH1 0xC0 DUP3 ADD MLOAD DUP2 PUSH1 0x5 ADD SWAP1 DUP1 MLOAD SWAP1 PUSH1 0x20 ADD SWAP1 PUSH2 0x9B4 SWAP3 SWAP2 SWAP1 PUSH2 0xB6C JUMP JUMPDEST POP PUSH1 0xE0 DUP3 ADD MLOAD DUP2 PUSH1 0x6 ADD SSTORE PUSH2 0x100 DUP3 ADD MLOAD DUP2 PUSH1 0x7 ADD PUSH1 0x0 PUSH2 0x100 EXP DUP2 SLOAD DUP2 PUSH1 0xFF MUL NOT AND SWAP1 DUP4 ISZERO ISZERO MUL OR SWAP1 SSTORE POP PUSH2 0x120 DUP3 ADD MLOAD DUP2 PUSH1 0x8 ADD SSTORE POP POP POP PUSH1 0x0 PUSH1 0x1 PUSH1 0x0 SWAP1 SLOAD SWAP1 PUSH2 0x100 EXP SWAP1 DIV PUSH20 0xFFFFFFFFFFFFFFFFFFFFFFFFFFFFFFFFFFFFFFFF AND SWAP1 POP DUP1 PUSH20 0xFFFFFFFFFFFFFFFFFFFFFFFFFFFFFFFFFFFFFFFF AND PUSH4 0x9B6B309A PUSH1 0x1 PUSH1 0x0 SWAP1 SLOAD SWAP1 PUSH2 0x100 EXP SWAP1 DIV PUSH20 0xFFFFFFFFFFFFFFFFFFFFFFFFFFFFFFFFFFFFFFFF AND ADDRESS DUP8 DUP8 DUP11 PUSH1 0x1 PUSH1 0x0 PUSH1 0x1 PUSH1 0x7 SLOAD ADD PUSH1 0x40 MLOAD DUP10 PUSH4 0xFFFFFFFF AND PUSH29 0x100000000000000000000000000000000000000000000000000000000 MUL DUP2 MSTORE PUSH1 0x4 ADD PUSH2 0xAA1 SWAP9 SWAP8 SWAP7 SWAP6 SWAP5 SWAP4 SWAP3 SWAP2 SWAP1 PUSH2 0x1021 JUMP JUMPDEST PUSH1 0x0 PUSH1 0x40 MLOAD DUP1 DUP4 SUB DUP2 PUSH1 0x0 DUP8 DUP1 EXTCODESIZE ISZERO DUP1 ISZERO PUSH2 0xABB JUMPI PUSH1 0x0 DUP1 REVERT JUMPDEST POP GAS CALL ISZERO DUP1 ISZERO PUSH2 0xACF JUMPI RETURNDATASIZE PUSH1 0x0 DUP1 RETURNDATACOPY RETURNDATASIZE PUSH1 0x0 REVERT JUMPDEST POP POP POP POP PUSH1 0x1 PUSH1 0x7 SLOAD ADD PUSH1 0x7 DUP2 SWAP1 SSTORE POP POP POP POP POP POP JUMP JUMPDEST PUSH2 0x140 PUSH1 0x40 MLOAD SWAP1 DUP2 ADD PUSH1 0x40 MSTORE DUP1 PUSH1 0x0 PUSH20 0xFFFFFFFFFFFFFFFFFFFFFFFFFFFFFFFFFFFFFFFF AND DUP2 MSTORE PUSH1 0x20 ADD PUSH1 0x0 PUSH20 0xFFFFFFFFFFFFFFFFFFFFFFFFFFFFFFFFFFFFFFFF AND DUP2 MSTORE PUSH1 0x20 ADD PUSH1 0x60 DUP2 MSTORE PUSH1 0x20 ADD PUSH1 0x60 DUP2 MSTORE PUSH1 0x20 ADD PUSH1 0x0 ISZERO ISZERO DUP2 MSTORE PUSH1 0x20 ADD PUSH1 0x0 ISZERO ISZERO DUP2 MSTORE PUSH1 0x20 ADD PUSH1 0x60 DUP2 MSTORE PUSH1 0x20 ADD PUSH1 0x0 DUP2 MSTORE PUSH1 0x20 ADD PUSH1 0x0 ISZERO ISZERO DUP2 MSTORE PUSH1 0x20 ADD PUSH1 0x0 DUP2 MSTORE POP SWAP1 JUMP JUMPDEST DUP3 DUP1 SLOAD PUSH1 0x1 DUP2 PUSH1 0x1 AND ISZERO PUSH2 0x100 MUL SUB AND PUSH1 0x2 SWAP1 DIV SWAP1 PUSH1 0x0 MSTORE PUSH1 0x20 PUSH1 0x0 KECCAK256 SWAP1 PUSH1 0x1F ADD PUSH1 0x20 SWAP1 DIV DUP2 ADD SWAP3 DUP3 PUSH1 0x1F LT PUSH2 0xBAD JUMPI DUP1 MLOAD PUSH1 0xFF NOT AND DUP4 DUP1 ADD OR DUP6 SSTORE PUSH2 0xBDB JUMP JUMPDEST DUP3 DUP1 ADD PUSH1 0x1 ADD DUP6 SSTORE DUP3 ISZERO PUSH2 0xBDB JUMPI SWAP2 DUP3 ADD JUMPDEST DUP3 DUP2 GT ISZERO PUSH2 0xBDA JUMPI DUP3 MLOAD DUP3 SSTORE SWAP2 PUSH1 0x20 ADD SWAP2 SWAP1 PUSH1 0x1 ADD SWAP1 PUSH2 0xBBF JUMP JUMPDEST JUMPDEST POP SWAP1 POP PUSH2 0xBE8 SWAP2 SWAP1 PUSH2 0xBEC JUMP JUMPDEST POP SWAP1 JUMP JUMPDEST PUSH2 0xC0E SWAP2 SWAP1 JUMPDEST DUP1 DUP3 GT ISZERO PUSH2 0xC0A JUMPI PUSH1 0x0 DUP2 PUSH1 0x0 SWAP1 SSTORE POP PUSH1 0x1 ADD PUSH2 0xBF2 JUMP JUMPDEST POP SWAP1 JUMP JUMPDEST SWAP1 JUMP JUMPDEST PUSH1 0x0 PUSH2 0xC1D DUP3 CALLDATALOAD PUSH2 0x119A JUMP JUMPDEST SWAP1 POP SWAP3 SWAP2 POP POP JUMP JUMPDEST PUSH1 0x0 PUSH2 0xC31 DUP3 CALLDATALOAD PUSH2 0x11AC JUMP JUMPDEST SWAP1 POP SWAP3 SWAP2 POP POP JUMP JUMPDEST PUSH1 0x0 DUP3 PUSH1 0x1F DUP4 ADD SLT ISZERO ISZERO PUSH2 0xC4C JUMPI PUSH1 0x0 DUP1 REVERT JUMPDEST DUP2 CALLDATALOAD PUSH2 0xC5F PUSH2 0xC5A DUP3 PUSH2 0x10E1 JUMP JUMPDEST PUSH2 0x10B4 JUMP JUMPDEST SWAP2 POP DUP1 DUP3 MSTORE PUSH1 0x20 DUP4 ADD PUSH1 0x20 DUP4 ADD DUP6 DUP4 DUP4 ADD GT ISZERO PUSH2 0xC7B JUMPI PUSH1 0x0 DUP1 REVERT JUMPDEST PUSH2 0xC86 DUP4 DUP3 DUP5 PUSH2 0x11C2 JUMP JUMPDEST POP POP POP SWAP3 SWAP2 POP POP JUMP JUMPDEST PUSH1 0x0 PUSH2 0xC9B DUP3 CALLDATALOAD PUSH2 0x11B8 JUMP JUMPDEST SWAP1 POP SWAP3 SWAP2 POP POP JUMP JUMPDEST PUSH1 0x0 DUP1 PUSH1 0x0 PUSH1 0x60 DUP5 DUP7 SUB SLT ISZERO PUSH2 0xCB8 JUMPI PUSH1 0x0 DUP1 REVERT JUMPDEST PUSH1 0x0 DUP5 ADD CALLDATALOAD PUSH8 0xFFFFFFFFFFFFFFFF DUP2 GT ISZERO PUSH2 0xCD2 JUMPI PUSH1 0x0 DUP1 REVERT JUMPDEST PUSH2 0xCDE DUP7 DUP3 DUP8 ADD PUSH2 0xC39 JUMP JUMPDEST SWAP4 POP POP PUSH1 0x20 DUP5 ADD CALLDATALOAD PUSH8 0xFFFFFFFFFFFFFFFF DUP2 GT ISZERO PUSH2 0xCFB JUMPI PUSH1 0x0 DUP1 REVERT JUMPDEST PUSH2 0xD07 DUP7 DUP3 DUP8 ADD PUSH2 0xC39 JUMP JUMPDEST SWAP3 POP POP PUSH1 0x40 DUP5 ADD CALLDATALOAD PUSH8 0xFFFFFFFFFFFFFFFF DUP2 GT ISZERO PUSH2 0xD24 JUMPI PUSH1 0x0 DUP1 REVERT JUMPDEST PUSH2 0xD30 DUP7 DUP3 DUP8 ADD PUSH2 0xC39 JUMP JUMPDEST SWAP2 POP POP SWAP3 POP SWAP3 POP SWAP3 JUMP JUMPDEST PUSH1 0x0 DUP1 PUSH1 0x0 PUSH1 0x60 DUP5 DUP7 SUB SLT ISZERO PUSH2 0xD4F JUMPI PUSH1 0x0 DUP1 REVERT JUMPDEST PUSH1 0x0 PUSH2 0xD5D DUP7 DUP3 DUP8 ADD PUSH2 0xC8F JUMP JUMPDEST SWAP4 POP POP PUSH1 0x20 PUSH2 0xD6E DUP7 DUP3 DUP8 ADD PUSH2 0xC11 JUMP JUMPDEST SWAP3 POP POP PUSH1 0x40 PUSH2 0xD7F DUP7 DUP3 DUP8 ADD PUSH2 0xC25 JUMP JUMPDEST SWAP2 POP POP SWAP3 POP SWAP3 POP SWAP3 JUMP JUMPDEST PUSH2 0xD92 DUP2 PUSH2 0x1148 JUMP JUMPDEST DUP3 MSTORE POP POP JUMP JUMPDEST PUSH1 0x0 PUSH2 0xDA3 DUP3 PUSH2 0x111A JUMP JUMPDEST DUP1 DUP5 MSTORE PUSH1 0x20 DUP5 ADD SWAP4 POP DUP4 PUSH1 0x20 DUP3 MUL DUP6 ADD PUSH2 0xDBC DUP6 PUSH2 0x110D JUMP JUMPDEST PUSH1 0x0 JUMPDEST DUP5 DUP2 LT ISZERO PUSH2 0xDF5 JUMPI DUP4 DUP4 SUB DUP9 MSTORE PUSH2 0xDD7 DUP4 DUP4 MLOAD PUSH2 0xE90 JUMP JUMPDEST SWAP3 POP PUSH2 0xDE2 DUP3 PUSH2 0x113B JUMP JUMPDEST SWAP2 POP PUSH1 0x20 DUP9 ADD SWAP8 POP PUSH1 0x1 DUP2 ADD SWAP1 POP PUSH2 0xDBF JUMP JUMPDEST POP DUP2 SWAP7 POP DUP7 SWAP5 POP POP POP POP POP SWAP3 SWAP2 POP POP JUMP JUMPDEST PUSH2 0xE0F DUP2 PUSH2 0x115A JUMP JUMPDEST DUP3 MSTORE POP POP JUMP JUMPDEST PUSH2 0xE1E DUP2 PUSH2 0x1166 JUMP JUMPDEST DUP3 MSTORE POP POP JUMP JUMPDEST PUSH1 0x0 PUSH2 0xE2F DUP3 PUSH2 0x1130 JUMP JUMPDEST DUP1 DUP5 MSTORE PUSH2 0xE43 DUP2 PUSH1 0x20 DUP7 ADD PUSH1 0x20 DUP7 ADD PUSH2 0x11D1 JUMP JUMPDEST PUSH2 0xE4C DUP2 PUSH2 0x1204 JUMP JUMPDEST PUSH1 0x20 DUP6 ADD ADD SWAP2 POP POP SWAP3 SWAP2 POP POP JUMP JUMPDEST PUSH1 0x0 PUSH2 0xE65 DUP3 PUSH2 0x1125 JUMP JUMPDEST DUP1 DUP5 MSTORE PUSH2 0xE79 DUP2 PUSH1 0x20 DUP7 ADD PUSH1 0x20 DUP7 ADD PUSH2 0x11D1 JUMP JUMPDEST PUSH2 0xE82 DUP2 PUSH2 0x1204 JUMP JUMPDEST PUSH1 0x20 DUP6 ADD ADD SWAP2 POP POP SWAP3 SWAP2 POP POP JUMP JUMPDEST PUSH1 0x0 PUSH2 0x140 DUP4 ADD PUSH1 0x0 DUP4 ADD MLOAD PUSH2 0xEA9 PUSH1 0x0 DUP7 ADD DUP3 PUSH2 0xD89 JUMP JUMPDEST POP PUSH1 0x20 DUP4 ADD MLOAD PUSH2 0xEBC PUSH1 0x20 DUP7 ADD DUP3 PUSH2 0xD89 JUMP JUMPDEST POP PUSH1 0x40 DUP4 ADD MLOAD DUP5 DUP3 SUB PUSH1 0x40 DUP7 ADD MSTORE PUSH2 0xED4 DUP3 DUP3 PUSH2 0xE5A JUMP JUMPDEST SWAP2 POP POP PUSH1 0x60 DUP4 ADD MLOAD DUP5 DUP3 SUB PUSH1 0x60 DUP7 ADD MSTORE PUSH2 0xEEE DUP3 DUP3 PUSH2 0xE5A JUMP JUMPDEST SWAP2 POP POP PUSH1 0x80 DUP4 ADD MLOAD PUSH2 0xF03 PUSH1 0x80 DUP7 ADD DUP3 PUSH2 0xE06 JUMP JUMPDEST POP PUSH1 0xA0 DUP4 ADD MLOAD PUSH2 0xF16 PUSH1 0xA0 DUP7 ADD DUP3 PUSH2 0xE06 JUMP JUMPDEST POP PUSH1 0xC0 DUP4 ADD MLOAD DUP5 DUP3 SUB PUSH1 0xC0 DUP7 ADD MSTORE PUSH2 0xF2E DUP3 DUP3 PUSH2 0xE5A JUMP JUMPDEST SWAP2 POP POP PUSH1 0xE0 DUP4 ADD MLOAD PUSH2 0xF43 PUSH1 0xE0 DUP7 ADD DUP3 PUSH2 0xF78 JUMP JUMPDEST POP PUSH2 0x100 DUP4 ADD MLOAD PUSH2 0xF58 PUSH2 0x100 DUP7 ADD DUP3 PUSH2 0xE06 JUMP JUMPDEST POP PUSH2 0x120 DUP4 ADD MLOAD PUSH2 0xF6D PUSH2 0x120 DUP7 ADD DUP3 PUSH2 0xF78 JUMP JUMPDEST POP DUP1 SWAP2 POP POP SWAP3 SWAP2 POP POP JUMP JUMPDEST PUSH2 0xF81 DUP2 PUSH2 0x1190 JUMP JUMPDEST DUP3 MSTORE POP POP JUMP JUMPDEST PUSH1 0x0 PUSH2 0x100 DUP3 ADD SWAP1 POP PUSH2 0xF9D PUSH1 0x0 DUP4 ADD DUP12 PUSH2 0xD89 JUMP JUMPDEST PUSH2 0xFAA PUSH1 0x20 DUP4 ADD DUP11 PUSH2 0xD89 JUMP JUMPDEST DUP2 DUP2 SUB PUSH1 0x40 DUP4 ADD MSTORE PUSH2 0xFBC DUP2 DUP10 PUSH2 0xE24 JUMP JUMPDEST SWAP1 POP PUSH2 0xFCB PUSH1 0x60 DUP4 ADD DUP9 PUSH2 0xE15 JUMP JUMPDEST DUP2 DUP2 SUB PUSH1 0x80 DUP4 ADD MSTORE PUSH2 0xFDD DUP2 DUP8 PUSH2 0xE24 JUMP JUMPDEST SWAP1 POP DUP2 DUP2 SUB PUSH1 0xA0 DUP4 ADD MSTORE PUSH2 0xFF1 DUP2 DUP7 PUSH2 0xE24 JUMP JUMPDEST SWAP1 POP PUSH2 0x1000 PUSH1 0xC0 DUP4 ADD DUP6 PUSH2 0xE15 JUMP JUMPDEST DUP2 DUP2 SUB PUSH1 0xE0 DUP4 ADD MSTORE PUSH2 0x1012 DUP2 DUP5 PUSH2 0xD98 JUMP JUMPDEST SWAP1 POP SWAP10 SWAP9 POP POP POP POP POP POP POP POP POP JUMP JUMPDEST PUSH1 0x0 PUSH2 0x100 DUP3 ADD SWAP1 POP PUSH2 0x1037 PUSH1 0x0 DUP4 ADD DUP12 PUSH2 0xD89 JUMP JUMPDEST PUSH2 0x1044 PUSH1 0x20 DUP4 ADD DUP11 PUSH2 0xD89 JUMP JUMPDEST DUP2 DUP2 SUB PUSH1 0x40 DUP4 ADD MSTORE PUSH2 0x1056 DUP2 DUP10 PUSH2 0xE24 JUMP JUMPDEST SWAP1 POP DUP2 DUP2 SUB PUSH1 0x60 DUP4 ADD MSTORE PUSH2 0x106A DUP2 DUP9 PUSH2 0xE24 JUMP JUMPDEST SWAP1 POP DUP2 DUP2 SUB PUSH1 0x80 DUP4 ADD MSTORE PUSH2 0x107E DUP2 DUP8 PUSH2 0xE24 JUMP JUMPDEST SWAP1 POP PUSH2 0x108D PUSH1 0xA0 DUP4 ADD DUP7 PUSH2 0xE06 JUMP JUMPDEST PUSH2 0x109A PUSH1 0xC0 DUP4 ADD DUP6 PUSH2 0xE06 JUMP JUMPDEST PUSH2 0x10A7 PUSH1 0xE0 DUP4 ADD DUP5 PUSH2 0xF78 JUMP JUMPDEST SWAP10 SWAP9 POP POP POP POP POP POP POP POP POP JUMP JUMPDEST PUSH1 0x0 PUSH1 0x40 MLOAD SWAP1 POP DUP2 DUP2 ADD DUP2 DUP2 LT PUSH8 0xFFFFFFFFFFFFFFFF DUP3 GT OR ISZERO PUSH2 0x10D7 JUMPI PUSH1 0x0 DUP1 REVERT JUMPDEST DUP1 PUSH1 0x40 MSTORE POP SWAP2 SWAP1 POP JUMP JUMPDEST PUSH1 0x0 PUSH8 0xFFFFFFFFFFFFFFFF DUP3 GT ISZERO PUSH2 0x10F8 JUMPI PUSH1 0x0 DUP1 REVERT JUMPDEST PUSH1 0x1F NOT PUSH1 0x1F DUP4 ADD AND SWAP1 POP PUSH1 0x20 DUP2 ADD SWAP1 POP SWAP2 SWAP1 POP JUMP JUMPDEST PUSH1 0x0 PUSH1 0x20 DUP3 ADD SWAP1 POP SWAP2 SWAP1 POP JUMP JUMPDEST PUSH1 0x0 DUP2 MLOAD SWAP1 POP SWAP2 SWAP1 POP JUMP JUMPDEST PUSH1 0x0 DUP2 MLOAD SWAP1 POP SWAP2 SWAP1 POP JUMP JUMPDEST PUSH1 0x0 DUP2 MLOAD SWAP1 POP SWAP2 SWAP1 POP JUMP JUMPDEST PUSH1 0x0 PUSH1 0x20 DUP3 ADD SWAP1 POP SWAP2 SWAP1 POP JUMP JUMPDEST PUSH1 0x0 PUSH2 0x1153 DUP3 PUSH2 0x1170 JUMP JUMPDEST SWAP1 POP SWAP2 SWAP1 POP JUMP JUMPDEST PUSH1 0x0 DUP2 ISZERO ISZERO SWAP1 POP SWAP2 SWAP1 POP JUMP JUMPDEST PUSH1 0x0 DUP2 SWAP1 POP SWAP2 SWAP1 POP JUMP JUMPDEST PUSH1 0x0 PUSH20 0xFFFFFFFFFFFFFFFFFFFFFFFFFFFFFFFFFFFFFFFF DUP3 AND SWAP1 POP SWAP2 SWAP1 POP JUMP JUMPDEST PUSH1 0x0 DUP2 SWAP1 POP SWAP2 SWAP1 POP JUMP JUMPDEST PUSH1 0x0 PUSH2 0x11A5 DUP3 PUSH2 0x1170 JUMP JUMPDEST SWAP1 POP SWAP2 SWAP1 POP JUMP JUMPDEST PUSH1 0x0 DUP2 ISZERO ISZERO SWAP1 POP SWAP2 SWAP1 POP JUMP JUMPDEST PUSH1 0x0 DUP2 SWAP1 POP SWAP2 SWAP1 POP JUMP JUMPDEST DUP3 DUP2 DUP4 CALLDATACOPY PUSH1 0x0 DUP4 DUP4 ADD MSTORE POP POP POP JUMP JUMPDEST PUSH1 0x0 JUMPDEST DUP4 DUP2 LT ISZERO PUSH2 0x11EF JUMPI DUP1 DUP3 ADD MLOAD DUP2 DUP5 ADD MSTORE PUSH1 0x20 DUP2 ADD SWAP1 POP PUSH2 0x11D4 JUMP JUMPDEST DUP4 DUP2 GT ISZERO PUSH2 0x11FE JUMPI PUSH1 0x0 DUP5 DUP5 ADD MSTORE JUMPDEST POP POP POP POP JUMP JUMPDEST PUSH1 0x0 PUSH1 0x1F NOT PUSH1 0x1F DUP4 ADD AND SWAP1 POP SWAP2 SWAP1 POP JUMP INVALID LOG2 PUSH6 0x627A7A723058 KECCAK256 0xb5 SWAP6 PUSH9 0x48FE2CA68BE3218ED4 0xe8 0xbe SWAP4 0xb5 0xdf SMOD RETURN MOD 0xe7 0xad GASPRICE CALLDATACOPY 0xd4 POP 0xd DUP5 GAS 0x4c 0x21 PUSH18 0x6C6578706572696D656E74616CF50037A265 PUSH3 0x7A7A72 ADDRESS PC KECCAK256 0xe1 DUP6 DIV SWAP1 EXTCODEHASH 0xd1 0xb3 0xa7 0xd3 DIV 0x2f PUSH32 0xDDEF2612AF5FE7788600DA1666991035FF22827F6C6578706572696D656E7461 PUSH13 0xF5003700000000000000000000 "
    },
    "gasEstimates": {
      "creation": {
        "codeDepositCost": "3265000",
        "executionCost": "infinite",
        "totalCost": "infinite"
      },
      "external": {
        "addNewInsurance(address)": "61603",
        "approveCancelRequest(uint256,bool)": "infinite",
        "createInsurance(string,int256,int256,string,string,int256)": "infinite",
        "getData(string)": "infinite",
        "isCorrectPassword(string)": "infinite",
        "pendingRequest(address,address,string,string,string,bool,bool,uint256)": "infinite"
      }
    },
    "methodIdentifiers": {
      "addNewInsurance(address)": "271eec7a",
      "approveCancelRequest(uint256,bool)": "9d55295c",
      "createInsurance(string,int256,int256,string,string,int256)": "d15540d8",
      "getData(string)": "ae55c888",
      "isCorrectPassword(string)": "7ec35b0a",
      "pendingRequest(address,address,string,string,string,bool,bool,uint256)": "9b6b309a"
    }
  },
  "userdoc": {
    "methods": {}
  }
}